:100000000C9456040C948E040C948E040C948E0460
:100010000C948E040C948E040C948E040C948E0418
:100020000C948E040C948E040C94C8270C94842792
:100030000C94C5280C948E040C948E040C948E049D
:100040000C948E040C948E040C948E040C948E04E8
:100050000C94EC280C94A1280C948E040C948E041F
:100060000C948E040C948E040C948E040C948E04C8
:100070000C948E040C948E040C948E040C948E04B8
:100080000C948E040C948E040C948E040C948E04A8
:100090000C948E040C948E040C948E040C948E0498
:1000A0000C948E040C948E040C948E0405010902A9
:1000B000A10185020901A100050919012905150001
:1000C00025019505750181029501750381010501E1
:1000D000093009311581257F950275088106093897
:1000E0001581257F950175088106050C0A380215D2
:1000F00081257F950175088106C0C005010980A191
:1001000001850319012AB700150126B7009501756D
:10011000108100C0050C0901A101850419012AA064
:1001200002150126A002950175108100C005010984
:1001300006A1018506050719E029E71500250195A7
:1001400008750181020507190029EF1500250195A1
:10015000F0750181020508190129059505750191C0
:1001600002950175039101C00660FF0961A10109B3
:1001700062150026FF0095207508810209631500AD
:1001800026FF00952075089102C005010906A1010E
:10019000050719E029E71500250195087501810279
:1001A0009501750881010507190029FF150026FF33
:1001B0000095067508810005081901290595057542
:1001C000019102950175039101C00000000000003B
:1001D000000000000000000000000000000000001F
:1001E00000000000000000000000000000007E0F82
:1001F00000D4FFFFFFC700000078000000000000EF
:1002000000002A2B28000000000000000000000071
:10021000000000000029000000002C1E34202122D4
:1002200024342627252E362D3738271E1F2021223D
:10023000232425263333362E37381F0405060708B6
:10024000090A0B0C0D0E0F101112131415161718A6
:10025000191A1B1C1D2F3130232D350405060708E4
:10026000090A0B0C0D0E0F10111213141516171886
:10027000191A1B1C1D2F3130354CFD377A585A0086
:100280000004E6D6B4460200210116000000742FD7
:10029000E5A3E009AF02755D003D8889C65436C309
:1002A000174FE4E469652FC6146B97E4F24D0EFF17
:1002B000CD3D5A479A19C7C89B20BFFB3A7EC39AC7
:1002C0007B17D342E86A4B3CBD3FE6BAEB52D6C639
:1002D000FB01A8B5F64F5311740CC3C2D7EF9A12A5
:1002E0006172BF7E1F96036640148C0B6C25FCA0C8
:1002F000A2588A627ABBD99B5A7AAAD8C49672B39A
:10030000C68F897E8BCF41CDC683921E6B88F879CC
:10031000C83BC6DFFF2A815BA766AAC41077097FA6
:10032000FCB6CA8C7CBCC4CF5D4D9190C14B4BF2E6
:10033000BB6433FCFA54CB32172C6B180476390BA0
:10034000BD9E8B5EC1A8D650FAA43B4CDD0EF5E9EC
:1003500030039A72C3767B150D5BD3E73A3FEF9C6F
:10036000BAD7F3F27C576D9735E91BBBB6F4459AC3
:1003700066846341A90DD3189BC9AD7B6160346F5E
:100380006940CDF3FC416606450ED92D92EF1B5115
:10039000FF40FC3B76C6874D23155D4156C752870B
:1003A000520877C660CB13290090AA93DEBD035193
:1003B00053BFB85B4619B01B09016D2295B8710394
:1003C00077F30CA8AB4559F30A60373450A77CB8D3
:1003D000B1E3F6BEAFFFA58A818EF82AD93093AE7D
:1003E000D468CD5A493AD09533493DF0B18B99D371
:1003F000544924C9471DFFB350EE5FD1F70EF1E217
:10040000388E672429752BF2CB65DCD3A1E8D06D3B
:1004100018AF7EA4BA8552E48F92C8E32C7A828505
:1004200039B0743E1BC9C666C86A8EB3ED0C7DBC7C
:10043000515D25E88692CB6DA144A9A6F47E4026A5
:10044000D8234AB3C7E297E748F1B5A7C1080E2DF4
:100450004FF2801B73F378AFF68AF72FD3D8598801
:10046000DDE58413E41492630ED26D5D24A595D26C
:1004700083AA1C08356E717CE3623034761A4DC253
:100480006888CBB651EA3E772AC1DE5FC6EA568E4F
:1004900036A5DD6D9A0EC1696B943E83D2616ED82C
:1004A000D21FC4AD01FB69BD1F9FDF75AF8833E369
:1004B000A016E838D2C54377E9F978B9AAB9274830
:1004C000D4F0932D7A615368443CFEDA00DFD3E523
:1004D0000DCF97AF59E163F3AF4937208FBAE2C22E
:1004E000F86C56904F0835DA63258371EB4FDF388F
:1004F00023A718A6C95A043F3B3448376614F9E9C4
:10050000A0BE7277AC11CBC33A93F76153000000E1
:1005100000006931C9BAF902F72100019105B01351
:100520000000F8CD9DDEB1C467FB020000000004AE
:10053000595A000000000000000000000001010204
:1005400003040506080A0C0F1114181C2024292E78
:1005500033393F464C535B626A7179818A929AA221
:10056000AAB2B9C1C8CFD5DCE1E7EBF0F4F7FAFCE9
:10057000FDFEFFFEFDFCFAF7F4F0EBE7E1DCD5CF82
:10058000C8C1B9B2AAA29A928A8179716A625B5390
:100590004C463F39332E2924201C1814110F0C0A05
:1005A000080605040302010100000000000000002D
:1005B000000029001E001F0020002100220023004F
:1005C00024002500260027002D002E002A002B00E5
:1005D00014001A000800150017001C0018000C0079
:1005E000120013002F0030003100015104001600EA
:1005F000070009000A000B000D000E000F00330079
:1006000034004C002800E10031001D001B000600F2
:100610001900050011001000360037003800D85CC2
:100620004C00E000E300E20000002C0000002C0081
:1006300000002C000000E600E600E700E4000100F6
:100640003A003B003C003D003E003F0040004100BE
:1006500042004300440045004C000100010001003D
:100660004B000100010001000100520001000100E7
:1006700001000100C05C010001004A004E004D0075
:1006800001000100500051004F00010001002A004C
:10069000010001000100AA00A800A900010001005A
:1006A000AC00AE00AB0001000100460001000100FB
:1006B0000100010000000100000001000000010035
:1006C0000000010001000100010001000100010023
:1006D0000100010001000100010001000100010012
:1006E0000100010001000100010001000100010002
:1006F00001000100010001000100010001000100F2
:1007000001000100010001000100010001000100E1
:1007100001000100010001000100010001000100D1
:1007200001000100010001000100010001000100C1
:1007300001000100010001000100010001000100B1
:1007400000000100000001000000010000000100A5
:100750000100010001000100010001000100010091
:100760000100010001000100010001000100010081
:100770000100010001000100010001000100010071
:100780000100010001000100010001000100010061
:100790000100010001000100010001000100010051
:1007A0000100010001000100010001000100010041
:1007B0000100010001000100010001000100010031
:1007C0000100010001000100010001000000010022
:1007D0000000010000000100000001000100010014
:1007E000010009025B00030100A0FA0904000001F6
:1007F00003010100092111010001224000070581C8
:10080000030800010904010002030000000921118E
:1008100001000122220007058203200001070503D1
:100820000320000109040200010300000009211156
:1008300001000122BC000705840320000112010011
:10084000020000000803A102000100010203011CD4
:10085000037600690061006C003A006600360034DF
:100860000063003200620033006300000010035098
:10087000006F006C006100720069007300000026C8
:1008800003610069003000330020004400650073FC
:1008900000690067006E002000530074007500645A
:1008A0000069006F000000040309040011241FBE4A
:1008B000CFEFDAE0DEBFCDBF04B603FE18C08091F3
:1008C000C5039091C603A091C703B091C8038730B8
:1008D000904BA740B04B59F41092C5031092C60339
:1008E0001092C7031092C803E0E0F8E3099511E005
:1008F000A0E0B1E0EAE9F3E602C005900D92A2376C
:10090000B107D9F723E0A2E7B1E001C01D92A53CF1
:10091000B207E1F70E945E290C9461310C9400004B
:10092000E8EDF0E080818E7F80831092E2001092EB
:10093000DA001092E100A0EEB0E08C9181608C931F
:1009400080818F77808319BCA7EDB0E08C918E7F7A
:100950008C9380818F7E80831092920308952091E2
:10096000E4003091E50095E6A9012091EC00822F8A
:10097000817020FF06C08091E80080FF06C080E003
:1009800008952091E80022FD1AC08091C0038823B9
:1009900089F0853089F08091EB0085FD0FC02091B2
:1009A000E4003091E50042175307F9F29150E1F667
:1009B00084E0089582E0089583E0089581E0089539
:1009C000EF92FF920F931F93CF937C018B010E94B4
:1009D000AF04C82F811117C08091E80085FD0BC0BE
:1009E0008091E8008E778093E8000E94AF0488230E
:1009F00099F3C82F08C0F70181917F018093F1001E
:100A00000150110949F78C2FCF911F910F91FF9041
:100A1000EF900895CF93FC018091C003843001F5DD
:100A2000C091E900CF702091EC00922F917020FDD1
:100A300090E8C92B82E08093E9008091E80080FF74
:100A40000CC050E040E060E270E0CF010E94E004A2
:100A50008091E8008E778093E800CF70C093E90022
:100A6000CF9108958091B80387FF13C08091E8006B
:100A700082FF06C08091E8008B778093E80004C075
:100A80008091C0038111F2CF08958091C003882323
:100A9000D9F38091E80080FFF8CF8091E8008E774D
:100AA000ECCF982F9093E900242F762F50E08917F0
:100AB00031F07091EC002091ED005091F00021FD9B
:100AC00007C09F5F973071F78093E90081E0089538
:100AD0003091EB003E7F3093EB003091ED003D7F95
:100AE0003093ED003091EB0031603093EB00709368
:100AF000EC002093ED005093F0002091EE0027FDD4
:100B0000E0CF80E00895CF92DF92EF92FF920F93B3
:100B10001F93CF93DF93C8EDD0E088818F7E8883C9
:100B2000E7EDF0E080818160808384E082BF81E036
:100B30008093920388818E7F888302EE10E0F80113
:100B400010821092DA0081EEC82ED12CF6011082AC
:100B500088818F77888388818068888388818F7D6A
:100B6000888319BC1092C0031092B7031092B60389
:100B70001092B50390EEE92EF12CF70180818B7F66
:100B8000808388818160888342E060E080E00E9409
:100B90005105F60180818E7F8083F801808181601C
:100BA0008083808188608083F70180818E7F80834D
:100BB000888180618883DF91CF911F910F91FF9091
:100BC000EF90DF90CF900895FC018091BE0390914B
:100BD000BF0386179707A0F06115710529F490915E
:100BE000E8009E779093E80090E06115710551F45C
:100BF000911108C08091E80082FF34C080E0089520
:100C0000BC01F2CF8091C0038823C1F18530C1F1CE
:100C10008091E80083FD30C08091E80082FDEACF3A
:100C20008091E80080FFE1CF8091F3002091F200F5
:100C3000382F6115710519F02830310558F091E011
:100C40002830310509F090E02091E8002E772093BC
:100C5000E800CBCF81918093F100615071092F5F43
:100C60003F4FE7CF8091C003882341F0853041F0AA
:100C70008091E80083FFBECF81E0089582E008956F
:100C800083E0089508958091940308959C014FB7DF
:100C9000F8948091890390918A03A0918B03B0917D
:100CA0008C034FBF821B930B08952FB7F89480914C
:100CB000890390918A03A0918B03B0918C032FBF7D
:100CC000089520918603309187032817390771F022
:100CD0009093870380938603E0918403F0918503CA
:100CE000309721F00084F185E02D0994089520913A
:100CF0008203309183032817390771F0909383039F
:100D000080938203E0918403F0918503309721F072
:100D10000680F781E02D09940895E0918403F09115
:100D20008503309721F00190F081E02D099480E057
:100D30000895DC0160911E0380911F03962F891393
:100D400001C00895292F30E0F901EE0FFF1FEA5E80
:100D5000FC4F408151814A175B07A1F487E08A9FCD
:100D6000A0018B9F500D112446505D4F81E0FA0188
:100D700084839613E6CF2F5F3F4F23703327209352
:100D80001E0308952F5F3F4F922F9370D8CF10927C
:100D9000970210929602EAEFF2E08581811102C07B
:100DA00014821682379683E0E631F807B1F708958A
:100DB00081152CE5920741F4209122033091230301
:100DC000232B11F490E080E008958F929F92AF92D0
:100DD000BF92CF92DF92EF92FF920F931F93CF9328
:100DE000DF938C0180918600909187006CE070E029
:100DF0000E9479306017710798F0C80169E070E0CF
:100E00000E947930CB01DF91CF911F910F91FF901C
:100E1000EF90DF90CF90BF90AF909F908F9008950C
:100E20008091860090918700E0908600F090870086
:100E3000C0908600D0908700C6E0D0E0BE010E943E
:100E4000793030E020E0060F171F211D311D4801C9
:100E5000590185E0880C991CAA1CBB1C8A95D1F706
:100E6000C701BE010E947930F12CE12CA701960147
:100E7000260F371F411D511DC501B4010E94A1302D
:100E800069017A01E0918600F0918700CA01B901F9
:100E90000E9469309B01AC01DF010E94DF309B01A1
:100EA000AC01C701B6010E9469302FE09695879585
:100EB000779567952A95D1F7009186001091870064
:100EC00030E020E0061717072807390708F09ACF07
:100ED000609186007091870095CF8630F0F4811183
:100EE0001DC090918000977F909380002F98A091D3
:100EF0008600B0918700282F30E00E94D03025E096
:100F000030E040E050E00E94A130C9010E94E506B7
:100F100090938D0080938C00089585E090918000DF
:100F2000986090938000E3CF282F220F220F220F8A
:100F3000909158029770922B90935802987F21E0DD
:100F400009F420E09091580220FB90F99093580208
:100F50000C946D070E9455069C019091540280915B
:100F60005502982B21F0309351022093500290911A
:100F7000560280915702982B21F030934F02209314
:100F80004E02E0918403F0918503309749F082E0AE
:100F9000809352020480F581E02D82E592E009946D
:100FA000089590915402803F59F48091550287FF33
:100FB0000DC01092550291110BC010924C0208C046
:100FC000813F81F48091550218169CF3992381F09A
:100FD0008091560290915702892B09F064C01092BB
:100FE0004B020895823F49F497FFF0CF10925402CC
:100FF000809155028111ECCFE0CF833F19F419168F
:10100000ACF3E4CF20915602893F29F41216F4F68E
:1010100010925602DBCF8A3F19F427FFD7CFF8CFC3
:10102000209157028B3F29F427FFD0CF109257020F
:10103000CDCF8C3F19F41216CCF3C8CF843F31F4D6
:10104000809153028E7F80935302C0CF853F21F45D
:10105000809153028D7FF7CF863F21F48091530218
:101060008B7FF1CF873F21F480915302877FEBCFB5
:10107000883F21F4809153028F7EE5CF8D3F31F47C
:1010800080914D028E7F80934D02A0CF8E3F21F440
:1010900080914D028D7FF7CF8F3F09F097CF8091E0
:1010A0004D028B7FF0CF089580914D0280FF0CC0E0
:1010B0006091130170E07595679575956795611559
:1010C000710549F1862F089581FF06C060911301D3
:1010D00070E075956795F3CF6091130182FD0BC0A9
:1010E00090914B029923A1F060911201809113011C
:1010F000961738F0682F70E06038710500F38FE7BD
:101100000895899FC001112470E00E948D30F4CFB2
:1011100061E070E0D7CF81E0089580914D0280FFBB
:101120000DC06091110170E0660F771F6038710586
:1011300070F56115710569F1862F089581FF07C06B
:101140006091110184E0689FB0011124EFCF82FF0C
:1011500004C06091110188E0F6CF80914C02882391
:1011600099F020911001609111018217A0F7869FDC
:10117000C001112433E0880F991F3A95E1F7622FDF
:1011800070E00E948D30D2CF68E070E0D5CF8FE75D
:10119000089581E00895803F31F40E948D08819583
:1011A000809355020895813F19F40E948D08F8CF6D
:1011B000823F31F40E948D088195809354020895F6
:1011C000833F19F40E948D08F8CF893F29F40E94CB
:1011D00054088093560208958A3F21F40E945408CF
:1011E0008195F7CF8B3F31F40E945408819580930D
:1011F000570208958C3F19F40E945408F8CF843F99
:1012000031F4809153028160809353020895853FA9
:1012100021F4809153028260F7CF863F21F48091C0
:1012200053028460F1CF873F21F48091530288609C
:10123000EBCF883F21F4809153028061E5CF8D3F51
:1012400031F480914D02816080934D0208958E3F6C
:1012500021F480914D028260F7CF8F3FB9F78091E2
:101260004D028460F1CF80E00895F894E82FE29574
:10127000EF70F0E031A1282F2F7081E090E001C0E5
:10128000880F2A95EAF7982F9095932391A392A11E
:10129000892B82A37894089590918D0392FF06C0C4
:1012A000282F28712830F9F4877F846093FF06C0C7
:1012B000282F28712831F1F4877E846120918E03D4
:1012C00020FF06C0382F38713830D9F4877F81600D
:1012D00021FF06C0282F28712831D1F4877E816133
:1012E00094FD877E0895282F24712430F9F68B7F92
:1012F0008860DCCF282F2471243101F78B7E886130
:10130000DDCF382F3171313019F78E7F8860E0CF13
:10131000282F2171213121F78E7E8861E1CFCF9373
:10132000DF93EC0182389105A9F1D8F5813391055D
:1013300009F496C048F58932910509F48AC08A9764
:1013400009F495C0C11521E5D20708F0BCC0C1154C
:1013500030E5D30708F014C1C83ED10508F09CC0A1
:10136000C03ED10560F5C83AD10508F087C0C53A3E
:10137000D10508F0FDC0C130D10509F12097F9F081
:10138000C430D105E0F440C08533910509F45AC05A
:10139000C997C1F680918D03837089F0C0EED0E0CB
:1013A0000EC0833E910599F170F4803E910501F1E4
:1013B000823E910539F680918D0382FD21C0CE01D8
:1013C000DF91CF910895863E910561F1873E9105A9
:1013D00071F1843E910509F0B5CF80918E0381FFB4
:1013E000EECF80918D03C7EED0E084FD0DC0E7CF36
:1013F00080918D0380FD12C190918E0390FFDFCF0D
:10140000C3EED0E084FFDBCFD0E0C0E0D8CF809146
:101410008D0382FD06C190918E0390FDBFCF84FFA6
:10142000CECFF2CF80918D0383FDDDCFC8CF8091E9
:101430008D0383FDF9C090918E0391FFF0CFC4EE30
:10144000D0E0BDCF80918D0385FFB9CFC9E2D0E058
:10145000B6CF80918D0385FFB2CFC5E3D0E0AFCF8B
:1014600080918D0386FFABCFCAE2D0E0A8CF8091F8
:101470008D0386FFA4CFC1E3D0E0A1CFCF3BD10540
:1014800018F6C85AD0E0CC0FDD1FCE5DDE4F0990B4
:10149000D881C02DD46493CFC11540E2D40758F44D
:1014A000C11581E0D80708F08ACFC03FD10508F404
:1014B000ABCFD06584CFC11590E4D90708F4A4CF91
:1014C000DF70D06A7CCFC11525E5D20700F5C115C4
:1014D00034E5D30708F08AC0C11543E5D40708F006
:1014E00071C0C11582E5D80708F467C0CE018370CA
:1014F000992721E030E002C0220F331F8A95E2F7DE
:10150000C695C69580E2C89FE001112452C0C1155E
:1015100099E5D907A8F4C11528E5D20708F06BC0F2
:10152000C11536E5D30708F06FCF8C2F0E944C0908
:10153000C82FD0E0DC2FCC27CC27DF71D0623FCF83
:10154000C1154AE5D40708F45BC0CE019056811559
:10155000904208F059CF8D2F8F710E944C0990E076
:10156000982F882788279F719C012C2BE901E6CFB3
:10157000C55AD0E0C15EDE4FC881D0E0D0641FCF35
:10158000CE01E4E096958795EA95E1F783702C2FDC
:1015900026952695237040E2249F90011124382B34
:1015A0008C2F8370C1E0D0E002C0CC0FDD1F8A9584
:1015B000E2F7C22BD32BDC6802CFDC2FCC27C16F24
:1015C000D06AFDCECE018370992721E030E002C0C1
:1015D000220F331F8A95E2F7C695C69590E2C99F00
:1015E000E0011124C22BD32BDA68E9CEDC2FCC2703
:1015F000C46FD06AE4CEDC2FCC27C06FD06ADFCEB8
:101600008C2F8F700E944C0934E0D695C7953A957F
:10161000E1F7CF709C2FEC01D069D1CEC9E3D0E0C7
:10162000CECEC2EED0E0CBCEC6EED0E0C8CE80911A
:101630002302882331F0109223021092220210928A
:101640002102089580959091270398239093270372
:1016500008958095909126039823909326030895EA
:10166000109200021092FF011092FE0108958091E5
:10167000FD0181111092FD010895909116019923A9
:10168000D1F090918D0397FF16C0E82FE695E6956F
:10169000E695EE31E0F4F0E0EC58FE4F282F27708D
:1016A00081E090E001C0880F2A95EAF78095928149
:1016B000892382830895E6E7F1E09191891303C0BD
:1016C000DF0111971C9291E0EC37F907B1F708950B
:1016D000909116019923C1F090918D0397FF14C04A
:1016E000E82FE695E695E695EE31F8F4F0E0EC5853
:1016F000FE4F877021E030E001C0220F8A95EAF7A3
:101700008281822B82830895A6E7B1E0EFEF90E01B
:101710002D91821751F0EF3F19F4211101C0E92FEB
:101720009F5F9630A9F7EF3F09F408950E2E000C45
:10173000FF0BEC58FE4FE6CF8091FC019091BB016E
:10174000981301C008958F5F8770FACF9E3F49F1CB
:10175000E82F2EE0929FE00D11249E2F9770E695C2
:10176000E695E69583E0E89FF0011124E856FE4FE8
:1017700050E040E080E0219130E0092E02C0369533
:1017800027950A94E2F721703327042E01C0220F17
:101790000A94EAF7822B4F5F5F4F4330510559F7A8
:1017A000089580E008959E3F69F1E82F2EE0929F12
:1017B000E00D11248E2F877041E001C0440F8A95FF
:1017C000EAF7E695E695E69583E0E89FF0011124B7
:1017D000E856FE4F30E020E070E05191DF011197B4
:1017E000CB01022E02C0969587950A94E2F781708C
:1017F00081958527842385278C932F5F3F4F233046
:10180000310559F708959C013A9521153F4150F54E
:10181000FC01EE27F170BC0166277270AC01442711
:1018200054709C012227387094FF0EC080E1EF2B8A
:1018300009F480E0672B09F08062452B09F0806491
:10184000232B89F08068089581E0EF2B09F480E074
:10185000672B09F08260452B09F08460232B19F077
:101860008860089580E0089580938F0370939103BA
:10187000609390038091C0038430F9F48093E90071
:101880008FEF9091E800815095FD06C095ED9A95F7
:10189000F1F700008111F5CF8091E80085FF0DC0C0
:1018A00050E040E063E070E08FE893E00E94E004E5
:1018B0008091E8008E778093E8000895BC0184E071
:1018C0000C94340CBC0183E00C94340C9C0184E037
:1018D0008093E9009FEF8091E800915085FD06C05C
:1018E00085ED8A95F1F700009111F5CF8091E80020
:1018F00085FF0CC050E040E066E070E0C9010E9446
:10190000E0048091E8008E778093E8000895CF93FB
:10191000DF93EC01809116018823B1F180918D0352
:1019200087FF32C060E284E08093E9008FEF9091FE
:10193000E800815095FD06C095ED9A95F1F70000FD
:101940008111F5CF8091E80085FF1BC080911601C1
:1019500070E050E040E0811104C050E040E068E0F9
:1019600070E0CE010E94E0048091E8008E778093C1
:10197000E80080E2FE01A5E9B3E001900D928A95AE
:10198000E1F7DF91CF91089568E081E0CDCF81E06C
:101990008093E00080E28093D8001092C9008FE12C
:1019A0009EE40197F1F700C0000087E090EBDC01B6
:1019B0008093C5039093C603A093C703B093C80355
:1019C00088E19CE00FB6F894A895809360000FBE64
:1019D00090936000FFCFCF93DF93C7EAD2E060E03F
:1019E000CE010E9425312196C11584E0D807B9F7B0
:1019F000DF91CF9108950F931F93CF93DF938901C8
:101A0000843048F5653038F54E3028F521153C45D1
:101A100031F42091220330912303232BE1F0C42FD2
:101A2000D0E0CC0FDD1F9CE1699FC00DD11D1124BA
:101A30009CE8899FC00DD11D1124612FCE0187968E
:101A40000E942531602FCE018896DF91CF911F91A2
:101A50000F910C942531DF91CF911F910F91089533
:101A6000CF93C82F6FEF811162E883E290E00E946C
:101A700025316FEFC11167EA84E290E00E942531C1
:101A80006FEFC11164E985E290E0CF910C942531AC
:101A9000682F86E090E00C9425318091580281FFF8
:101AA00011C08D7F809358020E94480D80916F0075
:101AB0008E7F80936F0080915802869586958695DB
:101AC0000C946D0708958091580281FD10C08260CA
:101AD000809358020E94480D10925B0210925A02A5
:101AE0001092590280916F00816080936F00089579
:101AF0007F928F929F92AF92BF92CF92DF92EF929E
:101B0000FF920F931F93CF93DF93CDB7DEB7649708
:101B10000FB6F894DEBF0FBECDBFA0902203B090E9
:101B2000230381E090E0909323038093220382EBD0
:101B3000C82E85E0D82E00E0760110E015C0F40133
:101B400025913491472D612F802F0E94FB0C82E05C
:101B5000880E911C7394EEE07E12F1CFFCE1EF0E43
:101B6000F11C1F5F153019F04701712CE8CF0F5F92
:101B70008CE8C80ED11C0430F9F61A8219821C8236
:101B80001B821E821D8218861F8288EC90E09A8735
:101B900089874AE050E067E572E0CE0101960E9435
:101BA00049314AE050E061E672E0CE0101960E94C0
:101BB00049314AE050E06BE672E0CE0101960E94A6
:101BC00049314AE050E065E772E0CE0101960E949B
:101BD00049318E01055F1F4F8AE0F80111928A9505
:101BE000E9F74AE050E06FE772E0C8010E9449312E
:101BF0004AE050E069E872E0C8010E9449314AE0D9
:101C000050E063E972E0C8010E9449314AE050E0C7
:101C10006DE972E0C8010E944931B0922303A0929D
:101C2000220364960FB6F894DEBF0FBECDBFDF91DE
:101C3000CF911F910F91FF90EF90DF90CF90BF90C9
:101C4000AF909F908F907F90089580E00E94300D1C
:101C500060E086E290E00E9425310E94780D0E94AB
:101C6000EB0C81E00C94300D9B01843070F49AE011
:101C7000899FB0011124695A7D4F4AE050E0C901A3
:101C80000E94073190E080E008958FEF9FEF089564
:101C90008F929F92AF92BF92CF92DF92EF92FF927C
:101CA0000F931F93CF93DF93CDB7DEB72A970FB66D
:101CB000F894DEBF0FBECDBF0AE213E0F12CE12C99
:101CC00088EBC82E86E2D82E92EEA92E96E2B92E87
:101CD00024E1822E26E2922EF801D182C082B382C4
:101CE000A28295828482F58AE48ABE016F5F7F4F6B
:101CF0008E2D0E94340E892B29F489859A85F8014E
:101D0000938B828BFFEFEF1AFF0A0A5E1F4F84E06E
:101D1000E816F10409F72A960FB6F894DEBF0FBE55
:101D2000CDBFDF91CF911F910F91FF90EF90DF908A
:101D3000CF90BF90AF909F908F9008950F931F9377
:101D4000CF93DF93843030F5653020F54E3010F5B9
:101D5000C42FD0E0CC0FDD1F2CE1629FC00DD11D40
:101D600011243CE8839FC00DD11D1124CE0187961C
:101D70000E941731082F10E0102F0027CE018896FF
:101D80000E9417319801282BC901DF91CF911F9133
:101D90000F91089590E080E0F8CF462F20919402B3
:101DA00030919502232B91F47E3F39F46E3F71F40C
:101DB00080919202909193020895843038F47530A6
:101DC00028F46E3018F4672F0C949E0E90E080E09B
:101DD0000895CF92DF92FF920F931F93CF93DF93DB
:101DE0006C010091C10380912402082BC7E0D0E070
:101DF00010E0FC2EC8010C2E02C0959587950A9420
:101E0000E2F780FD0CC02197A0F7F12C8F2DDF9118
:101E1000CF911F910F91FF90DF90CF900895B60161
:101E20008C2F0E94CD0E0E948F09019761F3EECF97
:101E3000CF93DF93EC010E94E90EBE010E94CD0E0C
:101E4000DF91CF910C948F09FC01868197810097D7
:101E500091F00E948F0992959F709630B9F080F4AE
:101E6000925F9F70923080F4803F19F058F4883E62
:101E700058F481E00895808191810E94180FEBCF82
:101E80009A5FEFCF843FA9F380E00895883E88F3FE
:101E9000813FD1F7EECF1F93CF93DF9300D000D0D7
:101EA0000F92CDB7DEB7FC012681378121153105B0
:101EB00041F525E0DE01119601900D922A95E1F79A
:101EC000FC01228189819A812223B9F06623A9F03D
:101ED0000E94E90E182F682F89819A810E94D30BE6
:101EE00069817A81812F0F900F900F900F900F9042
:101EF000DF91CF911F910C94CD0E0E94A60B182F4D
:101F0000EFCFC9010F900F900F900F900F90DF91BE
:101F1000CF911F91089583E290E00E94173182389B
:101F200089F484E290E00E941731873A59F485E2FF
:101F300090E00E94173191E0843909F090E0892FF8
:101F40008170089580E0FCCFCF9384E090E00E9400
:101F50001731C82F82E290E00E941731982F8C2F02
:101F6000CF910895CF92DF92EF92FF920F931F933C
:101F7000CF93DF93CDB7DEB72A970FB6F894DEBFC5
:101F80000FBECDBFEAE6F2E088E2DF011D928A953E
:101F9000E9F7EAEFF2E08CE1DF011D928A95E9F7BB
:101FA0008AE6C82E82E0D82E7F010FE712E0F70103
:101FB000D182C0824AE050E0B801CE0101960E9471
:101FC000073188E0FE013196D60101900D928A9585
:101FD000E1F789859A85D70113969C938E93129782
:101FE000BAE0CB0ED11CE7E0EE0EF11C065F1F4FEE
:101FF000073AF2E01F07D9F62A960FB6F894DEBF2B
:102000000FBECDBFDF91CF911F910F91FF90EF9049
:10201000DF90CF9008958F929F92AF92BF92CF9210
:10202000DF92EF92FF920F931F93CF93DF93CDB781
:10203000DEB72A970FB6F894DEBF0FBECDBF8E0174
:102040000F5F1F4F8AE0F80111928A95E9F790E53A
:10205000E92E91E0F92E6801AA24A394B12CF7018E
:1020600081917F018F3F09F446C0F894E82FE295F3
:10207000EF70F0E021A18F70A50102C0440F551F41
:102080008A95E2F7CA01922F982B91A392A180958D
:10209000892382A3789400C0E5E5F1E021E030E0F7
:1020A000912C812C41914F3F09F481C0A42FA2951E
:1020B000AF70B0E090968C9190E04F7002C0959513
:1020C00087954A95E2F780FD72C0C901882A992A4E
:1020D000220F331F51E0E336F50721F7F70131975F
:1020E00080818F3F11F00E94350980EA8A95F1F7CF
:1020F000F60191828082F2E0CF0ED11C45E5E41614
:1021000041E0F40609F0ABCF4AE050E0B80188E2C4
:1021100092E00E94F330FF24F394009709F4F12C2D
:10212000892B09F447C08AE0F801A8E2B2E00190E7
:102130000D928A95E1F781E0809327020E9455066F
:102140009093260280932502809125029091260289
:102150000E944606059790F18091280290912902ED
:10216000909342028093410280912A0290912B0227
:10217000909344028093430280912C0290912D020F
:10218000909346028093450280912E0290912F02F7
:1021900090934802809347028091300290913102DF
:1021A00090934A02809349021092270207C090E060
:1021B00080E08CCF809127028111C6CF8F2D2A9687
:1021C0000FB6F894DEBF0FBECDBFDF91CF911F9148
:1021D0000F91FF90EF90DF90CF90BF90AF909F90C6
:1021E0008F9008958091260390912703892B8093E7
:1021F000740180912302882329F10E9455062091C1
:10220000210230912202821B930B8838934110F0F7
:102210000E94170B8091740190912302892B809367
:102220007401809116018823D9F180918D0387FF75
:1022300037C08EE1E6E7F1E090E0815098F591112A
:102240000E94170B40E250E061E072E084E791E009
:102250000E94F330892B59F180E2E4E7F1E0A1E03C
:10226000B2E001900D928A95E1F7E0918403F0913C
:1022700085033097E1F080911601882359F0809111
:102280008D0387FF07C0809174018093750186E0FC
:10229000809374010280F381E02D84E791E009943A
:1022A00086E0C8CF2191222341F29F5FC6CF0895D7
:1022B000EF92FF920F931F93CF93DF93EC018A85E8
:1022C000811134C0EB80FC8087E5F81A26E12E9D51
:1022D000C0012F9D900D1124DC01A65DBC4F14960A
:1022E000ED91FC911597309731F054966D917C915A
:1022F000805D9C4F099586E18E9D80018F9D100D1C
:102300001124065D1C4FF80187810E94290BF801FA
:1023100080850E94220B0E94F210188219861B866B
:102320001E821D821092290310922803DF91CF9103
:102330001F910F91FF90EF900895CF93DF93EC01E1
:10234000898981111BC081E0898B809126039F813F
:10235000892B80932603809127039885892B80936E
:1023600027030E94F210EA81FB81309739F06C89D3
:102370007D89CE010696DF91CF910994DF91CF91AF
:10238000089590E080E00E94770690E080E00E944F
:102390006106109227030E94F21086E0E2E5F2E067
:1023A000DF011D928A95E9F710924C0210924B02C0
:1023B00010924D020C94AA078093C1030C94C11192
:1023C0008091C103982F9670963019F488600C9410
:1023D000DC11877FFCCF21E030E001C0220F8A951D
:1023E000EAF720958091C10382230C94DC1190912F
:1023F00000028095892380930002282F277091F492
:10240000282F082E000C330B9217130659F09091C9
:102410008E0392FD07C08595859585950E94EB11E9
:102420000C94300B0895CF93C0918E03C2FB992773
:1024300090F9981799F080FBC2F9C0938E036091D0
:102440008D0384E090E00E9425316C2F82E290E0C1
:102450000E94253182E0CF910C94F711CF9108951D
:1024600021E030E001C0220F8A95EAF78091C10394
:10247000822B0C94DC1190918E0392FD10C098E099
:10248000899F90011124622B609300020E943012F8
:102490000E9455069093FF018093FE0108950C94CD
:1024A0003012809324020C94C11110922603809163
:1024B0001601E6E7F1E0882359F080918D0387FF4C
:1024C00007C08EE1DF011D928A95E9F70C94C111D6
:1024D00086E0F8CF1F93CF93DF93CDB7DEB7AA97EF
:1024E0000FB6F894DEBF0FBECDBF88EB93E020910E
:1024F000F100DC012D93CD01B3E0803C9B07B9F7DF
:102500008091B903833009F472C0B8F4813009F4C2
:1025100049C0823009F4B3C08091E80083FF96C2BD
:102520008091B8039091B9039A3008F08FC2E92FD7
:10253000F0E0ED59FE4C0C94C3308A3009F48EC0A3
:102540008B3009F471C0893039F78091B80381323A
:1025500019F78091BC039091BD03009711F0029789
:10256000D9F68091E800877F8093E8008091E800A9
:1025700082FF38C09091F3008091F200029731F40D
:102580008091F100813011F0863021F48091F100CA
:10259000809394038091E8008B778093E8000E94F9
:1025A0003205BACF8091B803813A09F0B5CF809156
:1025B000E800877F8093E8008091BC039091BD0381
:1025C000892B61F460E285E993E070E00E94E40504
:1025D0008091E8008B778093E8009ECF60E090E0E8
:1025E00080E0F3CF8091C0038111C0CF95CF80915F
:1025F000B803813A09F090CF8091BC039091BD035C
:10260000892B09F089CF8091E800877F8093E800CB
:102610008091E80080FFFCCF809116018093F1004B
:102620008091E8008E77B9CF8091B803813209F0AC
:1026300073CF8091BC039091BD03892B09F06CCFBF
:102640008091E800877F8093E8000E9432058091A6
:10265000BA03809316010E9455125ECF8091B80391
:10266000813209F059CF8091E800877F8093E8009C
:102670000E9432058091BB03809393034DCF8091DC
:10268000B803813A09F048CF8091E800877F8093B2
:10269000E8008091E80080FFFCCF80919303BECFDB
:1026A000803899F0823809F0D1C18091BC038F70D5
:1026B000873008F0CBC18093E9008091EB0085FB67
:1026C000882780F91092E90006C08091B5039091A7
:1026D000B603911182609091E800977F9093E80093
:1026E0008093F1001092F1008091E8008E77AAC1EA
:1026F000882309F498C1823009F0A8C18091BA03F7
:1027000081119BC18091BC038F702FEF280F263061
:1027100008F09CC18093E9002091EB0020FF8DC15F
:10272000933031F48091EB0080628093EB0085C19F
:102730009091EB0090619093EB0021E030E001C0BC
:10274000220F8A95EAF72093EA001092EA0080911E
:10275000EB008860EACF811179C11091BA031F772D
:102760008091E3008078812B8093E3008091E800E2
:10277000877F8093E8000E9432058091E80080FF07
:10278000FCCF8091E30080688093E30082E0111128
:1027900083E08093C0035AC18058823008F056C14C
:1027A0002091BA033091BB032C3DE3E03E07A1F535
:1027B00083E08A838AE289834FB7F894DE01139617
:1027C00020E03EE051E2E32FF0E050935700E49127
:1027D00020FF03C0E295EF703F5FEF708E2F90E017
:1027E000EA30C0F0C7968D939D932F5F243159F73F
:1027F0004FBF8091E800877F8093E8006AE270E035
:10280000CE0101960E94E4058091E8008B778093C9
:10281000E8001CC1C096E7CF8091BC039091BD0336
:10282000432F55274330510509F44AC078F541300C
:10283000510509F485C08BE590E0E2EEF7E0423007
:10284000510509F003C12091E800277F2093E8009B
:102850002091BE033091BF038217930708F49C01B7
:1028600040E02115310509F070C041116EC0809122
:10287000E80082FDC9CF8091C003882329F285300A
:1028800019F28091E80083FFF2CFBECF41325105AB
:1028900009F447C04232510509F0D8C08330910590
:1028A00008F0D4C0FC01EE0FFF1FEA59FE4F019063
:1028B000F081E02D8D599E4FDC018C9190E01DC080
:1028C000332721303105E9F02115310579F0223027
:1028D0003105F9F02330310509F0B8C0EFE4F8E034
:1028E000E4918E2F90E0EFE4F8E007C0E7EAF8E02B
:1028F000E4918E2F90E0E7EAF8E0009709F4A6C093
:10290000A2CFEFE7F8E0E4918E2F90E0EFE7F8E058
:10291000F4CFEDE6F8E0E4918E2F90E0EDE6F8E0FC
:10292000ECCF8330910508F091C0880F991FFC010E
:10293000E459FE4F0190F081E02D89E090E083CFD3
:1029400082E190E0EDE3F8E07ECF8091C003882340
:1029500009F45ACF853009F457CF8091E80083FD00
:1029600053CF8091E80082FD82CF8091E80080FF04
:1029700078CF9091F3008091F2002115310519F084
:102980008830910550F041E0089709F040E08091CF
:10299000E8008E778093E80064CF44914093F10083
:1029A0003196215031090196E8CF803809F04EC0A8
:1029B0008091E800877F8093E8008091B70380933F
:1029C000F10092CE811142C01091BA031230F0F59D
:1029D0008091E800877F8093E8001093B7030E94FE
:1029E0003205112311F084E005C08091E30087FDDA
:1029F000FACF81E08093C00342E061EC81E00E9465
:102A0000510542E261EC84E00E94510542E261EC32
:102A100082E00E94510542E260EC83E00E94510591
:102A20008091C00313C08091BA03813079F481E0B2
:102A3000933009F080E08093B6031092E900809112
:102A4000E800877F8093E8000E9432058091E800CB
:102A500083FF0AC08091E800877F8093E80080911F
:102A6000EB0080628093EB00AA960FB6F894DEBF6D
:102A70000FBECDBFDF91CF911F910895882321F024
:102A80000E94220B0C94F2100895882339F0909143
:102A90002703982B909327030C94F2100895882312
:102AA00021F00E94290B0C94F2100895882339F02C
:102AB00090912603982B909326030C94F21008957E
:102AC000882309F452C0823871F40E948D0681FF78
:102AD0004CC089E30E94680B0E94F21089E30E94B7
:102AE0003D0B0C94F210833859F40E948D0680FF40
:102AF0003CC083E50E94680B0E94F21083E5EFCF93
:102B0000843859F40E948D0682FF2FC087E40E940A
:102B1000680B0E94F21087E4E2CF9CEF980F913A85
:102B2000F0F290E2980F983050F4877091E001C075
:102B3000990F8A95EAF7892F0E94290BD2CF9BE53E
:102B4000980F933020F490E080E00C94770698E59D
:102B5000980F973120F490E080E00C946106803F5C
:102B600020F00E94D1070C94AA07089590E080E01D
:102B70000E941F31893E9E4F11F40C948B0F80E010
:102B8000089569EE7EEF90E080E00E94433160E0BE
:102B900082E090E00E94253160E083E090E00E94B6
:102BA00025311092240260E084E090E00E942531FB
:102BB00060E082E290E00E94253160E085E090E0F4
:102BC0000E94253160E086E090E00E9425316FEFA1
:102BD00087E090E00E94253140E050E0BA0188E0B3
:102BE00090E00E94373160E08DE090E00E94253156
:102BF00040E050E0BA0188E190E00E94373160E0A7
:102C000087E190E00E94253140E050E0BA018CE17C
:102C100090E00E94373170E060E080E290E00E9436
:102C2000433140E050E0BA0188E190E00E94373142
:102C300080E00E94300D0E94250E40E050E0BA0175
:102C40008FE090E00E94373140E050E0BA0183E12C
:102C500090E00C943731EBEFE80FEF3308F072C0DF
:102C6000F0E0E359FE4C0C94C3300E94C11581E0A2
:102C7000089580912503807F8093250381E08093D0
:102C8000240308958091220390912303892B79F3E3
:102C90000E9455122FEF84E39CE021508040904029
:102CA000E1F700C000000E94C70C90912503892F16
:102CB0008E7F90FF81608093250380FDD8CF817F38
:102CC00080932503D4CF90912503892F8D7F91FF89
:102CD00082608093250381FFCACF809125038160A4
:102CE000EFCF90912503892F8B7F92FF8460809393
:102CF000250382FDF2CFBBCF90912503892F877FDB
:102D000093FF88608093250383FDE7CFB0CF0E94B7
:102D1000551290918D03892F97FB87F980588093E6
:102D20008D03A5CF81E00E9451120E9455129FCFC2
:102D3000895391E001C0990F8A95EAF7892FF3CF63
:102D40008D51F7CF80E00895CF93C82F882309F4E1
:102D5000ABC08238C1F40E948D0681FDA5C089E315
:102D60000E94680B0E94F2102FEF81EE94E0215038
:102D700080409040E1F700C0000089E30E943D0BD5
:102D8000CF910C94F2108338A1F40E948D0680FD3F
:102D90008BC083E50E94680B0E94F2102FEF81EE3A
:102DA00094E0215080409040E1F700C0000083E5AE
:102DB000E5CF8438A1F40E948D0682FD75C087E4BA
:102DC0000E94680B0E94F2102FEF81EE94E02150D8
:102DD00080409040E1F700C0000087E4CFCF8CEF47
:102DE0008C0F813A08F0E5C0809124038130B9F15D
:102DF000882359F1823009F44DC010922403809148
:102E00001601882309F4C6C080918D0387FFC2C0D4
:102E1000EC2FE695E695E695F0E0EC58FE4F8281C2
:102E200090E04C2F477021E030E002C0220F331FAA
:102E30004A95E2F782239323892B09F4B6C08C2F9D
:102E40000E943D0B0E94F210B0C080912603823296
:102E5000B1F68C2F0E942B16811126C0D0CF809105
:102E600026038232B1F3C43171F038F4CB3049F02B
:102E7000C03161F080E08170EFCFC93221F0C833FA
:102E8000C9F781E0F8CF10922403F4CF82E0809359
:102E90002403F7CFC93209F43FC0E8F4C431E1F1AB
:102EA00028F4C73009F45BC0CF91089582EE8C0FEF
:102EB0008A30D0F7CD51C0939701C33009F446C092
:102EC000B0F5C13009F43FC08FE091E0C230B1F1FC
:102ED00010929701E9CFC03509F454C0B8F48AE0E4
:102EE000CF3411F7E0919501F09196013097E1F21E
:102EF0002081082E000C990B820F911D8F3F9105A8
:102F000009F00CF443C08FEF8083CECFC135E1F1DF
:102F100081E0C23539F3C8CF80919701882321F22F
:102F2000109297011092960110929501BDCFC53075
:102F300099F078F082E191E0C63051F690939601D5
:102F400080939501B1CF8EE091E0F8CF81E191E0DF
:102F5000F5CF80E191E0F2CF83E191E0EFCF81E026
:102F600080930E0184E180930F018AE08093110128
:102F70008EE18093100188E08093130188E28093B2
:102F8000120192CF86EFAECF8FEFACCF97FFBCCFC1
:102F900010828ACFE6E7F1E08CE791E02191C21739
:102FA00009F44DCF8E179F07C9F78C2F0E94680B2D
:102FB000E7CE80E28C0F883068F4C77021E030E003
:102FC00001C0220FCA95EAF780912603822B8093D5
:102FD0002603D6CEEBE5EC0FE33040F4F0E0E15E03
:102FE000FE4F808190E0CF910C947706E8E5EC0FDE
:102FF000E73150F4F0E0EE0FFF1FEE5DFE4F8081F1
:103000009181CF910C946106C03F08F44DCF8C2F75
:103010000E94CB08CF910C94AA071F93CF93DF9304
:10302000182FD0E0C0E0893311F4C0E5D0E0812F43
:103030000E94A416209731F4812FDF91CF911F9128
:103040000C9460158FE99FE00197F1F700C0000034
:103050002197F0CF0F931F93CF93DF93C62FD42FD9
:10306000022FFC0182818823A1F06093C4030E9497
:1030700055069093C3038093C203C77081E001C0DB
:10308000880FCA95EAF7DF91CF911F910F910C94A9
:1030900056158091C403681335C08091C203909186
:1030A000C3030E944606883C910560F510E21D0F9F
:1030B000CD17B9F080E28C0F883040F4C77081E002
:1030C00001C0880FCA95EAF70E944F15183048F4DE
:1030D00081E09D2F977001C0880F9A95EAF70E94B2
:1030E0005615802F0E940D18183098F4D77081E083
:1030F00001C0880FDA95EAF7DF91CF911F910F9108
:103100000C944F15C77081E001C0880FCA95EAF78B
:10311000F3CFDF91CF911F910F910895AF92BF929E
:10312000CF92DF92EF92FF920F931F93CF93DF9393
:10313000EC018AE0A82E2881222309F48CC02130DA
:10314000C9F599818A81913021F422960E940D1847
:1031500005C0923029F422960E94A4162196EBCF46
:10316000933021F422960E946015F8CF943011F02C
:103170002196F4CF229630E020E0AE014F5F5F4F02
:103180008053990B8A30910550F02150310930F36A
:103190008FE99FE00197F1F700C00000F6CFA29EF3
:1031A000B001A39E700D11249C01260F371F898149
:1031B000EA01E3CFE22FF0E0E650FE4FB490822F19
:1031C00086958695869590E0FC01E651FE4FE49049
:1031D0002770F12C022E02C0F594E7940A94E2F7CE
:1031E00031E0E322FF24FC01E652FE4FC490D12CD3
:1031F000022E02C0D594C7940A94E2F731E0C322AC
:10320000DD24FC01E653FE4F049110E002C0159549
:1032100007952A95E2F701701127E114F10419F0DE
:1032200081EE0E94A416C114D10419F086EE0E940A
:10323000A4168B2D0E940D18CD2819F086EE0E9441
:103240006015EF2819F081EE0E946015012B09F43A
:1032500085CF8CE27BCFDF91CF911F910F91FF90B3
:10326000EF90DF90CF90BF90AF9008959F92AF9274
:10327000BF92CF92DF92EF92FF920F931F93CF9363
:10328000DF9300D000D0CDB7DEB77C01DC01139610
:103290008D919C911497892B39F08C9111969C916A
:1032A00089238F3F09F0CBC50F900F900F900F909F
:1032B000DF91CF911F910F91FF90EF90DF90CF9012
:1032C000BF90AF909F900895D60116968C91169757
:1032D0008823D1F019968D919C910817190739F41C
:1032E00080912803909129030817190769F0F601C6
:1032F000978614870387C6010E949D11C601069612
:103300000E94581110922703FFEFAF1ABF0A26E15F
:10331000C20ED11CACC5C80182519F45409708F030
:1033200082C58FEF93E00E9417315EEED52ED00E4E
:1033300007EA12E08823F9F080910002877009F40F
:10334000B3CFD70112968C91882309F4ADCF809129
:103350008E0382FDA9CF82E00E94F711A5CF01154F
:1033600034E0130749F3C8010E941731811101C0ED
:10337000DA940F5F1F4FD110F2CF19821A821B828D
:103380001C8299249A9468014FEFC41AD40AC80188
:103390000E94173189831A82882371F2813009F0E3
:1033A00073C0580152E0A50EB11CC6010E9417312E
:1033B000C82E8A83882309F4BFCFC5010E94173124
:1033C000D82E8FEF8C0D833068F4580183E0A80E5F
:1033D000B11CDB82DD2021F0CE0101960E948E1807
:1033E0008501D1CF8BEF8C0D833030F5C80103966A
:1033F000DB825C01DD20A1F35801A4E0AA0EB11C20
:103400000E9417318C83882359F38B819C818130F2
:10341000BFEF9B0710F0982F8827E6E0CE1631F01B
:10342000F7E0CF1631F00E94AE26DACF0E94652673
:10343000D7CF0E94C525D4CF24E0C212D1CF5801E6
:1034400034E0A30EB11CC80103960E941731DD20A1
:1034500009F472CF882309F46FCF8150990B989E9D
:103460009001999E300D11244D2D4150550BCA01EC
:10347000820F931F019708F4B3CFAFE9BFE0119714
:10348000F1F700C00000F6CFCE0101960E948E1821
:103490005601A6CF81E00E9430120E94E0114CCF6D
:1034A00081E00E94EB11F9CF82E0FBCF823009F07E
:1034B00028C58091640290916502892B09F421C589
:1034C00026E12C9DC0012D9D900D1124865D9C4F01
:1034D000DC0150961C920E949D1113C585E00E944C
:1034E0009407809158020E94480D26CF80E0F7CFC4
:1034F00080915802982F987F79F0885080935802D5
:10350000887F91E009F490E08091580290FB80F967
:10351000809358020E94480D8091580286958695A6
:1035200086950E946D0708CF80915802982F969536
:1035300096959695953040F49F5F990F990F990F46
:103540008770892B80935802809158028160E0CF68
:103550008091580280FF07C08E7F809358020E949E
:10356000480D80E0DECF80FDE7CE81608093580279
:10357000813019F489E08093580280915802CACFB3
:1035800090915802892F8695869586958F5F8F71C9
:103590009770863048F4880F880F880F892B8093A6
:1035A000580280915802ACCF90935802FACF809184
:1035B000580281FF03C00E944D0DBECE0E94630DD4
:1035C000BBCEC80197558F3F910511F008F0A9C0F7
:1035D00040910C0150910D014817590724F4909324
:1035E0000D0180930C0136E1389F5001399FB00CDA
:1035F0001124A501465D5C4F6A01DA0150962C93B7
:103600005097F701928116968C911697992309F499
:103610007AC01A961C930E9319978F5F16968C9307
:103620000E945506D6011E969C938E931D978091FD
:10363000230217968C931797809127039091260366
:10364000892B18968C931897ED91FC9111973097D0
:1036500039F054966D917C91C501805D9C4F099520
:103660001093290300932803F7018281882309F42A
:1036700058C41092C4030330FDE51F0708F08BC047
:103680000A3F2CE5120730F4C80182509C4544974C
:1036900008F08BC00E94A40F90938E0380938D033B
:1036A00001315CE5150709F452C108F0D2C00930B8
:1036B0009CE5190709F439C108F09FC00530BCE545
:1036C0001B0709F42AC108F085C00330FCE51F0779
:1036D00009F419C108F01DC180918D038160023089
:1036E0001C4509F413C160918D0310918E0384E091
:1036F00090E00E942531612F82E290E00E94253106
:103700000E94551219CE882309F4AECFFA0181899F
:10371000882309F4A9CFC501805D9C4F0E945811F0
:10372000A3CF033FFCE51F0739F188F4083D3CE5D2
:103730001307F1F0093D4CE5140751F1073D5CE535
:10374000150709F091CF26E241EE61EE0DC0053F6D
:103750008CE51807C9F0A0F027E245EE66EE063FBB
:10376000ACE51A0709F080CFC7010E942A18E4CD02
:1037700024E641EE65EEF8CF26E241EE60EEF4CFAE
:1037800027E245EE64EEF0CF26E241EE62EEECCFAA
:1037900028E241E0EFCF01363DE5130709F47ACF87
:1037A000053A4DE5140709F475CF0631ACE51A0763
:1037B00009F0C2C3809126038A7A91E009F490E06F
:1037C000909394018111F1C089E20E94680B0E94DC
:1037D000F210B2CD80918D03806207304CE5140762
:1037E00009F494C080918D03806108301C4508F471
:1037F0008DC080918D03806489C00D308CE51807E1
:1038000009F499C098F480918D038E7F0B30ACE55C
:103810001A0709F47BC080918D038C600C301C4525
:1038200008F474C080918D038D7F70C080918D03EA
:103830008F7E0F30ECE51E0709F468C080918D0380
:10384000877F00311C4508F461C080918D038F7D16
:103850005DC00D3F2CE5120709F475C038F5053140
:103860004CE5140709F481C080F403318CE5180796
:1038700009F477C008F46FC00E94551290918D032F
:10388000892F97FB87F9805841C00B3FACE51A0799
:1038900009F447C008F053C080918E0381600A3F4D
:1038A0001C4509F020CF80938E031DCF0130FDE52C
:1038B0001F0709F466C0B8F480918E038C7F0F3F18
:1038C0003CE5130781F380918E03836001151D454C
:1038D00050F380918E03982F909591708E7F892B55
:1038E00090FB81F9E0CF01365DE5150709F44FC083
:1038F000053A8DE5180709F451C002301D4509F05D
:10390000F2CE60E03FC080918D03826080938D0392
:10391000EACE80918D038460F9CF80918D03886019
:10392000F5CF80918E038260BECF0E9455128091A8
:103930008D038068EBCF80918D038B7FE7CF8091E3
:103940008E038E7FB0CF80918E038D7FACCF809120
:103950008D038F7BDBCF0E94551280918D038F7773
:10396000D5CF80918D03837FD1CF80918D0382FB52
:10397000992790F921E0922790FB82F990FB83F937
:10398000C5CF61E08EE090E00E942531ACCE9091F1
:103990008D03892F8F7E94FF8061B8CF90918D0326
:1039A000892F8E7F90FF8160B1CF85E30ECF85E3B5
:1039B000C0C20E945512BFEFE4E3FCE0B150E0400A
:1039C000F040E1F700C000000E94C70C81E0D4C2C3
:1039D00080E0D2C2828100811181882369F0C80110
:1039E0000E94E90ED82E682FC8010E94D30BB8019F
:1039F0008D2D0E94CD0EC8C2C8010E94A60BD82EE4
:103A0000F6CF212F2F70D22E107F19F0D29490EF85
:103A1000D922CC20B9F0DD2069F080E2800F883017
:103A200010F0011109C080912603D82AD0922603F4
:103A30000E94F210802F46C080912703D82AD0928E
:103A40002703F6CF802F0E946015DD20E9F180E288
:103A5000800F883010F0011104C08D2D0E94290BB9
:103A600003C08D2D0E94220B0E94F2102DC0312F19
:103A70003F70D32E107F103219F0D29480EFD822ED
:103A8000002381F0013009F48BC0CC2009F494C0EC
:103A9000BB2009F469C0F701858180FFCBCF8F700F
:103AA000858362C080918E0382FF39C0CC2089F16A
:103AB000DD2039F080912603D82AD09226030E9477
:103AC000F21080E00E94A416292D2850330B2430D8
:103AD000310510F40E948D06AA20B1F080910002F9
:103AE00080FD12C0D70112961C928595859585950B
:103AF0000E943012C7010E943619809100028595FC
:103B0000859585950E94EB1160E0C7010E944B0FDF
:103B1000CBCB80E00E946015DD20B1F29ECFCC209F
:103B200039F1B11004C0809123028D291EC041E0FB
:103B3000B41210C082FDC8CF80912302D82AD816B3
:103B400019F20E9455069093220280932102D0928E
:103B50002302BACF55E0B512E6CF0E94170B809131
:103B6000FD01D812D092FD018D2D0E945615ACCFCB
:103B7000B11006C00E94170B8D2D0E944F15A4CFC7
:103B800081E0B81208C0809126038D2109F49CCFF2
:103B90000E94370BEFCF95E0B91609F495CFEACF25
:103BA000CC2029F0A5E0AB1508F48ECFDDCFB4E032
:103BB000BB1508F489CFE0CFBB20F1F2093349F4FB
:103BC000FFEF27EE33E0F15020403040E1F700C036
:103BD0000000802F0E94601577CF812F86958695F3
:103BE000837061F0813009F06FCFC8019370C1100C
:103BF00002C090E080E00E94610666CFC801937029
:103C0000C11002C090E080E00E9477065DCF802F57
:103C1000CC2029F00E94CB080E94AA0755CF0E9411
:103C2000D107FACF812F837089F5C1104DCF402F76
:103C3000429546954770440F440F802F8F70042E95
:103C400001C0880F0A94EAF7202F207104FF07C0F3
:103C50002FE030E001C0220F4A95EAF72095169533
:103C600016951370123069F050F43091240211301F
:103C700029F0822B83230E94511226CF832B822B83
:103C8000FACF282B809124028227F5CF8695CC206D
:103C900011F0812F8170882309F416CF402F4295AF
:103CA00046954770440F440F802F8F70042E01C03B
:103CB000880F0A94EAF7202F207104FF07C02FE035
:103CC00030E001C0220F4A95EAF720951695169527
:103CD0001370123069F050F43091C103113029F0A3
:103CE000822B83230E94DC11EFCE832B822BFACF11
:103CF000282B8091C1038227F5CF1F70CC2029F09B
:103D0000812F0E943012802F30CF802F0E944F15BC
:103D1000812F0E94EB11D8CE023F81F160F4003F69
:103D2000B9F0013F81F0CC2009F46DC0B11082CE12
:103D3000812F8F7127C0033F41F1043FA1F780918C
:103D40008E0382FF2DC0812F8F71CC2011F31AC0FA
:103D5000CC2079F044E04B1508F4B6CE1F7181E019
:103D600090E001C0880F1A95EAF79091C103892766
:103D7000B9CF55E05B1508F4A7CEF0CF812F8F7136
:103D8000C110C7CF0E9430129FCE80E0CC2009F432
:103D9000A9CF1F7181E001C0880F1A95EAF7A2CF61
:103DA0008091FD01CC20D9F00E94290B8091000266
:103DB0008770843041F40E94300B812F8F710E94F4
:103DC000EB11A12C81CE84E08B15D8F31F71812FCC
:103DD0000E94301263E0812F0E943B12F2CF90913B
:103DE0002603982B9093260394E09B1540F40E94A1
:103DF000300B0E94370B64E0812F8F71EDCF81E093
:103E00000E94F711DECFBB2059F0093309F0E1CE53
:103E1000AFEFB7EEE3E0A150B040E040E1F7D7CE1E
:103E2000812F8F7176CF0031BFE51B0709F432CBAC
:103E30000131EFE51E0709F064C082E02CCB61E0A0
:103E4000C7010E944B0F8C01D70112968C918823D9
:103E5000B1F080910C0190910D01019681F06AE220
:103E6000C62E63E0D62EB12CA12C99249394809178
:103E70000C0190910D018A159B050CF025CAF701E4
:103E80008281811148CA0031FFE51F0709F408CB80
:103E900001312FE5120709F407CB6801E7E5DE1AC7
:103EA000FFEFCF16D10409F060F560E672E08C2DCB
:103EB0000E94340E892B29F586E18C9DF0018D9DA1
:103EC000F00D1124E65DFC4F8681813009F0EECAC9
:103ED0008091600290916102892B99F08091620239
:103EE00090916302892B69F0809164029091650240
:103EF0002091660230916702822B932B892B09F463
:103F0000DFCAF7012281222309F45BCBF801EB5BC6
:103F1000FC45E730F10508F054CBE455FE4C0C9419
:103F2000C33006311C4551F58091940181113FCD7C
:103F300089E20E943D0B4BCC0A35EDE51E0709F4E2
:103F400045CD58F401152CE5120709F432CD0E3D8C
:103F50001C45A1F40E94C115EFC90B354DE51407AE
:103F600009F436CD0C351D4549F480918E0382FB52
:103F7000882780F991E089270E941312F701868132
:103F80009781009709F426CD0E948F098C01F701D3
:103F9000C280B580B2943FE0B32280910002877066
:103FA000C1F0AC2CCC20B1F0812F807F803421F087
:103FB00080E2800F883068F080918E0382FD09C016
:103FC00082E00E94F711809100028770AA24A394D6
:103FD0008111A12C912E92942FE09222FBE0F915F1
:103FE00008F472CDE92DF0E0ED54FE4C0C94C33092
:103FF000CF93DF938091B801807FA1F48091B501C8
:10400000882381F08091FC01D091BB016091B301C4
:104010007091B401A091B601B091B701C62FC7232A
:10402000D81303C0DF91CF91089590E0109711F05D
:10403000CF3F19F401968770F3CF9C0143E0220F24
:10404000331F4A95E1F7F901E454FE4F41814713CC
:10405000F1CF40814613EECF42814111EBCF438136
:1040600054814A1B5B0B483C510520F78091B801F5
:104070008F7080618093B801F901EF53FE4F80810A
:104080008F708061808383EB91E00E943619DF910D
:10409000CF910C949C0BAF92BF92CF92DF92EF9294
:1040A000FF920F931F93CF93DF93CDB7DEB7659742
:1040B0000FB6F894DEBF0FBECDBF8C0185E0F801CE
:1040C000DE01519601900D928A95E1F7F801E280A8
:1040D00063EBA62E61E0B62E6091B6017091B70138
:1040E0006115710509F468C19091B3014091B40163
:1040F000892F84238F3F09F45FC120813181C380E0
:10410000D480F090B501F601E61BF70BFF2009F40F
:104110001DC18091B801582F507FE83CF10508F08F
:10412000D0C0511181C0FE2C43132BC0921329C063
:104130006091B9017091BA01F80146815781641705
:104140007507F9F4E1101DC08F7080618093B8018C
:10415000C5010E9436198091B801F80185838F2D21
:1041600065960FB6F894DEBF0FBECDBFDF91CF913D
:104170001F910F91FF90EF90DF90CF90BF90AF9085
:104180000895CD2829F0822F83238F3F09F02FC176
:1041900080E0F82FF170DF2E80FF3CC08091FC01A1
:1041A0004091BB01841315C0298B3A8B89899A8968
:1041B0000E94180F292F22952F702230F8F02430FA
:1041C00020F59F70F9F0F8019581907FD9F4D12CFA
:1041D0001FC090E0FC0153E0EE0FFF1F5A95E1F77E
:1041E000E454FE4F5181351306C05081251303C09E
:1041F0005281E5120FC001968770D4CF9F7011F0E5
:10420000882329F3805E883010F3C8010E94361994
:10421000FD2CA5CFEE2009F4A2CF8091B8018160DA
:104220008093B801F12C9BCF43131BC0921319C08C
:104230004091B9015091BA01F801268137814217A6
:10424000530779F4E1100DC08583C8010E94361927
:1042500088E0F801A3EBB1E001900D928A95E1F7B7
:104260007ECFC8010E94240F882339F1EE2029F166
:104270008091B8018032A0F02091B3013091B40157
:104280003A8729871B86DD86CC868E878091B90187
:104290009091BA01988B8F87CE0109960E943619AA
:1042A00088E0F801A3EBB1E001900D928A95E1F767
:1042B0000E94F81FFF24F39452CFC8010E943619C0
:1042C000F9CF51110AC083EB91E00E94361988E0C2
:1042D000F50111928A95E9F7A5CF431318C09213FF
:1042E00016C04091B9015091BA01F8012681378179
:1042F0004217530761F4E1100AC08583C8010E9488
:10430000361988E0F50111928A95E9F728CFC8019E
:104310000E94240F882389F2EE2079F28091B8015F
:10432000803208F4BDCF2091B3013091B4013A83BB
:1043300029831B82DD82CC828E838091B90190918A
:10434000BA0198878F83CE010196A8CFE83CF1058A
:10435000C0F6FE2CEE2009F4B0CF43131FC0921319
:104360001DC02091B9013091BA01F8018681978171
:104370002817390799F49091B80190FD69CF907F83
:1043800009F466CF8091B8018583903F09F45DCF31
:10439000982F907F905F8F70892B56CFC8010E9415
:1043A000240F81117DCF8091B80181608093B80185
:1043B000C8010E943619D3CEEE2009F47ECFC80181
:1043C0000E94240FF82E882309F477CF88E0F801A3
:1043D000A3EBB1E001900D928A95E1F78091B301D2
:1043E0009091B4010E94180F0E94F81FB8CE81E08E
:1043F0008E25CFCECF93DF93CDB7DEB760970FB6C4
:10440000F894DEBF0FBECDBF29873A874B875C8704
:104410006D877E878F87988BCE0109960E944B20EF
:10442000811112C088E0FE013996DE0111960190DB
:104430000D928A95E1F78C859D85892B29F08985D8
:104440009A8589238F3FA9F58091FC019091BB014A
:1044500089131CC060960FB6F894DEBF0FBECDBFA7
:10446000DF91CF91089593E0AA0FBB1F9A95E1F7D2
:10447000A454BE4F98E0FE01319601900D929A959A
:10448000E1F78093BB010E949C0BDECFB8E08B9FCD
:10449000C001112484549E4F0E944B208823D1F2E6
:1044A0008091FC0190E00196877099278093FC0130
:1044B000CBCFA091BB01B0E0CD01019687709927C9
:1044C0002091FC012817190671F60E9455121092CE
:1044D000BB011092FC0188E0E3EBF1E0DF011D92EB
:1044E0008A95E9F7B1CF0F931F93CF93DF93809114
:1044F0009902E0919802CCE081111AC0DF91CF912E
:104500001F910F910895D1E0DE0FD09398020E2FE6
:1045100010E0EC9FF0011124E656FD4F8381948159
:10452000892B29F08081918189238F3F51F4ED2FD0
:1045300080919902E81738F310929902109298022C
:10454000DDCFC09FD001C19FB00D1124A656BD4F35
:1045500016968D919C911797892B29F418968D9119
:104560009C91019651F42081318142815381648173
:104570007581868197810E94FA21C09FF001C19FB9
:10458000F00D1124E656FD4F14821382109227037A
:10459000CECF10922103109220031092150180912A
:1045A0001F0380931E030E94C7060C9473223F9240
:1045B0004F925F926F927F928F929F92AF92BF9233
:1045C000CF92DF92EF92FF920F931F93CF93DF93DF
:1045D000C0911E0397E0892E01E010E02CE0322EFE
:1045E0003EEF932E4424439480911F038C1315C0F7
:1045F0000E947322DF91CF911F910F91FF90EF9056
:10460000DF90CF90BF90AF909F908F907F906F90F2
:104610005F904F903F900C94C706D0E0FE01EE0FE4
:10462000FF1FEA5EFC4F80819181889ED001899EA8
:10463000B00D1124A650BD4F14962C911497211142
:1046400057C050909902EAE9F2E030E020E0712C86
:104650005D01251508F04AC0E284F384D501CD90B0
:10466000DC906FEF7FEF612C462D50E0DA01AA0F4E
:10467000BB1FAC0DBD1D0D90BC91A02D109731F04E
:10468000EA16FB0609F4BA016394EECF6F3F760792
:10469000A1F1D80102C0AA0FBB1F6A95E2F77A2ADE
:1046A000B80102C0660F771F6A94E2F7AB01415070
:1046B000510974161506F9F4329EF001339EF00D7F
:1046C0001124E656FD4F889ED001899EB00D11241D
:1046D000A650BD4F12962D913C9113973783268398
:1046E000908291829187808715964C920E949906BC
:1046F0002196C37079CF148213822F5F3F4F3C966F
:10470000A8CF2F923F924F925F926F927F928F929B
:104710009F92AF92BF92CF92DF92EF92FF920F9350
:104720001F93CF93DF93CDB7DEB769970FB6F89499
:10473000DEBF0FBECDBF498B5A8B6B8B7C8B8D8BB5
:104740006111109227031D861E861F86188A85E038
:10475000FE017196DE01199601900D928A95E1F79E
:1047600080918E0382FD1CC00E9455062091FE019F
:104770003091FF01821B930B8838934120F0809188
:10478000000282FFFEC10E94550620912102309155
:104790002202821B930B8838934110F00E94170B62
:1047A0008C859D85892B31F089859A8589238F3F5A
:1047B00009F0D3C129853A854B855C856D857E8559
:1047C0008F8598890E94FA21C2C048EFC4164CE533
:1047D000D40629F4882379F00E94C922EBCF69EF2F
:1047E000C6166CE5D60639F4882329F080911501A8
:1047F0008111F2CFC2C10AEF12E0E12CB12CA12C41
:1048000088248394912C2EEF522E44244394F80153
:104810004081518166246A94762C20E0822F90E0BA
:10482000FC01EE0FFF1FE40FF51F60817181611520
:10483000710531F0C616D70609F43C012F5FEECFA3
:10484000F12CFFEF6F167F0609F443C0F801448195
:10485000F09015018F2D411180E0F82FF170FF2E9F
:10486000F801258086819B85992309F406C1FF20E4
:1048700009F403C1211013C0A40101C0440F6A94BC
:10488000EAF7842B86838091960290919702C297D3
:1048900030F462E370E07093970260939602C40173
:1048A00002C0880F991F2A95E2F70197F801268127
:1048B0002817190671F48091200390912103009725
:1048C00009F45EC00E944606C39708F459C0F80177
:1048D0004482EF28FFEFAF1ABF0A095F1F4F24E0A1
:1048E000A216B10409F093CF8B85882309F420C167
:1048F000EE2009F41DC10E94550690932103809378
:10490000200380919902883010F591E0980F9093E0
:10491000990298E0FE013996DE01119601900D9200
:104920009A95E1F73CE0839FC001112486569D4F84
:1049300028E0FE013196DC0101900D922A95E1F705
:104940002FEF3FEFFC0131872087D386C28669961F
:104950000FB6F894DEBF0FBECDBFDF91CF911F9190
:104960000F91FF90EF90DF90CF90BF90AF909F900E
:104970008F907F906F905F904F903F902F90089511
:1049800080911E0350911F03982FF0E0E0E0851303
:1049900014C090931E030E171F0709F49ACF90E0DE
:1049A000FC01EE0FFF1FEA5EFC4FB182A082019670
:1049B0008370992780931F038CCF282E312CF1010F
:1049C000EE0FFF1FEA5EFC4F20813181F7E0F29F7E
:1049D000D001F39FB00D1124A650BD4F2D913C91F5
:1049E0001197398F288F40E020E030E0E32FF0E08E
:1049F000EE0FFF1F688D798DE60FF71F60807180C5
:104A000061147104E1F0F8010190F081E02DFF8B59
:104A1000EE8B20E005C06616770609F44F2D2F5F58
:104A2000E22FF0E0EE0FFF1F6E897F89E60FF71F80
:104A3000608171816115710571F73F5FD7CF4423A4
:104A4000C9F0F801231708F0FD0144820E171F0773
:104A500021F490931E03F42E3CCF981305C0AE179B
:104A6000BF0711F49F5F937091012F5F3F4F822F1B
:104A700083708DCFF0E0E0E0F7CF90E021101FC011
:104A8000B40102C0660F771F2A95E2F79B012150FF
:104A900031098217930731F4442309F447C0C50153
:104AA0000E949906C40101C0880F6A94EAF7982F02
:104AB0009095F801868189238683F22C0ACF9C0188
:104AC000062C02C0359527950A94E2F7A90141709A
:104AD0005527BC016150710986239723892B11F555
:104AE000452B01F1F80182819381892BC1F01B8252
:104AF0001C821D821E8259825A820E945506816044
:104B0000582F9D838C83F801828193818F839887AE
:104B100029813A814B816D817E810E94FA21F801C1
:104B20001582C0CFF22FF1702F2EBCCF2F2CBACF11
:104B300090911E0380911F03981731F00E94D72295
:104B4000EE2009F437CE03CF0E9473221092210386
:104B5000109220030E94C706F3CF61E0CE010996B0
:104B60000E944B0F6C018B85F7EFCF16FCE5DF063B
:104B700009F02BCE882309F43ECE81E08093150105
:104B800019CE82E00E94F711FECD0F931F93CF93B1
:104B9000DF9300D000D00F92CDB7DEB78C01909399
:104BA000930280939202011580E2180720F5802F6E
:104BB0000E946015C8010E94030C9801205E310913
:104BC0002830310510F0012B59F40F900F900F9001
:104BD0000F900F90DF91CF911F910F910C944F1573
:104BE0000F900F900F900F900F90DF91CF911F912A
:104BF0000F910C943E158EEF89838A831B820E944D
:104C000055068160782F9D838C8349815A816B8101
:104C10008D810F900F900F900F900F90DF91CF919B
:104C20001F910F910C9481230F931F93CF93DF93C8
:104C30008C01EB0160E672E08C2F0E94340E892B10
:104C400071F4DD27C45ADD4F8881F8011082188283
:104C5000833009F148F4813059F0823081F0DF91DE
:104C6000CF911F910F9108958430D1F08530B9F71D
:104C70008091600290916102009789F306C0809153
:104C8000620290916302009799F3DF91CF911F9197
:104C90000F910C94C5258091640290916502F3CF29
:104CA0008091660290916702009779F720916002E7
:104CB0003091610280916202909163022115310569
:104CC000D9F2009711F7C901E0CF0F931F93CF934B
:104CD000DF9300D000D00F92CDB7DEB78C01909358
:104CE000930280939202011580E21807E8F4C8014C
:104CF0000E94030C9801205E31092830310518F01C
:104D00000115110571F40E945615802F0F900F9018
:104D10000F900F900F90DF91CF911F910F910C94F6
:104D2000A4160E944515F1CF8EEF89838A8381E016
:104D30008B830E9455068160782F9D838C834981E7
:104D40005A816B818D810F900F900F900F900F9073
:104D5000DF91CF911F910F910C948123CF93DF931B
:104D6000EC010E946526CE01DF91CF910C94C52500
:104D70000F931F93CF93DF938C01862F60E672E031
:104D80000E94340E892BC9F4C0916002D091610257
:104D9000209799F0F8018081833069F4CE010E9458
:104DA000AE26CE010E94AE26CE01DF91CF911F919B
:104DB0000F910C94AE268430B8F7DF91CF911F91FC
:104DC0000F9108950F931F93CF93DF938C01EB0105
:104DD00060E672E08C2F0E94340E892B09F064C0CB
:104DE000FE01FF27D8018C91E45AFD4F8130D9F4A0
:104DF00019969C911997992311F080830CC01A96EB
:104E00009C919923D1F382E08083809162029091FA
:104E100063020097D9F4809160029091610200973B
:104E200009F442C013C08230E9F519968C911997A4
:104E300081112DC01A968C9181110EC083E0808360
:104E40008091640290916502009719F1DF91CF91F2
:104E50001F910F910C94652684E0808380916602F7
:104E600090916702009791F78091600290916102A2
:104E70000097F9F00E94AE26809162029091630241
:104E8000009721F78091600290916102DFCF85E069
:104E900080838091600290916102009729F00E94C6
:104EA000AE26F0CF86E08083DF91CF911F910F91E6
:104EB00008958091620290916302B1CF0E94B6156D
:104EC00081110AC00E94C1158091580284708962C4
:104ED000809358020E94480D86E090E00E941731AE
:104EE00080935802803320F0877088628093580244
:104EF00090915802892F817090FF04C0892F869568
:104F0000869586950C946D071F920F920FB60F929F
:104F100011242F933F934F935F936F937F938F93BE
:104F20009F93AF93BF93CF93DF93EF93FF93D09172
:104F3000E900DF708091EC00C82FC17080FDC0E8EF
:104F40001092E9008091F000877F8093F0007894C0
:104F50000E946A121092E9008091F00088608093AC
:104F6000F000CD2BCF70C093E900FF91EF91DF915E
:104F7000CF91BF91AF919F918F917F916F915F91F1
:104F80004F913F912F910F900FBE0F901F9018954A
:104F90001F920F920FB60F9211242F933F934F93AE
:104FA0005F936F937F938F939F93AF93BF93EF9391
:104FB000FF938091E10082FF09C08091E20082FFAF
:104FC00005C08091E1008B7F8093E1008091DA0041
:104FD00080FF24C08091D80080FF20C08091DA003B
:104FE0008E7F8093DA008091D90080FF9DC080E1A0
:104FF00089BD82E189BD09B400FEFDCF81E08093C7
:10500000C00380919203811109C00E9490040E9404
:1050100083058091E20084608093E2008091E1004A
:1050200080FF17C08091E20080FF13C08091E200F2
:105030008E7F8093E2008091E20080618093E200A5
:105040008091D80080628093D80019BC85E080935D
:10505000C0038091E10084FF2BC08091E20084FFB7
:1050600027C080E189BD82E189BD89B5982F917003
:1050700080FFFBCF8091D8008F7D8093D8008091F6
:10508000E1008F7E8093E1008091E2008F7E80932B
:10509000E2008091E20081608093E2008091B7039A
:1050A000882309F447C084E08093C0038091C00343
:1050B0008091E10083FF27C08091E20083FF23C03D
:1050C0008091E100877F8093E10082E08093C003BC
:1050D0001092B7038091E1008E7F8093E100809170
:1050E000E2008E7F8093E2008091E20080618093F5
:1050F000E20042E060E080E00E9451058091F00013
:1051000088608093F000FF91EF91BF91AF919F91E4
:105110008F917F916F915F914F913F912F910F9060
:105120000FBE0F901F90189519BC1092C0031092DB
:10513000920374CF8091E30087FD93E09093C003C6
:10514000B5CF78941F921FB61F9211248F939F930F
:10515000AF93BF938091890390918A03A0918B03B1
:10516000B0918C030196A11DB11D8093890390938A
:105170008A03A0938B03B0938C03BF91AF919F914F
:105180008F911F901FBE1F9018951F921FB61F92E0
:1051900011248F939F93AF93BF93809188038111C4
:1051A00013C08091890390918A03A0918B03B091E1
:1051B0008C034196A11DB11D8093890390938A03AE
:1051C000A0938B03B0938C03BF91AF919F918F916C
:1051D0001F901FBE1F9018951F920F920FB60F922F
:1051E00011242F933F934F935F936F937F938F93EC
:1051F0009F93AF93BF93EF93FF93809114018230FD
:10520000A1F08F5F80931401FF91EF91BF91AF9157
:105210009F918F917F916F915F914F913F912F91CE
:105220000F900FBE0F901F90189581E0809314018E
:1052300080915A0290915B02019660ED72E00E94AB
:10524000793090935B0280935A0265E070E00E948F
:1052500079306F7780915902823041F4603451F493
:1052600080916F008E7F80936F0004C0813011F4B5
:105270006F37B1F3E62FF0E0EE5CFA4FE491209146
:10528000860030918700E29FC001E39F900D1124BA
:105290006BEF74E00E947930809158028695869574
:1052A0008695282F269FC001279F900D11240E94CC
:1052B000E50690938D0080938C00A6CFCDB7DEB726
:1052C000E4970FB6F894DEBF0FBECDBF84B7877FDB
:1052D00084BF0FB6F894A895809160008861809390
:1052E0006000109260000FBE80E890E00FB6F89466
:1052F00080936100909361000FBE85B7806885BF81
:1053000085B7806885BF83E399E0909373018093AC
:1053100072010E94480E0E94B20F0E9490040E94E7
:1053200083058091E20084608093E200789480910C
:10533000C0038823A1F01091E9001F709091EC0048
:10534000892F817090FD80E8182B1092E9008091E0
:10535000E80083FD0E946A121F701093E90082E04A
:1053600084BD93E095BD9AEF97BD80936E000E9437
:105370008B0F811102C00E94250E00E511E0B5E5FA
:10538000EB2EB1E0FB2ED8018D918D018F3F11F0F6
:105390000E943509E016F106B1F705E511E0A3E634
:1053A000EA2EA1E0FA2EF80181918F018F3F11F0D2
:1053B0000E943509E016F106B1F78AE0E1E4F2E077
:1053C000DF01282F1D922A95E9F7E8E2F2E0DF01DC
:1053D0001D928A95E9F70E94B615811102C00E94BC
:1053E000C11582E090E00E941731809325030E944E
:1053F000A40F90938E0380938D030E940B10EFE314
:10540000FCE93197F1F700C000000E940B10809179
:10541000410280FF08C06FEF7FEF90E080E00E94C4
:1054200043310E94C70C83E090E00E9417310E9434
:105430005112279A2F988AE08093800089E1809307
:1054400081008FEF9FEF90938700809386000E94EA
:105450005E278091580281FF0BC010925B02109270
:105460005A021092590280916F00816080936F0000
:105470000E945E2780E091E09093850380938403EF
:105480008091C00300E112E1853009F492C10E94CD
:105490000B10882359F08FB7F894409189035091ED
:1054A0008A0360918B0370918C038FBFE1E46E2EB1
:1054B000E2E07E2EF2E3CF2EF2E0DF2E512C412CE3
:1054C000D301AD90BD903D01F601E190F1906F01E7
:1054D000EA14FB04B1F1312C01E010E0EA24FB24D2
:1054E0004F01F2E08F1A9108C70180239123892B85
:1054F00011F13BA64CA621E0C8018A219B21892BF2
:1055000009F420E02DA70E9455068160782F9FA7FF
:105510008EA74BA55CA56DA58FA50E948123D40104
:105520008D919C911197802791278D939C935394F3
:10553000BBE0B515E0F03394000F111FEEE03E1212
:10554000D3CF4394F5E04F12BBCF511010C08FEF73
:1055500088AB89AB1AAA0E9455068160782F9CAB54
:105560008BAB48A959A96AA98CA90E948123809173
:105570000C0190910D0110E006E1019609F053C174
:1055800080911501811159C186E0E2E5F2E08E01BA
:105590000F5F1F4FD80101900D928A95E1F7C090DF
:1055A0005402D0905502F0905602E09057021092AB
:1055B00054021092550210925602109257028C2DEE
:1055C0008D2991F080915002909151020E944606DF
:1055D000AC0190914C02992309F45AC180910F01BA
:1055E0008417150608F462C18F2D8E2909F448C06E
:1055F00080914E0290914F020E9446069C0190912C
:105600004B02992309F460C521353105C8F19F3F4C
:1056100019F09F5F90934B02FF2059F00E945408AD
:105620009FEF1F140CF491E0899F802D112480932B
:105630005602EE2059F00E9454089FEF1E140CF4FD
:1056400091E0899F802D112480935702309156025A
:105650003323B1F020915702222391F045EB34031C
:10566000C0011124992309F460C19093560245EBBF
:10567000240390011124332309F45BC130935702B2
:105680008091540290915502892B90915602892B5A
:1056900090915702892B11F00E94AA0786E0F80129
:1056A000A2E5B2E001900D928A95E1F70E948D0685
:1056B00090913C02891380933C028091C003843016
:1056C00009F0DECE83E08093E9008091E80082FF5C
:1056D000D7CE8091E80090E085FF0AC00E94AF0419
:1056E00050E2C52ED12C7801882309F430C191E015
:1056F0008091E8008B778093E800992309F4C0CE6D
:10570000E0909402F09095028981E114F10409F48B
:105710002CC18E3F09F0BFC18A81833020F08550B3
:10572000833008F0B8C1EA81EE3008F0B4C1F0E08F
:10573000E154FE4C0C94C3308091C003843039F1A5
:1057400080E00E946D071092880328E130E040E479
:105750000FB6F894A895209360000FBE40936000A8
:1057600083B7817F846083BF83B7816083BF789470
:10577000889583B78E7F83BF0FB6F894A8958091E4
:105780006000886180936000109260000FBE80917D
:10579000B603882371F00E940B10E1E4F2E08191DE
:1057A0009191892B09F072C48BE492E08E179F07C8
:1057B000B1F78091C003853009F4BECF0E94551225
:1057C0000E945E270E948D0662CE089FF001099F0D
:1057D000F00D1124E65DFC4FE288F388E114F1043A
:1057E00019F468ECE62EF12C089FF001099FF00DEA
:1057F0001124E65DFC4F86818823A1F0858596857E
:105800000E944606E816F90668F4109F70011124FC
:10581000C701865D9C4F0E949D11C701805D9C4F12
:105820000E9458111F5F812F90E020910C01309150
:105830000D01281739074CF6A3CE809120039091D3
:105840002103009709F4A0CE0E94460620919602FB
:10585000309197022817390708F096CE90911E03D1
:1058600080911F03981759F00E94D7221092970237
:1058700010929602109221031092200385CE0E946E
:10588000732210922103109220030E94C7067CCE3F
:1058900020910E018AE0289F9001112424173507DA
:1058A00008F0A2CE9F5F90934C0202C09F3FD1F7B9
:1058B000CC2059F00E948D089FEF1C140CF491E04D
:1058C000899F802D112480935402DD2059F00E947D
:1058D0008D089FEF1D140CF491E0899F802D1124F9
:1058E0008093550230915402332309F47DCE2091E8
:1058F0005502222309F478CE45EB3403C00111246C
:10590000992359F09093540245EB240390011124FC
:10591000332339F03093550267CE81E080935402EF
:10592000F3CF81E0809355025FCE81E080935602F1
:105930009ECE81E080935702A3CE8091F100D701E3
:105940008D937D01B1E0CB1AD10809F4D0CE8091BE
:10595000E80085FDF2CF8091E8008B778093E80026
:105960000E94AF04882399F3C2CE8B3009F4FCC1A6
:1059700068F5853009F4D6C0D0F4823009F471C0DE
:1059800030F4813009F469C08FEF898384C083309B
:1059900009F4B9C08430C1F74C816B818A810E94BF
:1059A0009E0E9827892798279E838D8374C0873001
:1059B00009F4C6C008F4C1C0883009F4DDC08930DC
:1059C00019F7809158020E94480D65C0803109F492
:1059D0001EC1B8F58D3009F4ECC008F4E7C08E3074
:1059E00009F4EBC08F3081F680912203909123035C
:1059F000892B09F450C0EC80F12C3DE1E316F10451
:105A000008F049C0CA80DB80DC24CD24DC245801A6
:105A1000E00EF11EC60189559D4FAE14BF04D9F1A9
:105A200049E5C41641E0D40628F4D50114966C91DA
:105A30000E942531BFEFAB1ABB0AEFEFCE1ADE0A88
:105A4000E9CF823109F4E8C008F4E4C0833109F4F5
:105A50000CC18E3F09F098CF66CE1A8289E08B8305
:105A60001AC08A81823009F427C38330C1F08130A3
:105A700009F08ACF2FB7F8946091890370918A0357
:105A800080918B0390918C032FBF0E94C9306B8350
:105A90007C838D839E83C8010E940A05F1CC80918E
:105AA000220390912303892BB1F3809141029091BD
:105AB00042029827892798279C838B8380914302F1
:105AC000909144029827892798279E838D838091FF
:105AD00045029091460298278927982798878F83B7
