:100000000C94D5030C940D040C940D040C940D0465
:100010000C940D040C940D040C940D040C940D041C
:100020000C940D040C940D040C947E2D0C943A2D1C
:100030000C947B2E0C940D040C940D040C940D0464
:100040000C940D040C940D040C940D040C940D04EC
:100050000C940D040C94572E0C940D040C940D0468
:100060000C940D040C940D040C940D040C940D04CC
:100070000C940D040C940D040C940D040C940D04BC
:100080000C940D040C940D040C940D040C940D04AC
:100090000C940D040C940D040C940D040C940D049C
:1000A0000C940D040C940D040C940D04050109022C
:1000B000A10185020901A100050919012905150001
:1000C00025019505750181029501750381010501E1
:1000D000093009311581257F950275088106093897
:1000E0001581257F950175088106050C0A380215D2
:1000F00081257F950175088106C0C005010980A191
:1001000001850319012AB700150126B7009501756D
:10011000108100C0050C0901A101850419012AA064
:1001200002150126A002950175108100C005010984
:1001300006A1018506050719E029E71500250195A7
:1001400008750181020507190029EF1500250195A1
:10015000F0750181020508190129059505750191C0
:1001600002950175039101C00660FF0961A10109B3
:1001700062150026FF0095207508810209631500AD
:1001800026FF00952075089102C005010906A1010E
:10019000050719E029E71500250195087501810279
:1001A0009501750881010507190029FF150026FF33
:1001B0000095067508810005081901290595057542
:1001C000019102950175039101C0FD377A585A00DB
:1001D0000004E6D6B4460200210116000000742F88
:1001E000E5A3E0051501A45D003D8889C65436C32A
:1001F000174FE4E6213E35DCBE4B3794CA7FD3A8C7
:10020000FE859BD4F0F5621A3D22AE08370972795B
:1002100072773C952DD3353AAE39EFD58DDDACD61E
:100220000A1E3074C48ABC11C481BB85DCFB4BE060
:100230008EB8DD750C891BFC87E11F18A356BF34EF
:10024000C537521A9F07362598B9F5386469009169
:10025000CEFDD0339C6BE1FA34350C635ADDD96B9B
:10026000325D3C8AA2F13BF54A577090DF1D32594E
:10027000CB17BE4E2E77C08B52BCF3E6A3B0542EE4
:100280004D58A749577B8F0899BA092E010D5A86F8
:1002900000CA3BD4B42E2CC21E04ECB34ACBD336D6
:1002A00036E47370FEC83BCD8DE18553F8FE5104F2
:1002B00009BA0A215305590F01581E65C6B554BB2A
:1002C000C1A6405867E05BA5F4DCC5BB963B86A39E
:1002D000B16FA5BC795753DE1A4F58D814B1917B32
:1002E000125F5E21457EEA195E492FC672F8D1E49D
:1002F000DEE0C21DB4944BD0A73ED102540FD3DA36
:100300005756689B9A3FE96E43A54A19E8FE233C7D
:10031000DB80B60CB3880D4A379ABC13E1FC33EE90
:10032000320C5A2BC2CC5DEE8390A6F38EF2583D70
:10033000751F005CBE2E09CEE18B9C0CCA441E3892
:10034000363D3865DA9981FE3F87B5E3D7F0551918
:1003500070EDFD154F99E0E818282E9952CF9E9127
:100360005D2F0C3B88741417C949146D543A97EAF1
:100370002F2DC04A646018347B98592BFF70763C4F
:100380009FE77FB4062E582BC7DDF51E3A001E2EC0
:10039000E8DA3D3C1BB10001C003960A0000178B50
:1003A000A100B1C467FB020000000004595A165CAA
:1003B0001E001F0020002100220023002400250031
:1003C000260027002D002E0031002B0014001A00FB
:1003D0000800150017001C0018000C001200130084
:1003E0002F0030002A003900040016000700090021
:1003F0000A000B000D000E000F003300340028002F
:100400000000E1001D001B0006001900050011009E
:100410001000360037003800E50000000158E00009
:10042000E300E2000000000000002C0000000000DB
:100430000000E600E700E4004C0035003A003B0015
:100440003C003D003E003F004000410042004300B0
:10045000440045004C00C25CC35C52000100010036
:100460000100010001000100010001000100010084
:100470000100C15C500051004F000100010001006B
:100480000100010001000100010001000000BE5C4C
:10049000BD5CBF5C01000100010001000100010022
:1004A0000100010001000000010001000100010045
:1004B000000000000000010000000000000001003A
:1004C0000100005C010035003A003B003C003D00AB
:1004D0003E003F0040004100420043004400450010
:1004E0004C00C25CC35C520001000100010001002D
:1004F0000100010001000100010001000100C15CD8
:10050000500051004F0001000100010001000100F6
:1005100001000100010001000000BE5CBD5CBF5C89
:1005200001000100010001000100010001000100C3
:1005300001000000010001000100010000000000B6
:100540000000010000000000000001000100005C4C
:10055000010001000100A403B50EE80E0000020036
:100560000200A003B50EE80E000003000100A50381
:10057000B50EE80E0000040002008A03B50EE80E76
:10058000790705000100A603B50EE80E000006007D
:1005900002008C03B50EE80E000007000200A20363
:1005A000B50EE80E000008000100A703B50EE80E26
:1005B0000000090002008E03B50EE80E54070A0081
:1005C00002009003B50EE80E54070B0002009203E0
:1005D000B50EE80E54070C0002009403B50EE80EA9
:1005E00054070D0002009603B50EE80E54070E00E6
:1005F00002009803B50EE80E54070F0002009A039C
:10060000B50EE80E5407100002009C03B50EE80E6C
:100610005407110002009E03B50EE80E54071200A5
:100620000200A803B50EE80E000013000200AA03A2
:10063000B50EE80E000014000100AC03B50EE80E84
:100640000000150000000000DA067A16000009021A
:100650005B00030100A0FA0904000001030101008E
:100660000921110100012240000705810308000152
:100670000904010002030000000921110100012208
:100680002200070582032000010705030320000163
:1006900009040200010300000009211101000122E8
:1006A000BC000705840320000112010002000000C5
:1006B00008707016240100010203011C0376006912
:1006C0000061006C003A00660036003400630032BE
:1006D0000062003300630000000E0353004E004F21
:1006E0000050003600300000000A034E0061007325
:1006F0000070000000040309040000000000000076
:1007000000000000000000000000000000000000E9
:10071000000000000000000000000000007E0F004C
:10072000D4FFFFFFC70000007800000000000000B9
:10073000002A2B280000000000000000000000003C
:100740000000000029000000002C1E34202122247B
:10075000342627252E362D3738271E1F2021222309
:100760002425263333362E37381F0405060708099B
:100770000A0B0C0D0E0F1011121314151617181961
:100780001A1B1C1D2F3130232D35040506070809BF
:100790000A0B0C0D0E0F1011121314151617181941
:1007A0001A1B1C1D2F3130354C0011241FBECFEFFA
:1007B000DAE0DEBFCDBF04B603FE18C080919B0413
:1007C00090919C04A0919D04B0919E048730904B21
:1007D000A740B04B59F410929B0410929C041092C5
:1007E0009D0410929E04E0E0F8E3099511E0A0E07A
:1007F000B1E0EAE6FFE602C005900D92A637B10728
:10080000D9F724E0A6E7B1E001C01D92AB39B207E9
:10081000E1F70E94A22E0C9449370C940000E8EDF9
:10082000F0E080818E7F80831092E2001092DA00E7
:100830001092E100A0EEB0E08C9181608C938081F9
:100840008F77808319BCA7EDB0E08C918E7F8C935D
:1008500080818F7E808310926A0408952091E40045
:100860003091E50095E6A9012091EC00822F81707E
:1008700020FF06C08091E80080FF06C080E0089558
:100880002091E80022FD1AC080919804882389F005
:10089000853089F08091EB0085FD0FC02091E40048
:1008A0003091E50042175307F9F29150E1F684E0E8
:1008B000089582E0089583E0089581E00895EF921D
:1008C000FF920F931F93CF937C018B010E942E0404
:1008D000C82F811117C08091E80085FD0BC0809161
:1008E000E8008E778093E8000E942E04882399F315
:1008F000C82F08C0F70181917F018093F10001505A
:10090000110949F78C2FCF911F910F91FF90EF9014
:100910000895CF93FC0180919804843001F5C09133
:10092000E900CF702091EC00922F917020FD90E8AB
:10093000C92B82E08093E9008091E80080FF0CC021
:1009400050E040E060E270E0CF010E945F048091DF
:10095000E8008E778093E800CF70C093E900CF91D4
:1009600008958091900487FF13C08091E80082FF72
:1009700006C08091E8008B778093E80004C08091E6
:1009800098048111F2CF0895809198048823D9F3B7
:100990008091E80080FFF8CF8091E8008E77ECCF5F
:1009A000982F9093E900242F762F50E0891731F08B
:1009B0007091EC002091ED005091F00021FD07C0F6
:1009C0009F5F973071F78093E90081E0089530913F
:1009D000EB003E7F3093EB003091ED003D7F309394
:1009E000ED003091EB0031603093EB007093EC0040
:1009F0002093ED005093F0002091EE0027FDE0CF12
:100A000080E00895B0E0A0E0E8E0F5E00C949C36CA
:100A1000C8EDD0E088818F7E8883E7EDF0E08081AB
:100A20008160808384E082BF81E080936A04888152
:100A30008E7F888302EE10E0F80110821092DA00B7
:100A400081EEC82ED12CF601108288818F778883A1
:100A500088818068888388818F7D888319BC109203
:100A6000980410928F0410928E0410928D0490EED0
:100A7000E92EF12CF70180818B7F80838881816052
:100A8000888342E060E080E00E94D004F60180812B
:100A90008E7F8083F801808181608083808188607F
:100AA0008083F70180818E7F808388818061888345
:100AB000CDB7DEB7E8E00C94B836FC01809196041F
:100AC0009091970486179707A0F06115710529F496
:100AD0009091E8009E779093E80090E06115710591
:100AE00051F4911108C08091E80082FF34C080E089
:100AF0000895BC01F2CF809198048823C1F185301C
:100B0000C1F18091E80083FD30C08091E80082FD52
:100B1000EACF8091E80080FFE1CF8091F30020913F
:100B2000F200382F6115710519F02830310558F0A1
:100B300091E02830310509F090E02091E8002E770F
:100B40002093E800CBCF81918093F100615071092F
:100B50002F5F3F4FE7CF80919804882341F0853085
:100B600041F08091E80083FFBECF81E0089582E0EC
:100B7000089583E00895089580916C0408959C0180
:100B80004FB7F8948091610490916204A09163043E
:100B9000B09164044FBF821B930B08952FB7F89454
:100BA0006091610470916204809163049091640487
:100BB0002FBF08952FB7F89480916104909162043B
:100BC000A0916304B09164042FBF089520915E0446
:100BD00030915F042817390771F090935F04809378
:100BE0005E04E0915C04F0915D04309721F0008494
:100BF000F185E02D0995089520915A0430915B0408
:100C00002817390771F090935B0480935A04E091A0
:100C10005C04F0915D04309721F00680F781E02DAF
:100C200009950895E0915C04F0915D04309729F0F6
:100C30000190F081E02D0995089580E00895CF930B
:100C4000DF93EC0140914A0450914B0460914C04B5
:100C500070914D042FB7F8948091610490916204D3
:100C6000A0916304B09164042FBF841B950BA60B65
:100C7000B70B843F9140A105B10518F580914A0456
:100C800090914B04A0914C04B0914D048093460484
:100C900090934704A0934804B093490484EF91E0F3
:100CA000A0E0B0E08093420490934304A0934404F6
:100CB000B0934504D0935204C0935104DF91CF9177
:100CC00008950E94CE056093460470934704809374
:100CD00048049093490482E390E0A0E0B0E0E2CFC2
:100CE000FC018481862351F492819923B9F0692310
:100CF000808583FF05C081E061110FC080E0089509
:100D0000892F8F7092959F70982B862F8F70629588
:100D10006F70682B81E09613F1CF089581E0FDCFCD
:100D2000452B39F0682381E06F3F09F080E0817046
:100D3000089581E0FCCFDC0160913A0480913B048E
:100D4000962F891301C00895292F30E0F901EE0F85
:100D5000FF1FEE5CFB4F408151814A175B07A1F4F6
:100D600087E08A9FA0018B9F500D11244A5E5B4F44
:100D700081E0FA0184839613E6CF2F5F3F4F237003
:100D8000332720933A0408952F5F3F4F922F93709B
:100D9000D8CF1092B3031092B203E6E1F4E085815C
:100DA000811102C014821682379684E0E233F8077C
:100DB000B1F70895B0E0A0E0E0EEF6E00C949A36CA
:100DC0008FEF9FEF4430510508F469C040916504EE
:100DD00041FB882780F990E0880F991F42FB00278C
:100DE00000F910E0000F111F000F111F802B912B35
:100DF00040FBCC24C0F8D12C8C299D2943FB222711
:100E000020F9C22FE0E0DE2F53E0CC0FDD1F5A9512
:100E1000E1F78C2B9D2B44FBAA27A0F9B0E0E4E07E
:100E2000AA0FBB1FEA95E1F78A2B9B2B45FBEE2708
:100E3000E0F9F0E0A5E0EE0FFF1FAA95E1F78E2B99
:100E40009F2B46FB222720F930E0B6E0220F331F0C
:100E5000BA95E1F7822B932B47FB222720F930E04C
:100E60003695322F222737952795822B932B209169
:100E70006604322F3170F32EE82EF92A2695217060
:100E8000B22EBB0CA82EBF28C501BB0CAA0BBB0BF6
:100E9000FB0180839183A283B38390E080E0CDB790
:100EA000DEB7EAE00C94B636EAE8F3E08481958197
:100EB0002AE030E0B9010E945D366093140186811A
:100EC00080931301828580931201848580931101A0
:100ED00086859785B9010E945D36609310018089EF
:100EE00080930F01828980930E01848980930D0184
:100EF000089580918A0390918B03909316018093BB
:100F000015010895EAE7F2E090E080E06FE97CE205
:100F100046EC5CE22AE33CE27783668351874087B4
:100F2000338722879587848701963E968430910582
:100F300099F7089581152CE5920741F420913E041C
:100F400030913F04232B11F490E080E008950E943B
:100F5000DA059C019091680280916902982B21F03A
:100F6000309365022093640290916A0280916B0233
:100F7000982B21F03093630220936202E0915C048D
:100F8000F0915D04309749F082E08093660204801E
:100F9000F581E02D86E692E009950895909168022A
:100FA000803F59F48091690287FF0DC01092690259
:100FB00091110BC01092600208C0813F81F48091B2
:100FC000690218169CF3992381F080916A0290912E
:100FD0006B02892B09F064C010925F020895823F72
:100FE00049F497FFF0CF1092680280916902811155
:100FF000ECCFE0CF833F19F41916ACF3E4CF209186
:101000006A02893F29F41216F4F610926A02DBCFC5
:101010008A3F19F427FFD7CFF8CF20916B028B3F7F
:1010200029F427FFD0CF10926B02CDCF8C3F19F45B
:101030001216CCF3C8CF843F31F4809167028E7FC3
:1010400080936702C0CF853F21F4809167028D7F36
:10105000F7CF863F21F4809167028B7FF1CF873FE6
:1010600021F480916702877FEBCF883F21F4809144
:1010700067028F7EE5CF8D3F31F4809161028E7FD4
:1010800080936102A0CF8E3F21F4809161028D7F19
:10109000F7CF8F3F09F097CF809161028B7FF0CF20
:1010A00008958091610280FF0CC060910E0170E094
:1010B00075956795759567956115710549F1862F49
:1010C000089581FF06C060910E0170E075956795E7
:1010D000F3CF60910E0182FD0BC090915F029923C6
:1010E000A1F060910D0180910E01961738F0682FE4
:1010F00070E06038710500F38FE70895899FC001A3
:10110000112470E00E947136F4CF61E070E0D7CF17
:1011100081E0089580916102609192037091930340
:1011200080FF16C020911201269FC001279F900DBD
:101130001124BC01769567957695679560387105A1
:1011400008F043C06115710509F441C0862F089568
:1011500081FF0BC020911201269FC001279F900D97
:101160001124BC0176956795E9CF82FF09C0809173
:1011700012019B01829FB001839F700D1124DECF6D
:10118000209160022223D1F29091110180911201ED
:10119000482F50E0291748F0CB01849FB001859F6C
:1011A000700D949F700D1124C9CF289F90011124B8
:1011B000269FA001279F500D369F500D1124692FA7
:1011C00070E0CA010E945D36B9CF8FE7089581E0D3
:1011D0000895803F31F40E948A08819580936902C6
:1011E0000895813F19F40E948A08F8CF823F31F4B4
:1011F0000E948A088195809368020895833F19F4BC
:101200000E948A08F8CF893F29F40E9451088093F0
:101210006A0208958A3F21F40E9451088195F7CF10
:101220008B3F31F40E945108819580936B020895A1
:101230008C3F19F40E945108F8CF843F31F480911B
:1012400067028160809367020895853F21F4809151
:1012500067028260F7CF863F21F480916702846045
:10126000F1CF873F21F4809167028860EBCF883F00
:1012700021F4809167028061E5CF8D3F31F4809148
:10128000610281608093610208958E3F21F4809114
:1012900061028260F7CF8F3FB9F78091610284606D
:1012A000F1CF80E00895F894E82FE295EF70F0E038
:1012B00031A1282F2F7081E090E001C0880F2A957E
:1012C000EAF7982F9095932391A392A1892B82A35B
:1012D000789408959091650492FF06C0282F287194
:1012E0002830F9F4877F846093FF06C0282F287187
:1012F0002831F1F4877E84612091660420FF06C0C6
:10130000382F38713830D9F4877F816021FF06C0CB
:10131000282F28712831D1F4877E816194FD877E42
:101320000895282F24712430F9F68B7F8860DCCF54
:10133000282F2471243101F78B7E8861DDCF382F6F
:101340003171313019F78E7F8860E0CF282F2171FD
:10135000213121F78E7E8861E1CFCF93DF93EC01BD
:1013600082389105B1F108F040C08133910509F44C
:101370009DC048F58932910509F48DC08A9709F41A
:101380009CC0C11521E5D20708F0C3C0C11530E5E6
:10139000D30708F01EC1C83ED10508F0A3C0C03E67
:1013A000D10588F5C83AD10508F08EC0C53AD105F7
:1013B00008F007C1C130D10531F1209721F1C430C7
:1013C000D10508F545C08533910509F45FC0C9977B
:1013D000C1F680916504837009F044C18091660470
:1013E00083FF11C0C9E2D0E00EC0833E910599F1A0
:1013F00070F4803E910501F1823E910511F68091D5
:10140000650482FD21C0CE01DF91CF910895863E13
:10141000910561F1873E910571F1843E910509F0D6
:10142000B0CF8091660481FFEECF80916504C7EE56
:10143000D0E084FD0DC0E7CF8091650480FD33C00E
:101440009091660490FFDFCFC3EED0E084FFDBCF46
:10145000D0E0C0E0D8CF8091650482FD00C19091BA
:10146000660490FDFFC084FFCECFF2CF809165046B
:1014700083FDDDCFC8CF8091650483FDF6C09091D8
:10148000660491FFF0CFC4EED0E0BDCF809165043B
:1014900085FFB9CFA7CF8091650485FDE9C0809114
:1014A000660483FFB0CFC9E3D0E0ADCF809165047F
:1014B00086FFA9CFCAE2D0E0A6CF8091650486FF5F
:1014C000A2CFC1E3D0E09FCFCF3BD10508F6C85AE9
:1014D000D0E0CC0FDD1FCB5DDE4F0990D881C02D51
:1014E000D46491CFC11540E2D40758F4C11581E00E
:1014F000D80708F088CFC03FD10508F4A9CFD06540
:1015000082CFC11520E4D20708F4A2CFDF70D06AE1
:101510007ACFC11535E5D30718F5C11544E5D407D1
:1015200008F085C0C11583E5D80708F06CC0C11567
:1015300022E5D20708F462C0CE018370992721E02A
:1015400030E002C0220F331F8A95E2F7C695C69598
:1015500080E2C89FE0011124C22BD32BDC6853CF5B
:10156000C11539E5D307A8F4C11548E5D40708F03B
:1015700063C0C11586E5D80708F06ACF8C2F0E949A
:101580006A09C82FD0E0DC2FCC27CC27DF71D062CE
:101590003ACFC1152AE5D20708F453C0CE019056C0
:1015A0008115904208F054CF8D2F8F710E946A09E7
:1015B00090E0982F882788279F719C012C2BE901A8
:1015C000E6CFC55AD0E0CE5DDE4FC881D0E0D06412
:1015D0001ACF2C2F26952695237040E2249F900148
:1015E00011248C2F8370C1E0D0E002C0CC0FDD1F2E
:1015F0008A95E2F7C22BD32BDD6805CFDC2FCC27F1
:10160000C16FD06A00CFCE018370992721E030E00E
:1016100002C0220F331F8A95E2F7C695C69540E2B5
:10162000C49FE0011124C22BD32BDA68ECCEDC2F4F
:10163000CC27C46FD06AE7CEDC2FCC27C06FD06A2E
:10164000E2CE8C2F8F700E946A0934E0D695C79540
:101650003A95E1F7CF709C2FEC01D069D4CEC2EE61
:10166000D0E0D1CEC0EED0E0CECEC6EED0E0CBCE34
:10167000C5E3D0E0C8CE80912B02882331F01092D0
:101680002B0210922A02109229020895CF93C82F9C
:101690008091660482FF0CC080912B028C1741F070
:1016A0000E94DA0590932A0280932902C0932B02AC
:1016B000CF910895809590919A04982390939A04DD
:1016C00008958095909169039823909369030895F4
:1016D00090916903892B8093690308951092080201
:1016E0001092070210920602089580918C03909147
:1016F0008D03892B89F00E94DA052091290230910F
:101700002A02AC01421B530B81E020918C033091E3
:101710008D034217530708F480E08170089590917B
:1017200019019923D1F09091650497FF16C0E82F15
:10173000E695E695E695EE31E0F4F0E0E858FE4FE8
:10174000282F277081E090E001C0880F2A95EAF7E2
:1017500080959281892382830895EAE7F1E091914F
:10176000891303C0DF0111971C9291E0E038F9075B
:10177000B1F70895909119019923C1F090916504F2
:1017800097FF14C0E82FE695E695E695EE31F8F45C
:10179000F0E0E858FE4F877021E030E001C0220FF2
:1017A0008A95EAF78281822B82830895AAE7B1E0C5
:1017B000EFEF90E02D91821751F0EF3F19F42111D6
:1017C00001C0E92F9F5F9630A9F7EF3F09F4089514
:1017D0000E2E000CFF0BE858FE4FE6CF20910502BD
:1017E0009091C401291302C080E0089530E0F9010E
:1017F00053E0EE0FFF1F5A95E1F7EB53FE4F518177
:10180000561306C05081581303C05281541304C0AC
:101810002F5F3F4F2770E6CF81E00895809105024A
:101820009091C401981301C008958F5F8770FACF1B
:10183000292F953078F58E3068F590E03EE0239FB3
:10184000800D911D1124682F677023E09695879570
:101850002A95E1F7FC01EE0FFF1FE80FF91FEF5586
:10186000FE4F50E040E080E0219130E0062E02C0C3
:10187000369527950A94E2F721703327042E01C08C
:10188000220F0A94EAF7822B4F5F5F4F43305105D6
:1018900059F7089580E00895292F953098F58E30F6
:1018A00088F590E03EE0239F800D911D1124282FA4
:1018B000277041E001C0440F2A95EAF723E096958E
:1018C00087952A95E1F7FC01EE0FFF1FE80FF91F3E
:1018D000EF55FE4F30E020E070E05191DF011197AD
:1018E000CB01022E02C0969587950A94E2F781708B
:1018F00081958527842385278C932F5F3F4F233045
:10190000310559F7089592959F70963091F058F4EB
:10191000925F9F70923058F4803F19F030F4883E07
:1019200030F481E008959A5FF4CF843FD1F380E0F2
:101930000895883EB0F3813FD1F7F3CF9C013A95EB
:1019400021153F4150F5FC01EE27F170BC016627DF
:101950007270AC01442754709C012227387094FFA8
:101960000EC080E1EF2B09F480E0672B09F0806264
:10197000452B09F08064232B89F08068089581E06D
:10198000EF2B09F480E0672B09F08260452B09F00A
:101990008460232B19F08860089580E00895809377
:1019A000670470936904609368048091980484309C
:1019B000F9F48093E9008FEF9091E800815095FD54
:1019C00006C095ED9A95F1F700008111F5CF809151
:1019D000E80085FF0DC050E040E063E070E087E67E
:1019E00094E00E945F048091E8008E778093E80085
:1019F0000895BC0184E00E94CF0C0895BC0183E0EF
:101A00000E94CF0C08959C0184E08093E9009FEF31
:101A10008091E800915085FD06C085ED8A95F1F72B
:101A200000009111F5CF8091E80085FF0CC050E0D7
:101A300040E066E070E0C9010E945F048091E80028
:101A40008E778093E8000895CF93DF93EC01809127
:101A500019018823B1F18091650487FF32C060E2EB
:101A600084E08093E9008FEF9091E800815095FD2C
:101A700006C095ED9A95F1F700008111F5CF8091A0
:101A8000E80085FF1BC08091190170E050E040E044
:101A9000811104C050E040E068E070E0CE010E9497
:101AA0005F048091E8008E778093E80080E2FE0179
:101AB000ADE6B4E001900D928A95E1F7DF91CF9108
:101AC000089568E081E0CDCF81E08093E00080E27E
:101AD0008093D8001092C9008FE19EE40197F1F73E
:101AE00000C0000087E090EBDC0180939B049093A2
:101AF0009C04A0939D04B0939E0488E19CE00FB6E3
:101B0000F894A895809360000FBE90936000FFCF7B
:101B1000019708F40895EFE9FFE03197F1F700C06D
:101B20000000F6CF0F931F93CF93DF930AE813E0E3
:101B3000C7E5D2E0CE010E94FF36F80181938F0104
:101B40002196CB37F2E0DF07A9F7CCE5D5E0FE011F
:101B500085919491009711F0FC0109952C96F6E07F
:101B6000C835DF07A1F7DF91CF911F910F9108953D
:101B70000F931F93CF93DF93843030F5653020F5BA
:101B80004E3010F5C42FD0E0CC0FDD1F2CE1629F4A
:101B9000C00DD11D11243CE8839FC00DD11D11241F
:101BA000CE0187960E94FF36082F10E0102F0027E5
:101BB000CE0188960E94FF369801282BC901DF913B
:101BC000CF911F910F91089590E080E0F8CF462FBC
:101BD0002091670330916803232B99F4703F39F407
:101BE000603F79F480916503909166030895843095
:101BF00040F4753030F46E3020F4672F0E94B80D39
:101C0000089590E080E00895CF92DF92FF920F93C5
:101C10001F93CF93DF936C010091990480912C0264
:101C2000082BC7E0D0E010E0FC2EC8010C2E02C04B
:101C3000959587950A94E2F780FD0CC02197A0F74F
:101C4000F12C8F2DDF91CF911F910F91FF90DF909D
:101C5000CF900895B6018C2F0E94E70D0E94AD0928
:101C6000019761F3EECFCF93DF93EC010E94040E56
:101C7000BE010E94E70D0E94AD09DF91CF9108954A
:101C8000CF93DF93EC014B815C81698188810E9455
:101C90009006811110C08E819F81009739F00E94BB
:101CA000AD090E94830CDF91CF91089588819981BD
:101CB0000E94330EF6CF80E0F6CFA5E0B0E0E3E679
:101CC000FEE00C94A13649835A8389819A81662368
:101CD00099F0222389F00E94040E182F682F898121
:101CE0009A810E944C0C69817A81812F0E94E70DB4
:101CF0002596E3E00C94BD360E94180C182FF3CF04
:101D0000FC01262F86819781009739F4408151810B
:101D10006281738184810E945D0E089583E290E068
:101D20000E94FF36873F89F484E290E00E94FF36EC
:101D3000883759F485E290E00E94FF3691E08A30BE
:101D400009F090E0892F8170089580E0FCCFCF9357
:101D500084E090E00E94FF36C82F82E290E00E946B
:101D6000FF36982F8C2FCF910895DB01FC0132961E
:101D7000259134914217530758F0FC013496659130
:101D80007491A901CD010E94DF3690E080E00895B2
:101D90008FEF9FEF08950F931F93CF93DF930AE880
:101DA00013E0C7E5D2E0CE010E94FF36F801619151
:101DB0008F01681719F0CE010E940D372196CB379D
:101DC000F2E0DF0781F7DF91CF911F910F91089526
:101DD000DA019C012E5F3F4FF90145915491F901C1
:101DE00025913491A217B30758F0FC0134968591E0
:101DF00094910E94DF360E94CB0E90E080E008951F
:101E00008FEF9FEF0895CF93DF93CBE1D3E060E0B6
:101E1000CE010E940D372196C11584E0D807B9F78D
:101E2000DF91CF9108951F93CF93DF93122F8430CA
:101E3000E0F46530D0F44E30C0F4C42FD0E0CC0FC5
:101E4000DD1F9CE1699FC00DD11D11249CE8899F75
:101E5000C00DD11D1124632FCE0187960E940D372E
:101E6000612FCE0188960E940D37DF91CF911F918F
:101E70000895CF93C82F6FEF811167EF83E290E051
:101E80000E940D376FEFC11168E784E290E00E9475
:101E90000D376FEFC1116AE085E290E00E940D37C7
:101EA000CF910895CF93C92F682F84E090E00E94CE
:101EB0000D376C2F82E290E00E940D37CF9108958C
:101EC0009B01843070F49AE0899FB0011124655819
:101ED0007D4F4AE050E0C9010E94EF3690E080E07B
:101EE00008958FEF9FEF0895AAE0B0E0EAE7FFE0E2
:101EF0000C94A2369C0137552F3F310509F068F448
:101F0000BE016F5F7F4F0E94600F892B31F489857E
:101F10009A852A96E2E00C94BE368091A2039091B5
:101F2000A303F7CFAAE0B0E0E8E9FFE00C9498360D
:101F30000DEE12E08BEDC82E82E0D82E9BECE92E40
:101F400092E0F92E27E0922E3AEDA32E32E0B32E46
:101F500088248394D6010D931D936D014AE050E0CF
:101F6000B701CE0101960E94EF36F8013896DF01E5
:101F7000892D1D928A95E9F789819A81D801119658
:101F80009C938E938F8112968C9312978D811396CA
:101F90008C931397888514968C931497898515963E
:101FA0008C9315978B819C8117969C938E93169793
:101FB00018961C9218978A8587FF3CC01E961C9223
:101FC0001E921D9780FF03C0D80118968C9281FF46
:101FD00004C0F80190859260908782FF07C0D80105
:101FE00018969C911897946018969C9383FF04C050
:101FF000F80190859860908784FF07C0D8011896F3
:102000009C911897906118969C9385FF04C0F801E5
:10201000808580628087015F1F4FFAE0EF0EF11C20
:102020008BE1E81683E0F80609F094CF2A96ECE0FD
:102030000C94B436F801B686A586C4CFAAE0B0E009
:10204000E4E2F0E10C949C36E2EBF2E088E2DF019E
:102050001D928A95E9F7E6E1F4E08CE1DF011D923B
:102060008A95E9F782EBC82E82E0D82E7F0103EA39
:1020700012E0F701D182C0824AE050E0B801CE01FF
:1020800001960E94EF3688E0FE013196D60101905C
:102090000D928A95E1F789859A85D70113969C93CD
:1020A0008E931297BAE0CB0ED11CE7E0EE0EF11C36
:1020B000065F1F4F0B3CF2E01F07D9F62A96E8E0B7
:1020C0000C94B836AAE0B0E0E8E6F0E10C9494365F
:1020D0008E010F5F1F4F8AE0F80111928A95E9F790
:1020E00093E5E92E91E0F92E680128E5422E21E0E2
:1020F000522E66246394712C46E6842E41E0942E81
:10210000F70181917F018F3F09F445C0F894E82FD2
:10211000E295EF70F0E021A18F70A30102C0440F9F
:10212000551F8A95E2F7CA01922F982B91A392A18D
:102130008095892382A3789400C0E8E5F1E021E04E
:1021400030E0B12CA12C41914F3F09F464C0A42F81
:10215000A295AF70B0E090968C9190E04F7002C065
:10216000959587954A95E2F780FD55C0C901A82A43
:10217000B92A220F331F8E169F0629F7F7013197D0
:1021800080818F3F11F00E94530950EA5A95F1F770
:10219000F601B182A082F2E0CF0ED11C4E145F0492
:1021A00009F0AECF4AE050E0B80180E392E00E942F
:1021B000D236892B99F18AE0F801A0E3B2E00190D0
:1021C0000D928A95E1F781E080932F020E94DA0553
:1021D00090932E0280932D0280912D0290912E02D9
:1021E0000E94BF050597F0F04AE050E060E372E01E
:1021F00085E592E00E94D236892BC9F08AE0E0E3BF
:10220000F2E0A5E5B2E001900D928A95E1F781E058
:1022100010922F0208C090E080E0A9CF80912F0299
:102220008111DACF80E02A96E0E10C94B03680E0AC
:10223000EFCFCF938091690390919A04892B80937B
:10224000780180912B02882329F180918C03909151
:102250008D03892B29F00E94750B81110E943B0B85
:102260008091780190912B02892B80937801809145
:102270001901882309F447C08091650487FF43C092
:102280008EE1EAE7F1E090E0815008F03EC0911164
:102290000E943B0BC0914E04C09580917801C823E9
:1022A00080914F04C82BC093780140E250E069E070
:1022B00072E088E791E00E94D236892B11F180E22A
:1022C000E8E7F1E0A9E0B2E001900D928A95E1F72C
:1022D000E0915C04F0915D04309799F080911901D0
:1022E000882349F08091650487FF05C0C093790178
:1022F00086E0809378010280F381E02D88E791E009
:102300000995CF91089586E0BCCF2191222309F44D
:10231000BBCF9F5FB9CFCF93DF93EC01EA85FB85FD
:10232000309719F06C857D8509958B810E945A0B39
:102330008C810E94610B0E94191186E0FE011192AE
:102340008A95E9F7DF91CF910895CF93DF93EC0160
:102350008D8181FD15C082608D8380919A049B815F
:10236000892B80939A048C810E94680B0E9419111A
:10237000E885F985309721F06C857D85CE0109953A
:1023800010925904109258048D8180FD03C0CE0133
:102390000E948B11DF91CF91089580911701877F63
:1023A0008093170182E00E945A0B8091170184FFED
:1023B00006C08F7E8093170182E00E94680B809197
:1023C000170185FF06C08F7D8093170180E20E9470
:1023D000680B0E941911089590E080E00E94FC05AE
:1023E00090E080E00E94E60510929A040E94191184
:1023F00086E0E6E6F2E0DF011D928A95E9F71092A9
:10240000600210925F02109261020E94A707089575
:10241000809399040E94EC11089580919904982F5B
:102420009670963021F488600E9408120895877F84
:10243000FBCF21E030E001C0220F8A95EAF720951A
:102440008091990482230E940812089590910802B5
:102450008095892380930802282F277091F4282FD4
:10246000082E000C330B9217130659F09091660456
:1024700092FF07C08595859585950E9419120E9447
:102480006E0B08959091660492FB222720F928177D
:1024900069F080FB92F990936604809165049091B5
:1024A00066040E94520F82E00E942612089521E0E5
:1024B00030E001C0220F8A95EAF780919904822BBF
:1024C0000E94081208959091660492FF10C098E04F
:1024D000899F90011124622B609308020E94571279
:1024E0000E94DA05909307028093060208950E94E5
:1024F0005712089580932C020E94EC1108951092B7
:10250000690380911901EAE7F1E0882361F0809185
:10251000650487FF08C08EE1DF011D928A95E9F707
:102520000E94EC11089586E0F7CFAAE2B0E0EBE953
:10253000F2E10C94A13680E994E02091F100DC01F5
:102540002D93CD01B4E088399B07B9F780919104B0
:10255000833009F472C0B8F4813009F449C0823084
:1025600009F4B3C08091E80083FF96C28091900483
:10257000909191049A3008F08FC2E92FF0E0E55B6A
:10258000F84C0C9485368A3009F48EC08B3009F4EF
:1025900071C0893039F780919004813219F78091A8
:1025A000940490919504009711F00297D9F68091C8
:1025B000E800877F8093E8008091E80082FF38C0C0
:1025C0009091F3008091F200029731F48091F10034
:1025D000813011F0863021F48091F10080936C04F9
:1025E0008091E8008B778093E8000E94B104BACF15
:1025F00080919004813A09F0B5CF8091E800877FFF
:102600008093E8008091940490919504892B61F463
:1026100060E28DE694E070E00E945D058091E80044
:102620008B778093E8009ECF60E090E080E0F3CF6E
:10263000809198048111C0CF95CF80919004813A08
:1026400009F090CF8091940490919504892B09F022
:1026500089CF8091E800877F8093E8008091E8002F
:1026600080FFFCCF809119018093F1008091E800F8
:102670008E77B9CF80919004813209F073CF809129
:10268000940490919504892B09F06CCF8091E80017
:10269000877F8093E8000E94B10480919204809328
:1026A00019010E947F125ECF80919004813209F05F
:1026B00059CF8091E800877F8093E8000E94B104A1
:1026C0008091930480936B044DCF80919004813A64
:1026D00009F048CF8091E800877F8093E8008091DF
:1026E000E80080FFFCCF80916B04BECF803899F06A
:1026F000823809F0D1C1809194048F70873008F03E
:10270000CBC18093E9008091EB0085FB882780F99D
:102710001092E90006C080918D0490918E04911171
:1027200082609091E800977F9093E8008093F10099
:102730001092F1008091E8008E77AAC1882309F4F5
:1027400098C1823009F0A8C18091920481119BC187
:10275000809194048F702FEF280F263008F09CC1D1
:102760008093E9002091EB0020FF8DC1933031F47C
:102770008091EB0080628093EB0085C19091EB002B
:1027800090619093EB0021E030E001C0220F8A9528
:10279000EAF72093EA001092EA008091EB0088604B
:1027A000EACF811179C1109192041F778091E300E3
:1027B0008078812B8093E3008091E800877F80936D
:1027C000E8000E94B1048091E80080FFFCCF809176
:1027D000E30080688093E30082E0111183E080933E
:1027E00098045AC18058823008F056C12091920452
:1027F000309193042C3DE3E03E07A1F583E08A830A
:102800008AE289834FB7F894DE01139620E03EE018
:1028100051E2E32FF0E050935700E49120FF03C012
:10282000E295EF703F5FEF708E2F90E0EA30C0F0DE
:10283000C7968D939D932F5F243159F74FBF809199
:10284000E800877F8093E8006AE270E0CE0101969D
:102850000E945D058091E8008B778093E8001CC1A1
:10286000C096E7CF8091940490919504432F55270B
:102870004330510509F44AC078F54130510509F457
:1028800085C08BE590E0EEE4F6E04230510509F0BA
:1028900003C12091E800277F2093E800209196044F
:1028A000309197048217930708F49C0140E02115AA
:1028B000310509F070C041116EC08091E80082FDC1
:1028C000C9CF80919804882329F2853019F280912C
:1028D000E80083FFF2CFBECF4132510509F447C073
:1028E0004232510509F0D8C08330910508F0D4C0B8
:1028F000FC01EE0FFF1FE759FE4F0190F081E02D24
:102900008A599E4FDC018C9190E01DC03327213005
:102910003105E9F02115310579F022303105F9F062
:102920002330310509F0B8C0EBEBF6E0E4918E2FCF
:1029300090E0EBEBF6E007C0E5EFF6E0E4918E2FD8
:1029400090E0E5EFF6E0009709F4A6C0A2CFE9EE2B
:10295000F6E0E4918E2F90E0E9EEF6E0F4CFE9EDB9
:10296000F6E0E4918E2F90E0E9EDF6E0ECCF8330D5
:10297000910508F091C0880F991FFC01E159FE4FA5
:102980000190F081E02D89E090E083CF82E190E03A
:10299000E9EAF6E07ECF80919804882309F45ACFC3
:1029A000853009F457CF8091E80083FD53CF8091A3
:1029B000E80082FD82CF8091E80080FF78CF90917F
:1029C000F3008091F2002115310519F0883091054E
:1029D00050F041E0089709F040E08091E8008E77E0
:1029E0008093E80064CF44914093F10031962150E8
:1029F00031090196E8CF803809F04EC08091E80097
:102A0000877F8093E80080918F048093F10092CEBD
:102A1000811142C0109192041230F0F58091E800CB
:102A2000877F8093E80010938F040E94B1041123E4
:102A300011F084E005C08091E30087FDFACF81E0CA
:102A40008093980442E061EC81E00E94D00442E26D
:102A500061EC84E00E94D00442E261EC82E00E94DA
:102A6000D00442E260EC83E00E94D004809198049C
:102A700013C080919204813079F481E0933009F0A1
:102A800080E080938E041092E9008091E800877FB7
:102A90008093E8000E94B1048091E80083FF0AC09F
:102AA0008091E800877F8093E8008091EB0080624E
:102AB0008093EB00AA96E3E00C94BD36EAE8F3E0DD
:102AC000128E138E8FEA90E09183808325E0248F0D
:102AD00088E893E1938382838AE090E095838483FE
:102AE00044E150E05783468348E050E051874087F7
:102AF000938782876EE170E0758764879787868702
:102B000080E590E0918B808B538B428B48E250E0C4
:102B1000558B448B42E350E0578B468B48EC50E09A
:102B2000518F408F158E178E168E91A380A322A3EE
:102B30000E94CB0E0E947F121092660410926504D0
:102B4000E6E6F4E080818460808380916504909162
:102B500066040E94520F0E94920D0895AEE1B0E00B
:102B6000E4EBF5E10C94963680903E0490903F049F
:102B700081E090E090933F0480933E049EEAA92E6A
:102B800093E0B92EF12CE12C650110E018C083E030
:102B9000E816F104B9F0F30125913491402F612F2B
:102BA0008E2D0E94130FE2E06E0E711C0F5F0E302F
:102BB00071F71F5FFCE1CF0ED11C153049F03601D3
:102BC00000E0E5CF21E030E0402F612F83E0E9CF46
:102BD0008FEFE81AF80AECE8AE0EB11CF4E0EF163D
:102BE000F10491F60E945E151A8219821C821B82E2
:102BF0001E821D8218861F8288EC90E09A87898742
:102C00004AE050E06BE772E0CE0101960E94313756
:102C10004AE050E065E872E0CE0101960E9431374B
:102C20004AE050E06FE872E0CE0101960E94313731
:102C30004AE050E069E972E0CE0101960E94313726
:102C40008AE0D82E8E01055F1F4FF8018D2D11925D
:102C50008A95E9F74AE050E063EA72E0C8010E9411
:102C600031374AE050E06DEA72E0C8010E94313726
:102C70004AE050E067EB72E0C8010E9431374AE059
:102C800050E061EC72E0C8010E9431377E01E5E15D
:102C9000EE0EF11CF7011192DA94E9F78FEF9FEF36
:102CA0009A8F898F87E08E8F0BEC12E04AE050E01C
:102CB000B801C7010E943137065F1F4F0B31F3E0A7
:102CC0001F07A1F790923F0480923E046E96EEE0BB
:102CD0000C94B23680E00E94390F60E086E290E00A
:102CE0000E940D370E94AE150E94030F81E00E94E2
:102CF000390F0895CF92DF92EF92FF928FEF9FEFFF
:102D00004430510508F46AC0FB01C080D180E280E4
:102D1000F3800E947F1280916504C0FA80F9B701A8
:102D2000A601769567955795479540FB81F9B701C0
:102D3000A60122E076956795579547952A95D1F794
:102D400040FB82F9B701A60133E076956795579568
:102D500047953A95D1F740FB83F9B701A601E4E026
:102D60007695679557954795EA95D1F740FB84F995
:102D7000B701A601F5E07695679557954795FA95C1
:102D8000D1F740FB85F9B701A601A6E076956795D6
:102D900057954795AA95D1F740FB86F9B701A6014B
:102DA000B7E07695679557954795BA95D1F740FB6B
:102DB00087F98093650480916604D0FA80F9D1FA8E
:102DC000CC24C0F8C0FA81F9809366048091650430
:102DD000909166040E94520F90E080E0FF90EF9087
:102DE000DF90CF9008950E947F122FEF84E39CE044
:102DF000215080409040E1F700C0000088E19CE055
:102E00000FB6F894A895809360000FBE9093600071
:102E1000FFCF882321F00E945A0B0E9419110895B8
:102E2000882339F090919A04982B90939A040E94E9
:102E300019110895882321F00E94610B0E94191135
:102E40000895882321F00E94680B0E9419110895AB
:102E5000882309F455C0823879F40E94120681FF54
:102E60004FC089E30E94BA0B0E94191189E30E94A6
:102E70008F0B0E9419110895833859F40E9412068D
:102E800080FF3EC083E50E94BA0B0E94191183E5C2
:102E9000EECF843859F40E94120682FF31C087E4D5
:102EA0000E94BA0B0E94191187E4E1CF9CEF980FA2
:102EB000913AE8F290E2980F983050F4877091E0E0
:102EC00001C0990F8A95EAF7892F0E94610BD1CF33
:102ED0009BE5980F933028F490E080E00E94FC0579
:102EE000089598E5980F973128F490E080E00E94CB
:102EF000E6050895803F20F00E94CE070E94A707B4
:102F00000895FF920F931F93CF93DF93F82E0091B4
:102F10005304109154040115110509F449C010928D
:102F200052041092510410924E0410924F04D80192
:102F30001696CD91DC919E013A9521153F4108F4FA
:102F4000D07ED1E0C11101C0D0E0D8011996ED9139
:102F5000FC911A97309731F01B966D917C9180E02F
:102F60000995D823DD2339F08CEF8C0F813A30F5A9
:102F70008C2F0E948F0BFF2099F0E0915304F09169
:102F80005404808584FD0CC080915004882341F056
:102F9000808191819C0121503109203B3D45A0F069
:102FA0000E9419111092540410925304109250046C
:102FB000C801CDB7DEB7E5E00C94BB360E9419110D
:102FC0008C2F0E942817D7CF0E941F06E9CFCF93DE
:102FD000DF93EC010E942817CE010E949E0C9E01F7
:102FE000205E31092830310510F0CD2B29F40E94E4
:102FF0001A17DF91CF9108950E940917FACF68EE52
:103000007EEF90E080E00E942B3760E082E090E06D
:103010000E940D3760E083E090E00E940D3710922F
:103020002C0260E084E090E00E940D3764E082E2D0
:1030300090E00E940D3760E085E090E00E940D373F
:1030400060E086E090E00E940D376FEF87E090E04F
:103050000E940D3740E050E0BA0188E090E00E9405
:103060001F3760E08DE090E00E940D3740E050E0B7
:10307000BA0188E190E00E941F3760E087E190E0AC
:103080000E940D3740E050E0BA018CE190E00E94D0
:103090001F3770E060E080E290E00E942B3740E054
:1030A00050E0BA0188E190E00E941F3780E00E9462
:1030B000390F0E946A1640E050E0BA018FE090E0BC
:1030C0000E941F3740E050E0BA0183E190E00E9487
:1030D0001F370895EBEFE80FEF3308F072C0F0E010
:1030E000EB5AF84C0C9485360E94FF1781E0089546
:1030F00080914104807F8093410481E0809340046B
:10310000089580913E0490913F04892B79F30E94A9
:103110007F122FEF84E39CE0215080409040E1F744
:1031200000C000000E94640D90914104892F8E7FA1
:1031300090FF81608093410480FDD8CF817F809390
:103140004104D4CF90914104892F8D7F91FF8260FB
:103150008093410481FFCACF809141048160EFCF09
:1031600090914104892F8B7F92FF8460809341046A
:1031700082FDF2CFBBCF90914104892F877F93FFCF
:1031800088608093410483FDE7CFB0CF0E947F1217
:1031900090916504892F97FB87F980588093650487
:1031A000A5CF81E00E947A120E947F129FCF89539F
:1031B00091E001C0990F8A95EAF7892FF3CF8D51DD
:1031C000F7CF80E00895CF93C82F8823C9F08238C5
:1031D000C9F40E94120681FD13C089E30E94BA0B54
:1031E0000E9419112FEF87EE93E02150804090400C
:1031F000E1F700C0000089E30E948F0B0E941911C3
:10320000CF9108958338A1F40E94120680FDF8CF73
:1032100083E50E94BA0B0E9419112FEF81EE94E012
:10322000215080409040E1F700C0000083E5E4CFEA
:103230008438A1F40E94120682FDE2CF87E40E9446
:10324000BA0B0E9419112FEF81EE94E021508040BB
:103250009040E1F700C0000087E4CECF8CEF8C0FE8
:10326000813A08F0E7C0809140048130B9F18823A9
:1032700059F1823009F44DC0109240048091190137
:10328000882309F4C8C08091650487FFC4C0EC2F6F
:10329000E695E695E695F0E0E858FE4F828190E0ED
:1032A0004C2F477021E030E002C0220F331F4A95B7
:1032B000E2F782239323892B09F4B8C08C2F0E9454
:1032C0008F0B0E941911B2C0809169038232B1F64E
:1032D0008C2F0E946A18811193CFD0CF80916903FF
:1032E0008232B1F3C43171F038F4CB3049F0C031DF
:1032F00061F080E08170EFCFC93221F0C833C9F7A7
:1033000081E0F8CF10924004F4CF82E08093400433
:10331000F7CFC93209F453C080F5C43109F44FC066
:10332000B0F4C73009F06CCF81E08093140184E1E0
:10333000809313018AE0809312018EE18093110142
:1033400088E080930E0188E280930D0159CF82EED0
:103350008C0F8A3008F054CFCD51C093A001C330F8
:1033600009F448C0C0F5C13009F441C083E191E0DF
:10337000C230C1F11092A00143CFC03509F443C05F
:10338000C0F48AE0CF3409F03BCFE0919E01F09188
:103390009F01309709F434CF2081082E000C990B3F
:1033A000820F911D8F3F910591F18CF18FEF8083FA
:1033B00027CFC13551F181E0C23539F321CF80915A
:1033C000A001882309F41CCF1092A00110929F0144
:1033D00010929E0115CFC53099F078F08DE091E004
:1033E000C63041F690939F0180939E0109CF84E1FE
:1033F00091E0F8CF82E191E0F5CF81E191E0F2CF69
:103400008EE091E0EFCF86EFC0CF8FEFBECF97FF7A
:10341000CECF1082F5CEEAE7F1E080E891E021918D
:10342000C21709F44BCF8E179F07C9F78C2F0E9444
:10343000BA0BE4CE80E28C0F883048F4C77081E08C
:1034400001C0880FCA95EAF70E94680BD7CEEBE55A
:10345000EC0FE33040F4F0E0EE5DFE4F808190E051
:103460000E94FC05CDCEE8E5EC0FE73150F4F0E02A
:10347000EE0FFF1FEB5DFE4F808191810E94E605FC
:10348000BFCEC03F08F4BCCE8C2F0E94E9080E943A
:10349000A707B6CE1F93CF93DF93182FC091AA032F
:1034A000D091AB03893321F0C091A803D091A90337
:1034B000812F0E94E318209739F4812F0E9428174A
:1034C000DF91CF911F9108958FE99FE00197F1F768
:1034D00000C000002197EFCFB0E0A0E0E2E7FAE102
:1034E0000C949A36EC018AE0A82E2881222309F454
:1034F0008FC02130C9F599818A81913021F42296BB
:103500000E944A1A05C0923029F422960E94E318BC
:103510002196EBCF933021F422960E942817F8CF02
:10352000943011F02196F4CF229630E020E0AE01E5
:103530004F5F5F4F8053990B8A30910550F02150B7
:10354000310930F38FE99FE00197F1F700C00000E7
:10355000F6CFA29EB001A39E700D11249C01260FF0
:10356000371F8981EA01E3CFE22FF0E0E75DF84FF2
:10357000B490822F86958695869590E0FC01E75E53
:10358000F84FE4902770F12C022E02C0F594E794D6
:103590000A94E2F731E0E322FF24FC01E75FF84FF1
:1035A000C490D12C022E02C0D594C7940A94E2F79D
:1035B00031E0C322DD24FC01E750F94F049110E013
:1035C00002C0159507952A95E2F701701127E114BD
:1035D000F10419F081EE0E94E318C114D10419F02E
:1035E00086EE0E94E3188B2D0E944A1AC114D10462
:1035F00019F086EE0E942817E114F10419F081EE0B
:103600000E9428170115110509F482CF8CE278CFAA
:10361000CDB7DEB7EAE00C94B636B0E0A0E0E3E167
:10362000FBE10C949A367C015B01C42FD22FFC0184
:1036300082818823A9F0409357040E94DA05909371
:10364000560480935504C77081E001C0880FCA9565
:10365000EAF70E942117CDB7DEB7EAE00C94B63640
:1036600010915704141338C080915504909156045A
:103670000E94BF056C01B701C5010E94740FC816F6
:10368000D90650F5C0E2CD0F1D17C1F080E2810FC1
:10369000883048F4177081E0012E01C0880F0A9429
:1036A000EAF70E941A17C83048F481E09D2F9770FE
:1036B00001C0880F9A95EAF70E942117802F0E9477
:1036C0004A1AC83040F6D77081E001C0880FDA95F9
:1036D000EAF70E941A17BFCFC77081E001C0880FB8
:1036E000CA95EAF7F6CFCF93DF93EC010E949E0CC8
:1036F0009E01205E31092830310510F0209741F4F9
:103700000E9421178C2F0E94E318DF91CF9108951A
:103710000E941017F7CF662329F020919A042260A7
:1037200020939A049C013056211540E2340720F082
:10373000305E2115304108F499270E94731B0895CB
:10374000B0E0A0E0E6EAFBE10C949D367C018B0141
:10375000D42E8091170182FF8CC0C091B003D0910C
:10376000B103CE15DF0521F0E114F10409F081C0A9
:10377000809117018B7F8093170181FD73C0809129
:10378000AE039091AF03A801481B590B81E0209133
:103790001501309116014217530708F480E081703B
:1037A000F82E80911701F0FA81F980931701FE013C
:1037B00083E0F695E7958A95E1F7EE71FF27E659E4
:1037C000FC4F20813181AE014F70552781E090E0A0
:1037D00002C0880F991F4A95E2F7FF2009F444C000
:1037E000822B932B918380838091690381FF08C092
:1037F0008091170180618093170182E00E94610B24
:103800008091690385FF08C08091170180628093D1
:10381000170180E20E94610B6F2DCE010E948B1B6D
:10382000DD2031F08091A50385FF02C086FF3BC0FB
:103830008091A8039091A9030E94880D8091B00304
:103840009091B1039C013056211540E2340720F0DD
:10385000305E2115304108F499270E94E7170E9435
:10386000CD111DC081E09BCF80959095822393233D
:10387000B9CFC701992797013056211540E2340787
:1038800028F0305E2115304108F0C7010E94E7178B
:103890008091B0039091B1038E159F0501F31093B1
:1038A000AF030093AE03CDB7DEB7E7E00C94B936B3
:1038B000A5E0B0E0EEE5FCE10C94A236909366033F
:1038C00080936503811520E2920730F40E94731BF8
:1038D0002596E2E00C94BE3680EF89838A8381E0EE
:1038E0008B830E94DA058160782F9D838C834981C8
:1038F0005A816B818D810E94E329EACFA7E0B0E075
:10390000E4E8FCE10C9492367C01DC0113964D91C5
:103910005C91149711966C9111978C910E9490066E
:103920008111EEC061E0C7010E94800E8C01F70199
:1039300082818823E1F08091580490915904009786
:10394000B1F00817190799F0FEE08F9FC00111240C
:10395000FC01E158FD4F20812460208386589D4F53
:10396000DC010D931C930E94A51110929A04F7019B
:103970008281882311F40C946B25C80182519F45E4
:10398000409710F00C945D258FEF93E00E94FF3676
:103990008111A6C07EEED72ED00E0BE113E0D11020
:1039A00036C019821A821B821C8299249A9468015B
:1039B0002FEFC21AD20AC8010E94FF3689831A82E9
:1039C000882309F48DC0813009F07FC0580132E0AE
:1039D000A30EB11CC6010E94FF36C82E8A8388231D
:1039E00009F47EC0C5010E94FF36D82E8FEF8C0DE2
:1039F0008330D8F4580143E0A40EB11CDB82DD20F3
:103A000021F0CE0101960E946C1A8501D0CF0115DC
:103A1000F4E01F0709F464C0C8010E94FF36811159
:103A200001C0DA940F5F1F4FBACF8BEF8C0D83303C
:103A300030F5C8010396DB825C01DD2031F35801CB
:103A400054E0A50EB11C0E94FF368C838823E9F256
:103A50008B819C818130AFEF9A0710F0982F8827D7
:103A6000B6E0CB1631F0E7E0CE1631F00E948E2C96
:103A7000CCCF0E94581CC9CF0E94152CC6CFF4E0B1
:103A8000CF12C3CF580124E0A20EB11CC801039687
:103A90000E94FF36DD2021F1882311F18150990B1E
:103AA000989E9001999E300D11244D2D4150550B3B
:103AB000CA01820F931F019708F4A7CFAFE9BFE0B7
:103AC0001197F1F700C00000F6CFCE0101960E94D9
:103AD0006C1A56019ACF81E00E9457120E940D1273
:103AE00080910802877061F0D70112968C9188232B
:103AF00039F08091660482FF03C082E00E942612A2
:103B00002796E2E10C94AE3681E00E941912E6CFCE
:103B100082E0FBCF823011F00C94AD2580917402CD
:103B200090917502892B11F40C94AD252EE02C9DFB
:103B3000C0012D9D900D1124FC01E158FD4F208105
:103B40002E7F208386589D4F0E94A5110C94AD2591
:103B500081E080930001C4CF80910001882309F4A3
:103B6000D7C6480120EE821A910840902B0280911E
:103B70009B01482A80916903482A38E08316910402
:103B800008F086C098012770332781E090E001C0DB
:103B9000880F2A95EAF7552009F477C0482AD701FB
:103BA0008D919C910E94180C21E030E0F90102C037
:103BB000EE0FFF1F8A95E2F7FF83EE8320905304F8
:103BC0003090540460909801709099011D822D816D
:103BD000E22FF0E0EE0FFF1FE552FD4FC080D180D5
:103BE000C114D10409F4F8C6411005C0D6011296DB
:103BF0008C91811187C0F601838190E02E813F81F5
:103C000082239323892B09F47DC08085982F977098
:103C100009F487E038E08316910408F053C055207A
:103C200009F44CC086958170882309F46BC0D601D5
:103C3000AD90BC900A151B0519F4552009F462C01B
:103C4000C214D30409F45EC0D6011D96ED91FC9117
:103C5000309721F08081882309F454C0642DC60177
:103C60000E947006882309F44DC00A151B0509F04F
:103C700098C70115110509F499C7511099C7A614E1
:103C8000B70409F03FC0512C93C78095482287CFD5
:103C9000552009F48AC610939901009398010E9457
:103CA000CE0560934A0470934B0480934C04909328
:103CB0004D04109252041092510471CF82FB882758
:103CC00080F9B2CF5520F1F08170AECF0E94281755
:103CD0008DC70497813A910548F48A2D0E94BA0B4A
:103CE000552009F415C60E941911FACE0E94191127
:103CF0008FE39CE90197F1F700C000008A2D0E9434
:103D0000E318EECF9D819F5F9D8361CFFC012081F1
:103D100031810217130709F0F4C55110F4C5109250
:103D2000500480E00E948117F3C5902F812F38C680
:103D3000F901858181FF64C6C9010E948B1160C6AB
:103D40008091170181608093170188C680911701C7
:103D50008E7F809317010E94CD1180C6809117013C
:103D60008F7E013E110531F0053E1105C9F48091A9
:103D700017018F7D809317018091170180FF7DC609
:103D8000D70112968C910832110528F50E311105D4
:103D900008F072C00430110580F581116AC66DC645
:103DA000C8019056811540E2940720F0905E81157D
:103DB000904110F78091170182FF5FC68091A703A1
:103DC00081FD5BC628E432E040E0B60190E080E08F
:103DD0000E94A01B52C60933110558F40D3211057B
:103DE00018F40B321105C9F69091A50392FDD5CFB9
:103DF00008C004361105C1F3D0CF9091A50394FDFE
:103E0000CCCF882309F4A8C080912B02909169033C
:103E1000892B8D7FB1F11092B1031092B003809184
:103E2000A50381FD2EC0F80143E0F695E7954A957C
:103E3000E1F7EE71FF27E659FC4F98012F70332709
:103E400081E090E002C0880F991F2A95E2F78095E3
:103E5000909520813181822393239183808360E038
:103E6000C8010E948B1B80912B028D7F0E94460B04
:103E700082E00E94261234CE9091A50393FD8DCF4F
:103E8000C0CF88E0F701A8E4B2E001900D928A95D6
:103E9000E1F710924A0210924C0210924B0280916C
:103EA000B0039091B10308171907D1F52091A5032C
:103EB00025FF36C03091170131FF02C026FF30C008
:103EC0002091AE033091AF035601A21AB30AB70195
:103ED0000E94740FA816B90618F58091690381FF36
:103EE00008C08091170180618093170182E00E94D1
:103EF000610B8091690385FF08C080911701806282
:103F00008093170180E20E94610B60911701669512
:103F100061708091B0039091B1030E948B1BE0CD42
:103F200080912B0290916903982B2091170191FBAE
:103F300021F9209317018D7F0E94460B1093B10346
:103F40000093B003D092AF03C092AE0380911701EB
:103F50008460809317018CCF970140E0B601C801BF
:103F60000E94A01BBDCD053F4CE5140709F463C0BA
:103F700008F45BC0063F8CE5180709F462C0D7015E
:103F800012963C91332309F465C61092570403300E
:103F9000BDE51B0708F061C00A3FECE51E0730F4E1
:103FA000C80182509C45449708F062C00E94A70E49
:103FB000909366048093650402315CE5150709F46B
:103FC0007DC108F0CDC009309CE5190709F454C142
:103FD00008F097C00530BCE51B0709F441C108F0A3
:103FE0007EC00330FCE51F0709F432C108F034C17C
:103FF00080916504816002303CE5130709F4ADC08F
:1040000080916504909166040E94520F0E947F1275
:1040100067CD04E621EE45EE68ED7CE549C506E294
:1040200021EE40EE63EF7CE543C507E225EE44EE6A
:1040300064EF7CE53DC506E221EE42EE65EF7CE5EE
:1040400037C507E225EE46EE66EF7CE531C508E2AE
:1040500021E045EE69ED7CE52BC5053AFDE51F073E
:1040600009F4A4CFB0F501364DE5140709F49ECF4D
:1040700006315CE5150709F055C180916903982F59
:104080009A7A2091A40320FF04C0482F447409F0B9
:1040900090E021FF04C0482F417109F090E022FF19
:1040A00004C0482F487809F090E023FF03C08272D3
:1040B00009F090E0332309F42BC181E0911101C094
:1040C00080E080939A0189E2911185E30E94BA0B06
:1040D0000ACEC8018D5A9D45039750F667CF80914F
:1040E0006504806207304CE51407B9F180916504DE
:1040F000806108305CE5150780F18091650480647B
:104100002CC00D308CE5180709F4C0C090F48091E4
:1041100065048E7F0B30ACE51A07F9F080916504D9
:104120008C600C30BCE51B07C0F0809165048D7F6E
:1041300014C00F30ECE51E0709F4B8C008F4AAC09B
:1041400000312CE5120709F4B5C0809165048F7B1E
:1041500001313CE5130709F053CF8093650450CF3C
:104160000F3F4CE5140709F4B3C0A8F50A3F8CE5EE
:10417000180709F479C0C0F40431ACE51A0709F452
:10418000B5C008F4A1C00531ECE51E0709F038CF31
:104190008091650482FB992790F921E0922790FB9A
:1041A00082F990FB83F9D9CF0C3FFCE51F0709F496
:1041B00075C008F45DC00D3F3CE5130709F472C0FB
:1041C0008091660483600E3F4CE5140709F018CF18
:1041D0008093660415CF01365DE5150709F491C09B
:1041E00090F401309DE5190709F489C008F474C002
:1041F00060E00230BDE51B0709F002CF8EE090E0E1
:104200000E940D37FDCE0D3AEDE51E07E9F060F492
:1042100090916504892F8E7F90FF8160053A2DE58E
:10422000120709F49ACFECCE0E3A3DE5130751F18F
:104230000F3A4DE5140709F0E3CE90916604892FFB
:10424000877F93FF8860C4CF809166048860C0CF69
:1042500080916504826081CF8091650484607DCF08
:1042600080916504886079CF809166048160B0CFC9
:10427000809166048260ACCF0E947F1280916504B9
:1042800080686BCF80916604877FA2CF80916504A0
:104290008B7F63CF80916504877F5FCF80916604B9
:1042A0008E7F96CF809166048D7F92CF809165043A
:1042B0008F7E53CF809165048F7D4FCF0E947F12F8
:1042C000809165048F7749CF80916504837F45CFC6
:1042D000809166048C7F7CCF80916604982F9095A6
:1042E00091708E7F892B90FB81F972CF0E947F1293
:1042F00090916504892F97FB87F980582ECF61E054
:104300007DCF90916504892F8F7E94FF806125CFAA
:1043100080919A01811104C089E20E948F0BE3CC45
:1043200085E3FBCF0A355DE5150709F46BC008F09E
:1043300044C001159CE5190709F44AC00E3D1C450F
:1043400009F453C0F70186819781009709F45EC094
:104350000E94AD09182F092FF701D280C580C294A1
:104360003FE0C322809108028770C1F0AD2CDD20B0
:10437000B1F0892F807F803421F080E2810F883076
:1043800068F08091660482FF09C082E00E942612D4
:10439000809108028770AA24A3948111A12C902EE9
:1043A00092942FE09222FBE0F91508F4BCC0E92DAD
:1043B000F0E0EC56F84C0C9485360C35BDE51B0747
:1043C000B9F010F1073A1D4509F0BCCF0E94F31671
:1043D0000E947F122FEF34E34CE0215030404040E8
:1043E000E1F700C000000E94640D0E94FF17EECFAD
:1043F0008091660482FB882780F991E089270E94DA
:104400004212A0CF81E0FBCF80E0F9CF8281008112
:104410001181882369F0C8010E94040ED82E682FEC
:10442000C8010E944C0CB8018D2D0E94E70D90CF61
:10443000C8010E94180CD82EF6CF202F2F70B22E54
:10444000802F807F19F0B29490EFB922DD20A9F07F
:10445000BB2059F080E2810F883010F0111107C0A5
:104460008B2D0E94680B0E941911812F5AC08091D8
:104470009A04B82AB0929A04F6CF812F0E94281786
:10448000BB2009F450C080E2810F883010F0111178
:1044900004C08B2D0E94610B03C08B2D0E945A0B10
:1044A0000E94191140C0302F3F70B32E802F807FA3
:1044B000803219F0B29480EFB822112321F111302B
:1044C00009F4AEC0DD2009F4B7C0CC2009F47FC0E8
:1044D00020E0D7014C9111965C91119712966C9146
:1044E000129713967C91139714968C910E945D0EEF
:1044F0008091A70381FDB9CFF701858180FFB5CFFA
:104500008F70858364C08091660482FD40C0DD2089
:10451000C1F1BB2029F08B2D0E94680B0E9419115C
:1045200080E00E94E318A92DA850BB0B149710F44B
:104530000E941206812F902F0E94830C8111C2C10C
:1045400010929D0110929C01AA20B1F08091080266
:1045500080FD12C0D70112961C9285958595859590
:104560000E945712C7010E947E1C80910802859507
:10457000859585950E94191260E0C7010E94800E02
:10458000BFCA80E00E942817BB2069F282CFDD20DD
:1045900011F1C11004C080912B028B2919C041E098
:1045A000C41206C080912B028B290E94460BBBCF00
:1045B0008091A603823078F3C812EDCF0E943B0BA6
:1045C00090919B018B2D892B891380939B018B2DBF
:1045D0000E942117A8CFC11003C00E943B0B17C037
:1045E0008091A60351E0C51216C0823008F49BCF1B
:1045F000809169038B2109F496CF0E943B0B909127
:104600009B018B2D80958923891380939B018B2D92
:104610000E941A1788CF823000F3C812DECF83CFF2
:104620008091AC03DD2021F08C1508F47CCFCFCF36
:10463000C81608F078CFEBCFCC2049F38091AA03BD
:104640009091AB03193321F08091A8039091A903B5
:104650000E94880D812F0E94281765CF802F869594
:104660008695837069F0813009F05DCF812F902F9E
:104670009370D11002C090E080E00E94E60553CF15
:10468000812F902F9370D11002C090E080E00E94A3
:10469000FC0549CF812FDD2029F00E94E9080E9406
:1046A000A70741CF0E94CE07FACF802F837091F5E4
:1046B000D11039CF412F429546954770440F440F92
:1046C000812F8F70042E01C0880F0A94EAF7212FE2
:1046D000207114FF07C02FE030E001C0220F4A957F
:1046E000EAF72095302F369536953370323069F0E1
:1046F00050F440912C02313029F0822B84230E9407
:104700007A1211CF842B822BFACF282B80912C0286
:104710008227F5CF8695DD2011F0802F81708823C8
:1047200009F401CF412F429546954770440F440F3D
:10473000812F8F70042E01C0880F0A94EAF7212F71
:10474000207114FF07C02FE030E001C0220F4A950E
:10475000EAF72095302F369536953370323069F070
:1047600050F440919904313029F0822B84230E9427
:104770000812D9CE842B822BFACF282B8091990452
:104780008227F5CFF02FFF70BF2EDD2029F08F2F6D
:104790000E945712812F1CCF812F0E941A178B2D38
:1047A0000E941912C0CE123F89F160F4103FB9F097
:1047B000113F81F0DD2009F480C0C11056CE802F5A
:1047C0008F7128C0133F49F1143FA1F7809166040F
:1047D00082FD2FC0802F8F71DD2011F31BC08091CF
:1047E000AC03DD2079F0C81608F09DCE202F2F7184
:1047F00081E090E001C0880F2A95EAF79091990432
:104800008927B5CF8C1508F48ECEF0CF802F8F710D
:10481000D110C6CF0E94571286CE80E0DD2009F469
:10482000A6CF81E0902F9F7101C0880F9A95EAF77B
:104830009ECF8091A603823040F1DD20D1F090918F
:1048400008029770943041F40E946E0B802F8F7194
:104850000E941912A12C67CEC816E0F7202F2F71E5
:10486000B22E822F0E94571263E08B2D0E9463129A
:10487000F1CFC81630F00E946E0B64E0802F8F716C
:10488000F5CF81E00E942612E5CFDD2059F0302FD0
:104890003F71B32E832F0E94571263E08B2D0E942D
:1048A000631241CE81E00E94261241E04C1508F0CF
:1048B0003ACE82E00E94261236CEC110BFCE802FA3
:1048C0008F716ECFDD2019F0C1103ACE3DCEC110F0
:1048D00037CE20E0F701408151816281738184816C
:1048E0000E945D0E8091A70383FF2ACE80919C01D8
:1048F00090919D01029709F023CE812F0E944A1AC0
:104900001FCE552029F0DC0118968C9185FF09CA2D
:10491000C80197558F3F910511F008F071C05801FB
:10492000BB24BEE00B9FF00111249F0126583D4F90
:104930006901D70112968C91E158FD4F908180FB5F
:1049400090F99083882309F4F3C90E94DA059093C3
:10495000470280934602F60182818F5F82838091B5
:104960009A0490916903892B838380912B0284831D
:104970000680F781E02D309731F0D6011C966D91BD
:104980007C91C60109958EE08A9DF0018B9DF00D0A
:104990001124E658FD4F858181FFC7C990E080E072
:1049A00090935804809359042BC080919801909162
:1049B00099010817190781F4109299011092980132
:1049C00010924A0410924B0410924C0410924D0421
:1049D0001092520410925104809153049091540407
:1049E000009709F495CFA8E08A16910408F08EC9C3
:1049F000642D0E947006811103C081E00E9481171E
:104A00008091A50380FF39C00E94DA056C01D701AF
:104A100012968C91882309F4A1C98091170182FF15
:104A200008C028E432E040E0B60190E080E00E9457
:104A3000A01B0B31BCE51B0709F482C90C31ECE566
:104A40001E0709F483C990911701892F8E7F90FF6B
:104A500081600A31FCE51F0709F47BC9C801905643
:104A6000811520E2920728F0905E8115904108F0B0
:104A700083C91092B1031092B003033FBCE51B073A
:104A800009F4CDCA08F06FCA083DFCE51F0709F418
:104A9000C0CA093D2CE5120709F4D9CA073D3CE517
:104AA000130709F06CCA06E221EE41EE67ED7CE5E2
:104AB000C7010E940D1B0C94701D0031FFE51F07FC
:104AC00011F40C946B1D01312FE5120709F045C05C
:104AD00082E00C946C1D00313FE5130711F40C9437
:104AE000841D01314FE5140711F40C94881D6801F1
:104AF000E7E5DE1AFFEFCF16D10409F070F560E7A5
:104B000072E08C2D0E94600F892B39F58EE08C9D10
:104B1000F0018D9DF00D1124E658FD4F828181300A
:104B200011F00C948A1D8091700290917102892B72
:104B3000A1F08091720290917302892B71F08091A3
:104B40007402909175022091760230917702822B47
:104B5000932B892B11F40C94961DD70112965C901F
:104B6000552011F40C94AC1D0F35BDE51B0711F455
:104B70000C94A81D0036EDE51E0761F00E35FDE52D
:104B80001F0711F00C94AC1D80910001882311F4D3
:104B90000C94A81D1092000180E00E9481170C94D3
:104BA000701DA114B10409F06AC8512CB12CA12CBC
:104BB00080E00E948117D0925404C092530481E097
:104BC00080935004F601858180934E0451100EC0ED
:104BD000AB2861F0F601808191819C01245031095C
:104BE000213A310508F072C80E948F0BD601169643
:104BF000AD90BC90C5019A9581159F4110F4E0EEEF
:104C0000BE2277247394C5010197803B9D4508F02F
:104C1000712CD6011996ED91FC911A97309731F0CD
:104C20001B966D917C9181E009957822772079F02F
:104C3000F601868197810E949E0C80934F04C501E6
:104C4000F8E08F16910408F044C80E941F060E94E5
:104C5000191146C806318CE5180709F073CB0DCA47
:104C6000B0E0A0E0E6E3F6E20C949C368091C1014E
:104C7000807F31F48091BE01C0910502811107C08F
:104C8000CDB7DEB7E8E00C94B8362196C7708091B6
:104C9000C4018C17A9F3F090BC01E090BD01C09055
:104CA000BF01D090C001A6016E2D8F2D0E949006ED
:104CB000D0E08111EACF8E0183E0000F111F8A95A9
:104CC000E1F7F801EB53FE4F81818E11DECF808139
:104CD0008F11DBCF82818111D8CFE380F480EC1873
:104CE000FD0860E08CEB91E00E94800E6CEB71E0BF
:104CF0000E94740FE816F90640F68091C1018F708A
:104D000080618093C101F801E653FE4F80818F706E
:104D1000806180838CEB91E00E947E1C0E940E0CCF
:104D2000AFCFA5E1B0E0E7E9F6E20C9495368C014F
:104D300085E0F801DE01519601900D928A95E1F728
:104D4000D8015C9011966C9011971296EC90129786
:104D50001396CD90DC9060E08CEB91E00E94800E89
:104D60008CEBA82E81E0B82E8090BF019090C001FE
:104D7000A4016091BD018091BC010E949006811147
:104D8000A8C1F090BE01F601E819F9094F0160E0F1
:104D9000FF2009F44BC1C5010E94800EB5010E949D
:104DA000740F7090C1018816990608F0F2C0409106
:104DB000BF015091C001B090BC01A090BD01872DF2
:104DC000807F6A2D09F08CC08B2D0E949006FE2CEE
:104DD000811127C0D80111968C9111978A1121C099
:104DE0008C918B111EC02091C2013091C301169687
:104DF0008D919C9128173907A1F4E11012C0872DDD
:104E00008F7080618093C1018CEB91E00E947E1CC9
:104E10008091C101F80185838F2D6596EFE00C9498
:104E2000B136A601662D852D0E949006D82E81E010
:104E30008E25D11080E080FF18C04E2D662D852D67
:104E40000E94EE0B882389F08091A70380FF0DC09C
:104E50008CEB91E00E947E1C88E0ECEBF1E0DF013E
:104E60001D928A95E9F7F12CD7CF81E08E25D110DC
:104E700080E0B82FB170CB2E80FF29C04E2D662D5B
:104E8000852D0E94EE0BD82E811121C0598A6A8A85
:104E900089899A890E94330E292F22952F702230FA
:104EA00050F0243078F49F7051F0F8019581907F94
:104EB00031F4FD2CB1CF9F7011F08823D1F3805EC7
:104EC0008830B8F3C8010E947E1CDC2CF2CFEE20A3
:104ED00009F4A2CF8091C10181608093C101C3CF49
:104EE0008B2D0E949006811124C0D80111968C91BF
:104EF00011978A111EC08C918B111BC02091C20189
:104F00003091C30116968D919C91179728173907F8
:104F100081F4E1100EC015967C92C8010E947E1C9F
:104F200088E0F801ACEBB1E001900D928A95E1F7D1
:104F300073CFC8010E94400E882339F1EE2029F179
:104F40008091C1018032A0F02091BC013091BD015F
:104F50003A8729871B86DD86CC868E878091C201A1
:104F60009091C301988B8F87CE0109960E947E1C79
:104F700088E0F801ACEBB1E001900D928A95E1F781
:104F80000E943026FF24F39447CFC8010E947E1C64
:104F9000F9CF872D807F09F45BCF9090BC01809082
:104FA000BD014091BF015091C001682D892D0E9423
:104FB000900681111CC0F8018181881118C0808180
:104FC000891115C02091C2013091C301868197815A
:104FD0002817390761F4E1100AC07582C8010E94E0
:104FE0007E1C88E0D5011D928A95E9F715CFC8018E
:104FF0000E94400E882349F2EE2039F28091C101CF
:10500000803208F4B5CF2091BC013091BD013A83C4
:1050100029831B82DD82CC828E838091C201909194
:10502000C30198878F83CE010196A0CF8CEB91E0CE
:105030000E94800E6CEB71E00E94740F8816990636
:1050400080F6FE2CEE2009F4A0CFE090BC01D090B9
:10505000BD014091BF015091C0016D2D8E2D0E9468
:105060009006811128C0F80181818D1124C08081B2
:105070008E1121C02091C2013091C3018681978198
:1050800028173907C1F48091A70382FD49CF909179
:10509000C10190FD45CF907F09F442CF8091C101BD
:1050A0008583903F09F439CF982F907F905F8F7060
:1050B000892B858332CFC8010E94400E811158CFC1
:1050C0008091C10181608093C101C8010E947E1C52
:1050D000A3CEEE2009F459CFC8010E94400EF82E4D
:1050E000882309F452CF88E0F801ACEBB1E00190DD
:1050F0000D928A95E1F78091BC019091BD010E94CB
:10510000330E0E94302688CEA0E1B0E0EAE8F8E253
:105110000C94A23629873A874B875C876D877E87F8
:105120008F87988BCE0109960E94912681112FC0FE
:1051300088E0FE013996DE01119601900D928A9564
:10514000E1F74C855D856A8589850E94900681110D
:105150001EC0A091C401B0E0CD01019687709927CF
:105160002091050228171906E1F093E0AA0FBB1F52
:105170009A95E1F7AB53BE4F98E0FE01319601904E
:105180000D929A95E1F78093C4010E940E0C8091D4
:1051900005029091C401891312C06096E2E00C945C
:1051A000BE360E947F121092C4011092050288E060
:1051B000ECEBF1E0DF011D928A95E9F7E8CFB8E06A
:1051C0008B9FC00111248B539E4F0E9491268823F0
:1051D00021F38091050290E00196877099278093D2
:1051E0000502D5CFEF92FF920F931F93CF93DF93DA
:1051F0008091B503882361F0C091B4038CE0F82E50
:105200008091B503C81748F01092B5031092B4030B
:10521000CDB7DEB7E6E00C94BA36EE24E394EC0E9C
:10522000E092B4030C2F10E0CF9DE0011124CA548A
:10523000DC4F4B815C81698188810E9490068111DD
:105240001DC08E819F81892B21F4888599850196C7
:1052500051F4288139814A815B816C817D818E8105
:105260009F810E948428F09EF001F19EF00D112490
:10527000EA54FC4F1482138210929A04CE2DC0CFB0
:1052800010923D0410923C041092180180913B044E
:1052900080933A040E94C9060E94F2280895B0E063
:1052A000A0E0E5E5F9E20C949336C0913A0497E06A
:1052B000892E01E010E02CE0322E3EEF932E4424A4
:1052C000439480913B048C1309C00E94F2280E94F1
:1052D000C906CDB7DEB7E1E10C94AF36D0E0FE01F0
:1052E000EE0FFF1FEE5CFB4F80819181889ED00105
:1052F000899EB00D1124AA5EBB4F14962C91149771
:10530000211158C05090B503E6EBF3E030E020E007
:10531000712C5D01251508F04BC0E284F384D501A2
:10532000CD90DC906FEF7FEF612C462D50E0DA01DD
:10533000AA0FBB1FAC0DBD1D0D90BC91A02D1097E9
:1053400031F0EA16FB0609F4BA016394EECF6F3F21
:105350007607A9F1D80102C0AA0FBB1F6A95E2F730
:105360007A2AB801062C02C0660F771F0A94E2F76A
:10537000AB014150510974161506F9F4329EF00143
:10538000339EF00D1124EA54FC4F889ED001899E73
:10539000B00D1124AA5EBB4F12962D913C9113972C
:1053A00037832683908291829187808715964C92CD
:1053B0000E949B062196C37084CF148213822F5FB4
:1053C0003F4F3C96A7CFA9E1B0E0E9EEF9E20C949B
:1053D0009236942F498B252F5A8B6B8B7C8B8D8B20
:1053E0004C895D89622F892F0E949006811109C026
:1053F00080919C0190919D01019690939D018093D5
:105400009C018B89811110929A041D861E861F862D
:10541000188A85E0FE017196DE01199601900D92C1
:105420008A95E1F78091660482FF1EC080918C030B
:1054300090918D03892BC1F00E94DA05209106021C
:1054400030910702821B930B20918C0330918D03C6
:105450008217930720F08091080282FFE2C10E9428
:10546000750B81110E943B0B4C855D856A85898592
:105470000E949006811111C061E0CE0109960E9440
:10548000800E6C018B8527EFC2162CE5D20681F4C5
:10549000882321F181E08093180129853A854B8585
:1054A0005C856D857E858F8598890E948428C6C01D
:1054B00038EFC3163CE5D30629F4882379F00E941F
:1054C0004029EBCF49EFC4164CE5D40639F48823C4
:1054D00029F0809118018111F2CFDCCF06E114E0B0
:1054E000512CB12CA12C22242394312C2EEF422EAE
:1054F000F8014081518188248A94982C20E0822FE1
:1055000090E0FC01EE0FFF1FE40FF51F6081718139
:105510006115710531F0C616D70609F44C012F5FED
:10552000EECFF12CFFEF8F169F0609F449C0F8016A
:105530004481F09018018F2D411180E0F82FF17017
:10554000FF2EF801E58086819B85992309F4F8C038
:10555000FF2009F4F5C06090A0037090A103E11052
:1055600013C0A101082C01C0440F0A94EAF7842B50
:1055700086838091B2039091B3038615970520F43A
:105580007092B3036092B203C10102C0880F991FE9
:105590002A95E2F70197F80126812817190681F468
:1055A00080913C0490913D04009709F44BC00E9407
:1055B000BF056816790608F045C021E0F80124838C
:1055C0005F28FFEFAF1ABF0A095F1F4F24E0A21642
:1055D000B10409F08DCF8B85882309F40DC15520C6
:1055E00009F40AC10E94DA0590933D0480933C04BB
:1055F0008091B503883010F591E0980F9093B50332
:1056000098E0FE013996DE01119601900D929A956F
:10561000E1F73CE0839FC00111248A549C4F28E0AD
:10562000FE013196DC0101900D922A95E1F72FEFF2
:105630003FEFFC0131872087D386C2866996E2E17D
:105640000C94AE3680913A0450913B04982FF0E0D0
:10565000E0E0851314C090933A04E017F10709F4D1
:10566000AFCF90E0FC01EE0FFF1FEE5CFB4FB1826D
:10567000A08201968370992780933B04A1CF682E66
:10568000712CF301EE0FFF1FEE5CFB4F2081318187
:1056900047E0429FD001439FB00D1124AA5EBB4F4B
:1056A0006D917C911197798F688F40E020E030E018
:1056B000E32FF0E0EE0FFF1F688D798DE60FF71FE7
:1056C0008080918081149104E1F0F8010190F081D3
:1056D000E02DFF8BEE8B20E005C08616970609F4BF
:1056E0004F2D2F5FE22FF0E0EE0FFF1F6E897F89B5
:1056F000E60FF71F608171816115710571F73F5FDA
:10570000D7CF4423D1F0F801231708F0FD0121E0A1
:1057100024830E171F0721F490933A04F42E50CFE0
:10572000981305C0AE17BF0711F49F5F93709301E4
:105730002F5F3F4F822F83708CCFF0E0E0E0F7CFF8
:1057400090E0E11020C0B10102C0660F771F2A95DA
:10575000E2F79B01215031098217930731F444236A
:1057600009F448C0C5010E949B06C101082C01C074
:10577000880F0A94EAF7982F9095F801868189237B
:105780008683FE2C1DCF9C01082C02C035952795E1
:105790000A94E2F7A90141705527BC0161507109D3
:1057A00086239723892B11F5452B01F1F80182817E
:1057B0009381892BC1F01B821C821D821E8249822B
:1057C0004A820E94DA058160582F9D838C83F801FC
:1057D000828193818F83988729813A814B816D8162
:1057E0007E810E948428F8011582BFCFF22FF170CC
:1057F000EF2EBBCFEF2CB9CF90913A0480913B04B0
:10580000981731F00E944F29552009F446CE16CF43
:105810000E94F22810923D0410923C040E94C90696
:10582000F3CF82E00E9426121ACEA5E0B0E0EBE1B1
:10583000FCE20C94A2369093660380936503811575
:1058400020E2920730F40E94E7172596E2E00C94DC
:10585000BE3680EF89838A831B820E94DA058160CD
:10586000782F9D838C8349815A816B818D810E9421
:10587000E329EBCF0F931F93CF93DF938C01EB01C1
:1058800060E772E08C2F0E94600F892BA1F4809159
:10589000A8039091A9030E94880DDD27C459DD4F0C
:1058A0008881F801128218828330F1F048F4813047
:1058B00059F0823081F0DF91CF911F910F910895BF
:1058C0008430B9F08530B9F78091700290917102FF
:1058D000009789F306C0809172029091730200973D
:1058E00099F30E94152CE7CF809174029091750274
:1058F000F6CF8091760290917702009791F72091F0
:1059000070023091710280917202909173022115A0
:105910003105F1F2009729F7C901E3CFCF93DF9367
:10592000EC010E94581C8091A8039091A9030E9449
:10593000880DCE010E94152CDF91CF9108950F9311
:105940001F93CF93DF938C01862F60E772E00E9454
:10595000600F892BB1F4C0917002D0917102209731
:1059600081F0F8018281833051F4CE010E948E2CA7
:10597000CE010E948E2CCE010E948E2C02C084305B
:10598000D0F7DF91CF911F910F9108950F931F933F
:10599000CF93DF938C01EB0160E772E08C2F0E94C4
:1059A000600F892B09F05CC0FE01FF27D801129619
:1059B0008C911297E459FD4F8130B9F415969C9162
:1059C00092FF02C080830AC090FFFCCF82E08083F8
:1059D00080917202909173020097B9F480917002E5
:1059E000909171020097E1F110C08230B9F51596DF
:1059F0008C9182FD28C080FD0BC083E08083809164
:105A0000740290917502009701F10E94581C28C001
:105A100084E0808380917602909177020097A9F7C5
:105A200080917002909171020097F9F00E948E2C83
:105A30008091720290917302009739F78091700201
:105A400090917102E2CF85E0808380917002909105
:105A50007102009729F00E948E2CF0CF86E080839F
:105A6000DF91CF911F910F910895809172029091D3
:105A70007302B8CF1F920F920FB60F9211242F937B
:105A80003F934F935F936F937F938F939F93AF93C6
:105A9000BF93CF93DF93EF93FF93D091E900DF7033
:105AA0008091EC00C82FC17080FDC0E81092E90021
:105AB0008091F000877F8093F00078940E94951287
:105AC0001092E9008091F00088608093F000CD2B67
:105AD000CF70C093E900FF91EF91DF91CF91BF911B
