:100000000C949D030C94D5030C94D5030C94D50348
:100010000C94D5030C94D5030C94D5030C94D50300
:100020000C94D5030C94D5030C94D5030C94A52300
:100030000C9461230C9474240C94D5030C94D50374
:100040000C94D5030C94D5030C94D5030C94502434
:100050000C94D5030C94D5030C94D5030C94D503C0
:100060000C94D5030C94D5030C94D5030C94D503B0
:100070000C94D50305010902A10185020901A10023
:10008000050919012905150025019505750181024C
:100090009501750381010501093009311581257F1D
:1000A00095027508810609381581257F9501750827
:1000B0008106050C0A38021581257F950175088196
:1000C00006C0C005010980A101850319012AB700F6
:1000D000150126B700950175108100C0050C0901B6
:1000E000A101850419012AA002150126A00295018B
:1000F00075108100C005010906A1018506050719D3
:10010000E029E71500250195087501810205071909
:100110000029EF1500250195F075018102050819E8
:10012000012905950575019102950175039101C09D
:100130000660FF0961A1010962150026FF009520F4
:10014000750881020963150026FF00952075089146
:1001500002C005010906A101050719E029E71500FC
:100160002501950875018102950175088101050732
:10017000190029FF150026FF009506750881000566
:1001800008190129059505750191029501750391DD
:1001900001C000000000000000000000000000009E
:1001A000000000000000000000000000000000004F
:1001B0000000000000007E0F00D4FFFFFFC700001A
:1001C000007800000000000000002A2B280000003A
:1001D00000000000000000000000000000290000F6
:1001E00000002C1E3420212224342627252E362DD3
:1001F0003738271E1F202122232425263333362E6D
:1002000037381F0405060708090A0B0C0D0E0F10DE
:100210001112131415161718191A1B1C1D2F313023
:10022000232D350405060708090A0B0C0D0E0F10C7
:100230001112131415161718191A1B1C1D2F313003
:10024000354CFD377A585A000004E6D6B446020011
:10025000210116000000742FE5A3E004FB01AA5D54
:10026000003D8889C65436C3174FE4DCC8E5C64252
:10027000ED66689BD16CFDBE6C9158B572BF9F73E3
:10028000A24A7D3AC6B004FC8D46E9B1DE3853B8C7
:10029000921F9879C46A0E1108A588B1459224422C
:1002A000C04B6C4E45B30594991CF77548DE4DFD67
:1002B000A63C0A57D7AB0B97B98583A2D98F2FCA13
:1002C0007E4EABA6B9A72B6B36042E6DC1443DF50F
:1002D00041021DEC216B123A6220B9B5C58A29AAE8
:1002E0001044148632C937E44B6042B0DD536D527E
:1002F000A866E366C0FC7B3080B08D8B610BF05D3F
:100300007372E8235AA9EE1A9D30287F5494718F96
:100310002466755883595AAF0DC6652E914CB7ACFB
:10032000266D3FE944A5538E21D8EDA5C8EC612385
:1003300059C8DACB22DF8EAF917A3B402F3FBE7097
:10034000B6CAAD63A15CC8CDB570BCEAFE9CA9611C
:100350008434D4F7674DA9A2ED9FBC440F56CA5D03
:1003600038A385CD27A5E10DAF8C8535E33E9ADE18
:10037000C064F88E2016C9DA1578D38EE8C2F93F2A
:100380008C17AA79C7B0330DD38902C0FD30411351
:10039000C0C019B3C2C39ABEE3CCFE1A89387BC36E
:1003A0001409197F8B3238A1799C8C999B8B34303E
:1003B000D0C99BE880628F41EDC72A3452AEB38C1E
:1003C0007A18274AEE7E875B37499A8B7F5E2E8E9E
:1003D0000BAD244898C8992DFC88377762431D914E
:1003E000B7F4430EC7ED7CD0C98A804AA12E89415B
:1003F000B540D4038D5859B86EC102990B7645D5D6
:1004000083CC305F813B3EC04AED0000000025C038
:100410007BC7A9A4CDA80001C603FC09000034C114
:100420002580B1C467FB020000000004595A29006E
:100430001E001F00200021002200230024002500B0
:10044000260027002D002E0035002A002B61140005
:100450001A000800150017001C0018000C001200FC
:1004600013002F0030000000320039000400160095
:10047000070009000A000B000D000E000F003300FA
:100480003400000028000000E10000001D001B00F7
:100490000600190005001100100036003700380072
:1004A0000000D85C0151E000E300E2000000000021
:1004B000000000002C00000000000000E60000002A
:1004C0006500E400005C3A003B003C003D003E005B
:1004D0003F00400041004200430044004500350019
:1004E0002A000100C25C01000100010001000100BE
:1004F00001004900460001005200010000004C00CC
:100500000100AA00A900A8000100010001000100EB
:100510004A004B0050004F000000010000000100A5
:1005200000000100010001000100010001000100C4
:100530004D004E00510000000100010001000100CB
:1005400001000000000000000000010000000000A9
:100550000000010000000100010001000100010095
:100560000100010001000100010001000100010083
:100570000100010001000100010001000100010073
:100580000100010001000100010001000100010063
:100590000100000001000100010001000100010054
:1005A0000100010001000100010001000100000044
:1005B0000100000001000000010001000100010035
:1005C0000100010001000100010001000000010024
:1005D0000100010001000100000000000000000017
:1005E0000100000000000000010000000100010007
:1005F00001000100010001000100010001000100F3
:1006000001000100010001000100010001000100E2
:1006100001000100010001000100010001000100D2
:1006200001000100010001000000010001000100C3
:1006300001000100010001000100010001000100B2
:1006400001000100000001000000010000000100A5
:100650000100010001000100010001000100010092
:100660000100000001000100010001000100000084
:100670000000000000000100000000000000010078
:1006800000000100010009025B00030100A0FA095B
:1006900004000001030101000921110100012240B1
:1006A000000705810308000109040100020300009E
:1006B0000009211101000122220007058203200008
:1006C00001070503032000010904020001030000E3
:1006D0000009211101000122BC000705840320004C
:1006E0000112010002000000081CC4010001000109
:1006F0000203011C037600690061006C003A006689
:1007000000360034006300320062003300630000F2
:10071000000A034300690065006C000000160343F3
:10072000006800690063006B0065006E004D0061A9
:10073000006E000000040309040011241FBECFEF67
:10074000D4E0DEBFCDBF04B603FE18C08091BA036B
:100750009091BB03A091BC03B091BD038730904B37
:10076000A740B04B59F41092BA031092BB031092F9
:10077000BC031092BD03E0E0F8E3099523E0ACE68A
:10078000B1E001C01D92AA3BB207E1F711E0A0E081
:10079000B1E0E6E1F9E502C005900D92AC36B10793
:1007A000D9F70E949B240C94652C0C940000209196
:1007B000E4003091E50095E6A9012091EC00822F3C
:1007C000817020FF06C08091E80080FF06C080E0B5
:1007D00008952091E80022FD1AC08091B503882376
:1007E00089F0853089F08091EB0085FD0FC0209164
:1007F000E4003091E50042175307F9F29150E1F619
:1008000084E0089582E0089583E0089581E00895EA
:10081000EF92FF920F931F93CF937C018B010E9465
:10082000D703C82F811117C08091E80085FD0BC048
:100830008091E8008E778093E8000E94D703882398
:1008400099F3C82F08C0F70181917F018093F100CF
:100850000150110949F78C2FCF911F910F91FF90F3
:10086000EF900895CF93FC018091B503843001F59A
:10087000C091E900CF702091EC00922F917020FD83
:1008800090E8C92B82E08093E9008091E80080FF26
:100890000CC050E040E060E270E0CF010E9408042C
:1008A0008091E8008E778093E800CF70C093E900D4
:1008B000CF9108958091AD0387FF13C08091E80028
:1008C00082FF06C08091E8008B778093E80004C027
:1008D0008091B5038111F2CF08958091B5038823EB
:1008E000D9F38091E80080FFF8CF8091E8008E77FF
:1008F000ECCF982F9093E900242F762F50E08917A2
:1009000031F07091EC002091ED005091F00021FD4C
:1009100007C09F5F953071F78093E90081E00895EB
:100920003091EB003E7F3093EB003091ED003D7F46
:100930003093ED003091EB0031603093EB00709319
:10094000EC002093ED005093F0002091EE0027FD85
:10095000E0CF80E00895FC018091B3039091B4034F
:1009600086179707A0F06115710529F49091E800AA
:100970009E779093E80090E06115710551F4911114
:1009800008C08091E80082FF32C080E00895BC0179
:10099000F2CF8091B5038823B1F18530B1F1809118
:1009A000E80083FD2EC08091E80082FDEACF8091AF
:1009B000E80080FFE1CF2091F20030E06115710581
:1009C00019F02830310558F091E02830310509F050
:1009D00090E02091E8002E772093E800CDCF819120
:1009E0008093F100615071092F5F3F4FE7CF8091F5
:1009F000B503882341F0853041F08091E80083FF02
:100A0000C0CF81E0089582E0089583E008950895BD
:100A10008091890308959C014FB7F89480917F03DA
:100A200090918003A0918103B09182034FBF821BFC
:100A3000930B08952FB7F89480917F0390918003D2
:100A4000A0918103B09182032FBF089520917C0370
:100A500030917D032817390771F090937D038093BF
:100A60007C03E0917A03F0917B03309721F00084BE
:100A7000F185E02D09940895209178033091790350
:100A80002817390771F09093790380937803E091E8
:100A90007A03F0917B03309721F00680F781E02DF7
:100AA00009940895E0917A03F0917B03309721F047
:100AB0000190F081E02D099480E00895A091180341
:100AC000509119034A2F541301C00895242F30E088
:100AD000F901EE0FFF1FE05FFC4F60817181681725
:100AE000790791F467E070E00E94A82B8C509D4F2D
:100AF00051E0FC0154834A13E8CF2F5F3F4F23702E
:100B000033272093180308952F5F3F4F422F4370E0
:100B1000DACF1092910210929002E4EFF2E0858118
:100B2000811102C014821682379683E0E031F80703
:100B3000B1F7089581152CE5920741F420918A02BE
:100B400030918B02232B11F490E080E008950E94F5
:100B50001A059C019091500280915102982B21F02E
:100B600030934D0220934C02909152028091530297
:100B7000982B21F030934B0220934A02E0917A03A4
:100B8000F0917B03309749F082E080934E0204801D
:100B9000F581E02D8EE492E0099408959091500241
:100BA000803F59F48091510287FF0DC0109251028D
:100BB00091110BC01092480208C0813F81F48091CE
:100BC000510218169CF3992381F080915202909162
:100BD0005302892B09F064C0109247020895823FA6
:100BE00049F497FFF0CF1092500280915102811189
:100BF000ECCFE0CF833F19F41916ACF3E4CF20918A
:100C00005202893F29F41216F4F610925202DBCFF9
:100C10008A3F19F427FFD7CFF8CF209153028B3F9B
:100C200029F427FFD0CF10925302CDCF8C3F19F477
:100C30001216CCF3C8CF843F31F480914F028E7FDF
:100C400080934F02C0CF853F21F480914F028D7F6A
:100C5000F7CF863F21F480914F028B7FF1CF873F02
:100C600021F480914F02877FEBCF883F21F4809160
:100C70004F028F7EE5CF8D3F31F4809149028E7F08
:100C800080934902A0CF8E3F21F4809149028D7F4D
:100C9000F7CF8F3F09F097CF809149028B7FF0CF3C
:100CA00008958091490280FD18C081FD18C082FD21
:100CB00018C0809147028823B1F0883290F490E008
:100CC00023E0880F991F2A95E1F768E270E00E94FF
:100CD000B92B862F672B39F0089582E0089584E0C0
:100CE000089588E0089581E008958091490280FD8B
:100CF00015C081FD15C082FD17C080914802882370
:100D000089F08E3188F490E060E570E00E94A82BB5
:100D10006EE170E00E94B92B862F089584E108955A
:100D200088E2089588E0089580E50895803F31F4D1
:100D30000E9475068195809351020895813F19F4B0
:100D40000E947506F8CF823F31F40E9475068195A6
:100D5000809350020895833F19F40E947506F8CFDE
:100D6000893F29F40E9451068093520208958A3FD8
:100D700021F40E9451068195F7CF8B3F31F40E94F8
:100D8000510681958093530208958C3F19F40E9477
:100D90005106F8CF843F31F480914F0281608093F7
:100DA0004F020895853F21F480914F028260F7CF72
:100DB000863F21F480914F028460F1CF873F21F478
:100DC00080914F028860EBCF883F21F480914F02E1
:100DD0008061E5CF8D3F31F480914902816080933D
:100DE000490208958E3F21F4809149028260F7CF35
:100DF0008F3FB9F7809149028460F1CF80E0089578
:100E0000F894E82FE295EF70F0E031A1282F2F70D1
:100E100081E090E001C0880F2A95EAF7982F90951D
:100E2000932391A392A1892B82A378940895909102
:100E3000830392FF06C0282F28712830F9F4877F9A
:100E4000846093FF06C0282F28712831F1F4877E33
:100E500084612091840320FF06C0382F3871383018
:100E6000D9F4877F816021FF06C0282F287128319F
:100E7000D1F4877E816194FD877E0895282F2471A7
:100E80002430F9F68B7F8860DCCF282F2471243141
:100E900001F78B7E8861DDCF382F3171313019F742
:100EA0008E7F8860E0CF282F2171213121F78E7E3F
:100EB0008861E1CFCF93DF93EC0182389105A9F1EE
:100EC000D8F58133910509F496C048F5893291052A
:100ED00009F48AC08A9709F495C0C11521E5D207A3
:100EE00008F0BCC0C11530E5D30708F016C1C83EF4
:100EF000D10508F09CC0C03ED10560F5C83AD105C7
:100F000008F087C0C53AD10508F0FFC0C130D1054F
:100F100009F12097F9F0C430D105E0F440C08533E1
:100F2000910509F45AC0C997C1F680918303837073
:100F300089F0C0EED0E00EC0833E910599F170F4C7
:100F4000803E910501F1823E910539F6809183033F
:100F500082FD21C0CE01DF91CF910895863E91059B
:100F600061F1873E910571F1843E910509F0B5CF9D
:100F70008091840381FFEECF80918303C7EED0E0A0
:100F800084FD0DC0E7CF8091830380FD18C190914F
:100F9000840390FFDFCFC3EED0E084FFDBCFD0E04F
:100FA000C0E0D8CF8091830382FD0CC1909184036F
:100FB00090FDBFCF84FFCECFF2CF8091830383FD1E
:100FC000DDCFC8CF8091830383FDFFC09091840360
:100FD00091FFF0CFC4EED0E0BDCF8091830385FFB9
:100FE000B9CFC9E2D0E0B6CF8091830385FFB2CFFD
:100FF000C5E3D0E0AFCF8091830386FFABCFCAE2D9
:10100000D0E0A8CF8091830386FFA4CFC1E3D0E0D6
:10101000A1CFCF3BD10518F6C85AD0E0CC0FDD1FC9
:10102000C55EDE4F0990D881C02DD46493CFC11521
:1010300040E2D40758F4C11581E0D80708F08ACF00
:10104000C03FD10508F4ABCFD06584CFC11520E4F3
:10105000D20708F4A4CFDF70D06A7CCFC11535E584
:10106000D30710F5C11544E5D40708F090C0C115A9
:1010700083E5D80708F075C0C11522E5D20708F44A
:101080006BC0CE018370992721E030E002C0220FAF
:10109000331F8A95E2F7C695C695D0E0E5E0CC0F00
:1010A000DD1FEA95E1F754C0C11539E5D307A8F46F
:1010B000C11548E5D40708F06FC0C11586E5D8070B
:1010C00008F06DCF8C2F0E941707C82FD0E0DC2FBF
:1010D000CC27CC27DF71D0623DCFC1152AE5D207DE
:1010E00008F45FC0CE0190568115904208F057CFAA
:1010F0008D2F8F710E94170790E0982F88278827DF
:101100009F719C012C2BE901E6CFC55AD0E0C85E47
:10111000DE4FC881D0E0D0641DCFCE01A4E096950B
:101120008795AA95E1F783702C2F26952695237035
:1011300030E0B5E0220F331FBA95E1F7382B8C2F42
:101140008370C1E0D0E002C0CC0FDD1F8A95E2F7CA
:10115000C22BD32BDC68FECEDC2FCC27C16FD06A2C
:10116000F9CECE018370992721E030E002C0220F32
:10117000331F8A95E2F7C695C695D0E075E0CC0F8F
:10118000DD1F7A95E1F7C22BD32BDA68E3CEDC2F93
:10119000CC27C46FD06ADECEDC2FCC27C06FD06ADC
:1011A000D9CE8C2F8F700E94170734E0D695C79543
:1011B0003A95E1F7CF709C2FEC01D069CBCEC9E313
:1011C000D0E0C8CEC2EED0E0C5CEC6EED0E0C2CEF2
:1011D00080911D02882331F010921D0210921C0292
:1011E00010921B020895809590911D03982390936F
:1011F0001D030895809590911C03982390931C03E0
:1012000008951092FA011092F9011092F8010895D0
:101210008091F70181111092F701089590910F01CB
:101220009923D1F09091830397FF16C0E82FE6959C
:10123000E695E695EE31E0F4F0E0E259FE4F282F16
:10124000277081E090E001C0880F2A95EAF7809529
:101250009281892382830895E0E7F1E091918913D7
:1012600003C0DF0111971C9291E0E637F907B1F74F
:10127000089590910F019923C1F09091830397FFF6
:1012800014C0E82FE695E695E695EE31F8F4F0E027
:10129000E259FE4F877021E030E001C0220F8A95AD
:1012A000EAF78281822B82830895A0E7B1E0EFEF15
:1012B00090E02D91821751F0EF3F19F4211101C0F8
:1012C000E92F9F5F9630A9F7EF3F09F408950E2E9E
:1012D000000CFF0BE259FE4FE6CF8091F601909192
:1012E000B501981301C008958F5F8770FACF282F3A
:1012F000892F9E3F51F16FE00E949F2B820FA82FF4
:10130000A77086958695869590E063E070E00E94D0
:10131000A82BFC01E157FE4F50E040E080E0219116
:1013200030E00A2E02C0369527950A94E2F7217024
:101330003327042E01C0220F0A94EAF7822B4F5F55
:101340005F4F4330510559F7089580E00895CF93DA
:10135000DF93282F892F362F9E3F79F16FE00E946F
:101360009F2B820F982F9770E1E001C0EE0F9A95A6
:10137000EAF786958695869590E063E070E00E9496
:10138000A82BDC01A157BE4F50E040E0632F70E076
:101390008D91ED0121979B01042E02C03695279572
:1013A0000A94E2F72170219528272E2328272883E5
:1013B0004F5F5F4F4330510559F7DF91CF9108954B
:1013C0009C013A9521153F4150F5FC01EE27F17043
:1013D000BC0166277270AC01442754709C0122271F
:1013E000387094FF0EC080E1EF2B09F480E0672B8A
:1013F00009F08062452B09F08064232B89F0806816
:10140000089581E0EF2B09F480E0672B09F08260FA
:10141000452B09F08460232B19F08860089580E043
:10142000089580938503709387036093860380916A
:10143000B5038430F9F48093E9008FEF9091E800D0
:10144000815095FD06C095ED9A95F1F70000811148
:10145000F5CF8091E80085FF0DC050E040E063E0EB
:1014600070E085E893E00E9408048091E8008E77A0
:101470008093E8000895BC0184E00C94110ABC013B
:1014800083E00C94110A9C0184E08093E9009FEFB3
:101490008091E800915085FD06C085ED8A95F1F7B1
:1014A00000009111F5CF8091E80085FF0CC050E05D
:1014B00040E066E070E0C9010E9408048091E80005
:1014C0008E778093E8000895CF93DF93EC018091AD
:1014D0000F018823B1F18091830387FF32C060E25E
:1014E00084E08093E9008FEF9091E800815095FDB2
:1014F00006C095ED9A95F1F700008111F5CF809126
:10150000E80085FF1BC080910F0170E050E040E0D3
:10151000811104C050E040E068E070E0CE010E941C
:1015200008048091E8008E778093E80080E2FE0155
:10153000AAE8B3E001900D928A95E1F7DF91CF918F
:10154000089568E081E0CDCF81E08093E00080E203
:101550008093D8001092C9008FE19EE40197F1F7C3
:1015600000C0000087E090EBDC018093BA03909309
:10157000BB03A093BC03B093BD0388E19CE00FB60E
:10158000F894A895809360000FBE90936000FFCF01
:10159000CF93DF93CFECD2E060E0CE010E94292C04
:1015A0002196C11584E0D807B9F7DF91CF9108954E
:1015B0000F931F93CF93DF93E82F8901843078F541
:1015C000653068F54F3058F521153C4531F4809170
:1015D0008A0290918B02892B11F1862F90E06EE1A7
:1015E00070E00E94A82BC42FD0E0CC0FDD1FC80FE5
:1015F000D91F8E2F90E066E970E00E94A82BC80FDB
:10160000D91F612FCE0187960E94292C602FCE0111
:101610008896DF91CF911F910F910C94292CDF9127
:10162000CF911F910F910895CF93C82F6FEF811124
:1016300069E483E290E00E94292C6FEFC1116AE017
:1016400084E290E00E94292C6FEFC11164ED85E2E5
:1016500090E0CF910C94292C7F928F929F92AF9221
:10166000BF92CF92DF92EF92FF920F931F93CF938F
:10167000DF93CDB7DEB764970FB6F894DEBF0FBE29
:10168000CDBFA0908A02B0908B0281E090E0909351
:101690008B0280938A028EE2C82E84E0D82E00E06E
:1016A000760110E015C0F40125913491472D612F8A
:1016B000802F0E94D80A82E0880E911C7394EFE07C
:1016C0007E12F1CFFEE1EF0EF11C1F5F153019F015
:1016D0004701712CE8CF0F5F86E9C80ED11C04309A
:1016E000F9F61A8219821C821B821E821D821886BC
:1016F0001F8288EC90E09A8789874AE050E06FE784
:1017000072E0CE0101960E944D2C4AE050E069E85B
:1017100072E0CE0101960E944D2C4AE050E063E950
:1017200072E0CE0101960E944D2C4AE050E06DE936
:1017300072E0CE0101960E944D2C8E01055F1F4F75
:101740008AE0F80111928A95E9F74AE050E067EAE9
:1017500072E0C8010E944D2C4AE050E061EB72E05B
:10176000C8010E944D2C4AE050E06BEB72E0C801CA
:101770000E944D2C4AE050E065EC72E0C8010E94E6
:101780004D2CB0928B02A0928A0264960FB6F89408
:10179000DEBF0FBECDBFDF91CF911F910F91FF90A4
:1017A000EF90DF90CF90BF90AF909F908F907F9001
:1017B000089580E00E94140B60E086E290E00E94B1
:1017C000292C0E942C0B0E94C80A81E00C94140B57
:1017D0009B01843080F490E06AE070E00E94A82BC6
:1017E000BC0161587D4F4AE050E0C9010E940B2CBA
:1017F00090E080E008958FEF9FEF08958F929F9281
:10180000AF92BF92CF92DF92EF92FF920F931F930E
:10181000CF93DF93CDB7DEB72A970FB6F894DEBF2C
:101820000FBECDBF00E213E0F12CE12C8BEBC82EF4
:1018300082E2D82E95EEA92E92E2B92E27E1822ED1
:1018400022E2922EF801D182C082B382A2829582D6
:101850008482F58AE48ABE016F5F7F4F8E2D0E94DD
:10186000E80B892B29F489859A85F801938B828B63
:10187000FFEFEF1AFF0A0A5E1F4F84E0E816F1043B
:1018800009F72A960FB6F894DEBF0FBECDBFDF91E1
:10189000CF911F910F91FF90EF90DF90CF90BF906D
:1018A000AF909F908F9008950F931F93CF93DF93E6
:1018B000282F843060F5653050F54F3040F5862F85
:1018C00090E06EE170E00E94A82BC42FD0E0CC0F16
:1018D000DD1FC80FD91F822F90E066E970E00E94DB
:1018E000A82BC80FD91FCE0187960E941B2C082F4A
:1018F00010E0102F0027CE0188960E941B2C980123
:10190000282BC901DF91CF911F910F91089590E08D
:1019100080E0F8CF462F20918E0230918F02232B4A
:1019200091F47E3F39F46E3F71F480918C02909176
:101930008D020895843038F4753028F46F3018F42F
:10194000672F0C94540C90E080E00895CF92DF92C2
:10195000FF920F931F93CF93DF936C010091B60317
:1019600080911E02082BC7E0D0E010E0FC2EC801D9
:101970000C2E02C0959587950A94E2F780FD0CC065
:101980002197A0F7F12C8F2DDF91CF911F910F910F
:10199000FF90DF90CF900895B6018C2F0E948A0CA3
:1019A0000E945A07019761F3EECFCF93DF93EC01CA
:1019B0000E94A60CBE010E948A0CDF91CF910C946C
:1019C0005A07FC0186819781009791F00E945A077F
:1019D00092959F709630B9F080F4925F9F7092302C
:1019E00080F4803F19F058F4883E58F481E008955F
:1019F000808191810E94D50CEBCF9A5FEFCF843F1D
:101A0000A9F380E00895883E88F3813FD1F7EECFB7
:101A10001F93CF93DF9300D000D00F92CDB7DEB7E6
:101A2000FC01268137812115310541F525E0DE01D4
:101A3000119601900D922A95E1F7FC01228189818E
:101A40009A812223B9F06623A9F00E94A60C182FD0
:101A5000682F89819A810E94A70969817A81812FE3
:101A60000F900F900F900F900F90DF91CF911F91DB
:101A70000C948A0C0E947709182FEFCFC9010F90A0
:101A80000F900F900F900F90DF91CF911F910895BD
:101A900083E290E00E941B2C893489F484E290E078
:101AA0000E941B2C8A3059F485E290E00E941B2C86
:101AB00091E0843D09F090E0892F8170089580E0E5
:101AC000FCCFCF9384E090E00E941B2CC82F82E2D1
:101AD00090E00E941B2C982F8C2FCF910895CF92CD
:101AE000DF92EF92FF920F931F93CF93DF93CDB7C7
:101AF000DEB72A970FB6F894DEBF0FBECDBFE2E681
:101B0000F2E088E2DF011D928A95E9F7E4EFF2E066
:101B10008CE1DF011D928A95E9F782E6C82E82E00A
:101B2000D82E7F0107EA12E0F701D182C0824AE095
:101B300050E0B801CE0101960E940B2C88E0FE0116
:101B40003196D60101900D928A95E1F789859A85A3
:101B5000D70113969C938E931297BAE0CB0ED11CAB
:101B6000E7E0EE0EF11C065F1F4F0F3CF2E01F078F
:101B7000D9F62A960FB6F894DEBF0FBECDBFDF911F
:101B8000CF911F910F91FF90EF90DF90CF9008952C
:101B90008F929F92AF92BF92CF92DF92EF92FF927D
:101BA0000F931F93CF93DF93CDB7DEB72A970FB66E
:101BB000F894DEBF0FBECDBF8E010F5F1F4F8AE0CE
:101BC000F80111928A95E9F799E4E92E91E0F92E4E
:101BD0006801AA24A394B12CF70181917F018F3F62
:101BE00009F446C0F894E82FE295EF70F0E021A1E7
:101BF0008F70A50102C0440F551F8A95E2F7CA01F4
:101C0000922F982B91A392A18095892382A37894F7
:101C100000C0EEE4F1E021E030E0912C812C419114
:101C20004F3F09F481C0A42FA295AF70B0E0909609
:101C30008C9190E04F7002C0959587954A95E2F798
:101C400080FD72C0C901882A992A220F331F51E0F2
:101C5000ED35F50721F7F701319780818F3F11F0BE
:101C60000E94000780EA8A95F1F7F601918280824E
:101C7000F2E0CF0ED11C4EE4E41641E0F40609F088
:101C8000ABCF4AE050E0B80183E292E00E94F72B2C
:101C9000FF24F394009709F4F12C892B09F447C031
:101CA0008AE0F801A3E2B2E001900D928A95E1F793
:101CB00081E0809321020E941A0590932002809374
:101CC0001F0280911F02909120020E940B05059730
:101CD00090F1809123029091240290933E02809390
:101CE0003D028091250290912602909340028093BC
:101CF0003F028091270290912802909342028093A4
:101D000041028091290290912A029093440280938B
:101D1000430280912B0290912C0290934602809373
:101D200045021092210207C090E080E08CCF8091A4
:101D300021028111C6CF8F2D2A960FB6F894DEBFEF
:101D40000FBECDBFDF91CF911F910F91FF90EF900C
:101D5000DF90CF90BF90AF909F908F90089580912B
:101D60001C0390911D03892B80936E0180911D02AD
:101D7000882329F10E941A0520911B0230911C0230
:101D8000821B930B8838934110F00E94E8088091E1
:101D90006E0190911D02892B80936E0180910F013D
:101DA0008823D9F18091830387FF37C08EE1E0E774
:101DB000F1E090E0815098F591110E94E80840E22E
:101DC00050E06BEF71E08EE691E00E94F72B892BDB
:101DD00059F180E2EEE6F1E0ABEFB1E001900D9257
:101DE0008A95E1F7E0917A03F0917B033097E1F077
:101DF00080910F01882359F08091830387FF07C0EA
:101E000080916E0180936F0186E080936E01028065
:101E1000F381E02D8EE691E0099486E0C8CF219110
:101E2000222341F29F5FC6CF08950F931F93CF9354
:101E3000DF93EC018A85811132C00B811C8117551B
:101E4000C80166E170E00E94A82BDC01A05EBC4FD7
:101E50001496ED91FC911597309731F054966D9151
:101E60007C918A5D9C4F0995C80166E170E00E94F3
:101E7000A82B8C01005E1C4FF80187810E94FA0894
:101E8000F80180850E94F3080E94AF0E188219861F
:101E90001B861E821D8210921F0310921E03DF916B
:101EA000CF911F910F910895CF93DF93EC01898912
:101EB00081111BC081E0898B80911C039F81892B3C
:101EC00080931C0380911D039885892B80931D03AB
:101ED0000E94AF0EEA81FB81309739F06C897D89D1
:101EE000CE010696DF91CF910994DF91CF910895AD
:101EF00090E080E00E943C0590E080E00E94260592
:101F000010921D030E94AF0E86E0EEE4F2E0DF01C6
:101F10001D928A95E9F7109248021092470210929A
:101F200049020C94A7058093B6030C94780F809116
:101F3000B603982F9670963019F488600C94930F1E
:101F4000877FFCCF21E030E001C0220F8A95EAF7BD
:101F500020958091B60382230C94930F9091FA01FF
:101F6000809589238093FA01282F277091F4282FD8
:101F7000082E000C330B9217130659F0909184032E
:101F800092FD07C08595859585950E94A20F0C94BA
:101F900001090895CF93C0918403C2FB992790F95A
:101FA000981799F080FBC2F9C09384036091830372
:101FB00084E090E00E94292C6C2F82E290E00E9445
:101FC000292C82E0CF910C94AE0FCF91089521E09F
:101FD00030E001C0220F8A95EAF78091B603822B88
:101FE0000C94930F9091840392FD10C0982F990F39
:101FF000990F990F962B9093FA010E94E70F0E9478
:102000001A059093F9018093F80108950C94E70F55
:1020100080931E020C94780F10921C0380910F0184
:10202000E0E7F1E0882359F08091830387FF07C040
:102030008EE1DF011D928A95E9F70C94780F86E016
:10204000F8CF1F93CF93DF93CDB7DEB7AA970FB624
:10205000F894DEBF0FBECDBF8DEA93E02091F10072
:10206000DC012D93CD01B3E0853B9B07B9F780914F
:10207000AE03833009F470C0B8F4813009F447C06E
:10208000823009F4B1C08091E80083FF93C280914F
:10209000AD039091AE039A3008F08CC2E92FF0E0C6
:1020A000E959F34D0C94CD2B8A3009F48CC08B3058
:1020B00009F46FC0893039F78091AD03813219F787
:1020C0008091B1039091B203009711F00297D9F675
:1020D0008091E800877F8093E8008091E80082FF8C
:1020E00036C08091F200823031F48091F10081306D
:1020F00011F0863021F48091F10080938903809162
:10210000E8008B778093E8000E945A04BCCF80914E
:10211000AD03813A09F0B7CF8091E800877F8093C3
:10212000E8008091B1039091B203892B61F460E2E1
:102130008AE893E070E00E94AB048091E8008B771E
:102140008093E800A0CF60E090E080E0F3CF809142
:10215000B5038111C2CF97CF8091AD03813A09F0C9
:1021600092CF8091B1039091B203892B09F08BCF6C
:102170008091E800877F8093E8008091E80080FFED
:10218000FCCF80910F018093F1008091E8008E7761
:10219000B9CF8091AD03813209F075CF8091B10341
:1021A0009091B203892B09F06ECF8091E800877F70
:1021B0008093E8000E945A048091AF0380930F013E
:1021C0000E940C1060CF8091AD03813209F05BCF8B
:1021D0008091E800877F8093E8000E945A048091F4
:1021E000B003809388034FCF8091AD03813A09F00B
:1021F0004ACF8091E800877F8093E8008091E800D3
:1022000080FFFCCF80918803BECF803899F0823860
:1022100009F0D0C18091B1038F70853008F0CAC138
:102220008093E9008091EB0085FB882780F910926C
:10223000E90006C08091AA039091AB0391118260DE
:102240009091E800977F9093E8008093F1001092BE
:10225000F1008091E8008E77A9C1882309F497C125
:10226000823009F0A7C18091AF0381119AC180919A
:10227000B1038F702FEF280F243008F09BC180939B
:10228000E9002091EB0020FF8CC1933031F4809164
:10229000EB0080628093EB0084C19091EB00906131
:1022A0009093EB0021E030E001C0220F8A95EAF71D
:1022B0002093EA001092EA008091EB008860EACF58
:1022C000811178C11091AF031F778091E30080786E
:1022D000812B8093E3008091E800877F8093E80062
:1022E0000E945A048091E80080FFFCCF8091E300B7
:1022F00080688093E30082E0111183E08093B5034E
:1023000059C18058823008F055C12091AF033091F7
:10231000B0032C3DE3E03E07A1F583E08A838AE227
:1023200089834FB7F894DE01139620E03EE051E236
:10233000E32FF0E050935700E49120FF03C0E295B3
:10234000EF703F5FEF708E2F90E0EA30C0F0C796DD
:102350008D939D932F5F243159F74FBF8091E800F3
:10236000877F8093E8006AE270E0CE0101960E94C8
:10237000AB048091E8008B778093E8001BC1C09686
:10238000E7CF8091B1039091B203432F552743309B
:10239000510509F44AC078F54130510509F485C06A
:1023A0008BE590E0E6E8F6E04230510509F002C125
:1023B0002091E800277F2093E8002091B30330911B
:1023C000B4038217930708F49C0140E021153105FE
:1023D00009F070C041116EC08091E80082FDC9CF44
:1023E0008091B503882329F2853019F28091E800A5
:1023F00083FFF2CFBECF4132510509F447C04232CC
:10240000510509F0D7C08330910508F0D3C0FC0115
:10241000EE0FFF1FE05AFE4F0190F081E02D835A2E
:102420009E4FDC018C9190E01DC033272130310597
:10243000E9F02115310579F022303105F9F023302A
:10244000310509F0B7C0E3EFF6E0E4918E2F90E09C
:10245000E3EFF6E007C0E5E3F7E0E4918E2F90E0CC
:10246000E5E3F7E0009709F4A5C0A2CFEDE1F7E0BE
:10247000E4918E2F90E0EDE1F7E0F4CFE1E1F7E0B9
:10248000E4918E2F90E0E1E1F7E0ECCF833091050D
:1024900008F090C0880F991FFC01EA59FE4F019087
:1024A000F081E02D89E090E083CF82E190E0E1EEE1
:1024B000F6E07ECF8091B503882309F45ACF8530AA
:1024C00009F457CF8091E80083FD53CF8091E80055
:1024D00082FD82CF8091E80080FF78CF8091F2006A
:1024E00090E02115310519F08830910550F041E058
:1024F000089709F040E08091E8008E778093E8002B
:1025000065CF44914093F1003196215031090196F5
:10251000E8CF803809F04EC08091E800877F809333
:10252000E8008091AC038093F10093CE811142C00A
:102530001091AF031230F0F58091E800877F80930F
:10254000E8001093AC030E945A04112311F084E0B8
:1025500005C08091E30087FDFACF81E08093B50349
:1025600042E061EC81E00E94790442E261EC84E0A7
:102570000E94790442E261EC82E00E94790442E226
:1025800060EC83E00E9479048091B50313C08091D0
:10259000AF03813079F481E0933009F080E08093DB
:1025A000AB031092E9008091E800877F8093E800F8
:1025B0000E945A048091E80083FF0AC08091E800DD
:1025C000877F8093E8008091EB0080628093EB002E
:1025D000AA960FB6F894DEBF0FBECDBFDF91CF91A4
:1025E0001F910895882321F00E94F3080C94AF0EE8
:1025F0000895882339F090911D03982B90931D0323
:102600000C94AF0E0895882321F00E94FA080C94D0
:10261000AF0E0895882339F090911C03982B909366
:102620001C030C94AF0E0895882309F452C082381D
:1026300071F40E94520581FF4CC089E30E94390960
:102640000E94AF0E89E30E940E090C94AF0E8338EE
:1026500059F40E94520580FF3CC083E50E9439096D
:102660000E94AF0E83E5EFCF843859F40E945205E3
:1026700082FF2FC087E40E9439090E94AF0E87E4D1
:10268000E2CF9CEF980F913AF0F290E2980F9830D9
:1026900050F4877091E001C0990F8A95EAF7892F6D
:1026A0000E94FA08D2CF9BE5980F933020F490E077
:1026B00080E00C943C0598E5980F973120F490E069
:1026C00080E00C942605803F20F00E94CE050C94FB
:1026D000A7050895CF93C82F882309F4AFC0823887
:1026E000C1F40E94520581FDA9C089E30E94390905
:1026F0000E94AF0E2FEF81EE94E021508040904079
:10270000E1F700C0000089E30E940E09CF910C940C
:10271000AF0E8338A1F40E94520580FD8FC083E57F
:102720000E9439090E94AF0E2FEF81EE94E02150F4
:1027300080409040E1F700C0000083E5E5CF843899
:10274000A1F40E94520582FD79C087E40E943909F4
:102750000E94AF0E2FEF81EE94E021508040904018
:10276000E1F700C0000087E4CFCF8CEF8C0F813AF7
:1027700090F580910F01882301F18091830387FFF9
:102780001CC0EC2FE695E695E695F0E0E259FE4F89
:10279000828190E04C2F477021E030E002C0220F90
:1027A000331F4A95E2F782239323892B81F08C2FE4
:1027B0000E940E090E94AF0E0AC0E0E7F1E086E732
:1027C00091E02191C21799F38E179F07D1F78C2FB3
:1027D0000E9439099BCF80E28C0F883068F4C77063
:1027E00021E030E001C0220FCA95EAF780911C0376
:1027F000822B80931C038ACFEBE5EC0FE33040F48F
:10280000F0E0E85EFE4F808190E0CF910C943C05B3
:10281000E8E5EC0FE73150F4F0E0EE0FFF1FE55E66
:10282000FE4F80819181CF910C942605C03F30F0FE
:102830008C2F0E949606CF910C94A705CF910895F6
:102840001F93CF93DF93182FD0E0C0E0893311F4AA
:10285000C0E5D0E0812F0E946A13209731F4812FC8
:10286000DF91CF911F910C9414138FE99FE0019792
:10287000F1F700C000002197F0CF0F931F93CF9383
:10288000DF93C62FD42F022FFC0182818823A1F071
:102890006093B9030E941A059093B8038093B7031D
:1028A000C77081E001C0880FCA95EAF7DF91CF9128
:1028B0001F910F910C940A138091B903681335C0CE
:1028C0008091B7039091B8030E940B05883C910555
:1028D00060F510E21D0FCD17B9F080E28C0F883043
:1028E00040F4C77081E001C0880FCA95EAF70E94E2
:1028F0000313183048F481E09D2F977001C0880FB2
:102900009A95EAF70E940A13802F0E94201418302B
:1029100098F4D77081E001C0880FDA95EAF7DF916B
:10292000CF911F910F910C940313C77081E001C0E8
:10293000880FCA95EAF7F3CFDF91CF911F910F91DE
:102940000895BF92CF92DF92EF92FF920F931F9361
:10295000CF93DF93EC012881222309F48DC021302D
:10296000D1F599818A81913021F422960E94201418
:1029700005C0923029F422960E946A132196EBCF6B
:10298000933021F422960E941413F8CF943011F062
:102990002196F4CF229650E040E0FE013196682F58
:1029A0006053770B9B016A30710550F0415051091B
:1029B00028F38FE99FE00197F1F700C00000F6CF00
:1029C000CA016AE070E00E94A82BA901480F591FB4
:1029D0008981EF01E2CFE22FF0E0EE53FE4FB49099
:1029E000822F86958695869590E0FC01EE54FE4FE9
:1029F000E4902770F12C022E02C0F594E7940A941B
:102A0000E2F731E0E322FF24FC01EE55FE4FC490D3
:102A1000D12C022E02C0D594C7940A94E2F761E04B
:102A2000C622DD24FC01EE56FE4F049110E002C0E8
:102A3000159507952A95E2F701701127E114F10425
:102A400019F081EE0E946A13C114D10419F086EEC8
:102A50000E946A138B2D0E942014CD2819F086EE57
:102A60000E941413EF2819F081EE0E941413012B19
:102A700009F484CF8CE27ACFDF91CF911F910F912F
:102A8000FF90EF90DF90CF90BF90089569EE7EEFBA
:102A900090E080E00E94472C60E082E090E00E949D
:102AA000292C60E083E090E00E94292C10921E0205
:102AB00060E084E090E00E94292C60E082E290E0F7
:102AC0000E94292C60E085E090E00E94292C60E0C3
:102AD00086E090E00E94292C6FEF87E090E00E9452
:102AE000292C40E050E0BA0188E090E00E943B2CA5
:102AF00060E08DE090E00E94292C40E050E0BA01B7
:102B000088E190E00E943B2C60E087E190E00E9429
:102B1000292C40E050E0BA018CE190E00E943B2C6F
:102B200070E060E080E290E00E94472C40E050E0DE
:102B3000BA0188E190E00E943B2C80E00E94140BD7
:102B40000E94D90B40E050E0BA018FE090E00E9473
:102B50003B2C40E050E0BA0183E190E00C943B2C28
:102B60009F92AF92BF92CF92DF92EF92FF920F931C
:102B70001F93CF93DF9300D000D0CDB7DEB77C0199
:102B8000DC0113968D919C911497892B39F08C91CF
:102B900011969C9189238F3F09F08CC50F900F905F
:102BA0000F900F90DF91CF911F910F91FF90EF90B9
:102BB000DF90CF90BF90AF909F900895D60116966A
:102BC0008C9116978823D1F019968D919C910817B6
:102BD000190739F480911E0390911F0308171907F4
:102BE00069F0F601978614870387C6010E94540F87
:102BF000C60106960E94150F10921D03FFEFAF1A33
:102C0000BF0A26E1C20ED11C6DC5980122513F4575
:102C10002031310508F01EC58FEF93E00E941B2C78
:102C200002515FECA52E52E0B52E882301F1809170
:102C3000FA01877009F4B2CFD70112968C918823DC
:102C400009F4ACCF8091840382FDA8CF82E00E947A
:102C5000AE0FA4CFA11434E0B30649F3C5010E941E
:102C60001B2C811101C001504FEFA41AB40A0111AD
:102C7000F1CF19821A821B821C8285010F5F1F4FC0
:102C8000C5010E941B2C89831A82882381F281301E
:102C900009F06DC0650152E0C50ED11CC8010E944B
:102CA0001B2C082F8A83882311F2C6010E941B2C3B
:102CB000182F8FEF800F833068F4650183E0C80E12
:102CC000D11C1B83112321F0CE0101960E94A11477
:102CD0005601D3CF8BEF800F833020F5C5010396CB
:102CE0001B836C011123A1F36501A4E0CA0ED11C62
:102CF0000E941B2C8C83882359F38B819C8181300B
:102D0000BFEF9B0710F0982F8827063029F0073077
:102D100031F00E94B122DCCF0E946822D9CF0E94FC
:102D2000C821D6CF0430A1F66501E4E0CE0ED11C57
:102D3000C50103960E941B2C112309F478CF882328
:102D400009F475CF8150990B6FEF70E00E94A82BAA
:102D5000412F4150550B840F951F019708F4B8CFB0
:102D6000AFE9BFE01197F1F700C00000F6CFCE0148
:102D700001960E94A1146801ABCF81E00E94E70F89
:102D80000E94970F54CF81E00E94A20FF9CF82E0FA
:102D9000F5CF2FEFC216D10411F008F071C468E529
:102DA00072E08C2D0E94E80B892B31F5C60166E19B
:102DB00070E00E94A82B805E9C4FDC0116968C91DF
:102DC000813009F0B4C08091580290915902892B4A
:102DD00099F080915A0290915B02892B69F0809161
:102DE0005C0290915D0220915E0230915F02822B25
:102DF000932B892B09F4A5C080910C0190910D01B2
:102E00008C159D0524F4D0920D01C0920C01D701C0
:102E100012962C911297C60166E170E00E94A82BD1
:102E2000805E9C4F5C01FC01208B12969C918681F8
:102E3000992309F492C0128701878F5F86830E94CD
:102E40001A05D5011E969C938E931D9780911D02A5
:102E500017968C93179780911D0390911C03892BD3
:102E600018968C931897ED91FC911197309761F01B
:102E700054962D913C91C60166E170E00E94A82B0A
:102E8000B9018A5D9C4F099510931F0300931E039F
:102E9000F7018281882309F43DC41092B9030330FD
:102EA000FDE51F0708F08EC00A3F2CE5120730F43D
:102EB000C80182509C45449708F08EC00E94610D65
:102EC000909384038093830301315CE5150709F433
:102ED00055C108F0D5C009309CE5190709F43CC17B
:102EE00008F0A2C00530BCE51B0709F42DC108F0AD
:102EF00088C00330FCE51F0709F41CC108F020C19D
:102F000080918303816002301C4509F416C16091F1
:102F100083031091840384E090E00E94292C612FA8
:102F200082E290E00E94292C0E940C1080CE823018
:102F300009F062CF80915C0290915D02892B09F4C7
:102F40005BCFC60166E170E00E94A82B805E9C4FBB
:102F5000FC01108A0E94540F4FCF882309F498CFA8
:102F60008189882309F494CFC60166E170E00E944C
:102F7000A82B8A5D9C4F0E94150F8ACF053F8CE5D8
:102F80001807C9F0A0F027E245EE66EE063FACE573
:102F90001A0709F07DCFC7010E943D1448CE24E6F0
:102FA00041EE65EEF8CF26E241EE60EEF4CF27E287
:102FB00045EE64EEF0CF26E241EE62EEECCF28E281
:102FC00041E0EFCF01363DE5130709F477CF053A2D
:102FD0004DE5140709F472CF0631ACE51A0709F084
:102FE000A4C380911C038A7A91E009F490E0909345
:102FF0008E018111F1C089E20E9439090E94AF0E51
:1030000016CE80918303806207304CE5140709F4E3
:1030100094C080918303806108301C4508F48DC002
:1030200080918303806489C00D308CE5180709F412
:1030300099C098F4809183038E7F0B30ACE51A071A
:1030400009F47BC0809183038C600C301C4508F42C
:1030500074C0809183038D7F70C0809183038F7EC5
:103060000F30ECE51E0709F468C080918303877F69
:1030700000311C4508F461C0809183038F7D5DC0E1
:103080000D3F2CE5120709F475C038F505314CE504
:10309000140709F481C080F403318CE5180709F4A2
:1030A00077C008F46FC00E940C1090918303892FA1
:1030B00097FB87F9805841C00B3FACE51A0709F42C
:1030C00047C008F053C08091840381600A3F1C45CB
:1030D00009F01DCF809384031ACF0130FDE51F074F
:1030E00009F466C0B8F4809184038C7F0F3F3CE5FF
:1030F000130781F380918403836001151D4550F30C
:1031000080918403982F909591708E7F892B90FBEE
:1031100081F9E0CF01365DE5150709F44FC0053AA6
:103120008DE5180709F451C002301D4509F0EFCEB6
:1031300060E03FC080918303826080938303E7CE89
:10314000809183038460F9CF809183038860F5CFF9
:10315000809184038260BECF0E940C108091830313
:103160008068EBCF809183038B7FE7CF80918403CE
:103170008E7FB0CF809184038D7FACCF809183030D
:103180008F7BDBCF0E940C10809183038F77D5CF8C
:1031900080918303837FD1CF8091830382FB992722
:1031A00090F921E0922790FB82F990FB83F9C5CF3B
:1031B00061E08EE090E00E94292CA9CE90918303DB
:1031C000892F8F7E94FF8061B8CF90918303892FE0
:1031D0008E7F90FF8160B1CF85E30ECF85E3A2C2E1
:1031E0000E940C10BFEFE4E3FCE0B150E040F0407F
:1031F000E1F700C000000E94A40A81E0B6C280E0AE
:10320000B4C2828100811181882369F0C8010E94C3
:10321000A60CD82E682FC8010E94A709B8018D2DD1
:103220000E948A0CAAC2C8010E947709D82EF6CF44
:10323000212F2F70D22E107F19F0D29490EFD92227
:10324000CC20B9F0DD2069F080E2800F883010F0EA
:10325000011109C080911C03D82AD0921C030E943E
:10326000AF0E802F46C080911D03D82AD0921D0337
:10327000F6CF802F0E941413DD20E9F180E2800F49
:10328000883010F0011104C08D2D0E94FA0803C08F
:103290008D2D0E94F3080E94AF0E2DC0312F3F707C
:1032A000D32E107F103219F0D29480EFD822002351
:1032B00081F0013009F48BC0CC2009F494C0BB200C
:1032C00009F469C0F701858180FFCBCF8F708583BA
:1032D00062C08091840382FF39C0CC2089F1DD2057
:1032E00039F080911C03D82AD0921C030E94AF0EA3
:1032F00080E00E946A13292D2850330B24303105B9
:1033000010F40E945205AA20B1F08091FA0180FDCC
:1033100012C0D70112961C928595859585950E94BD
:10332000E70FC7010E94B0158091FA018595859538
:1033300085950E94A20F60E0C7010E94080D2ECC67
:1033400080E00E941413DD20B1F29ECFCC2039F131
:10335000B11004C080911D028D291EC041E0B4123D
:1033600010C082FDC8CF80911D02D82AD81619F24C
:103370000E941A0590931C0280931B02D0921D029A
:10338000BACF55E0B512E6CF0E94E8088091F70168
:10339000D812D092F7018D2D0E940A13ACCFB11034
:1033A00006C00E94E8088D2D0E940313A4CF81E07F
:1033B000B81208C080911C038D2109F49CCF0E9493
:1033C0000809EFCF95E0B91609F495CFEACFCC20E4
:1033D00029F0A5E0AB1508F48ECFDDCFB4E0BB1526
:1033E00008F489CFE0CFBB20F1F2093349F4FFEFB5
:1033F00027EE33E0F15020403040E1F700C00000FC
:10340000802F0E94141377CF812F86958695837025
:1034100061F0813009F06FCFC8019370C11002C014
:1034200090E080E00E94260566CFC8019370C1102D
:1034300002C090E080E00E943C055DCF802FCC2050
:1034400029F00E9496060E94A70555CF0E94CE053E
:10345000FACF812F837089F5C1104DCF402F42954F
:1034600046954770440F440F802F8F70042E01C083
:10347000880F0A94EAF7202F207104FF07C02FE07D
:1034800030E001C0220F4A95EAF72095169516956F
:103490001370123069F050F430911E02113029F08F
:1034A000822B83230E94081026CF832B822BFACFF6
:1034B000282B80911E028227F5CF8695CC2011F013
:1034C000812F8170882309F416CF402F42954695AD
:1034D0004770440F440F802F8F70042E01C0880F57
:1034E0000A94EAF7202F207104FF07C02FE030E094
:1034F00001C0220F4A95EAF720951695169513708C
:10350000123069F050F43091B603113029F0822B5B
:1035100083230E94930FEFCE832B822BFACF282B8D
:103520008091B6038227F5CF1F70CC2029F0812F20
:103530000E94E70F802F30CF802F0E940313812F2E
:103540000E94A20FD8CE023F81F160F4003FB9F093
:10355000013F81F0CC2009F46DC0B11082CE812FE3
:103560008F7127C0033F41F1043FA1F7809184038D
:1035700082FF2DC0812F8F71CC2011F31AC0CC2077
:1035800079F044E04B1508F4B6CE1F7181E090E06D
:1035900001C0880F1A95EAF79091B6038927B9CF31
:1035A00055E05B1508F4A7CEF0CF812F8F71C110C5
:1035B000C7CF0E94E70F9FCE80E0CC2009F4A9CFAF
:1035C0001F7181E001C0880F1A95EAF7A2CF8091A0
:1035D000F701CC20D9F00E94FA088091FA01877097
:1035E000843041F40E940109812F8F710E94A20F43
:1035F000A12C81CE84E08B15D8F31F71812F0E94FE
:10360000E70F63E0812F0E94F20FF2CF90911C032D
:10361000982B90931C0394E09B1540F40E940109A1
:103620000E94080964E0812F8F71EDCF81E00E9434
:10363000AE0FDECFBB2059F0093309F0E1CEAFEF7A
:10364000B7EEE3E0A150B040E040E1F7D7CE812FE4
:103650008F7176CF0031BFE51B0709F48ECB0131A6
:10366000EFE51E0709F493CB6801E7E5DE1A88232E
:1036700009F48FCBFFEFCF16D10409F008F4BCCBCF
:10368000033FFCE51F0709F48ECC08F077CC083D1A
:103690003CE5130709F483CC093D4CE5140709F414
:1036A0008ECC073D5CE5150709F0F2CB26E241EE32
:1036B00061EE71CC61E0C7010E94080D8C01D70159
:1036C00012968C918823B1F080910C0190910D019C
:1036D000019681F060E2C62E63E0D62EB12CA12CBB
:1036E0009924939480910C0190910D018A159B056A
:1036F0000CF064CAF7018281811187CA0031FFE5AD
:103700001F0709F440CB01312FE5120709F0ACCFB8
:1037100082E03ACB06311C4551F580918E01811132
:103720005DCD89E20E940E0969CC0A35EDE51E07E0
:1037300009F463CD58F401152CE5120709F450CDB6
:103740000E3D1C45A1F40E94461571CA0B354DE58E
:10375000140709F454CD0C351D4549F480918403B8
:1037600082FB882780F991E089270E94CA0FF70120
:1037700086819781009709F444CD0E945A078C01F5
:10378000F701C280B580B2943FE0B3228091FA0184
:103790008770C1F0AC2CCC20B1F0812F807F8034B9
:1037A00021F080E2800F883068F08091840382FDF0
:1037B00009C082E00E94AE0F8091FA018770AA24AE
:1037C000A3948111A12C912E92942FE09222FBE0E0
:1037D000F91508F490CDE92DF0E0EF58F34D0C9475
:1037E000CD2BCF93DF938091B201807FA1F48091A4
:1037F000AF01882381F08091F601D091B5016091ED
:10380000AD017091AE01A091B001B091B101C62F90
:10381000C723D81303C0DF91CF91089590E010978C
:1038200011F0CF3F19F401968770F3CF9C0143E06C
:10383000220F331F4A95E1F7F901EA54FE4F418107
:103840004713F1CF40814613EECF42814111EBCFB8
:10385000438154814A1B5B0B483C510520F7809102
:10386000B2018F7080618093B201F901E554FE4F7F
:1038700080818F70806180838DEA91E00E94B01515
:10388000DF91CF910C946D09AF92BF92CF92DF92EE
:10389000EF92FF920F931F93CF93DF93CDB7DEB7D5
:1038A00065970FB6F894DEBF0FBECDBF8C0185E0E3
:1038B000F801DE01519601900D928A95E1F7F80129
:1038C000E2806DEAA62E61E0B62E6091B0017091A3
:1038D000B1016115710509F468C19091AD01409184
:1038E000AE01892F84238F3F09F45FC1208131818C
:1038F000C380D480F090AF01F601E61BF70BFF20E8
:1039000009F41DC18091B201582F507FE83CF105A8
:1039100008F0D0C0511181C0FE2C43132BC092136C
:1039200029C06091B3017091B401F80146815781BB
:1039300064177507F9F4E1101DC08F7080618093E2
:10394000B201C5010E94B0158091B201F8018583D2
:103950008F2D65960FB6F894DEBF0FBECDBFDF91F9
:10396000CF911F910F91FF90EF90DF90CF90BF907C
:10397000AF900895CD2829F0822F83238F3F09F03F
:103980002FC180E0F82FF170DF2E80FF3CC08091C6
:10399000F6014091B501841315C0298B3A8B8989B2
:1039A0009A890E94D50C292F22952F702230F8F089
:1039B000243020F59F70F9F0F8019581907FD9F4BB
:1039C000D12C1FC090E0FC0153E0EE0FFF1F5A9571
:1039D000E1F7EA54FE4F5181351306C0508125139B
:1039E00003C05281E5120FC001968770D4CF9F703B
:1039F00011F0882329F3805E883010F3C8010E94FB
:103A0000B015FD2CA5CFEE2009F4A2CF8091B20114
:103A100081608093B201F12C9BCF43131BC09213A2
:103A200019C04091B3015091B401F801268137814A
:103A30004217530779F4E1100DC08583C8010E9435
:103A4000B01588E0F801ADEAB1E001900D928A95D9
:103A5000E1F77ECFC8010E94E10C882339F1EE2006
:103A600029F18091B2018032A0F02091AD01309116
:103A7000AE013A8729871B86DD86CC868E878091AA
:103A8000B3019091B401988B8F87CE0109960E9463
:103A9000B01588E0F801ADEAB1E001900D928A9589
:103AA000E1F70E94F11BFF24F39452CFC8010E945A
:103AB000B015F9CF51110AC08DEA91E00E94B015FE
:103AC00088E0F50111928A95E9F7A5CF431318C054
:103AD000921316C04091B3015091B401F8012681B0
:103AE00037814217530761F4E1100AC08583C8018A
:103AF0000E94B01588E0F50111928A95E9F728CF68
:103B0000C8010E94E10C882389F2EE2079F28091AD
:103B1000B201803208F4BDCF2091AD013091AE01E9
:103B20003A8329831B82DD82CC828E838091B3010C
:103B30009091B40198878F83CE010196A8CFE83C7D
:103B4000F105C0F6FE2CEE2009F4B0CF43131FC0E0
:103B500092131DC02091B3013091B401F801868108
:103B600097812817390799F49091B20190FD69CF98
:103B7000907F09F466CF8091B2018583903F09F46C
:103B80005DCF982F907F905F8F70892B56CFC801A3
:103B90000E94E10C81117DCF8091B2018160809300
:103BA000B201C8010E94B015D3CEEE2009F47ECF39
:103BB000C8010E94E10CF82E882309F477CF88E031
:103BC000F801ADEAB1E001900D928A95E1F780919C
:103BD000AD019091AE010E94D50C0E94F11BB8CEB0
:103BE00081E08E25CFCECF93DF93CDB7DEB7609740
:103BF0000FB6F894DEBF0FBECDBF29873A874B873B
:103C00005C876D877E878F87988BCE0109960E948F
:103C1000441C811112C088E0FE013996DE01119624
:103C200001900D928A95E1F78C859D85892B29F06D
:103C300089859A8589238F3FB9F58091F601909106
:103C4000B50189131CC060960FB6F894DEBF0FBE95
:103C5000CDBFDF91CF91089533E0AA0FBB1F3A95F6
:103C6000E1F7AA54BE4F98E0FE01319601900D9203
:103C70009A95E1F78093B5010E946D09DECF90E03F
:103C800023E0880F991F2A95E1F78A549E4F0E94DE
:103C9000441C8823C1F28091F60190E00196877060
:103CA00099278093F601C9CFA091B501B0E0CD016D
:103CB0000196877099272091F6012817190661F659
:103CC0000E940C101092B5011092F60188E0EDEA06
:103CD000F1E0DF011D928A95E9F7AFCF1F93CF93F3
:103CE000DF9380919302C091920281111BC0DF91FA
:103CF000CF911F91089511E01C0F10939202D0E014
:103D0000CE016CE070E00E94A82BFC01EC56FD4F48
:103D100083819481892B29F08081918189238F3F30
:103D200051F4C12F80919302C81728F31092930287
:103D300010929202DCCFCE016CE070E00E94A82BC2
:103D4000DC01AC56BD4F16968D919C911797892B2F
:103D500029F418968D919C91019651F4208131811E
:103D60004281538164817581868197810E94F31D10
:103D7000CE016CE070E00E94A82B8C569D4FFC0198
:103D80001482138210921D03CCCF10921B03109249
:103D90001A0310920E0180911903809318030E9458
:103DA00089050C946E1E4F925F927F928F929F9224
:103DB000AF92BF92CF92DF92EF92FF920F931F9339
:103DC000CF93DF93C091180301E010E08EEFA82E8F
:103DD00088248394809119038C1313C00E946E1E53
:103DE000DF91CF911F910F91FF90EF90DF90CF90D7
:103DF000BF90AF909F908F907F905F904F900C946A
:103E000089054C2E512CF201EE0FFF1FE05FFC4F95
:103E100020813181C90167E070E00E94A82B8C509D
:103E20009D4FEC018C81811162C090909302A4E9B6
:103E3000B2E0F0E0E0E0B12CE91508F055C01A96C8
:103E4000ED90FC901B97C90167E070E00E94A82BE1
:103E50008C509D4FEC01C880D9804FEF5FEF712CE3
:103E6000872D90E0BC01660F771F6C0D7D1DEB0167
:103E7000688179816115710531F0E616F70609F45C
:103E8000AC017394EDCF4F3F5407C9F1B80102C0A4
:103E9000660F771F4A95E2F7B62AE80102C0CC0FF9
:103EA000DD1F7A94E2F7CE010197B816190619F5CD
:103EB000CF016CE070E00E94A82BFC01EC56FD4F96
:103EC000C90167E070E00E94A82BDC01AC50BD4F37
:103ED00012968D919C91139797838683A082A182DD
:103EE0003187208715968C92C9010E945E05E201F8
:103EF0002196C3706FCF14961C921E921397319621
:103F00001C969ACF2F923F924F925F926F927F9220
:103F10008F929F92AF92BF92CF92DF92EF92FF92D9
:103F20000F931F93CF93DF93CDB7DEB76A970FB68A
:103F3000F894DEBF0FBECDBF498B5A8B6B8B7C8B49
:103F40008D8B611110921D031D861E861F86188A97
:103F500085E0FE017196DE01199601900D928A9519
:103F6000E1F78091840382FD1CC00E941A05209114
:103F7000F8013091F901821B930B8838934120F0AE
:103F80008091FA0182FF00C20E941A0520911B0253
:103F900030911C02821B930B8838934110F00E94D1
:103FA000E8088C859D85892B31F089859A85892340
:103FB0008F3F09F0D5C129853A854B855C856D8594
:103FC0007E858F8598890E94F31DC3C068EFC61651
:103FD0006CE5D60629F4882379F00E94C51EEBCF44
:103FE00079EFC7167CE5D70639F4882329F080914C
:103FF0000E018111F2CFC4C104EF12E0E12CB12C0B
:10400000A12C88248394912C9EEF592E4424439410
:10401000F8014081518166246A94762C20E0822F39
:1040200090E0FC01EE0FFF1FE40FF51F608171812E
:104030006115710531F0C616D70609F43C012F5FF2
:10404000EECFF12CFFEF6F167F0609F443C0F801A5
:104050004481F0900E018F2D411180E0F82FF17016
:10406000FF2EF801358086819B85992309F408C1CC
:10407000FF2009F405C1311013C0A40101C0440F91
:104080006A94EAF7842B8683809190029091910242
:10409000C29730F462E370E07093910260939002F3
:1040A000C40102C0880F991F2A95E2F70197F80111
:1040B00026812817190671F480911A0390911B0329
:1040C000009709F45FC00E940B05C39708F45AC01B
:1040D000F8014482EF28FFEFAF1ABF0A095F1F4FB4
:1040E00024E0A216B10409F093CF8B85882309F44C
:1040F00022C1EE2009F41FC10E941A0590931B03F0
:1041000080931A0380919302883018F591E0980FFC
:104110009093930298E0FE013996DE01119601908A
:104120000D929A95E1F790E06CE070E00E94A82B68
:104130008C569D4F28E0FE013196DC0101900D92D6
:104140002A95E1F72FEF3FEFFC0131872087D386D7
:10415000C2866A960FB6F894DEBF0FBECDBFDF9160
:10416000CF911F910F91FF90EF90DF90CF90BF9074
:10417000AF909F908F907F906F905F904F903F9007
:104180002F90089520911803F0911903FE8B322F80
:10419000F0E0E0E06E89261315C0309318030E1787
:1041A0001F0709F497CF30E0F901EE0FFF1FE05F22
:1041B000FC4FB182A0822F5F3F4F237033272093A3
:1041C000190388CF622E712CF301EE0FFF1FE05F01
:1041D000FC4F8081918167E070E00E94A82BDC0198
:1041E000AC50BD4F6D917C9111977A8F698F40E0F3
:1041F00080E090E0E92FF0E0EE0FFF1F698D7A8DEF
:10420000E60FF71F2080318021143104E1F0F8011E
:104210000190F081E02DF88FEF8B80E005C026162D
:10422000370609F44F2D8F5FE82FF0E0EE0FFF1FE8
:104230006F89788DE60FF71F6081718161157105B7
:1042400071F79F5FD7CF4423C1F0F801891708F0B9
:10425000FD0144820E171F0721F430931803F42E3A
:1042600039CF321305C0AE17BF0711F43F5F33706B
:10427000C3010196282F23708DCFF0E0E0E0F8CF46
:1042800090E031101FC0F40102C0EE0FFF1F2A950D
:10429000E2F79F01215031098217930731F444233B
:1042A00009F447C0C5010E945E05C40101C0880F22
:1042B0006A94EAF7982F9095F8018681892386837E
:1042C000F32C08CF9C01062C02C0359527950A9443
:1042D000E2F7A90141705527BC016150710986239D
:1042E0009723892B11F5452B01F1F80182819381E8
:1042F000892BC1F01B821C821D821E8259825A8228
:104300000E941A058160582F9D838C83F801828159
:1043100093818F83988729813A814B816D817E813A
:104320000E94F31DF8011582C0CFF22FF1703F2ECD
:10433000BCCF3F2CBACF90911803809119039817E6
:1043400031F00E94D31EEE2009F435CE02CF0E9438
:104350006E1E10921B0310921A030E948905F3CF60
:1043600061E0CE0109960E94080D6C018B85F7EF84
:10437000CF16FCE5DF0609F029CE882309F43CCEF0
:1043800081E080930E0117CE82E00E94AE0FFCCD3B
:104390000F931F93CF93DF9300D000D00F92CDB730
:1043A000DEB78C0190938D0280938C02011580E220
:1043B000180720F5802F0E941413C8010E94E009FD
:1043C0009801205E31092830310510F0012B59F495
:1043D0000F900F900F900F900F90DF91CF911F9142
:1043E0000F910C9403130F900F900F900F900F905C
:1043F000DF91CF911F910F910C94F2128EEF898370
:104400008A831B820E941A058160782F9D838C838A
:1044100049815A816B818D810F900F900F900F9081
:104420000F90DF91CF911F910F910C94821F0F93EA
:104430001F93CF93DF938C01EB0168E572E08C2F23
:104440000E94E80B892B71F4DD27CC5ADD4F88815F
:10445000F80110821882833009F148F4813059F054
:10446000823081F0DF91CF911F910F9108958430B8
:10447000D1F08530B9F78091580290915902009798
:1044800089F306C080915A0290915B02009799F3DC
:10449000DF91CF911F910F910C94C82180915C0204
:1044A00090915D02F3CF80915E0290915F02009740
:1044B00079F7209158023091590280915A029091D7
:1044C0005B0221153105D9F2009711F7C901E0CF40
:1044D0000F931F93CF93DF9300D000D00F92CDB7EF
:1044E000DEB78C0190938D0280938C02011580E2DF
:1044F0001807E8F4C8010E94E0099801205E31091C
:104500002830310518F00115110571F40E940A13C5
:10451000802F0F900F900F900F900F90DF91CF9101
:104520001F910F910C946A130E94F912F1CF8EEF34
:1045300089838A8381E08B830E941A058160782FAA
:104540009D838C8349815A816B818D810F900F905F
:104550000F900F900F90DF91CF911F910F910C94BE
:10456000821FCF93DF93EC010E946822CE01DF917E
:10457000CF910C94C8210F931F93CF93DF938C019D
:10458000862F68E572E00E94E80B892BC9F4C09180
:104590005802D0915902209799F0F8018081833018
:1045A00069F4CE010E94B122CE010E94B122CE0157
:1045B000DF91CF911F910F910C94B1228430B8F705
:1045C000DF91CF911F910F9108950F931F93CF9378
:1045D000DF938C01EB0168E572E08C2F0E94E80B01
:1045E000892B09F064C0FE01FF27D8018C91EC5A99
:1045F000FD4F8130D9F419969C911997992311F0A8
:1046000080830CC01A969C919923D1F382E0808319
:1046100080915A0290915B020097D9F480915802E0
:1046200090915902009709F442C013C08230E9F515
:1046300019968C91199781112DC01A968C91811120
:104640000EC083E0808380915C0290915D020097B0
:1046500019F1DF91CF911F910F910C94682284E0A2
:10466000808380915E0290915F02009791F7809124
:104670005802909159020097F9F00E94B12280915E
:104680005A0290915B02009721F780915802909115
:104690005902DFCF85E080838091580290915902C2
:1046A000009729F00E94B122F0CF86E08083DF914D
:1046B000CF911F910F91089580915A0290915B02C2
:1046C000B1CF1F920F920FB60F9211242F933F93E9
:1046D0004F935F936F937F938F939F93AF93BF930A
:1046E000CF93DF93EF93FF93D091E900DF70809138
:1046F000EC00C82FC17080FDC0E81092E9008091E5
:10470000F000877F8093F00078940E94211010922F
:10471000E9008091F00088608093F000CD2BCF708D
:10472000C093E900FF91EF91DF91CF91BF91AF91DD
:104730009F918F917F916F915F914F913F912F91B9
:104740000F900FBE0F901F9018951F920F920FB6EB
:104750000F9211242F933F934F935F936F937F9307
:104760008F939F93AF93BF93EF93FF938091E1005B
:1047700082FF09C08091E20082FF05C08091E100C4
:104780008B7F8093E1008091E10080FF17C08091D2
:10479000E20080FF13C08091E2008E7F8093E200F0
:1047A0008091E20080618093E2008091D800806275
:1047B0008093D80019BC85E08093B5038091E10017
:1047C00084FF2BC08091E20084FF27C084E089BD74
:1047D00086E089BD89B5982F917080FFFBCF8091CD
:1047E000D8008F7D8093D8008091E1008F7E8093E8
:1047F000E1008091E2008F7E8093E2008091E200F0
:1048000081608093E2008091AC03882309F441C069
:1048100084E08093B5038091B5038091E10083FF2C
:1048200027C08091E20083FF23C08091E100877F51
:104830008093E10082E08093B5031092AC038091F5
:10484000E1008E7F8093E1008091E2008E7F809373
:10485000E2008091E20080618093E20042E060E04B
:1048600080E00E9479048091F00088608093F000DD
:10487000FF91EF91BF91AF919F918F917F916F9138
:104880005F914F913F912F910F900FBE0F901F900E
:1048900018958091E30087FD93E09093B503BBCF1B
:1048A00078941F921FB61F9211248F939F93AF93FA
:1048B000BF9380917F0390918003A0918103B09179
:1048C00082030196A11DB11D80937F039093800305
:1048D000A0938103B0938203BF91AF919F918F9179
:1048E0001F901FBE1F9018951F921FB61F92112474
:1048F0008F939F93AF93BF9380917E03811113C0D9
:1049000080917F0390918003A0918103B0918203F5
:104910004196A11DB11D80937F0390938003A093C6
:104920008103B0938203BF91AF919F918F911F90AC
:104930001FBE1F901895CDB7DEB7E6970FB6F89457
:10494000DEBF0FBECDBF84B7877F84BF0FB6F8949C
:10495000A89580916000886180936000109260004B
:104960000FBE80E890E00FB6F894809361009093BA
:1049700061000FBE8EEF96E090936D0180936C0105
:104980000E94FE0B0E946F0D1092E2001092E10057
:104990008091E00081608093E0008091D8008F7763
:1049A0008093D80019BC809163008160809363007C
:1049B00010922202809163008E7F8093630081E0D9
:1049C000809322021092E2001092E1008091D800C0
:1049D0008F778093D8008091D80080688093D8002A
:1049E0008091D8008F7D8093D80084E089BD86E0D7
:1049F00089BD89B5282F2170322E80FFFACF109201
:104A0000B5031092AC031092AB031092AA0342E0DC
:104A100060E080E00E9479048091E1008E7F8093C5
:104A2000E1008091E20081608093E2008091E200E9
:104A300088608093E2008091E0008E7F8093E000A8
:104A40008091E20084608093E20078948091B503C5
:104A50008823A1F01091E9001F709091EC00892F3C
:104A6000817090FD80E8182B1092E9008091E80099
:104A700083FD0E9421101F701093E90082E084BD25
:104A800093E095BD9AEF97BD80936E000E94480D0C
:104A9000811102C00E94D90B09E411E0FEE4EF2E5F
:104AA000F1E0FF2ED8018D918D018F3F11F00E9412
:104AB0000007E016F106B1F70EE411E0F80181916C
:104AC0008F018F3F11F00E940007F1E00D351F07A5
:104AD000A9F78AE0EDE3F2E0DF01282F1D922A9585
:104AE000E9F7E3E2F2E0DF011D928A95E9F790E051
:104AF00080E00E94232C893E9E4F21F40E94480DA5
:104B0000811102C00E94461582E090E00E941B2C99
:104B100080932D020E94610D909384038093830300
:104B20000E94C80DEFE3FCE93197F1F700C00000E7
:104B30000E94C80D80913D0280FF08C06FEF7FEF9B
:104B400090E080E00E94472C0E94A40A83E090E05D
:104B50000E941B2C0E94081080E091E090937B0340
:104B600080937A038091B50304E016E0853009F460
:104B7000CEC10E94C80D882359F08FB7F894409198
:104B80007F035091800360918103709182038FBFF6
:104B90007DE3672E72E0772EEEE2CE2EE2E0DE2E8F
:104BA000512C412CF301819091903F01D601ED9061
:104BB000FD906D01E814F904A9F1212C01E010E049
:104BC000E824F9245D01B2E0AB1AB108C7018023E3
:104BD0009123892B09F12BA64CA621E0C80188213D
:104BE0009921892B09F420E02DA70E941A058160E4
:104BF000782F9FA78EA74BA55CA56DA58FA50E94BA
:104C0000821FF50180819181802791279183808384
:104C10005394FBE0F515E0F02394000F111F2FE0F3
:104C20002212D4CF439435E04312BCCF511010C0B0
:104C30008FEF88AB89AB1AAA0E941A058160782F82
:104C40009CAB8BAB48A959A96AA98CA90E94821F69
:104C500080910C0190910D01D12C019609F096C123
:104C600080910E0181119CC186E0EEE4F2E08E019C
:104C70000F5F1F4FD80101900D928A95E1F7D090F8
:104C80005002C0905102F0905202E09053021092F4
:104C900050021092510210925202109253028D2D26
:104CA0008C2909F44DC080914C0290914D020E94D4
:104CB0000B059C0190914802992309F43BC52531CD
:104CC000310508F43DC09F3F19F09F5F9093480263
:104CD000DD2051F00E9475066FEF1D140CF4632D5A
:104CE0000E949F2B80935002CC2051F00E947506A9
:104CF0006FEF1C140CF4632D0E949F2B80935102C4
:104D0000809150028823E1F0209151022223C1F0CA
:104D1000082E000C990B65EB70E00E94A82B9923DC
:104D200009F469C190935002822F220F990B65EB11
:104D300070E00E94A82B992309F461C1909351025D
:104D40008F2D8E2909F44DC080914A0290914B021B
:104D50000E940B059C0190914702992309F4E5C438
:104D60002135310508F43DC09F3F19F09F5F9093B6
:104D70004702FF2051F00E9451066FEF1F140CF400
:104D8000632D0E949F2B80935202EE2051F00E94CF
:104D900051066FEF1E140CF4632D0E949F2B80931D
:104DA0005302809152028823E1F020915302222382
:104DB000C1F0082E000C990B65EB70E00E94A82B47
:104DC000992309F420C190935202822F220F990B4C
:104DD00065EB70E00E94A82B992309F418C1909309
:104DE00053028091500290915102892B909152026E
:104DF000892B90915302892B11F00E94A70586E020
:104E0000F801AEE4B2E001900D928A95E1F70E94BC
:104E10005205909138028913809338028091B5032E
:104E2000843009F09FCE83E08093E9008091E80010
:104E300082FF98CE8091E80090E085FF0AC00E9432
:104E4000D70340E2C42ED12C7801882309F4EDC0A9
:104E500091E08091E8008B778093E800992309F432
:104E600081CEE0908E02F0908F028981E114F104EE
:104E700009F4E9C08E3F09F073C18A81833020F0C4
:104E80008550833008F06CC1EA81EE3008F068C1CB
:104E9000F0E0E358F34D0C94CD2B8091B5038430B2
:104EA00021F110927E0328E130E080E40FB6F894FF
:104EB000A895209360000FBE8093600083B7817F28
:104EC000846083BF83B7816083BF7894889583B7FC
:104ED0008E7F83BF0FB6F894A8958091600088619B
:104EE00080936000109260000FBE8091AB03882316
:104EF00071F00E94C80DEDE3F2E081919191892B50
:104F000009F0F5C3A7E4B2E0AE17BF07B1F780918F
:104F1000B503853009F4C1CF0E940C100E945205E0
:104F200028CEC80166E170E00E94A82B805E9C4FED
:104F3000FC01E288F388E114F10419F458ECE52E41
:104F4000F12CC80166E170E00E94A82B805E9C4FA6
:104F5000DC0116968C9116978823B9F0FD018585A2
:104F600096850E940B05E816F90678F4C80166E1FB
:104F700070E00E94A82B8C01805E9C4F0E94540F11
:104F8000C8018A5D9C4F0E94150FD3940D2D10E02F
:104F900080910C0190910D018017910714F660CE5D
:104FA00080911A0390911B03009709F45DCE0E9433
:104FB0000B0520919002309191022817390708F0D3
:104FC00053CE9091180380911903981759F00E94BD
:104FD000D31E109291021092900210921B03109215
:104FE0001A0342CE0E946E1E10921B0310921A03E7
:104FF0000E94890539CE81E08093500295CE81E0F0
:10500000809351029DCE81E080935202DECE81E0FA
:1050100080935302E6CE8091F100D7018D937D01FC
:10502000B1E0CB1AD10809F413CF8091E80085FDD7
:10503000F2CF8091E8008B778093E8000E94D7033D
:10504000882399F305CF8C3009F4EAC050F58430F9
:1050500009F4CDC058F4823009F468C008F0B8C033
:10506000813009F45FC08FEF89837AC0863009F4FC
:10507000D4C008F4C7C08B30B1F780918A029091F8
:105080008B02892B09F46CC0C8010E9432043FEFE7
:1050900081EE94E0315080409040E1F700C0000084
:1050A00053CD803109F4EDC088F58E3009F4BFC0CE
:1050B00008F4B9C080918A0290918B02892B09F47F
:1050C0004FC0EC80F12C3DE1E316F10408F048C03C
:1050D000CA80DB80DC24CD24DC245801E00EF11EE4
:1050E000C60181539D4FEA14FB04D1F1A1E3CA1616
:1050F000A1E0DA0620F4F50164810E94292CFFEF7B
:10510000AF1ABF0A2FEFC21AD20AEACF823109F4CE
:10511000BDC008F4B9C0833109F4E1C08E3F09F085
:10512000A2CFB2CE1A8289E08B831AC08A818230E4
:1051300009F4F3C28330C1F0813009F094CF2FB766
:10514000F89460917F037091800380918103909126
:1051500082032FBF0E94D32B6B837C838D839E831E
:10516000C8010E943204FECC80918A0290918B0289
:10517000892BB1F380913D0290913E0298278927B7
:1051800098279C838B8380913F02909140029827BF
:10519000892798279E838D838091410290914202B6
:1051A00098278927982798878F8380914302909129
:1051B00044029827892798279A87898780914502F2
:1051C000909146029827892798279C878B87C8CF7C
:1051D0008A81823009F047CF6B817C818D819E81ED
:1051E0000E94D32B86E290E00E94292CB9CF4C81FB
:1051F0006B818A810E94540C9827892798279E8367
:105200008D83AECF2D813E813227232732274C81DB
:105210006B818A810E94D80AA3CF0E942C0BA0CF59
:1052200080E18A839DCF81E08A8381E37DCFEC801A
:10523000F12CEDE1EE16F10408F092CFCA80DB808C
:10524000DC24CD24DC245801E00EF11EC60181537C
:105250009D4FEA14FB0409F483CFF1E3CF16F1E08C
:10526000DF0660F40E941B2CD50114968C93FFEF8F
:10527000CF1ADF0A2FEFA21AB20AE8CFF501148283
:10528000F6CF0E94C80A6CCF84E0CBCFEC80F12C23
:105290003DE1E316F10408F063CFCA80DB80DC2433
:1052A000CD24DC245801E00EF11EC6018796EA14D5
:1052B000FB0409F455CFA8E5CA16A2E0DA0658F4B3
:1052C0000E941B2CF5018483BFEFCB1ADB0AEFEFA2
:1052D000AE1ABE0AEACFD50114961C92F5CFCC8047
:1052E000D12CFDE1CF16D10408F03ACFEA80FB8043
:1052F000FE24EF24FE2428E5E21622E0F20608F060
:105300002FCF88E592E08E199F098C159D0508F432
:1053100027CF370137E2630E711C80918A0290918A
:105320008B0226014E0C5F1C892BB9F5570181E0D9
:10533000A822BB24E0FE0DC0C70186960E941B2C4C
:105340009D8189279827892781159C4511F48FEF26
:105350008D83460140FE1AC0B1E08B1A9108E5E04A
:10536000F0E0EC0FFD1FE80DF91DFEABEDABC30146
:105370008C0D9D1D0E941B2CADA9BEA99C91811571
:105380009C4521F48FEFEDA9FEA98083F801EA0D79
:10539000FB1D2FEFA814B90410F068011BC0948105
:1053A000858181159C4511F42483258382E0A80E14
:1053B000B11C3296EFCFA8E5EA16A2E0FA0620F477
:1053C000F60164810E94292CFFEFCF1ADF0A2FEF2C
:1053D000E21AF20AC7018796E414F50461F7C0CE19
:1053E00088E0E0E1F1E0DE01919601900D928A956E
:1053F000E1F780E2D8011D928A95E9F785E089837B
:1054000088E0FE01B196DE01159601900D928A9515
:10541000E1F7A6CE8CEE898381E08A831B821C8211
:105420009FCE8C81682F70E0762F66278B81860F48
:10543000972F911D092E000CAA0BBB0B35E0880F8E
:10544000991FAA1FBB1F3A95D1F7AC01BD01405E61
:105450005F4F6F4F7F4F481759076A077B0708F464
:105460007FCE8C3EE1E09E07A105B10508F078CE25
:105470004D3EF1E05F076105710520F04CEE51E013
:1054800060E070E0481B590BBC016E5B7D4FC801AA
:105490000E94EE2B65CE4AE150E06FEF70E0CE0146
:1054A00007960E94042C80918A028983EA821B82DB
:1054B0001C8282E08D838DE08E8352CE81E090E06D
:1054C00090938F0280938E0282E390E090933C024F
:1054D00080933B020E941A0590933A02809339020E
:1054E0003FCEEF2889F1D0903D02E0904102F0904C
:1054F00042028091390290913A020E940B05853652
:10550000910558F1F5FAEE24E0F8EE2031F1D0FEE5
:1055100024C00E941A0590933A0280933902809128
:105520003B0290913C02019790933C0280933B0296
:10553000892B51F410928F0210928E0281E090E03C
:1055400090938B0280938A0280918A028983809152
:105550008E028A8380913B02E7CD82E390E09093B4
:105560003C0280933B02F0CF10928B0210928A0291
:10557000F7CD40E250E06FEF70E0C8010E94042CCC
:10558000EFCD8B81823009F457C0F0F4882309F401
:1055900049C0813009F0E4CD8C819AE0D92E7E019A
:1055A000B1E2EB0EF11CF7012D2D11922A95E9F7CE
:1055B000B7010E94E80B8983F701DE011296019082
:1055C0000D92DA94E1F7CCCD833009F46FC08430CA
:1055D00009F0C6CDFC808AE0FE013596DE01919689
:1055E00001900D928A95E1F789A59AA50E949A05E6
:1055F0009AA789A7B3E08FEFBF1580F08F2D90E0B9
:105600006AE070E00E94A82BBC0169557D4F4AE01A
:1056100050E0CE0181960E944D2C80E089830E944B
:105620006F0D9ECDFE0133968EE1DF011D928A95AE
:10563000E9F784E08983F5CDFC808AE0FE013596A8
:10564000DE01919601900D928A95E1F789A19AA1C8
:105650000E949A059AA389A38BA19CA10E949A05F6
:105660009CA38BA38DA19EA10E949A059EA38DA3AE
:105670008FA198A50E949A0598A78FA333E08FEF7A
:105680003F1580F08F2D90E06AE070E00E94A82B1B
:10569000BC0161587D4F4AE050E0CE0181960E94E6
:1056A0004D2C80E089830E94FE0B5ACD8C81FE0137
:1056B000B1969AE0DF011D929A95E9F78430A8F43B
:1056C00090E06AE070E00E94A82BBC0169557D4F14
:1056D0004AE050E0CF010E940B2C80E089838AE0F1
:1056E000FE01B196DE01129690CE8FEFF7CF09BD85
:1056F00019BD09B400FEFDCF8091D8008F7D809345
:10570000D8008091E00082608093E0008091E0000A
:1057100081FDFCCF0E940C10FACB86E290E00E9443
:105720001B2C1B821C821D82C7CE2B30310508F03A
:105730001DCB57CB2B30310508F0C7CA01CB002455
:1057400080FD060E660F11F08695D1F7802D089525
:105750000024552704C0080E591F880F991F009771
:1057600029F076956795B8F37105B9F7802D952FD7
:10577000089597FB072E16F4009407D077FD09D003
:105780000E94DA2B07FC05D03EF4909581959F4F3F
:105790000895709561957F4F0895EE0FFF1F059056
:1057A000F491E02D099469279627692778278727A0
:1057B00078270895AA1BBB1B51E107C0AA1FBB1F76
:1057C000A617B70710F0A61BB70B881F991F5A958D
:1057D000A9F780959095BC01CD010895FB01DC01EE
:1057E00002C005900D9241505040D8F70895FB013A
:1057F000DC0104C08D910190801921F4415050408A
:10580000C8F7881B990B0895DC0101C06D934150C6
:105810005040E0F70895DC01CB01FC01F999FECF7F
:1058200006C0F2BDE1BDF89A319600B40D92415028
:105830005040B8F70895F999FECF92BD81BDF89A0E
:10584000992780B50895A8E1B0E042E050E00C94BB
:105850000D2C262FF999FECF92BD81BDF89A0197A4
:1058600000B4021639F01FBA20BD0FB6F894FA9AA8
:10587000F99A0FBE08950396272F0E942A2C0E94A2
:10588000292C252F0E942A2C242F0C942A2C019697
:10589000272F0E942A2C0C94292CDC01CB0103C059
:1058A0002D910E94582C41505040D0F70895262F3A
:1058B000F999FECF1FBA92BD81BD20BD0FB6F894F5
:1058C000FA9AF99A0FBE01960895F894FFCF051140
:1058D0002D11DA122D11DA1260118111DA128912EA
:1058E0009612181918194E194E19041A1E1A7B19F6
:1058F0007B19291A941AA31AA31AF0290A2A112A21
:10590000B028B0284B2A5E2A712AB42AB92AB028B6
:06591000B028B028C12AF6
:105916000805640A430A3F0A3B0A0705FFFF01011F
:10592600C5A098D42FE11A7B818283E200E900EAC0
:1059360000B500B600B700CD008301CC008A019205
:105946000194012102230224022502260227022AAB
:1059560002B300B4006F00700065643067376636C6
:10596600353433323196959493929190624022BCAD
:0C5976005201300174009806B106D10601
:00000001FF
