:100000000C9479070C94B1070C94B1070C94B107C8
:100010000C94B1070C94B1070C94B1070C94B10780
:100020000C94B1070C94B1070C9484280C944028CC
:100030000C94D7290C94B1070C94B1070C94B10718
:100040000C94B1070C94B1070C94B1070C94B10750
:100050000C94FE290C94B3290C94B1070C94B107AD
:100060000C94B1070C94B1070C94B1070C94B10730
:100070000C94B1070C94B1070C94B1070C94B10720
:100080000C94B1070C94B1070C94B1070C94B10710
:100090000C94B1070C94B1070C94B1070C94B10700
:1000A0000C94B1070C94B1070C94B1070631FF0909
:1000B00074A1010975150026FF00952075088102BD
:1000C0000976150026FF00952075089102C00501EC
:1000D0000980A101850319012AB700150126B7007F
:1000E000950175108100C0050C0901A10185041955
:1000F000012AA002150126A002950175108100C0F9
:1001000005010906A1018506050719E029E7150083
:1001100025019508750181020507190029EF1500D1
:10012000250195F07501810205081901290595053C
:1001300075019102950175039101C00660FF096187
:10014000A1010962150026FF0095207508810209AA
:1001500063150026FF00952075089102C00501096E
:1001600006A101050719E029E71500250195087585
:100170000181029501750881010507190029FF1504
:100180000026FF009506750881000508190129055C
:10019000950575019102950175039101C00000005C
:1001A000000000000000000000000000000000004F
:1001B000000000000000000000000000000000003F
:1001C000007E0F00D4FFFFFFC70000007800000092
:1001D00000000000002A2B280000000000000000A2
:1001E000000000000000000029000000002C1E3468
:1001F00020212224342627252E362D3738271E1F6E
:10020000202122232425263333362E37381F040598
:10021000060708090A0B0C0D0E0F10111213141506
:10022000161718191A1B1C1D2F3130232D350405E4
:10023000060708090A0B0C0D0E0F101112131415E6
:10024000161718191A1B1C1D2F3130354C3F00434F
:100250003E20005B735D000A002530313662003AB3
:10026000200025303258000A722F6320303132339B
:100270003435363738394142434445460A00000494
:100280007F3F1F643214643214783C1E1E140A052A
:10029000FD377A585A000004E6D6B4460200210120
:1002A00016000000742FE5A3E0087F02575D003DB3
:1002B0008889C65436C3174FE4DF16C7ECD8FFA6AB
:1002C00036CA698C94F03F69F950217DFB35D945D8
:1002D000F3D564B41DCAFC7A61B3C81CF3F0F5D140
:1002E0005636EBB65364DC35D95EFE8DA95F27E642
:1002F0005BA897C5019D3A642FB476EB0087E4585C
:100300005DBE6A5D50CD0654F9C2C26AA2A7035D04
:1003100037E608793CD00B76C4BECE974D2E4148C7
:1003200022622655F997DD7600B57EF5A67B02E3BD
:1003300067B057155DF32F9BC2705F6F9AD1F26E55
:10034000CC9CB0856AE35E5C99B42C6872F129A2FA
:1003500047387BE82213FAC739CB762A2EDEA2056E
:100360007BACF776A35D6F2C1E0E5EF6429C97D792
:10037000C45A4F872651DD4F445539DF770CB356A9
:10038000756903B3C38BAEB31FFBC336DAEF9C6250
:100390007BC7C2C2F7A71036FAC257E754836D5C19
:1003A0000BB332B8E832B9806186D67618393CC7CB
:1003B0004FCF67996209EECE37E3EAA06C96D27F01
:1003C000749DF9DCA97AF07A596AB429EC94F7465D
:1003D0006113A48EC9639D2B4027B5D90C5C7EC0E8
:1003E0008A6B67DF833ABC7DB5C7DE4C5811202E7F
:1003F00070D0DC7677809D079FEA162724E5658517
:10040000CC5D29122C46C61CF00018BBC958C19AF5
:10041000F8CCFA42AA95792FC2F8D95F7364E0321A
:10042000552A492238DCB42DB83116B2452B31F5A6
:10043000C3B039D75722E9E73312BA01A522121007
:1004400072CAECD053897355C6BA781C3A45847881
:10045000C822ED53BF25CBC537E12DC9E63B43BAD2
:10046000910D73C5F50CAD37E72C61246F7AA4A606
:10047000E2E398A587CE26217534DAFDFC06E96C07
:10048000789FFD4772EF3192ADC9D9025070A83EF6
:10049000395FEE5493EC818A758FCE944BB6FFA1F1
:1004A000A4CE984FE5335A946F3CCAB525D6256C37
:1004B0003F1958E6B278795EAECD76E5E188CC8218
:1004C0002B1BBB2D89477923752ECA047D2BADE6E6
:1004D000DC4BFB6CB5304D179761D11BE026D20F7A
:1004E000BE3C8CF4175A84E6A15EE792895BC83063
:1004F000F7016148E6470C294C4B26318CA7FF8A4F
:1005000003F412A1C02E00007C2A0276FBFDD25A11
:100510000001F30480110000D6666E55B1C467FB7C
:10052000020000000004595A00010101010101010B
:100530000101020202020202020202030303030398
:100540000303030404040404040405050505050667
:100550000606060607070707070808080809090925
:10056000090A0A0A0B0B0B0C0C0C0D0D0D0E0E0ECE
:100570000F0F0F101011111112121313141415155F
:1005800016161717181819191A1A1B1B1C1D1D1ED1
:100590001E1F202021222223242425262627282925
:1005A000292A2B2C2D2D2E2F303132323334353653
:1005B0003738393A3B3C3D3E3F4041424344454653
:1005C0004748494A4C4D4E4F50515354555658592F
:1005D0005A5B5D5E5F616264656668696B6C6D6FD6
:1005E0007072737577787A7B7D7E80828385878849
:1005F0008A8C8E8F91939596989A9C9EA0A2A3A583
:10060000A7A9ABADAFB1B3B5B7BABCBEC0C2C4C683
:10061000C9CBCDCFD1D4D6D8DBDDDFE2E4E7E9EB3F
:10062000EEF0F3F5F8FAFDFFFFAA7F5540222325EF
:100630002628292A2C2D2F3032333536383A3B3DA7
:100640003E4042434547494A4C4E505153555759F5
:100650005A5C5E6062646668696B6D6F7173757712
:10066000797B7D7F81838587898A8C8E9092949611
:10067000989A9C9E9FA1A3A5A7A8AAACAEAFB1B320
:10068000B4B6B8B9BBBCBEBFC1C2C3C5C6C7C9CA70
:10069000CBCCCDCED0D1D2D2D3D4D5D6D7D7D8D932
:1006A000D9DADADBDBDBDCDCDCDCDCDDDDDDDDDC90
:1006B000DCDCDCDCDBDBDBDADAD9D9D8D7D7D6D5A2
:1006C000D4D3D2D2D1D0CECDCCCBCAC9C7C6C5C364
:1006D000C2C1BFBEBCBBB9B8B6B4B3B1AFAEACAAB1
:1006E000A8A7A5A3A19F9E9C9A98969492908E8C61
:1006F0008A89878583817F7D7B79777573716F6D3B
:100700006B6968666462605E5C5A59575553515014
:100710004E4C4A4947454342403E3D3B3A383635C8
:100720003332302F2D2C2A292826252322000000A1
:10073000000000000000000001010203040506089B
:100740000A0C0F1114181C2024292E33393F464C53
:10075000535B626A7179818A929AA2AAB2B9C1C8BE
:10076000CFD5DCE1E7EBF0F4F7FAFCFDFEFFFEFD90
:10077000FCFAF7F4F0EBE7E1DCD5CFC8C1B9B2AAD7
:10078000A29A928A8179716A625B534C463F3933EF
:100790002E2924201C1814110F0C0A080605040326
:1007A00002010100000000000000000000165C1EB5
:1007B000001F002000210022002300240025002625
:1007C0000027002D002E002A002B0014001A00081C
:1007D00000150017001C0018000C00120013002F59
:1007E0000030003100390004001600070009000A3B
:1007F000000B000D000E000F003300340001002834
:1008000000E10001001D001B000600190005001199
:100810000010003600370038000100E500E000E37A
:1008200000E200000000002C000000000000003585
:1008300000E60001516500E40035003A003B003C51
:10084000003D003E003F00400041004200430044A4
:1008500000450001000100010052000100005C01A0
:100860000001000100010001000100010001000180
:10087000000100500051004F000100010001000183
:100880000001000100010001000100010001000160
:100890000001000100010001000100010001000150
:1008A0000001000100010001000100010001000041
:1008B0000000000100000000000000010001000134
:1008C00000010001006261636B6C696768745F63BB
:1008D0006F6E6669672E7261773A20253032580A4A
:1008E0002E656E61626C653A2025750A2E6C657600
:1008F000656C3A2025750A006B65796D61705F63E0
:100900006F6E6669672E7261773A20253032580A19
:100910002E737761705F636F6E74726F6C5F63616B
:1009200070736C6F636B3A2025750A2E6361707368
:100930006C6F636B5F746F5F636F6E74726F6C3A32
:100940002025750A2E737761705F6C63746C5F6C21
:100950006775693A2025750A2E737761705F726337
:10096000746C5F726775693A2025750A2E7377611A
:10097000705F6C616C745F6C6775693A2025750AED
:100980002E737761705F72616C745F726775693A1C
:100990002025750A2E6E6F5F6775693A2025750AE6
:1009A0002E737761705F67726176655F6573633A16
:1009B0002025750A2E737761705F6261636B736CBB
:1009C0006173685F6261636B73706163653A202570
:1009D000750A2E6E6B726F3A2025750A0064656287
:1009E00075675F636F6E6669672E7261773A20255F
:1009F0003032580A2E656E61626C653A2025750AA0
:100A00002E6D61747269783A2025750A2E6B6579AE
:100A1000626F6172643A2025750A2E6D6F75736579
:100A20003A2025750A006565636F6E6669673A0A44
:100A300064656661756C745F6C617965723A2025D6
:100A4000750A000A092D204D61676963202D0A444B
:100A50003A094465627567204D6573736167652067
:100A6000546F67676C650A583A094D61747269780A
:100A7000204465627567204D6F646520546F676719
:100A80006C65202D2053686F77206B6579707265D7
:100A90007373657320696E206D6174726978206765
:100AA0007269640A4B3A094B6579626F617264201E
:100AB000446562756720546F67676C65202D20530D
:100AC000686F77206B6579707265737320726570DB
:100AD0006F72740A4D3A094465627567204D6F75EF
:100AE000736520546F67676C650A563A09566572DC
:100AF00073696F6E0A533A095374617475730A43CC
:100B00003A09416374697661746520436F6E736F4F
:100B10006C65204D6F64650A46312D4631303A09C7
:100B200053776974636820746F204C617965722013
:100B3000302D392028463130203D204C30290A30D4
:100B40002D393A0953776974636820746F204C61BA
:100B500079657220302D390A47524156453A09537A
:100B6000776974636820746F204C617965722030F6
:100B70002028616C7465726E617465290A423A09B5
:100B80004A756D7020746F20426F6F746C6F616472
:100B900065720A4553433A094A756D7020746F2097
:100BA000426F6F746C6F616465722028616C74654C
:100BB000726E617465290A453A095072696E742033
:100BC000454550524F4D2053657474696E67730AE2
:100BD0004253504143453A09436C65617220454593
:100BE00050524F4D0A4E3A094E4B524F20546F67A8
:100BF000676C650A000A092D20436F6E736F6C6580
:100C0000202D0A4553432F713A09717569740A0002
:100C10000A092D2056657273696F6E202D0A564998
:100C2000443A2030783433333528534154414E29E7
:100C3000205049443A203078303030322847483606
:100C40003020536174616E29205645523A20307825
:100C5000303030330A4255494C443A2020284F6303
:100C6000742031302032303232290A4F5054494FEB
:100C70004E533A204C5546412045585452414B451D
:100C80005920434F4E534F4C4520434F4D4D414EFD
:100C900044204E4B524F204C544F20343039360AAA
:100CA0004743433A20382E332E30204156522D4CA4
:100CB0004942433A20322E302E30204156525F4175
:100CC0005243483A20617672350A000A092D2053B2
:100CD0007461747573202D0A686F73745F6B657926
:100CE000626F6172645F6C65647328293A202530F5
:100CF00032580A6B6579626F6172645F70726F74EB
:100D00006F636F6C3A20253032580A6B6579626FD9
:100D10006172645F69646C653A20253032580A6BF1
:100D200065796D61705F636F6E6669672E6E6B7259
:100D30006F3A20253032580A74696D65725F7265AA
:100D40006164333228293A202530386C580A003F34
:100D5000004E4B524F3A206F66660A004E4B524F80
:100D60003A206F6E0A000A6D6F7573653A206F66E0
:100D7000660A000A6D6F7573653A206F6E0A000A85
:100D80006B6579626F6172643A206F66660A000A69
:100D90006B6579626F6172643A206F6E0A000A6D4A
:100DA00061747269783A206F66660A000A6D617430
:100DB0007269783A206F6E0A000A64656275673A54
:100DC000206F66660A000A64656275673A206F6E76
:100DD0000A000A0A4A756D70696E6720746F206296
:100DE0006F6F746C6F616465722E2E2E2000433E0F
:100DF0002000436C656172696E6720454550524F13
:100E00004D0A004C25640A005B435D005B445D00B5
:100E10005B535D005B575D005B525D0009027B0028
:100E2000040100A0FA0904000001030101000921E6
:100E30001101000122400007058103080001090497
:100E4000010002030000000921110100012222001B
:100E500007058203200001070503032000010904A0
:100E600002000103000000092111010001226D00B0
:100E700007058403200001090403000203000000A9
:100E8000092111010001222200070585032000012C
:100E900007050503200001120100020000000835CB
:100EA0004302000300010203011C03760069006194
:100EB000006C003A006600360034006300320062C5
:100EC000003300630000001603470048003600307E
:100ED00000200053006100740061006E0000000CEF
:100EE0000353004100540041004E00000004030978
:100EF000040011241FBECFEFDAE0DEBFCDBF04B681
:100F000003FE18C08091E3029091E402A091E502F3
:100F1000B091E6028730904BA740B04B59F4109245
:100F2000E3021092E4021092E5021092E602E0E081
:100F3000F8E3099511E0A0E0B1E0E8E8F5E602C0C9
:100F400005900D92A23AB107D9F722E0A2EAB1E0EA
:100F500001C01D92A33EB207E1F70E94752A0C94CE
:100F600058320C940000FF93EF93E091A201F091AE
:100F7000A301309709F00995EF91FF910895FC01C5
:100F80008591803011F0EFDFFBCF0895FF27E0E27D
:100F900030E247FF0CC0419597FF09C0EDE2609534
:100FA000709580959095611D711D811D911D27FF84
:100FB00002C0219530E350E2AA27660F771F881FF1
:100FC000991FAA1FA41710F0A41B63955A95A9F79F
:100FD000AA3008F0A95FA05DAF93F3956115710584
:100FE0008105910541F7ED3211F4EF93F395F21776
:100FF00018F43F93F395FBCF8F91B5DFFA95E1F7A6
:101000000895E991F9918591803021F0853219F0A8
:10101000AADFF9CF089520E0E89455915532C1F345
:10102000503311F4689455915A3348F4505390F367
:10103000220F022E220F220F200D250FF4CF0EF4C7
:10104000219589919991533619F3533729F15335E5
:1010500059F1BC0188279927E8945C3621F48991DD
:10106000999168945591543639F446EF7EF077FFA4
:101070000DC08FEF9FEF0AC055374AE039F0583561
:1010800040E121F0523642E009F00895FF93EF93DA
:101090007DDFEF91FF91B7CFFF93EF93FC0181913B
:1010A0008030B9F360DFFBCFFF93EF9368DFF1CFC0
:1010B000DF93CF93CDB7DEB72596A3DFCF91DF9136
:1010C0000895E8EDF0E080818E7F80831092E20049
:1010D0001092DA001092E100A0EEB0E08C918160F5
:1010E0008C9380818F77808319BCA7EDB0E08C91C1
:1010F0008E7F8C9380818F7E80831092B0020895C2
:101100002091E4003091E50095E6A9012091EC00E2
:10111000822F817020FF06C08091E80080FF06C00A
:1011200080E008952091E80022FD1AC08091DE023F
:10113000882389F0853089F08091EB0085FD0FC010
:101140002091E4003091E50042175307F9F29150E5
:10115000E1F684E0089582E0089583E0089581E057
:101160000895EF92FF920F931F93CF937C018B0111
:101170000E948008C82F811117C08091E80085FD6A
:101180000BC08091E8008E778093E8000E94800871
:10119000882399F3C82F08C0F70181917F018093BC
:1011A000F1000150110949F78C2FCF911F910F9138
:1011B000FF90EF900895CF93FC018091DE02843080
:1011C00001F5C091E900CF702091EC00922F917051
:1011D00020FD90E8C92B82E08093E9008091E8002F
:1011E00080FF0CC050E040E060E270E0CF010E9460
:1011F000B1088091E8008E778093E800CF70C093AB
:10120000E900CF9108958091D60287FF13C08091A5
:10121000E80082FF06C08091E8008B778093E800A9
:1012200004C08091DE028111F2CF08958091DE0228
:101230008823D9F38091E80080FFF8CF8091E800FF
:101240008E77ECCF982F9093E900242F762F50E0E3
:10125000891731F07091EC002091ED005091F00071
:1012600021FD07C09F5F973071F78093E90081E00F
:1012700008953091EB003E7F3093EB003091ED000C
:101280003D7F3093ED003091EB0031603093EB0007
:101290007093EC002093ED005093F0002091EE004D
:1012A00027FDE0CF80E00895B0E0A0E0EAE5F9E0B6
:1012B0000C94B931C8EDD0E088818F7E8883E7ED4A
:1012C000F0E080818160808384E082BF81E0809350
:1012D000B00288818E7F888302EE10E0F8011082D0
:1012E0001092DA0081EEC82ED12CF601108288818E
:1012F0008F77888388818068888388818F7D8883C1
:1013000019BC1092DE021092D5021092D4021092F3
:10131000D30290EEE92EF12CF70180818B7F808340
:1013200088818160888342E060E080E00E94220939
:10133000F60180818E7F8083F801808181608083C7
:10134000808188608083F70180818E7F808388819F
:1013500080618883CDB7DEB7E8E00C94D531FC011D
:101360008091DC029091DD0286179707A0F061154D
:10137000710529F49091E8009E779093E80090E041
:101380006115710551F4911108C08091E80082FF48
:1013900034C080E00895BC01F2CF8091DE02882342
:1013A000C1F18530C1F18091E80083FD30C08091AA
:1013B000E80082FDEACF8091E80080FFE1CF8091D4
:1013C000F3002091F200382F6115710519F02830D3
:1013D000310558F091E02830310509F090E0209176
:1013E000E8002E772093E800CBCF81918093F10025
:1013F000615071092F5F3F4FE7CF8091DE02882354
:1014000041F0853041F08091E80083FFBECF81E05C
:10141000089582E0089583E0089508950895089559
:101420008091B20208959C014FB7F8948091A40274
:101430009091A502A091A602B091A7024FBF821B76
:10144000930B08952FB7F8948091A4029091A50270
:10145000A091A602B091A7022FBF08952091A102EA
:101460003091A2022817390771F09093A20280935D
:10147000A102E0919F02F091A002309721F0008438
:10148000F185E02D0995089520919D0230919E02ED
:101490002817390771F090939E0280939D02E09186
:1014A0009F02F091A002309721F00680F781E02D95
:1014B00009950895E0919F02F091A002309729F0DC
:1014C0000190F081E02D0995089580E00895B0E045
:1014D000A0E0EDE6FAE00C94B5318C018091860035
:1014E000909187006CE070E00E94273160177107CF
:1014F00058F0C80169E070E00E942731CB01CDB7F8
:10150000DEB7ECE00C94D131809186009091870099
:10151000E0908600F0908700C0908600D090870011
:10152000C6E0D0E0BE010E94273130E020E0060F87
:10153000171F211D311D4801590185E0880C991C98
:10154000AA1CBB1C8A95D1F7C701BE010E94273196
:10155000F12CE12CA7019601260F371F411D511DCB
:10156000C501B4010E944F3169017A01E091860002
:10157000F0918700CA01B9010E940B319B01AC01B7
:10158000DF010E949C319B01AC01C701B6010E94A2
:101590000B312FE096958795779567952A95D1F72A
:1015A000009186001091870030E020E006171707B1
:1015B0002807390708F0A2CF609186007091870054
:1015C0009DCF853000F581111FC0909180009F7DD7
:1015D000909380002E98A0918600B0918700282FCC
:1015E00030E00E948631DC01CB0122E0B695A79560
:1015F000979587952A95D1F70E94670A90938B005B
:1016000080938A00089584E0909180009062909386
:101610008000E1CF282F220F220F220F90919102FC
:101620009770922B90939102987F21E009F420E02B
:101630009091910220FB90F9909391020E94E10A0F
:101640000895FA01811101C0FB0109950895809167
:101650008C02982F9E7F29F48170826080938C0287
:1016600008958A34E8F381708864F8CFAF92BF920E
:10167000DF92EF92FF920F931F93CF93DF93082F88
:10168000162FE901E42FF0E0E85DFA4F611110C078
:10169000E4915E2F4E2F4983E8835A83DF91CF91E7
:1016A0001F910F91FF90EF90DF90BF90AF90089542
:1016B000E62EF12C4491D42EE42FF0E026E0829F18
:1016C000C00111242FEF30E0B9010E942731802F93
:1016D00090E0880F991F55E5569FD001579FB00D98
:1016E00011248A1B9B0B982F990F890F5901AE1853
:1016F000BF08AE9ED001AF9EB00DBE9EB00D1124AE
:101700005B2F189F80011124012F11275901A01A66
:10171000B10AAE9E8001AF9E100DBE9E100D112429
:101720005901A81AB108AE9CC001AF9C900DBE9C97
:10173000900D1124892F9927281B390B2E9FC0014A
:101740002F9F900D3E9F900D1124E92F623071055F
:10175000A1F050F46115710509F49DCF6130710558
:1017600081F0EB2F512F97CF6430710569F080F035
:101770006630710509F48FCFF4CFE42F4B2F592F2A
:101780008ACFE42F412F87CFEB2F542F492F83CFC0
:101790004B2F5D2DE12F7FCFF894E82FE295EF706E
:1017A000F0E031A1282F2F7081E090E001C0880F78
:1017B0002A95EAF7982F9095932391A392A1892BCC
:1017C00082A3789408959091A80292FF06C0282FD2
:1017D00028712830F9F4877F846093FF06C0282F92
:1017E00028712831F1F4877E84612091A90220FFBD
:1017F00006C0382F38713830D9F4877F816021FFD7
:1018000006C0282F28712831D1F4877E816194FD8C
:10181000877E0895282F24712430F9F68B7F886005
:10182000DCCF282F2471243101F78B7E8861DDCF36
:10183000382F3171313019F78E7F8860E0CF282F33
:101840002171213121F78E7E8861E1CFCF93DF9323
:10185000EC0182389105A9F1D8F58133910509F49D
:1018600096C048F58932910509F48AC08A9709F42F
:1018700095C0C11522E5D20708F0B6C0C11531E503
:10188000D30708F026C1C83ED10508F09CC0C03E71
:10189000D10560F5C83AD10508F087C0C53AD10531
:1018A00008F0EFC0C130D10509F12097F9F0C4303C
:1018B000D105E0F440C08533910509F45AC0C997B9
:1018C000C1F68091A802837089F0C0EED0E00EC00E
:1018D000833E910599F170F4803E910501F1823EBD
:1018E000910539F68091A80282FD21C0CE01DF91D9
:1018F000CF910895863E910561F1873E910571F182
:10190000843E910509F0B5CF8091A90281FFEECF09
:101910008091A802C7EED0E084FD0DC0E7CF809192
:10192000A80280FD07C19091A90290FFDFCFC3EE0E
:10193000D0E084FFDBCFD0E0C0E0D8CF8091A80218
:1019400082FDFBC09091A90290FDBFCF84FFCECF56
:10195000F2CF8091A80283FDDDCFC8CF8091A8028D
:1019600083FDEEC09091A90291FFF0CFC4EED0E0CC
:10197000BDCF8091A80285FFB9CFC9E2D0E0B6CF34
:101980008091A80285FFB2CFC5E3D0E0AFCF8091B0
:10199000A80286FFABCFCAE2D0E0A8CF8091A80210
:1019A00086FFA4CFC1E3D0E0A1CFCF3BD10518F68D
:1019B000C85AD0E0CC0FDD1FC95DDE4F0990D88139
:1019C000C02DD46493CFC11540E5D40708F064C09E
:1019D000C11580E4D80708F05CC0CE019A95811546
:1019E0009F4108F483CFA7CFC11536E5D30718F57B
:1019F000C11545E5D40708F084C0C11584E5D807B2
:101A000008F07AC09C2F969596959E0123703327F7
:101A1000C115D34508F462C0C1E0D0E002C0CC0FCC
:101A2000DD1F2A95E2F730E2939FC0011124C82BF5
:101A3000D92BDA685BCFC1158AE5D80778F4C115D0
:101A400099E5D90708F068C0C11528E5D20708F460
:101A500072CFDC2FCC27C06FD06A48CFCE01905612
:101A60008115904208F067CF8D2F8F710E94E30B94
:101A700090E0982F882788279F719C012C2BE901E3
:101A800049C0C55AD0E0CC5DDE4FC881D0E0D064FB
:101A90002DCFDF70D06A2ACFCE01E4E096958795EE
:101AA000EA95E1F783702C2F26952695237040E266
:101AB000249F90011124382B8C2F8370C1E0D0E03B
:101AC00002C0CC0FDD1F8A95E2F7C22BD32BDC6856
:101AD0000DCFDC2FCC27C16FD06A08CFC1E0D0E09A
:101AE00002C0CC0FDD1F2A95E2F720E2929FC001D1
:101AF0001124C82BD92BEBCFDC2FCC27C46FD06A95
:101B0000F5CE8C2F0E94E30BC82FD0E0DC2FCC2722
:101B1000CC27DF71D062EACE8C2F8F700E94E30B4E
:101B200034E0D695C7953A95E1F7CF709C2FEC013C
:101B3000D069DCCEC9E3D0E0D9CEC2EED0E0D6CEBB
:101B4000C6EED0E0D3CE80914002882331F01092CF
:101B5000400210923F0210923E02089580959091AB
:101B60003D02982390933D02089510921B0210921B
:101B70001A0210921902089590911B019923D1F035
:101B80009091A80297FF16C0E82FE695E695E69596
:101B9000EE31E0F4F0E0EC55FE4F282F277081E0A5
:101BA00090E001C0880F2A95EAF7809592818923F9
:101BB00082830895E6EAF1E09191891303C0DF0181
:101BC00011971C9291E0EC3AF907B1F708959091C2
:101BD0001B019923C1F09091A80297FF14C0E82F30
:101BE000E695E695E695EE31F8F4F0E0EC55FE4F1B
:101BF000877021E030E001C0220F8A95EAF78281E8
:101C0000822B82830895A6EAB1E0EFEF90E02D9158
:101C1000821751F0EF3F19F4211101C0E92F9F5FA6
:101C20009630A9F7EF3F09F408950E2E000CFF0B34
:101C3000EC55FE4FE6CF809118029091E701981382
:101C400001C008958F5F8770FACF292F953078F5FE
:101C50008E3068F590E03EE0239F800D911D1124A9
:101C6000682F677023E0969587952A95E1F7FC0128
:101C7000EE0FFF1FE80FF91FEA53FE4F50E040E060
:101C800080E0219130E0062E02C0369527950A9417
:101C9000E2F721703327042E01C0220F0A94EAF7DD
:101CA000822B4F5F5F4F4330510559F7089580E015
:101CB0000895292F953098F58E3088F590E03EE014
:101CC000239F800D911D1124282F277041E001C012
:101CD000440F2A95EAF723E0969587952A95E1F730
:101CE000FC01EE0FFF1FE80FF91FEA53FE4F30E033
:101CF00020E070E05191DF011197CB01022E02C06C
:101D0000969587950A94E2F78170819585278423BB
:101D100085278C932F5F3F4F2330310559F7089566
:101D200081FD02C02A9A08952A980895829590E02C
:101D30009C01220F331F220F331F2C7C9595879512
:101D4000959587958373282B30E0C901880F991FDB
:101D50008A7A359527952575822B08959C013A95A9
:101D600021153F4150F5FC01EE27F170BC016627BB
:101D70007270AC01442754709C012227387094FF84
:101D80000EC080E1EF2B09F480E0672B09F0806240
:101D9000452B09F08064232B89F08068089581E049
:101DA000EF2B09F480E0672B09F08260452B09F0E6
:101DB0008460232B19F08860089580E008959FB710
:101DC000F8941092AE029FBF9091DE02943009F019
:101DD00048C02091E9002F703091EC00932F917052
:101DE00030FD90E8922B25E02093E9002091EB0054
:101DF00020FF34C02091EE0027FF30C02091AD02BB
:101E0000222321F02091E80025FF28C01092AD0286
:101E100026E03091E80035FF14C08093F1008091F6
:101E2000E80085FD27C08091E80080FFFCCF80910D
:101E3000E8008E778093E8009F709093E90080E03F
:101E400008953091DE02343049F43091EB0035FDD5
:101E500005C0215041F481E08093AD029F709093C2
:101E6000E9008FEF0895EFE9FFE03197F1F700C047
:101E70000000CFCF8FB7F89421E02093AE028FBF40
:101E8000DBCF8093AA027093AC026093AB02809187
:101E9000DE028430F9F48093E9008FEF9091E8003E
:101EA000815095FD06C095ED9A95F1F700008111DE
:101EB000F5CF8091E80085FF0DC050E040E063E081
:101EC00070E08AEA92E00E94B1088091E8008E7783
:101ED0008093E8000895BC0184E00E94410F0895BA
:101EE000BC0183E00E94410F0895CF93DF93EC0182
:101EF00080911B018823B1F18091A80287FF32C035
:101F000060E284E08093E9008FEF9091E8008150D7
:101F100095FD06C095ED9A95F1F700008111F5CF7A
:101F20008091E80085FF1BC080911B0170E050E0AC
:101F300040E0811104C050E040E068E070E0CE0174
:101F40000E94B1088091E8008E778093E80080E2DB
:101F5000FE01A3EBB2E001900D928A95E1F7DF91CB
:101F6000CF91089568E081E0CDCF81E08093E000DB
:101F700080E28093D8001092C9008FE19EE401971F
:101F8000F1F700C0000087E090EBDC018093E302F2
:101F90009093E402A093E502B093E60288E19CE00E
:101FA0000FB6F894A895809360000FBE90936000E0
:101FB000FFCF80918C0280FD0AC0E4E7F2E011823D
:101FC00010821282339652E0EC38F507C1F76A9A14
:101FD0003EB13B7F2EB124604FB7F89484E792E086
:101FE000FC015191CF0168E02EB9000000C057FFFD
:101FF0003EB9550F000000C000C000C03EB900C08F
:102000006A9591F7F2E08C389F0751F74FBF8FE543
:1020100094E00197F1F700C000000895EF92FF925D
:102020000F931F93CF93DF938C01C4E7D2E0F12C81
:10203000E12CF801948160918E0280918D02F4E090
:10204000EF16F104ECF49923E9F09E0140918F0220
:102050000E94360B2FEFE21AF20A239688E0E81668
:10206000F10439F70E94D90FF801848190E00196BC
:10207000817099278483CDB7DEB7E6E00C94D73121
:10208000992319F39E0140E0E3CFB0E0A0E0EBE438
:10209000F0E10C94B531EC014C81042F10E0980173
:1020A000D8010E9486319B01AC010E949C314B01FA
:1020B0005C01E0E2F0E0E01BF10BA5E5B0E0AC0173
:1020C0009B010E949C316B017C019F01DF010E94FA
:1020D0007E319B01AC010E94A7319B01AC01280D10
:1020E000391D4A1D5B1DC701B6010E944F31F22EFA
:1020F000822F90E039E23F1598F143E0249F900150
:10210000112435952795122F109594E7C92E92E04A
:10211000D92E00E085E5E82EEF188E2D01FD8F2DDC
:102120009601412F60918E020E94360B0F5F53E0A3
:10213000C50ED11C083089F70E94D90F9C8181E01F
:10214000992319F0903219F48FEF8093190180913F
:102150001901890F8C83CDB7DEB7ECE00C94D13137
:1021600025E530E0A901481B590BCA019A01220F4D
:10217000331F280F391F37FFC4CF2F5F3F4FC1CF09
:102180000F931F93CF93DF93C4E7D2E0FE01118238
:1021900010821282339682E0EC38F807C1F710E023
:1021A00000E080917202082E000C990B08171907A5
:1021B0008CF180911801082E000C990B8017910763
:1021C0004CF19E0140918F0260918E0280918D02B0
:1021D0000E94360B0F5F1F4F23960830110509F739
:1021E0000E94D90F8091170190917202980F9093DD
:1021F000720220911801280F20931801121614F46E
:1022000097301CF0819580931701DF91CF911F913A
:102210000F910895198218821A82DCCFB0E0A0E0F5
:10222000E4E1F1E10C94B931FC018281DD24DA941E
:1022300080FD02C0DD24D394C4E7D2E010E000E0CA
:10224000198218821A8294E0E92EF12CC12C809117
:1022500071028C0D8930ACF18770082E000C990B3F
:102260008017910791F480918F028E9DA0018F9D20
:10227000500D112455954795559547959E016091B0
:102280008E0280918D020E94360BCD0CF1E0EF1A88
:10229000F108E9F60F5F1F4F23960830110581F60C
:1022A0000E94D90F8091710291E0D91210C0811162
:1022B0000CC087E080937102CDB7DEB7E8E00C94E4
:1022C000D53187FFCACF885FC8CF8150F3CF90E068
:1022D000019687709927EECFEF92FF921F93CF93CD
:1022E000DF93EC0184E7E82E82E0F82E10E08C8189
:1022F000970140918F0260918E02810F0E94360BF0
:10230000115E83E0E80EF11C183F89F70E94D90F97
:102310009A818C8190FF08C08F5F8C83DF91CF9171
:102320001F91FF90EF9008958150F7CF90918C020C
:1023300090FF0CC0E4E7F2E0818360834283339630
:1023400092E0EC38F907C1F70E94D90F0895A3E095
:10235000B0E0EDEAF1E10C94BD318C0180917302A3
:1023600081110AC09E012F5F3F4F4FEF6FEF0E9418
:10237000360B8A8180937302F8016481613069F0C1
:102380008091730240E0662361F040E0623011F416
:102390004091730280E060E004C06091730240E00D
:1023A00080E00E949611F801848190E0019663E03C
:1023B00070E00E943B3184832396E4E00C94D93191
:1023C000A3E0B0E0E6EEF1E10C94BF3190918C0215
:1023D00090FF0AC09E012F5F3F4F0E94360B4B813A
:1023E00069818A810E9496112396E2E00C94DB3188
:1023F000CF93DF93EC01ECE8F2E0438162818C81C2
:102400000E94E0118C818F5F8C83DF91CF910895C2
:10241000CF93DF93EC01EC81F0E0E35DF94F449161
:10242000ECE8F2E0628181810E94E0118C818F5F93
:102430008C83DF91CF9108950F931F93CF93DF93F8
:10244000823030F5653020F54E3010F5C42FD0E0E5
:10245000CC0FDD1F2CE1629FC00DD11D11243CE883
:10246000839FC00DD11D1124CE0187960E9410328A
:10247000082F10E0102F0027CE0188960E941032FE
:102480009801282BC901DF91CF911F910F910895D9
:1024900090E080E0F8CF462F20919702309198028B
:1024A000232B99F4703F39F4603F79F480919502C1
:1024B000909196020895823040F4753030F46E3079
:1024C00020F4672F0E941C12089590E080E0089588
:1024D000CF92DF92FF920F931F93CF93DF936C0104
:1024E0000091E20280914102082BC7E0D0E010E0A9
:1024F000FC2EC8010C2E02C0959587950A94E2F730
:1025000080FD0CC02197A0F7F12C8F2DDF91CF918A
:102510001F910F91FF90DF90CF900895B6018C2FFF
:102520000E944B120E94260C019761F3EECFCF93CD
:10253000DF93EC010E946812BE010E944B120E94C0
:10254000260CDF91CF910895FC01808191810E943A
:10255000971292959F70963091F058F4925F9F7009
:10256000923058F4803F19F030F4883E30F481E026
:1025700008959A5FF4CF843FD1F380E00895883EB8
:10258000B0F3813FD1F7F3CF83E290E00E941032A5
:10259000803789F484E290E00E9410328B3959F43C
:1025A00085E290E00E94103291E0873C09F090E0D3
:1025B000892F8170089580E0FCCFCF9384E090E074
:1025C0000E941032C82F82E290E00E941032982FB1
:1025D0008C2FCF910895CF93DF93CFE3D1E060E0CC
:1025E000CE010E9424322196C11584E0D807B9F7A4
:1025F000DF91CF9108951F93CF93DF93122F8230F5
:10260000E0F46530D0F44E30C0F4C42FD0E0CC0FED
:10261000DD1F9CE1699FC00DD11D11249CE8899F9D
:10262000C00DD11D1124632FCE0187960E94243244
:10263000612FCE0188960E942432DF91CF911F91A5
:1026400008958F929F92AF92BF92DF92EF92FF9286
:102650000F931F93CF93DF938090990290909A02EB
:1026600081E090E090939A02809399028DEAE82E9F
:1026700087E0F82ED12C8701C0E013C0F501259129
:1026800034914D2F6C2F8D2D0E94FB1282E0A80EED
:10269000B11CDF5FDE3091F7045E1F4FCF5FC530A6
:1026A00019F05801D0E0EACF8CE8E80EF11C81E087
:1026B000D81619F0DD24D394DECF90929A0280923E
:1026C0009902DF91CF911F910F91FF90EF90DF90D2
:1026D000BF90AF909F908F900895CF93C82F6FEFCA
:1026E000811160E783E290E00E9424326FEFC11114
:1026F0006BE984E290E00E9424326FEFC11167EC35
:1027000085E290E00E942432CF91089580E00E94FB
:102710006D1360E086E290E00E9424320E94211353
:102720000E94EB1281E00E946D130895682F86E0ED
:1027300090E00E94243208958091910281FF11C09F
:102740008D7F809391020E94961380916F008E7FFF
:1027500080936F00809191028695869586950E9460
:10276000E10A08958091910281FD10C082608093FA
:1027700091020E949613109294021092930210926A
:10278000920280916F00816080936F000895CF92D4
:10279000DF92EF92FF926B017C010E94270BB70141
:1027A000A60188E090E00E943632FF90EF90DF9023
:1027B000CF900895A3E0B0E0E0EEF3E10C94B431E3
:1027C000F82EB62EE42EA22E90918C0290FF29C0F6
:1027D000E92FE695AE2FB0E0A859BE4F8C918093BB
:1027E0006F029E7F923009F59E012F5F3F4F8F2D24
:1027F0000E94360B4B8169818A810E949611F0926A
:102800008D02B0928E02E0928F02AA2051F0609168
:102810008C0270918D0280918E0290918F020E94A5
:10282000C7132396EDE00C94D031823019F4E09078
:102830008F02E5CF863019F4F0908D02E0CF893019
:10284000D9F38931E1F6E9512E2F2170722EE695E8
:10285000F0E0E85DF94FE4910E2F10E034E7C32E6D
:1028600032E0D32E912C812CC40123E096958795DC
:102870002A95E1F7711013C08F0D96014E2D6B2D27
:102880000E94360B800E911E83E0C80ED11C2CE8EE
:10289000C21622E0D20641F70E94D90FB0CF2F2DE9
:1028A000281B822FEACFECE8F2E0438121E1421BB2
:1028B00008F440E021E0628181810E94DA130895EA
:1028C000ECE8F2E0438121E1420F08F44FEF21E010
:1028D000628181810E94DA130895ECE8F2E062815E
:1028E00021E1621B08F460E021E0438181810E94C4
:1028F000DA130895ECE8F2E0628121E1620F08F456
:102900006FEF21E0438181810E94DA130895ECE8A2
:10291000F2E0818121E0438162818A500E94DA13D2
:102920000895ECE8F2E0818121E043816281865FD5
:102930000E94DA13089580919002882319F0815043
:102940008093900260918C0270918D0280918E0232
:1029500090918F020E94C713089580919002833056
:1029600018F48F5F8093900260918C0270918D02B9
:1029700080918E0290918F020E94C71308959091CA
:102980008C0290FF2CC0917081112AC092609093AC
:102990008C02662351F060918C0270918D028091BF
:1029A0008E0290918F020E94C71360918C026695EF
:1029B00070E04BE050E08CE091E00E94EF31892B19
:1029C000B1F01092700281E080936C0220E040919F
:1029D0008F0260918E0280918D020E94DA13089519
:1029E000853210F09864D3CF880F982BD0CF81E038
:1029F000809370020E94220A90936A028093690277
:102A0000E2CF80918C028695815009F484E261E0E6
:102A10000E94BF14089580918C0286958F5F853245
:102A200008F081E061E00E94BF14089590918C024B
:102A300090FF08C09695981728F0961718F40E94F2
:102A40000B15089561E00E94BF140895ECE8F2E0D0
:102A500083E0808311828FEF82838383148260817D
:102A60007181828193810E94C713089568EE7EEF81
:102A700090E080E00E94423260E082E090E00E94BC
:102A8000243260E083E090E00E9424321092410200
:102A900060E084E090E00E94243264E082E290E012
:102AA0000E94243260E085E090E00E94243260E0E1
:102AB00086E090E00E9424326FEF87E090E00E9471
:102AC000243240E050E0BA0188E090E00E943632C3
:102AD00060E08DE090E00E94243240E050E0BA01D6
:102AE00088E190E00E94363260E087E190E00E9449
:102AF000243240E050E0BA018CE190E00E9436328E
:102B000070E060E080E290E00E94423240E050E0FD
:102B1000BA0188E190E00E94363280E00E946D1395
:102B20000E94861340E050E0BA018FE090E00E94DE
:102B3000363240E050E0BA0183E190E00E94363244
:102B40000895AAE0B0E0E7EAF5E10C94B5318E0112
:102B50000F5F1F4F8AE0F80111928A95E9F795E51A
:102B6000E92E91E0F92E6801AA24A394B12CF70173
:102B700081917F018F3F09F446C0F894E82FE295D8
:102B8000EF70F0E021A18F70A50102C0440F551F26
:102B90008A95E2F7CA01922F982B91A392A1809572
:102BA000892382A3789400C0EAE5F1E021E030E0D7
:102BB000912C812C41914F3F09F481C0A42FA29503
:102BC000AF70B0E090968C9190E04F7002C09595F8
:102BD00087954A95E2F780FD72C0C901882A992A33
:102BE000220F331F51E0E836F50721F7F70131973F
:102BF00080818F3F11F00E94CC0B80EA8A95F1F71B
:102C0000F60191828082F2E0CF0ED11C4AE5E416F3
:102C100041E0F40609F0ABCF4AE050E0B80185E4AA
:102C200092E00E94FC31FF24F394009709F4F12C08
:102C3000892B09F447C08AE0F801A5E4B2E00190CD
:102C40000D928A95E1F781E0809344020E94220A66
:102C500090934302809342028091420290914302FA
:102C60000E94130A059790F18091450290914602C7
:102C70009093600280935F02809147029091480296
:102C800090936202809361028091490290914A027E
:102C9000909364028093630280914B0290914C0266
:102CA000909366028093650280914D0290914E024E
:102CB00090936802809367021092440207C090E0EC
:102CC00080E08CCF809144028111C6CF8F2D2A964F
:102CD000ECE00C94D13180913D0290913C02892B23
:102CE0008093A40180914002882329F10E94220A46
:102CF00020913E0230913F02821B930B8838934112
:102D000010F00E94A30D8091A40190914002892BA4
:102D10008093A40180911B018823E1F18091A80296
:102D200087FF38C08EE1E6EAF1E090E08150A0F53F
:102D300091110E94A30D40E250E06CE172E084EA40
:102D400091E00E94FC31892B21F180E2E4EAF1E07C
:102D5000ACE1B2E001900D928A95E1F7E0919F021B
:102D6000F091A0023097A9F080911B01882359F0BF
:102D70008091A80287FF07C08091A4018093A501DC
:102D800086E08093A4010280F381E02D84EA91E043
:102D90000995089586E0C7CF2191222339F29F5FDC
:102DA000C5CF90E080E00E94440A90E080E00E945D
:102DB0002E0A10923C020E946B1608958093E20244
:102DC0000E94D11608958091E202982F9670963055
:102DD00021F488600E94DE160895877FFBCF21E0F2
:102DE00030E001C0220F8A95EAF720958091E20237
:102DF00082230E94DE16089590911B0280958923FC
:102E000080931B02282F277091F4282F082E000C86
:102E1000330B9217130659F09091A90292FF07C045
:102E20008595859585950E94EF160E94B50D0895AC
:102E3000CF93C091A902C2FB992790F9981791F0FE
:102E400080FBC2F9C093A9026091A80284E090E0DF
:102E50000E9424326C2F82E290E00E94243282E0B1
:102E60000E94FC16CF91089521E030E001C0220FAE
:102E70008A95EAF78091E202822B0E94DE1608957D
:102E80009091A90292FF10C098E0899F90011124AF
:102E9000622B60931B020E9434170E94220A9093B7
:102EA0001A028093190208950E943417089580939E
:102EB00041020E94D116089510923D0280911B019B
:102EC000E6EAF1E0882361F08091A80287FF08C05C
:102ED0008EE1DF011D928A95E9F70E94D1160895CF
:102EE00086E0F7CFAAE2B0E0E8E7F7E10C94BE3164
:102EF00086ED92E02091F100DC012D93CD01B2E04E
:102F00008E3D9B07B9F78091D702833009F472C0D8
:102F1000B8F4813009F449C0823009F4B3C080911B
:102F2000E80083FF9CC28091D6029091D7029A302C
:102F300008F095C2E92FF0E0E65AFD4C0C9471318F
:102F40008A3009F48EC08B3009F471C0893039F7AA
:102F50008091D602813219F78091DA029091DB02DA
:102F6000009711F00297D9F68091E800877F80934F
:102F7000E8008091E80082FF38C09091F3008091D2
:102F8000F200029731F48091F100813011F0863027
:102F900021F48091F1008093B2028091E8008B7758
:102FA0008093E8000E940309BACF8091D602813A4B
:102FB00009F0B5CF8091E800877F8093E800809189
:102FC000DA029091DB02892B61F460E283EB92E0FC
:102FD00070E00E94AF098091E8008B778093E80051
:102FE0009ECF60E090E080E0F3CF8091DE0281111F
:102FF000C0CF95CF8091D602813A09F090CF8091D1
:10300000DA029091DB02892B09F089CF8091E800E8
:10301000877F8093E8008091E80080FFFCCF80915B
:103020001B018093F1008091E8008E77B9CF8091E9
:10303000D602813209F073CF8091DA029091DB02DF
:10304000892B09F06CCF8091E800877F8093E8009E
:103050000E9403098091D80280931B010E945C1793
:103060005ECF8091D602813209F059CF8091E8007D
:10307000877F8093E8000E9403098091D9028093A2
:10308000B1024DCF8091D602813A09F048CF8091AC
:10309000E800877F8093E8008091E80080FFFCCF04
:1030A0008091B102BECF803899F0823809F0D7C143
:1030B0008091DA028F70873008F0D1C18093E900E7
:1030C0008091EB0085FB882780F91092E90006C00B
:1030D0008091D3029091D402911182609091E80086
:1030E000977F9093E8008093F1001092F100809117
:1030F000E8008E77B0C1882309F49EC1823009F0C0
:10310000AEC18091D8028111A1C18091DA028F7085
:103110002FEF280F263008F0A2C18093E9002091FC
:10312000EB0020FF93C1933031F48091EB0080627B
:103130008093EB008BC19091EB0090619093EB003A
:1031400021E030E001C0220F8A95EAF72093EA00DF
:103150001092EA008091EB008860EACF81117FC174
:103160001091D8021F778091E3008078812B8093A3
:10317000E3008091E800877F8093E8000E940309C4
:103180008091E80080FFFCCF8091E300806880930D
:10319000E30082E0111183E08093DE0260C1805879
:1031A000823008F05CC12091D8023091D9022C3DC8
:1031B000E3E03E07A1F583E08A838AE289834FB783
:1031C000F894DE01139620E03EE051E2E32FF0E0B8
:1031D00050935700E49120FF03C0E295EF703F5FEA
:1031E000EF708E2F90E0EA30C0F0C7968D939D93DC
:1031F0002F5F243159F74FBF8091E800877F80937C
:10320000E8006AE270E0CE0101960E94AF09809169
:10321000E8008B778093E80022C1C096E7CF8091C9
:10322000DA029091DB02432F55274330510509F410
:103230004AC078F54130510509F485C08BE790E02C
:10324000ECE1FEE04230510509F009C12091E800AF
:10325000277F2093E8002091DC023091DD02821765
:10326000930708F49C0140E02115310509F070C076
:1032700041116EC08091E80082FDC9CF8091DE02CD
:10328000882329F2853019F28091E80083FFF2CF7C
:10329000BECF4132510509F447C04232510509F011
:1032A000DEC08430910508F0DAC0FC01EE0FFF1F8C
:1032B000EF56FE4F0190F081E02D83579E4FDC01C9
:1032C0008C9190E01DC0332721303105E9F02115A4
:1032D000310579F022303105F9F02330310509F05C
:1032E000BEC0E9EAFEE0E4918E2F90E0E9EAFEE05C
:1032F00007C0EDEEFEE0E4918E2F90E0EDEEFEE0F3
:10330000009709F4ACC0A2CFEFEDFEE0E4918E2F60
:1033100090E0EFEDFEE0F4CFE7ECFEE0E4918E2FDD
:1033200090E0E7ECFEE0ECCF8430910508F097C028
:10333000880F991FFC01E756FE4F0190F081E02DA8
:1033400089E090E083CF82E190E0E7E9FEE07ECF84
:103350008091DE02882309F45ACF853009F457CFD3
:103360008091E80083FD53CF8091E80082FD82CFF9
:103370008091E80080FF78CF9091F3008091F20077
:103380002115310519F08830910550F041E008977A
:1033900009F040E08091E8008E778093E80064CFE8
:1033A00044914093F1003196215031090196E8CFC4
:1033B000803809F054C08091E800877F8093E8004E
:1033C0008091D5028093F10092CE811148C0109176
:1033D000D802123008F043C08091E800877F8093C4
:1033E000E8001093D5020E940309112311F084E034
:1033F00005C08091E30087FDFACF81E08093DE0273
:1034000042E061EC81E00E94220942E261EC84E04A
:103410000E94220942E261EC82E00E94220942E21B
:1034200060EC83E00E94220942E261EC85E00E94A8
:1034300022098091DE0213C08091D802813079F494
:1034400081E0933009F080E08093D4021092E9008B
:103450008091E800877F8093E8000E9403098091B3
:10346000E80083FF0AC08091E800877F8093E8002E
:103470008091EB0080628093EB00AA96E3E00C94CD
:10348000DA31CF93C82F1F928F9383E09EE09F93F2
:103490008F930E94580881E001C0880FCA95EAF70F
:1034A0000E9457170E945C170F900F900F900F907B
:1034B000CF910895CF92DF92EF92FF921F93CF9317
:1034C000DF93EBEFE80FEF3308F067C1F0E0EC5962
:1034D000FD4C0C94713183E090E00E9410321F92F9
:1034E0008F9386E29AE09F938F930E94580882E020
:1034F00090E00E94103283FB992790F91F929F93CE
:1035000082FB992790F91F929F9381FB992790F94D
:103510001F929F93982F91701F929F931F928F934A
:103520008DED99E09F938F930E9458080E94DD12C1
:1035300087FB222720F91F922F9386FB222720F951
:103540001F922F9385FB222720F91F922F9384FB34
:10355000222720F91F922F9383FB222720F91F9205
:103560002F9382FB222720F91F922F9391FB222772
:1035700020F91F922F93292F21701F922F9381FBE7
:10358000222720F91F922F93282F21701F922F930B
:103590009F938F9388EF98E09F938F930E94580892
:1035A0008DB79EB788960FB6F8949EBF0FBE8DBF9D
:1035B00086E090E00E941032982F96959695969509
:1035C0001F929F93982F91701F929F931F928F939A
:1035D00085EC98E09F938F930E9458088DB79EB713
:1035E00008960FB6F8949EBF0FBE8DBF81E01CC039
:1035F00082EF9DE00E94BF070E943615F7CF83E45B
:103600009AE00E94BF07F2CF80919C02807F809356
:103610009C0285EF9BE00E94BF078EEE9DE00E941A
:10362000BF0781E080939B02DF91CF911F91FF90B4
:10363000EF90DF90CF90089582ED9DE00E94BF074C
:103640008091990290919A02892B81F20E945C17D5
:103650009FEF24E38CE0915020408040E1F700C0D0
:1036600000000E94B50F90919C02892F8E7F90FFE1
:10367000816080939C0280FF03C086EC9DE0C1CFF7
:1036800089EB9DE00E94BF0780919C02817F80931F
:103690009C02ACCF90919C02892F8D7F91FF82601C
:1036A00080939C0281FF08C08CEA9DE00E94BF07C6
:1036B00080919C028160EBCF8EE99DE0A2CF90913A
:1036C0009C02892F8B7F92FF846080939C0282FFF3
:1036D00003C08FE89DE0EACF8FE79DE092CF909105
:1036E0009C02892F877F93FF886080939C0283FFD1
:1036F00003C083E79DE0DACF86E69DE082CF80E1DC
:103700009CE07FCF8FB7F894C090A402D090A50220
:10371000E090A602F090A7028FBFC091A802C7FB5D
:10372000CC27C0F91091B102D0911B010E945A0A16
:10373000FF92EF92DF92CF921F92CF931F921F932F
:103740001F92DF931F928F938BEC9CE09F938F933C
:103750000E9458088DB79EB70E960FB6F8949EBF7C
:103760000FBE8DBF43CF0E945C179091A802892F96
:1037700097FB87F980588093A80287FF03C08CE5E8
:103780009DE03FCF81E59DE03CCF80E00E94411A63
:103790002DCF8953FBCF8D51F9CF8FE49DE00E944F
:1037A000BF0780E041CF0E945C172FEF84E39CE0CD
:1037B000215080409040E1F700C0000088E19CE08B
:1037C0000FB6F894A895809360000FBE90936000A8
:1037D000FFCF882341F0809590913C02892380930C
:1037E0003C020E946B160895882339F090913C02A8
:1037F000982B90933C020E946B160895882321F029
:103800000E94AE0D0E946B160895882339F09091A6
:103810003D02982B90933D020E946B1608958823D9
:1038200009F44DC0823879F40E945A0A81FF47C0DA
:1038300089E30E94E70D0E946B1689E30E94BC0D8C
:103840000E946B160895833859F40E945A0A80FF2B
:1038500036C083E50E94E70D0E946B1683E5EECF2C
:10386000843859F40E945A0A82FF29C087E40E94D2
:10387000E70D0E946B1687E4E1CF9CEF980F913A19
:10388000E8F290E2980F983050F4877091E001C010
:10389000990F8A95EAF7892F0E94AE0DD1CF9BE54B
:1038A000980F933028F490E080E00E94440A089535
:1038B000885A873120F490E080E00E942E0A089513
:1038C000CF93C82F8823C9F08238C9F40E945A0ABE
:1038D00081FD13C089E30E94E70D0E946B162FEF54
:1038E00081EE94E0215080409040E1F700C000005C
:1038F00089E30E94BC0D0E946B16CF910895833816
:10390000A1F40E945A0A80FDF8CF83E50E94E70DDA
:103910000E946B162FEF81EE94E021508040904082
:10392000E1F700C0000083E5E4CF8438A1F40E94F1
:103930005A0A82FDE2CF87E40E94E70D0E946B16CF
:103940002FEF81EE94E0215080409040E1F700C0DD
:10395000000087E4CECF8CEF8C0F813A08F066C070
:1039600080919B02882349F1813089F110929B025A
:1039700080911B01882309F44BC08091A80287FF26
:1039800047C0EC2FE695E695E695F0E0EC55FE4F46
:10399000828190E04C2F477021E030E002C0220F7E
:1039A000331F4A95E2F782239323892BD9F18C2F79
:1039B0000E94BC0D0E946B1635C080913D02823280
:1039C000B9F68C2F0E945A1A811197CFD1CF8091CE
:1039D0003D028232B1F3C431B9F038F4CB3049F052
:1039E0008DE492E00E94BF0711C0C93269F0C8336C
:1039F000B9F785EF9BE00E94BF078FE492E00E9439
:103A0000BF0781E08170E0CF10929B0280E0FACF87
:103A1000E6EAF1E08CEA91E02191C21741F28E17BB
:103A20009F07D1F78C2F0E94E70D65CF80E28C0FA6
:103A3000883068F4C77021E030E001C0220FCA95D9
:103A4000EAF780913D02822B80933D0254CFEBE553
:103A5000EC0FE33040F4F0E0EC5DFE4F808190E04D
:103A60000E94440A4ACFC85AC73108F046CFEC2F0B
:103A7000F0E0EE0FFF1FE95DFE4F808191810E9413
:103A80002E0A3BCF1F93CF93DF93182FD0E0C0E0D7
:103A9000893311F4C0E5D0E0812F0E94601C20978B
:103AA00039F4812F0E940F1CDF91CF911F9108954F
:103AB0008FE99FE00197F1F700C000002197EFCF59
:103AC0000F931F93CF93DF93C62FD42F022FFC01A8
:103AD00082818823A9F06093E1020E94220A9093D8
:103AE000E0028093DF02C77081E001C0880FCA95B1
:103AF000EAF70E94051CDF91CF911F910F91089565
:103B00008091E102681332C08091DF029091E0025F
:103B10000E94130A883C910548F510E21D0FCD174D
:103B2000B9F080E28C0F883040F4C77081E001C0AA
:103B3000880FCA95EAF70E94FE1B183048F481E00E
:103B40009D2F977001C0880F9A95EAF70E94051C77
:103B5000802F0E94421D183070F6D77081E001C09E
:103B6000880FDA95EAF70E94FE1BC5CFC77081E087
:103B700001C0880FCA95EAF7F6CFB0E0A0E0E3EC09
:103B8000FDE10C94B731EC018AE0A82E28812223B4
:103B900009F48FC02130C9F599818A81913021F4CF
:103BA00022960E94421D05C0923029F422960E945E
:103BB000601C2196EBCF933021F422960E940F1CBB
:103BC000F8CF943011F02196F4CF229630E020E027
:103BD000AE014F5F5F4F8053990B8A30910550F0D3
:103BE0002150310930F38FE99FE00197F1F700C0D0
:103BF0000000F6CFA29EB001A39E700D11249C017F
:103C0000260F371F8981EA01E3CFE22FF0E0E3536B
:103C1000FE4FB490822F86958695869590E0FC01A4
:103C2000E354FE4FE4902770F12C022E02C0F5946D
:103C3000E7940A94E2F731E0E322FF24FC01E35524
:103C4000FE4FC490D12C022E02C0D594C7940A9482
:103C5000E2F731E0C322DD24FC01E356FE4F04917C
:103C600010E002C0159507952A95E2F7017011271B
:103C7000E114F10419F081EE0E94601CC114D1041A
:103C800019F086EE0E94601C8B2D0E94421DC1140B
:103C9000D10419F086EE0E940F1CE114F10419F012
:103CA00081EE0E940F1C0115110509F482CF8CE2F0
:103CB00078CFCDB7DEB7EAE00C94D331A5E0B0E021
:103CC000E4E6FEE10C94B5316C01FC018381948142
:103CD000892B31F08081918189238F3F09F0B6C50E
:103CE0002596ECE00C94D1310E946812182F682FB1
:103CF00089819A810E94590E69817A81812F0E945F
:103D00004B128C01F6018281882309F43FC5C8015A
:103D100082519F45409708F024C58FEF93E00E94A1
:103D200010328111A5C002515FE3A52EBB24B394CC
:103D3000011133C019821A821B821C82EE24EA947C
:103D400045013FEF831A930AC5010E94103289830F
:103D50001A82882309F48CC0813009F07EC0850165
:103D60000E5F1F4FC4010E941032F82E8A838823F1
:103D700009F47EC0C8010E941032982E8FEF8F0D7B
:103D80008330D0F40F5F1F4F9B82992021F0CE012A
:103D900001960E94BD1D5801D3CFA114F4E0BF06C7
:103DA00009F466C0C5010E941032811101C00150A2
:103DB0002FEFA21AB20ABCCF8BEF8F0D833040F5E4
:103DC000C50103969B828C01992029F385010C5F24
:103DD0001F4F0E9410328C838823E9F2AB80BC8095
:103DE00041E0A4164FEFB40610F0BA2CAA2456E016
:103DF000F51651F087E0F81619F0C5010E94D42796
:103E0000C5010E949C27C7CFC5010E94D427C3CFFC
:103E100094E0F912C0CF85010C5F1F4FC5010396D6
:103E20000E941032992021F1882311F18150990BC1
:103E3000E89E9001E99E300D1124E92DE150FF0B21
:103E4000CF01820F931F019708F4A5CFEFE9FFE0A0
:103E50003197F1F700C00000F6CFCE0101960E9425
:103E6000BD1D840198CF81E00E9434170E94E316A3
:103E700080911B02877009F433CFF6018281882379
:103E800009F42ECF8091A90282FF2ACF82E00E94FE
:103E9000FC1626CF81E00E94EF16E8CF82E0E4CF47
:103EA00082E0F9CF84E00E940A0B809191020E9487
:103EB0009613DECF80E0F7CF80919102982F987F04
:103EC00079F0885080939102887F91E009F490E026
:103ED0008091910290FB80F9809391020E94961349
:103EE000809191028695869586950E94E10AC0CFC1
:103EF00080919102982F969596959695943040F4DE
:103F00009F5F990F990F990F8770892B809391026A
:103F1000809191028160E0CF8091910280FF07C083
:103F20008E7F809391020E94961380E0DECF80FD09
:103F30009FCF816080939102813019F489E0809352
:103F4000910280919102CACF90919102892F86951A
:103F5000869586958F5F8F719770853048F4880FAE
:103F6000880F880F892B8093910280919102ACCFAA
:103F700090939102FACF8091910281FF03C00E9439
:103F80009C1376CF0E94B21373CF27E245EE65EE05
:103F90000DC526E241EE60EE09C527E245EE64EE6E
:103FA00005C526E241EE62EE01C528E241E0EFCF11
:103FB00001364DE5140709F41AC5053A5DE5150704
:103FC00009F415C506319CE5190709F0BAC48091BA
:103FD0003D028A7A91E009F490E09093C401811146
:103FE000F7C089E20E94E70D0E946B1641CF8091D5
:103FF000A802806207309CE5190709F49AC08091F5
:10400000A80280610830ECE51E0708F492C0809198
:10401000A80280648EC08091A8028B7F0D30FCE5E1
:104020001F0709F486C0A0F48091A8028E7F0B3090
:104030003CE5130709F47DC08091A8028C600C3028
:104040004CE5140708F475C08091A8028D7F71C0FB
:104050008091A8028F7E0F305CE5150709F469C0D6
:1040600008F480C08091A8028F7D63C00D3F9CE55D
:10407000190709F47FC058F50531FCE51F0709F45D
:1040800087C098F48091A802837F03313CE5130731
:1040900009F44FC008F476C00E945C179091A80202
:1040A000892F97FB87F9805844C00B3F5CE51507C3
:1040B00009F44EC008F05AC08091A90281600A3FFD
:1040C0009CE5190709F0BAC48093A902B7C401306E
:1040D000EDE51E0709F468C0C0F48091A9028C7F49
:1040E0000F3F2CE5120781F38091A902836001152F
:1040F0003DE5130748F38091A902982F90959170A0
:104100008E7F892B90FB81F9DFCF01364DE51407B7
:1041100009F450C0053A5DE5150709F452C00230B4
:104120008DE5180709F08AC460E03FC08091A802BD
:1041300081608093A80282C48091A8028260F9CF36
:104140008091A8028460F5CF8091A8028860F1CFA9
:104150008091A9028260B8CF0E945C178091A8026A
:104160008068E7CF8091A802877FE3CF8091A90282
:104170008E7FAACF8091A9028D7FA6CF8091A802C1
:104180008F7BD7CF0E945C178091A8028F77D1CF09
:104190008091A80282FB992790F921E0922790FB59
:1041A00082F990FB83F9C5CF61E08EE090E00E9438
:1041B000243244C49091A802892F8F7E94FF80619D
:1041C000B8CF9091A802892F8E7F90FF8160B1CFE8
:1041D00085E308CF8091C401811104C089E20E9467
:1041E000BC0D02CF85E3FBCF816080938C0261E040
:1041F00086950E94BF143CCE41E055E16BE075E12D
:104200000E94210B35CE4BE055E161E075E1F8CF1E
:1042100041E954E167E874E1F3CF4DE654E16AE720
:1042200074E1EECF43E554E160E674E1E9CF40E6A6
:1042300054E163E574E1E4CF4DEA54E16BE974E1E4
:10424000DFCF61E081E0D5CF65E082E00E94161506
:104250000FCE68E086E0FACF64E18FE0F7CF67E148
:1042600085E1F4CF62E289E1F1CF61E083E2C1CF81
:104270000E945C173FEF44E35CE031504040504007
:10428000E1F700C000000E94B50F8091A90282FBF7
:10429000882780F991E089270E941817F60182810A
:1042A00000811181882309F445C0C8010E94681269
:1042B000F82E682FC8010E94590EB8018F2D0E9458
:1042C0004B120E94260C8C01882EF601E280B580EC
:1042D000B2943FE0B32280911B028770C1F0AE2CF4
:1042E000EE20B1F0812F807F803421F080E2800FBA
:1042F000883068F08091A90282FF09C082E00E94A4
:10430000FC1680911B028770AA24A3948111A12C12
:10431000912E92942FE09222FBE0F91508F476C0DA
:10432000E92DF0E0ED55FD4C0C94713181E0B4CFF6
:1043300080E0B2CFC8010E94250EF82EBECF212FFB
:104340002F70F22E107F19F0F29490EFF922EE20E8
:10435000B9F0FF2069F080E2800F883010F0811002
:1043600009C080913D02F82AF0923D020E946B162E
:10437000802F4AC080913C02F82AF0923C02F6CF8E
:10438000802F0E940F1CFF2009F440C0005E0830FF
:1043900010F0811004C08F2D0E94AE0D06C0F09465
:1043A00080913C02F822F0923C020E946B162EC0D3
:1043B000312F3F70F32E107F103219F0F29480EFFE
:1043C000F822882089F041E0841609F493C0EE2099
:1043D00009F49CC0BB2009F469C0F601858180FF07
:1043E000C7CF8F70858362C08091A90282FD37C0DC
:1043F000EE2079F1FF2039F080913D02F82AF09209
:104400003D020E946B1680E00E94601C292D2850FE
:10441000330B2430310520F40E945A0A0E94900E7A
:10442000AA2009F45DCC80911B0280FD59CCF601D5
:1044300012828595859585950E943417C6010E9444
:104440005E1E80911B028595859585950E94EF16CD
:1044500047CC80E00E940F1CFF20C1F29CCFEE20D1
:1044600049F1B11004C0809140028F2920C051E071
:10447000B51210C082FFCACF80914002F82AF81608
:1044800029F20E94220A90933F0280933E02F0920A
:104490004002BCCF85E0B812E6CF0E94A30D9091F8
:1044A000C5018F2D892B89138093C5018F2D0E9403
:1044B000051CACCFB11003C00E94A30D12C091E047
:1044C000B91213C080913D028F2109F49FCF0E9441
:1044D000A30D9091C5018F2D809589238913809319
:1044E000C5018F2D0E94FE1B91CFE5E0BE1609F499
:1044F0008DCFE2CFEE2029F0F5E0FB1508F486CF52
:10450000D5CF24E02B1508F481CFEBCFBB2049F3A6
:10451000F9E38F1209C02FEF37EE43E0215030400E
:104520004040E1F700C00000802F0E940F1C6ECFBA
:10453000812F86958695837061F0813009F066CF72
:10454000C8019370E11002C090E080E00E942E0A42
:104550005DCFC8019370E11002C090E080E00E943E
:10456000440A54CF812F837089F5E1104FCF402F3B
:10457000429546954770440F440F802F8F70042E4C
:1045800001C0880F0A94EAF7202F207104FF07C0AA
:104590002FE030E001C0220F4A95EAF720951695EA
:1045A00016951370123069F050F4309141021130B9
:1045B00029F0822B83230E94571728CF832B822B2D
:1045C000FACF282B809141028227F5CF8695EE20E5
:1045D00011F0812F8170882309F418CF402F429564
:1045E00046954770440F440F802F8F70042E01C0F2
:1045F000880F0A94EAF7202F207104FF07C02FE0EC
:1046000030E001C0220F4A95EAF7209516951695DD
:104610001370123069F050F43091E202113029F039
:10462000822B83230E94DE16F1CE832B822BFACFBE
:10463000282B8091E2028227F5CF1F70EE2029F00F
:10464000812F0E943417802F32CF802F0E94FE1BB3
:10465000812F0E94EF16DACE802F52EF8516B1F12E
:10466000581570F090EF8916D1F0E1EF8E1691F0A9
:10467000EE2009F466C0B1107BCE812F8F712AC065
:10468000F3EF8F1651F124EF8212F2CF8091A9023D
:1046900082FD2FC0812F8F71EE20D9F21BC0EE203A
:1046A00081F034E03B1508F4B1CE1F7181E090E059
:1046B000012E01C0880F0A94EAF79091E20289273F
:1046C000B1CF45E04B1508F4A1CEEFCF812F8F710C
:1046D000E110BFCF0E94341799CE80E0EE2009F49C
:1046E000A1CF1F7181E0012E01C0880F0A94EAF763
:1046F00099CFEE20C9F080911B028770843041F47D
:104700000E94B50D812F8F710E94EF16A12C7ECED5
:1047100054E05B15D8F31F71812F0E94341763E0BA
:10472000812F0E944017F2CF84E08B1530F40E9455
:10473000B50D64E0812F8F71F4CF81E00E94FC16EB
:10474000E5CFBB2059F0893309F0EECE9FEFE7EEBD
:10475000F3E09150E040F040E1F7E4CE812F8F711B
:1047600078CF0031FFE51F0709F47DCB01312FE53C
:10477000120709F493CBF801EB5BFC45E730F10538
:1047800008F0FDC0E155FD4C0C94713100313FE55E
:10479000130709F47FCB01314FE5140709F480CBEF
:1047A000033F8CE5180709F4F4CB08F057C1083D26
:1047B000ECE51E0709F4E9CB093DFCE51F0709F408
:1047C000F4CB073D2CE5120709F4EDC00631FCE5FA
:1047D0001F0709F4FFCC80913D0282720C3C2CE54E
:1047E000120709F429CD08F075C0063C4CE5140702
:1047F00009F40ECD08F04AC0033C9CE5190709F402
:10480000FBCCA8F5023CFCE51F0709F047CD8091E1
:104810008C0280FFE9CC8E7F80938C0260918C02A9
:1048200070918D0280918E0290918F020E94C71329
:1048300010927002EFEFF0E722E0E150F0402040EC
:10484000E1F700C000000E94D90F12CB85E0DE0125
:10485000119601900D928A95E1F7F60122818981E6
:104860009A81211141CA0E94250E182F45CA043C85
:104870002CE5120709F4C7CC47E854E161E974E17B
:10488000053C3CE5130709F4BBCC08CD093C4CE5DD
:10489000140709F4C7CC78F4073C9CE5190709F420
:1048A000BCCC4AE754E16DE674E1083CECE51E0738
:1048B00009F4A6CCF3CC0A3CFCE51F0709F4B7CCFD
:1048C0004BE954E16DEA74E10B3C2CE5120709F465
:1048D00097CCE4CC013D3CE5130709F4BDCCA0F432
:1048E0000E3C5CE5150709F4AFCC08F4AACC0F3CEC
:1048F0009CE5190709F4ADCC6EE089E0003DECE5DC
:104900001E0709F4A3CCCACC043DFCE51F0709F43B
:10491000A9CC68F4023D3CE5130709F4A0CC61E0A2
:1049200088E1033D4CE5140709F463CCB7CC053DA1
:104930005CE5150709F499CC0D35100709F498CA00
:10494000ADCC0A359DE5190709F4F0CC68F40115E2
:10495000FCE51F0709F48CCC0E3D1C4509F09ECCEC
:104960000E9436150E94D31B0C353DE5130709F450
:104970008CCC08F4DDCC073A1D45A1F38FCC033F66
:104980008CE5180709F405CBA8F4083DECE51E07F3
:1049900009F4FBCA093DFCE51F0709F406CB073DF6
:1049A0002CE5120799F426E241EE61EEC6010E9461
:1049B000601D5ECA053F3CE5130709F4F2CA08F41E
:1049C000ECCA063F5CE5150709F454C01092E102F9
:1049D00003302DE5120708F0EBCA0A3F3CE5130748
:1049E00030F4C80182509C45449708F0EBCA0E94FD
:1049F000DD129093A9028093A80201318CE518077B
:104A000009F4BCCB08F032CB0930ECE51E0709F401
:104A1000A3CB08F000CB05302CE5120709F494CBAA
:104A200008F0E5CA03304CE5140709F485CB08F01B
:104A300087CB02308CE5180709F478CB6091A80287
:104A40001091A90284E090E00E942432612F82E25A
:104A500090E00E9424320E945C170ACA053F3CE5A0
:104A6000130709F49ECA08F498CA063F5CE51507C7
:104A700009F0ACCE27E245EE66EE98CF1F93CF93B8
:104A8000DF938091E601807F09F049C08091E301C6
:104A9000882309F444C080911802D091E701609105
:104AA000E1017091E201A091E401B091E501C62F0E
:104AB000C72316E0D81799F190E0109711F0CF3F77
:104AC00019F401968770F6CF189F9001199F300D49
:104AD0001124F901E851FE4F41814713F2CF408183
:104AE0004613EFCF42814111ECCF438154814A1BE1
:104AF0005B0B483C510528F78091E6018F7080617F
:104B00008093E601F901E351FE4F80818F7080614F
:104B1000808381EE91E00E945E1E0E941B0EDF9159
:104B2000CF911F910895A1E1B0E0E9E9F5E20C947D
:104B3000B7318C0185E0F801DE011D9601900D92E0
:104B40008A95E1F7F801E28081EEA82E81E0B82E87
:104B50006091E4017091E5016115710509F426C1C8
:104B60009091E1014091E201892F84238F3F09F464
:104B70001DC120813181C380D480F090E301F60112
:104B8000E61BF70BFF2009F4DCC08091E601582FEB
:104B9000507FE83CF10508F09FC051116BC0FE2C1E
:104BA000431314C0921312C0E11010C08F708061C3
:104BB0008093E601C5010E945E1E8091E601F80126
:104BC00085838F2D6196EAE00C94D331C114D10412
:104BD00029F0822F83238F3F09F003C180E0F82F53
:104BE000F170DF2E80FF3CC0809118024091E701F8
:104BF00056E0841315C02D873E878D859E850E94C3
:104C00009712292F22952F702230F0F0243018F5BA
:104C10009F70F1F0F8019581907FD1F4D12C1EC0E6
:104C200090E0589FF001599FF00D1124E851FE4F7C
:104C30006181361306C06081261303C06281E612CB
:104C40000FC001968770D5CF9F7011F0882331F384
:104C5000805E883018F3C8010E945E1EFD2CB1CF23
:104C6000EE2009F4AECF8091E60181608093E601E9
:104C7000F12CA7CF431306C0921304C0F801EE2015
:104C800009F479C0C8010E94A412882309F1EE201A
:104C9000F9F08091E601803270F02091E1013091CD
:104CA000E20138872F831986DB86CA868C87CE017E
:104CB00007960E945E1E86E0F801A1EEB1E0019029
:104CC0000D928A95E1F70E943E25FF24F39479CF57
:104CD000C8010E945E1EF9CF51110AC081EE91E019
:104CE0000E945E1E86E0F50111928A95E9F7C0CF19
:104CF00043130FC092130DC0E1100BC0F801858360
:104D0000C8010E945E1E86E0F50111928A95E9F7BE
:104D100058CFC8010E94A4128823D1F2EE20C1F21C
:104D20008091E601803238F22091E1013091E20178
:104D30003A8329831B82DD82CC828E83CE01019649
:104D4000B8CFE83CF105F8F6FE2CEE2009F243134B
:104D50001FC092131DC08091E60180FD10C0982FE6
:104D6000907F69F0F8018583903F31F0982F907F14
:104D7000905F8F70892B8583C8010E945E1E86E03C
:104D8000F801A1EEB1E001900D928A95E1F719CFFB
:104D9000C8010E94A41281118ECF8091E60181602A
:104DA0008093E601C8010E945E1E0BCFEE2009F43D
:104DB0008FCFC8010E94A412F82E882309F488CF4F
:104DC00086E0F801A1EEB1E001900D928A95E1F73D
:104DD0008091E1019091E2010E9497120E943E258C
:104DE000F0CE81E08E25FBCEA7E1B0E0EAEFF6E25F
:104DF0000C94BE314B8B5C8B6D8B7E8B8F8B6111DA
:104E000010923C021A8A198A85E0FE017396DE012F
:104E10001D9601900D928A95E1F78091A90282FF7B
:104E20001CC00E94220A2091190230911A02821B92
:104E3000930B8838934120F080911B0282FF78C049
:104E40000E94220A20913E0230913F02821B930B66
:104E50008838934110F00E94A30D86E0FE013D9634
:104E6000DE01179601900D928A95E1F7CE01079623
:104E70000E949325811112C086E0FE013796DE0163
:104E8000119601900D928A95E1F78A859B85892B71
:104E900029F088859F8189238F3F81F516E08091D5
:104EA00018029091E701891317C06796E3E00C940C
:104EB000DA3196E0929FD001939FB00D1124A85152
:104EC000BE4FFE01319601900D929A95E1F78093C5
:104ED000E7010E941B0EE2CF819FC001112488517F
:104EE0009E4F0E949325882301F38091180290E041
:104EF00001968770992780931802D1CF2091E701FE
:104F000030E0C9010196877099274091180248172F
:104F1000190679F60E945C171092E70110921802A8
:104F200086E0E1EEF1E0DF011D928A95E9F7B6CF68
:104F300082E00E94FC1684CFA5E0B0E0E2EAF7E24E
:104F40000C94BD318C0190939602809395020115CB
:104F500080E21807C0F4802F0E940F1CC8010E9435
:104F6000AE0E9801205E31092830310518F0011588
:104F7000110531F40E94FE1B2596E4E00C94D93112
:104F80000E94E91BF9CF80EF89838A831B820E94EC
:104F9000220A8160782F9D838C8349815A816B819D
:104FA0008D810E94F426E8CFA5E0B0E0EAEDF7E2BB
:104FB0000C94BD318C01909396028093950201155B
:104FC00080E21807C0F4C8010E94AE0E9801205E6E
:104FD00031092830310518F00115110549F40E94F6
:104FE000051C802F0E94601C2596E4E00C94D931AA
:104FF0000E94F41BF6CF80EF89838A8381E08B8344
:105000000E94220A8160782F9D838C8349815A8176
:105010006B818D810E94F426E7CF90E080E00E94B2
:105020001E32883E9E4F19F40E94C412089580E0FB
:1050300008950E940D2881110AC00E9436158091A2
:10504000910284708162809391020E94961386E09F
:1050500090E00E94103280939102883220F0877095
:1050600080628093910290919102892F817090FFCC
:1050700004C0892F8695869586950E94E10A089539
:105080001F920F920FB60F9211242F933F934F93BD
:105090005F936F937F938F939F93AF93BF93CF93C0
:1050A000DF93EF93FF93D091E900DF708091EC00E4
:1050B000C82FC17080FDC0E81092E9008091F00017
:1050C000877F8093F00078940E9472171092E90015
:1050D0008091F00088608093F000CD2BCF70C0935A
:1050E000E900FF91EF91DF91CF91BF91AF919F9137
:1050F0008F917F916F915F914F913F912F910F9081
:105100000FBE0F901F9018951F920F920FB60F921F
:1051100011242F933F934F935F936F937F938F93BC
:105120009F93AF93BF93EF93FF938091E10082FF32
:1051300015C08091E20082FF11C08091E1008B7F59
:105140008093E1002091AF022F5F822F62E30E94E3
:105150001B31992309F4C0C02093AF028091DA007B
:1051600080FF28C08091D80080FF24C08091DA00A1
:105170008E7F8093DA008091D90080FFE3C080E1C8
:1051800089BD82E189BD09B400FEFDCF81E0809335
:10519000DE0288E09EE00E94BF078091B00281118C
:1051A00009C00E9461080E9454098091E200846055
:1051B0008093E2008091E10080FF1BC08091E200BB
:1051C00080FF17C08091E2008E7F8093E200809183
:1051D000E20080618093E2008091D8008062809339
:1051E000D80019BC85E08093DE0280E19EE00E9439
:1051F000BF078091E10084FF2FC08091E20084FF0F
:105200002BC080E189BD82E189BD89B5982F91705D
:1052100080FFFBCF8091D8008F7D8093D800809154
:10522000E1008F7E8093E1008091E2008F7E809389
:10523000E2008091E20081608093E2008091D502DB
:10524000882309F489C084E08093DE0284E19EE033
:105250000E94BF078091DE028091E10083FF2BC096
:105260008091E20083FF27C08091E100877F8093D7
:10527000E10082E08093DE021092D5028091E1008D
:105280008E7F8093E1008091E2008E7F8093E20028
:105290008091E20080618093E20042E060E080E083
:1052A0000E9422098091F00088608093F00088E1DC
:1052B0009EE00E94BF07FF91EF91BF91AF919F9138
:1052C0008F917F916F915F914F913F912F910F90AF
:1052D0000FBE0F901F9018951092AF028091AE02F2
:1052E000882309F43BCF8091DE028430C1F4909191
:1052F000E9009F702091EC00822F817020FD80E8F2
:10530000892B95E09093E9009091EB0090FF04C009
:105310009091EE0097FD08C08F708093E900109285
:10532000AE021CCF1092F1009091E80095FDFACFEB
:105330009091E80090FFF0CF9091E8009E779093D5
:10534000E800EACF19BC1092DE028CE09EE00E94D9
:10535000BF071092B0022ECF8091E30087FD93E04B
:105360009093DE0273CF78941F921FB61F92112480
:105370008F939F93AF93BF938091A4029091A502C6
:10538000A091A602B091A7020196A11DB11D809324
:10539000A4029093A502A093A602B093A702BF9186
:1053A000AF919F918F911F901FBE1F9018951F92D4
:1053B0001FB61F9211248F939F93AF93BF93809139
:1053C000A302811113C08091A4029091A502A09123
:1053D000A602B091A7024196A11DB11D8093A4021F
:1053E0009093A502A093A602B093A702BF91AF919C
:1053F0009F918F911F901FBE1F9018951F920F9223
:105400000FB60F9211242F933F934F935F936F9397
:105410007F938F939F93AF93BF93EF93FF9380916D
:105420001A018230A1F08F5F80931A01FF91EF91F2
:10543000BF91AF919F918F917F916F915F914F91AC
:105440003F912F910F900FBE0F901F90189581E004
:1054500080931A018091930290919402019660EAE0
:1054600075E00E94273190939402809393026BE041
:1054700070E00E94273167FD6FE7809192028230D1
:1054800041F4603451F480916F008E7F80936F00FF
:1054900004C0813011F46F37B1F3E62FF0E0E35D23
:1054A000F84F2491A0918600B091870030E00E94CF
:1054B00086312FEF30E040E050E00E944F313695CA
:1054C00027953695279580919102869586958695A4
:1054D000482F429FC001439F900D11240E94670AEC
:1054E00090938B0080938A00A1CFCDB7DEB7E5976C
:1054F0000FB6F894DEBF0FBECDBF85B7806885BFFD
:1055000085B7806885BF84B7877F84BF0FB6F8945E
:10551000A89580916000886180936000109260007F
:105520000FBE80E890E00FB6F894809361009093EE
:1055300061000FBE8FED9EE09093A3018093A201C6
:105540000E9461080E9454098091E2008460809367
:10555000E20078948091DE028823A1F01091E900A6
:105560001F709091EC00892F817090FD80E8182BBE
:105570001092E9008091E80083FD0E9472171F706D
:105580001093E90082E084BD93E095BD9AEF97BD4A
:1055900080936E000E94C412811102C00E94861383
:1055A00005E511E0BAE5EB2EB1E0FB2ED8018D91B7
:1055B0008D018F3F11F00E94CC0BE016F106B1F780
:1055C0000AE511E0F80181918F018F3F11F00E94EF
:1055D000CC0BF1E008361F07A9F78AE0EFE5F2E00F
:1055E000DF01282F1D922A95E9F7E5E4F2E0DF01BB
:1055F0001D928A95E9F70E940D28811102C00E9430
:10560000361582E090E00E94103280939C020E9446
:10561000DD129093A9028093A8020E94A115EFE3E6
:10562000FCE93197F1F700C000000E94A1158091BC
:105630005F0280FF08C06FEF7FEF90E080E00E9484
:1056400042320E94B50F83E090E00E9410320E9427
:105650005717229A2A9A269A2E9882E280938000DF
:1056600089E1809381008FEF9FEF90938700809373
:1056700086000E9419288091910281FF0BC0109230
:105680009402109293021092920280916F008160B6
:1056900080936F000E94192880914F02811133C0BE
:1056A0000E940D28811104C00E9436150E94261503
:1056B00088E090E00E94183260938C0270938D0213
:1056C00080938E0290938F026E7F71F40E94261554
:1056D00088E090E00E94183260938C0270938D02F3
:1056E00080938E0290938F020E94270B109270027B
:1056F00080918C0280FF04C060E086950E94BF14F8
:1057000081E080934F0280E091E09093A00280932B
:105710009F028091DE02853099F483E592E00E9439
:10572000BF0700E112E18091DE02853009F44AC032
:105730000E945C170E9419280E945A0A0E94900E2B
:105740000E94A115882359F08FB7F8944091A402C4
:105750005091A5026091A6027091A7028FBFF0E55B
:105760004F2EF2E05F2EEFE5F2E0FCABEBAB10E08A
:1057700000E0A9E56A2EA2E07A2E0DABABA9BCA988
:10578000ED90FD90BCABABABF201A190B1902F01BD
:10579000AE14BF0409F058C00F5F1F4F053011054C
:1057A00061F78FEF8EA78FA718AA0E94220A816047
:1057B000782F9AAB89AB4EA55FA568A98AA90E94EC
:1057C000F42673C08091DE02843051F180E00E94A3
:1057D000E10A80E00E94900E1092A30228E130E0DE
:1057E00080E40FB6F894A895209360000FBE8093D4
:1057F000600083B7817F846083BF83B7816083BF8C
:105800007894889583B78E7F83BF0FB6F894A89558
:1058100080916000886180936000109260000FBEEC
:105820008091D402882309F47ECF0E94A115EFE570
:10583000F2E081919191892B09F0CFC4A9E6B2E001
:10584000AE17BF07B1F76FCF80919C0281FDB8C042
:1058500080E0CC24C394D12CAE24BF2495012C210C
:105860003D21232B09F4E6C089A78DA98AA7EC2046
:10587000FD2081E0EF2809F480E08BA70E94220A36
:105880008160782F9DA78CA749A55AA56BA58DA5EA
:105890000E94F426000F111FF801E05BFD4F80818C
:1058A0009181C826D926D182C08280917002882336
:1058B000D1F180916F02E0918C02E695E81BE093B4
:1058C0006B02823009F0BDC0F0E0E457FD4FE49177
:1058D0000E2F10E048E0E42E42E1F42E80916C029D
:1058E000882361F010926C020E94220A90936A024F
:1058F0008093690210926E0210926D020E94220A39
:10590000E0916902F0916A028E1B9F0B8F3F9F47C7
:1059100050F4E00FF11FF0936A02E093690289E608
:1059200092E0F70109950E945A0A90915A0289174C
:1059300021F080935A020E94900E8091DE02843002
:1059400009F0E7CE83E08093E9008091E80082FFD0
:10595000E0CE8091E80090E085FF0CC00E948008B6
:1059600070E2E72EF12C8E010F5F1F4F882309F4A0
:10597000CCC091E08091E8008B778093E800992378
:1059800009F4C7CE00919702109198028981011500
:10599000110509F4C8C08E3F09F066C18A818330C1
:1059A00020F08550833008F05FC1EA81EE3008F0C6
:1059B0005BC1F0E0EA54FD4CCE0101960C947131CC
:1059C00087E692E00E94BF077FE5872E72E0972E60
:1059D000D12CC12CDF92CF9222E632E03F932F935D
:1059E0000E9458088FE592E00E94BF07D4018C9175
:1059F00011962C90B2E08B0E911C0E94960E382EC0
:105A0000822D0E94960E3F928F937F926F920E94FA
:105A1000580887E592E00E94BF07EFEFCE1ADE0A32
:105A20000FB6F894DEBF0FBECDBF35E0C316D1046C
:105A300089F60ECF8F5FCC0CDD1C8E3009F00ECFB7
:105A4000ABCE863059F4F0E0E757FD4FE4910E2FCE
:105A500010E038EFE32E31E1F32E40CF893061F4CE
:105A6000E695F0E0EA57FD4FE4910E2F10E02CE6AA
:105A7000E22E21E1F22E32CF8F3061F4E695F0E094
:105A8000ED57FD4FE4910E2F10E09EE0E92E91E1DD
:105A9000F92E24CF853159F4F0E0E058FD4FE49120
:105AA0000E2F10E080ECE82E80E1F82E17CF08E2F0
:105AB00010E0F5E4EF2EF0E1FF2E883109F40ECF6F
:105AC000833249F4EEE7F2E005911491B7EAEB2E48
:105AD000B1E1FB2E03CF04EF11E0AEE0EA2EA0E12E
