:100000000C9406040C943E040C943E040C943E04A0
:100010000C943E040C943E040C943E040C943E0458
:100020000C943E040C943E040C9482290C943E29BA
:100030000C947F2A0C943E040C943E040C943E04D1
:100040000C943E040C943E040C943E040C943E0428
:100050000C943E040C945B2A0C943E040C943E04D5
:100060000C943E040C943E040C943E040C943E0408
:100070000C943E040C943E040C943E040C943E04F8
:100080000C943E040C943E040C943E040C943E04E8
:100090000C943E040C943E040C943E040C943E04D8
:1000A0000C943E040C943E040C943E04050109801B
:1000B000A101850319012AB700150126B700950192
:1000C00075108100C0050C0901A101850419012AE0
:1000D000A002150126A002950175108100C00660DE
:1000E000FF0961A1010962150026FF00952075082E
:1000F00081020963150026FF00952075089102C052
:1001000005010906A101050719E029E715002501E8
:10011000950875018102950175088101050719008F
:1001200029FF150026FF00950675088100050819AE
:10013000012905950575019102950175039101C08D
:10014000FD377A585A000004E6D6B4460200210171
:1001500016000000742FE5A3E0095D02695D003D13
:100160008889C65436C3174FE4F2B8B24131EF4C18
:1001700028C154B52A7DBE17FC8ABBDEF9ED5C4C64
:10018000D075988338404518535692ADEFC50E325E
:100190001344CCBCACAD3176DC27FBA69398FBA70F
:1001A00067048D005F8B78ED50D006DF8333558375
:1001B000F813C058334DA2A5DBBA61B583E4D994D6
:1001C000C01B7F3447A6F4F1C2A6C2409A8A9E9A09
:1001D0000F65BA8E02AB861E357482410D63C8DF8F
:1001E000396621478D8B70EAE401C02266FDA00CC0
:1001F000A8E1150A2EDCD21BD38D663157B8DF6B10
:1002000086F6BF405E1CF6824A15C55B7F7B7A414D
:10021000C541D1627A23BC23DA16AE5AD1DD4BFC3C
:100220007F6C23AABDECE76E81826A17B113F916C1
:10023000E722A8007D082237CEA28481394F3E2DC7
:10024000A71B5FD041B0BD1FD7A3953F21BDBCE325
:100250000E50D950F7D56933E19B7281B3EE7D33EF
:100260006588F87FBEDEF34CB7A1296285A1AF098E
:100270001FC4835CC41E5E4D44DA05C922123D07CB
:100280006DB6D4533F3DCE73E226154F9AC44E4F00
:100290001D2E22516B387EE6FFEA0A5E8AEBFB7761
:1002A00046CE0F08F0170E84858000CD67B0E6BA01
:1002B0000C591D60A9A0B4C55FA9055F6B5A41D553
:1002C00070DBA44E1E4D7DE2485162359F565606A6
:1002D0007CF3026D7B26F84CC7F279FD52637E9C5D
:1002E0005B9D1897605EBE132FDD0AB6F4E5E77BD1
:1002F0002ABBA55B9F9E57004EEA40D83838324053
:1003000003A66D83FA867B957DC31DED63CAC2C3C8
:10031000A3890EF0B0BCC807D9C4CAAF5F97846D7B
:100320003CD3F168154222DD47447F9E5ED5A2F59D
:1003300066FBCF1EB96E9563F8A3B0D8EE49DF4CCB
:100340007A2783EFB97EE48E32E145D14491733C44
:100350000AA15CE4F8FE461E27A1E30655CDBA3497
:1003600048A051B0914E13852539A85FD073A800DD
:100370004ED2C16062FCF5FEB9F16A06FD492B71EF
:100380003CC2BE31BAE3B8AD3CCCBEE3F95524461D
:10039000FE55555331E43AB5E66BDE27A57AFCBE2F
:1003A000FDEFBEF4942C7751B81619C5B987A6AFE6
:1003B000C977BD849B0F9616D0FC1E88A6058E912A
:1003C000582ED5C01259410900000000C662D3B7AB
:1003D000576EE92800018505DE1200007267E19C76
:1003E000B1C467FB020000000004595A29001E0036
:1003F0001F002000210022002300240025002600E9
:1004000027002D002E002A002B0014001A000800DF
:10041000150017001C0018000C00120013002F001C
:1004200030002A00390004001600070009000A0005
:100430000B000D000E000F003300340028003100C7
:10044000E1001D001B00060019000500110010004E
:10045000360037003800E50001000000E000E3004E
:10046000E2000100000000002C0000000100E60096
:100470000151E700E40000000100BF5CBD5CBE5C10
:100480000100010001000100010001000100010064
:10049000010001000100010001000100005C0100F9
:1004A0000100010001000100010001000100010044
:1004B0000100010001000100010001000100010034
:1004C0000100010001000100010001000100010024
:1004D0000100010001000100010001000100010014
:1004E0000100010001000000010001000100010005
:1004F00000000000AE00000001000100010001004A
:1005000001000000010001000100010001000100E4
:1005100001000100010001000100010001000100D3
:1005200001000100010001000100010001000100C3
:1005300001000100010001000100010001000100B3
:1005400001000100010001000100010001000100A3
:100550000100010001000100010001000100010093
:100560000100010001000100010001000100010083
:100570000100000001000100010001000000000076
:100580000100000001000100010001000100000065
:100590000100010001000100010001000100010053
:1005A0000100010001000100010001000100010043
:1005B0000100010001000100010001000100010033
:1005C0000100010001000100010001000100010023
:1005D0000100010001000100010001000100010013
:1005E0000100010001000100010001000100010003
:1005F00001000100010001000100010001000000F4
:1006000001000100010001000000000001000000E5
:1006100001000100010001000100000001000100D3
:10062000C503A40CD70C000002000200C103A40CF7
:10063000D70C000003000100C603A40CD70C000077
:1006400004000200AB03A40CD70C860705000100D0
:10065000C703A40CD70C000006000200AD03A40CD5
:10066000D70C000007000200C303A40CD70C000045
:1006700008000100C803A40CD70C000012000200FF
:10068000C903A40CD70C000013000200CB03A40C78
:10069000D70C000014000100CD03A40CD70C0000FF
:1006A0001500000000000C07E813000009025B00C1
:1006B000030100A0FA09040000010301010009215F
:1006C000110100012240000705810308000109040F
:1006D0000100020300000009211101000122220093
:1006E0000705820320000107050303200001090418
:1006F0000200010300000009211101000122320063
:10070000070584032000011201000200000008D840
:1007100004BEEB0100010203011C037600690061C5
:10072000006C003A0066003600340063003200625C
:10073000003300630000000803680036003000004A
:10074000001403680069006E00650079006200759E
:1007500000730068000000040309040000000000AA
:100760000000000000000000000000000000000089
:100770000000000000000000000000000000007EFB
:100780000F00D4FFFFFFC70000007800000000004A
:100790000000002A2B2800000000000000000000DC
:1007A00000000000000029000000002C1E34202161
:1007B0002224342627252E362D3738271E1F2021A8
:1007C00022232425263333362E37381F0405060707
:1007D00008090A0B0C0D0E0F101112131415161721
:1007E00018191A1B1C1D2F3130232D35040506073F
:1007F00008090A0B0C0D0E0F101112131415161701
:1008000018191A1B1C1D2F3130354C0011241FBE26
:10081000CFEFDAE0DEBFCDBF04B603FE18C0809193
:10082000BA049091BB04A091BC04B091BD04873080
:10083000904BA740B04B59F41092BA041092BB04ED
:100840001092BC041092BD04E0E0F8E3099511E0B9
:10085000A0E0B1E0E4EBF4E602C005900D92AE3604
:10086000B107D9F724E0AEE6B1E001C01D92AA3B82
:10087000B207E1F70E94A62A0C942D320C940000D6
:10088000E8EDF0E080818E7F80831092E20010928C
:10089000DA001092E100A0EEB0E08C9181608C93C0
:1008A00080818F77808319BCA7EDB0E08C918E7F1B
:1008B0008C9380818F7E80831092A1040895209173
:1008C000E4003091E50095E6A9012091EC00822F2B
:1008D000817020FF06C08091E80080FF06C080E0A4
:1008E00008952091E80022FD1AC08091B704882362
:1008F00089F0853089F08091EB0085FD0FC0209153
:10090000E4003091E50042175307F9F29150E1F607
:1009100084E0089582E0089583E0089581E00895D9
:10092000EF92FF920F931F93CF937C018B010E9454
:100930005F04C82F811117C08091E80085FD0BC0AE
:100940008091E8008E778093E8000E945F048823FE
:1009500099F3C82F08C0F70181917F018093F100BE
:100960000150110949F78C2FCF911F910F91FF90E2
:10097000EF900895CF93FC018091B704843001F586
:10098000C091E900CF702091EC00922F917020FD72
:1009900090E8C92B82E08093E9008091E80080FF15
:1009A0000CC050E040E060E270E0CF010E94900493
:1009B0008091E8008E778093E800CF70C093E900C3
:1009C000CF9108958091AF0487FF13C08091E80014
:1009D00082FF06C08091E8008B778093E80004C016
:1009E0008091B7048111F2CF08958091B7048823D4
:1009F000D9F38091E80080FFF8CF8091E8008E77EE
:100A0000ECCF982F9093E900242F762F50E0891790
:100A100031F07091EC002091ED005091F00021FD3B
:100A200007C09F5F973071F78093E90081E00895D8
:100A30003091EB003E7F3093EB003091ED003D7F35
:100A40003093ED003091EB0031603093EB00709308
:100A5000EC002093ED005093F0002091EE0027FD74
:100A6000E0CF80E00895B0E0A0E0E9E3F5E00C9489
:100A70008031C8EDD0E088818F7E8883E7EDF0E09B
:100A800080818160808384E082BF81E08093A104C3
:100A900088818E7F888302EE10E0F8011082109228
:100AA000DA0081EEC82ED12CF601108288818F7772
:100AB000888388818068888388818F7D888319BC3A
:100AC0001092B7041092AE041092AD041092AC04D0
:100AD00090EEE92EF12CF70180818B7F8083888155
:100AE0008160888342E060E080E00E940105F601B9
:100AF00080818E7F8083F801808181608083808106
:100B000088608083F70180818E7F80838881806107
:100B10008883CDB7DEB7E8E00C949C31FC0180916E
:100B2000B5049091B60486179707A0F0611571057A
:100B300029F49091E8009E779093E80090E0611589
:100B4000710551F4911108C08091E80082FF34C012
:100B500080E00895BC01F2CF8091B7048823C1F1F1
:100B60008530C1F18091E80083FD30C08091E800BC
:100B700082FDEACF8091E80080FFE1CF8091F30011
:100B80002091F200382F6115710519F028303105D8
:100B900058F091E02830310509F090E02091E8000C
:100BA0002E772093E800CBCF81918093F1006150A4
:100BB00071092F5F3F4FE7CF8091B704882341F041
:100BC000853041F08091E80083FFBECF81E0089539
:100BD00082E0089583E00895089508958091A30424
:100BE00008959C014FB7F89480919A0490919B04CA
:100BF000A0919C04B0919D044FBF821B930B08955C
:100C00002FB7F89460919A0470919B0480919C0492
:100C100090919D042FBF08952FB7F89480919A0466
:100C200090919B04A0919C04B0919D042FBF0895C6
:100C300020919704309198042817390771F0909308
:100C4000980480939704E0919504F091960430976E
:100C500021F00084F185E02D0995089520919304F9
:100C6000309194042817390771F09093940480937D
:100C70009304E0919504F0919604309721F006805A
:100C8000F781E02D09950895E0919504F09196047F
:100C9000309729F00190F081E02D0995089580E0CA
:100CA0000895CF93DF93EC01409183045091840425
:100CB00060918504709186042FB7F89480919A040E
:100CC00090919B04A0919C04B0919D042FBF841B24
:100CD000950BA60BB70B843F9140A105B10518F504
:100CE0008091830490918404A0918504B09186043E
:100CF00080937F0490938004A0938104B093820436
:100D000084EF91E0A0E0B0E080937B0490937C04BA
:100D1000A0937D04B0937E04D0938B04C0938A0487
:100D2000DF91CF9108950E94000660937F04709335
:100D30008004809381049093820482E390E0A0E099
:100D4000B0E0E2CFFC018481862351F492819923A3
:100D5000B9F06923808583FF05C081E061110FC070
:100D600080E00895892F8F7092959F70982B862F21
:100D70008F7062956F70682B81E09613F1CF0895A4
:100D800081E0FDCF452B39F0682381E06F3F09F00A
:100D900080E08170089581E0FCCFDC0160917704F0
:100DA00080917804962F891301C00895292F30E08F
:100DB000F901EE0FFF1FE159FB4F408151814A17A6
:100DC0005B07A1F487E08A9FA0018B9F500D11243F
:100DD000495C5B4F81E0FA0184839613E6CF2F5F75
:100DE0003F4F237033272093770408952F5F3F4FA1
:100DF000922F9370D8CF1092D4031092D303E7E3CD
:100E0000F4E08581811102C014821682379684E055
:100E1000EF36F807B1F70895B0E0A0E0E2E1F7E0BF
:100E20000C947E318FEF9FEF4430510508F469C078
:100E30004091880341FB882780F990E0880F991F33
:100E400042FB002700F910E0000F111F000F111FD7
:100E5000802B912B40FBCC24C0F8D12C8C299D29D0
:100E600043FB222720F9C22FE0E0DE2F53E0CC0F16
:100E7000DD1F5A95E1F78C2B9D2B44FBAA27A0F987
:100E8000B0E0E4E0AA0FBB1FEA95E1F78A2B9B2BA9
:100E900045FBEE27E0F9F0E0A5E0EE0FFF1FAA9575
:100EA000E1F78E2B9F2B46FB222720F930E0B6E09E
:100EB000220F331FBA95E1F7822B932B47FB222792
:100EC00020F930E03695322F222737952795822B4F
:100ED000932B20918903322F3170F32EE82EF92ABB
:100EE00026952170B22EBB0CA82EBF28C501BB0CC5
:100EF000AA0BBB0BFB0180839183A283B38390E099
:100F000080E0CDB7DEB7EAE00C949A318091AB0374
:100F10009091AC0390930E0180930D010895E7E347
:100F2000F2E090E080E063EA78E24AEC58E228E1FF
:100F300038E2778366835187408733872287958796
:100F4000848701963E968830910599F7089581151A
:100F50002CE5920741F42091820330918303232BE7
:100F600011F490E080E0089580E00895F894E82F6F
:100F7000E295EF70F0E031A1282F2F7081E090E032
:100F800001C0880F2A95EAF7982F9095932391A393
:100F900092A1892B82A3789408959091880392FF5F
:100FA00006C0282F28712830F9F4877F846093FFCA
:100FB00006C0282F28712831F1F4877E84612091A2
:100FC000890320FF06C0382F38713830D9F4877F65
:100FD000816021FF06C0282F28712831D1F4877E37
:100FE000816194FD877E0895282F24712430F9F6BD
:100FF0008B7F8860DCCF282F2471243101F78B7E12
:101000008861DDCF382F3171313019F78E7F8860DC
:10101000E0CF282F2171213121F78E7E8861E1CF29
:10102000CF93DF93EC0182389105B1F108F040C015
:101030008133910509F49DC048F58932910509F481
:101040008DC08A9709F49CC0C11522E5D20708F02B
:10105000BDC0C11531E5D30708F025C1C83ED10593
:1010600008F0A3C0C13ED10588F5C83AD10508F003
:101070008EC0C53AD10508F0F6C0C130D10531F1B6
:10108000209721F1C430D10508F545C0853391057D
:1010900009F45FC0C997C1F680918803837009F095
:1010A00037C18091890383FF11C0C9E2D0E00EC02F
:1010B000833E910599F170F4803E910501F1823EE5
:1010C000910511F68091880382FD21C0CE01DF9148
:1010D000CF910895863E910561F1873E910571F1AA
:1010E000843E910509F0B0CF8091890381FFEECF56
:1010F00080918803C7EED0E084FD0DC0E7CF8091DA
:10110000880380FD33C09091890390FFDFCFC3EE49
:10111000D0E084FFDBCFD0E0C0E0D8CF809188035F
:1011200082FDF3C09091890390FDF2C084FFCECF81
:10113000F2CF8091880383FDDDCFC8CF80918803F3
:1011400083FDE9C09091890391FFF0CFC4EED0E018
:10115000BDCF8091880385FFB9CFA7CF8091880349
:1011600085FDDCC08091890383FFB0CFC9E3D0E067
:10117000ADCF8091880386FFA9CFCAE2D0E0A6CF89
:101180008091880386FFA2CFC1E3D0E09FCFCF3B01
:10119000D10508F6C85AD0E0CC0FDD1FC35EDE4F84
:1011A0000990D881C02DD46491CFC11540E5D407F2
:1011B00008F064C0C11580E4D80708F05CC0CE0117
:1011C0009A9581159F4108F481CFA5CFC11536E5C9
:1011D000D30718F5C11545E5D40708F07DC0C11542
:1011E00084E5D80708F073C09C2F969596959E01CC
:1011F00023703327C115D34508F45AC0C1E0D0E0AD
:1012000002C0CC0FDD1F2A95E2F730E2939FC001A8
:101210001124C82BD92BDA6859CFC1158AE5D80714
:1012200078F4C11529E5D20708F061C0C11538E589
:10123000D30708F470CFDC2FCC27C06FD06A46CF1D
:10124000CE0190568115904208F065CF8D2F8F7199
:101250000E94CD0790E0982F882788279F719C01D6
:101260002C2BE90142C0C55AD0E0C65EDE4FC881D2
:10127000D0E0D0642BCFDF70D06A28CF2C2F2695FA
:101280002695237080E2289F900111248C2F837073
:10129000C1E0D0E002C0CC0FDD1F8A95E2F7C22B7F
:1012A000D32BDD6813CFDC2FCC27C16FD06A0ECFD4
:1012B000C1E0D0E002C0CC0FDD1F2A95E2F720E2AA
:1012C000929FC0011124C82BD92BDC68FFCEDC2FE4
:1012D000CC27C46FD06AFACE8C2F0E94CD07C82FBE
:1012E000D0E0DC2FCC27CC27DF71D062EFCE8C2F63
:1012F0008F700E94CD0734E0D695C7953A95E1F7F7
:10130000CF709C2FEC01D069E1CEC2EED0E0DECEF2
:10131000C0EED0E0DBCEC6EED0E0D8CEC5E3D0E064
:10132000D5CE8091F001882331F01092F001109217
:10133000EF011092EE010895CF93C82F8091890399
:1013400082FF0CC08091F0018C1741F00E940C06C6
:101350009093EF018093EE01C093F001CF91089537
:1013600080959091B90498239093B904089580953D
:1013700090918A03982390938A03089590918A0309
:10138000892B80938A0308951092E5011092E4015D
:101390001092E30108958091AD039091AE03892BE3
:1013A00089F00E940C062091EE013091EF01AC0112
:1013B000421B530B81E02091AD033091AE034217E5
:1013C000530708F480E081700895E2E7F1E091911D
:1013D000891303C0DF0111971C9291E0E837F907E8
:1013E000B1F70895A2E7B1E0EFEF90E02D918217F9
:1013F00051F0EF3F19F4211101C0E92F9F5F9630A2
:10140000A9F7EF3F09F408950E2E000CFF0BE059E9
:10141000FE4F828308952091E2019091A10129134A
:1014200002C080E0089530E0F90153E0EE0FFF1FA5
:101430005A95E1F7EE55FE4F5181561306C0508183
:10144000581303C05281541304C02F5F3F4F2770BD
:10145000E6CF81E008958091E2019091A101981377
:1014600001C008958F5F8770FACF292F953078F5E6
:101470008E3068F590E03EE0239F800D911D112491
:10148000682F677023E0969587952A95E1F7FC0110
:10149000EE0FFF1FE80FF91FE258FE4F50E040E04B
:1014A00080E0219130E0062E02C0369527950A94FF
:1014B000E2F721703327042E01C0220F0A94EAF7C5
:1014C000822B4F5F5F4F4330510559F7089580E0FD
:1014D0000895292F953098F58E3088F590E03EE0FC
:1014E000239F800D911D1124282F277041E001C0FA
:1014F000440F2A95EAF723E0969587952A95E1F718
:10150000FC01EE0FFF1FE80FF91FE258FE4F30E01D
:1015100020E070E05191DF011197CB01022E02C053
:10152000969587950A94E2F78170819585278423A3
:1015300085278C932F5F3F4F2330310559F708954E
:1015400092959F70963091F058F4925F9F70923010
:1015500058F4803F19F030F4883E30F481E008956B
:101560009A5FF4CF843FD1F380E00895883EB0F3D2
:10157000813FD1F7F3CF81FD02C0469A0895469886
:1015800008959C013A9521153F4150F5FC01EE2745
:10159000F170BC0166277270AC01442754709C0145
:1015A0002227387094FF0EC080E1EF2B09F480E011
:1015B000672B09F08062452B09F08064232B89F0AA
:1015C0008068089581E0EF2B09F480E0672B09F033
:1015D0008260452B09F08460232B19F08860089500
:1015E00080E0089580939E047093A00460939F040C
:1015F0008091B7048430F9F48093E9008FEF9091E3
:10160000E800815095FD06C095ED9A95F1F7000030
:101610008111F5CF8091E80085FF0DC050E040E0DA
:1016200063E070E08EE994E00E9490048091E8000D
:101630008E778093E8000895BC0184E00E94F20A4E
:101640000895BC0183E00E94F20A0895CF93DF93CE
:10165000EC0181E08093E9008FEF9091E8008150E8
:1016600095FD06C095ED9A95F1F700008111F5CF33
:101670008091E80085FF14C050E040E068E070E031
:10168000CE010E9490048091E8008E778093E8005C
:1016900088E0FE01A4EAB4E001900D928A95E1F79A
:1016A000DF91CF91089581E08093E00080E2809304
:1016B000D8001092C9008FE19EE40197F1F700C0B5
:1016C000000087E090EBDC018093BA049093BB04A8
:1016D000A093BC04B093BD0488E19CE00FB6F894DD
:1016E000A895809360000FBE90936000FFCF019794
:1016F00008F40895EFE9FFE03197F1F700C000002A
:10170000F6CF0F931F93CF93DF930BEA13E0C7E558
:10171000D2E0CE010E94E331F80181938F0121963E
:10172000CB37F2E0DF07A9F7C6E2D6E0FE018591EC
:101730009491009711F0FC0109952C96F6E0C63BB8
:10174000DF07A1F7DF91CF911F910F9108950F93BC
:101750001F93CF93DF93843030F5653020F54E3002
:1017600010F5C42FD0E0CC0FDD1F2CE1629FC00D1F
:10177000D11D11243CE8839FC00DD11D1124CE0141
:1017800087960E94E331082F10E0102F0027CE012A
:1017900088960E94E3319801282BC901DF91CF91EF
:1017A0001F910F91089590E080E0F8CF462F20918F
:1017B000860330918703232B99F4703F39F4603FFF
:1017C00079F480918403909185030895843040F4E6
:1017D000753030F46E3020F4672F0E94A70B089507
:1017E00090E080E00895CF92DF92FF920F931F93D5
:1017F000CF93DF936C010091B8048091F101082B25
:10180000C7E0D0E010E0FC2EC8010C2E02C0959578
:1018100087950A94E2F780FD0CC02197A0F7F12C80
:101820008F2DDF91CF911F910F91FF90DF90CF907F
:101830000895B6018C2F0E94D60B0E9410080197C4
:1018400061F3EECFCF93DF93EC010E94F30BBE0167
:101850000E94D60B0E941008DF91CF910895CF937C
:10186000DF93EC014B815C81698188810E94C20613
:10187000811110C08E819F81009739F00E9410085D
:101880000E94A00ADF91CF910895888199810E94DA
:10189000220CF6CF80E0F6CFA5E0B0E0E2E5FCE078
:1018A0000C94853149835A8389819A81662399F002
:1018B000222389F00E94F30B182F682F89819A81C7
:1018C0000E94690A69817A81812F0E94D60B259630
:1018D000E3E00C94A1310E94350A182FF3CFFC01EC
:1018E000262F86819781009739F44081518162814A
:1018F000738184810E944C0C089583E290E00E94E1
:10190000E331803589F484E290E00E94E3318F3A3C
:1019100059F485E290E00E94E33191E08B3D09F0BB
:1019200090E0892F8170089580E0FCCFCF9384E010
:1019300090E00E94E331C82F82E290E00E94E33100
:10194000982F8C2FCF910895DB01FC0132962591C1
:1019500034914217530758F0FC0134966591749105
:10196000A901CD010E94C33190E080E008958FEF7E
:101970009FEF08950F931F93CF93DF930BEA13E02C
:10198000C7E5D2E0CE010E94E331F80161918F01F9
:10199000681719F0CE010E94F1312196CB37F2E0A1
:1019A000DF0781F7DF91CF911F910F910895DA0141
:1019B0009C012E5F3F4FF90145915491F90125910A
:1019C0003491A217B30758F0FC0134968591949195
:1019D0000E94C3310E94BA0C90E080E008958FEF1E
:1019E0009FEF0895CF93DF93CBE6D3E060E0CE0185
:1019F0000E94F1312196C11584E0D807B9F7DF9133
:101A0000CF9108951F93CF93DF93122F8430E0F48A
:101A10006530D0F44E30C0F4C42FD0E0CC0FDD1FC1
:101A20009CE1699FC00DD11D11249CE8899FC00DC8
:101A3000D11D1124632FCE0187960E94F131612FB1
:101A4000CE0188960E94F131DF91CF911F910895C8
:101A5000CF93C82F6FEF811160E583E290E00E9481
:101A6000F1316FEFC1116FEA84E290E00E94F13131
:101A70006FEFC1116BED85E290E00E94F131CF91E3
:101A80000895CF93C92F682F84E090E00E94F13130
:101A90006C2F82E290E00E94F131CF9108959B017A
:101AA000883070F49AE0899FB001112465587D4F09
:101AB0004AE050E0C9010E94D33190E080E00895EF
:101AC0008FEF9FEF0895AAE0B0E0E9E6FDE00C9407
:101AD00086319C0137552F3F310509F068F4BE016E
:101AE0006F5F7F4F0E944F0D892B31F489859A8556
:101AF0002A96E2E00C94A2318091C3039091C40332
:101B0000F7CFAAE0B0E0E7E8FDE00C947C310AE012
:101B100013E088EFC82E82E0D82E9BE1E92E93E0F7
:101B2000F92E27E0922E37EFA32E32E0B32E882431
:101B30008394D6010D931D936D014AE050E0B701E7
:101B4000CE0101960E94D331F8013896DF01892D2C
:101B50001D928A95E9F789819A81D80111969C9303
:101B60008E938F8112968C9312978D8113968C93FE
:101B70001397888514968C931497898515968C9362
:101B800015978B819C8117969C938E931697189628
:101B90001C9218978A8587FF3CC01E961C921E9245
:101BA0001D9780FF03C0D80118968C9281FF04C056
:101BB000F80190859260908782FF07C0D80118963F
:101BC0009C911897946018969C9383FF04C0F80129
:101BD00090859860908784FF07C0D80118969C91E3
:101BE0001897906118969C9385FF04C0F801808532
:101BF00080628087015F1F4FFAE0EF0EF11C8BE6D9
:101C0000E81683E0F80609F094CF2A96ECE00C94ED
:101C10009831F801B686A586C4CFAAE0B0E0E3E12A
:101C2000FEE00C948031E7EAF2E080E5DF011D92EE
:101C30008A95E9F7E7E3F4E088E3DF011D928A95EE
:101C4000E9F787EAC82E82E0D82E7F010BEC12E07C
:101C5000F701D182C0824AE050E0B801CE0101967E
:101C60000E94D33188E0FE013196D60101900D9299
:101C70008A95E1F789859A85D70113969C938E936F
:101C80001297BAE0CB0ED11CE7E0EE0EF11C065F16
:101C90001F4F0B31F3E01F07D9F62A96E8E00C94AA
:101CA0009C31AAE0B0E0E7E5FEE00C9478318E01CB
:101CB0000F5F1F4F8AE0F80111928A95E9F79BE4C4
:101CC000E92E91E0F92E680120E5422E21E0522E06
:101CD00066246394712C4EE5842E41E0942EF70126
:101CE00081917F018F3F09F445C0F894E82FE29578
:101CF000EF70F0E021A18F70A30102C0440F551FC7
:101D00008A95E2F7CA01922F982B91A392A1809510
:101D1000892382A3789400C0E0E5F1E021E030E07F
:101D2000B12CA12C41914F3F09F464C0A42FA2957E
:101D3000AF70B0E090968C9190E04F7002C0959596
:101D400087954A95E2F780FD55C0C901A82AB92AAE
:101D5000220F331F8E169F0629F7F70131978081D6
:101D60008F3F11F00E94B60750EA5A95F1F7F6013D
:101D7000B182A082F2E0CF0ED11C4E145F0409F0B4
:101D8000AECF4AE050E0B80185EF91E00E94B63155
:101D9000892B99F18AE0F801A5EFB1E001900D924D
:101DA0008A95E1F781E08093F4010E940C069093FC
:101DB000F3018093F2018091F2019091F3010E946E
:101DC000F1050597F0F04AE050E065EF71E08BE136
:101DD00092E00E94B631892BC9F08AE0E5EFF1E08C
:101DE000ABE1B2E001900D928A95E1F781E01092AB
:101DF000F40108C090E080E0A9CF8091F401811146
:101E0000DACF80E02A96E0E10C94943180E0EFCFC5
:101E100080918A039091B904892B809370018091FD
:101E2000F001882309F18091AD039091AE03892BD5
:101E300029F00E94CB0981110E94910980917001C3
:101E40009091F001892B8093700120E082E791E06E
:101E5000FC013191CF0131112F5FF1E088379F07ED
:101E6000B9F721110E949109809187048095909182
:101E70007001892390918804892B8093700148E038
:101E800050E066EE71E080E791E00E94B631892B68
:101E9000A9F088E0E0E7F1E0A6EEB1E001900D9254
:101EA0008A95E1F7E0919504F0919604309731F02E
:101EB0000280F381E02D80E791E009950895CF93AA
:101EC000DF93EC01EA85FB85309719F06C857D8501
:101ED00009958B810E94B0098C810E94B7090E94EC
:101EE000080F86E0FE0111928A95E9F7DF91CF9104
:101EF0000895CF93DF93EC018D8181FD15C0826041
:101F00008D838091B9049B81892B8093B9048C8146
:101F10000E94BE090E94080FE885F985309721F0DC
:101F20006C857D85CE0109951092920410929104E2
:101F30008D8180FD03C0CE010E945F0FDF91CF91A4
:101F4000089580910F01877F80930F0182E00E94A6
:101F5000B00980910F0184FF06C08F7E80930F012E
:101F600082E00E94BE0980910F0185FF06C08F7D2F
:101F700080930F0180E20E94BE090E94080F08951D
:101F800090E080E00E942E0690E080E00E9418061B
:101F90001092B9040E94080F08958093B8040E941B
:101FA000C00F08958091B804982F9670963021F450
:101FB00088600E94CD0F0895877FFBCF21E030E03D
:101FC00001C0220F8A95EAF720958091B8048223F8
:101FD0000E94CD0F08959091E5018095892380930B
:101FE000E501282F277091F4282F082E000C330BC1
:101FF0009217130659F09091890392FF07C08595B7
:10200000859585950E94DE0F0E94C40908959091E0
:10201000890392FB222720F9281769F080FB92F9A7
:102020009093890380918803909189030E94410DC8
:1020300082E00E94EB0F089521E030E001C0220F02
:102040008A95EAF78091B804822B0E94CD0F0895FB
:102050009091890392FF10C098E0899F900111240C
:10206000622B6093E5010E941C100E940C06909365
:10207000E4018093E30108950E941C100895809369
:10208000F1010E94C00F089510928A03E2E7F1E087
:1020900086E0DF011D928A95E9F70E94C00F08953E
:1020A000AAE2B0E0E6E5F0E10C9485318FEA94E035
:1020B0002091F100DC012D93CD01B4E0873B9B071B
:1020C000B9F78091B004833009F472C0B8F481305C
:1020D00009F449C0823009F4B3C08091E80083FF5D
:1020E00096C28091AF049091B0049A3008F08FC2EC
:1020F000E92FF0E0E15DFD4C0C9469318A3009F480
:102100008EC08B3009F471C0893039F78091AF04EB
:10211000813219F78091B3049091B404009711F0C3
:102120000297D9F68091E800877F8093E80080913C
:10213000E80082FF38C09091F3008091F20002978E
:1021400031F48091F100813011F0863021F48091DA
:10215000F1008093A3048091E8008B778093E800DE
:102160000E94E204BACF8091AF04813A09F0B5CF62
:102170008091E800877F8093E8008091B30490917C
:10218000B404892B61F468E084EA94E070E00E9472
:102190008E058091E8008B778093E8009ECF60E009
:1021A00090E080E0F3CF8091B7048111C0CF95CF4C
:1021B0008091AF04813A09F090CF8091B30490915F
:1021C000B404892B09F089CF8091E800877F809340
:1021D000E8008091E80080FFFCCF8091110180939E
:1021E000F1008091E8008E77B9CF8091AF04813201
:1021F00009F073CF8091B3049091B404892B09F056
:102200006CCF8091E800877F8093E8000E94E20411
:102210008091B104809311010E9444105ECF80919F
:10222000AF04813209F059CF8091E800877F809315
:10223000E8000E94E2048091B2048093A2044DCF92
:102240008091AF04813A09F048CF8091E800877F00
:102250008093E8008091E80080FFFCCF8091A20489
:10226000BECF803899F0823809F0D1C18091B30493
:102270008F70873008F0CBC18093E9008091EB002C
:1022800085FB882780F91092E90006C08091AC0494
:102290009091AD04911182609091E800977F9093A6
:1022A000E8008093F1001092F1008091E8008E77B1
:1022B000AAC1882309F498C1823009F0A8C180918D
:1022C000B10481119BC18091B3048F702FEF280F4F
:1022D000263008F09CC18093E9002091EB0020FF9C
:1022E0008DC1933031F48091EB0080628093EB00DC
:1022F00085C19091EB0090619093EB0021E030E07C
:1023000001C0220F8A95EAF72093EA001092EA00B2
:102310008091EB008860EACF811179C11091B104FE
:102320001F778091E3008078812B8093E300809178
:10233000E800877F8093E8000E94E2048091E80033
:1023400080FFFCCF8091E30080688093E30082E00F
:10235000111183E08093B7045AC18058823008F08D
:1023600056C12091B1043091B2042C3DE3E03E0708
:10237000A1F583E08A838AE289834FB7F894DE016E
:10238000139620E03EE051E2E32FF0E05093570037
:10239000E49120FF03C0E295EF703F5FEF708E2F56
:1023A00090E0EA30C0F0C7968D939D932F5F243163
:1023B00059F74FBF8091E800877F8093E8006AE279
:1023C00070E0CE0101960E948E058091E8008B7727
:1023D0008093E8001CC1C096E7CF8091B304909130
:1023E000B404432F55274330510509F44AC078F50A
:1023F0004130510509F485C08BE590E0ECEAF6E048
:102400004230510509F003C12091E800277F209355
:10241000E8002091B5043091B6048217930708F4C0
:102420009C0140E02115310509F070C041116EC0DA
:102430008091E80082FDC9CF8091B704882329F2FA
:10244000853019F28091E80083FFF2CFBECF413290
:10245000510509F447C04232510509F0D8C0833014
:10246000910508F0D4C0FC01EE0FFF1FEF59FE4F9D
:102470000190F081E02D825A9E4FDC018C9190E01A
:102480001DC0332721303105E9F02115310579F0E0
:1024900022303105F9F02330310509F0B8C0E9E107
:1024A000F7E0E4918E2F90E0E9E1F7E007C0E7E57F
:1024B000F7E0E4918E2F90E0E7E5F7E0009709F46C
:1024C000A6C0A2CFE1E4F7E0E4918E2F90E0E1E432
:1024D000F7E0F4CFE7E3F7E0E4918E2F90E0E7E355
:1024E000F7E0ECCF8330910508F091C0880F991F79
:1024F000FC01E959FE4F0190F081E02D89E090E068
:1025000083CF82E190E0E7E0F7E07ECF8091B704EF
:10251000882309F45ACF853009F457CF8091E80019
:1025200083FD53CF8091E80082FD82CF8091E80047
:1025300080FF78CF9091F3008091F2002115310552
:1025400019F08830910550F041E0089709F040E01B
:102550008091E8008E778093E80064CF44914093A7
:10256000F1003196215031090196E8CF803809F009
:102570004EC08091E800877F8093E8008091AE0490
:102580008093F10092CE811142C01091B1041230BB
:10259000F0F58091E800877F8093E8001093AE0407
:1025A0000E94E204112311F084E005C08091E30051
:1025B00087FDFACF81E08093B70442E061EC81E0CF
:1025C0000E94010542E261EC84E00E94010542E2C2
:1025D00061EC82E00E94010542E260EC83E00E942F
:1025E00001058091B70413C08091B104813079F462
:1025F00081E0933009F080E08093AD041092E9000F
:102600008091E800877F8093E8000E94E204809137
:10261000E80083FF0AC08091E800877F8093E8008C
:102620008091EB0080628093EB00AA96E3E00C942B
:10263000A131EBEAF3E0128E138E8FEA90E09183E2
:10264000808385E0848F28E833E13383228322E38B
:1026500030E0378B268B28EC30E0318F208F158EC1
:10266000178E168E20E530E031A320A382A30E94AE
:10267000BA0C0E9444101092890310928803E9E872
:10268000F3E0808184608083809188039091890346
:102690000E94410D0E94810B0895AEE1B0E0E3E598
:1026A000F3E10C947B31A0908203B090830381E02E
:1026B00090E090938303809382038CEEC82E83E096
:1026C000D82E00E0760110E015C0F4012591349178
:1026D000472D612F802F0E94020D82E0880E911CF1
:1026E0007394EEE07E12F1CFFCE1EF0EF11C1F5F60
:1026F000153019F04701712CE8CF0F5F8CE8C80E38
:10270000D11C0430F9F60E9419131A8219821C8216
:102710001B821E821D8218861F8288EC90E09A8799
:1027200089870BE712E04AE050E0B801CE0101963C
:102730000E941532065F1F4F0B3CE2E01E0799F71F
:102740007E01FBE0EF0EF11C8AE0F70111928A9501
:10275000E9F74AE050E0B801C7010E941532065F70
:102760001F4F0B31F3E01F07A1F77E0185E1E80E53
:10277000F11C8AE0F70111928A95E9F78FEF9FEF3C
:102780009A8F898F87E08E8F4AE050E0B801C701A9
:102790000E941532065F1F4F0B36F3E01F07A1F7AB
:1027A000B0928303A09282036E96EDE00C94973171
:1027B00080E00E94280D60E086E290E00E94F13106
:1027C0000E944D130E94F20C81E00E94280D089592
:1027D000CF92DF92EF92FF928FEF9FEF443051053F
:1027E00008F46AC0FB01C080D180E280F3800E94BF
:1027F000441080918803C0FA80F9B701A60176954C
:1028000067955795479540FB81F9B701A60122E0EE
:1028100076956795579547952A95D1F740FB82F9AC
:10282000B701A60133E076956795579547953A9598
:10283000D1F740FB83F9B701A601E4E076956795EF
:1028400057954795EA95D1F740FB84F9B701A60162
:10285000F5E07695679557954795FA95D1F740FB42
:1028600085F9B701A601A6E0769567955795479536
:10287000AA95D1F740FB86F9B701A601B7E0769596
:10288000679557954795BA95D1F740FB87F980939F
:10289000880380918903D0FA80F9D1FACC24C0F85A
:1028A000C0FA81F98093890380918803909189030C
:1028B0000E94410D90E080E0FF90EF90DF90CF907C
:1028C00008950E9444102FEF84E39CE02150804043
:1028D0009040E1F700C0000088E19CE00FB6F8945A
:1028E000A895809360000FBE90936000FFCF88236F
:1028F00021F00E94B0090E94080F0895882339F042
:102900009091B904982B9093B9040E94080F0895F0
:10291000882321F00E94B7090E94080F0895882398
:1029200021F00E94BE090E94080F0895882309F42F
:102930004DC0823879F40E94440681FF47C089E384
:102940000E94F2090E94080F89E30E94E5090E9493
:10295000080F0895833859F40E94440680FF36C05A
:1029600083E50E94F2090E94080F83E5EECF8438C8
:1029700059F40E94440682FF29C087E40E94F209AC
:102980000E94080F87E4E1CF9CEF980F913AE8F29C
:1029900090E2980F983050F4877091E001C0990F41
:1029A0008A95EAF7892F0E94B709D1CF9BE5980F46
:1029B000933028F490E080E00E942E060895885A13
:1029C000873120F490E080E00E9418060895FF927D
:1029D0000F931F93CF93DF93F82E00918C041091E7
:1029E0008D040115110509F449C010928B04109251
:1029F0008A041092870410928804D8011696CD910B
:102A0000DC919E013A9521153F4108F4D07ED1E03A
:102A1000C11101C0D0E0D8011996ED91FC911A972F
:102A2000309731F01B966D917C9180E00995D82309
:102A3000DD2339F08CEF8C0F813A30F58C2F0E941A
:102A4000E509FF2099F0E0918C04F0918D048085D8
:102A500084FD0CC080918904882341F0808191819C
:102A60009C0121503109203B3D45A0F00E94080FF8
:102A700010928D0410928C0410928904C801CDB775
:102A8000DEB7E5E00C949F310E94080F8C2F0E9466
:102A90009614D7CF0E945106E9CFCF93DF93EC0174
:102AA0000E949614CE010E94C10A9E01205E310947
:102AB0002830310510F0CD2B29F40E948814DF91C5
:102AC000CF9108950E947714FACFCF93C82F88230F
:102AD000C9F08238C9F40E94440681FD13C089E31D
:102AE0000E94F2090E94080F2FEF87EE93E0215019
:102AF00080409040E1F700C0000089E30E94E509B2
:102B00000E94080FCF9108958338A1F40E944406D3
:102B100080FDF8CF83E50E94F2090E94080F2FEF95
:102B200081EE94E0215080409040E1F700C0000029
:102B300083E5E4CF8438A1F40E94440682FDE2CF0D
:102B400087E40E94F2090E94080F2FEF81EE94E0C3
:102B5000215080409040E1F700C0000087E4CECFD4
:102B60008CEF8C0F813A68F4E2E7F1E08191C817AD
:102B700081F121E0E837F207C9F78C2F0E94F209B2
:102B8000BFCF80E28C0F883048F4C77081E001C06D
:102B9000880FCA95EAF70E94BE09B2CFEBE5EC0FA9
:102BA000E33040F4F0E0E65EFE4F808190E00E946A
:102BB0002E06A8CFC85AC73108F0A4CFEC2FF0E0FA
:102BC000EE0FFF1FE35EFE4F808191810E94180689
:102BD00099CF8C2F0E94E5090E94080FCECF1F933A
:102BE000CF93DF93182FC091CB03D091CC038933BF
:102BF00021F0C091C903D091CA03812F0E946515AD
:102C0000209739F4812F0E949614DF91CF911F9164
:102C100008958FE99FE00197F1F700C00000219728
:102C2000EFCFB0E0A0E0E7E1F6E10C947E31EC01FB
:102C30008AE0A82E2881222309F48FC02130C9F50B
:102C400099818A81913021F422960E94EF1505C066
:102C5000923029F422960E9465152196EBCF93308D
:102C600021F422960E949614F8CF943011F0219608
:102C7000F4CF229630E020E0AE014F5F5F4F8053EB
:102C8000990B8A30910550F02150310930F38FE9CA
:102C90009FE00197F1F700C00000F6CFA29EB001BF
:102CA000A39E700D11249C01260F371F8981EA0114
:102CB000E3CFE22FF0E0E557F84FB490822F8695EE
:102CC0008695869590E0FC01E558F84FE4902770D2
:102CD000F12C022E02C0F594E7940A94E2F731E059
:102CE000E322FF24FC01E559F84FC490D12C022EB9
:102CF00002C0D594C7940A94E2F731E0C322DD24E0
:102D0000FC01E55AF84F049110E002C015950795B3
:102D10002A95E2F701701127E114F10419F081EE10
:102D20000E946515C114D10419F086EE0E94651544
:102D30008B2D0E94EF15C114D10419F086EE0E946C
:102D40009614E114F10419F081EE0E949614011515
:102D5000110509F482CF8CE278CFCDB7DEB7EAE077
:102D60000C949A31B0E0A0E0E8EBF6E10C947E31EF
:102D70007C015B01C42FD22FFC0182818823A9F042
:102D8000409390040E940C0690938F0480938E04CD
:102D9000C77081E001C0880FCA95EAF70E948F14BE
:102DA000CDB7DEB7EAE00C949A3110919004141379
:102DB00038C080918E0490918F040E94F1056C01BF
:102DC000B701C5010E94630DC816D90650F5C0E2CF
:102DD000CD0F1D17C1F080E2810F883048F41770C5
:102DE00081E0012E01C0880F0A94EAF70E9488143E
:102DF000C83048F481E09D2F977001C0880F9A95E4
:102E0000EAF70E948F14802F0E94EF15C83040F619
:102E1000D77081E001C0880FDA95EAF70E94881424
:102E2000BFCFC77081E001C0880FCA95EAF7F6CF1F
:102E3000CF93DF93EC010E94C10A9E01205E31090D
:102E40002830310510F0209741F40E948F148C2F08
:102E50000E946515DF91CF9108950E947E14F7CFEF
:102E6000662329F02091B90422602093B9049C01C3
:102E70003056211540E2340720F0305E21153041F4
:102E800008F499270E9418170895B0E0A0E0EBE439
:102E9000F7E10C9481317C018B01D42E80910F01DC
:102EA00082FF8CC0C091D103D091D203CE15DF0533
:102EB00021F0E114F10409F081C080910F018B7FB2
:102EC00080930F0181FD73C08091CF039091D00357
:102ED000A801481B590B81E020910D0130910E0192
:102EE0004217530708F480E08170F82E80910F019B
:102EF000F0FA81F980930F01FE0183E0F695E795E2
:102F00008A95E1F7EE71FF27E557FC4F208131816B
:102F1000AE014F70552781E090E002C0880F991FE5
:102F20004A95E2F7FF2009F444C0822B932B91834A
:102F3000808380918A0381FF08C080910F018061A6
:102F400080930F0182E00E94B70980918A0385FF78
:102F500008C080910F01806280930F0180E20E947F
:102F6000B7096F2DCE010E943017DD2031F080911E
:102F7000C60385FF02C086FF3BC08091C9039091C4
:102F8000CA030E94770B8091D1039091D2039C01D8
:102F90003056211540E2340720F0305E21153041D3
:102FA00008F499270E944D150E94A10F1DC081E0D1
:102FB0009BCF8095909582239323B9CFC701992702
:102FC00097013056211540E2340728F0305E211574
:102FD000304108F0C7010E944D158091D1039091B6
:102FE000D2038E159F0501F31093D0030093CF03F6
:102FF000CDB7DEB7E7E00C949D3168EE7EEF90E050
:1030000080E00E940F3260E082E090E00E94F131A7
:1030100060E083E090E00E94F1311092F10160E005
:1030200084E090E00E94F13164E082E290E00E944E
:10303000F13160E085E090E00E94F13160E086E0EF
:1030400090E00E94F1316FEF87E090E00E94F13153
:1030500040E050E0BA0188E090E00E94033260E076
:103060008DE090E00E94F13140E050E0BA0188E14B
:1030700090E00E94033260E087E190E00E94F1312D
:1030800040E050E0BA018CE190E00E94033270E031
:1030900060E080E290E00E940F3240E050E0BA0130
:1030A00088E190E00E94033280E00E94280D0E9497
:1030B000D81340E050E0BA018FE090E00E94033264
:1030C00040E050E0BA0183E190E00E9403320895AD
:1030D000A7E0B0E0EEE6F8E10C9476317C01DC018B
:1030E00013964D915C91149711966C9111978C9158
:1030F0000E94C2068111EEC061E0C7010E946F0C00
:103100008C01F70182818823E1F0809191049091F4
:1031100092040097B1F00817190799F0FEE08F9F0D
:10312000C0011124FC01E45CFD4F20812460208358
:10313000895C9D4FDC010D931C930E94790F1092C6
:10314000B904F7018281882311F40C944B21C80142
:1031500082519F45409710F00C943D218FEF93E0F2
:103160000E94E3318111A6C07EEED72ED00E0BE671
:1031700013E0D11036C019821A821B821C82992456
:103180009A9468012FEFC21AD20AC8010E94E33153
:1031900089831A82882309F48DC0813009F07FC0A9
:1031A000580132E0A30EB11CC6010E94E331C82EC3
:1031B0008A83882309F47EC0C5010E94E331D82E9A
:1031C0008FEF8C0D8330D8F4580143E0A40EB11C6E
:1031D000DB82DD2021F0CE0101960E9411168501CF
:1031E000D0CF0115F4E01F0709F464C0C8010E94A4
:1031F000E331811101C0DA940F5F1F4FBACF8BEF1B
:103200008C0D833030F5C8010396DB825C01DD2034
:1032100031F3580154E0A50EB11C0E94E3318C83B8
:103220008823E9F28B819C818130AFEF9A0710F0FF
:10323000982F8827B6E0CB1631F0E7E0CE1631F0B4
:103240000E949228CCCF0E946C28C9CF0E94F327FD
:10325000C6CFF4E0CF12C3CF580124E0A20EB11CB8
:10326000C80103960E94E331DD2021F1882311F18A
:103270008150990B989E9001999E300D11244D2DEF
:103280004150550BCA01820F931F019708F4A7CF35
:10329000AFE9BFE01197F1F700C00000F6CFCE0113
:1032A00001960E94111656019ACF81E00E941C10CF
:1032B0000E94D20F8091E501877061F0D7011296CC
:1032C0008C91882339F08091890382FF03C082E0CA
:1032D0000E94EB0F2796E2E10C94923181E00E946C
:1032E000DE0FE6CF82E0FBCF823011F00C948B2111
:1032F0008091310290913202892B11F40C948B2130
:103300002EE02C9DC0012D9D900D1124FC01E45C4C
:10331000FD4F20812E7F2083895C9D4F0E94790F75
:103320000C948B2181E080930001C4CF8091000137
:10333000882309F4CEC6480120EE821A91084090F5
:10334000F00180917B01482A80918A03482A38E065
:103350008316910408F086C098012770332781E016
:1033600090E001C0880F2A95EAF7552009F477C04C
:10337000482AD7018D919C910E94350A21E030E0C6
:10338000F90102C0EE0FFF1F8A95E2F7FF83EE837B
:1033900020908C0430908D046090780170907901B9
:1033A0001D822D81E22FF0E0EE0FFF1FE850FD4F50
:1033B000C080D180C114D10409F4EFC6411005C00A
:1033C000D60112968C91811187C0F601838190E01D
:1033D0002E813F8182239323892B09F47DC0808530
:1033E000982F977009F487E038E08316910408F06D
:1033F00053C0552009F44CC086958170882309F488
:103400006BC0D601AD90BC900A151B0519F4552070
:1034100009F462C0C214D30409F45EC0D6011D963B
:10342000ED91FC91309721F08081882309F454C0FC
:10343000642DC6010E94A206882309F44DC00A1516
:103440001B0509F08CC70115110509F48DC7511032
:103450008DC7A614B70409F03FC0512C87C78095CB
:10346000482287CF552009F481C610937901009333
:1034700078010E9400066093830470938404809313
:1034800085049093860410928B0410928A0471CF65
:1034900082FB882780F9B2CF5520F1F08170AECF42
:1034A0000E94961481C70497813A910548F48A2DA9
:1034B0000E94F209552009F40CC60E94080FFACEAA
:1034C0000E94080F8FE39CE90197F1F700C000000C
:1034D0008A2D0E946515EECF9D819F5F9D8361CFF0
:1034E000FC01208131810217130709F0EBC551104F
:1034F000EBC51092890480E00E94E714EAC5902F82
:10350000812F2FC6F901858181FF5BC6C9010E9409
:103510005F0F57C680910F01816080930F017FC6B6
:1035200080910F018E7F80930F010E94A10F77C6BB
:1035300080910F018F7E013E110531F0053E11058E
:10354000C9F480910F018F7D80930F0180910F014D
:1035500080FF74C6D70112968C910832110528F5A8
:103560000E31110508F072C00430110580F581118B
:1035700061C664C6C8019056811540E2940720F0E8
:10358000905E8115904110F780910F0182FF56C621
:103590008091C80381FD52C62EE032E040E0B601C2
:1035A00090E080E00E94451749C60933110558F4A0
:1035B0000D32110518F40B321105C9F69091C603AE
:1035C00092FDD5CF08C004361105C1F3D0CF90913C
:1035D000C60394FDCCCF882309F4A8C08091F001E4
:1035E00090918A03892B8D7FB1F11092D2031092B2
:1035F000D1038091C60381FD2EC0F80143E0F6950A
:10360000E7954A95E1F7EE71FF27E557FC4F9801E2
:103610002F70332781E090E002C0880F991F2A9510
:10362000E2F78095909520813181822393239183C5
:10363000808360E0C8010E9430178091F0018D7F87
:103640000E949C0982E00E94EB0F34CE9091C60349
:1036500093FD8DCFC0CF88E0F701AEE0B2E00190DE
:103660000D928A95E1F710921002109212021092B8
:1036700011028091D1039091D20308171907D1F557
:103680002091C60325FF36C030910F0131FF02C0E3
:1036900026FF30C02091CF033091D0035601A21AEB
:1036A000B30AB7010E94630DA816B90618F58091F8
:1036B0008A0381FF08C080910F01806180930F0110
:1036C00082E00E94B70980918A0385FF08C080913B
:1036D0000F01806280930F0180E20E94B709609120
:1036E0000F01669561708091D1039091D2030E9481
:1036F0003017E0CD8091F00190918A03982B2091B2
:103700000F0191FB21F920930F018D7F0E949C09ED
:103710001093D2030093D103D092D003C092CF0371
:1037200080910F01846080930F018CCF970140E05E
:10373000B601C8010E944517BDCD053F4CE51407F1
:1037400009F463C008F45BC0063F8CE5180709F470
:1037500062C0D70112963C91332309F459C61092E6
:1037600090040330BDE51B0708F061C00A3FECE59B
:103770001E0730F4C80182509C45449708F062C08F
:103780000E94960C909389038093880302315CE534
:10379000150709F47DC108F0CDC009309CE5190773
:1037A00009F454C108F097C00530BCE51B0709F4C3
:1037B00041C108F07EC00330FCE51F0709F432C1A7
:1037C00008F034C180918803816002303CE5130722
:1037D00009F4ADC080918803909189030E94410D46
:1037E0000E94441067CD07E225EE45EE68ED7CE5CA
:1037F00040C506E221EE40EE63EF7CE53AC507E204
:1038000025EE44EE64EF7CE534C506E221EE42EE9F
:1038100065EF7CE52EC507E225EE46EE66EF7CE51A
:1038200028C508E221E045EE69ED7CE522C5053AB0
:10383000FDE51F0709F4A4CFB0F501364DE51407E7
:1038400009F49ECF06315CE5150709F055C180915A
:103850008A03982F9A7A2091C50320FF04C0482F2D
:10386000447409F090E021FF04C0482F417109F031
:1038700090E022FF04C0482F487809F090E023FF31
:1038800003C0827209F090E0332309F42BC181E078
:10389000911101C080E080937A0189E2911185E362
:1038A0000E94F2090ACEC8018D5A9D45039750F631
:1038B00067CF80918803806207304CE51407B9F127
:1038C00080918803806108305CE5150780F1809164
:1038D000880380642CC00D308CE5180709F4C0C043
:1038E00090F4809188038E7F0B30ACE51A07F9F0D5
:1038F000809188038C600C30BCE51B07C0F0809180
:1039000088038D7F14C00F30ECE51E0709F4B8C0A2
:1039100008F4AAC000312CE5120709F4B5C0809163
:1039200088038F7B01313CE5130709F053CF809367
:10393000880350CF0F3F4CE5140709F4B3C0A8F536
:103940000A3F8CE5180709F479C0C0F40431ACE5EE
:103950001A0709F4B5C008F4A1C00531ECE51E074B
:1039600009F038CF8091880382FB992790F921E0F4
:10397000922790FB82F990FB83F9D9CF0C3FFCE5AD
:103980001F0709F475C008F45DC00D3F3CE513073F
:1039900009F472C08091890383600E3F4CE51407DF
:1039A00009F018CF8093890315CF01365DE515071F
:1039B00009F491C090F401309DE5190709F489C01C
:1039C00008F474C060E00230BDE51B0709F002CFC7
:1039D0008EE090E00E94F131FDCE0D3AEDE51E073C
:1039E000E9F060F490918803892F8E7F90FF8160C9
:1039F000053A2DE5120709F49ACFECCE0E3A3DE5D3
:103A0000130751F10F3A4DE5140709F0E3CE9091F9
:103A10008903892F877F93FF8860C4CF80918903B2
:103A20008860C0CF80918803826081CF80918803B5
:103A300084607DCF80918803886079CF80918903ED
:103A40008160B0CF809189038260ACCF0E94441026
:103A50008091880380686BCF80918903877FA2CF94
:103A6000809188038B7F63CF80918803877F5FCFAE
:103A7000809189038E7F96CF809189038D7F92CF2D
:103A8000809188038F7E53CF809188038F7D4FCFA5
:103A90000E944410809188038F7749CF80918803DA
:103AA000837F45CF809189038C7F7CCF8091890370
:103AB000982F909591708E7F892B90FB81F972CF12
:103AC0000E94441090918803892F97FB87F98058B2
:103AD0002ECF61E07DCF90918803892F8F7E94FF58
:103AE000806125CF80917A01811104C089E20E9412
:103AF000E509E3CC85E3FBCF0A355DE5150709F45D
:103B00006BC008F044C001159CE5190709F44AC0D0
:103B10000E3D1C4509F453C0F7018681978100973B
:103B200009F45EC00E941008182F092FF701C28007
:103B3000D580D2943FE0D3228091E5018770C1F017
:103B4000AC2CCC20B1F0892F807F803421F080E232
:103B5000810F883068F08091890382FF09C082E07C
:103B60000E94EB0F8091E5018770AA24A394811134
:103B7000A12C902E92942FE09222FBE0F91508F4EC
:103B8000BCC0E92DF0E0E75CFD4C0C9469310C35CC
:103B9000BDE51B07B9F010F1073A1D4509F0BCCF90
:103BA0000E9461140E9444102FEF34E34CE0215036
:103BB00030404040E1F700C000000E94530B0E94DB
:103BC000FD17EECF8091890382FB882780F991E071
:103BD00089270E940710A0CF81E0FBCF80E0F9CFBA
:103BE000828100811181882369F0C8010E94F30B52
:103BF000D82E682FC8010E94690AB8018D2D0E9435
:103C0000D60B90CFC8010E94350AD82EF6CF202FB0
:103C10002F70B22E802F807F19F0B29490EFB922CE
:103C2000CC20A9F0BB2059F080E2810F883010F041
:103C3000111107C08B2D0E94BE090E94080F812F11
:103C40005AC08091B904B82AB092B904F6CF812F36
:103C50000E949614BB2009F450C080E2810F883086
:103C600010F0111104C08B2D0E94B70903C08B2DD9
:103C70000E94B0090E94080F40C0302F3F70B32E41
:103C8000802F807F803219F0B29480EFB822112308
:103C900021F1113009F4B0C0CC2009F4B9C0DD2005
:103CA00009F481C020E0D7014C9111965C911197E5
:103CB00012966C91129713967C91139714968C918F
:103CC0000E944C0C8091C80381FDB9CFF70185811A
:103CD00080FFB5CF8F70858366C08091890382FD98
:103CE00042C0CC20D1F1BB2029F08B2D0E94BE090F
:103CF0000E94080F80E00E946515A92DA850BB0BFB
:103D0000149720F40E9444060E94BB0A812F902F32
:103D10000E94A00A8111B7C110927D0110927C010E
:103D2000AA20B1F08091E50180FD12C0D701129662
:103D30001C928595859585950E941C10C7010E944F
:103D400068188091E5018595859585950E94DE0F1F
:103D500060E0C7010E946F0CBDCA80E00E9496140B
:103D6000BB2059F280CFCC2011F1D11004C080913A
:103D7000F0018B2919C041E0D41206C08091F001F6
:103D80008B290E949C09B9CF8091C703823078F3B8
:103D9000D812EDCF0E94910990917B018B2D892B38
:103DA000891380937B018B2D0E948F14A6CFD11095
:103DB00003C00E94910917C08091C70351E0D5123A
:103DC00016C0823008F499CF80918A038B2109F4C0
:103DD00094CF0E94910990917B018B2D809589232E
:103DE000891380937B018B2D0E94881486CF8230AB
:103DF00000F3D812DECF81CF8091CD03CC2021F00B
:103E00008D1508F47ACFCFCFD81608F076CFEBCF48
:103E1000DD2049F38091CB039091CC03193321F03D
:103E20008091C9039091CA030E94770B812F0E9451
:103E3000961463CF802F86958695837069F08130C4
:103E400009F05BCF812F902F9370C11002C090E0DA
:103E500080E00E94180651CF812F902F9370C110DF
:103E600002C090E080E00E942E0647CF802F837032
:103E700091F5C11042CF412F429546954770440FAE
:103E8000440F812F8F70042E01C0880F0A94EAF727
:103E9000212F207114FF07C02FE030E001C0220F56
:103EA0004A95EAF72095302F3695369533703230A3
:103EB00069F050F44091F101313029F0822B8423D4
:103EC0000E943F101ACF842B822BFACF282B80918F
:103ED000F1018227F5CF8695CC2011F0802F8170DB
:103EE000882309F40ACF412F429546954770440F25
:103EF000440F812F8F70042E01C0880F0A94EAF7B7
:103F0000212F207114FF07C02FE030E001C0220FE5
:103F10004A95EAF72095302F369536953370323032
:103F200069F050F44091B804313029F0822B842399
:103F30000E94CD0FE2CE842B822BFACF282B8091CA
:103F4000B8048227F5CFF02FFF70BF2ECC2029F0C8
:103F50008F2F0E941C10812F27CF812F0E94881441
:103F60008B2D0E94DE0FC9CE123F89F160F4103F05
:103F7000B9F0113F81F0CC2009F480C0D1105FCEA0
:103F8000802F8F7128C0133F49F1143FA1F7809112
:103F9000890382FD2FC0802F8F71CC2011F31BC0AD
:103FA0008091CD03CC2079F0D81608F0A6CE202F32
:103FB0002F7181E090E001C0880F2A95EAF7909177
:103FC000B8048927B5CF8D1508F497CEF0CF802F90
:103FD0008F71C110C6CF0E941C108FCE80E0CC2004
:103FE00009F4A6CF81E0902F9F7101C0880F9A95A8
:103FF000EAF79ECF8091C703823040F1CC20D1F008
:104000009091E5019770943041F40E94C409802F8B
:104010008F710E94DE0FA12C70CED816E0F7202FF2
:104020002F71B22E822F0E941C1063E08B2D0E94F4
:104030002810F1CFD81630F00E94C40964E0802F18
:104040008F71F5CF81E00E94EB0FE5CFCC2059F0C6
:10405000302F3F71B32E832F0E941C1063E08B2DF5
:104060000E9428104ACE81E00E94EB0F41E04D15DE
:1040700008F043CE82E00E94EB0F3FCED110CACEB3
:10408000802F8F716ECFCC2019F0D11045CE48CE45
:10409000D11042CE20E0F7014081518162817381CD
:1040A00084810E944C0C8091C80383FF35CE80919F
:1040B0007C0190917D01029709F02ECE812F0E9404
:1040C000EF152ACE552029F0DC0118968C9185FF3A
:1040D00012CAC80197558F3F910511F008F071C0C1
:1040E0005801BB24BEE00B9FF00111249F01295C05
:1040F0003D4F6901D70112968C91E45CFD4F908190
:1041000080FB90F99083882309F4FCC90E940C0677
:1041100090930D0280930C02F60182818F5F82835F
:104120008091B90490918A03892B83838091F00157
:1041300084830680F781E02D309731F0D6011C96FC
:104140006D917C91C60109958EE08A9DF0018B9D51
:10415000F00D1124E95CFD4F858181FFD0C990E00D
:1041600080E090939104809392042BC08091780119
:10417000909179010817190781F410927901109232
:104180007801109283041092840410928504109296
:10419000860410928B0410928A0480918C04909172
:1041A0008D04009709F495CFA8E08A16910408F0D1
:1041B00097C9642D0E94A206811103C081E00E946C
:1041C000E7148091C60380FF39C00E940C066C0181
:1041D000D70112968C91882309F4AAC980910F0106
:1041E00082FF08C02EE032E040E0B60190E080E0BF
:1041F0000E9445170B31BCE51B0709F48BC90C3134
:10420000ECE51E0709F48CC990910F01892F8E7F70
:1042100090FF81600A31FCE51F0709F484C9C801D9
:104220009056811520E2920728F0905E811590410A
:1042300008F08CC91092D2031092D103033FBCE561
:104240001B0709F4D6CA08F078CA083DFCE51F0729
:1042500009F4C9CA093D2CE5120709F4E2CA073D71
:104260003CE5130709F075CA06E221EE41EE67ED61
:104270007CE5C7010E94B2161DC80031FFE51F078B
:1042800011F40C94551901312FE5120709F043C0C0
:1042900082E00C94561900313FE5130709F41EC85B
:1042A00001314FE5140709F41DC86801E7E5DE1A7E
:1042B000FFEFCF16D10409F070F56DE272E08C2D9E
:1042C0000E944F0D892B39F58EE08C9DF0018D9D5C
:1042D000F00D1124E95CFD4F8281813011F00C94C6
:1042E000741980912D0290912E02892BA1F080915A
:1042F0002F0290913002892B71F0809131029091C0
:1043000032022091330230913402822B932B892B7D
:1043100011F40C948019D70112965C90552011F479
:104320000C9496190F35BDE51B0711F40C949219E6
:104330000036EDE51E0761F00E35FDE51F0711F0B3
:104340000C94961980910001882311F40C94921911
:104350001092000180E00E94E7140C945A19A114F5
:10436000B10409F076C8512CB12CA12C80E00E9438
:10437000E714D0928D04C0928C0481E0809389046C
:10438000F60185818093870451100EC0AB2861F03F
:10439000F601808191819C0124503109213A310537
:1043A00008F07EC80E94E509D6011696AD90BC9033
:1043B000C5019A9581159F4110F4E0EEBE22772445
:1043C0007394C5010197803B9D4508F0712CD6017F
:1043D0001996ED91FC911A97309731F01B966D91DB
:1043E0007C9181E009957822772079F0F601868129
:1043F00097810E94C10A80938804C501F8E08F1656
:10440000910408F050C80E9451060E94080F52C83B
:1044100006318CE5180709F07FCB19CAB0E0A0E09F
:10442000E4E1F2E20C94803180919E01807F31F4CE
:1044300080919B01C091E201811107C0CDB7DEB729
:10444000E8E00C949C312196C7708091A1018C17F3
:10445000A9F3F0909901E0909A01C0909C01D0904E
:104460009D01A6016E2D8F2D0E94C206D0E0811104
:10447000EACF8E0183E0000F111F8A95E1F7F80162
:10448000EE55FE4F81818E11DECF80818F11DBCF03
:1044900082818111D8CFE380F480EC18FD0860E0C0
:1044A00089E991E00E946F0C69E971E00E94630D57
:1044B000E816F90640F680919E018F708061809326
:1044C0009E01F801E955FE4F80818F7080618083E5
:1044D00089E991E00E9468180E942B0AAFCFA5E1FC
:1044E000B0E0E5E7F2E20C9479318C0185E0F80167
:1044F000DE01519601900D928A95E1F7D8015C900A
:1045000011966C9011971296EC9012971396CD908D
:10451000DC9060E089E991E00E946F0C89E9A82EA7
:1045200081E0B82E80909C0190909D01A401609143
:104530009A01809199010E94C2068111A8C1F09050
:104540009B01F601E819F9094F0160E0FF2009F429
:104550004BC1C5010E946F0CB5010E94630D7090A4
:104560009E018816990608F0F2C040919C01509176
:104570009D01B0909901A0909A01872D807F6A2DAE
:1045800009F08CC08B2D0E94C206FE2C811127C021
:10459000D80111968C9111978A1121C08C918B11A1
:1045A0001EC020919F013091A00116968D919C9183
:1045B00028173907A1F4E11012C0872D8F70806190
:1045C00080939E0189E991E00E94681880919E0184
:1045D000F80185838F2D6596EFE00C949531A60147
:1045E000662D852D0E94C206D82E81E08E25D11021
:1045F00080E080FF18C04E2D662D852D0E940B0A8D
:10460000882389F08091C80380FF0DC089E991E07B
:104610000E94681888E0E9E9F1E0DF011D928A95BF
:10462000E9F7F12CD7CF81E08E25D11080E0B82FAB
:10463000B170CB2E80FF29C04E2D662D852D0E9496
:104640000B0AD82E811121C0598A6A8A89899A89D0
:104650000E94220C292F22952F70223050F02430F6
:1046600078F49F7051F0F8019581907F31F4FD2C22
:10467000B1CF9F7011F08823D1F3805E8830B8F3FA
:10468000C8010E946818DC2CF2CFEE2009F4A2CFFA
:1046900080919E01816080939E01C3CF8B2D0E94EB
:1046A000C206811124C0D80111968C9111978A11EC
:1046B0001EC08C918B111BC020919F013091A001D5
:1046C00016968D919C9117972817390781F4E11060
:1046D0000EC015967C92C8010E94681888E0F80107
:1046E000A9E9B1E001900D928A95E1F773CFC80175
:1046F0000E942F0C882339F1EE2029F180919E0130
:104700008032A0F02091990130919A013A8729874F
:104710001B86DD86CC868E8780919F019091A001BB
:10472000988B8F87CE0109960E94681888E0F8015F
:10473000A9E9B1E001900D928A95E1F70E940E225D
:10474000FF24F39447CFC8010E946818F9CF872D42
:10475000807F09F45BCF9090990180909A014091FD
:104760009C0150919D01682D892D0E94C2068111E6
:104770001CC0F8018181881118C08081891115C081
:1047800020919F013091A0018681978128173907D8
:1047900061F4E1100AC07582C8010E94681888E0BF
:1047A000D5011D928A95E9F715CFC8010E942F0CFB
:1047B000882349F2EE2039F280919E01803208F47C
:1047C000B5CF2091990130919A013A8329831B82B8
:1047D000DD82CC828E8380919F019091A001988789
:1047E0008F83CE010196A0CF89E991E00E946F0CE2
:1047F00069E971E00E94630D8816990680F6FE2C27
:10480000EE2009F4A0CFE0909901D0909A01409158
:104810009C0150919D016D2D8E2D0E94C20681112B
:1048200028C0F80181818D1124C080818E1121C0A2
:1048300020919F013091A001868197812817390727
:10484000C1F48091C80382FD49CF90919E0190FDF3
:1048500045CF907F09F442CF80919E018583903FA0
:1048600009F439CF982F907F905F8F70892B8583C3
:1048700032CFC8010E942F0C811158CF80919E0128
:10488000816080939E01C8010E946818A3CEEE202B
:1048900009F459CFC8010E942F0CF82E882309F47F
:1048A00052CF88E0F801A9E9B1E001900D928A9514
:1048B000E1F78091990190919A010E94220C0E9447
:1048C0000E2288CEA0E1B0E0E8E6F4E20C94863156
:1048D00029873A874B875C876D877E878F87988B80
:1048E000CE0109960E946F2281112FC088E0FE013F
:1048F0003996DE01119601900D928A95E1F74C856B
:104900005D856A8589850E94C20681111EC0A091BD
:10491000A101B0E0CD010196877099272091E201B5
:1049200028171906E1F093E0AA0FBB1F9A95E1F74B
:10493000AE55BE4F98E0FE01319601900D929A95CA
:10494000E1F78093A1010E942B0A8091E2019091EE
:10495000A101891312C06096E2E00C94A2310E947A
:1049600044101092A1011092E20188E0E9E9F1E01F
:10497000DF011D928A95E9F7E8CFB8E08B9FC0016F
:1049800011248E559E4F0E946F22882321F380911F
:10499000E20190E00196877099278093E201D5CFDC
:1049A000EF92FF920F931F93CF93DF938091D603E3
:1049B000882361F0C091D5038CE0F82E8091D60356
:1049C000C81748F01092D6031092D503CDB7DEB7C2
:1049D000E6E00C949E31EE24E394EC0EE092D503D5
:1049E0000C2F10E0CF9DE0011124C952DC4F4B8108
:1049F0005C81698188810E94C20681111DC08E81FF
:104A00009F81892B21F488859985019651F428810D
:104A100039814A815B816C817D818E819F810E9479
:104A20006224F09EF001F19EF00D1124E952FC4F3A
:104A3000148213821092B904CE2DC0CF10927A0442
:104A40001092790410921001809178048093770479
:104A50000E94FB060E94D0240895B0E0A0E0E3E3AA
:104A6000F5E20C947731C091770497E0892E01E04C
:104A700010E02CE0322E3EEF932E4424439480919C
:104A800078048C1309C00E94D0240E94FB06CDB785
:104A9000DEB7E1E10C949331D0E0FE01EE0FFF1F91
:104AA000E159FB4F80819181889ED001899EB00D94
:104AB0001124A95CBB4F14962C911497211158C056
:104AC0005090D603E7EDF3E030E020E0712C5D017B
:104AD000251508F04BC0E284F384D501CD90DC901D
:104AE0006FEF7FEF612C462D50E0DA01AA0FBB1F5C
:104AF000AC0DBD1D0D90BC91A02D109731F0EA16A4
:104B0000FB0609F4BA016394EECF6F3F7607A9F173
:104B1000D80102C0AA0FBB1F6A95E2F77A2AB80132
:104B2000062C02C0660F771F0A94E2F7AB014150D2
:104B3000510974161506F9F4329EF001339EF00DFA
:104B40001124E952FC4F889ED001899EB00D11249A
:104B5000A95CBB4F12962D913C9113973783268306
:104B6000908291829187808715964C920E94CD0603
:104B70002196C37084CF148213822F5F3F4F3C96DF
:104B8000A7CFA9E1B0E0E7ECF5E20C947631942FE1
:104B9000498B252F5A8B6B8B7C8B8D8B4C895D8938
:104BA000622F892F0E94C206811109C080917C0169
:104BB00090917D01019690937D0180937C018B897A
:104BC00081111092B9041D861E861F86188A85E001
:104BD000FE017196DE01199601900D928A95E1F71A
:104BE0008091890382FF1EC08091AD039091AE0336
:104BF000892BC1F00E940C062091E3013091E40161
:104C0000821B930B2091AD033091AE038217930763
:104C100020F08091E50182FFE2C10E94CB09811161
:104C20000E9491094C855D856A8589850E94C2062E
:104C3000811111C061E0CE0109960E946F0C6C01D8
:104C40008B8527EFC2162CE5D20681F4882321F14B
:104C500081E08093100129853A854B855C856D85BF
:104C60007E858F8598890E946224C6C038EFC3165E
:104C70003CE5D30629F4882379F00E941E25EBCF6A
:104C800049EFC4164CE5D40639F4882329F0809105
:104C900010018111F2CFDCCF07E314E0512CB12CCD
:104CA000A12C22242394312C2EEF422EF801408196
:104CB000518188248A94982C20E0822F90E0FC0176
:104CC000EE0FFF1FE40FF51F608171816115710503
:104CD00031F0C616D70609F44C012F5FEECFF12C48
:104CE000FFEF8F169F0609F449C0F8014481F09048
:104CF00010018F2D411180E0F82FF170FF2EF80187
:104D0000E58086819B85992309F4F8C0FF2009F48A
:104D1000F5C06090C1037090C203E11013C0A101FF
:104D2000082C01C0440F0A94EAF7842B86838091F3
:104D3000D3039091D4038615970520F47092D40381
:104D40006092D303C10102C0880F991F2A95E2F730
:104D50000197F80126812817190681F480917904BA
:104D600090917A04009709F44BC00E94F1056816EF
:104D7000790608F045C021E0F80124835F28FFEFA1
:104D8000AF1ABF0A095F1F4F28E0A216B10409F04D
:104D90008DCF8B85882309F40DC1552009F40AC1F4
:104DA0000E940C0690937A04809379048091D60334
:104DB000883010F591E0980F9093D60398E0FE01AB
:104DC0003996DE01119601900D929A95E1F73CE03B
:104DD000839FC001112489529C4F28E0FE01319627
:104DE000DC0101900D922A95E1F72FEF3FEFFC01D6
:104DF00031872087D386C2866996E2E10C9492318E
:104E00008091770450917804982FF0E0E0E08513CA
:104E100014C090937704E017F10709F4AFCF90E046
:104E2000FC01EE0FFF1FE159FB4FB182A0820196FA
:104E30008370992780937804A1CF682E712CF30199
:104E4000EE0FFF1FE159FB4F2081318147E0429F68
:104E5000D001439FB00D1124A95CBB4F6D917C9193
:104E60001197798F688F40E020E030E0E32FF0E089
:104E7000EE0FFF1F688D798DE60FF71F8080918000
:104E800081149104E1F0F8010190F081E02DFF8B95
:104E9000EE8B20E005C08616970609F44F2D2F5F94
:104EA000E22FF0E0EE0FFF1F6E897F89E60FF71FFC
:104EB000608171816115710571F73F5FD7CF442320
:104EC000D1F0F801231708F0FD0121E024830E172B
:104ED0001F0721F490937704F42E50CF981305C048
:104EE000AE17BF0711F49F5F937093012F5F3F4F81
:104EF000822F83708CCFF0E0E0E0F7CF90E0E110FC
:104F000020C0B10102C0660F771F2A95E2F79B010E
:104F1000215031098217930731F4442309F448C022
:104F2000C5010E94CD06C101082C01C0880F0A945A
:104F3000EAF7982F9095F801868189238683FE2CC5
:104F40001DCF9C01082C02C0359527950A94E2F7E5
:104F5000A90141705527BC0161507109862397232F
:104F6000892B11F5452B01F1F80182819381892B61
:104F7000C1F01B821C821D821E8249824A820E94CD
:104F80000C068160582F9D838C83F8018281938168
:104F90008F83988729813A814B816D817E810E9420
:104FA0006224F8011582BFCFF22FF170EF2EBBCF34
:104FB000EF2CB9CF9091770480917804981731F055
:104FC0000E942D25552009F446CE16CF0E94D024EC
:104FD00010927A04109279040E94FB06F3CF82E0CB
:104FE0000E94EB0F1ACEA5E0B0E0E9EFF7E20C94D7
:104FF00086319093850380938403811520E2920784
:1050000030F40E944D152596E2E00C94A23180EF19
:1050100089838A831B820E940C068160782F9D837E
:105020008C8349815A816B818D810E94C125EBCF90
:105030000F931F93CF93DF938C01EB016DE272E02E
:105040008C2F0E944F0D892BA1F48091C903909160
:10505000CA030E94770BDD27CB5DDD4F8881F80105
:10506000128218828330F1F048F4813059F0823096
:1050700081F0DF91CF911F910F9108958430B9F0A5
:105080008530B9F780912D0290912E02009789F317
:1050900006C080912F0290913002009799F30E94F0
:1050A000F327E7CF8091310290913202F6CF8091C1
:1050B000330290913402009791F720912D023091A4
:1050C0002E0280912F029091300221153105F1F2CC
:1050D000009729F7C901E3CFA5E0B0E0E2E7F8E2E5
:1050E0000C9486319093850380938403811520E28C
:1050F000920730F40E9418172596E2E00C94A23132
:1051000080EF89838A8381E08B830E940C06816013
:10511000782F9D838C8349815A816B818D810E9478
:10512000C125EACFCF93DF93EC010E946C288091D8
:10513000C9039091CA030E94770BCE010E94F32706
:10514000DF91CF9108950F931F93CF93DF938C013D
:10515000862F6DE272E00E944F0D892BB1F4C09151
:105160002D02D0912E02209781F0F80182818330A8
:1051700051F4CE010E949228CE010E949228CE01C5
:105180000E94922802C08430D0F7DF91CF911F9106
:105190000F9108950F931F93CF93DF938C01EB0131
:1051A0006DE272E08C2F0E944F0D892B09F05CC0DC
:1051B000FE01FF27D80112968C911297EB5DFD4FEF
:1051C0008130B9F415969C9192FF02C080830AC089
:1051D00090FFFCCF82E0808380912F02909130027B
:1051E0000097B9F480912D0290912E020097E1F181
:1051F00010C08230B9F515968C9182FD28C080FDD3
:105200000BC083E08083809131029091320200973D
:1052100001F10E946C2828C084E0808380913302D1
:10522000909134020097A9F780912D0290912E025F
:105230000097F9F00E94922880912F0290913002FD
:10524000009739F780912D0290912E02E2CF85E0F0
:10525000808380912D0290912E02009729F00E9468
:105260009228F0CF86E08083DF91CF911F910F913C
:10527000089580912F0290913002B8CF1F920F9223
:105280000FB60F9211242F933F934F935F936F9319
:105290007F938F939F93AF93BF93CF93DF93EF93BE
:1052A000FF93D091E900DF708091EC00C82FC170AE
:1052B00080FDC0E81092E9008091F000877F809324
:1052C000F00078940E9450101092E9008091F00054
:1052D00088608093F000CD2BCF70C093E900FF91E0
:1052E000EF91DF91CF91BF91AF919F918F917F917E
:1052F0006F915F914F913F912F910F900FBE0F9043
:105300001F9018951F920F920FB60F9211242F9392
:105310003F934F935F936F937F938F939F93AF933D
:10532000BF93EF93FF938091E10082FF09C08091CA
:10533000E20082FF05C08091E1008B7F8093E10055
:105340008091DA0080FF24C08091D80080FF20C0C7
:105350008091DA008E7F8093DA008091D90080FFFF
:105360009DC080E189BD82E189BD09B400FEFDCF09
:1053700081E08093B7048091A104811109C00E944B
:1053800040040E9433058091E20084608093E20033
:105390008091E10080FF17C08091E20080FF13C080
:1053A0008091E2008E7F8093E2008091E200806134
:1053B0008093E2008091D80080628093D80019BC6D
:1053C00085E08093B7048091E10084FF2BC0809139
:1053D000E20084FF27C080E189BD82E189BD89B5F3
:1053E000982F917080FFFBCF8091D8008F7D8093A4
:1053F000D8008091E1008F7E8093E1008091E200EF
:105400008F7E8093E2008091E20081608093E200D1
:105410008091AE04882309F447C084E08093B704E8
:105420008091B7048091E10083FF27C08091E20062
:1054300083FF23C08091E100877F8093E10082E0B9
:105440008093B7041092AE048091E1008E7F809328
:10545000E1008091E2008E7F8093E2008091E20083
:1054600080618093E20042E060E080E00E940105FC
:105470008091F00088608093F000FF91EF91BF91E0
:10548000AF919F918F917F916F915F914F913F91DC
:105490002F910F900FBE0F901F90189519BC10926E
:1054A000B7041092A10474CF8091E30087FD93E0CC
:1054B0009093B704B5CF78941F921FB61F92112412
:1054C0008F939F93AF93BF9380919A0490919B0485
:1054D000A0919C04B0919D040196A11DB11D8093E3
:1054E0009A0490939B04A0939C04B0939D04BF9155
:1054F000AF919F918F911F901FBE1F9018951F9283
:105500001FB61F9211248F939F93AF93BF938091E7
:105510009904811113C080919A0490919B04A091E9
:105520009C04B0919D044196A11DB11D80939A04E5
:1055300090939B04A0939C04B0939D04BF91AF9162
:105540009F918F911F901FBE1F901895CDB7DEB70A
:10555000EC970FB6F894DEBF0FBECDBF85B780685D
:1055600085BF85B7806885BF84B7877F84BF0FB646
:10557000F894A895809160008861809360001092F3
:1055800060000FBE80E890E00FB6F8948093610051
:10559000909361000FBE84EB97E090936F0180932E
:1055A0006E010E948F070E940D0E0E94810D0E94C5
:1055B000810B0E9440040E9433058091E2008460C8
:1055C0008093E20078948091B7048823A1F0109131
:1055D000E9001F709091EC00892F817090FD80E8A8
:1055E000182B1092E9008091E80083FD0E94501072
:1055F0001F701093E90082E084BD93E095BD9AEF9F
:1056000097BD80936E000E947D0C811102C00E94A4
:10561000D8130BE411E0E0E5EE2EE1E0FE2ED80118
:105620008D918D018F3F11F00E94B607E016F106B3
:10563000B1F700E511E0F80181918F018F3F11F082
:105640000E94B607F1E00E351F07A9F78AE0EBE1EB
:10565000F2E0DF01282F1D922A95E9F7E5EFF1E04E
:10566000DF011D928A95E9F73E9A90E080E00E9462
:10567000EB31883E9E4F21F40E947D0C811102C0C7
:105680000E94FD1782E090E00E94E33180930102C6
:105690000E94960C90938903809388030E94510E78
:1056A000EFE3FCE93197F1F700C000000E94510ED2
:1056B00080911B0280FF08C06FEF7FEF90E080E0D9
:1056C0000E940F320E94530B83E090E00E94E3316E
:1056D0000E943F1081E091E090939604809395049E
:1056E0002E01FBE24F0E511C8091B70400E112E144
:1056F000853009F492C00E94510E62E0A62E62E04D
:10570000B62E7BE1872E72E0972ED401F501219110
:1057100031918D919D9142E0EC30F40709F489C0FC
:1057200028173907A1F3712CD4010D911D914D015A
:10573000F501C190D1905F01C016D10659F1612CDD
:10574000EE24E394F12CC026D126C6018E219F21A0
:10575000892BB1F068AE79AE21E0C7018023912397
:10576000892B09F420E02AAF0E940C068160782F73
:105770009CAF8BAF48AD59AD6AAD8CAD0E94C125D1
:105780006394EE0CFF1CFEE06F12DFCFF501329741
:1057900011830083739425E07212C6CF0E94000625
:1057A0006AC08091B704843039F180E00E94BB0A5E
:1057B0001092990428E130E040E40FB6F894A895DF
:1057C000209360000FBE4093600083B7817F8460A8
:1057D00083BF83B7816083BF7894889583B78E7FBA
:1057E00083BF0FB6F894A89580916000886180937C
:1057F0006000109260000FBE8091AD04882369F0B4
:105800000E94510EEBE1F2E081919191892B09F018
:1058100014C582E0E532F807B9F78091B704853006
:1058200009F4BFCF0E9444100E9444060E94BB0AA4
:1058300062CF2817390709F076CF0E940C068C0139
:105840008091FF019091000208171907A1F08FEFD6
:105850008BAB8CAB1DAA0E940C068160782F9FAB8E
:105860008EAB4BA95CA96DA98FA90E94C12510938D
:1058700000020093FF0180918A0490918B04892B90
:1058800009F43EC040917F045091800460918104EE
:10589000709182042FB7F89480919A0490919B04A0
:1058A000A0919C04B0919D042FBF841B950BA60B67
:1058B000B70B40917B0450917C0460917D04709102
:1058C0007E0484179507A607B707D0F080918A0455
:1058D00090918B040E94181710928B0410928A04E6
:1058E00010927F041092800410928104109282041E
:1058F00010927B0410927C0410927D0410927E041E
:1059000000919104109192040115110519F18091F3
:105910000C0290910D020E94F1057C0188E0D201F9
:105920001D928A95E9F7B201C8010E94630D8E1598
:105930009F0580F480919104BEE08B9FC0011124EB
:10594000FC01E45CFD4F208122FD04C0895C9D4F79
:105950000E94790F80911001882301F180917904D0
:1059600090917A040097D1F00E94F1052091D30321
:105970003091D4032817390788F4909177048091E7
:105980007804981709F473C00E942D251092D4034F
:105990001092D30310927A04109279048091C60376
:1059A00080FF1EC080910F0182FF1AC00E940C066A
:1059B0002091CF033091D003AC01421B530B2091B7
:1059C0000D0130910E014217530750F02EE032E0E6
:1059D00041E0BC018091D1039091D2030E94451710
:1059E0000E944406182F80911602181739F0109360
:1059F00016020E940006812F0E94BB0A8091B70404
:105A0000843009F071CE83E08093E9008091E80052
:105A100082FF6ACE8091E80090E085FF05C00E9479
:105A20005F04882369F191E08091E8008B7780938F
:105A3000E800992309F458CE00918603109187035A
:105A4000898101151105C1F18E3F09F0BAC08A8123
:105A5000833020F08550833008F0B3C0EA81EE3007
:105A600008F0AFC0F0E0EB5BFD4C0C9469310E9494
:105A7000D02410927A04109279040E94FB068ECFF3
:105A800000E210E0FE0131967F018091E80085FD83
:105A90000AC08091E8008B778093E8000E945F0441
:105AA000882399F3C0CF8091F100D7018D937D01B8
:105AB0000150110951F7B7CF8C3009F4E3C050F50C
:105AC000843009F4C6C050F4823009F469C008F08B
:105AD000B1C0813009F460C08FEFD4C3863009F4BF
