:100000000C9450040C9488040C9488040C94880478
:100010000C9488040C9488040C9488040C94880430
:100020000C9488040C9488040C94EF2D0C94AB2D44
:100030000C94EC2E0C9488040C9488040C94880482
:100040000C9488040C9488040C9488040C94880400
:100050000C9488040C94C82E0C9488040C94880486
:100060000C9488040C9488040C9488040C948804E0
:100070000C9488040C9488040C9488040C948804D0
:100080000C9488040C9488040C9488040C948804C0
:100090000C9488040C9488040C9488040C948804B0
:1000A0000C9488040C9488040C94880405010902BB
:1000B000A10185020901A100050919012905150001
:1000C00025019505750181029501750381010501E1
:1000D000093009311581257F950275088106093897
:1000E0001581257F950175088106050C0A380215D2
:1000F00081257F950175088106C0C005010980A191
:1001000001850319012AB700150126B7009501756D
:10011000108100C0050C0901A101850419012AA064
:1001200002150126A002950175108100C005010984
:1001300006A1018506050719E029E71500250195A7
:1001400008750181020507190029EF1500250195A1
:10015000F0750181020508190129059505750191C0
:1001600002950175039101C00660FF0961A10109B3
:1001700062150026FF0095207508810209631500AD
:1001800026FF00952075089102C005010906A1010E
:10019000050719E029E71500250195087501810279
:1001A0009501750881010507190029FF150026FF33
:1001B0000095067508810005081901290595057542
:1001C000019102950175039101C00000000000003B
:1001D000000000000000000000000000000000001F
:1001E00000000000000000000000000000007E0F82
:1001F00000D4FFFFFFC700000078000000000000EF
:1002000000002A2B28000000000000000000000071
:10021000000000000029000000002C1E34202122D4
:1002200024342627252E362D3738271E1F2021223D
:10023000232425263333362E37381F0405060708B6
:10024000090A0B0C0D0E0F101112131415161718A6
:10025000191A1B1C1D2F3130232D350405060708E4
:10026000090A0B0C0D0E0F10111213141516171886
:10027000191A1B1C1D2F3130354CFD377A585A0086
:100280000004E6D6B4460200210116000000742FD7
:10029000E5A3E006BC02015D003D8889C65436C373
:1002A000174FE4F36EC8C1D9D4A27B9CF1B1873F4C
:1002B000EFDC0C3E08CB324CDC325FFA40BDED94F3
:1002C000AD2AA50BF93C9B5D513ED0DDE81D4EE605
:1002D0005A0CF1F40B2DF7985D1C42C18974574AF2
:1002E000BA7BB5EAB3C0EE82EFDE49BEA40C9867D4
:1002F000935AC55F3967FCBA98E9E102CD0F023C19
:10030000476C1BF02E817902118CFA3AAA0048D76B
:1003100053E3859096933757F9C05B9FCCF724FA47
:1003200038EE762A95E7F078F4EF6ED7ADE486F8EC
:100330006C9B0035A632AE7898FF37E64C25C89402
:10034000C83CE740FAAC45C163FC87CD64171FF693
:10035000E7FEE337A5014A8F233632A7B40F02C563
:10036000A7061C998630081616D0C64184C8721696
:100370004F93383B641402D7550E9C0BDB59FEC2D9
:10038000756CB37D694C584F6B92F9B31B0C10A080
:10039000CCD76F8112750D74086829A8C121763DEC
:1003A0004A224AD047BED9D5D9E17DE6DCCE8018B5
:1003B00061019CFAA8614E5392AB5D733A8B75B3A1
:1003C000D052BA3FC2C6AD81475DBED2A05C3C36BA
:1003D000C27F38AA440A741650A4EC014D5BE0CEEB
:1003E0008D87AF79A268E39350E6707FF226187884
:1003F000C2877B62AF844DF02B489A9409254F8CBD
:10040000D4C8D0577B2E9A29304007451CF8ED9D63
:100410002463345B7B2DF1F32202BA615A20CDE5CF
:1004200037E6B6EA2170135B4454C4D8BC534E413E
:100430006A4D916E83EDAA77BE7EDEFFDB6F22CF21
:1004400017E424834924B1B6589B53029D47522890
:10045000F101D500D73B4039747F40B0DC6DECEF43
:10046000F06B7D0E91A7D1FB0B4952FF3345305DF8
:100470007BAFC3A8450B5B2D30DF5258FD1ACCA4CF
:10048000C4F66FD5EF89541CAFF080A7FECF8EF66F
:100490000A4715B664C20C8F50560000000035F6AE
:1004A000383A0C5FA6C600019D04BD0D0000947291
:1004B000ED70B1C467FB020000000004595A165CDD
:1004C0001E001F0020002100220023002400250020
:1004D000260027002D002E002A002B0014001A00F1
:1004E0000800150017001C0018000C001200130073
:1004F0002F00300031003900040016000700090009
:100500000A000B000D000E000F003300340028001D
:100510000000E10064001D001B000600190005003A
:1005200011001000360037003800E5000151E000EE
:10053000E300E2000000000000002C0000000000CA
:1005400000000000E600E700E400005C3A003B0029
:100550003C003D003E003F0040004100420043009F
:1005600044004500010001000100010001000100FC
:100570000100010001000100010001000100010073
:100580000100010001000100010001000100010063
:100590000100010001000100010001000100010053
:1005A0000100010001000100010001000100010043
:1005B0000100010001000100010001000100010033
:1005C000000000000000010000000000000000002A
:1005D0000100010001000100010001000100010013
:1005E0000100010001000100010001000100010003
:1005F00001000100010001000100010001000100F3
:1006000001000100010001000100010001000100E2
:1006100001000100010001000100010001000100D2
:1006200001000100010001000100010001000100C2
:1006300001000100010001000100010001000100B2
:1006400001000100010001000100010000000000A4
:100650000000010000000000000000000100010097
:100660000100010001000100010001000100010082
:100670000100010001000100010001000100010072
:100680000100010001000100010001000100010062
:100690000100010001000100010001000100010052
:1006A0000100010001000100010001000100010042
:1006B0000100010001000100010001000100010032
:1006C0000100010001000100010001000100010022
:1006D0000100010001000100000000000000010015
:1006E0000000000000000000010001000100010006
:1006F000010055040B0F3E0F0000020002005104E0
:100700000B0F3E0F00000300010056040B0F3E0FBD
:100710000000040002003B040B0F3E0F020805001E
:10072000010057040B0F3E0F0000060002003D04BD
:100730000B0F3E0F00000700020053040B0F3E0F8B
:1007400000000800010058040B0F3E0F00000900D4
:1007500002003F040B0F3E0FDD070A0002004104B8
:100760000B0F3E0FDD070B00020043040B0F3E0F83
:10077000DD070C00020045040B0F3E0FDD070D00E6
:10078000020047040B0F3E0FDD070E000200490474
:100790000B0F3E0FDD070F0002004B040B0F3E0F47
:1007A000DD07100002004D040B0F3E0FDD071100A6
:1007B00002004F040B0F3E0FDD0712000200590428
:1007C0000B0F3E0F0000130002005B040B0F3E0FE7
:1007D0000000140001005D040B0F3E0F0000150027
:1007E000000000005A078317000009025B000301A4
:1007F00000A0FA0904000001030101000921110110
:1008000000012240000705810308000109040100DE
:100810000203000000092111010001222200070546
:1008200082032000010705030320000109040200E0
:10083000010300000009211101000122BC0007058D
:1008400084032000011201000200000008EDFE00F8
:10085000000100010203011C037600690061006CC5
:10086000003A006600360034006300320062003354
:10087000006300000010034900440042005F005282
:100880000045004D00000012034D0061007400742B
:100890000065006C006500630000000403090400AB
:1008A00011241FBECFEFDAE0DEBFCDBF04B603FEDA
:1008B00018C08091550590915605A0915705B091AB
:1008C00058058730904BA740B04B59F4109255050E
:1008D000109256051092570510925805E0E0F8E383
:1008E000099511E0A0E0B1E0E2E4FFE602C0059066
:1008F0000D92A837B107D9F725E0A8E7B1E001C00C
:100900001D92A535B207E1F70E94132F0C9474379E
:100910000C940000E8EDF0E080818E7F80831092DF
:10092000E2001092DA001092E100A0EEB0E08C91AB
:1009300081608C9380818F77808319BCA7EDB0E0B4
:100940008C918E7F8C9380818F7E80831092240582
:1009500008952091E4003091E50095E6A9012091E9
:10096000EC00822F817020FF06C08091E80080FF9C
:1009700006C080E008952091E80022FD1AC0809111
:100980005205882389F0853089F08091EB0085FD40
:100990000FC02091E4003091E50042175307F9F2AF
:1009A0009150E1F684E0089582E0089583E008958F
:1009B00081E00895EF92FF920F931F93CF937C01F4
:1009C0008B010E94A904C82F811117C08091E800F3
:1009D00085FD0BC08091E8008E778093E8000E942F
:1009E000A904882399F3C82F08C0F70181917F01DA
:1009F0008093F1000150110949F78C2FCF911F917D
:100A00000F91FF90EF900895CF93FC0180915205D4
:100A1000843001F5C091E900CF702091EC00922F55
:100A2000917020FD90E8C92B82E08093E9008091CD
:100A3000E80080FF0CC050E040E060E270E0CF01D1
:100A40000E94DA048091E8008E778093E800CF70EE
:100A5000C093E900CF91089580914A0587FF13C0A4
:100A60008091E80082FF06C08091E8008B77809338
:100A7000E80004C0809152058111F2CF0895809161
:100A800052058823D9F38091E80080FFF8CF809148
:100A9000E8008E77ECCF982F9093E900242F762FE3
:100AA00050E0891731F07091EC002091ED005091E9
:100AB000F00021FD07C09F5F973071F78093E90038
:100AC00081E008953091EB003E7F3093EB00309150
:100AD000ED003D7F3093ED003091EB0031603093BD
:100AE000EB007093EC002093ED005093F000209108
:100AF000EE0027FDE0CF80E00895CF92DF92EF92E5
:100B0000FF920F931F93CF93DF93C8EDD0E08881BE
:100B10008F7E8883E7EDF0E080818160808384E0D0
:100B200082BF81E08093240588818E7F888302EED6
:100B300010E0F80110821092DA0081EEC82ED12C5C
:100B4000F601108288818F77888388818068888306
:100B500088818F7D888319BC1092520510924905B7
:100B6000109248051092470590EEE92EF12CF701FE
:100B700080818B7F808388818160888342E060E010
:100B800080E00E944B05F60180818E7F8083F80112
:100B9000808181608083808188608083F70180818B
:100BA0008E7F8083888180618883DF91CF911F91C0
:100BB0000F91FF90EF90DF90CF900895FC0180910E
:100BC00050059091510586179707A0F061157105A2
:100BD00029F49091E8009E779093E80090E06115E9
:100BE000710551F4911108C08091E80082FF34C072
:100BF00080E00895BC01F2CF809152058823C1F1B5
:100C00008530C1F18091E80083FD30C08091E8001B
:100C100082FDEACF8091E80080FFE1CF8091F30070
:100C20002091F200382F6115710519F02830310537
:100C300058F091E02830310509F090E02091E8006B
:100C40002E772093E800CBCF81918093F100615003
:100C500071092F5F3F4FE7CF80915205882341F004
:100C6000853041F08091E80083FFBECF81E0089598
:100C700082E0089583E008950895809126050895FF
:100C80009C014FB7F89480911B0590911C05A09191
:100C90001D05B0911E054FBF821B930B08952FB702
:100CA000F89460911B0570911C0580911D05909131
:100CB0001E052FBF08952FB7F89480911B059091C2
:100CC0001C05A0911D05B0911E052FBF0895209110
:100CD0001805309119052817390771F090931905F7
:100CE00080931805E0911605F0911705309721F0D3
:100CF0000084F185E02D0994089520911405309128
:100D000015052817390771F0909315058093140580
:100D1000E0911605F0911705309721F00680F781D4
:100D2000E02D09940895E0911605F091170530978C
:100D300021F00190F081E02D099480E00895CF9397
:100D4000DF93EC0140913004509131046091320402
:100D5000709133042FB7F89480911B0590911C0576
:100D6000A0911D05B0911E052FBF841B950BA60BEE
:100D7000B70B843F9140A105B10518F5809130046F
:100D800090913104A0913204B091330480932C04EB
:100D900090932D04A0932E04B0932F0484EF91E040
:100DA000A0E0B0E08093280490932904A0932A0443
:100DB000B0932B04D0933804C0933704DF91CF91C4
:100DC00008950E944F0660932C0470932D04809325
:100DD0002E0490932F0482E390E0A0E0B0E0E2CFF5
:100DE000FC018481862351F492819923B9F069230F
:100DF000808583FF05C081E061110FC080E0089508
:100E0000892F8F7092959F70982B862F8F70629587
:100E10006F70682B81E09613F1CF089581E0FDCFCC
:100E2000452B39F0682381E06F3F09F080E0817045
:100E3000089581E0FCCFDC016091240480912504B9
:100E4000962F891301C00895292F30E0F901EE0F84
:100E5000FF1FE45EFB4F408151814A175B07A1F4FD
:100E600087E08A9FA0018B9F500D11244C515C4F4D
:100E700081E0FA0184839613E6CF2F5F3F4F237002
:100E800033272093240408952F5F3F4F922F9370B0
:100E9000D8CF1092810310928003E4EEF3E08581B5
:100EA000811102C014821682379684E0EC31F80773
:100EB000B1F70895AF92BF92CF92DF92EF92FF9277
:100EC0000F931F93CF93DF938FEF9FEF4430510524
:100ED00008F468C040911F0541FB882780F990E025
:100EE000880F991F42FB002700F910E0000F111F27
:100EF000000F111F802B912B40FBCC24C0F8D12C6C
:100F00008C299D2943FB222720F9C22FE0E0DE2F08
:100F100053E0CC0FDD1F5A95E1F78C2B9D2B44FB42
:100F2000AA27A0F9B0E0E4E0AA0FBB1FEA95E1F719
:100F30008A2B9B2B45FBEE27E0F9F0E0A5E0EE0FB6
:100F4000FF1FAA95E1F78E2B9F2B46FB222720F946
:100F500030E0B6E0220F331FBA95E1F7822B932BD6
:100F600047FB222720F930E03695322F222737958C
:100F70002795822B932B20912005322F3170F32E51
:100F8000F92A26952170B22EBB0CA82EBF28C501C8
:100F9000BB0CAA0BBB0BFB0180839183A283B383A1
:100FA00090E080E0DF91CF911F910F91FF90EF9043
:100FB000DF90CF90BF90AF900895EBE3F4E0848191
:100FC00095812AE030E0B9010E94BF366093160196
:100FD0008681809315018285809314018485809396
:100FE000130186859785B9010E94BF36609312016F
:100FF0008089809311018289809310018489809374
:101000000F01089580913B0490913C049093180146
:1010100080931701089581152CE5920741F42091E2
:10102000550330915603232B11F490E080E008958E
:101030000E945B069C019091640280916502982B4E
:1010400021F03093610220936002909166028091BA
:101050006702982B21F030935F0220935E02E091AB
:101060001605F0911705309749F082E080936202EF
:101070000480F581E02D82E692E009940895909134
:101080006402803F59F48091650287FF0DC0109281
:10109000650291110BC010925C0208C0813F81F47F
:1010A0008091650218169CF3992381F08091660265
:1010B00090916702892B09F064C010925B02089539
:1010C000823F49F497FFF0CF10926402809165024D
:1010D0008111ECCFE0CF833F19F41916ACF3E4CFC4
:1010E00020916602893F29F41216F4F610926602E6
:1010F000DBCF8A3F19F427FFD7CFF8CF20916702C3
:101100008B3F29F427FFD0CF10926702CDCF8C3FC1
:1011100019F41216CCF3C8CF843F31F480916302E6
:101120008E7F80936302C0CF853F21F4809163025C
:101130008D7FF7CF863F21F4809163028B7FF1CFC3
:10114000873F21F480916302877FEBCF883F21F4B2
:10115000809163028F7EE5CF8D3F31F480915D02F7
:101160008E7F80935D02A0CF8E3F21F480915D023F
:101170008D7FF7CF8F3F09F097CF80915D028B7FF6
:10118000F0CF089580915D0280FF0CC06091100146
:1011900070E075956795759567956115710549F1CD
:1011A000862F089581FF06C06091100170E075954B
:1011B0006795F3CF6091100182FD0BC090915B02A7
:1011C0009923A1F060910F0180911001961738F0DA
:1011D000682F70E06038710500F38FE70895899FEC
:1011E000C001112470E00E94D336F4CF61E070E0BA
:1011F000D7CF81E0089580915D02609143047091A2
:10120000440480FF16C020911401269FC001279F2F
:10121000900D1124BC017695679576956795603899
:10122000710508F043C06115710509F441C0862FAE
:10123000089581FF0BC020911401269FC001279FB4
:10124000900D1124BC0176956795E9CF82FF09C006
:10125000809114019B01829FB001839F700D112426
:10126000DECF20915C022223D1F290911301809174
:101270001401482F50E0291748F0CB01849FB0019A
:10128000859F700D949F700D1124C9CF289F9001E8
:101290001124269FA001279F500D369F500D112429
:1012A000692F70E0CA010E94BF36B9CF8FE7089559
:1012B00081E00895803F31F40E94FB08819580937E
:1012C00065020895813F19F40E94FB08F8CF823F20
:1012D00031F40E94FB088195809364020895833F56
:1012E00019F40E94FB08F8CF893F29F40E94C20834
:1012F0008093660208958A3F21F40E94C208819576
:10130000F7CF8B3F31F40E94C2088195809367022A
:1013100008958C3F19F40E94C208F8CF843F31F43D
:10132000809163028160809363020895853F21F478
:10133000809163028260F7CF863F21F4809163023F
:101340008460F1CF873F21F4809163028860EBCF06
:10135000883F21F4809163028061E5CF8D3F31F4B5
:1013600080915D02816080935D0208958E3F21F43B
:1013700080915D028260F7CF8F3FB9F780915D0267
:101380008460F1CF80E00895F894E82FE295EF7043
:10139000F0E031A1282F2F7081E090E001C0880F8C
:1013A0002A95EAF7982F9095932391A392A1892BE0
:1013B00082A37894089590911F0592FF06C0282F6C
:1013C00028712830F9F4877F846093FF06C0282FA6
:1013D00028712831F1F4877E84612091200520FF57
:1013E00006C0382F38713830D9F4877F816021FFEB
:1013F00006C0282F28712831D1F4877E816194FDA1
:10140000877E0895282F24712430F9F68B7F886019
:10141000DCCF282F2471243101F78B7E8861DDCF4A
:10142000382F3171313019F78E7F8860E0CF282F47
:101430002171213121F78E7E8861E1CFCF93DF9337
:10144000EC0182389105A9F1D8F58133910509F4B1
:1014500096C048F58932910509F48AC08A9709F443
:1014600095C0C11521E5D20708F0BCC0C11530E513
:10147000D30708F014C1C83ED10508F09CC0C03E97
:10148000D10560F5C83AD10508F087C0C53AD10545
:1014900008F0FDC0C130D10509F12097F9F0C43042
:1014A000D105E0F440C08533910509F45AC0C997CD
:1014B000C1F680911F05837089F0C0EED0E00EC0A8
:1014C000833E910599F170F4803E910501F1823ED1
:1014D000910539F680911F0582FD21C0CE01DF9173
:1014E000CF910895863E910561F1873E910571F196
:1014F000843E910509F0B5CF8091200581FFEECFA4
:1015000080911F05C7EED0E084FD0DC0E7CF80912C
:101510001F0580FD12C19091200590FFDFCFC3EE23
:10152000D0E084FFDBCFD0E0C0E0D8CF80911F05B2
:1015300082FD06C19091200590FDBFCF84FFCECFE4
:10154000F2CF80911F0583FDDDCFC8CF80911F05AD
:1015500083FDF9C09091200591FFF0CFC4EED0E05B
:10156000BDCF80911F0585FFB9CFC9E2D0E0B6CFCE
:1015700080911F0585FFB2CFC5E3D0E0AFCF80914A
:101580001F0586FFABCFCAE2D0E0A8CF80911F0530
:1015900086FFA4CFC1E3D0E0A1CFCF3BD10518F6A1
:1015A000C85AD0E0CC0FDD1FC95DDE4F0990D8814D
:1015B000C02DD46493CFC11540E2D40758F4C115AF
:1015C00081E0D80708F08ACFC03FD10508F4ABCF3F
:1015D000D06584CFC11590E4D90708F4A4CFDF709B
:1015E000D06A7CCFC11525E5D20700F5C11534E5D9
:1015F000D30708F08AC0C11543E5D40708F071C0CD
:10160000C11582E5D80708F467C0CE018370992719
:1016100021E030E002C0220F331F8A95E2F7C69521
:10162000C69580E2C89FE001112452C0C11599E51A
:10163000D907A8F4C11528E5D20708F06BC0C11579
:1016400036E5D30708F06FCF8C2F0E94DB09C82F37
:10165000D0E0DC2FCC27CC27DF71D0623FCFC11583
:101660004AE5D40708F45BC0CE019056811590423C
:1016700008F059CF8D2F8F710E94DB0990E0982FD1
:10168000882788279F719C012C2BE901E6CFC55A3A
:10169000D0E0CC5DDE4FC881D0E0D0641FCFCE015A
:1016A000E4E096958795EA95E1F783702C2F2695CF
:1016B0002695237040E2249F90011124382B8C2F13
:1016C0008370C1E0D0E002C0CC0FDD1F8A95E2F745
:1016D000C22BD32BDC6802CFDC2FCC27C16FD06AA2
:1016E000FDCECE018370992721E030E002C0220FA9
:1016F000331F8A95E2F7C695C69590E2C99FE0012F
:101700001124C22BD32BDA68E9CEDC2FCC27C46F8F
:10171000D06AE4CEDC2FCC27C06FD06ADFCE8C2F0E
:101720008F700E94DB0934E0D695C7953A95E1F7B2
:10173000CF709C2FEC01D069D1CEC9E3D0E0CECEE2
:10174000C2EED0E0CBCEC6EED0E0C8CE80912A0269
:10175000882331F010922A02109229021092280256
:101760000895CF93C82F8091200582FD0CC08091F1
:101770002A028C1741F00E945B0690932902809305
:101780002802C0932A02CF91089580959091540524
:101790009823909354050895809590915B03982326
:1017A00090935B03089590915B03892B80935B0377
:1017B00008951092070210920602109205020895F1
:1017C00080913D0490913E04892B89F00E945B0634
:1017D0002091280230912902AC01421B530B81E079
:1017E00020913D0430913E044217530708F480E0F5
:1017F000817008958091040281111092040208956D
:1018000090911B019923D1F090911F0597FF16C06D
:10181000E82FE695E695E695EE31E0F4F0E0E6583F
:10182000FE4F282F277081E090E001C0880F2A9595
:10183000EAF780959281892382830895ECE7F1E0AD
:101840009191891303C0DF0111971C9291E0E23856
:10185000F907B1F7089590911B019923C1F0909178
:101860001F0597FF14C0E82FE695E695E695EE3143
:10187000F8F4F0E0E658FE4F877021E030E001C058
:10188000220F8A95EAF78281822B82830895ACE742
:10189000B1E0EFEF90E02D91821751F0EF3F19F496
:1018A000211101C0E92F9F5F9630A9F7EF3F09F49E
:1018B00008950E2E000CFF0BE658FE4FE6CF209148
:1018C00003029091C201291302C080E0089530E024
:1018D000F90153E0EE0FFF1F5A95E1F7ED53FE4F6C
:1018E0005181561306C05081581303C052815413BE
:1018F00004C02F5F3F4F2770E6CF81E008958091AD
:1019000003029091C201981301C008958F5F877000
:10191000FACF9E3F49F1E82F2EE0929FE00D11246F
:101920009E2F9770E695E695E69583E0E89FF00197
:101930001124E156FE4F50E040E080E0219130E07C
:10194000092E02C0369527950A94E2F721703327B5
:10195000042E01C0220F0A94EAF7822B4F5F5F4FDB
:101960004330510559F7089580E008959E3F69F18D
:10197000E82F2EE0929FE00D11248E2F877041E01A
:1019800001C0440F8A95EAF7E695E695E69583E06F
:10199000E89FF0011124E156FE4F30E020E070E0B6
:1019A0005191DF011197CB01022E02C096958795C8
:1019B0000A94E2F7817081958527842385278C938B
:1019C0002F5F3F4F2330310559F7089592959F704F
:1019D000963091F058F4925F9F70923058F4803FA7
:1019E00019F030F4883E30F481E008959A5FF4CF26
:1019F000843FD1F380E00895883EB0F3813FD1F772
:101A0000F3CF9C013A9521153F4150F5FC01EE279B
:101A1000F170BC0166277270AC01442754709C01C0
:101A20002227387094FF0EC080E1EF2B09F480E08C
:101A3000672B09F08062452B09F08064232B89F025
:101A40008068089581E0EF2B09F480E0672B09F0AE
:101A50008260452B09F08460232B19F0886008957B
:101A600080E00895809321057093230560932205FB
:101A7000809152058430F9F48093E9008FEF9091C2
:101A8000E800815095FD06C095ED9A95F1F70000AC
:101A90008111F5CF8091E80085FF0DC050E040E056
:101AA00063E070E081E295E00E94DA048091E80052
:101AB0008E778093E8000895BC0184E00C94320D89
:101AC000BC0183E00C94320D9C0184E08093E9001A
:101AD0009FEF8091E800915085FD06C085ED8A95C5
:101AE000F1F700009111F5CF8091E80085FF0CC05F
:101AF00050E040E066E070E0C9010E94DA048091A5
:101B0000E8008E778093E8000895CF93DF93EC018F
:101B100080911B018823B1F180911F0587FF32C09E
:101B200060E284E08093E9008FEF9091E8008150BB
:101B300095FD06C095ED9A95F1F700008111F5CF5E
:101B40008091E80085FF1BC080911B0170E050E090
:101B500040E0811104C050E040E068E070E0CE0158
:101B60000E94DA048091E8008E778093E80080E29A
:101B7000FE01A7E2B5E001900D928A95E1F7DF91B1
:101B8000CF91089568E081E0CDCF81E08093E000BF
:101B900080E28093D8001092C9008FE19EE4019703
:101BA000F1F700C0000087E090EBDC018093550561
:101BB00090935605A0935705B093580588E19CE093
:101BC0000FB6F894A895809360000FBE90936000C4
:101BD000FFCF019708F40895EFE9FFE03197F1F79F
:101BE00000C00000F6CF0F931F93CF93DF930BE35A
:101BF00014E0C7E5D2E0CE010E942A37F8018193B4
:101C00008F012196CB37F2E0DF07A9F7C8EFD6E0C6
:101C1000FE0185919491009711F0FC0109952C9695
:101C2000F7E0C43FDF07A1F7DF91CF911F910F913C
:101C300008950F931F93CF93DF93843030F5653071
:101C400020F54E3010F5C42FD0E0CC0FDD1F2CE175
:101C5000629FC00DD11D11243CE8839FC00DD11D92
:101C60001124CE0187960E942A37082F10E0102FEA
:101C70000027CE0188960E942A379801282BC90197
:101C8000DF91CF911F910F91089590E080E0F8CF00
:101C9000462F2091590330915A03232B91F47E3F14
:101CA00039F46E3F71F48091570390915803089571
:101CB000843038F4753028F46E3018F4672F0C94A3
:101CC000190E90E080E00895CF92DF92FF920F937B
:101CD0001F93CF93DF936C010091530580912B02EA
:101CE000082BC7E0D0E010E0FC2EC8010C2E02C08B
:101CF000959587950A94E2F780FD0CC02197A0F78F
:101D0000F12C8F2DDF91CF911F910F91FF90DF90DC
:101D1000CF900895B6018C2F0E94480E0E941E0A93
:101D2000019761F3EECFCF93DF93EC010E94640E35
:101D3000BE010E94480EDF91CF910C941E0AFC0157
:101D400086819781009721F00E941E0A0C94E60C70
:101D5000808191810E94930EF9CF1F93CF93DF93DF
:101D600000D000D00F92CDB7DEB749835A83898166
:101D70009A816623B9F02223A9F00E94640E182FDD
:101D8000682F89819A810E94B60C69817A81812F9E
:101D90000F900F900F900F900F90DF91CF911F91A8
:101DA0000C94480E0E94890C182FEFCFFC01262FAF
:101DB00086819781009739F44081518162817381D6
:101DC00084810C94AD0E089583E290E00E942A373E
:101DD0008B3E89F484E290E00E942A37873F59F4D1
:101DE00085E290E00E942A3791E08A3909F090E07C
:101DF000892F8170089580E0FCCFCF9384E090E03C
:101E00000E942A37C82F82E290E00E942A37982F3A
:101E10008C2FCF910895DB01FC01329625913491EE
:101E20004217530758F0FC01349665917491A9014B
:101E3000CD010E940A3790E080E008958FEF9FEF78
:101E400008950F931F93CF93DF930BE314E0C7E53F
:101E5000D2E0CE010E942A37F80161918F01681704
:101E600019F0CE010E9438372196CB37F2E0DF0718
:101E700081F7DF91CF911F910F910895DA019C01B5
:101E80002E5F3F4FF90145915491F901259134910D
:101E9000A217B30758F0FC013496859194910E94E3
:101EA0000A370E94210F90E080E008958FEF9FEFA6
:101EB0000895CF93DF93CBE6D3E060E0CE010E949C
:101EC00038372196C11584E0D807B9F7DF91CF9153
:101ED00008950F931F93CF93DF938901843048F5C2
:101EE000653038F54E3028F521153C4531F4209108
:101EF000550330915603232BE1F0C42FD0E0CC0FD3
:101F0000DD1F9CE1699FC00DD11D11249CE8899FB4
:101F1000C00DD11D1124612FCE0187960E94383744
:101F2000602FCE018896DF91CF911F910F910C9475
:101F30003837DF91CF911F910F910895CF93C82F1C
:101F40006FEF81116BEE83E290E00E9438376FEF04
:101F5000C11167EF84E290E00E9438376FEFC11142
:101F60006AE985E290E0CF910C943837CF93C92F7E
:101F7000682F84E090E00E9438376C2F82E290E076
:101F8000CF910C9438379B01883070F49AE0899F88
:101F9000B001112465587D4F4AE050E0C9010E940C
:101FA0001A3790E080E008958FEF9FEF08958F92A9
:101FB0009F92AF92BF92CF92DF92EF92FF920F93D8
:101FC0001F93CF93DF93CDB7DEB72A970FB6F89460
:101FD000DEBF0FBECDBF04E614E0F12CE12C85E09E
:101FE000C82E8DE2D82E9FE2A92E9DE2B92E2EE6B4
:101FF000822E2CE2922EF801D182C082B382A2827C
:1020000095828482F58AE48ABE016F5F7F4F8E2DB0
:102010000E94C30F892B29F489859A85F801938B37
:10202000828BFFEFEF1AFF0A0A5E1F4F88E0E81667
:10203000F10409F72A960FB6F894DEBF0FBECDBFA4
:10204000DF91CF911F910F91FF90EF90DF90CF9094
:10205000BF90AF909F908F9008958F929F92AF9274
:10206000BF92CF92DF92EF92FF920F931F93CF9385
:10207000DF93CDB7DEB72A970FB6F894DEBF0FBE59
:10208000CDBF0DED12E08BECC82E82E0D82E9BE187
:10209000E92E93E0F92E27E0922E3AECA32E32E0BF
:1020A000B32E88248394D6010D931D936D014AE0CD
:1020B00050E0B701CE0101960E941A37F801389618
:1020C000DF01892D1D928A95E9F789819A81D801CE
:1020D00011969C938E938F8112968C9312978D817B
:1020E00013968C931397888514968C9314978985EF
:1020F00015968C9315978B819C8117969C938E9344
:10210000169718961C9218978A8587FF4BC01E96C3
:102110001C921E921D9780FF03C0D80118968C92C6
:1021200081FF04C0F80190859260908782FF07C00C
:10213000D80118969C911897946018969C9383FFE9
:1021400004C0F80190859860908784FF07C0D8018B
:1021500018969C911897906118969C9385FF04C0DF
:10216000F801808580628087015F1F4FFAE0EF0EE3
:10217000F11C8BE6E81683E0F80609F094CF2A9666
:102180000FB6F894DEBF0FBECDBFDF91CF911F9188
:102190000F91FF90EF90DF90CF90BF90AF909F9006
:1021A0008F900895F801B686A586B5CFCF92DF92BD
:1021B000EF92FF920F931F93CF93DF93CDB7DEB7CC
:1021C0002A970FB6F894DEBF0FBECDBFEAE7F2E064
:1021D00080E5DF011D928A95E9F7E4EEF3E088E3FC
:1021E000DF011D928A95E9F78AE7C82E82E0D82E92
:1021F0007F010BEC12E0F701D182C0824AE050E08F
:10220000B801CE0101960E941A3788E0FE0131968E
:10221000D60101900D928A95E1F789859A85D701BB
:1022200013969C938E931297BAE0CB0ED11CE7E0E5
:10223000EE0EF11C065F1F4F0B31F3E01F07D9F6BE
:102240002A960FB6F894DEBF0FBECDBFDF91CF91B7
:102250001F910F91FF90EF90DF90CF9008958F9294
:102260009F92AF92BF92CF92DF92EF92FF920F9325
:102270001F93CF93DF93CDB7DEB72A970FB6F894AD
:10228000DEBF0FBECDBF8E010F5F1F4F8AE0F8018A
:1022900011928A95E9F795E5E92E91E0F92E68010A
:1022A000AA24A394B12CF70181917F018F3F09F4F7
:1022B00046C0F894E82FE295EF70F0E021A18F700E
:1022C000A50102C0440F551F8A95E2F7CA01922F5B
:1022D000982B91A392A18095892382A3789400C022
:1022E000EAE5F1E021E030E0912C812C41914F3F73
:1022F00009F481C0A42FA295AF70B0E090968C91A4
:1023000090E04F7002C0959587954A95E2F780FD61
:1023100072C0C901882A992A220F331F51E0E8367A
:10232000F50721F7F701319780818F3F11F00E9467
:10233000C40980EA8A95F1F7F60191828082F2E081
:10234000CF0ED11C4AE5E41641E0F40609F0ABCF0C
:102350004AE050E0B8018FE292E00E94FD36FF248F
:10236000F394009709F4F12C892B09F447C08AE013
:10237000F801AFE2B2E001900D928A95E1F781E0B9
:1023800080932E020E945B0690932D0280932C0274
:1023900080912C0290912D020E944006059790F1A9
:1023A00080912F02909130029093520280935102BB
:1023B00080913102909132029093540280935302A3
:1023C000809133029091340290935602809355028B
:1023D0008091350290913602909358028093570273
:1023E000809137029091380290935A02809359025B
:1023F00010922E0207C090E080E08CCF80912E02D8
:102400008111C6CF8F2D2A960FB6F894DEBF0FBE6E
:10241000CDBFDF91CF911F910F91FF90EF90DF9093
:10242000CF90BF90AF909F908F900895CF93809161
:102430005B0390915405892B80937A0180912A0245
:10244000882329F180913D0490913E04892B29F045
:102450000E94E00B81110E94A60B80917A0190915D
:102460002A02892B80937A0180911B01882309F429
:1024700046C080911F0587FF42C08EE1ECE7F1E086
:1024800090E0815008F03DC091110E94A60BC091D0
:102490003404C09580917A01C82380913504C82BFB
:1024A000C0937A0140E250E068E072E08AE791E090
:1024B0000E94FD36892B59F180E2EAE7F1E0A8E0BD
:1024C000B2E001900D928A95E1F7E0911605F09146
:1024D00017053097E1F080911B01882349F0809126
:1024E0001F0587FF05C0C0937B0186E080937A01BA
:1024F0000280F381E02D8AE791E0CF91099486E094
:10250000BDCF2191222309F4BCCF9F5FBACFCF91D9
:102510000895EF92FF920F931F93CF93DF93EC01F7
:102520008A85811134C0EB80FC8087E5F81A26E1AA
:102530002E9DC0012F9D900D1124DC01AC59BB4F85
:102540001496ED91FC911597309731F054966D915A
:102550007C9186599B4F099586E18E9D80018F9DC8
:10256000100D11240C591B4FF80187810E94CC0BD0
:10257000F80180850E94C50B0E94161218821986E8
:102580001B861E821D821092630410926204DF91EA
:10259000CF911F910F91FF90EF900895CF93DF930C
:1025A000EC018989811118C081E0898B8F810E949B
:1025B000D30B809154059885892B809354050E94F4
:1025C0001612EA81FB81309739F06C897D89CE0142
:1025D0000696DF91CF910994DF91CF910895809174
:1025E0001901877F8093190182E00E94C50B8091B9
:1025F000190184FF06C08F7E8093190182E00E943A
:10260000D30B8091190185FF06C08F7D809319013E
:1026100080E20E94D30B0C94161290E080E00E949E
:102620007D0690E080E00E946706109254050E94AB
:10263000161286E0E2E6F2E0DF011D928A95E9F7E4
:1026400010925C0210925B0210925D020C941808CA
:10265000809353050C940D1380915305982F967019
:10266000963019F488600C942813877FFCCF21E002
:1026700030E001C0220F8A95EAF72095809153053A
:1026800082230C94281390910702809589238093CC
:102690000702282F277091F4282F082E000C330BE7
:1026A0009217130659F09091200592FD07C0859569
:1026B000859585950E9437130C94D90B08959091B8
:1026C000200592FB222720F9281769F080FB92F958
:1026D0009093200580911F05909120050E94B60FD0
:1026E00082E00C944313089521E030E001C0220FF2
:1026F0008A95EAF780915305822B0C9428139091C8
:10270000200592FD10C098E0899F90011124622B52
:10271000609307020E9474130E945B069093060266
:102720008093050208950C94741380932B020C94EB
:102730000D1310925B0380911B01ECE7F1E08823FD
:1027400059F080911F0587FF07C08EE1DF011D92C0
:102750008A95E9F70C940D1386E0F8CF1F93CF9379
:10276000DF93CDB7DEB7AA970FB6F894DEBF0FBEE2
:10277000CDBF8AE495E02091F100DC012D93CD01DD
:10278000B5E082359B07B9F780914B05833009F49A
:1027900072C0B8F4813009F449C0823009F4B3C082
:1027A0008091E80083FF96C280914A0590914B0585
:1027B0009A3008F08FC2E92FF0E0EA58F84C0C94F8
:1027C000E7368A3009F48EC08B3009F471C0893045
:1027D00039F780914A05813219F780914E05909121
:1027E0004F05009711F00297D9F68091E800877F96
:1027F0008093E8008091E80082FF38C09091F30058
:102800008091F200029731F48091F100813011F053
:10281000863021F48091F100809326058091E800B4
:102820008B778093E8000E942C05BACF80914A05EF
:10283000813A09F0B5CF8091E800877F8093E80066
:1028400080914E0590914F05892B61F460E287E2FB
:1028500095E070E00E94DE058091E8008B77809320
:10286000E8009ECF60E090E080E0F3CF80915205D9
:102870008111C0CF95CF80914A05813A09F090CF60
:1028800080914E0590914F05892B09F089CF809159
:10289000E800877F8093E8008091E80080FFFCCF0C
:1028A00080911B018093F1008091E8008E77B9CF71
:1028B00080914A05813209F073CF80914E05909145
:1028C0004F05892B09F06CCF8091E800877F8093BA
:1028D000E8000E942C0580914C0580931B010E940A
:1028E00099135ECF80914A05813209F059CF8091CA
:1028F000E800877F8093E8000E942C0580914D05B9
:10290000809325054DCF80914A05813A09F048CF43
:102910008091E800877F8093E8008091E80080FF45
:10292000FCCF80912505BECF803899F0823809F020
:10293000D1C180914E058F70873008F0CBC1809354
:10294000E9008091EB0085FB882780F91092E9006F
:1029500006C0809147059091480591118260909141
:10296000E800977F9093E8008093F1001092F100C7
:102970008091E8008E77AAC1882309F498C182303B
:1029800009F0A8C180914C0581119BC180914E0531
:102990008F702FEF280F263008F09CC18093E9003C
:1029A0002091EB0020FF8DC1933031F48091EB003A
:1029B00080628093EB0085C19091EB0090619093D1
:1029C000EB0021E030E001C0220F8A95EAF7209366
:1029D000EA001092EA008091EB008860EACF811152
:1029E00079C110914C051F778091E3008078812B8D
:1029F0008093E3008091E800877F8093E8000E9445
:102A00002C058091E80080FFFCCF8091E300806876
:102A10008093E30082E0111183E0809352055AC154
:102A20008058823008F056C120914C0530914D05F8
:102A30002C3DE3E03E07A1F583E08A838AE28983A7
:102A40004FB7F894DE01139620E03EE051E2E32F09
:102A5000F0E050935700E49120FF03C0E295EF703F
:102A60003F5FEF708E2F90E0EA30C0F0C7968D93F5
:102A70009D932F5F243159F74FBF8091E800877FE6
:102A80008093E8006AE270E0CE0101960E94DE05C4
:102A90008091E8008B778093E8001CC1C096E7CF57
:102AA00080914E0590914F05432F55274330510596
:102AB00009F44AC078F54130510509F485C08BE529
:102AC00090E0EAEEF7E04230510509F003C12091B1
:102AD000E800277F2093E8002091500530915105B0
:102AE0008217930708F49C0140E02115310509F095
:102AF00070C041116EC08091E80082FDC9CF809105
:102B00005205882329F2853019F28091E80083FF6D
:102B1000F2CFBECF4132510509F447C042325105D0
:102B200009F0D8C08330910508F0D4C0FC01EE0F45
:102B3000FF1FE559FE4F0190F081E02D88599E4F0F
:102B4000DC018C9190E01DC0332721303105E9F084
:102B50002115310579F022303105F9F023303105A6
:102B600009F0B8C0E7E5F8E0E4918E2F90E0E7E5E2
:102B7000F8E007C0EBE9F8E0E4918E2F90E0EBE994
:102B8000F8E0009709F4A6C0A2CFE7E8F8E0E491E6
:102B90008E2F90E0E7E8F8E0F4CFE5E7F8E0E49185
:102BA0008E2F90E0E5E7F8E0ECCF8330910508F058
:102BB00091C0880F991FFC01EF58FE4F0190F081E2
:102BC000E02D89E090E083CF82E190E0E5E4F8E059
:102BD0007ECF80915205882309F45ACF853009F4BD
:102BE00057CF8091E80083FD53CF8091E80082FDAC
:102BF00082CF8091E80080FF78CF9091F3008091A0
:102C0000F2002115310519F08830910550F041E0AE
:102C1000089709F040E08091E8008E778093E80003
:102C200064CF44914093F1003196215031090196CF
:102C3000E8CF803809F04EC08091E800877F80930C
:102C4000E800809149058093F10092CE811142C045
:102C500010914C051230F0F58091E800877F809349
:102C6000E800109349050E942C05112311F084E01F
:102C700005C08091E30087FDFACF81E08093520583
:102C800042E061EC81E00E944B0542E261EC84E0AD
:102C90000E944B0542E261EC82E00E944B0542E259
:102CA00060EC83E00E944B058091520513C0809137
:102CB0004C05813079F481E0933009F080E0809315
:102CC00048051092E9008091E800877F8093E80032
:102CD0000E942C058091E80083FF0AC08091E800E3
:102CE000877F8093E8008091EB0080628093EB0007
:102CF000AA960FB6F894DEBF0FBECDBFDF91CF917D
:102D00001F910895EBE3F4E0128E138E8FEA90E0AA
:102D10009183808325E0248F88E893E193838283E5
:102D20008AE090E09583848344E150E057834683B2
:102D300068E070E071876087938782874EE150E09A
:102D4000558744879787868740E550E0518B408BB5
:102D5000738B628B68E270E0758B648B62E370E06A
:102D6000778B668B68EC70E0718F608F158E978F14
:102D7000868F51A340A322A30E94210F0E94991382
:102D80001092200510921F0590E080E00E94B60F7F
:102D90000C94F30D7F928F929F92AF92BF92CF923D
:102DA000DF92EF92FF920F931F93CF93DF93CDB7F4
:102DB000DEB76E970FB6F894DEBF0FBECDBFA09002
:102DC0005503B090560381E090E0909356038093B2
:102DD00055038EEBC82E84E0D82E00E0760110E07B
:102DE00015C0F40125913491472D612F802F0E9449
:102DF000690F82E0880E911C7394EEE07E12F1CF91
:102E0000FCE1EF0EF11C1F5F153019F04701712C2A
:102E1000E8CF0F5F8CE8C80ED11C0430F9F60E9491
:102E200082161A8219821C821B821E821D821886BB
:102E30001F8288EC90E09A8789870BE712E04AE0CE
:102E400050E0B801CE0101960E945C37065F1F4F2B
:102E50000B3CE2E01E0799F77E01FBE0EF0EF11C50
:102E60008AE0F70111928A95E9F74AE050E0B8014B
:102E7000C7010E945C37065F1F4F0B31F3E01F074D
:102E8000A1F77E0185E1E80EF11C8AE0F7011192BD
:102E90008A95E9F78FEF9FEF9A8F898F87E08E8F62
:102EA0004AE050E0B801C7010E945C37065F1F4F3F
:102EB0000B36F3E01F07A1F7B0925603A09255031B
:102EC0006E960FB6F894DEBF0FBECDBFDF91CF91E7
:102ED0001F910F91FF90EF90DF90CF90BF90AF9038
:102EE0009F908F907F90089580E00E949E0F60E0F9
:102EF00086E290E00E9438370E94CA160E94590F5D
:102F000081E00C949E0FCF92DF92EF92FF928FEFB1
:102F10009FEF4430510508F46AC0FB01C080D180A6
:102F2000E280F3800E94991380911F05C0FA80F916
:102F3000B701A601769567955795479540FB81F9AE
:102F4000B701A60122E076956795579547952A9592
:102F5000D1F740FB82F9B701A60133E0769567957A
:102F6000579547953A95D1F740FB83F9B701A601EC
:102F7000E4E07695679557954795EA95D1F740FB3C
:102F800084F9B701A601F5E07695679557954795C1
:102F9000FA95D1F740FB85F9B701A601A6E0769531
:102FA000679557954795AA95D1F740FB86F9B701E4
:102FB000A601B7E07695679557954795BA95D1F7ED
:102FC00040FB87F980931F0580912005D0FA80F996
:102FD000D1FACC24C0F8C0FA81F980932005809101
:102FE0001F05909120050E94B60F90E080E0FF90B1
:102FF000EF90DF90CF900895882321F00E94C50BB9
:103000000C9416120895882339F090915405982B4A
:10301000909354050C9416120895882321F00E9471
:10302000CC0B0C9416120895882321F00E94D30B28
:103030000C9416120895882309F452C0823871F452
:103040000E94930681FF4CC089E30E942B0C0E94D2
:10305000161289E30E94000C0C941612833859F45E
:103060000E94930680FF3CC083E50E942B0C0E94C7
:10307000161283E5EFCF843859F40E94930682FF3D
:103080002FC087E40E942B0C0E94161287E4E2CF27
:103090009CEF980F913AF0F290E2980F983050F42C
:1030A000877091E001C0990F8A95EAF7892F0E94F5
:1030B000CC0BD2CF9BE5980F933020F490E080E0CA
:1030C0000C947D0698E5980F973120F490E080E00D
:1030D0000C946706803F20F00E943F080C9418086B
:1030E0000895FF920F931F93CF93DF93F82E0091D3
:1030F000390410913A040115110509F449C01092E0
:103100003804109237041092340410923504D80118
:103110001696CD91DC919E013A9521153F4108F418
:10312000D07ED1E0C11101C0D0E0D8011996ED9157
:10313000FC911A97309731F01B966D917C9180E04D
:103140000995D823DD2339F08CEF8C0F813A38F5BF
:103150008C2F0E94000CFF2099F0E0913904F0912F
:103160003A04808584FD0CC080913604882341F0A8
:10317000808191819C0121503109253A3D45A8F07B
:103180000E94161210923A041092390410923604DA
:10319000C801DF91CF911F910F91FF9008950E9478
:1031A00016128C2F0E941B18D6CF0E949F06E8CFC4
:1031B000CF93DF93EC010E941B18CE010E94010DFA
:1031C0009E01205E31092830310510F0CD2B21F40D
:1031D000DF91CF910C940D18DF91CF910C94FC17D7
:1031E000CF93C82F882309F4ABC08238C1F40E9462
:1031F000930681FDA5C089E30E942B0C0E94161244
:103200002FEF81EE94E0215080409040E1F700C024
:10321000000089E30E94000CCF910C9416128338B1
:10322000A1F40E94930680FD8BC083E50E942B0CC5
:103230000E9416122FEF81EE94E0215080409040C2
:10324000E1F700C0000083E5E5CF8438A1F40E94D7
:10325000930682FD75C087E40E942B0C0E94161213
:103260002FEF81EE94E0215080409040E1F700C0C4
:10327000000087E4CFCF8CEF8C0F813A90F58091DE
:103280001B01882301F180911F0587FF1CC0EC2FD3
:10329000E695E695E695F0E0E658FE4F828190E0EF
:1032A0004C2F477021E030E002C0220F331F4A95B7
:1032B000E2F782239323892B81F08C2F0E94000C4C
:1032C0000E9416120AC0ECE7F1E082E891E0219139
:1032D000C21799F38E179F07D1F78C2F0E942B0CE2
:1032E0009BCF80E28C0F883048F4C77081E001C02A
:1032F000880FCA95EAF70E94D30B8ECFEBE5EC0F4F
:10330000E33040F4F0E0EC5DFE4F808190E0CF913F
:103310000C947D06E8E5EC0FE73150F4F0E0EE0F99
:10332000FF1FE95DFE4F80819181CF910C9467066C
:10333000C03F30F08C2F0E945A09CF910C9418088E
:10334000CF9108951F93CF93DF93182FC0915B0403
:10335000D0915C04893321F0C0915904D0915A0472
:10336000812F0E94F018209731F4812FDF91CF91A7
:103370001F910C941B188FE99FE00197F1F700C093
:1033800000002197F0CF0F931F93CF93DF93C42FAB
:10339000D22FFC0182818823A1F0409361040E9416
:1033A0005B069093600480935F04C77081E001C066
:1033B000880FCA95EAF7DF91CF911F910F910C9476
:1033C000141810916104141339C080915F04909116
:1033D00060040E94400620915304309154048217E7
:1033E000930760F5C0E2CD0F1D17B9F080E2810FA1
:1033F000883040F4177081E001C0880F1A95EAF711
:103400000E940D18C83048F481E09D2F977001C0CC
:10341000880F9A95EAF70E941418802F0E94A2192B
:10342000C83098F4D77081E001C0880FDA95EAF7C8
:10343000DF91CF911F910F910C940D18C77081E00F
:1034400001C0880FCA95EAF7F3CFDF91CF911F91A2
:103450000F910895AF92BF92CF92DF92EF92FF92B9
:103460000F931F93CF93DF93EC018AE0A82E28815E
:10347000222309F48CC02130C9F599818A819130C9
:1034800021F422960E94A21905C0923029F42296B6
:103490000E94F0182196EBCF933021F422960E94DF
:1034A0001B18F8CF943011F02196F4CF229630E01B
:1034B00020E0AE014F5F5F4F8053990B8A3091053A
:1034C00050F02150310930F38FE99FE00197F1F777
:1034D00000C00000F6CFA29EB001A39E700D112483
:1034E0009C01260F371F8981EA01E3CFE22FF0E02C
:1034F000E650FE4FB490822F86958695869590E093
:10350000FC01E651FE4FE4902770F12C022E02C020
:10351000F594E7940A94E2F731E0E322FF24FC01FA
:10352000E652FE4FC490D12C022E02C0D594C7940F
:103530000A94E2F731E0C322DD24FC01E653FE4F9A
:10354000049110E002C0159507952A95E2F70170E5
:103550001127E114F10419F081EE0E94F018C11452
:10356000D10419F086EE0E94F0188B2D0E94A2194A
:10357000CD2819F086EE0E941B18EF2819F081EE75
:103580000E941B18012B09F485CF8CE27BCFDF91C1
:10359000CF911F910F91FF90EF90DF90CF90BF9050
:1035A000AF900895CF93DF93EC010E94010D9E012F
:1035B000205E31092830310510F0209739F40E943F
:1035C00014188C2FDF91CF910C94F0180E940318DF
:1035D000F8CF662329F020915405226020935405EA
:1035E0009C013056211540E2340720F0305E211551
:1035F000304108F499270C94D21ADF92EF92FF928F
:103600000F931F93CF93DF937C018B01D42E809176
:10361000190182FF8CC0C0917E03D0917F03CE152B
:10362000DF0521F0E114F10409F081C08091190156
:103630008B7F8093190181FD73C080917C039091F1
:103640007D03A801481B590B81E02091170130919F
:1036500018014217530708F480E08170F82E80911A
:103660001901F0FA81F980931901FE0183E0F695C2
:10367000E7958A95E1F7EE71FF27E45AFC4F208128
:103680003181AE014F70552781E090E002C0880F74
:10369000991F4A95E2F7FF2009F444C0822B932B2F
:1036A0009183808380915B0381FF08C08091190121
:1036B00080618093190182E00E94CC0B80915B03B2
:1036C00085FF08C08091190180628093190180E212
:1036D0000E94CC0B6F2DCE010E94E91ADD2031F043
:1036E0008091560485FF02C086FF3BC0809159043B
:1036F00090915A040E94E90D80917E0390917F037E
:103700009C013056211540E2340720F0305E21152F
:10371000304108F499270E94D8180E94EF121DC06A
:1037200081E09BCF8095909582239323B9CFC701E9
:10373000992797013056211540E2340728F0305E72
:103740002115304108F0C7010E94D81880917E03EE
:1037500090917F038E159F0501F310937D030093D5
:103760007C03DF91CF911F910F91FF90EF90DF903D
:10377000089569EE7EEF90E080E00E94563760E0A9
:1037800082E090E00E94383760E083E090E00E94A1
:10379000383710922B0260E084E090E00E943837C6
:1037A00060E082E290E00E94383760E085E090E0DF
:1037B0000E94383760E086E090E00E9438376FEF73
:1037C00087E090E00E94383740E050E0BA0188E09E
:1037D00090E00E944A3760E08DE090E00E94383728
:1037E00040E050E0BA0188E190E00E944A3760E092
:1037F00087E190E00E94383740E050E0BA018CE168
:1038000090E00E944A3770E060E080E290E00E9421
:10381000563740E050E0BA0188E190E00E944A3714
:1038200080E00E949E0F0E94741740E050E0BA01B1
:103830008FE090E00E944A3740E050E0BA0183E117
:1038400090E00C944A372F923F924F925F926F9282
:103850007F928F929F92AF92BF92CF92DF92EF9220
:10386000FF920F931F93CF93DF9300D000D000D02F
:103870000F92CDB7DEB77C01DC0113964D915C91C0
:10388000149711966C9111978C910E9410078111D9
:10389000CBC061E0C7010E94D60E8C01F701828186
:1038A000811161C0D70112968C9181119BC00031AA
:1038B0003FE5130709F473C101314FE5140709F41B
:1038C00072C16801E7E5DE1AFFEFCF16D10409F0F7
:1038D00060F560E772E08C2D0E94C30F892B29F5FB
:1038E00086E18C9DF0018D9DF00D1124EC59FB4F6C
:1038F0008681813009F059C18091700290917102E6
:10390000892B99F08091720290917302892B69F052
:103910008091740290917502209176023091770225
:10392000822B932B892B09F44AC1F7015280552031
:1039300009F457C10F35FDE51F0709F44EC10036E4
:103940002DE5120751F00E353DE5130709F049C189
:1039500080910001882309F440C11092000180E0A9
:103960000E94711851C080910D0190910E01019635
:1039700009F498CFE4E6CE2EE4E0DE2EB12CA12CA3
:103980009924939480910D0190910E018A159B05C5
:103990000CF488CFF60186818823E9F08185928531
:1039A0000817190739F4809162049091630408178D
:1039B000190789F0D6011F969C921F971C961C939D
:1039C0000E931B97C6010E94CE12C60106960E9456
:1039D000891210925405BFEFAB1ABB0AE6E1CE0E76
:1039E000D11CD0CFC80182519F45409710F00C9454
:1039F0003B258FEF93E00E942A377EEED72ED00E24
:103A00000BE613E08823A9F180910702877061F02B
:103A1000D70112968C91882339F08091200582FD80
:103A200003C082E00E94431327960FB6F894DEBFCE
:103A30000FBECDBFDF91CF911F910F91FF90EF90FF
:103A4000DF90CF90BF90AF909F908F907F906F90BE
:103A50005F904F903F902F9008950115F4E01F075D
:103A600099F2C8010E942A37811101C0DA940F5FD0
:103A70001F4FD110F2CF19821A821B821C82992407
:103A80009A9468012FEFC21AD20AC8010E942A37FD
:103A900089831A82882309F4B7CF813009F073C073
:103AA000580132E0A30EB11CC6010E942A37C82E6D
:103AB0008A83882309F4A8CFC5010E942A37D82E0B
:103AC0008FEF8C0D833068F4580143E0A40EB11CD5
:103AD000DB82DD2021F0CE0101960E942A1A8501A9
:103AE000D0CF8BEF8C0D833030F5C8010396DB828D
:103AF0005C01DD20A1F3580154E0A50EB11C0E9429
:103B00002A378C83882359F38B819C818130AFEFD6
:103B10009A0710F0982F8827B6E0CB1631F0E7E02F
:103B2000CE1631F00E94F52CDACF0E94C52CD7CFEB
:103B30000E943F2CD4CFF4E0CF12D1CF580124E023
:103B4000A20EB11CC80103960E942A37DD2009F499
:103B50005BCF882309F458CF8150990B989E900130
:103B6000999E300D11244D2D4150550BCA01820FE5
:103B7000931F019708F4B3CFAFE9BFE01197F1F7B6
:103B800000C00000F6CFCE0101960E942A1A56010D
:103B9000A6CF81E00E9474130E942C1335CF81E0E0
:103BA0000E943713F9CF82E0FBCF823009F0BDCEFF
:103BB0008091740290917502892B09F4B6CE26E1AA
:103BC0002C9DC0012D9D900D11248C599B4FDC0123
:103BD00050961C920E94CE12A8CE81E080930001E4
:103BE00013CF80910001882309F46DC6480140EE8F
:103BF000841A910840902A0280910402482A8091F8
:103C00005B03482A58E08516910408F086C09801A5
:103C10002770332781E090E001C0880F2A95EAF7EA
:103C2000552009F477C0482AD7018D919C910E94B4
:103C3000890C21E030E0390102C0660C771C8A95BE
:103C4000E2F7E0913904F0913A04FF83EE8320908B
:103C50009A0130909B011D822D81E22FF0E0EE0F42
:103C6000FF1FE553FD4FC080D180C114D10409F47A
:103C7000EDC6411005C0D60112968C91811187C006
:103C8000F601838190E086219721892B09F47FC07A
:103C90008085982F977009F487E0F8E08F169104DB
:103CA00008F055C0552009F44EC0869581708823D0
:103CB00009F46DC0D601AD90BC900A151B0519F42E
:103CC000552009F464C0EE81FF81CE16DF0609F4A9
:103CD0005EC0D6011D96ED91FC91309721F0808158
:103CE000882309F454C0642DC6010E94F00688237D
:103CF00009F44DC00A151B0509F0CAC601151105C6
:103D000009F4CBC65110CBC6A214B30409F03FC0CE
:103D1000512CC5C68095482287CF552009F47FC60F
:103D200010939B0100939A010E944F066093300408
:103D300070933104809332049093330410923804CA
:103D40001092370471CF82FB882780F9B0CF5520BD
:103D5000F1F08170ACCF0E941B18BFC60497813A66
:103D6000910548F48A2D0E942B0C552009F4ABC50F
:103D70000E94161249CE0E9416128FE39CE9019709
:103D8000F1F700C000008A2D0E94F018EECF9D814F
:103D90009F5F9D8361CFFC01208131810217130752
:103DA00009F08AC551108AC51092360480E060C6B9
:103DB000882309F4D7C5FA018189882309F4D2C57B
:103DC000C50186599B4F0E948912CCC5809119016B
:103DD000816080931901F4C5809119018E7F8093D1
:103DE00019010E94EF12ECC5809119018F7E013EEE
:103DF000110531F0053E1105C9F4809119018F7D3F
:103E0000809319018091190180FFE9C5D7011296AD
:103E10008C910832110528F50E31110508F074C097
:103E20000430110580F58111D6C5D9C5C801905659
:103E3000811540E2940720F0905E8115904110F7C3
:103E40008091190182FFCBC58091580481FDC7C5BF
:103E500024E432E040E0B60190E080E00E94FD1AE8
:103E6000BEC50933110558F40D32110518F40B3293
:103E70001105C9F69091560492FDD5CF08C00436BD
:103E80001105C1F3D0CF9091560494FDCCCF882377
:103E900009F4A1C090915B0380912A02282F292B5D
:103EA000322F3D7FB1F110927F0310927E0330914B
:103EB000560431FD2EC0F80143E0F695E7954A958A
:103EC000E1F7EE71FF27E45AFC4F98012F7033277A
:103ED00081E090E002C0880F991F2A95E2F7809553
:103EE000909520813181822393239183808360E0A8
:103EF000C8010E94E91A80912A028D7F0E94B10BAD
:103F000082E00E94431380CD9091560493FD8BCFA5
:103F1000BECF38E0F701A4E4B2E001900D923A95EB
:103F2000E1F7109246021092480210924702A090C8
:103F30007E03B0907F030A151B05B1F5309156043E
:103F400035FF32C04091190141FB992490F841FF9F
:103F500002C036FF29C040917C0350917D03B60119
:103F6000641B750B409153045091540464177507FA
:103F7000D8F491FF08C080911901806180931901E4
:103F800082E00E94CC0B80915B0385FF08C080918A
:103F9000190180628093190180E20E94CC0B692D87
:103FA000C5010E94E91A30CD9091190121FB91F9C8
:103FB000909319018D7F0E94B10B10937F030093A2
:103FC0007E03D0927D03C0927C03809119018460AE
:103FD0008093190195CF970140E0B601C8010E9476
:103FE000FD1A12CD053F4CE5140709F462C008F430
:103FF0005AC0063F8CE5180709F461C0D701129634
:104000003C91332309F49DC5109261040330BDE552
:104010001B0708F060C00A3FECE51E0730F4C8013A
:1040200082509C45449708F060C00E94FD0E90931A
:10403000200580931F0501313CE5130709F465C194
:1040400008F0E2C009305CE5150709F44CC108F03E
:10405000AFC005309CE5190709F43DC108F095C0D3
:104060000330BCE51B0709F42CC108F030C1809176
:104070001F05816002301C4509F426C180911F058F
:10408000909120050E94B60F0E949913BDCC04E6C2
:1040900021EE45EE68ED7CE5BDC406E221EE40EE82
:1040A00063EF7CE5B7C407E225EE44EE64EF7CE500
:1040B000B1C406E221EE42EE65EF7CE5ABC407E257
:1040C00025EE46EE66EF7CE5A5C408E221E045EE6C
:1040D00069ED7CE59FC40136FDE51F0709F4A5CF16
:1040E000053A2DE5120709F4A0CF06318CE5180733
:1040F00009F42BC50A358DE5180709F45CC108F0F1
:1041000038C10115ACE51A0709F445C10E3D1C453F
:1041100009F44EC1F70186819781009709F44FC1D8
:104120000E941E0A182F092FF701D280C580C29461
:104130003FE0C322809107028770C1F0AD2CDD20E3
:10414000B1F0892F807F803421F080E2810F8830A8
:1041500068F08091200582FD09C082E00E9443132F
:10416000809107028770AA24A3948111A12C902E1C
:1041700092942FE09222FBE0F91508F4ADC1E92DED
:10418000F0E0E058F84C0C94E73680911F0580620F
:1041900007302CE5120709F497C080911F05806154
:1041A00008301C4508F490C080911F0580648CC0C5
:1041B00080911F058B7F0D304CE5140709F484C0F6
:1041C00080F40B308CE5180709F493C080911F052B
:1041D0008C600C301C4508F477C080911F058D7FE2
:1041E00073C080911F058F7E0F30ACE51A0709F46C
:1041F0006BC080911F05877F00311C4508F464C0A7
:1042000080911F058F7D60C00D3FECE51E0709F40E
:1042100078C050F505312CE5120709F480C098F4F8
:1042200080911F05837F03314CE5140709F44CC0CE
:1042300008F46FC00E94991390911F05892F97FB76
:1042400087F9805841C00B3F8CE5180709F447C037
:1042500008F053C08091200581600A3F1C4509F099
:104260000DCF809320050ACF0130BDE51B0709F46F
:1042700062C0B8F4809120058C7F0F3FFCE51F07DA
:1042800081F380912005836001151D4550F38091D5
:104290002005982F909591708E7F892B90FB81F946
:1042A000E0CF01363DE5130709F44BC0053A4DE573
:1042B000140709F44DC002301D4509F0DFCE60E05F
:1042C0003BC080911F05826080931F05D7CE8091EF
:1042D0001F058460F9CF80911F058860F5CF80911C
:1042E00020058260BECF0E94991380911F058068CF
:1042F000EBCF80911F058E7FE7CF809120058E7FC9
:10430000B0CF809120058D7FACCF80911F058F7B32
:10431000DBCF0E94991380911F058F77D5CF8091B5
:104320001F0582FB992790F921E0922790FB82F9E3
:1043300090FB83F9C9CF61E08EE090E00E943837AE
:104340009DCE90911F05892F8F7E94FF8061BCCFF9
:1043500090911F05892F8E7F90FF8160B5CF80914E
:104360009C01811104C089E20E94000C01CD85E30B
:10437000FBCF0B35EDE51E0701F10C351D4509F0AE
:10438000C9CE8091200582FB882780F991E089279A
:104390000E945F13BFCE0E9499132FEF34E34CE0CD
:1043A000215030404040E1F700C000000E94C50DA0
:1043B0000E94B91B29CB81E0EBCF80E0E9CF82815D
:1043C00000811181882369F0C8010E94640ED82EF3
:1043D000682FC8010E94B60CB8018D2D0E94480EAE
:1043E0009FCEC8010E94890CD82EF6CF202F2F70A7
:1043F000B22E802F807F19F0B29490EFB922DD2089
:10440000A9F0BB2059F080E2810F883010F0111123
:1044100007C08B2D0E94D30B0E941612812F5AC009
:1044200080915405B82AB0925405F6CF812F0E948E
:104430001B18BB2009F450C080E2810F883010F0B7
:10444000111104C08B2D0E94CC0B03C08B2D0E9438
:10445000C50B0E94161240C0302F3F70B32E802F24
:10446000807F803219F0B29480EFB822112321F1BD
:10447000113009F4A4C0DD2009F4ADC0CC2009F44A
:104480007DC020E0D7014C9111965C911197129656
:104490006C91129713967C91139714968C910E94AD
:1044A000AD0E8091580481FDB9CFF701858180FF61
:1044B000B5CF8F70858362C08091200582FF40C098
:1044C000DD20C1F1BB2029F08B2D0E94D30B0E946F
:1044D000161280E00E94F018A92DA850BB0B14976B
:1044E00010F40E949306812F902F0E94E60C8111F8
:1044F000C4C110929E0110929D01AA20B1F080913A
:10450000070280FD12C0D70112961C9285958595F1
:1045100085950E947413C7010E94231C8091070295
:104520008595859585950E94371360E0C7010E94A7
:10453000D60E7ACA80E00E941B18BB2069F282CF97
:10454000DD2001F1C11004C080912A028B2917C01F
:1045500041E0C41206C080912A028B290E94B10B4F
:10456000BBCF80915704823078F3C812EDCF0E9400
:10457000A60B80910402B812B09204028B2D0E9407
:104580001418AACFC11006C00E94A60B8B2D0E9442
:104590000D18A2CF8091570451E0C5120BC0823094
:1045A00008F49ACF80915B038B2109F495CF0E9488
:1045B000FA0BEACF823040F38C11E6CF8DCF809199
:1045C0005D04DD2021F08C1508F486CFD7CFC81606
:1045D00008F082CFDBCFCC20C9F280915B049091B0
:1045E0005C04193321F08091590490915A040E947F
:1045F000E90D812F0E941B186FCF802F869586951D
:10460000837069F0813009F067CF812F902F93700C
:10461000D11002C090E080E00E9467065DCF812F3C
:10462000902F9370D11002C090E080E00E947D0630
:1046300053CF812FDD2029F00E945A090E941808CB
:104640004BCF0E943F08FACF802F837091F5D11095
:1046500043CF412F429546954770440F440F812F19
:104660008F70042E01C0880F0A94EAF7212F207161
:1046700014FF07C02FE030E001C0220F4A95EAF78F
:104680002095302F369536953370323069F050F4DE
:1046900040912B02313029F0822B84230E94951304
:1046A0001BCF842B822BFACF282B80912B028227C1
:1046B000F5CF8695DD2011F0802F8170882309F4D5
:1046C0000BCF412F429546954770440F440F812FE1
:1046D0008F70042E01C0880F0A94EAF7212F2071F1
:1046E00014FF07C02FE030E001C0220F4A95EAF71F
:1046F0002095302F369536953370323069F050F46E
:1047000040915305313029F0822B84230E942813D5
:10471000E3CE842B822BFACF282B8091530582275E
:10472000F5CFF02FFF70BF2EDD2029F08F2F0E94D4
:104730007413812F24CF812F0E940D188B2D0E947E
:104740003713CACE123F89F160F4103FB9F0113F20
:1047500081F0DD2009F48CC0C11060CE802F8F71F4
:1047600028C0133F49F1143FA1F78091200582FF33
:104770002FC0802F8F71DD2011F31BC080915D044D
:10478000DD2079F0C81608F0A7CE202F2F7181E028
:1047900090E001C0880F2A95EAF790915305892788
:1047A000B5CF8C1508F498CEF0CF802F8F71D11033
:1047B000C6CF0E94741390CE80E0DD2009F4A6CF0E
:1047C00081E0902F9F7101C0880F9A95EAF79ECFE4
:1047D000809157048230A0F180910402DD20F1F035
:1047E0000E94CC0B809107028770843041F40E94B4
:1047F000D90B802F8F710E943713A12C6DCE809121
:104800005704C816D0F7202F2F71B22E822F0E9486
:10481000741363E08B2D0E947F13EFCF0E94D30BA4
:1048200080915704C81640F00E94D90B0E94FA0BE1
:1048300064E0802F8F71EFCF81E00E944313DDCFC2
:10484000DD2059F0302F3F71B32E832F0E94741357
:1048500063E08B2D0E947F133FCE81E00E944313C3
:1048600041E04C1508F038CE82E00E94431334CE6C
:10487000C110B3CE802F8F7162CFDD2019F0C1102F
:1048800038CE3BCEC11035CE20E0F70140815181BA
:104890006281738184810E94AD0E8091580483FFF0
:1048A00028CE80919D0190919E01029709F021CE22
:1048B000812F0E94A2191DCE552029F0DC011896E7
:1048C0008C9185FF73CAC80197558F3F910511F0F0
:1048D00008F048C020910D0130910E0128173907CA
:1048E00024F490930E0180930D01F701228136E1AB
:1048F000389F5001399FB00C1124A5014C595B4FD2
:104900006A01DA0150962C935097928116968C91F9
:104910001697992309F44CCA1A961C930E9319976B
:104920008F5F16968C930E945B06F60196878587AB
:1049300080912A0287838091540590915B03892B93
:1049400080870190F081E02D309741F0D601549698
:104950006D917C91C50186599B4F09951093630415
:10496000009362048091560480FF39C00E945B0668
:104970006C01D70112968C91882309F435CA809175
:10498000190182FF08C024E432E040E0B60190E063
:1049900080E00E94FD1A0B31BCE51B0709F416CA22
:1049A0000C31ECE51E0709F417CA90911901892F03
:1049B0008E7F90FF81600A31FCE51F0709F40FCA62
:1049C000C8019056811520E2920728F0905E81156B
:1049D000904108F017CA10927F0310927E03033FA4
:1049E000BCE51B0709F459CB08F0FCCA083DFCE5FF
:1049F0001F0709F44CCB093D2CE5120709F465CBE0
:104A0000073D3CE5130709F0F9CA06E221EE41EE45
:104A100067ED7CE5C7010E94C3190C94041D8091C9
:104A20009A0190919B010817190781F410929B013C
:104A300010929A01109230041092310410923204B4
:104A40001092330410923804109237048091390484
:104A500090913A04009709F436CFA8E08A169104A1
:104A600008F099C9642D0E94F00681112CCF81E0D5
:104A70000E94711828CF0031FFE51F0709F489C88B
:104A800001312FE5120711F00C94951C82E082C8C9
:104A9000A114B10409F038C9512CB12CA12C80E02B
:104AA0000E947118D0923A04C092390481E0809338
:104AB0003604F60185818093340451100EC0AB2872
:104AC00061F0F601808191819C0124503109213AE5
:104AD000310508F040C90E94000CD6011696AD9031
:104AE000BC90C5019A9581159F4110F4E0EEBE225D
:104AF00077247394C5010197853A9D4508F0712C80
:104B0000D6011996ED91FC911A97309731F01B96CA
:104B10006D917C9181E009957822772079F0F601FA
:104B2000868197810E94010D80933504C501F8E0CC
:104B30008F16910408F012C90E949F060E94161257
:104B400014C906311C4509F0E5CA80915B03982F12
:104B50009A7A2091550420FF04C0482F447409F02C
:104B600090E021FF04C0482F417109F090E022FF3E
:104B700004C0482F487809F090E023FF03C08272F8
:104B800009F090E0332309F4EACB81E0911101C0F0
:104B900080E080939C0189E2911185E30E942B0CB7
:104BA000E7C8CF92DF92EF92FF920F931F93CF93BC
:104BB000DF938091BF01807F31F48091BC01C0916F
:104BC000030281110BC0DF91CF911F910F91FF90D4
:104BD000EF90DF90CF9008952196C7708091C20129
:104BE0008C1789F3F090BA01E090BB01C090BD0131
:104BF000D090BE01A6016E2D8F2D0E941007D0E02F
:104C00008111EACF8E0183E0000F111F8A95E1F731
:104C1000F801ED53FE4F81818E11DECF80818F111F
:104C2000DBCF82818111D8CFE380F480EC18FD08BE
:104C300060E08AEB91E00E94D60E8091530490913F
:104C40005404E816F90640F68091BF018F70806128
:104C50008093BF01F801E853FE4F80818F7080611F
:104C600080838AEB91E00E94231CDF91CF911F91FA
:104C70000F91FF90EF90DF90CF900C947F0C3F92BC
:104C80004F925F926F927F928F929F92AF92BF925C
:104C9000CF92DF92EF92FF920F931F93CF93DF9308
:104CA000CDB7DEB765970FB6F894DEBF0FBECDBFA8
:104CB0008C0185E0F801DE01519601900D928A95F4
:104CC000E1F7D8014C9011965C9011971296EC90F8
:104CD00012971396CD90DC9060E08AEB91E00E94F1
:104CE000D60E8AEBA82E81E0B82E8090BD01909060
:104CF000BE01A4016091BB018091BA010E9410071E
:104D00008111CAC1F090BC01F601E819F9094F01FF
:104D100060E0FF2009F46DC1C5010E94D60E6090CD
:104D20005304709054043090BF018614970408F027
:104D300013C14091BD015091BE01B090BA01A09045
:104D4000BB01832D807F6A2D09F0ADC08B2D0E94A1
:104D50001007FE2C81113BC0D80111968C91119740
:104D60008A1135C08C918B1132C02091C0013091D5
:104D7000C10116968D919C912817390741F5E110D4
:104D800026C0832D8F7080618093BF018AEB91E0F4
:104D90000E94231C8091BF01F80185838F2D6596A9
:104DA0000FB6F894DEBF0FBECDBFDF91CF911F913C
:104DB0000F91FF90EF90DF90CF90BF90AF909F90BA
:104DC0008F907F906F905F904F903F900895F4EF99
:104DD0006F16F1E07F0620F48091580480FF21C017
:104DE000A601652D842D0E941007811118C081E055
:104DF0008E2580FF16C04E2D652D842D0E945F0CE0
:104E0000882379F08AEB91E00E94231C88E0EAEB8A
:104E1000F1E0DF011D928A95E9F7F12CBFCF80E028
:104E2000E8CFA601652D842D0E941007811124C0B2
:104E300081E08E25B82FB170CB2E80FF2BC04E2D78
:104E4000652D842D0E945F0CD82E811123C0498AC4
:104E50005A8A89899A890E94930E292F22952F7048
:104E6000223060F0243088F49F7061F0F801958161
:104E7000907F41F4FD2C92CF80E0DCCF9F7011F049
:104E80008823C1F3805E8830A8F3C8010E94231CE8
:104E9000DC2CF0CFEE2009F481CF8091BF0181603E
:104EA0008093BF01BACF8B2D0E941007811124C0BF
:104EB000D80111968C9111978A111EC08C918B117B
:104EC0001BC02091C0013091C10116968D919C911B
:104ED00017972817390781F4E1100EC015963C92F8
:104EE000C8010E94231C88E0F801AAEBB1E0019000
:104EF0000D928A95E1F752CFC8010E949F0E882338
:104F000039F1EE2029F18091BF018032A0F020918B
:104F1000BA013091BB013A8729871B86DD86CC8692
:104F20008E878091C0019091C101988B8F87CE01AF
:104F300009960E94231C88E0F801AAEBB1E00190D9
:104F40000D928A95E1F70E94D125FF24F39426CF94
:104F5000C8010E94231CF9CF832D807F09F452CF12
:104F60009090BA018090BB014091BD015091BE016B
:104F7000682D892D0E94100781111CC0F8018181C4
:104F8000881118C08081891115C02091C00130910D
:104F9000C101868197812817390761F4E1100AC0A1
:104FA0003582C8010E94231C88E0D5011D928A9594
:104FB000E9F7F4CEC8010E949F0E882349F2EE2043
:104FC00039F28091BF01803208F4B5CF2091BA0147
:104FD0003091BB013A8329831B82DD82CC828E8390
:104FE0008091C0019091C10198878F83CE01019675
:104FF000A0CF8AEB91E00E94D60E8091530490914D
:1050000054048816990680F6FE2CEE2009F4A0CFF1
:10501000E090BA01D090BB014091BD015091BE011A
:105020006D2D8E2D0E941007811128C0F8018181FD
:105030008D1124C080818E1121C02091C00130913A
:10504000C1018681978128173907C1F480915804DE
:1050500082FD49CF9091BF0190FD45CF907F09F42B
:1050600042CF8091BF018583903F09F439CF982FBB
:10507000907F905F8F70892B858332CFC8010E940B
:105080009F0E811158CF8091BF0181608093BF0135
:10509000C8010E94231C82CEEE2009F459CFC8011A
:1050A0000E949F0EF82E882309F452CF88E0F80161
:1050B000AAEBB1E001900D928A95E1F78091BA01D7
:1050C0009091BB010E94930E0E94D12567CECF9391
:1050D000DF93CDB7DEB760970FB6F894DEBF0FBE93
:1050E000CDBF29873A874B875C876D877E878F87FF
:1050F000988BCE0109960E943F2681112FC088E02F
:10510000FE013996DE01119601900D928A95E1F724
:105110004C855D856A8589850E94100781111EC0B6
:10512000A091C201B0E0CD0101968770992720912E
:1051300003022817190609F193E0AA0FBB1F9A95DD
:10514000E1F7AD53BE4F98E0FE01319601900D920C
:105150009A95E1F78093C2010E947F0C809103022F
:105160009091C201891317C060960FB6F894DEBF04
:105170000FBECDBFDF91CF9108950E949913109279
:10518000C2011092030288E0EAEBF1E0DF011D9218
:105190008A95E9F7E3CFB8E08B9FC00111248D53C6
:1051A0009E4F0E943F268823F9F28091030290E0EF
:1051B00001968770992780930302D0CFEF92FF92D8
:1051C0000F931F93CF93DF9380918303882361F024
:1051D000C09182038CE0F82E80918303C81758F0A9
:1051E0001092830310928203DF91CF911F910F9150
:1051F000FF90EF900895EE24E394EC0EE09282038A
:105200000C2F10E0CF9DE0011124CC57DC4F4B81D7
:105210005C81698188810E94100781111DC08E8187
:105220009F81892B21F488859985019651F42881E5
:1052300039814A815B816C817D818E819F810E9451
:105240006728F09EF001F19EF00D1124EC57FC4F01
:105250001482138210925405CE2DBECF10922704D3
:105260001092260410921A01809125048093240440
:105270000E9449070C94DE283F924F925F926F92F2
:105280007F928F929F92AF92BF92CF92DF92EF92D6
:10529000FF920F931F93CF93DF93C091240497E065
:1052A000892E01E010E02CE0322E3EEF932E4424B4
:1052B0004394809125048C1315C00E94DE28DF9151
:1052C000CF911F910F91FF90EF90DF90CF90BF9003
:1052D000AF909F908F907F906F905F904F903F9096
:1052E0000C944907D0E0FE01EE0FFF1FE45EFB4F78
:1052F00080819181889ED001899EB00D1124AC518E
:10530000BC4F14962C911497211157C050908303D1
:10531000E4E8F3E030E020E0712C5D01251508F0B1
:105320004AC0E284F384D501CD90DC906FEF7FEF2B
:10533000612C462D50E0DA01AA0FBB1FAC0DBD1D3C
:105340000D90BC91A02D109731F0EA16FB0609F4E0
:10535000BA016394EECF6F3F7607A1F1D80102C086
:10536000AA0FBB1F6A95E2F77A2AB80102C0660F3E
:10537000771F6A94E2F7AB01415051097416150684
:10538000F9F4329EF001339EF00D1124EC57FC4FDE
:10539000889ED001899EB00D1124AC51BC4F12964D
:1053A0002D913C9113973783268390829182918728
:1053B000808715964C920E941B072196C37079CF67
:1053C000148213822F5F3F4F3C96A8CF2F923F92BB
:1053D0004F925F926F927F928F929F92AF92BF9205
:1053E000CF92DF92EF92FF920F931F93CF93DF93B1
:1053F000CDB7DEB769970FB6F894DEBF0FBECDBF4D
:10540000942F498B252F5A8B6B8B7C8B8D8B4C89E2
:105410005D89622F892F0E941007811109C0809138
:105420009D0190919E01019690939E0180939D0114
:105430008B898111109254051D861E861F86188A3D
:1054400085E0FE017196DE01199601900D928A9514
:10545000E1F78091200582FD1EC080913D0490916E
:105460003E04892BC1F00E945B0620910502309119
:105470000602821B930B20913D0430913E0482175B
:10548000930720F08091070282FFF5C10E94E00B94
:1054900081110E94A60B4C855D856A8589850E94D5
:1054A0001007811111C061E0CE0109960E94D60E4D
:1054B0006C018B8527EFC2162CE5D20681F4882378
:1054C00021F181E080931A0129853A854B855C851D
:1054D0006D857E858F8598890E946728C5C038EFC5
:1054E000C3163CE5D30629F4882379F00E942E29BF
:1054F000EBCF49EFC4164CE5D40639F4882329F0E4
:1055000080911A018111F2CFDCCF04EE13E0512C0F
:10551000B12CA12C22242394312C2EEF422EF80101
:105520004081518188248A94982C20E0822F90E039
:10553000FC01EE0FFF1FE40FF51F60817181611503
:10554000710531F0C616D70609F44C012F5FEECF76
:10555000F12CFFEF8F169F0609F448C0F801448133
:10556000F0901A018F2D411180E0F82FF170FF2E7D
:10557000F801E58086819B85992309F40CC1FF2001
:1055800009F409C16090510470905204E11012C0F6
:10559000A10101C0440F8A94EAF7842B868380918D
:1055A0008003909181038615970520F47092810302
:1055B00060928003C10102C0880F991F2A95E2F70B
:1055C0000197F80126812817190681F48091260495
:1055D00090912704009709F460C00E944006681665
:1055E000790608F05AC021E0F80124835F28FFEF14
:1055F000AF1ABF0A095F1F4F28E0A216B10409F0D5
:105600008ECF8B85882309F421C1552009F41EC152
:105610000E945B0690932704809326048091830365
:10562000883010F591E0980F9093830398E0FE0185
:105630003996DE01119601900D929A95E1F73CE0C2
:10564000839FC00111248C579C4F28E0FE013196A6
:10565000DC0101900D922A95E1F72FEF3FEFFC015D
:1056600031872087D386C28669960FB6F894DEBF4D
:105670000FBECDBFDF91CF911F910F91FF90EF90A3
:10568000DF90CF90BF90AF909F908F907F906F9062
:105690005F904F903F902F900895809124045091F7
:1056A0002504982FF0E0E0E0851314C090932404C3
:1056B000E017F10709F49ACF90E0FC01EE0FFF1F0D
:1056C000E45EFB4FB182A08201968370992780939C
:1056D00025048CCF682E712CF301EE0FFF1FE45EC2
:1056E000FB4F2081318147E0429FD001439FB00DA5
:1056F0001124AC51BC4F6D917C911197798F688FBB
:1057000040E020E030E0E32FF0E0EE0FFF1F688D77
:10571000798DE60FF71F8080918081149104E1F06C
:10572000F8010190F081E02DFF8BEE8B20E005C0A9
:105730008616970609F44F2D2F5FE22FF0E0EE0F4B
:10574000FF1F6E897F89E60FF71F608171816115E8
:10575000710571F73F5FD7CF4423D1F0F8012317CC
:1057600008F0FD0121E024830E171F0721F4909318
:105770002404F42E3BCF981305C0AE17BF0711F4D5
:105780009F5F937093012F5F3F4F822F83708CCF69
:10579000F0E0E0E0F7CF90E0E1101FC0B10102C0FF
:1057A000660F771F2A95E2F79B0121503109821776
:1057B000930731F4442309F447C0C5010E941B0735
:1057C000C10101C0880F8A94EAF7982F9095F801DB
:1057D000868189238683FE2C09CF9C01082C02C078
:1057E000359527950A94E2F7A90141705527BC0128
:1057F0006150710986239723892B11F5452B01F1FF
:10580000F80182819381892BC1F01B821C821D8249
:105810001E8249824A820E945B068160582F9D83C6
:105820008C83F801828193818F83988729813A81C3
:105830004B816D817E810E946728F8011582C0CF5F
:10584000F22FF170EF2EBCCFEF2CBACF9091240441
:1058500080912504981731F00E943C29552009F4C5
:1058600033CE02CF0E94DE28109227041092260425
:105870000E944907F3CF82E00E94431307CECF93E3
:10588000DF9300D000D00F92CDB7DEB790935803CE
:1058900080935703811520E2920748F40F900F90F0
:1058A0000F900F900F90DF91CF910C94D8188EEF3E
:1058B00089838A831B820E945B068160782F9D8387
:1058C0008C8349815A816B818D810F900F900F904D
:1058D0000F900F90DF91CF910C94E6290F931F93B7
:1058E000CF93DF938C01EB0160E772E08C2F0E9475
:1058F000C30F892BA1F48091590490915A040E94FE
:10590000E90DDD27C859DD4F8881F8011082188222
:10591000833009F148F4813059F0823081F0DF9111
:10592000CF911F910F9108958430D1F08530B9F750
:105930008091700290917102009789F306C0809166
:10594000720290917302009799F3DF91CF911F91AA
:105950000F910C943F2C8091740290917502F3CFBB
:105960008091760290917702009779F720917002EA
:10597000309171028091720290917302211531056C
:10598000D9F2009711F7C901E0CFCF93DF9300D090
:1059900000D00F92CDB7DEB7909358038093570392
:1059A000811520E2920748F40F900F900F900F900E
:1059B0000F90DF91CF910C94D21A8EEF89838A8356
:1059C00081E08B830E945B068160782F9D838C83AE
:1059D00049815A816B818D810F900F900F900F90AC
:1059E0000F90DF91CF910C94E629CF93DF93EC01D8
:1059F0000E94C52C8091590490915A040E94E90D8F
:105A0000CE01DF91CF910C943F2C0F931F93CF9336
:105A1000DF938C01862F60E772E00E94C30F892B11
:105A2000C9F4C0917002D0917102209799F0F801E9
:105A30008081833069F4CE010E94F52CCE010E9452
:105A4000F52CCE01DF91CF911F910F910C94F52C85
:105A50008430B8F7DF91CF911F910F9108950F9384
:105A60001F93CF93DF938C01EB0160E772E08C2FE3
:105A70000E94C30F892B09F064C0FE01FF27D801E3
:105A80008C91E859FD4F8130D9F419969C91199762
:105A9000992311F080830CC01A969C919923D1F31D
:105AA00082E0808380917202909173020097D9F412
:105AB0008091700290917102009709F442C013C066
:105AC0008230E9F519968C91199781112DC01A969B
:105AD0008C9181110EC083E080838091740290913B
