:100000000C9419040C9451040C9451040C94510454
:100010000C9451040C9451040C9451040C9451040C
:100020000C9451040C9451040C94622C0C941E2CCE
:100030000C945F2D0C9451040C9451040C945104B5
:100040000C9451040C9451040C9451040C945104DC
:100050000C9451040C943B2D0C9451040C945104B9
:100060000C9451040C9451040C9451040C945104BC
:100070000C9451040C9451040C9451040C945104AC
:100080000C9451040C9451040C9451040C9451049C
:100090000C9451040C9451040C9451040C9451048C
:1000A0000C9451040C9451040C9451040501090260
:1000B000A10185020901A100050919012905150001
:1000C00025019505750181029501750381010501E1
:1000D000093009311581257F950275088106093897
:1000E0001581257F950175088106050C0A380215D2
:1000F00081257F950175088106C0C005010980A191
:1001000001850319012AB700150126B7009501756D
:10011000108100C0050C0901A101850419012AA064
:1001200002150126A002950175108100C005010984
:1001300006A1018506050719E029E71500250195A7
:1001400008750181020507190029EF1500250195A1
:10015000F0750181020508190129059505750191C0
:1001600002950175039101C00660FF0961A10109B3
:1001700062150026FF0095207508810209631500AD
:1001800026FF00952075089102C005010906A1010E
:10019000050719E029E71500250195087501810279
:1001A0009501750881010507190029FF150026FF33
:1001B0000095067508810005081901290595057542
:1001C000019102950175039101C0FD377A585A00DB
:1001D0000004E6D6B4460200210116000000742F88
:1001E000E5A3E0051E01A05D003D8889C65436C325
:1001F000174FE4E0DA321BC0C2634948ADFD77E92E
:10020000204375FD8A5D1A36A1883DDB0A00FDDDBD
:1002100007B95549351EC24DBBA5C9F65060EA69FC
:10022000B2D045307DA91B76317CAB15ED65EBBEB8
:10023000EA03F789CD6D63216474430643B66E44C7
:10024000CE041DEAC6F8297B1A03BE1BEAE80E2A73
:1002500014B71AD5ACE41BC7C2E7B6A5A3DBE4917B
:10026000174F9D12EB2BC2CEA986B46539916F3A18
:10027000BEF87DB059E8BBB6F319A9C8C278775368
:100280008F364C8C8A93E6B5904EB20EEAD6BDC836
:100290001DEDF9A14140D49C2DDFCFFCEE6C44D381
:1002A000DB4145FE69A81682B2890487956E4A6CC7
:1002B0001B9EDDBCF138BB6AAD2B90861F9777552E
:1002C0008D8639A0E3D1CF3286D171F3CB56AB35D1
:1002D000B978271BCE73B7AACEC710E66FDFCBF86D
:1002E000CFB1BF50F84FC22799739624F4B0FD11D7
:1002F000EB5ADAB6D0092AC09F4B21CEA622EAD803
:10030000121D6227BD00B3D3658CA37B1D309CB545
:10031000275FEC425D1AA5622DA3B8A7B924E45E5D
:10032000F40C765A63F012546562452E3F9B27C148
:1003300029BCA7CC5C3C9FE241555563CC5762F089
:10034000D4C3848412046329BE57239F6DFAB73641
:10035000807616DB386CF1F1252E91036FF65BE3A6
:10036000E70EB588EF095CA595EA284B9BC2FA42D7
:10037000F2D8057080F05CB7FFF0ADCAEA526311A5
:10038000CCA0CCC200B1BC5900009F388C11E1A7B1
:1003900017F40001BC039F0A000027094901B1C4FA
:1003A00067FB020000000004595A29001E001F00CC
:1003B0002000210022002300240025002600270021
:1003C0002D002E0031002B0014001A00080015002B
:1003D00017001C0018000C00120013002F00300042
:1003E0002A00390004001600070009000A000B006B
:1003F0000D000E000F003300340028003500E1002E
:1004000000001D001B00060019000500110010006F
:10041000360037003800E5000041E000E300E2006C
:100420000000000000002C000000000000000000A0
:10043000E200E300E00029001E001F002000210070
:100440002200230024002500260027002D002E0076
:1004500031002B0014001A000800150017001C00C2
:1004600018000C00120013002F0030002A00390081
:1004700004001600070009000A000B000D000E0022
:100480000F003300340028003500E10000001D009B
:100490001B0006001900050011001000360037008F
:1004A0003800E5000041E000E300E2000000000049
:1004B00000002C000000000000000000E200E3004B
:1004C000E000010001000100010001000100010045
:1004D0000100010001000100010001000100010014
:1004E0000100010001000100010001000100010004
:1004F00001000100010001000100010001000100F4
:1005000001000100010001000100010001000100E3
:1005100001000100010001000000010001000100D4
:1005200001000100010001000100010001000100C3
:1005300001000100010001000000000000000100B6
:1005400000000000000000000100010001000100A7
:100550000100010001000100010001000100010093
:100560000100010001000100010001000100010083
:100570000100010001000100010001000100010073
:100580000100010001000100010001000100010063
:100590000100010001000100010001000100010053
:1005A0000100010000000100010001000100010044
:1005B0000100010001000100010001000100010033
:1005C0000100010000000000000001000000000028
:1005D000000000000100010001000100010008040A
:1005E000F90E2C0F0000020002000404F90E2C0F7B
:1005F0000000030001000904F90E2C0F00000400A4
:100600000200EE03F90E2C0FBD07050001000A04DD
:10061000F90E2C0F000006000200F003F90E2C0F5B
:100620000000070002000604F90E2C0F000008006D
:1006300001000B04F90E2C0F000009000200F20368
:10064000F90E2C0F98070A000200F403F90E2C0F84
:1006500098070B000200F603F90E2C0F98070C0008
:100660000200F803F90E2C0F98070D000200FA03A0
:10067000F90E2C0F98070E000200FC03F90E2C0F48
:1006800098070F000200FE03F90E2C0F98071000C8
:1006900002000004F90E2C0F98071100020002045A
:1006A000F90E2C0F9807120002000C04F90E2C0F03
:1006B0000000130002000E04F90E2C0F00001400BD
:1006C00001001004F90E2C0F0000150000000000BE
:1006D0001E078D16000009025B00030100A0FA0945
:1006E0000400000103010100092111010001224061
:1006F000000705810308000109040100020300004E
:1007000000092111010001222200070582032000B7
:100710000107050303200001090402000103000092
:100720000009211101000122BC00070584032000FB
:100730000112010002000000084C4A75410100014D
:100740000203011C037600690061006C003A006638
:1007500000360034006300320062003300630000A2
:10076000000C034100750067007500720000000C6A
:10077000034A004C0061006200730000000403099A
:100780000400000000000000000000000000000065
:100790000000000000000000000000000000000059
:1007A00000000000007E0F00D4FFFFFFC700000024
:1007B0007800000000000000002A2B280000000044
:1007C0000000000000000000000000002900000000
:1007D000002C1E3420212224342627252E362D37A6
:1007E00038271E1F202122232425263333362E3777
:1007F000381F0405060708090A0B0C0D0E0F10110F
:1008000012131415161718191A1B1C1D2F3130231B
:100810002D350405060708090A0B0C0D0E0F1011E3
:1008200012131415161718191A1B1C1D2F313035E9
:100830004C0011241FBECFEFDAE0DEBFCDBF04B6FF
:1008400003FE18C08091170590911805A091190515
:10085000B0911A058730904BA740B04B59F41092D5
:100860001705109218051092190510921A05E0E06C
:10087000F8E3099511E0A0E0B1E0E2EBFCE602C08C
:1008800005900D92A637B107D9F725E0A6E7B1E0AC
:1008900001C01D92A731B207E1F70E94862D0C948A
:1008A0002C360C940000E8EDF0E080818E7F808390
:1008B0001092E2001092DA001092E100A0EEB0E097
:1008C0008C9181608C9380818F77808319BCA7ED98
:1008D000B0E08C918E7F8C9380818F7E808310928C
:1008E000E60408952091E4003091E50095E6A90121
:1008F0002091EC00822F817020FF06C08091E800DB
:1009000080FF06C080E008952091E80022FD1AC013
:1009100080911405882389F0853089F08091EB005F
:1009200085FD0FC02091E4003091E5004217530788
:10093000F9F29150E1F684E0089582E0089583E0B1
:10094000089581E00895EF92FF920F931F93CF9344
:100950007C018B010E947204C82F811117C0809105
:10096000E80085FD0BC08091E8008E778093E80059
:100970000E947204882399F3C82F08C0F70181915F
:100980007F018093F1000150110949F78C2FCF911D
:100990001F910F91FF90EF900895CF93FC018091EC
:1009A0001405843001F5C091E900CF702091EC006E
:1009B000922F917020FD90E8C92B82E08093E9008E
:1009C0008091E80080FF0CC050E040E060E270E001
:1009D000CF010E94A3048091E8008E778093E80005
:1009E000CF70C093E900CF91089580910C0587FFE7
:1009F00013C08091E80082FF06C08091E8008B77E9
:100A00008093E80004C0809114058111F2CF08950D
:100A1000809114058823D9F38091E80080FFF8CFF6
:100A20008091E8008E77ECCF982F9093E900242FE7
:100A3000762F50E0891731F07091EC002091ED0095
:100A40005091F00021FD07C09F5F973071F78093B0
:100A5000E90081E008953091EB003E7F3093EB0098
:100A60003091ED003D7F3093ED003091EB0031602F
:100A70003093EB007093EC002093ED005093F00066
:100A80002091EE0027FDE0CF80E00895B0E0A0E0E7
:100A9000ECE4F5E00C947F35C8EDD0E088818F7EE2
:100AA0008883E7EDF0E080818160808384E082BF0D
:100AB00081E08093E60488818E7F888302EE10E0D7
:100AC000F80110821092DA0081EEC82ED12CF601C6
:100AD000108288818F778883888180688883888165
:100AE0008F7D888319BC1092140510920B0510920B
:100AF0000A051092090590EEE92EF12CF70180818C
:100B00008B7F808388818160888342E060E080E021
:100B10000E941405F60180818E7F8083F801808118
:100B200081608083808188608083F70180818E7FEF
:100B30008083888180618883CDB7DEB7E8E00C943C
:100B40009B35FC018091120590911305861797073C
:100B5000A0F06115710529F49091E8009E779093BB
:100B6000E80090E06115710551F4911108C0809181
:100B7000E80082FF34C080E00895BC01F2CF80918C
:100B800014058823C1F18530C1F18091E80083FD0F
:100B900030C08091E80082FDEACF8091E80080FFBC
:100BA000E1CF8091F3002091F200382F611571059B
:100BB00019F02830310558F091E02830310509F05E
:100BC00090E02091E8002E772093E800CBCF819130
:100BD0008093F100615071092F5F3F4FE7CF809103
:100BE0001405882341F0853041F08091E80083FFAF
:100BF000BECF81E0089582E0089583E008950895CE
:100C00008091E80408959C014FB7F8948091DD0429
:100C10009091DE04A091DF04B091E0044FBF821BED
:100C2000930B08952FB7F8946091DD047091DE0462
:100C30008091DF049091E0042FBF08952FB7F894BE
:100C40008091DD049091DE04A091DF04B091E00476
:100C50002FBF08952091DA043091DB04281739075B
:100C600071F09093DB048093DA04E091D804F09162
:100C7000D904309721F00084F185E02D099508957D
:100C80002091D6043091D7042817390771F090933A
:100C9000D7048093D604E091D804F091D90430971A
:100CA00021F00680F781E02D09950895E091D804A0
:100CB000F091D904309729F00190F081E02D099549
:100CC000089580E00895CF93DF93EC014091C6042E
:100CD0005091C7046091C8047091C9042FB7F8946B
:100CE0008091DD049091DE04A091DF04B091E004D6
:100CF0002FBF841B950BA60BB70B843F9140A1051A
:100D0000B10518F58091C6049091C704A091C8045C
:100D1000B091C9048093C2049093C304A093C40407
:100D2000B093C50484EF91E0A0E0B0E08093BE04EE
:100D30009093BF04A093C004B093C104D093CE0499
:100D4000C093CD04DF91CF9108950E941206609365
:100D5000C2047093C3048093C4049093C50482E3D7
:100D600090E0A0E0B0E0E2CFFC018481862351F462
:100D700092819923B9F06923808583FF05C081E0C2
:100D800061110FC080E00895892F8F7092959F7038
:100D9000982B862F8F7062956F70682B81E0961369
:100DA000F1CF089581E0FDCF452B39F0682381E034
:100DB0006F3F09F080E08170089581E0FCCFDC0195
:100DC0006091BA048091BB04962F891301C00895E5
:100DD000292F30E0F901EE0FFF1FEE54FB4F408149
:100DE00051814A175B07A1F487E08A9FA0018B9F7E
:100DF000500D112446585B4F81E0FA01848396130D
:100E0000E6CF2F5F3F4F237033272093BA04089516
:100E10002F5F3F4F922F9370D8CF109217041092EC
:100E20001604EAE7F4E08581811102C0148216827B
:100E3000379684E0E23BF807B1F70895B0E0A0E010
:100E4000E4E2F7E00C947D358FEF9FEF44305105DD
:100E500008F469C04091E10441FB882780F990E0E3
:100E6000880F991F42FB002700F910E0000F111FA7
:100E7000000F111F802B912B40FBCC24C0F8D12CEC
:100E80008C299D2943FB222720F9C22FE0E0DE2F89
:100E900053E0CC0FDD1F5A95E1F78C2B9D2B44FBC3
:100EA000AA27A0F9B0E0E4E0AA0FBB1FEA95E1F79A
:100EB0008A2B9B2B45FBEE27E0F9F0E0A5E0EE0F37
:100EC000FF1FAA95E1F78E2B9F2B46FB222720F9C7
:100ED00030E0B6E0220F331FBA95E1F7822B932B57
:100EE00047FB222720F930E03695322F222737950D
:100EF0002795822B932B2091E204322F3170F32E11
:100F0000E82EF92A26952170B22EBB0CA82EBF28F8
:100F1000C501BB0CAA0BBB0BFB0180839183A28391
:100F2000B38390E080E0CDB7DEB7EAE00C9499356A
:100F3000EEEEF3E0848195812AE030E0B9010E9471
:100F400040356093140186818093130182858093DC
:100F5000120184858093110186859785B9010E94CD
:100F6000403560931001808980930F0182898093BE
:100F70000E01848980930D0108958091EE03909174
:100F8000EF0390931601809315010895ECE7F2E0CA
:100F900090E080E063E87BE24AEA5BE228EF3AE235
:100FA0007783668351874087338722879587848735
:100FB00001963E968830910599F7089581152CE5A4
:100FC000920741F42091C7033091C803232B11F4F9
:100FD00090E080E008950E941E069C0190916602B8
:100FE00080916702982B21F0309363022093620274
:100FF0009091680280916902982B21F030936102F0
:1010000020936002E091D804F091D904309749F020
:1010100082E0809364020480F581E02D84E692E012
:101020000995089590916602803F59F48091670276
:1010300087FF0DC01092670291110BC010925E02E3
:1010400008C0813F81F48091670218169CF39923B0
:1010500081F08091680290916902892B09F064C047
:1010600010925D020895823F49F497FFF0CF1092ED
:101070006602809167028111ECCFE0CF833F19F4C3
:101080001916ACF3E4CF20916802893F29F41216B7
:10109000F4F610926802DBCF8A3F19F427FFD7CF0E
:1010A000F8CF209169028B3F29F427FFD0CF10920F
:1010B0006902CDCF8C3F19F41216CCF3C8CF843F10
:1010C00031F4809165028E7F80936502C0CF853FA9
:1010D00021F4809165028D7FF7CF863F21F48091C6
:1010E00065028B7FF1CF873F21F480916502877F76
:1010F000EBCF883F21F4809165028F7EE5CF8D3F55
:1011000031F480915F028E7F80935F02A0CF8E3F8B
:1011100021F480915F028D7FF7CF8F3F09F097CF49
:1011200080915F028B7FF0CF089580915F0280FFF6
:101130000CC060910E0170E0759567957595679587
:101140006115710549F1862F089581FF06C06091F0
:101150000E0170E075956795F3CF60910E0182FDE9
:101160000BC090915D029923A1F060910D018091D7
:101170000E01961738F0682F70E06038710500F3A3
:101180008FE70895899FC001112470E00E945435B3
:10119000F4CF61E070E0D7CF81E0089580915F02E5
:1011A0006091F6037091F70380FF16C02091120141
:1011B000269FC001279F900D1124BC01769567954D
:1011C000769567956038710508F043C06115710523
:1011D00009F441C0862F089581FF0BC020911201B0
:1011E000269FC001279F900D1124BC01769567951D
:1011F000E9CF82FF09C0809112019B01829FB0015B
:10120000839F700D1124DECF20915E022223D1F244
:101210009091110180911201482F50E0291748F058
:10122000CB01849FB001859F700D949F700D112498
:10123000C9CF289F90011124269FA001279F500D00
:10124000369F500D1124692F70E0CA010E9440356D
:10125000B9CF8FE7089581E00895803F31F40E946F
:10126000CE088195809367020895813F19F40E940A
:10127000CE08F8CF823F31F40E94CE08819580934A
:1012800066020895833F19F40E94CE08F8CF893F83
:1012900029F40E9495088093680208958A3F21F4FA
:1012A0000E9495088195F7CF8B3F31F40E949508F5
:1012B00081958093690208958C3F19F40E949508E6
:1012C000F8CF843F31F4809165028160809365029C
:1012D0000895853F21F4809165028260F7CF863FB3
:1012E00021F4809165028460F1CF873F21F48091E1
:1012F00065028860EBCF883F21F4809165028061B0
:10130000E5CF8D3F31F480915F02816080935F0271
:1013100008958E3F21F480915F028260F7CF8F3F66
:10132000B9F780915F028460F1CF80E00895F8946E
:10133000E82FE295EF70F0E031A1282F2F7081E0C7
:1013400090E001C0880F2A95EAF7982F9095932393
:1013500091A392A1892B82A3789408959091E1049E
:1013600092FF06C0282F28712830F9F4877F846007
:1013700093FF06C0282F28712831F1F4877E8461FD
:101380002091E20420FF06C0382F38713830D9F49C
:10139000877F816021FF06C0282F28712831D1F472
:1013A000877E816194FD877E0895282F24712430E3
:1013B000F9F68B7F8860DCCF282F2471243101F768
:1013C0008B7E8861DDCF382F3171313019F78E7FF8
:1013D0008860E0CF282F2171213121F78E7E88612E
:1013E000E1CFCF93DF93EC0182389105B1F108F0A2
:1013F00040C08133910509F49DC048F589329105BB
:1014000009F48DC08A9709F49CC0C11521E5D20763
:1014100008F0C3C0C11530E5D30708F01EC1C83EAF
:10142000D10508F0A3C0C03ED10588F5C83AD10562
:1014300008F08EC0C53AD10508F007C1C130D1050A
:1014400031F1209721F1C430D10508F545C085332D
:10145000910509F45FC0C997C1F68091E1048370DA
:1014600009F044C18091E20483FF11C0C9E2D0E0D9
:101470000EC0833E910599F170F4803E910501F113
:10148000823E910511F68091E10482FD21C0CE01DA
:10149000DF91CF910895863E910561F1873E9105D8
:1014A00071F1843E910509F0B0CF8091E20481FF93
:1014B000EECF8091E104C7EED0E084FD0DC0E7CF10
:1014C0008091E10480FD33C09091E20490FFDFCF72
:1014D000C3EED0E084FFDBCFD0E0C0E0D8CF809176
:1014E000E10482FD00C19091E20490FDFFC084FF01
:1014F000CECFF2CF8091E10483FDDDCFC8CF8091C4
:10150000E10483FDF6C09091E20491FFF0CFC4EEB8
:10151000D0E0BDCF8091E10485FFB9CFA7CF809106
:10152000E10485FDE9C08091E20483FFB0CFC9E307
:10153000D0E0ADCF8091E10486FFA9CFCAE2D0E030
:10154000A6CF8091E10486FFA2CFC1E3D0E09FCF78
:10155000CF3BD10508F6C85AD0E0CC0FDD1FCB5DDC
:10156000DE4F0990D881C02DD46491CFC11540E2DF
:10157000D40758F4C11581E0D80708F088CFC03FE0
:10158000D10508F4A9CFD06582CFC11520E4D207D8
:1015900008F4A2CFDF70D06A7ACFC11535E5D30742
:1015A00018F5C11544E5D40708F085C0C11583E5D9
:1015B000D80708F06CC0C11522E5D20708F462C054
:1015C000CE018370992721E030E002C0220F331F43
:1015D0008A95E2F7C695C69580E2C89FE00111247E
:1015E000C22BD32BDC6853CFC11539E5D307A8F440
:1015F000C11548E5D40708F063C0C11586E5D807D2
:1016000008F06ACF8C2F0E94AE09C82FD0E0DC2FE3
:10161000CC27CC27DF71D0623ACFC1152AE5D2079B
:1016200008F453C0CE0190568115904208F054CF73
:101630008D2F8F710E94AE0990E0982F8827882700
:101640009F719C012C2BE901E6CFC55AD0E0CE5DFD
:10165000DE4FC881D0E0D0641ACF2C2F2695269576
:10166000237040E2249F900111248C2F8370C1E0ED
:10167000D0E002C0CC0FDD1F8A95E2F7C22BD32B3E
:10168000DD6805CFDC2FCC27C16FD06A00CFCE013B
:101690008370992721E030E002C0220F331F8A9522
:1016A000E2F7C695C69540E2C49FE0011124C22B23
:1016B000D32BDA68ECCEDC2FCC27C46FD06AE7CE10
:1016C000DC2FCC27C06FD06AE2CE8C2F8F700E94A7
:1016D000AE0934E0D695C7953A95E1F7CF709C2FC7
:1016E000EC01D069D4CEC2EED0E0D1CEC0EED0E0D5
:1016F000CECEC6EED0E0CBCEC5E3D0E0C8CE809152
:101700002802882331F010922802109227021092AA
:1017100026020895CF93C82F8091E20482FF0CC067
:10172000809128028C1741F00E941E069093270298
:1017300080932602C0932802CF91089580959091BE
:101740001605982390931605089580959091CD03E2
:1017500098239093CD0308959091CD03892B809386
:10176000CD03089510920502109204021092030214
:1017700008958091F0039091F103892B89F00E94E4
:101780001E062091260230912702AC01421B530B0A
:1017900081E02091F0033091F1034217530708F4E0
:1017A00080E081700895909119019923D1F0909172
:1017B000E10497FF16C0E82FE695E695E695EE3131
:1017C000E0F4F0E0E858FE4F282F277081E090E029
:1017D00001C0880F2A95EAF7809592818923828338
:1017E0000895EAE7F1E09191891303C0DF011197B1
:1017F0001C9291E0E038F907B1F708959091190132
:101800009923C1F09091E10497FF14C0E82FE69569
:10181000E695E695EE31F8F4F0E0E858FE4F877073
:1018200021E030E001C0220F8A95EAF78281822B05
:1018300082830895AAE7B1E0EFEF90E02D9182173F
:1018400051F0EF3F19F4211101C0E92F9F5F96304D
:10185000A9F7EF3F09F408950E2E000CFF0BE8588E
:10186000FE4FE6CF209102029091C101291302C0E0
:1018700080E0089530E0F90153E0EE0FFF1F5A9524
:10188000E1F7EE53FE4F5181561306C050815813B5
:1018900003C05281541304C02F5F3F4F2770E6CF1F
:1018A00081E00895809102029091C101981301C0D6
:1018B00008958F5F8770FACF292F953078F58E3095
:1018C00068F590E03EE0239F800D911D1124682F64
:1018D000677023E0969587952A95E1F7FC01EE0F56
:1018E000FF1FE80FF91FE256FE4F50E040E080E096
:1018F000219130E0062E02C0369527950A94E2F732
:1019000021703327042E01C0220F0A94EAF7822B9C
:101910004F5F5F4F4330510559F7089580E00895B8
:10192000292F953098F58E3088F590E03EE0239F82
:10193000800D911D1124282F277041E001C0440F14
:101940002A95EAF723E0969587952A95E1F7FC0119
:10195000EE0FFF1FE80FF91FE256FE4F30E020E0C8
:1019600070E05191DF011197CB01022E02C09695D4
:1019700087950A94E2F781708195852784238527CE
:101980008C932F5F3F4F2330310559F7089592957F
:101990009F70963091F058F4925F9F70923058F497
:1019A000803F19F030F4883E30F481E008959A5F6A
:1019B000F4CF843FD1F380E00895883EB0F3813FB7
:1019C000D1F7F3CF9C013A9521153F4150F5FC0129
:1019D000EE27F170BC0166277270AC014427547089
:1019E0009C012227387094FF0EC080E1EF2B09F490
:1019F00080E0672B09F08062452B09F08064232B7F
:101A000089F08068089581E0EF2B09F480E0672B6E
:101A100009F08260452B09F08460232B19F088605F
:101A2000089580E008958093E3047093E504609343
:101A3000E404809114058430F9F48093E9008FEF79
:101A40009091E800815095FD06C095ED9A95F1F7CB
:101A500000008111F5CF8091E80085FF0DC050E0B6
:101A600040E063E070E083EE94E00E94A304809184
:101A7000E8008E778093E8000895BC0184E00E941E
:101A8000130D0895BC0183E00E94130D08959C017D
:101A900084E08093E9009FEF8091E800915085FDFC
:101AA00006C085ED8A95F1F700009111F5CF809180
:101AB000E80085FF0CC050E040E066E070E0C9013E
:101AC0000E94A3048091E8008E778093E800089537
:101AD000CF93DF93EC01809119018823B1F18091BC
:101AE000E10487FF32C060E284E08093E9008FEF79
:101AF0009091E800815095FD06C095ED9A95F1F71B
:101B000000008111F5CF8091E80085FF1BC0809116
:101B1000190170E050E040E0811104C050E040E065
:101B200068E070E0CE010E94A3048091E8008E7707
:101B30008093E80080E2FE01A9EEB4E001900D92EE
:101B40008A95E1F7DF91CF91089568E081E0CDCFEC
:101B500081E08093E00080E28093D8001092C90079
:101B60008FE19EE40197F1F700C0000087E090EB61
:101B7000DC018093170590931805A0931905B09385
:101B80001A0588E19CE00FB6F894A8958093600050
:101B90000FBE90936000FFCF019708F40895EFE91E
:101BA000FFE03197F1F700C00000F6CF0F931F93CD
:101BB000CF93DF930EEE13E0C7E5D2E0CE010E9493
:101BC000E235F80181938F012196CB37F2E0DF07F0
:101BD000A9F7C4EED5E0FE0185919491009711F02C
:101BE000FC0109952C96F6E0C03EDF07A1F7DF91D6
:101BF000CF911F910F9108950F931F93CF93DF9370
:101C0000843030F5653020F54E3010F5C42FD0E02B
:101C1000CC0FDD1F2CE1629FC00DD11D11243CE8CB
:101C2000839FC00DD11D1124CE0187960E94E235FD
:101C3000082F10E0102F0027CE0188960E94E23571
:101C40009801282BC901DF91CF911F910F91089521
:101C500090E080E0F8CF462F2091CB033091CC0369
:101C6000232B99F4703F39F4603F79F48091C903D4
:101C70009091CA030895843040F4753030F46E308A
:101C800020F4672F0E94FC0D089590E080E00895F5
:101C9000CF92DF92FF920F931F93CF93DF936C014C
:101CA0000091150580912902082BC7E0D0E010E0D3
:101CB000FC2EC8010C2E02C0959587950A94E2F778
:101CC00080FD0CC02197A0F7F12C8F2DDF91CF91D3
:101CD0001F910F91FF90DF90CF900895B6018C2F48
:101CE0000E942B0E0E94F109019761F3EECFCF9372
:101CF000DF93EC010E94480EBE010E942B0E0E9451
:101D0000F109DF91CF910895CF93DF93EC014B81DF
:101D10005C81698188810E94D406811110C08E8106
:101D20009F81009739F00E94F1090E94C70CDF9152
:101D3000CF910895888199810E94770EF6CF80E037
:101D4000F6CFA5E0B0E0E7EAFEE00C9484354983E5
:101D50005A8389819A81662399F0222389F00E940F
:101D6000480E182F682F89819A810E94900C6981F2
:101D70007A81812F0E942B0E2596E3E00C94A035EA
:101D80000E945C0C182FF3CFFC01262F86819781CF
:101D9000009739F4408151816281738184810E946E
:101DA000A10E089583E290E00E94E235893489F41F
:101DB00084E290E00E94E2358A3F59F485E290E0A7
:101DC0000E94E23591E08C3609F090E0892F817015
:101DD000089580E0FCCFCF9384E090E00E94E2354C
:101DE000C82F82E290E00E94E235982F8C2FCF918D
:101DF0000895DB01FC013296259134914217530777
:101E000058F0FC01349665917491A901CD010E94AE
:101E1000C23590E080E008958FEF9FEF08950F9313
:101E20001F93CF93DF930EEE13E0C7E5D2E0CE0110
:101E30000E94E235F80161918F01681719F0CE0117
:101E40000E94F0352196CB37F2E0DF0781F7DF9172
:101E5000CF911F910F910895DA019C012E5F3F4FA2
:101E6000F90145915491F90125913491A217B307D5
:101E700058F0FC013496859194910E94C2350E94DD
:101E80000F0F90E080E008958FEF9FEF0895CF93BC
:101E9000DF93CBE6D3E060E0CE010E94F0352196DF
:101EA000C11584E0D807B9F7DF91CF9108951F934A
:101EB000CF93DF93122F8430E0F46530D0F44E30AE
:101EC000C0F4C42FD0E0CC0FDD1F9CE1699FC00D92
:101ED000D11D11249CE8899FC00DD11D1124632FB1
:101EE000CE0187960E94F035612FCE0188960E9420
:101EF000F035DF91CF911F910895CF93C82F6FEFE9
:101F0000811169E483E290E00E94F0356FEFC11126
:101F10006AEF84E290E00E94F0356FEFC1116CE649
:101F200085E290E00E94F035CF910895CF93C92FBC
:101F3000682F84E090E00E94F0356C2F82E290E000
:101F40000E94F035CF9108959B01883070F49AE09B
:101F5000899FB001112465587D4F4AE050E0C901C6
:101F60000E94D23590E080E008958FEF9FEF0895B2
:101F7000AAE0B0E0EEEBFFE00C9485359C0137550C
:101F80002F3F310509F068F4BE016F5F7F4F0E945B
:101F9000A40F892B31F489859A852A96E2E00C9466
:101FA000A1358091060490910704F7CFAAE0B0E034
:101FB000ECEDFFE00C947B350FE413E08DE3C82ECD
:101FC00083E0D82E9BE1E92E93E0F92E27E0922EB4
:101FD0003CE3A32E33E0B32E88248394D6010D93E3
:101FE0001D936D014AE050E0B701CE0101960E94B9
:101FF000D235F8013896DF01892D1D928A95E9F7CF
:1020000089819A81D80111969C938E938F81129623
:102010008C9312978D8113968C93139788851496C1
:102020008C931497898515968C9315978B819C8139
:1020300017969C938E93169718961C9218978A85DC
:1020400087FF3CC01E961C921E921D9780FF03C006
:10205000D80118968C9281FF04C0F8019085926097
:10206000908782FF07C0D80118969C9118979460BA
:1020700018969C9383FF04C0F80190859860908720
:1020800084FF07C0D80118969C9118979061189604
:102090009C9385FF04C0F801808580628087015F82
:1020A0001F4FFAE0EF0EF11C8BE6E81683E0F8060E
:1020B00009F094CF2A96ECE00C949735F801B68697
:1020C000A586C4CFAAE0B0E0E8E6F0E10C947F3545
:1020D000ECEEF2E080E5DF011D928A95E9F7EAE790
:1020E000F4E088E3DF011D928A95E9F78CEEC82EB3
:1020F00082E0D82E7F010BEC12E0F701D182C08282
:102100004AE050E0B801CE0101960E94D23588E045
:10211000FE013196D60101900D928A95E1F78985ED
:102120009A85D70113969C938E931297BAE0CB0EA3
:10213000D11CE7E0EE0EF11C065F1F4F0B31F3E000
:102140001F07D9F62A96E8E00C949B35AAE0B0E088
:10215000ECEAF0E10C9477358E010F5F1F4F8AE0B7
:10216000F80111928A95E9F793E5E92E91E0F92EAD
:10217000680128E5422E21E0522E66246394712CDA
:1021800046E6842E41E0942EF70181917F018F3F36
:1021900009F445C0F894E82FE295EF70F0E021A132
:1021A0008F70A30102C0440F551F8A95E2F7CA0140
:1021B000922F982B91A392A18095892382A3789442
:1021C00000C0E8E5F1E021E030E0B12CA12C419124
:1021D0004F3F09F464C0A42FA295AF70B0E0909671
:1021E0008C9190E04F7002C0959587954A95E2F7E3
:1021F00080FD55C0C901A82AB92A220F331F8E16A7
:102200009F0629F7F701319780818F3F11F00E94D7
:10221000970950EA5A95F1F7F601B182A082F2E0EF
:10222000CF0ED11C4E145F0409F0AECF4AE050E04F
:10223000B8018DE292E00E94B535892B99F18AE0D0
:10224000F801ADE2B2E001900D928A95E1F781E0EC
:1022500080932C020E941E0690932B0280932A02E8
:1022600080912A0290912B020E9403060597F0F0BC
:102270004AE050E06DE272E083E592E00E94B535FD
:10228000892BC9F08AE0EDE2F2E0A3E5B2E001902B
:102290000D928A95E1F781E010922C0208C090E03F
:1022A00080E0A9CF80912C028111DACF80E02A96BC
:1022B000E0E10C94933580E0EFCFCF938091CD0394
:1022C00090911605892B80937801809128028823AC
:1022D00029F18091F0039091F103892B29F00E945C
:1022E000B90B81110E947F0B809178019091280297
:1022F000892B8093780180911901882309F447C0C4
:102300008091E10487FF43C08EE1EAE7F1E090E0CD
:10231000815008F03EC091110E947F0BC091CA0409
:10232000C09580917801C8238091CB04C82BC093BD
:10233000780140E250E066E072E088E791E00E94B8
:10234000B535892B11F180E2E8E7F1E0A6E0B2E0D3
:1023500001900D928A95E1F7E091D804F091D904AB
:10236000309799F080911901882349F08091E10418
:1023700087FF05C0C093790186E0809378010280D1
:10238000F381E02D88E791E00995CF91089586E0EB
:10239000BCCF2191222309F4BBCF9F5FB9CFCF934C
:1023A000DF93EC01EA85FB85309719F06C857D851C
:1023B00009958B810E949E0B8C810E94A50B0E9427
:1023C0005D1186E0FE0111928A95E9F7DF91CF91C8
:1023D0000895CF93DF93EC018D8181FD15C082605C
:1023E0008D83809116059B81892B809316058C81A6
:1023F0000E94AC0B0E945D11E885F985309721F0B1
:102400006C857D85CE0109951092D5041092D40477
:102410008D8180FD03C0CE010E94CF11DF91CF914D
:10242000089580911701877F8093170182E00E94B1
:102430009E0B8091170184FF06C08F7E8093170149
:1024400082E00E94AC0B8091170185FF06C08F7D52
:102450008093170180E20E94AC0B0E945D110895E9
:1024600090E080E00E94400690E080E00E942A0612
:10247000109216050E945D1186E0E4E6F2E0DF01AD
:102480001D928A95E9F710925E0210925D021092F9
:102490005F020E94EB070895809315050E94301299
:1024A000089580911505982F9670963021F48860D4
:1024B0000E944C120895877FFBCF21E030E001C0DD
:1024C000220F8A95EAF720958091150582230E94B4
:1024D0004C120895909105028095892380930502FE
:1024E000282F277091F4282F082E000C330B9217F9
:1024F000130659F09091E20492FF07C085958595E7
:1025000085950E945D120E94B20B08959091E2049D
:1025100092FB222720F9281769F080FB92F990930B
:10252000E2048091E1049091E2040E94960F82E01F
:102530000E946A12089521E030E001C0220F8A95BE
:10254000EAF780911505822B0E944C120895909114
:10255000E20492FF10C098E0899F90011124622B41
:10256000609305020E949B120E941E069093040233
:102570008093030208950E949B120895809329027C
:102580000E94301208951092CD0380911901EAE75C
:10259000F1E0882361F08091E10487FF08C08EE1BB
:1025A000DF011D928A95E9F70E943012089586E0B6
:1025B000F7CFAAE2B0E0EFEDF2E10C9484358CE0C5
:1025C00095E02091F100DC012D93CD01B5E084313F
:1025D0009B07B9F780910D05833009F472C0B8F4F8
:1025E000813009F449C0823009F4B3C08091E80019
:1025F00083FF96C280910C0590910D059A3008F0EA
:102600008FC2E92FF0E0E25DF94C0C9468358A3016
:1026100009F48EC08B3009F471C0893039F780918C
:102620000C05813219F780911005909111050097E2
:1026300011F00297D9F68091E800877F8093E80037
:102640008091E80082FF38C09091F3008091F20001
:10265000029731F48091F100813011F0863021F43D
:102660008091F1008093E8048091E8008B7780935B
:10267000E8000E94F504BACF80910C05813A09F078
:10268000B5CF8091E800877F8093E80080911005A6
:1026900090911105892B61F460E289EE94E070E07D
:1026A0000E94A1058091E8008B778093E8009ECF7F
:1026B00060E090E080E0F3CF809114058111C0CFFD
:1026C00095CF80910C05813A09F090CF809110054B
:1026D00090911105892B09F089CF8091E800877FBF
:1026E0008093E8008091E80080FFFCCF8091190181
:1026F0008093F1008091E8008E77B9CF80910C052E
:10270000813209F073CF8091100590911105892BCA
:1027100009F06CCF8091E800877F8093E8000E94E9
:10272000F50480910E05809319010E94C3125ECFBB
:1027300080910C05813209F059CF8091E800877FA4
:102740008093E8000E94F50480910F058093E704D0
:102750004DCF80910C05813A09F048CF8091E80077
:10276000877F8093E8008091E80080FFFCCF809114
:10277000E704BECF803899F0823809F0D1C180914A
:1027800010058F70873008F0CBC18093E9008091ED
:10279000EB0085FB882780F91092E90006C0809144
:1027A000090590910A05911182609091E800977F48
:1027B0009093E8008093F1001092F1008091E8007E
:1027C0008E77AAC1882309F498C1823009F0A8C184
:1027D00080910E0581119BC1809110058F702FEFA4
:1027E000280F263008F09CC18093E9002091EB006F
:1027F00020FF8DC1933031F48091EB008062809393
:10280000EB0085C19091EB0090619093EB0021E08B
:1028100030E001C0220F8A95EAF72093EA00109277
:10282000EA008091EB008860EACF811179C11091B4
:102830000E051F778091E3008078812B8093E30061
:102840008091E800877F8093E8000E94F5048091E2
:10285000E80080FFFCCF8091E30080688093E30074
:1028600082E0111183E0809314055AC180588230B0
:1028700008F056C120910E0530910F052C3DE3E084
:102880003E07A1F583E08A838AE289834FB7F894F3
:10289000DE01139620E03EE051E2E32FF0E050939A
:1028A0005700E49120FF03C0E295EF703F5FEF70A7
:1028B0008E2F90E0EA30C0F0C7968D939D932F5FE6
:1028C000243159F74FBF8091E800877F8093E8005B
:1028D0006AE270E0CE0101960E94A1058091E800B5
:1028E0008B778093E8001CC1C096E7CF80911005DC
:1028F00090911105432F55274330510509F44AC0E3
:1029000078F54130510509F485C08BE590E0E6ED9E
:10291000F6E04230510509F003C12091E800277F1D
:102920002093E80020911205309113058217930738
:1029300008F49C0140E02115310509F070C04111F7
:102940006EC08091E80082FDC9CF80911405882374
:1029500029F2853019F28091E80083FFF2CFBECFD3
:102960004132510509F447C04232510509F0D8C03F
:102970008330910508F0D4C0FC01EE0FFF1FE7592A
:10298000FE4F0190F081E02D8A599E4FDC018C9121
:1029900090E01DC0332721303105E9F021153105C4
:1029A00079F022303105F9F02330310509F0B8C053
:1029B000E3E4F7E0E4918E2F90E0E3E4F7E007C072
:1029C000EDE7F7E0E4918E2F90E0EDE7F7E0009778
:1029D00009F4A6C0A2CFEFE6F7E0E4918E2F90E0D5
:1029E000EFE6F7E0F4CFE1E6F7E0E4918E2F90E038
:1029F000E1E6F7E0ECCF8330910508F091C0880F55
:102A0000991FFC01E159FE4F0190F081E02D89E012
:102A100090E083CF82E190E0E1E3F7E07ECF809128
:102A20001405882309F45ACF853009F457CF8091D3
:102A3000E80083FD53CF8091E80082FD82CF809132
:102A4000E80080FF78CF9091F3008091F20021158B
:102A5000310519F08830910550F041E0089709F0F0
:102A600040E08091E8008E778093E80064CF449145
:102A70004093F1003196215031090196E8CF80381A
:102A800009F04EC08091E800877F8093E800809134
:102A90000B058093F10092CE811142C010910E057A
:102AA0001230F0F58091E800877F8093E800109362
:102AB0000B050E94F504112311F084E005C08091FC
:102AC000E30087FDFACF81E08093140542E061ECDA
:102AD00081E00E94140542E261EC84E00E9414054A
:102AE00042E261EC82E00E94140542E260EC83E085
:102AF0000E9414058091140513C080910E05813049
:102B000079F481E0933009F080E080930A05109217
:102B1000E9008091E800877F8093E8000E94F50437
:102B20008091E80083FF0AC08091E800877F80934E
:102B3000E8008091EB0080628093EB00AA96E3E0CE
:102B40000C94A035EEEEF3E0128E138E8FEA90E037
:102B50009183808325E0248F88E893E193838283A7
:102B60008AE090E09583848344E150E05783468374
:102B700048E050E051874087938782876EE170E09C
:102B8000758764879787868780E590E0918B808B37
:102B9000538B428B48E250E0558B448B42E350E02C
:102BA000578B468B48EC50E0518F408F158E178E17
:102BB000168E91A380A322A30E940F0F0E94C3121E
:102BC0001092E2041092E104E2EEF4E0808184606D
:102BD00080838091E1049091E2040E94960F0E940C
:102BE000D60D0895AEE1B0E0E8EFF5E10C947A354A
:102BF000A090C703B090C80381E090E09093C80311
:102C00008093C7038AEAC82E83E0D82E00E07601BD
:102C100010E015C0F40125913491472D612F802FCC
:102C20000E94570F82E0880E911C7394EEE07E1292
:102C3000F1CFFCE1EF0EF11C1F5F153019F04701D9
:102C4000712CE8CF0F5F8CE8C80ED11C0430F9F668
:102C50000E94A2151A8219821C821B821E821D826A
:102C600018861F8288EC90E09A8789870BE712E02C
:102C70004AE050E0B801CE0101960E941436065F8A
:102C80001F4F0B3CE2E01E0799F77E01FBE0EF0EC1
:102C9000F11C8AE0F70111928A95E9F74AE050E0C9
:102CA000B801C7010E941436065F1F4F0B31F3E0D5
:102CB0001F07A1F77E0185E1E80EF11C8AE0F7010C
:102CC00011928A95E9F78FEF9FEF9A8F898F87E0AE
:102CD0008E8F4AE050E0B801C7010E941436065FAB
:102CE0001F4F0B36F3E01F07A1F7B092C803A09265
:102CF000C7036E96EDE00C94963580E00E947D0F40
:102D000060E086E290E00E94F0350E94F2150E9499
:102D1000470F81E00E947D0F0895CF92DF92EF92DE
:102D2000FF928FEF9FEF4430510508F46AC0FB011A
:102D3000C080D180E280F3800E94C3128091E104C0
:102D4000C0FA80F9B701A601769567955795479522
:102D500040FB81F9B701A60122E07695679557956A
:102D600047952A95D1F740FB82F9B701A60133E0D8
:102D700076956795579547953A95D1F740FB83F936
:102D8000B701A601E4E07695679557954795EA95D2
:102D9000D1F740FB84F9B701A601F5E07695679578
:102DA00057954795FA95D1F740FB85F9B701A601EC
:102DB000A6E07695679557954795AA95D1F740FB7C
:102DC00086F9B701A601B7E07695679557954795BF
:102DD000BA95D1F740FB87F98093E1048091E20432
:102DE000D0FA80F9D1FACC24C0F8C0FA81F98093E6
:102DF000E2048091E1049091E2040E94960F90E039
:102E000080E0FF90EF90DF90CF9008950E94C31272
:102E10002FEF84E39CE0215080409040E1F700C018
:102E2000000088E19CE00FB6F894A89580936000BC
:102E30000FBE90936000FFCF882321F00E949E0B6D
:102E40000E945D110895882339F090911605982B02
:102E5000909316050E945D110895882321F00E9429
:102E6000A50B0E945D110895882321F00E94AC0BF0
:102E70000E945D110895882309F455C0823879F4C1
:102E80000E94560681FF4FC089E30E94FE0B0E94FC
:102E90005D1189E30E94D30B0E945D110895833870
:102EA00059F40E94560680FF3EC083E50E94FE0B47
:102EB0000E945D1183E5EECF843859F40E945606D6
:102EC00082FF31C087E40E94FE0B0E945D1187E4FF
:102ED000E1CF9CEF980F913AE8F290E2980F98308A
:102EE00050F4877091E001C0990F8A95EAF7892F15
:102EF0000E94A50BD1CF9BE5980F933028F490E06A
:102F000080E00E944006089598E5980F973128F4D4
:102F100090E080E00E942A060895803F20F00E9401
:102F200012080E94EB070895FF920F931F93CF930F
:102F3000DF93F82E0091CF041091D00401151105F4
:102F400009F449C01092CE041092CD041092CA0424
:102F50001092CB04D8011696CD91DC919E013A9542
:102F600021153F4108F4D07ED1E0C11101C0D0E06D
:102F7000D8011996ED91FC911A97309731F01B9674
:102F80006D917C9180E00995D823DD2339F08CEF99
:102F90008C0F813A30F58C2F0E94D30BFF2099F0D3
:102FA000E091CF04F091D004808584FD0CC0809125
:102FB000CC04882341F0808191819C01215031090A
:102FC000203B3D45A0F00E945D111092D00410926C
:102FD000CF041092CC04C801CDB7DEB7E5E00C9465
:102FE0009E350E945D118C2F0E943B17D7CF0E9407
:102FF0006306E9CFCF93DF93EC010E943B17CE012C
:103000000E94E20C9E01205E31092830310510F04B
:10301000CD2B29F40E942D17DF91CF9108950E94A6
:103020001C17FACFCF93C82F8823C9F08238C9F470
:103030000E94560681FD13C089E30E94FE0B0E9488
:103040005D112FEF87EE93E0215080409040E1F733
:1030500000C0000089E30E94D30B0E945D11CF9154
:1030600008958338A1F40E94560680FDF8CF83E5C9
:103070000E94FE0B0E945D112FEF81EE94E0215023
:1030800080409040E1F700C0000083E5E4CF843841
:10309000A1F40E94560682FDE2CF87E40E94FE0B57
:1030A0000E945D112FEF81EE94E02150804090400E
:1030B000E1F700C0000087E4CECF8CEF8C0F813A9F
:1030C00090F580911901882301F18091E10487FF37
:1030D0001CC0EC2FE695E695E695F0E0E858FE4F2B
:1030E000828190E04C2F477021E030E002C0220F37
:1030F000331F4A95E2F782239323892B81F08C2F8B
:103100000E94D30B0E945D110AC0EAE7F1E080E85B
:1031100091E02191C21799F38E179F07D1F78C2F59
:103120000E94FE0B9ACF80E28C0F883048F4C77063
:1031300081E001C0880FCA95EAF70E94AC0B8DCFE1
:10314000EBE5EC0FE33040F4F0E0EE5DFE4F808104
:1031500090E00E94400683CFE8E5EC0FE73150F4A1
:10316000F0E0EE0FFF1FEB5DFE4F808191810E942A
:103170002A0675CFC03F08F472CF8C2F0E942D090C
:103180000E94EB076CCF1F93CF93DF93182FC09152
:103190000E04D0910F04893321F0C0910C04D0911A
:1031A0000D04812F0E941218209739F4812F0E945C
:1031B0003B17DF91CF911F9108958FE99FE0019711
:1031C000F1F700C000002197EFCFB0E0A0E0EBEEF8
:1031D000F8E10C947D35EC018AE0A82E28812223A9
:1031E00009F48FC02130C9F599818A81913021F489
:1031F00022960E94C31805C0923029F422960E949C
:1032000012182196EBCF933021F422960E943B179F
:10321000F8CF943011F02196F4CF229630E020E0E0
:10322000AE014F5F5F4F8053990B8A30910550F08C
:103230002150310930F38FE99FE00197F1F700C089
:103240000000F6CFA29EB001A39E700D11249C0138
:10325000260F371F8981EA01E3CFE22FF0E0EF5418
:10326000F84FB490822F86958695869590E0FC0164
:10327000EF55F84FE4902770F12C022E02C0F59420
:10328000E7940A94E2F731E0E322FF24FC01EF56D1
:10329000F84FC490D12C022E02C0D594C7940A9442
:1032A000E2F731E0C322DD24FC01EF57F84F04912F
:1032B00010E002C0159507952A95E2F701701127D5
:1032C000E114F10419F081EE0E941218C114D10426
:1032D00019F086EE0E9412188B2D0E94C318C1149B
:1032E000D10419F086EE0E943B17E114F10419F0A5
:1032F00081EE0E943B170115110509F482CF8CE283
:1033000078CFCDB7DEB7EAE00C949935B0E0A0E015
:10331000ECE8F9E10C947D357C015B01C42FD22FE0
:10332000FC0182818823A9F04093D3040E941E06E9
:103330009093D2048093D104C77081E001C0880FBC
:10334000CA95EAF70E943417CDB7DEB7EAE00C94CD
:1033500099351091D304141338C08091D104909101
:10336000D2040E9403066C01B701C5010E94B80F88
:10337000C816D90650F5C0E2CD0F1D17C1F080E286
:10338000810F883048F4177081E0012E01C0880F4A
:103390000A94EAF70E942D17C83048F481E09D2F67
:1033A000977001C0880F9A95EAF70E943417802F12
:1033B0000E94C318C83040F6D77081E001C0880F62
:1033C000DA95EAF70E942D17BFCFC77081E001C0E0
:1033D000880FCA95EAF7F6CFCF93DF93EC010E94EE
:1033E000E20C9E01205E31092830310510F0209753
:1033F00041F40E9434178C2F0E941218DF91CF9154
:1034000008950E942317F7CF662329F0209116050F
:103410002260209316059C013056211540E23407A6
:1034200020F0305E2115304108F499270E94EC19F4
:103430000895B0E0A0E0EFE1FAE10C9480357C0162
:103440008B01D42E8091170182FF8CC0C09114048F
:10345000D0911504CE15DF0521F0E114F10409F037
:1034600081C0809117018B7F8093170181FD73C00C
:103470008091120490911304A801481B590B81E01C
:1034800020911501309116014217530708F480E08E
:103490008170F82E80911701F0FA81F9809317015D
:1034A000FE0183E0F695E7958A95E1F7EE71FF2737
:1034B000E253FC4F20813181AE014F70552781E0EE
:1034C00090E002C0880F991F4A95E2F7FF2009F4A7
:1034D00044C0822B932B918380838091CD0381FF05
:1034E00008C08091170180618093170182E00E94DB
:1034F000A50B8091CD0385FF08C0809117018062E4
:103500008093170180E20E94A50B6F2DCE010E94CF
:10351000041ADD2031F08091090485FF02C086FF86
:103520003BC080910C0490910D040E94CC0D8091C1
:103530001404909115049C013056211540E2340783
:1035400020F0305E2115304108F499270E94FA17C7
:103550000E9411121DC081E09BCF8095909582231F
:103560009323B9CFC701992797013056211540E21F
:10357000340728F0305E2115304108F0C7010E9461
:10358000FA1780911404909115048E159F0501F38C
:103590001093130400931204CDB7DEB7E7E00C9448
:1035A0009C3568EE7EEF90E080E00E940E3660E091
:1035B00082E090E00E94F03560E083E090E00E94BD
:1035C000F0351092290260E084E090E00E94F0352E
:1035D00064E082E290E00E94F03560E085E090E0F7
:1035E0000E94F03560E086E090E00E94F0356FEFD9
:1035F00087E090E00E94F03540E050E0BA0188E0BA
:1036000090E00E94023660E08DE090E00E94F0358C
:1036100040E050E0BA0188E190E00E94023660E0AC
:1036200087E190E00E94F03540E050E0BA018CE183
:1036300090E00E94023670E060E080E290E00E943C
:103640000E3640E050E0BA0188E190E00E94023678
:1036500080E00E947D0F0E947D1640E050E0BA019C
:103660008FE090E00E94023640E050E0BA0183E132
:1036700090E00E9402360895A7E0B0E0E2E4FBE1AA
:103680000C9475357C01DC0113964D915C91149777
:1036900011966C9111978C910E94D4068111EEC005
:1036A00061E0C7010E94C40E8C01F701828188236A
:1036B000E1F08091D4049091D5040097B1F00817FF
:1036C000190799F0FEE08F9FC0011124FC01EF570C
:1036D000FD4F20812460208384589D4FDC010D9391
:1036E0001C930E94E91110921605F701828188232C
:1036F00011F40C942924C80182519F45409710F081
:103700000C941B248FEF93E00E94E2358111A6C038
:103710007EEED72ED00E0BE613E0D11036C0198204
:103720001A821B821C8299249A9468012FEFC21A74
:10373000D20AC8010E94E23589831A82882309F4DB
:103740008DC0813009F07FC0580132E0A30EB11C5A
:10375000C6010E94E235C82E8A83882309F47EC000
:10376000C5010E94E235D82E8FEF8C0D8330D8F43E
:10377000580143E0A40EB11CDB82DD2021F0CE0114
:1037800001960E94E5188501D0CF0115F4E01F07CE
:1037900009F464C0C8010E94E235811101C0DA94C5
:1037A0000F5F1F4FBACF8BEF8C0D833030F5C80100
:1037B0000396DB825C01DD2031F3580154E0A50E55
:1037C000B11C0E94E2358C838823E9F28B819C81B5
:1037D0008130AFEF9A0710F0982F8827B6E0CB160C
:1037E00031F0E7E0CE1631F00E94722BCCCF0E9470
:1037F0004C2BC9CF0E94D32AC6CFF4E0CF12C3CF3F
:10380000580124E0A20EB11CC80103960E94E235C3
:10381000DD2021F1882311F18150990B989E9001B0
:10382000999E300D11244D2D4150550BCA01820F28
:10383000931F019708F4A7CFAFE9BFE01197F1F705
:1038400000C00000F6CFCE0101960E94E518560197
:103850009ACF81E00E949B120E9451128091050232
:10386000877061F0D70112968C91882339F080918E
:10387000E20482FF03C082E00E946A122796E2E11E
:103880000C94913581E00E945D12E6CF82E0FBCF7F
:10389000823011F00C946B24809176029091770223
:1038A000892B11F40C946B242EE02C9DC0012D9DCE
:1038B000900D1124FC01EF57FD4F20812E7F2083B6
:1038C00084589D4F0E94E9110C946B2481E08093F1
:1038D0000001C4CF80910001882309F4D7C64801B4
:1038E00020EE821A91084090280280919B01482A7C
:1038F0008091CD03482A38E08316910408F086C0F1
:1039000098012770332781E090E001C0880F2A9545
:10391000EAF7552009F477C0482AD7018D919C9188
:103920000E945C0C21E030E0F90102C0EE0FFF1FA5
:103930008A95E2F7FF83EE832090CF043090D00485
:1039400060909801709099011D822D81E22FF0E026
:10395000EE0FFF1FE35CFC4FC080D180C114D10487
:1039600009F4F8C6411005C0D60112968C91811158
:1039700087C0F601838190E02E813F8182239323CB
:10398000892B09F47DC08085982F977009F487E012
:1039900038E08316910408F053C0552009F44CC058
:1039A00086958170882309F46BC0D601AD90BC90D8
:1039B0000A151B0519F4552009F462C0C214D3047A
:1039C00009F45EC0D6011D96ED91FC91309721F06F
:1039D0008081882309F454C0642DC6010E94B40676
:1039E000882309F44DC00A151B0509F098C7011575
:1039F000110509F499C7511099C7A614B70409F025
:103A00003FC0512C93C78095482287CF552009F499
:103A10008AC610939901009398010E941206609340
:103A2000C6047093C7048093C8049093C90410928D
:103A3000CE041092CD0471CF82FB882780F9B2CFDB
:103A40005520F1F08170AECF0E943B178DC70497CF
:103A5000813A910548F48A2D0E94FE0B552009F405
:103A600015C60E945D11FACE0E945D118FE39CE99C
:103A70000197F1F700C000008A2D0E941218EECFC6
:103A80009D819F5F9D8361CFFC0120813181021761
:103A9000130709F0F4C55110F4C51092CC0480E06E
:103AA0000E949417F3C5902F812F38C6F9018581A4
:103AB00081FF64C6C9010E94CF1160C680911701C1
:103AC00081608093170188C6809117018E7F809353
:103AD00017010E94111280C6809117018F7E013E4E
:103AE000110531F0053E1105C9F4809117018F7D54
:103AF000809317018091170180FF7DC6D701129630
:103B00008C910832110528F50E31110508F072C0AC
:103B10000430110580F581116AC66DC6C801905642
:103B2000811540E2940720F0905E8115904110F7D6
:103B30008091170182FF5FC680910B0481FD5BC6F7
:103B400026E432E040E0B60190E080E00E94191ADD
:103B500052C60933110558F40D32110518F40B3211
:103B60001105C9F69091090492FDD5CF08C004361D
:103B70001105C1F3D0CF9091090494FDCCCF8823D7
:103B800009F4A8C0809128029091CD03892B8D7FE4
:103B9000B1F110921504109214048091090481FD72
:103BA0002EC0F80143E0F695E7954A95E1F7EE71EE
:103BB000FF27E253FC4F98012F70332781E090E0FC
:103BC00002C0880F991F2A95E2F780959095208171
:103BD0003181822393239183808360E0C8010E9416
:103BE000041A809128028D7F0E948A0B82E00E9435
:103BF0006A1234CE9091090493FD8DCFC0CF88E036
:103C0000F701A6E4B2E001900D928A95E1F71092D7
:103C1000480210924A021092490280911404909135
:103C2000150408171907D1F52091090425FF36C09E
:103C30003091170131FF02C026FF30C020911204DD
:103C4000309113045601A21AB30AB7010E94B80FAB
:103C5000A816B90618F58091CD0381FF08C08091A0
:103C6000170180618093170182E00E94A50B80916B
:103C7000CD0385FF08C080911701806280931701F2
:103C800080E20E94A50B609117016695617080919A
:103C90001404909115040E94041AE0CD809128022A
:103CA0009091CD03982B2091170191FB21F920933E
:103CB00017018D7F0E948A0B109315040093140442
:103CC000D0921304C09212048091170184608093F3
:103CD00017018CCF970140E0B601C8010E94191A64
:103CE000BDCD053F4CE5140709F463C008F45BC083
:103CF000063F8CE5180709F462C0D70112963C9183
:103D0000332309F465C61092D3040330BDE51B07C5
:103D100008F061C00A3FECE51E0730F4C80182508C
:103D20009C45449708F062C00E94EB0E9093E20419
:103D30008093E10402315CE5150709F47DC108F0C8
:103D4000CDC009309CE5190709F454C108F097C0AB
:103D50000530BCE51B0709F441C108F07EC0033003
:103D6000FCE51F0709F432C108F034C18091E10479
:103D7000816002303CE5130709F4ADC08091E10495
:103D80009091E2040E94960F0E94C31267CD07E251
:103D900025EE45EE68ED7CE549C506E221EE40EEF4
:103DA00063EF7CE543C507E225EE44EE64EF7CE576
:103DB0003DC506E221EE42EE65EF7CE537C507E240
:103DC00025EE46EE66EF7CE531C508E221E045EEE2
:103DD00069ED7CE52BC5053AFDE51F0709F4A4CF85
:103DE000B0F501364DE5140709F49ECF06315CE5C8
:103DF000150709F055C18091CD03982F9A7A20912B
:103E0000080420FF04C0482F447409F090E021FF0B
:103E100004C0482F417109F090E022FF04C0482FF0
:103E2000487809F090E023FF03C0827209F090E027
:103E3000332309F42BC181E0911101C080E080930C
:103E40009A0189E2911185E30E94FE0B0ACEC80116
:103E50008D5A9D45039750F667CF8091E1048062AB
:103E600007304CE51407B9F18091E1048061083016
:103E70005CE5150780F18091E10480642CC00D3071
:103E80008CE5180709F4C0C090F48091E1048E7F9E
:103E90000B30ACE51A07F9F08091E1048C600C302E
:103EA000BCE51B07C0F08091E1048D7F14C00F308A
:103EB000ECE51E0709F4B8C008F4AAC000312CE5EF
:103EC000120709F4B5C08091E1048F7B01313CE514
:103ED000130709F053CF8093E10450CF0F3F4CE517
:103EE000140709F4B3C0A8F50A3F8CE5180709F4D4
:103EF00079C0C0F40431ACE51A0709F4B5C008F480
:103F0000A1C00531ECE51E0709F038CF8091E1042E
:103F100082FB992790F921E0922790FB82F990FB90
:103F200083F9D9CF0C3FFCE51F0709F475C008F4ED
:103F30005DC00D3F3CE5130709F472C08091E204B7
:103F400083600E3F4CE5140709F018CF8093E2041C
:103F500015CF01365DE5150709F491C090F40130E5
:103F60009DE5190709F489C008F474C060E00230C7
:103F7000BDE51B0709F002CF8EE090E00E94F0350E
:103F8000FDCE0D3AEDE51E07E9F060F49091E104F5
:103F9000892F8E7F90FF8160053A2DE5120709F485
:103FA0009ACFECCE0E3A3DE5130751F10F3A4DE5AD
:103FB000140709F0E3CE9091E204892F877F93FFE5
:103FC0008860C4CF8091E2048860C0CF8091E10412
:103FD000826081CF8091E10484607DCF8091E10493
:103FE000886079CF8091E2048160B0CF8091E20453
:103FF0008260ACCF0E94C3128091E10480686BCFD5
:104000008091E204877FA2CF8091E1048B7F63CF10
:104010008091E104877F5FCF8091E2048E7F96CF0D
:104020008091E2048D7F92CF8091E1048F7E53CF07
:104030008091E1048F7D4FCF0E94C3128091E104F3
:104040008F7749CF8091E104837F45CF8091E2044F
:104050008C7F7CCF8091E204982F909591708E7F19
:10406000892B90FB81F972CF0E94C3129091E104D9
:10407000892F97FB87F980582ECF61E07DCF9091F3
:10408000E104892F8F7E94FF806125CF80919A0172
:10409000811104C089E20E94D30BE3CC85E3FBCFFE
:1040A0000A355DE5150709F46BC008F044C0011539
:1040B0009CE5190709F44AC00E3D1C4509F453C09C
:1040C000F70186819781009709F45EC00E94F1098B
:1040D000182F092FF701D280C580C2943FE0C32278
:1040E000809105028770C1F0AD2CDD20B1F0892FE1
:1040F000807F803421F080E2810F883068F08091E9
:10410000E20482FF09C082E00E946A1280910502E7
:104110008770AA24A3948111A12C902E92942FE051
:104120009222FBE0F91508F4BCC0E92DF0E0E85C50
:10413000F94C0C9468350C35BDE51B07B9F010F14E
:10414000073A1D4509F0BCCF0E9406170E94C31212
:104150002FEF34E34CE0215030404040E1F700C005
:1041600000000E94A80D0E94D11AEECF8091E204B7
:1041700082FB882780F991E089270E948612A0CFD0
:1041800081E0FBCF80E0F9CF82810081118188231B
:1041900069F0C8010E94480ED82E682FC8010E94FD
:1041A000900CB8018D2D0E942B0E90CFC8010E945B
:1041B0005C0CD82EF6CF202F2F70B22E802F807F50
:1041C00019F0B29490EFB922DD20A9F0BB2059F08C
:1041D00080E2810F883010F0111107C08B2D0E94F2
:1041E000AC0B0E945D11812F5AC080911605B82A30
:1041F000B0921605F6CF812F0E943B17BB2009F421
:1042000050C080E2810F883010F0111104C08B2D56
:104210000E94A50B03C08B2D0E949E0B0E945D1176
:1042200040C0302F3F70B32E802F807F803219F036
:10423000B29480EFB822112321F1113009F4AEC0FD
:10424000DD2009F4B7C0CC2009F47FC020E0D701FD
:104250004C9111965C91119712966C91129713964E
:104260007C91139714968C910E94A10E80910B045F
:1042700081FDB9CFF701858180FFB5CF8F70858330
:1042800064C08091E20482FD40C0DD20C1F1BB200A
:1042900029F08B2D0E94AC0B0E945D1180E00E94E2
:1042A0001218A92DA850BB0B149710F40E945606A3
:1042B000812F902F0E94C70C8111C2C110929D01C5
:1042C00010929C01AA20B1F08091050280FD12C0DD
:1042D000D70112961C928595859585950E949B1213
:1042E000C7010E943C1B80910502859585958595A7
:1042F0000E945D1260E0C7010E94C40EBFCA80E048
:104300000E943B17BB2069F282CFDD2011F1C11062
:1043100004C0809128028B2919C041E0C41206C054
:10432000809128028B290E948A0BBBCF80910A04BE
:10433000823078F3C812EDCF0E947F0B90919B01E1
:104340008B2D892B891380939B018B2D0E94341711
:10435000A8CFC11003C00E947F0B17C080910A0430
:1043600051E0C51216C0823008F49BCF8091CD0376
:104370008B2109F496CF0E947F0B90919B018B2D8E
:1043800080958923891380939B018B2D0E942D1783
:1043900088CF823000F3C812DECF83CF8091100423
:1043A000DD2021F08C1508F47CCFCFCFC81608F0A3
:1043B00078CFEBCFCC2049F380910E0490910F047D
:1043C000193321F080910C0490910D040E94CC0DC2
:1043D000812F0E943B1765CF802F8695869583702D
:1043E00069F0813009F05DCF812F902F9370D1104B
:1043F00002C090E080E00E942A0653CF812F902FC8
:104400009370D11002C090E080E00E94400649CF36
:10441000812FDD2029F00E942D090E94EB0741CF5A
:104420000E941208FACF802F837091F5D11039CFF6
:10443000412F429546954770440F440F812F8F704E
:10444000042E01C0880F0A94EAF7212F207114FF6F
:1044500007C02FE030E001C0220F4A95EAF720950F
:10446000302F369536953370323069F050F44091E4
:104470002902313029F0822B84230E94BE1211CFF1
:10448000842B822BFACF282B809129028227F5CF0B
:104490008695DD2011F0802F8170882309F401CFEB
:1044A000412F429546954770440F440F812F8F70DE
:1044B000042E01C0880F0A94EAF7212F207114FFFF
:1044C00007C02FE030E001C0220F4A95EAF720959F
:1044D000302F369536953370323069F050F4409174
:1044E0001505313029F0822B84230E944C12D9CE3D
:1044F000842B822BFACF282B809115058227F5CFAC
:10450000F02FFF70BF2EDD2029F08F2F0E949B120D
:10451000812F1CCF812F0E942D178B2D0E945D12A1
:10452000C0CE123F89F160F4103FB9F0113F81F025
:10453000DD2009F480C0C11056CE802F8F7128C0B5
:10454000133F49F1143FA1F78091E20482FD2FC08F
:10455000802F8F71DD2011F31BC080911004DD20AE
:1045600079F0C81608F09DCE202F2F7181E090E0E1
:1045700001C0880F2A95EAF7909115058927B5CFD4
:104580008C1508F48ECEF0CF802F8F71D110C6CF4E
:104590000E949B1286CE80E0DD2009F4A6CF81E048
:1045A000902F9F7101C0880F9A95EAF79ECF809156
:1045B0000A04823040F1DD20D1F09091050297701D
:1045C000943041F40E94B20B802F8F710E945D12D3
:1045D000A12C67CEC816E0F7202F2F71B22E822FA4
:1045E0000E949B1263E08B2D0E94A712F1CFC81688
:1045F00030F00E94B20B64E0802F8F71F5CF81E024
:104600000E946A12E5CFDD2059F0302F3F71B32EA2
:10461000832F0E949B1263E08B2D0E94A71241CE34
:1046200081E00E946A1241E04C1508F03ACE82E027
:104630000E946A1236CEC110BFCE802F8F716ECF0E
:10464000DD2019F0C1103ACE3DCEC11037CE20E0AA
:10465000F701408151816281738184810E94A10EA2
:1046600080910B0483FF2ACE80919C0190919D0143
:10467000029709F023CE812F0E94C3181FCE552028
:1046800029F0DC0118968C9185FF09CAC80197555D
:104690008F3F910511F008F071C05801BB24BEE0B6
:1046A0000B9FF00111249F0124583D4F6901D70150
:1046B00012968C91EF57FD4F908180FB90F990837B
:1046C000882309F4F3C90E941E0690934502809343
:1046D0004402F60182818F5F82838091160590915A
:1046E000CD03892B83838091280284830680F78100
:1046F000E02D309731F0D6011C966D917C91C6016A
:1047000009958EE08A9DF0018B9DF00D1124E458EF
:10471000FD4F858181FFC7C990E080E09093D4046C
:104720008093D5042BC0809198019091990108172E
:10473000190781F410929901109298011092C60401
:104740001092C7041092C8041092C9041092CE04AB
:104750001092CD048091CF049091D004009709F479
:1047600095CFA8E08A16910408F08EC9642D0E94A6
:10477000B406811103C081E00E949417809109045E
:1047800080FF39C00E941E066C01D70112968C91E1
:10479000882309F4A1C98091170182FF08C026E48B
:1047A00032E040E0B60190E080E00E94191A0B313F
:1047B000BCE51B0709F482C90C31ECE51E0709F4BE
:1047C00083C990911701892F8E7F90FF81600A31F4
:1047D000FCE51F0709F47BC9C8019056811520E24A
:1047E000920728F0905E8115904108F083C91092DD
:1047F000150410921404033FBCE51B0709F4CDCA4D
:1048000008F06FCA083DFCE51F0709F4C0CA093D5E
:104810002CE5120709F4D9CA073D3CE5130709F056
:104820006CCA06E221EE41EE67ED7CE5C7010E940D
:1048300086190C942E1C0031FFE51F0711F40C940F
:10484000291C01312FE5120709F045C082E00C94C4
:104850002A1C00313FE5130711F40C94421C01316E
:104860004FE5140711F40C94461C6801E7E5DE1AC5
:10487000FFEFCF16D10409F070F562E772E08C2DDE
:104880000E94A40F892B39F58EE08C9DF0018D9D3F
:10489000F00D1124E458FD4F8281813011F00C9409
:1048A000481C8091720290917302892BA1F0809133
:1048B000740290917502892B71F08091760290912B
:1048C00077022091780230917902822B932B892BE9
:1048D00011F40C94541CD70112965C90552011F4DD
:1048E0000C946A1C0F35BDE51B0711F40C94661C73
:1048F0000036EDE51E0761F00E35FDE51F0711F0EE
:104900000C946A1C80910001882311F40C94661C9D
:104910001092000180E00E9494170C942E1CA114A8
:10492000B10409F06AC8512CB12CA12C80E00E947E
:104930009417D092D004C092CF0481E08093CC042D
:10494000F60185818093CA0451100EC0AB2861F036
:10495000F601808191819C0124503109213A310571
:1049600008F072C80E94D30BD6011696AD90BC9089
:10497000C5019A9581159F4110F4E0EEBE2277247F
:104980007394C5010197803B9D4508F0712CD601B9
:104990001996ED91FC911A97309731F01B966D9115
:1049A0007C9181E009957822772079F0F601868163
:1049B00097810E94E20C8093CB04C501F8E08F162A
:1049C000910408F044C80E9463060E945D1146C825
:1049D00006318CE5180709F073CB0DCAB0E0A0E0F2
:1049E000E4EFF4E20C947F358091BE01807F31F4D6
:1049F0008091BB01C0910202811107C0CDB7DEB723
:104A0000E8E00C949B352196C7708091C1018C170A
:104A1000A9F3F090B901E090BA01C090BC01D09028
:104A2000BD01A6016E2D8F2D0E94D406D0E081110C
:104A3000EACF8E0183E0000F111F8A95E1F7F8019C
:104A4000EE53FE4F81818E11DECF80818F11DBCF3F
:104A500082818111D8CFE380F480EC18FD0860E0FA
:104A600089EB91E00E94C40E69EB71E00E94B80FDF
:104A7000E816F90640F68091BE018F708061809340
:104A8000BE01F801E953FE4F80818F708061808301
:104A900089EB91E00E943C1B0E94520CAFCFA5E134
:104AA000B0E0E5E5F5E20C9478358C0185E0F8019D
:104AB000DE01519601900D928A95E1F7D8015C9044
:104AC00011966C9011971296EC9012971396CD90C8
:104AD000DC9060E089EB91E00E94C40E89EBA82E87
:104AE00081E0B82E8090BC019090BD01A40160913E
:104AF000BA018091B9010E94D4068111A8C1F09039
:104B0000BB01F601E819F9094F0160E0FF2009F443
:104B10004BC1C5010E94C40EB5010E94B80F709030
:104B2000BE018816990608F0F2C04091BC01509170
:104B3000BD01B090B901A090BA01872D807F6A2D88
:104B400009F08CC08B2D0E94D406FE2C811127C049
:104B5000D80111968C9111978A1121C08C918B11DB
:104B60001EC02091BF013091C00116968D919C917D
:104B700028173907A1F4E11012C0872D8F708061CA
:104B80008093BE0189EB91E00E943C1B8091BE01A5
:104B9000F80185838F2D6596EFE00C949435A6017E
:104BA000662D852D0E94D406D82E81E08E25D11049
:104BB00080E080FF18C04E2D662D852D0E94320C9E
:104BC000882389F080910B0480FF0DC089EB91E070
:104BD0000E943C1B88E0E9EBF1E0DF011D928A9521
:104BE000E9F7F12CD7CF81E08E25D11080E0B82FE6
:104BF000B170CB2E80FF29C04E2D662D852D0E94D1
:104C0000320CD82E811121C0598A6A8A89899A89E1
:104C10000E94770E292F22952F70223050F02430D9
:104C200078F49F7051F0F8019581907F31F4FD2C5C
:104C3000B1CF9F7011F08823D1F3805E8830B8F334
:104C4000C8010E943C1BDC2CF2CFEE2009F4A2CF5D
:104C50008091BE0181608093BE01C3CF8B2D0E94E5
:104C6000D406811124C0D80111968C9111978A1114
:104C70001EC08C918B111BC02091BF013091C001CF
:104C800016968D919C9117972817390781F4E1109A
:104C90000EC015967C92C8010E943C1B88E0F8016A
:104CA000A9EBB1E001900D928A95E1F773CFC801AD
:104CB0000E94840E882339F1EE2029F18091BE01F3
:104CC0008032A0F02091B9013091BA013A8729874A
:104CD0001B86DD86CC868E878091BF019091C001B6
:104CE000988B8F87CE0109960E943C1B88E0F801C3
:104CF000A9EBB1E001900D928A95E1F70E94EE24B4
:104D0000FF24F39447CFC8010E943C1BF9CF872DA5
:104D1000807F09F45BCF9090B9018090BA014091F7
:104D2000BC015091BD01682D892D0E94D4068111CE
:104D30001CC0F8018181881118C08081891115C0BB
:104D40002091BF013091C0018681978128173907D2
:104D500061F4E1100AC07582C8010E943C1B88E022
:104D6000D5011D928A95E9F715CFC8010E94840EDE
:104D7000882349F2EE2039F28091BE01803208F496
:104D8000B5CF2091B9013091BA013A8329831B82B2
:104D9000DD82CC828E838091BF019091C001988783
:104DA0008F83CE010196A0CF89EB91E00E94C40EC3
:104DB00069EB71E00E94B80F8816990680F6FE2C08
:104DC000EE2009F4A0CFE090B901D090BA01409153
:104DD000BC015091BD016D2D8E2D0E94D406811114
:104DE00028C0F80181818D1124C080818E1121C0DD
:104DF0002091BF013091C001868197812817390722
:104E0000C1F480910B0482FD49CF9091BE0190FDC9
:104E100045CF907F09F442CF8091BE018583903FBA
:104E200009F439CF982F907F905F8F70892B8583FD
:104E300032CFC8010E94840E811158CF8091BE01EB
:104E400081608093BE01C8010E943C1BA3CEEE206E
:104E500009F459CFC8010E94840EF82E882309F462
:104E600052CF88E0F801A9EBB1E001900D928A954C
:104E7000E1F78091B9019091BA010E94770E0E94EA
:104E8000EE2488CEA0E1B0E0E8E4F7E20C948535AA
:104E900029873A874B875C876D877E878F87988BBA
:104EA000CE0109960E944F2581112FC088E0FE0196
:104EB0003996DE01119601900D928A95E1F74C85A5
:104EC0005D856A8589850E94D40681111EC0A091E6
:104ED000C101B0E0CD0101968770992720910202AF
:104EE00028171906E1F093E0AA0FBB1F9A95E1F786
:104EF000AE53BE4F98E0FE01319601900D929A9507
:104F0000E1F78093C1010E94520C809102029091BE
:104F1000C101891312C06096E2E00C94A1350E9491
:104F2000C3121092C1011092020288E0E9EBF1E095
:104F3000DF011D928A95E9F7E8CFB8E08B9FC001A9
:104F400011248E539E4F0E944F25882321F3809178
:104F5000020290E001968770992780930202D5CFD4
:104F6000EF92FF920F931F93CF93DF9380911904D9
:104F7000882361F0C09118048CE0F82E8091190408
:104F8000C81748F01092190410921804CDB7DEB774
:104F9000E6E00C949D35EE24E394EC0EE0921804C8
:104FA0000C2F10E0CF9DE0011124C65EDB4F4B813A
:104FB0005C81698188810E94D40681111DC08E8127
:104FC0009F81892B21F488859985019651F4288148
:104FD00039814A815B816C817D818E819F810E94B4
:104FE0004227F09EF001F19EF00D1124E65EFB4F8A
:104FF0001482138210921605CE2DC0CF1092BD04DC
:105000001092BC04109218018091BB048093BA04E2
:105010000E940D070E94B0270895B0E0A0E0E3E1F0
:10502000F8E20C947635C091BA0497E0892E01E03D
:1050300010E02CE0322E3EEF932E442443948091D6
:10504000BB048C1309C00E94B0270E940D07CDB786
:10505000DEB7E1E10C949235D0E0FE01EE0FFF1FC8
:10506000EE54FB4F80819181889ED001899EB00DC6
:105070001124A658BB4F14962C911497211158C097
:1050800050901904EAE1F4E030E020E0712C5D0179
:10509000251508F04BC0E284F384D501CD90DC9057
:1050A0006FEF7FEF612C462D50E0DA01AA0FBB1F96
:1050B000AC0DBD1D0D90BC91A02D109731F0EA16DE
:1050C000FB0609F4BA016394EECF6F3F7607A9F1AE
:1050D000D80102C0AA0FBB1F6A95E2F77A2AB8016D
:1050E000062C02C0660F771F0A94E2F7AB0141500D
:1050F000510974161506F9F4329EF001339EF00D35
:105100001124E65EFB4F889ED001899EB00D1124CC
:10511000A658BB4F12962D913C9113973783268347
:10512000908291829187808715964C920E94DF062B
:105130002196C37084CF148213822F5F3F4F3C9619
:10514000A7CFA9E1B0E0E7EAF8E20C947535942F17
:10515000498B252F5A8B6B8B7C8B8D8B4C895D8972
:10516000622F892F0E94D406811109C080919C0171
:1051700090919D01019690939D0180939C018B8954
:105180008111109216051D861E861F86188A85E0DD
:10519000FE017196DE01199601900D928A95E1F754
:1051A0008091E20482FF1EC08091F0039091F10390
:1051B000892BC1F00E941E06209103023091040247
:1051C000821B930B2091F0033091F1038217930718
:1051D00020F08091050282FFE2C10E94B90B81118B
:1051E0000E947F0B4C855D856A8589850E94D40667
:1051F000811111C061E0CE0109960E94C40E6C01BC
:105200008B8527EFC2162CE5D20681F4882321F185
:1052100081E08093180129853A854B855C856D85F1
:105220007E858F8598890E944227C6C038EFC316B5
:105230003CE5D30629F4882379F00E94FE27EBCFC2
:1052400049EFC4164CE5D40639F4882329F080913F
:1052500018018111F2CFDCCF0AE714E0512CB12CF8
:10526000A12C22242394312C2EEF422EF8014081D0
:10527000518188248A94982C20E0822F90E0FC01B0
:10528000EE0FFF1FE40FF51F60817181611571053D
:1052900031F0C616D70609F44C012F5FEECFF12C82
:1052A000FFEF8F169F0609F449C0F8014481F09082
:1052B00018018F2D411180E0F82FF170FF2EF801B9
:1052C000E58086819B85992309F4F8C0FF2009F4C5
:1052D000F5C06090040470900504E11013C0A101B2
:1052E000082C01C0440F0A94EAF7842B868380912E
:1052F0001604909117048615970520F470921704F0
:1053000060921604C10102C0880F991F2A95E2F726
:105310000197F80126812817190681F48091BC04B1
:105320009091BD04009709F44BC00E9403066816D3
:10533000790608F045C021E0F80124835F28FFEFDB
:10534000AF1ABF0A095F1F4F28E0A216B10409F087
:105350008DCF8B85882309F40DC1552009F40AC12E
:105360000E941E069093BD048093BC048091190492
:10537000883010F591E0980F9093190498E0FE01A1
:105380003996DE01119601900D929A95E1F73CE075
:10539000839FC0011124865E9B4F28E0FE01319659
:1053A000DC0101900D922A95E1F72FEF3FEFFC0110
:1053B00031872087D386C2866996E2E10C949135C5
:1053C0008091BA045091BB04982FF0E0E0E085137F
:1053D00014C09093BA04E017F10709F4AFCF90E03E
:1053E000FC01EE0FFF1FEE54FB4FB182A08201962D
:1053F000837099278093BB04A1CF682E712CF30191
:10540000EE0FFF1FEE54FB4F2081318147E0429F9A
:10541000D001439FB00D1124A658BB4F6D917C91D4
:105420001197798F688F40E020E030E0E32FF0E0C3
:10543000EE0FFF1F688D798DE60FF71F808091803A
:1054400081149104E1F0F8010190F081E02DFF8BCF
:10545000EE8B20E005C08616970609F44F2D2F5FCE
:10546000E22FF0E0EE0FFF1F6E897F89E60FF71F36
:10547000608171816115710571F73F5FD7CF44235A
:10548000D1F0F801231708F0FD0121E024830E1765
:105490001F0721F49093BA04F42E50CF981305C03F
:1054A000AE17BF0711F49F5F937093012F5F3F4FBB
:1054B000822F83708CCFF0E0E0E0F7CF90E0E11036
:1054C00020C0B10102C0660F771F2A95E2F79B0149
:1054D000215031098217930731F4442309F448C05D
:1054E000C5010E94DF06C101082C01C0880F0A9483
:1054F000EAF7982F9095F801868189238683FE2C00
:105500001DCF9C01082C02C0359527950A94E2F71F
:10551000A90141705527BC01615071098623972369
:10552000892B11F5452B01F1F80182819381892B9B
:10553000C1F01B821C821D821E8249824A820E9407
:105540001E068160582F9D838C83F8018281938190
:105550008F83988729813A814B816D817E810E945A
:105560004227F8011582BFCFF22FF170EF2EBBCF8B
:10557000EF2CB9CF9091BA048091BB04981731F009
:105580000E940D28552009F446CE16CF0E94B02760
:105590001092BD041092BC040E940D07F3CF82E06C
:1055A0000E946A121ACEA5E0B0E0E9EDFAE20C948E
:1055B00085359093CA038093C903811520E2920731
:1055C00030F40E94FA172596E2E00C94A13580EFA2
:1055D00089838A831B820E941E068160782F9D83A7
:1055E0008C8349815A816B818D810E94A128EBCFE8
:1055F0000F931F93CF93DF938C01EB0162E772E06F
:105600008C2F0E94A40F892BA1F480910C049091FF
:105610000D040E94CC0DDD27C659DD4F8881F801AD
:10562000128218828330F1F048F4813059F08230D0
:1056300081F0DF91CF911F910F9108958430B9F0DF
:105640008530B9F78091720290917302009789F3C7
:1056500006C08091740290917502009799F30E94A0
:10566000D32AE7CF8091760290917702F6CF80918E
:10567000780290917902009791F72091720230910F
:105680007302809174029091750221153105F1F237
:10569000009729F7C901E3CFA5E0B0E0E2E5FBE21E
:1056A0000C9485359093CA038093C903811520E239
:1056B000920730F40E94EC192596E2E00C94A13593
:1056C00080EF89838A8381E08B830E941E0681603C
:1056D000782F9D838C8349815A816B818D810E94B3
:1056E000A128EACFCF93DF93EC010E944C2B80914D
:1056F0000C0490910D040E94CC0DCE010E94D32A7F
:10570000DF91CF9108950F931F93CF93DF938C0177
:10571000862F62E772E00E94A40F892BB1F4C0913A
:105720007202D0917302209781F0F8018281833058
:1057300051F4CE010E94722BCE010E94722BCE0139
:105740000E94722B02C08430D0F7DF91CF911F915D
:105750000F9108950F931F93CF93DF938C01EB016B
:1057600062E772E08C2F0E94A40F892B09F05CC0C5
:10577000FE01FF27D80112968C911297E659FD4F32
:105780008130B9F415969C9192FF02C080830AC0C3
:1057900090FFFCCF82E0808380917402909175022B
:1057A0000097B9F480917202909173020097E1F131
:1057B00010C08230B9F515968C9182FD28C080FD0D
:1057C0000BC083E0808380917602909177020097EE
:1057D00001F10E944C2B28C084E0808380917802E4
:1057E000909179020097A9F78091720290917302CB
:1057F0000097F9F00E94722B8091740290917502CB
:10580000009739F78091720290917302E2CF85E0A0
:1058100080838091720290917302009729F00E9418
:10582000722BF0CF86E08083DF91CF911F910F9193
:1058300008958091740290917502B8CF1F920F92D3
:105840000FB60F9211242F933F934F935F936F9353
:105850007F938F939F93AF93BF93CF93DF93EF93F8
:10586000FF93D091E900DF708091EC00C82FC170E8
:1058700080FDC0E81092E9008091F000877F80935E
:10588000F00078940E94D9121092E9008091F00003
:1058900088608093F000CD2BCF70C093E900FF911A
:1058A000EF91DF91CF91BF91AF919F918F917F91B8
:1058B0006F915F914F913F912F910F900FBE0F907D
:1058C0001F9018951F920F920FB60F9211242F93CD
:1058D0003F934F935F936F937F938F939F93AF9378
:1058E000BF93EF93FF938091E10082FF09C0809105
:1058F000E20082FF05C08091E1008B7F8093E10090
:105900008091DA0080FF24C08091D80080FF20C001
:105910008091DA008E7F8093DA008091D90080FF39
:105920009DC080E189BD82E189BD09B400FEFDCF43
:1059300081E0809314058091E604811109C00E94E2
:1059400053040E9446058091E20084608093E20047
:105950008091E10080FF17C08091E20080FF13C0BA
:105960008091E2008E7F8093E2008091E20080616E
:105970008093E2008091D80080628093D80019BCA7
:1059800085E0809314058091E10084FF2BC0809115
:10599000E20084FF27C080E189BD82E189BD89B52D
:1059A000982F917080FFFBCF8091D8008F7D8093DE
:1059B000D8008091E1008F7E8093E1008091E20029
:1059C0008F7E8093E2008091E20081608093E2000C
:1059D00080910B05882309F447C084E08093140567
:1059E000809114058091E10083FF27C08091E2003F
:1059F00083FF23C08091E100877F8093E10082E0F4
:105A00008093140510920B058091E1008E7F8093A6
:105A1000E1008091E2008E7F8093E2008091E200BD
:105A200080618093E20042E060E080E00E94140523
:105A30008091F00088608093F000FF91EF91BF911A
:105A4000AF919F918F917F916F915F914F913F9116
:105A50002F910F900FBE0F901F90189519BC1092A8
:105A600014051092E60474CF8091E30087FD93E063
:105A700090931405B5CF78941F921FB61F921124EE
:105A80008F939F93AF93BF938091DD049091DE0439
:105A9000A091DF04B091E0040196A11DB11D809397
:105AA000DD049093DE04A093DF04B093E004BF9183
:105AB000AF919F918F911F901FBE1F9018951F92BD
:105AC0001FB61F9211248F939F93AF93BF93809122
:105AD000DC04811113C08091DD049091DE04A0915B
