:100000000C94FC040C9434050C9434050C943405C5
:100010000C9434050C9434050C9434050C9434057C
:100020000C9434050C9434050C94BF190C94C2261E
:100030000C94A63D0C9434050C9434050C943405B2
:100040000C9434050C9434050C9434050C9434054C
:100050000C9434050C94981A0C9434050C943405C3
:100060000C9434050C9434050C9434050C9434052C
:100070000C9434050C9434050C9434050C9434051C
:100080000C9434050C9434050C9434050C9434050C
:100090000C9434050C9434050C9434050C943405FC
:1000A0000C9434050C9434050C94340505010902B4
:1000B000A10185020901A100050919012905150001
:1000C00025019505750181029501750381010501E1
:1000D000093009311581257F950275088106093897
:1000E0001581257F950175088106050C0A380215D2
:1000F00081257F950175088106C0C005010980A191
:1001000001850319012AB700150126B7009501756D
:10011000108100C0050C0901A101850419012AA064
:1001200002150126A002950175108100C005010984
:1001300006A1018506050719E029E71500250195A7
:1001400008750181020507190029EF1500250195A1
:10015000F0750181020508190129059505750191C0
:1001600002950175039101C00660FF0961A10109B3
:1001700062150026FF0095207508810209631500AD
:1001800026FF00952075089102C005010906A1010E
:10019000050719E029E71500250195087501810279
:1001A0009501750881010507190029FF150026FF33
:1001B0000095067508810005081901290595057542
:1001C000019102950175039101C0001000200011FA
:1001D000012100120222001303230014042400153D
:1001E00005250016062600170727001808280019FD
:1001F0000929001A0A2A001B0B2B001C0C2C001DBD
:100200000D2D004030500041315100423252004328
:1002100033530044345400453555004636560047A4
:1002200037570048385800493959004A3A5A004B64
:100230003B5B004C3C5C004D3D5D0070608000719C
:10024000618100726282007363830074648400754C
:10025000658500766686007767870078688800790C
:100260006989007A6A8A007B6B8B007D6D8D00A0A6
:1002700090B000A191B100A292B200A393B300A4E8
:1002800094B400A595B500A696B600A797B700A8A8
:1002900098B800A999B900AB9BBB00AC9CBC00AD61
:1002A0009DBD007F6F8F007E6E8E007C6C8C004E3B
:1002B0003E5E00AE9EBE00AA9ABA00AF9FBF001F6E
:1002C0000F2F004F3F5F0000000000000000000003
:1002D000000000000000000000000000000000001E
:1002E000000000000000000000000000000000000E
:1002F00000000000000000000000000000000000FE
:1003000000007E0F00D4FFFFFFC700000078000050
:100310000000000000002A2B280000000000000060
:1003200000000000000000000029000000002C1E5A
:100330003420212224342627252E362D3738271E17
:100340001F202122232425263333362E37381F043D
:1003500005060708090A0B0C0D0E0F1011121314D5
:1003600015161718191A1B1C1D2F3130232D350493
:1003700005060708090A0B0C0D0E0F1011121314B5
:1003800015161718191A1B1C1D2F3130354CFD3747
:100390007A585A000004E6D6B4460200210116003D
:1003A0000000742FE5A3E0039B01435D003D8889B5
:1003B000C65436C3174FE4DC2A1A1D16D15C8A09CD
:1003C000D8DD78C89590E456020A79A5222498557C
:1003D0003CF1DD41DB81EBA9E48084396658FDFE08
:1003E000136222C9E9E93A1F3C668C64B6F7B3EBA5
:1003F000FA6C48B3A37D4276522B441367EACDE6EC
:100400006A99EDCD259E8EEA500D358D85FFEBCF97
:100410005CE4BA43019BBC710DDB3A1DC2273D9FD2
:10042000AF690683AE8F095B2C1BAC8E70141178FC
:10043000EF71D5D047EDBA6BFE5A48D7F820CB19EB
:10044000E01D5B331C5790EB37D1A241F0FDC0316A
:100450005D7483514C71A9B9B3B3D83F98CF9AD684
:10046000073CF6421D5419F2F46F0B48E493CF7D1C
:1004700058EE78D8617B56088EE6E73ECC2D6F6744
:100480000964BAE7C43264BFA9DB83799DBEDD6E1F
:100490002AF8F8A64F64854B594BD3ED8733CB86AA
:1004A0005280D49E7EB16B50311516FA6258C888BE
:1004B00098BB3DB91F415F26F3F2BFC2FA75F76DD5
:1004C000A7B803B320C587F4D9E449F249C8CDF5EC
:1004D0003CA506FFAC391CD2BA5121EB83648DB523
:1004E00091D4F76C167F738BF05F4FB4475954D398
:1004F000000019C7452270271BC80001DF029C07B6
:100500000000DE6124A8B1C467FB02000000000403
:10051000595A000101010101010101010202020217
:10052000020202020203030303030303030404049D
:100530000404040405050505050606060606070766
:1005400007070708080808090909090A0A0A0B0B1E
:100550000B0C0C0C0D0D0D0E0E0E0F0F0F101011BD
:100560001111121213131414151516161717181843
:1005700019191A1A1B1B1C1D1D1E1E1F20202122AB
:1005800022232424252626272829292A2B2C2D2DF1
:100590002E2F30313232333435363738393A3B3C0E
:1005A0003D3E3F404142434445464748494A4C4D01
:1005B0004E4F50515354555658595A5B5D5E5F61CA
:1005C0006264656668696B6C6D6F7072737577785D
:1005D0007A7B7D7E8082838587888A8C8E8F9193BB
:1005E0009596989A9C9EA0A2A3A5A7A9ABADAFB1E2
:1005F000B3B5B7BABCBEC0C2C4C6C9CBCDCFD1D4C7
:10060000D6D8DBDDDFE2E4E7E9EBEEF0F3F5F8FA6C
:10061000FDFF29001E001F002000210022002300F2
:1006200024002500260027002D002E002A002B0084
:1006300014001A000800150017001C0018000C0018
:10064000120013002F0030003100390004001600A2
:10065000070009000A000B000D000E000F00330018
:10066000340000002800E1001D001B0006001900F6
:10067000050011001000360037000000E5005200B0
:100680003800E000E300E200000000002C00000061
:1006900000000000E6000151500051004F00010031
:1006A0003A003B003C003D003E003F00400041005E
:1006B0004200430044004500005C0100C25CC35C92
:1006C000C55CC65CC75CC85CC95CCA5C0100010053
:1006D0000100010001000100010001000100010012
:1006E0000100010001000100010001000100000003
:1006F0000100010001000100010001000100145C83
:1007000001000100010000000100010001000100E2
:1007100001000100000000000100000000000000D6
:1007200001000100010001000100010001000100C1
:1007300001000100010001000100010001000100B1
:1007400001000100010001000100010001000100A1
:100750000100010001000100010001000100010091
:100760000100010001000100010001000100010081
:100770000100010001000100010000000100010072
:100780000100010001000100010001000100010061
:100790000100000001000100010001000100010052
:1007A0000000000001000000000000000100010046
:1007B0000100010001000100010001000100010031
:1007C0000100010001000100010001000100010021
:1007D0000100010001000100010001000100010011
:1007E0000100010001000100010001000100010001
:1007F00001000100010001000100010001000100F1
:1008000001000100010000000100010001000100E1
:1008100001000100010001000100010001000000D1
:1008200001000100010001000100010000000000C2
:1008300001000000000000000100010001000100B3
:10084000010001000100E4089D16D016000002001E
:100850000200E0089D16D016000003000100E50824
:100860009D16D016000004000200CA089D16D0167E
:10087000920805000100E6089D16D016000006004B
:100880000200CC089D16D016000007000200E20806
:100890009D16D016000008000100E7089D16D0162E
:1008A000000009000200CE089D16D0166D080A004F
:1008B0000200D0089D16D0166D080B000200D20869
:1008C0009D16D0166D080C000200D4089D16D01697
:1008D0006D080D000200D6089D16D0166D080E009A
:1008E0000200D8089D16D0166D080F000200DA0825
:1008F0009D16D0166D0810000200DC089D16D0165B
:100900006D0811000200DE089D16D0166D08120059
:100910000200E8089D16D016000013000200EA0845
:100920009D16D016000014000100EC089D16D0168C
:100930000000150000000000F3075C280000090219
:100940005B00030100A0FA0904000001030101009B
:10095000092111010001224000070581030800015F
:100960000904010002030000000921110100012215
:100970002200070582032000010705030320000170
:1009800009040200010300000009211101000122F5
:10099000BC000705840320000112010002000000D2
:1009A00008504B21110200010203011C037600696B
:1009B0000061006C003A00660036003400630032CB
:1009C0000062003300630000000E0342004D003659
:1009D00000300056003200000018034B0050002089
:1009E00000520065007000750062006C00690063D1
:1009F000000000040309040011241FBECFEFDAE059
:100A0000DEBFCDBF04B603FE18C080912B0A9091C3
:100A10002C0AA0912D0AB0912E0A8730904BA74046
:100A2000B04B59F410922B0A10922C0A10922D0AF6
:100A300010922E0AE0E0F8E309952AE0AAEAB2E073
:100A400001C01D92AB32B207E1F712E0A0E0B1E0C5
:100A5000EAE9F3E902C005900D92AA3AB107D9F785
:100A60000E94CD3D0C9479490C940000E8EDF0E033
:100A700080818E7F80831092E2001092DA001092C3
:100A8000E100A0EEB0E08C9181608C9380818F7743
:100A9000808319BCA7EDB0E08C918E7F8C93808110
:100AA0008F7E80831092B30908952091E4003091E5
:100AB000E50095E6A9012091EC00822F817020FFCE
:100AC00006C08091E80080FF06C080E00895209174
:100AD000E80022FD1AC08091D809882389F085306A
:100AE00089F08091EB0085FD0FC02091E4003091EA
:100AF000E50042175307F9F29150E1F684E00895BA
:100B000082E0089583E0089581E00895EF92FF92D6
:100B10000F931F93CF937C018B010E945505C82F23
:100B2000811117C08091E80085FD0BC08091E8001D
:100B30008E778093E8000E945505882399F3C82F8B
:100B400008C0F70181917F018093F10001501109E4
:100B500049F78C2FCF911F910F91FF90EF9008953F
:100B60008091DA0987FF13C08091E80082FF06C0F8
:100B70008091E8008B778093E80004C08091D809C9
:100B80008111F2CF08958091D8098823D9F38091FB
:100B9000E80080FFF8CF8091E8008E77ECCF982FA7
:100BA0009093E900242F762F50E0891731F070914F
:100BB000EC002091ED005091F00021FD07C09F5FF7
:100BC000973071F78093E90081E008953091EB0050
:100BD0003E7F3093EB003091ED003D7F3093ED0090
:100BE0003091EB0031603093EB007093EC00209378
:100BF000ED005093F0002091EE0027FDE0CF80E063
:100C00000895B0E0A0E0E7E0F6E00C94DC47C8ED22
:100C1000D0E088818F7E8883E7EDF0E0808181607D
:100C2000808384E082BF81E08093B30988818E7FD6
:100C3000888302EE10E0F80110821092DA0081EE53
:100C4000C82ED12CF601108288818F778883888105
:100C50008068888388818F7D888319BC1092D80929
:100C60001092D9091092D7091092D60990EEE92E68
:100C7000F12CF70180818B7F80838881816088835C
:100C800042E060E080E00E94CF05F60180818E7F27
:100C90008083F80180818160808380818860808387
:100CA000F70180818E7F8083888180618883CDB7C2
:100CB000DEB7E8E00C94F847FC018091E0099091E0
:100CC000E10986179707A0F06115710529F4909145
:100CD000E8009E779093E80090E06115710551F46B
:100CE000911108C08091E80082FF34C080E008952F
:100CF000BC01F2CF8091D8098823C1F18530C1F1C0
:100D00008091E80083FD30C08091E80082FDEACF49
:100D10008091E80080FFE1CF8091F3002091F20004
:100D2000382F6115710519F02830310558F091E020
:100D30002830310509F090E02091E8002E772093CB
:100D4000E800CBCF81918093F100615071092F5F52
:100D50003F4FE7CF8091D809882341F0853041F09B
:100D60008091E80083FFBECF81E0089582E008957E
:100D700083E0089508958091B50908952FB7F894F8
:100D80006091AA097091AB098091AC099091AD096D
:100D90002FBF0895209126012223C1F02091AE0992
:100DA00027FF14C0E62FE695E695E695EE31F8F4B8
:100DB000E80FF92FF11D677021E030E001C0220F2C
:100DC0006A95EAF78281822B82830895FC0132962C
:100DD0002FEF30E04191641751F02F3F19F441118A
:100DE00001C0232F3F5F3630A9F72F3F09F4089544
:100DF000820F911D27FD9A95FC0162830895209131
:100E0000A7093091A8092817390771F09093A8090C
:100E10008093A709E091A509F091A609309721F0E8
:100E20000084F185E02D099508952091A309309162
:100E3000A4092817390771F09093A4098093A30996
:100E4000E091A509F091A609309721F00680F7817D
:100E5000E02D09950895E091A509F091A609309734
:100E600029F00190F081E02D0995089580E0089522
:100E7000CF93DF93EC014091BF085091C00860917F
:100E8000C1087091C2082FB7F8948091AA09909177
:100E9000AB09A091AC09B091AD092FBF841B950B94
:100EA000A60BB70B843F9140A105B10518F58091C1
:100EB000BF089091C008A091C108B091C20880936A
:100EC000BB089093BC08A093BD08B093BE0884EF04
:100ED00091E0A0E0B0E08093B7089093B808A093A9
:100EE000B908B093BA08D093C708C093C608DF9179
:100EF000CF9108950E94BE066093BB087093BC0812
:100F00008093BD089093BE0882E390E0A0E0B0E03B
:100F1000E2CFFC018481862351F492819923B9F0B8
:100F20006923808583FF05C081E061110FC080E0E7
:100F30000895892F8F7092959F70982B862F8F70B0
:100F400062956F70682B81E09613F1CF089581E070
:100F5000FDCF452B39F0682381E06F3F09F080E039
:100F60008170089581E0FCCFDC016091B30880912D
:100F7000B408962F891301C00895292F30E0F90194
:100F8000EE0FFF1FE555F74F408151814A175B0770
:100F9000A1F487E08A9FA0018B9F500D11244D582A
:100FA000574F81E0FA0184839613E6CF2F5F3F4FBE
:100FB000237033272093B30808952F5F3F4F922F5C
:100FC0009370D8CF1092100810920F08E3E7F8E062
:100FD0008581811102C014821682379688E0EB3A2F
:100FE000F807B1F70895B0E0A0E0E9EFF7E00C945E
:100FF000DA478FEF9FEF4430510508F469C0409104
:10100000AE0941FB882780F990E0880F991F42FBC9
:10101000002700F910E0000F111F000F111F802B97
:10102000912B40FBCC24C0F8D12C8C299D2943FB6B
:10103000222720F9C22FE0E0DE2F53E0CC0FDD1F86
:101040005A95E1F78C2B9D2B44FBAA27A0F9B0E021
:10105000E4E0AA0FBB1FEA95E1F78A2B9B2B45FB27
:10106000EE27E0F9F0E0A5E0EE0FFF1FAA95E1F70B
:101070008E2B9F2B46FB222720F930E0B6E0220F73
:10108000331FBA95E1F7822B932B47FB222720F9D8
:1010900030E03695322F222737952795822B932BD8
:1010A0002091AF09322F3170F32EE82EF92A2695C0
:1010B0002170B22EBB0CA82EBF28C501BB0CAA0BF9
:1010C000BB0BFB0180839183A283B38390E080E01C
:1010D000CDB7DEB7EAE00C94F647EAECF8E084819D
:1010E00095812AE030E0B9010E94BE47609321015A
:1010F000868180932001828580931F01848580935F
:101100001E0186859785B9010E94BE4760931D0127
:10111000808980931C01828980931B01848980933C
:101120001A0108958091CA089091CB0890932301E9
:1011300080932201089581152CE5920741F42091B6
:10114000180130911901232B11F490E080E00895EB
:10115000FA01811101C0FB0109950895E6EEF9E05D
:10116000248130E1231B08F420E024838091F806D9
:1011700081608093F8060895E6EEF9E0248130E17D
:10118000230F08F42FEF24838091F8068160809369
:10119000F80608959091E609937071F08093E7093D
:1011A0006093E809493708F048E74093E9098091DE
:1011B000F806822B8093F8060895E6EEF9E0438165
:1011C00020E1421B08F440E0818121E0628190E04F
:1011D0000E94CA080895E6EEF9E0438120E1420F3B
:1011E00008F44FEF818121E0628190E00E94CA08FB
:1011F0000895E6EEF9E0628120E1621B08F460E008
:10120000818121E0438190E00E94CA080895E6EEC2
:10121000F9E0628120E1620F08F46FEF818121E043
:10122000438190E00E94CA080895E6EEF9E08181CA
:1012300021E0438162818850990B0E94CA08089579
:10124000E6EEF9E0818190E021E043816281089639
:101250000E94CA0808959091E609937061F0811187
:101260000BC094609093E609109217018091F806E4
:10127000862B8093F8060895873210F09869F2CF94
:10128000880F880F982BEECF8091E609869586957A
:10129000815009F486E261E00E942B090895809153
:1012A000E609869586958F5F873208F081E061E0D8
:1012B0000E942B090895EF92FF920F939701201B34
:1012C00031092F3F310519F010F02FEF30E0209554
:1012D000382F320F08F43FEF832F0F91FF90EF90DC
:1012E0000895EF92FF920F939701201B31092F3F32
:1012F000310519F010F02FEF30E0322F3095482FE4
:10130000430F08F44FEF842F620F0F91FF90EF907F
:101310000895EF92FF920F93972F093438F4B70195
:10132000601B71096F3F710519F010F06FEF70E0ED
:10133000485F5F4F4131510540F0A901485F5F4F61
:101340004131510510F06FEF70E06095482F460F66
:1013500008F44FEF842F37FF02C02D5F3F4F3595C4
:101360002795359527956091E709620F792F0F91A1
:10137000FF90EF900895EF92FF920F931F930E0D41
:101380001F2D111DF90137FF03C0F195E195F109FA
:1013900024E0EE0FFF1F2A95E1F7EF3FF10519F06A
:1013A00014F0EFEFF0E09A0157FF03C0319521955B
:1013B000310994E0220F331F9A95E1F72E173F076A
:1013C0000CF4F901E00FF11FEF3FF10519F010F0F7
:1013D000EFEFF0E0E095282F3E2F230F08F42FEFDA
:1013E000822F1F910F91FF90EF900895EF92FF923F
:1013F0000F93970195E0099F200D311D11242F3F78
:10140000310519F010F02FEF30E02095382F320F12
:1014100008F43FEF832F0F91FF90EF90089522E89B
:10142000241B08F420E0620F08954095282F429F66
:10143000412D1124842F0895E42FF0E0EE0FFF1FBB
:10144000E652FE4F9081921B97FD9195292F38E12E
:10145000239F212D1124620F08950F931F9310E0F5
:10146000F801EE0FFF1FE652FE4F9081905797FD57
:101470009195000F111FF801E552FE4F00810052B7
:10148000110B2003F001219FF00D112408E310E05F
:10149000091B110997FD139540039001419F300DE1
:1014A0001124E20FF31F9F01220F331F2E0F3F1F46
:1014B00037FF02C021583F4F220F232F221F330B2B
:1014C000620F1F910F9108950F931F93522F10E0F9
:1014D000F801EE0FFF1FE552FE4FA081A052BB0B9B
:1014E0009D015203F001539FF00D1124000F111FB5
:1014F000D801A652BE4F0C910057110B400390012A
:10150000419F300D11242E0F3F1F37FF02C0215C79
:101510003F4F96E0359527959A95E1F7620F1F9119
:101520000F9108950F931F93522F10E0F801EE0FC3
:10153000FF1FE552FE4FA081A052BB0B9D0152033D
:10154000F001539FF00D1124000F111FD801A65276
:10155000BE4F0C910057110B40039001419F300D7D
:1015600011242E0F3F1F37FF02C021583F4F220F7B
:10157000232F221F330B620F1F910F910895EF92BB
:101580000F93972F23E0029FB00111247595679563
:101590006E0D792F0F91EF900895322F50E0FA01E0
:1015A000EE0FFF1FE552FE4F9081905297FD9195EF
:1015B000440F551FFA01E652FE4F2081231B330BC7
:1015C000290F311D97FD3A95620F0895E42FF0E041
:1015D000EE0FFF1FE552FE4F6081621B0895E42F5E
:1015E000F0E0EE0FFF1FE652FE4F6081621B089590
:1015F000622F0895E42FF0E0EE0FFF1FE652FE4F3A
:10160000408134EE439F412D1124E82FF0E050E05B
:10161000445E5F4FDA01A21BB1099D01B7FF03C011
:1016200031952195310993E0220F331F9A95E1F707
:10163000AF01421B530B9A0157FD20E0582F259F05
:10164000212D1124822F08950E94BE1808950E9412
:10165000E1180895FC019B01009729F480E077FFD1
:101660002BC080E80895AC0197FF04C0442755279C
:10167000481B590BB901640F751F37FD10C0241B9F
:10168000350BC901A5E0880F991FAA95E1F70E94C3
:10169000094880E2861BF7FF0FC081950895CB01B2
:1016A00065E0880F991F6A95E1F7BA01621B730B19
:1016B0000E94094880E6EECF0895EF920F93CF93F2
:1016C000DF93D72FC82FC9010E19BA010E942A0B28
:1016D000602F681B7D2F8C2FDF91CF910F91EF90A2
:1016E00008950F93CF93DF93D72FC82FC901BA0165
:1016F0000E942A0B682F600F7D2F8C2FDF91CF91D6
:101700000F910895EF920F931F93CF93DF93D62FEE
:10171000C72F182FC9010E19010FBA010E942A0BF9
:10172000081B202F219F212D1124822F6D2F7C2F0C
:10173000DF91CF911F910F91EF9008950F931F9319
:10174000CF93DF93D62FC72F182FC901212F201B2E
:10175000022FBA010E942A0B982F990F990F891B0B
:10176000800F282F219F212D1124822F6D2F7C2F58
:10177000DF91CF911F910F910895E82F86FDE0959D
:101780002E2F2F7086FD2F5FE695E695E695E67085
:10179000F0E0E358FE4F9181929F902D212D11246E
:1017A00092959F702295207F922B2081920F87FD2A
:1017B000919580E8890F08950F931F93CF93DF933E
:1017C0008B01D82FC42F822F0E94BD0BEC2FF0E08D
:1017D000EE0FFF1FE652FE4F90819058890F87FD54
:1017E0008195880F682F2CE0629F612D1124600F76
:1017F000712F8D2FDF91CF911F910F9108954091FF
:1018000013015091140125E038E0429FC001439F2D
:10181000900D529F900D1124875E994C9093140166
:1018200080931301890F0895AC018230910508F46B
:1018300008959FEF413E8EE1580740F49A0195E0EC
:10184000369527959A95E1F798E0920F61E0E62F9B
:10185000E90FFF27FF1F9F0135952795822F229FB4
:10186000F001239FF00DF00D11244E175F0738F49F
:101870009FEF920F961758F78FEF860F08952F3F1F
:10188000E9F361E0620FF6CF0F93CF93DF93D72F89
:10189000C82F47FD419588E390E0841B910947FDDF
:1018A0009395889FB001899F700D700D1124229F20
:1018B000C001239F900D900D1124860F971F0E9449
:1018C000140C982F990F890F682F600F7D2F8C2F84
:1018D000DF91CF910F91089530E020E0869F212D78
:1018E000969F200D311D1124C90108952091EA0908
:1018F00030E1230F08F42FEF60E1822F90E00E9487
:101900006C0CBC0188EB9BE00E94BE4790E080E03D
:101910000895AF92BF92CF92DF92FF920F931F93E1
:10192000CF93DF93362F472FE82FF0E0EE5EFA4F8C
:1019300071110FC0E4918E2F2E2F6E2F722FDF9119
:10194000CF911F910F91FF90DF90CF90BF90AF90FC
:101950000895C72FD0E02491F22E022F10E056E018
:10196000659FC0011124EFEFF0E0BF010E94BE4768
:10197000832F90E0880F991F35E5369FD001379F60
:10198000B00D11248A1B9B0B982F990F980F6F0194
:10199000CC1ADD0AC09ED001C19EB00DD09EB00D04
:1019A00011248B2F499FA0011124452F55276F012A
:1019B000C41AD50AC09EA001C19E500DD09E500DE4
:1019C00011245F01A91AB108AC9E6001AD9ED00C34
:1019D000BC9ED00C1124CD2CDD24EC19FD09E09F18
:1019E000E001E19FD00DF09FD00D1124ED2F62306A
:1019F0007105A1F050F46115710509F49ECF6130B5
:101A0000710581F0EB2F852F98CF6430710569F057
:101A100080F06630710509F490CFF4CFE22F2B2FC0
:101A20008D2F8BCFE22F252F88CFEB2F822F2D2FBD
:101A300084CF2B2F8F2DE52F80CF2F923F925F9257
:101A40006F927F928F929F92AF92BF92CF92DF92CE
:101A5000EF92FF920F931F93CF93DF93CDB7DEB733
:101A60002A970FB6F894DEBF0FBECDBF8B837E835F
:101A70006D83209127018EE0289F802D11248F8374
:101A8000825F89838A83863410F035E43A838091BB
:101A9000EC098C83FF81EF2FF0E0FA87E987CF0113
:101AA000880F991F9C0126523E4F69013B81832F6D
:101AB00090E0FC013196F887EF838A819985981729
:101AC000E8F081E0E981E53408F080E02A960FB67D
:101AD000F894DEBF0FBECDBFDF91CF911F910F9164
:101AE000FF90EF90DF90CF90BF90AF909F908F903E
:101AF0007F906F905F903F902F900895E985FA85D1
:101B0000EC59FD4F8081909128018923F1F02090BC
:101B1000E7093090E8092F8138852451364F390183
:101B20005B8010E0FC815F16D0F02091E909129FE4
:101B3000112D1124B101812F0E94890C462F282FCD
:101B4000672F89859A850E94270B29853A852F5F03
:101B50003F4F3A87298732E0C30ED11CAECFF30145
:101B600081913F01F601A080A81ABB088180F30192
:101B70008781881A9908AA9C9001AB9C300D300D82
:101B80001124889CC001899C900D900D1124820F16
:101B9000931F0E94140C082F6091EA0921E0620F44
:101BA00008F46FEFF301EE0FFF1FEC5EF94085893B
:101BB00096890E946C0C7C019401A501B101812FD2
:101BC000ED81FE8109951B015394182FABCFB0E036
:101BD000A0E0EDEEFDE00C94DC478C01C091270104
:101BE0008EE0C89FC02D11242EE0D22EDC0ECD2C0D
:101BF00025E42D1510F495E4C92E2091EA0931E071
:101C0000230F08F42FEF30E050E040E06FEF7FEF5C
:101C100080E090E00E9416497901D0E02C2FCC158D
:101C200050F081E0F4E4FD1508F480E0CDB7DEB7B4
:101C3000E8E00C94F847FE01EC59FD4F808190914B
:101C40002801892311F14091EC094150042E000C28
:101C5000550B47FF1CC0C7016091EA0921E0620FE4
:101C600008F46FEF0E946C0CAC016091E709709171
:101C7000E8098091E909F80109950E94890C462F2D
:101C8000282F672FCE010E94270B2196C7CFFA017C
:101C9000E451F64F818982130AC0FA01EE0FFF1F4B
:101CA000E451F64F818D928D8E159F05A8F241501B
:101CB0005109CFCFB0E0A0E0E0E6FEE00C94DD47B4
:101CC0007C01C09127018EE0C89FC02D11241EE029
:101CD0001C0F012F163408F005E46091EA0966959F
:101CE000669521E0620F08F46FEF8091E209909110
:101CF000E3090E946C0CD82ED0E0C01748F081E0B8
:101D0000153408F080E0CDB7DEB7E7E00C94F94772
:101D1000FE01EC59FD4F808190912801892391F0BB
:101D20006091E7097091E8098091E9092D2D4C2F08
:101D3000F70109950E94890C462F282F672FCE01A5
:101D40000E94270B2196D9CFB0E0A0E0EAEAFEE09E
:101D50000C94D9476C01C09127018EE0C89FC02D1B
:101D600011241EE01C0FB12E163410F035E4B32EF2
:101D70006091EA09669566958091E2099091E30980
:101D80000E946C0CF82E80E48F0D0E94BD0B90E831
:101D9000A92EA80E8F2D0E94BD0B20E8922E980E22
:101DA000D0E0CB1548F081E0153408F080E0CDB7E5
:101DB000DEB7EBE00C94F547FE01EC59FD4F808156
:101DC000909128018923A1F06091E7097091E809B9
:101DD0008091E909EF2C0C2F292D4A2DF601099548
:101DE0000E94890C462F282F672FCE010E94270BB7
:101DF0002196D7CFB0E0A0E0E0E0FFE00C94D74719
:101E00005C01C09127018EE0C89FC02D11241EE007
:101E10001C0FF12E163410F035E4F32E6091EA0910
:101E200066958091E2099091E3090E946C0C782EEE
:101E3000D0E0CF1548F081E0153408F080E0CDB750
:101E4000DEB7EDE00C94F347FE01EC59FD4F8081C5
:101E5000909128018923C9F1CE01880F991F8C56D2
:101E60009E4FFC01EA5BFF4F2081422F4057550BEC
:101E70006A01895B9F4FFC018081282F2052330B20
:101E80004901449F9001459F300D300D1124889CDD
:101E9000C001899C900D900D1124820F931F0E9408
:101EA000140C082F6091E7097091E8098091E90905
:101EB000E72C9401A601F50109950E94890C462F93
:101EC000282F672FCE010E94270B2196B2CFB0E0BA
:101ED000A0E0EDE6FFE00C94DC477C01C091270117
:101EE0008EE0C89FC02D11241EE01C0FD12E163489
:101EF00010F035E4D32E6091EA0966958091E209ED
:101F00009091E3090E946C0CC82ED0E0CD1548F0EA
:101F100081E0153408F080E0CDB7DEB7E8E00C943E
:101F2000F847FE01EC59FD4F8081909128018923EB
:101F300011F1CE01880F991F8C569E4FFC01E95B71
:101F4000FF4F20812052330B8A5B9F4FFC01408161
:101F50004057550B6091E7097091E8098091E909B4
:101F60000C2DF70109950E94890C462F282F672F09
:101F7000CE010E94270B2196C9CF90915A05803F30
:101F800059F480915B0587FF0DC010925B0591119C
:101F90000BC01092520508C0813F81F480915B050F
:101FA00018169CF3992381F080915C0590915D0552
:101FB000892B09F064C0109251050895823F49F4BD
:101FC00097FFF0CF10925A0580915B058111ECCFFD
:101FD000E0CF833F19F41916ACF3E4CF20915C05F0
:101FE000893F29F41216F4F610925C05DBCF8A3F84
:101FF00019F427FFD7CFF8CF20915D058B3F29F447
:1020000027FFD0CF10925D05CDCF8C3F19F412166B
:10201000CCF3C8CF843F31F4809159058E7F8093F3
:102020005905C0CF853F21F4809159058D7FF7CFA9
:10203000863F21F4809159058B7FF1CF873F21F4B2
:1020400080915905877FEBCF883F21F48091590516
:102050008F7EE5CF8D3F31F4809153058E7F809345
:102060005305A0CF8E3F21F4809153058D7FF7CF8C
:102070008F3F09F097CF809153058B7FF0CF089564
:102080008091530580FF0CC060911B0170E0759535
:102090006795759567956115710549F1862F0895C6
:1020A00081FF06C060911B0170E075956795F3CFC5
:1020B00060911B0182FD0BC0909151059923A1F005
:1020C00060911A0180911B01961738F0682F70E01B
:1020D0006038710500F38FE70895899FC0011124CE
:1020E00070E00E940948F4CF61E070E0D7CF81E052
:1020F0000895809153056091D2087091D30880FFB4
:1021000016C020911F01269FC001279F900D11240A
:10211000BC0176956795769567956038710508F0EE
:1021200043C06115710509F441C0862F089581FFF0
:102130000BC020911F01269FC001279F900D1124E5
:10214000BC0176956795E9CF82FF09C080911F0198
:102150009B01829FB001839F700D1124DECF2091DF
:1021600052052223D1F290911E0180911F01482F28
:1021700050E0291748F0CB01849FB001859F700D76
:10218000949F700D1124C9CF289F90011124269F80
:10219000A001279F500D369F500D1124692F70E02C
:1021A000CA010E94BE47B9CF8FE7089581E0089524
:1021B000803F31F40E947910819580935B050895EA
:1021C000813F19F40E947910F8CF823F31F40E94C8
:1021D0007910819580935A050895833F19F40E94E0
:1021E0007910F8CF893F29F40E94401080935C0554
:1021F00008958A3F21F40E9440108195F7CF8B3FCC
:1022000031F40E944010819580935D0508958C3FC4
:1022100019F40E944010F8CF843F31F480915905A1
:102220008160809359050895853F21F48091590577
:102230008260F7CF863F21F4809159058460F1CF09
:10224000873F21F4809159058860EBCF883F21F4C6
:10225000809159058061E5CF8D3F31F48091530520
:1022600081608093530508958E3F21F4809153053A
:102270008260F7CF8F3FB9F7809153058460F1CF2B
:1022800080E00895F894E82FE295EF70F0E031A136
:10229000282F2F7081E090E001C0880F2A95EAF77F
:1022A000982F9095932391A392A1892B82A3789440
:1022B00008959091AE0992FF06C0282F287128300A
:1022C000F9F4877F846093FF06C0282F2871283196
:1022D000F1F4877E84612091AF0920FF06C0382F7A
:1022E00038713830D9F4877F816021FF06C0282FEC
:1022F00028712831D1F4877E816194FD877E08950D
:10230000282F24712430F9F68B7F8860DCCF282FAA
:102310002471243101F78B7E8861DDCF382F317134
:10232000313019F78E7F8860E0CF282F217121315D
:1023300021F78E7E8861E1CFCF93DF93EC01823865
:102340009105A9F1D8F58133910509F496C048F5B6
:102350008932910509F48AC08A9709F495C0C1159C
:1023600021E5D20708F0BCC0C11530E5D30708F05D
:1023700014C1C83ED10508F09CC0C03ED10560F52F
:10238000C83AD10508F087C0C53AD10508F0FDC0AC
:10239000C130D10509F12097F9F0C430D105E0F43E
:1023A00040C08533910509F45AC0C997C1F68091A0
:1023B000AE09837089F0C0EED0E00EC0833E910577
:1023C00099F170F4803E910501F1823E910539F654
:1023D0008091AE0982FD21C0CE01DF91CF91089599
:1023E000863E910561F1873E910571F1843E91052C
:1023F00009F0B5CF8091AF0981FFEECF8091AE0992
:10240000C7EED0E084FD0DC0E7CF8091AE0980FD1E
:1024100012C19091AF0990FFDFCFC3EED0E084FFEF
:10242000DBCFD0E0C0E0D8CF8091AE0982FD06C1FD
:102430009091AF0990FDBFCF84FFCECFF2CF8091B6
:10244000AE0983FDDDCFC8CF8091AE0983FDF9C011
:102450009091AF0991FFF0CFC4EED0E0BDCF809155
:10246000AE0985FFB9CFC9E2D0E0B6CF8091AE0901
:1024700085FFB2CFC5E3D0E0AFCF8091AE0986FF34
:10248000ABCFCAE2D0E0A8CF8091AE0986FFA4CF3F
:10249000C1E3D0E0A1CFCF3BD10518F6C85AD0E0B8
:1024A000CC0FDD1FC85CDE4F0990D881C02DD464ED
:1024B00093CFC11540E2D40758F4C11581E0D80785
:1024C00008F08ACFC03FD10508F4ABCFD06584CFE8
:1024D000C11590E4D90708F4A4CFDF70D06A7CCF8F
:1024E000C11525E5D20700F5C11534E5D30708F07D
:1024F0008AC0C11543E5D40708F071C0C11582E553
:10250000D80708F467C0CE018370992721E030E036
:1025100002C0220F331F8A95E2F7C695C69580E266
:10252000C89FE001112452C0C11599E5D907A8F44C
:10253000C11528E5D20708F06BC0C11536E5D307F1
:1025400008F06FCF8C2F0E945911C82FD0E0DC2FDC
:10255000CC27CC27DF71D0623FCFC1154AE5D40725
:1025600008F45BC0CE0190568115904208F059CF17
:102570008D2F8F710E94591190E0982F88278827FE
:102580009F719C012C2BE901E6CFC55AD0E0CB5CB2
:10259000DE4FC881D0E0D0641FCFCE01E4E0969535
:1025A0008795EA95E1F783702C2F26952695237061
:1025B00040E2249F90011124382B8C2F8370C1E0BE
:1025C000D0E002C0CC0FDD1F8A95E2F7C22BD32BDF
:1025D000DC6802CFDC2FCC27C16FD06AFDCECE01E4
:1025E0008370992721E030E002C0220F331F8A95C3
:1025F000E2F7C695C69590E2C99FE0011124C22B6F
:10260000D32BDA68E9CEDC2FCC27C46FD06AE4CEB6
:10261000DC2FCC27C06FD06ADFCE8C2F8F700E944A
:10262000591134E0D695C7953A95E1F7CF709C2FB4
:10263000EC01D069D1CEC9E3D0E0CECEC2EED0E07D
:10264000CBCEC6EED0E0C8CE80912205882331F0F3
:102650001092220510922105109220050895809570
:102660009091160A98239093160A08958095909158
:10267000EA0798239093EA0708959091EA07892B37
:102680008093EA0708951092FF041092FE041092BE
:10269000FD040895909126019923D1F09091AE09FF
:1026A00097FF16C0E82FE695E695E695EE31E0F443
:1026B000F0E0E455FD4F282F277081E090E001C045
:1026C000880F2A95EAF7809592818923828308955D
:1026D000EEEAF2E09191891303C0DF0111971C9299
:1026E00092E0E43BF907B1F708952091FC04909142
:1026F000BB04291302C080E0089530E0F90153E0E3
:10270000EE0FFF1F5A95E1F7E454FB4F518156132A
:1027100006C05081581303C05281541304C02F5F68
:102720003F4F2770E6CF81E008958091FC0490919F
:10273000BB04981301C008958F5F8770FACF292FCB
:10274000953078F58E3068F590E03EE0239F800D5F
:10275000911D1124682F677023E0969587952A951F
:10276000E1F7FC01EE0FFF1FE80FF91FE856FB4FE2
:1027700050E040E080E0219130E0062E02C0369526
:1027800027950A94E2F721703327042E01C0220F07
:102790000A94EAF7822B4F5F5F4F4330510559F798
:1027A000089580E00895292F953098F58E3088F5AA
:1027B00090E03EE0239F800D911D1124282F27706B
:1027C00041E001C0440F2A95EAF723E096958795EA
:1027D0002A95E1F7FC01EE0FFF1FE80FF91FE856FD
:1027E000FB4F30E020E070E05191DF011197CB0109
:1027F000022E02C0969587950A94E2F78170819522
:102800008527842385278C932F5F3F4F2330310505
:1028100059F7089592959F70963091F058F4925F11
:102820009F70923058F4803F19F030F4883E30F4B5
:1028300081E008959A5FF4CF843FD1F380E008955A
:10284000883EB0F3813FD1F7F3CF9C013A95211533
:102850003F4150F5FC01EE27F170BC016627727014
:10286000AC01442754709C012227387094FF0EC09D
:1028700080E1EF2B09F480E0672B09F08062452BA3
:1028800009F08064232B89F08068089581E0EF2BA4
:1028900009F480E0672B09F08260452B09F0846021
:1028A000232B19F08860089580E008958093170A1B
:1028B0006093180A24E630E042E050E067E17AE0F5
:1028C00080EA0E949D4721E0892B09F020E0822FB9
:1028D00008958093B0097093B2096093B109809113
:1028E000D8098430F9F48093E9008FEF9091E800E3
:1028F000815095FD06C095ED9A95F1F70000811184
:10290000F5CF8091E80085FF0DC050E040E063E026
:1029100070E080EB99E00E9486058091E8008E7758
:102920008093E8000895BC0184E00E946914089532
:10293000BC0183E00E94691408959C0184E08093A7
:10294000E9009FEF8091E800915085FD06C085ED7C
:102950008A95F1F700009111F5CF8091E80085FF8D
:102960000CC050E040E066E070E0C9010E948605BE
:102970008091E8008E778093E8000895CF93DF93ED
:10298000EC01809126018823B1F18091AE0987FF87
:1029900032C060E284E08093E9008FEF9091E8001C
:1029A000815095FD06C095ED9A95F1F700008111D3
:1029B000F5CF8091E80085FF1BC08091260170E073
:1029C00050E040E0811104C050E040E068E070E079
:1029D000CE010E9486058091E8008E778093E80002
:1029E00080E2FE01A6EBB9E001900D928A95E1F735
:1029F000DF91CF91089568E081E0CDCF81E08093B1
:102A0000E00080E28093D8001092C9008FE19EE43C
:102A10000197F1F700C0000087E090EBDC018093A4
:102A20002B0A90932C0AA0932D0AB0932E0A88E1CA
:102A30009CE00FB6F894A895809360000FBE909329
:102A40006000FFCF019708F40895EFE9FFE03197A8
:102A5000F1F700C00000F6CFCF93DF9380917E04A2
:102A6000882339F165EC8EEF0E94561461E08DEFFA
:102A70000E945614D0E0C0E0C093170ADE01A250B5
:102A8000BD4FE8E1FAE08D9181938AE0E832F807E2
:102A9000D1F724E630E041E150E067E17AE080EAF6
:102AA0000E949D47892B09F02FC06096C03CD1053C
:102AB00019F710927E04809A31B33E7F21B32160D2
:102AC0004FB7F89480E894E0FC015191CF0168E0A1
:102AD00021BB000000C057FF31BB550F000000C0F4
:102AE00000C000C031BB00C06A9591F7F4E08239A4
:102AF0009F0751F74FBF8FE594E00197F1F700C0B2
:102B00000000DF91CF91089581E08093FC02D1CF46
:102B10000F931F93CF93DF930AEC18E0C7E5D2E041
:102B2000CE010E94BC48F80181938F012196CB37DA
:102B3000F2E0DF07A9F7CCE4D8E0FE01859194919B
:102B4000009711F0FC0109952C96F9E0C834DF07D5
:102B5000A1F7DF91CF911F910F9108950F931F93CC
:102B6000CF93DF93843030F5653020F54E3010F58B
:102B7000C42FD0E0CC0FDD1F2CE1629FC00DD11D12
:102B800011243CE8839FC00DD11D1124CE018796EE
:102B90000E94BC48082F10E0102F0027CE01889615
:102BA0000E94BC489801282BC901DF91CF911F9149
:102BB0000F91089590E080E0F8CF462F2091E8072C
:102BC0003091E907232B99F4703F39F4603F79F491
:102BD0008091E6079091E7070895843040F47530BE
:102BE00030F46E3020F4672F0E94AE15089590E007
:102BF00080E00895CF92DF92FF920F931F93CF93BF
:102C0000DF936C010091150A80912305082BC7E022
:102C1000D0E010E0FC2EC8010C2E02C095958795DF
:102C20000A94E2F780FD0CC02197A0F7F12C8F2DBC
:102C3000DF91CF911F910F91FF90DF90CF9008957A
:102C4000B6018C2F0E94DD150E949C11019761F343
:102C5000EECFCF93DF93EC010E94FA15BE010E94E4
:102C6000DD150E949C11DF91CF910895FC018681B2
:102C70009781009729F00E949C110E940A140895E0
:102C8000808191810E942916F8CFA5E0B0E0EBE4A5
:102C9000F6E10C94E14749835A8389819A8166233E
:102CA00099F0222389F00E94FA15182F682F898144
:102CB0009A810E94D31369817A81812F0E94DD1548
:102CC0002596E3E00C94FD470E949F13182FF3CF45
:102CD000FC01262F86819781009739F4408151812C
:102CE0006281738184810E944516089583E290E099
:102CF0000E94BC48833989F484E290E00E94BC4879
:102D0000883E59F485E290E00E94BC4891E080340E
:102D100009F090E0892F8170089580E0FCCFCF9377
:102D200084E090E00E94BC48C82F82E290E00E94BC
:102D3000BC48982F8C2FCF910895DB01FC0132966F
:102D4000259134914217530758F0FC013496659150
:102D50007491A901CD010E949C4890E080E0089503
:102D60008FEF9FEF08950F931F93CF93DF930AEC9C
:102D700018E0C7E5D2E0CE010E94BC48F80161919D
:102D80008F01681719F0CE010E94DA482196CB37DF
:102D9000F2E0DF0781F7DF91CF911F910F91089546
:102DA000DA019C012E5F3F4FF90145915491F901E1
:102DB00025913491A217B30758F0FC013496859100
:102DC00094910E949C480E94B31690E080E0089580
:102DD0008FEF9FEF0895CF93DF93CBE6D3E060E0D2
:102DE000CE010E94DA482196C11584E0D807B9F7D0
:102DF000DF91CF9108951F93CF93DF93122F8430EB
:102E0000E0F46530D0F44E30C0F4C42FD0E0CC0FE5
:102E1000DD1F9CE1699FC00DD11D11249CE8899F95
:102E2000C00DD11D1124632FCE0187960E94DA4870
:102E3000612FCE0188960E94DA48DF91CF911F91D1
:102E40000895CF93C82F6FEF811163E983E290E07B
:102E50000E94DA486FEFC11168EE84E290E00E94B0
:102E6000DA486FEFC11160E485E290E00E94DA4831
:102E7000CF910895CF93C92F682F84E090E00E94EE
:102E8000DA486C2F82E290E00E94DA48CF910895F0
:102E90009B01883070F49AE0899FB0011124655835
:102EA0007D4F4AE050E0C9010E94AC4890E080E0CC
:102EB00008958FEF9FEF0895AAE0B0E0E2E6F7E112
:102EC0000C94D84703EF18E0F12CE12C81E1C82ED7
:102ED0008FE2D82E98E3A92E9FE2B92E26E8822E03
:102EE0002EE2922EF801D182C082B382A282958214
:102EF0008482F58AE48ABE016F5F7F4F8E2D0E9427
:102F00004817892B29F489859A85F801938B828B40
:102F1000FFEFEF1AFF0A0A5E1F4F88E0E816F10480
:102F200009F72A96ECE00C94F447AAE0B0E0EBE94C
:102F3000F7E10C94D8470EE617E08CE5C82E87E041
:102F4000D82E9BE1E92E93E0F92E27E0922E3BE567
:102F5000A32E37E0B32E88248394D6010D931D93BE
:102F60006D014AE050E0B701CE0101960E94AC48E5
:102F7000F8013896DF01892D1D928A95E9F789813C
:102F80009A81D80111969C938E938F8112968C937F
:102F900012978D8113968C931397888514968C9332
:102FA0001497898515968C9315978B819C8117961C
:102FB0009C938E93169718961C9218978A8587FF74
:102FC0003CC01E961C921E921D9780FF03C0D80124
:102FD00018968C9281FF04C0F801908592609087CA
:102FE00082FF07C0D80118969C9118979460189694
:102FF0009C9383FF04C0F80190859860908784FFBC
:1030000007C0D80118969C911897906118969C93C8
:1030100085FF04C0F801808580628087015F1F4FB3
:10302000FAE0EF0EF11C8BE6E81683E0F80609F0F3
:1030300094CF2A96ECE00C94F447F801B686A58666
:10304000C4CFAAE0B0E0E7E2F8E10C94DC47EBE0A3
:10305000F7E080E5DF011D928A95E9F7E3E7F8E004
:1030600088E3DF011D928A95E9F78BE0C82E87E09F
:10307000D82E7F010BEC12E0F701D182C0824AE02A
:1030800050E0B801CE0101960E94AC4888E0FE01F4
:103090003196D60101900D928A95E1F789859A853E
:1030A000D70113969C938E931297BAE0CB0ED11C46
:1030B000E7E0EE0EF11C065F1F4F0B31F3E01F0738
:1030C000D9F62A96E8E00C94F84746E050E06CE127
:1030D00070E086EE99E00E94CA481092F8060895C2
:1030E000E6EEF9E085E2808380912A0190912B0140
:1030F000A0912C0181839283A3838FE784838FEF38
:1031000085830E9465180895A4E0B0E0EAE8F8E13C
:103110000C94DF47F62E042F122F8534910550F5BD
:10312000880F991F880F991FBC0166537E4F44E09A
:1031300050E0CE0101960E94864889818370AA8161
:10314000E82FF0E020EC829FC001112482509D4FB7
:10315000A80FB92FB11DFC92AB81A80FB92FB11DDB
:103160000C932C81820F911DDC011C93E258FB4FC4
:1031700081E080832496E5E00C94FB47FF920F9357
:103180001F93CF93DF93F82E062F142FD0E0C0E0CB
:10319000212F402F6F2DCE010E9484182196C53417
:1031A000D105B1F7E0E8F4E0F182008312833396B1
:1031B00084E0E239F807C1F7CDB7DEB7E5E00C945B
:1031C000FB478F3391051CF40E9484180895CF9714
:1031D000FC01EE0FFF1FE80FF91FE058FB4F618362
:1031E00040832283089590E080E00E94C448883E96
:1031F0009E4F19F40E947616089580E00895A4E089
:10320000B0E0E5E0F9E10C94DC470E94FA4665EC99
:103210008EEF0E94561460E08DEF0E94561410E06D
:1032200060E0812F0E9456141F5F1831C9F765ECCA
:103230008EEF0E94561461E08DEF0E94561410E04C
:1032400060E0812F0E9456141F5F103CC9F765ECA7
:103250008EEF0E94561463E08DEF0E94561460E0DA
:103260008FE00E94561460E080E10E9456146FEFD8
:1032700081E00E94561461E080E00E9456148FE3C2
:103280009CE90197F1F700C000000AEC11E098E119
:10329000C92EEE24E394F12CDD24D39444E050E0D5
:1032A000B801CE0101960E9486486A815B814C81FB
:1032B0008981837090E0E62FE695E695E695C89EB5
:1032C0009001C99E300D112424533D4FE20FF32F7E
:1032D000F11D6770D70101C0AA0F6A95EAF76081F6
:1032E0006A2B6083E52FE695E695E695E20FF32FCE
:1032F000F11D5770B70101C0660F5A95EAF750816A
:10330000562B5083E42FE695E695E695E20FF32FD2
:10331000F11D4770970102C0220F331F4A95E2F753
:10332000A9012081242B208384509D4FFC01D08251
:103330000C5F1F4FF2E0063C1F0709F0AFCF8091F2
:10334000FC028823B1F065EC8EEF0E94561460E019
:103350008DEF0E9456148CECE82E82E0F82E10E0DF
:10336000F70161917F01812F0E9456141F5F183170
:10337000B9F71092FC022496E8E00C94F8471F92EB
:103380000F920FB60F9211242F933F934F935F9399
:103390006F937F938F939F93AF93BF93EF93FF931D
:1033A0008091E10082FF09C08091E20082FF05C0A8
:1033B0008091E1008B7F8093E1008091DA0080FFB3
:1033C00024C08091D80080FF20C08091DA008E7FD9
:1033D0008093DA008091D90080FF9DC080E189BD93
:1033E00082E189BD09B400FEFDCF81E08093D80958
:1033F0008091B309811109C00E9436050E9401061F
:103400008091E20084608093E2008091E10080FF7F
:1034100017C08091E20080FF13C08091E2008E7F90
:103420008093E2008091E20080618093E2008091CD
:10343000D80080628093D80019BC85E08093D809B9
:103440008091E10084FF2BC08091E20084FF27C0BF
:1034500080E189BD82E189BD89B5982F917080FF97
:10346000FBCF8091D8008F7D8093D8008091E100C0
:103470008F7E8093E1008091E2008F7E8093E20056
:103480008091E20081608093E2008091D9098823D5
:1034900009F447C084E08093D8098091D8098091CD
:1034A000E10083FF27C08091E20083FF23C0809169
:1034B000E100877F8093E10082E08093D809109239
:1034C000D9098091E1008E7F8093E1008091E20034
:1034D0008E7F8093E2008091E20080618093E20021
:1034E00042E060E080E00E94CF058091F0008860BB
:1034F0008093F000FF91EF91BF91AF919F918F91D9
:103500007F916F915F914F913F912F910F900FBEDF
:103510000F901F90189519BC1092D8091092B309FA
:1035200074CF8091E30087FD93E09093D809B5CFE5
:1035300078941F921FB61F9211248F939F93AF937D
:10354000BF938091AA099091AB09A091AC09B09169
:10355000AD090196A11DB11D8093AA099093AB09F5
:10356000A093AC09B093AD09BF91AF919F918F919A
:103570001F901FBE1F9018959C014FB7F894809123
:10358000AA099091AB09A091AC09B091AD094FBFC8
:10359000821B930B08952FB7F8948091AA099091FC
:1035A000AB09A091AC09B091AD092FBF0895B0E06F
:1035B000A0E0EDEDFAE10C94D347682E809116015E
:1035C000861124C09091E60993702091150130E096
:1035D00081E09217130609F480E08170809329013D
:1035E0008091EB0990912801981739F08093280178
:1035F00040E060E080E00E94240B26E2261560F0A7
:10360000E62DF0E0E558F64B0C941D4881E0E5CF3F
:1036100080912901811119C080E0909127019F5F5D
:103620009093270181110CC082E080931701809153
:103630002901811105C0611003C083E08093170147
:10364000CDB7DEB7E1E10C94EF4740E060E080E009
:103650000E94240BE1CFC09127018EE0C89FC02DAE
:1036600011241EE01C0F012F163408F005E46091B0
:10367000E7097091E8098091E9090E94890CF62E0A
:10368000E72ED82ED0E0C01720F081E0153428F2C4
:10369000C3CFFE01EC59FD4F808190912801892311
:1036A00031F02D2D4F2D6E2DCE010E94270B21962E
:1036B000EACFC09127018EE0C89FC02D11241EE0E3
:1036C0001C0F012F163408F005E4E090E809F09093
:1036D000E909D091E7096D2F7E2D8F2D0E94890C6D
:1036E000D62EC72EB82E6091EA096D0F7E2D8F2D34
:1036F0000E94890CF62EE72EA82ED0E0C01728F6DF
:10370000FE01EC59FD4F908180912801892359F0E9
:103710002A2D4F2D6E2D90FD03C02B2D4D2D6C2D80
:10372000CE010E94270B2196E9CFC09127018EE0A0
:10373000C89FC02D11241EE01C0FF12E163410F06E
:10374000D5E4FD2EE090E809D090E9092091EA093E
:1037500000E4029F012D1124D0E0CF1508F095CF91
:10376000FE01EC59FD4F8081909128018923D9F009
:10377000FE01EE0FFF1FE652FE4F6081069FB00173
:103780001124B5E075956795BA95E1F78091E70941
:10379000680F7E2D8D2D0E94890C462F282F672FB4
:1037A000CE010E94270B2196D8CFC09127018EE031
:1037B000C89FC02D11241EE01C0F012F163408F0E5
:1037C00005E4F090E709D091E809E090E9096091FB
:1037D000EA096695669566958091E2099091E309FC
:1037E0000E946C0C0E94BD0B805887FD8195880F4C
:1037F000282F3E2D239F212D1124822F6F2D7D2FC9
:103800000E94890CF62EE72ED82ED0E0C01708F0C3
:103810003CCFFE01EC59FD4F808190912801892316
:1038200031F02D2D4F2D6E2DCE010E94270B2196AC
:10383000EDCF8AEF9AE00E945A0EEFCE8EE99BE020
:103840000E94670FEACE82E89BE00E94FA0EE5CE66
:1038500088EF9AE0F0CF8FEE9AE0EDCF86EE9AE017
:10386000EACF8DEC9AE0E7CF8FEB9AE0EECF84E4DD
:103870009CE0E6CF81E79BE0E3CF8DE59BE0E5CFE1
:1038800082E99AE00E94A40EC8CE84E69AE0FACFBC
:103890008DE29AE0F7CFC09127018EE0C89FC02D3E
:1038A00011241EE01C0F012F163408F005E4E090EF
:1038B000E809F090E909D091E7096091EA09669575
:1038C000669566958091E2099091E3090E946C0CDF
:1038D0000E94BD0B805887FD8195880F682F2CE0D2
:1038E000629F612D11246D0F7E2D8F2D0E94890CFA
:1038F000F62EE72ED82ED0E0C01708F0C6CEFE0177
:10390000EC59FD4F808190912801892331F02D2DB4
:103910004F2D6E2DCE010E94270B2196EDCF8CED01
:103920009BE089CF8CE19AE086CF40915E05509173
:103930005F0560916005709161058091E209909149
:10394000E309A091E409B091E50984179507A6075A
:10395000B70708F461CE0E94FF0B182F0E94FF0BDF
:1039600095E4891BF0F7890FC82FD0E0FE01EC59D0
:10397000FD4F809128019081892309F478C020E0CF
:1039800040E060E011FD13C00E94FF0B182F0E9461
:10399000FF0B782F76952FE7720F08F47FEF612FDA
:1039A0008091E9090E94890C462F282F672FCE01AC
:1039B0000E94270B2091EA0930E1230F08F42FEF32
:1039C00060E1822F90E00E946C0CBC0184EF91E0DA
:1039D0000E94BE478091E2099091E309A091E40919
:1039E000B091E509860F971FA11DB11D80935E055B
:1039F00090935F05A0936005B09361050DCE409153
:103A000031065091320660913306709134068091F0
:103A1000E2099091E309A091E409B091E5098417C6
:103A20009507A607B70708F4F7CD80912901811102
:103A300020C0C09127018EE0C89FC02D11241EE038
:103A40001C0F012F163408F005E4EC2EF12C93E046
:103A5000C99FE0011124CE59DA4FE01608F444C0A2
:103A6000E2E6F5E08EE296E0153408F056C081E01B
:103A7000D4CD40E060E080E00E94240B02E615E037
:103A8000D0E0C0E0FFE7DF2E0E94FF0B81FF0EC0F9
:103A9000D8011C9211961C92119712961C92219695
:103AA0000D5F1F4FC534D10579F7C3CF0E94FF0BBF
:103AB000C82E0E94FF0B8695782F2D2D720F08F4CB
:103AC0007FEFCE01880F991F8C0F9D1FDC01AE592F
:103AD000BA4F7D016C2D8091E9090E94890CF70194
:103AE000608371838283DBCFF701EC59FD4F8081C6
:103AF00090912801892331F02A8148816981C70189
:103B00000E94270B2396FFEFEF1AFF0AA6CF23810F
:103B1000348145812193319341938E179F07B9F7E3
:103B20000E94FF0B81FF1FC010922E0610922F06DD
:103B3000109230060E94760C0091E2091091E30980
:103B40002091E4093091E509DC01CB01800F911F40
:103B5000A21FB31F8093310690933206A0933306C1
:103B6000B093340659CD0E94FF0BC82F0E94FF0B63
:103B70008695782F2FE7720F08F47FEF6C2F8091D6
:103B8000E9090E94890C60932E0670932F0680939A
:103B90003006D0CF40917B0650917C0660917D0627
:103BA00070917E068091E2099091E309A091E40969
:103BB000B091E50984179507A607B70708F42CCD3F
:103BC00080912901882329F040E060E080E00E9494
:103BD000240B6091E7097091E8098091E9090E943E
:103BE000890C962E872E782EC5E3D6E004E911E0E5
:103BF0006DE0C62ED12C58017E01512CD7012D919C
:103C00007D01F50181915F0190E0222309F474C0E8
:103C1000272D492D682D0E94270BD7018C91F70184
:103C2000319780835394B6E05B12E8CF76015DE074
:103C3000552EF701EB5CF94F5F01F701EC56FE4F93
:103C4000808190E0D5012C91222309F459C0272DC1
:103C5000492D682D0E94270BF50131978081F501D0
:103C600080835A94F1E0EF1AF10827E05212E1CF75
:103C7000D80117968C9190E02F81222309F444C03B
:103C8000272D492D682D0E94270BF801868190E091
:103C90002E812223E9F1272D492D682D0E94270B23
:103CA0000E94FF0B837091E009F090E09E839F8358
:103CB0002E96025F1F4FFEE0CF0ED11C23E5C216E9
:103CC000D10409F098CF0E94760C0091E20910917E
:103CD000E3092091E4093091E509DC01CB01800F73
:103CE000911FA21FB31F80937B0690937C06A09325
:103CF0007D06B0937E0690CC20E040E060E08BCF64
:103D000020E040E060E0A6CF20E040E060E0BBCFF4
:103D100020E040E060E0C2CFC09127018EE0C89F64
:103D2000C02D11244EE0542E5C0E152D36E43515B1
:103D300008F416E480912901882361F040E060E0F6
:103D400080E00E94240BE4E8F6E086E4DF011D92A7
:103D50008A95E9F780912701811115C0809180062D
:103D6000909181060E94BC1A21E08931910508F4E6
:103D700020E020937F06499730F00E94CB1A909361
:103D8000810680938006D0E0E12EF12C95E0892E0B
:103D9000912C2EE0422E3AEA332ECE15DF0534F078
:103DA00081E0B5E4B51508F038CC36CCCE01B401CD
:103DB0000E9409486B015C014A9CC0014B9C900D1C
:103DC0001124FC01EC57F94FE60FF71F70808C5659
:103DD0009E4FFC01E60FF71F00810F3F51F110E0ED
:103DE000F801EC59FD4F808190912801892309F158
:103DF000372D25E5321B08F430E07091E809232DBA
:103E0000472D240F08F42FEF4091E909822F880FE6
:103E1000820F8E5F282F249F212D1124822F632D46
:103E2000631B0E94890C462F282F672FC8010E9410
:103E3000270B80917F06882389F0372D41E0341BC2
:103E400008F430E0732E4A9CC0014B9C900D112465
:103E50008C57994FC80ED91ED6013C9321969DCF01
:103E60009090E909E3E09E9EE0011124D695C79564
:103E7000D695C7955C2EC92CD12C8FEF90E0B6015A
:103E80000E940948862E80912901882371F040E024
:103E900060E080E00E94240BE4E8F6E086E4DF01C5
:103EA0001D928A95E9F710928306809182068F5FB2
:103EB0008093820610E000E0CC1ADD0A7801712CB4
:103EC000C8018C57994F5C0180918306872909F0BE
:103ED00040C00E94764885359540DCF5F50190821A
:103EE000F701EC56FE4FE081EF3FC9F0D701AC5728
:103EF000B94F2C91F0E05216E0F530E02C1B3D0B51
:103F00002C9FC0012D9F900D3C9F900D1124B60158
:103F10000E94BE47262F492DCF010E94270B739484
:103F2000FEE0EF0EF11C25E07212CECF0F5F1F4FA7
:103F30000E30110519F680918206881202C0109287
:103F40008206809183068F5F8D31E8F4809383062B
:103F500063CBF701EC57F94F8081882309F289156B
:103F600008F0BECF909182068912BACF815080832B
:103F7000B7CF929EC0011124BE010E94BE47462FBA
:103F800020E060E0C9CF109283062EEA36E084E09C
:103F900042E956E09FEF990DA4E8B6E0F9018430BC
:103FA00041F4D8966C91D897961203C0D8969C93FA
:103FB000D8976081691510F0908396861196319696
:103FC0004A175B0761F781502E5031098111E4CF08
:103FD00023CB85E19AE00E94E70D1FCB8FE09AE0AA
:103FE000FACF8091EC0921E0382F321B08F430E041
:103FF000832F66EF79E00E941D0D0FCB66EF79E00D
:1040000080E0F9CF8091EC0921E0482F421B08F4B1
:1040100040E0842F6BEB79E0EECF6BEB79E0F0CFF3
:104020008091EC0921E0382F321B08F430E0832F17
:1040300069E879E0E0CF69E879E0E2CF8091EC09C6
:1040400021E0482F421B08F440E0842F61E779E02B
:10405000D2CF61E779E0D4CF8091EC0921E0382F0D
:10406000321B08F430E0832F6BE579E0C4CF6BE5B9
:1040700079E0C6CF4F925F926F927F928F929F921C
:10408000AF92BF92CF92DF92EF92FF92CF93C09008
:10409000F306D090F406E090F506F090F6068FB7A0
:1040A000F8944090AA095090AB096090AC097090C8
:1040B000AD098FBF530142018C189D08AE08BF089F
:1040C0000E94BE066093F3067093F4068093F50693
:1040D0009093F606A091CA06EAECF6E02A2F30E0AB
:1040E0004FEFC40ED41EE11CF11CC418D508E6081D
:1040F000F708A3132AC02093CA062091F706C0E050
:10410000211108C02091E609C22FC37019F0C22FF7
:10411000C695C69520911701213009F440C022238D
:1041200039F1223009F44CC0233009F454C0CF9146
:10413000FF90EF90DF90CF90BF90AF909F908F90C7
:104140007F906F905F904F900895418D528D2A011E
:10415000712C612CC414D504E604F70420F421501A
:104160003F5F3296C6CF480D591D528F418FF8CF11
:10417000109227016093E2097093E3098093E409A8
:104180009093E50989E2EAECF6E0ACEEB9E0019043
:104190000D928A95E1F781E080931701C8CF8C2FAB
:1041A0000E94D71ACC2319F20E942B0781FFBFCFA0
:1041B0002FEF4FEF6FEF8CE190E00E94270BB7CF0E
:1041C000C09316018091E6098370809315010E94C7
:1041D0002C1583E0E1CF8091F80681110E946518CB
:1041E0004091E2095091E3096091E4097091E50979
:1041F0002FB7F8948091AA099091AB09A091AC09CE
:10420000B091AD092FBF841B950BA60BB70B409740
:10421000A105B10508F48BCF1092170188CF0E9439
:10422000CB1A9C0190915A0580915B05982B21F047
:10423000309357052093560590915C0580915D055C
:10424000982B21F03093550520935405E091A50952
:10425000F091A609309749F082E0809358050480D8
:10426000F581E02D88E595E0099508954F925F92DC
:104270007F928F929F92AF92BF92CF92DF92EF92F6
:10428000FF920F931F93CF93DF93CDB7DEB72A979B
:104290000FB6F894DEBF0FBECDBF8E010F5F1F4F6C
:1042A0008AE0F80111928A95E9F726E6E22E21E0EC
:1042B000F22ECC24C394D12C88248394912C59E7DA
:1042C000A52E51E0B52EF70181917F018F3F09F4B2
:1042D0004DC0F894E82FE295EF70F0E021A18F70C7
:1042E000A40102C0440F551F8A95E2F7CA01922F1C
:1042F000982B91A392A18095892382A3789400C0E2
:1043000094E7492E91E0592ED801B6016095709539
:10431000F20171902F018D919D91AD014250510993
:10432000FFEF7F1609F47DC0272D22952F7030E016
:10433000F90120A130E0F72DFF7002C035952795D7
:10434000FA95E2F720FD6DC08C299D29FA01918331
:104350008083A414B504E1F6F701319780818F3F83
:1043600011F00E944211F0EAFA95F1F7CC0CDD1C35
:1043700024E7E21621E0F20609F0A5CF4AE050E07A
:10438000B80187E295E00E948F48FF24F3940097DC
:1043900009F4F12C892B09F447C08AE0F801A7E25F
:1043A000B5E001900D928A95E1F781E080932605B2
:1043B0000E94CB1A909325058093240580912405B3
:1043C000909125050E94BC1A039790F180912705D2
:1043D0009091280590934805809347058091290581
:1043E00090912A0590934A058093490580912B0569
:1043F00090912C0590934C0580934B0580912D0551
:1044000090912E0590934E0580934D0580912F0538
:10441000909130059093500580934F05109226059A
:1044200007C08623972392CF809126058111C6CF9E
:104430008F2D2A960FB6F894DEBF0FBECDBFDF9149
:10444000CF911F910F91FF90EF90DF90CF90BF9091
:10445000AF909F908F907F905F904F900895CF93F3
:10446000C82F8091AF0982FF0CC0809122058C1764
:1044700041F00E94CB1A9093210580932005C093B0
:104480002205CF9108958091CC089091CD08892B79
:1044900089F00E94CB1A2091200530912105AC01B2
:1044A000421B530B81E02091CC083091CD0842177C
:1044B000530708F480E081700895CF938091EA0754
:1044C0009091160A892B8093AC0280912205882353
:1044D00029F18091CC089091CD08892B29F00E9478
:1044E000432281110E9424138091AC0290912205F5
:1044F000892B8093AC0280912601882309F447C060
:104500008091AE0987FF43C08EE1EEEAF2E090E0D1
:10451000815008F03EC091110E942413C091C3083D
:10452000C0958091AC02C8238091C408C82BC09369
:10453000AC0240E250E060E075E08CEA92E00E945C
:104540008F48892B11F180E2ECEAF2E0A0E0B5E0BF
:1045500001900D928A95E1F7E091A509F091A609E5
:10456000309799F080912601882349F08091AE0917
:1045700087FF05C0C093AD0286E08093AC02028045
:10458000F381E02D8CEA92E00995CF91089586E0C1
:10459000BCCF2191222309F4BBCF9F5FB9CFEF920B
:1045A000FF920F931F93CF93DF93EC018A858111C4
:1045B00034C0EB80FC8087E5F81A26E12E9DC0010F
:1045C0002F9D900D1124DC01AD50B74F1496ED9145
:1045D000FC911597309731F054966D917C918750EE
:1045E000974F099586E18E9D80018F9D100D1124B6
:1045F0000D50174FF80187810E943613F80180850E
:104600000E942F130E945D22188219861B861E822B
:104610001D821092F2081092F108CDB7DEB7E6E0E5
:104620000C94FA47CF93DF93EC018989811116C06E
:1046300081E0898B8F810E943D138091160A9885B5
:10464000892B8093160A0E945D22EA81FB813097B4
:1046500029F06C897D89CE0106960995DF91CF916D
:10466000089580912401877F8093240182E00E9435
:104670002F138091240184FF06C08F7E8093240134
:1046800082E00E943D138091240185FF06C08F7D4A
:104690008093240180E20E943D130E945D220895D0
:1046A00090E080E00E94150790E080E00E94FF0605
:1046B0001092160A0E945D2286E0E8E5F5E0DF012F
:1046C0001D928A95E9F710925205109251051092A9
:1046D00053050E940F2108958093150A0E945023CC
:1046E00008958091150A982F9670963021F488606D
:1046F0000E946C230895877FFBCF21E030E001C04A
:10470000220F8A95EAF720958091150A82230E944C
:104710006C2308959091FF04809589238093FF0472
:10472000282F277091F4282F082E000C330B921796
:10473000130659F09091AF0992FF07C085958595B2
:1047400085950E947D230E94431308959091AF099F
:1047500092FB222720F9281769F080FB92F99093A9
:10476000AF098091AE099091AF090E943A1782E09B
:104770000E948A23089521E030E001C0220F8A952B
:10478000EAF78091150A822B0E946C23089590917C
:10479000AF0992FF10C098E0899F90011124622B0D
:1047A0006093FF040E94BB230E94CB1A9093FE04E7
:1047B0008093FD0408950E94BB23089580932305F0
:1047C0000E94502308951092EA0780912601EEEA94
:1047D000F2E0882361F08091AE0987FF08C08EE186
:1047E000DF011D928A95E9F70E945023089586E023
:1047F000F7CFAAE2B0E0EFEFF3E20C94E1478AEDE5
:1048000099E02091F100DC012D93CD01B9E0823EC9
:104810009B07B9F78091DB09833009F472C0B8F4C3
:10482000813009F449C0823009F4B3C08091E800B6
:1048300083FF96C28091DA099091DB099A3008F0E3
:104840008FC2E92FF0E0EE55F64B0C941D488A30EC
:1048500009F48EC08B3009F471C0893039F780912A
:10486000DA09813219F78091DE099091DF0900970A
:1048700011F00297D9F68091E800877F8093E800D5
:104880008091E80082FF38C09091F3008091F2009F
:10489000029731F48091F100813011F0863021F4DB
:1048A0008091F1008093B5098091E8008B77809327
:1048B000E8000E94B005BACF8091DA09813A09F088
:1048C000B5CF8091E800877F8093E8008091DE0972
:1048D0009091DF09892B61F460E286EB99E070E04A
:1048E0000E945C068091E8008B778093E8009ECF61
:1048F00060E090E080E0F3CF8091D8098111C0CFD3
:1049000095CF8091DA09813A09F090CF8091DE0944
:104910009091DF09892B09F089CF8091E800877F8A
:104920008093E8008091E80080FFFCCF8091260111
:104930008093F1008091E8008E77B9CF8091DA09F9
:10494000813209F073CF8091DE099091DF09892BC4
:1049500009F06CCF8091E800877F8093E8000E9487
:10496000B0058091DC09809326010E94E3235ECF8D
:104970008091DA09813209F059CF8091E800877F70
:104980008093E8000E94B0058091DD098093B4090E
:104990004DCF8091DA09813A09F048CF8091E80043
:1049A000877F8093E8008091E80080FFFCCF8091B2
:1049B000B409BECF803899F0823809F0D1C1809116
:1049C000DE098F70873008F0CBC18093E9008091B9
:1049D000EB0085FB882780F91092E90006C08091E2
:1049E000D6099091D709911182609091E800977F44
:1049F0009093E8008093F1001092F1008091E8001C
:104A00008E77AAC1882309F498C1823009F0A8C121
:104A10008091DC0981119BC18091DE098F702FEF9D
:104A2000280F263008F09CC18093E9002091EB000C
:104A300020FF8DC1933031F48091EB008062809330
:104A4000EB0085C19091EB0090619093EB0021E029
:104A500030E001C0220F8A95EAF72093EA00109215
:104A6000EA008091EB008860EACF811179C1109152
:104A7000DC091F778091E3008078812B8093E3002D
:104A80008091E800877F8093E8000E94B0058091C4
:104A9000E80080FFFCCF8091E30080688093E30012
:104AA00082E0111183E08093D8095AC18058823086
:104AB00008F056C12091DC093091DD092C3DE3E07E
:104AC0003E07A1F583E08A838AE289834FB7F89491
:104AD000DE01139620E03EE051E2E32FF0E0509338
:104AE0005700E49120FF03C0E295EF703F5FEF7045
:104AF0008E2F90E0EA30C0F0C7968D939D932F5F84
:104B0000243159F74FBF8091E800877F8093E800F8
:104B10006AE270E0CE0101960E945C068091E80096
:104B20008B778093E8001CC1C096E7CF8091DE09A7
:104B30009091DF09432F55274330510509F44AC0AE
:104B400078F54130510509F485C08BE590E0EEE33E
:104B5000F9E04230510509F003C12091E800277FB8
:104B60002093E8002091E0093091E1098217930732
:104B700008F49C0140E02115310509F070C0411195
:104B80006EC08091E80082FDC9CF8091D80988234A
:104B900029F2853019F28091E80083FFF2CFBECF71
:104BA0004132510509F447C04232510509F0D8C0DD
:104BB0008330910508F0D4C0FC01EE0FFF1FE857C9
:104BC000FE4F0190F081E02D8B579E4FDC018C91C0
:104BD00090E01DC0332721303105E9F02115310562
:104BE00079F022303105F9F02330310509F0B8C0F1
:104BF000EBEAF9E0E4918E2F90E0EBEAF9E007C0F0
:104C0000E3EFF9E0E4918E2F90E0E3EFF9E0009715
:104C100009F4A6C0A2CFE9EDF9E0E4918E2F90E06F
:104C2000E9EDF9E0F4CFE9ECF9E0E4918E2F90E0C2
:104C3000E9ECF9E0ECCF8330910508F091C0880FE2
:104C4000991FFC01E257FE4F0190F081E02D89E0B1
:104C500090E083CF82E190E0E9E9F9E07ECF8091B6
:104C6000D809882309F45ACF853009F457CF8091A9
:104C7000E80083FD53CF8091E80082FD82CF8091D0
:104C8000E80080FF78CF9091F3008091F200211529
:104C9000310519F08830910550F041E0089709F08E
:104CA00040E08091E8008E778093E80064CF4491E3
:104CB0004093F1003196215031090196E8CF8038B8
:104CC00009F04EC08091E800877F8093E8008091D2
:104CD000D9098093F10092CE811142C01091DC0974
:104CE0001230F0F58091E800877F8093E800109300
:104CF000D9090E94B005112311F084E005C080910C
:104D0000E30087FDFACF81E08093D80942E061ECAF
:104D100081E00E94CF0542E261EC84E00E94CF0571
:104D200042E261EC82E00E94CF0542E260EC83E067
:104D30000E94CF058091D80913C08091DC09813091
:104D400079F481E0933009F080E08093D7091092E4
:104D5000E9008091E800877F8093E8000E94B00519
:104D60008091E80083FF0AC08091E800877F8093EC
:104D7000E8008091EB0080628093EB00AA96E3E06C
:104D80000C94FD471F920F920FB60F9211242F9390
:104D90003F934F935F936F937F938F939F93AF93C3
:104DA000BF93CF93DF93EF93FF93D091E900DF7030
:104DB0008091EC00C82FC17080FDC0E81092E9001E
:104DC0008091F000877F8093F00078940E94F9230F
:104DD0001092E9008091F00088608093F000CD2B64
:104DE000CF70C093E900FF91EF91DF91CF91BF9118
:104DF000AF919F918F917F916F915F914F913F9173
:104E00002F910F900FBE0F901F901895EAECF8E0CD
:104E1000128E138E8FEA90E09183808325E0248F99
:104E200088E893E1938382838AE090E0958384838A
:104E300044E150E05783468368E070E07187608703
:104E4000938782874EE150E055874487978786870E
:104E500040E550E0518B408B738B628B68E270E0D1
:104E6000758B648B62E370E0778B668B68EC70E027
:104E7000718F608F158E978F868F51A340A322A3C9
:104E80000E94B3160E94E3231092AF091092AE095C
:104E9000EFEAF9E08081846080838091AE0990918F
:104EA000AF090E943A170E9488150895AEE1B0E05C
:104EB000ECE5F7E20C94D747A0901801B0901901E7
:104EC00081E090E0909319018093180182E1C82E4F
:104ED00086E0D82E00E0760110E015C0F40125919F
:104EE0003491472D612F802F0E94FB1682E0880E9F
:104EF000911C7394EEE07E12F1CFFCE1EF0EF11CF9
:104F00001F5F153019F04701712CE8CF0F5F8CE857
:104F1000C80ED11C0430F9F60E9406271A821982A5
:104F20001C821B821E821D8218861F8288EC90E0E4
:104F30009A8789870BE712E04AE050E0B801CE017A
:104F400001960E94FE48065F1F4F0B3CE2E01E07E1
:104F500099F77E01FBE0EF0EF11C8AE0F701119258
:104F60008A95E9F74AE050E0B801C7010E94FE487F
:104F7000065F1F4F0B31F3E01F07A1F77E0185E1AC
:104F8000E80EF11C8AE0F70111928A95E9F78FEF9C
:104F90009FEF9A8F898F87E08E8F4AE050E0B801AB
:104FA000C7010E94FE48065F1F4F0B36F3E01F0744
:104FB000A1F7B0921901A09218016E96EDE00C9441
:104FC000F34780E00E94211760E086E290E00E94B3
:104FD000DA480E9456270E94EB1681E00E942117B2
:104FE000089568EE7EEF90E080E00E94F84860E06F
:104FF00082E090E00E94DA4860E083E090E00E9466
:10500000DA481092230560E084E090E00E94DA48DC
:1050100064E082E290E00E94DA4860E085E090E09F
:105020000E94DA4860E086E090E00E94DA486FEF84
:1050300087E090E00E94DA4840E050E0BA0188E062
:1050400090E00E94EC4860E08DE090E00E94DA4839
:1050500040E050E0BA0188E190E00E94EC4860E056
:1050600087E190E00E94DA4840E050E0BA018CE12C
:1050700090E00E94EC4870E060E080E290E00E94E6
:10508000F84840E050E0BA0188E190E00E94EC4826
:1050900080E00E9421170E94E12740E050E0BA0121
:1050A0008FE090E00E94EC4840E050E0BA0183E1DC
:1050B00090E00E94EC480895CF92DF92EF92FF9229
:1050C0008FEF9FEF4430510508F46AC0FB01C080A8
:1050D000D180E280F3800E94E3238091AE09C0FA80
:1050E00080F9B701A601769567955795479540FBDE
:1050F00081F9B701A60122E0769567955795479506
:105100002A95D1F740FB82F9B701A60133E07695E5
:105110006795579547953A95D1F740FB83F9B701C5
:10512000A601E4E07695679557954795EA95D1F7FE
:1051300040FB84F9B701A601F5E076956795579590
:105140004795FA95D1F740FB85F9B701A601A6E08E
:105150007695679557954795AA95D1F740FB86F9BF
:10516000B701A601B7E07695679557954795BA952B
:10517000D1F740FB87F98093AE098091AF09D0FA4F
:1051800080F9D1FACC24C0F8C0FA81F98093AF0934
:105190008091AE099091AF090E943A1790E080E0AB
:1051A000FF90EF90DF90CF9008950E94E3232FEFC0
:1051B00084E39CE0215080409040E1F700C0000073
:1051C00088E19CE00FB6F894A895809360000FBE2C
:1051D00090936000FFCF882321F00E942F130E943C
:1051E0005D220895882339F09091160A982B9093A8
:1051F000160A0E945D220895882321F00E9436132A
:105200000E945D220895882321F00E943D130E9490
:105210005D220895882379F19CEF980F913A28F444
:105220000E944A130E945D22089590E2980F9830E0
:1052300050F4877091E001C0990F8A95EAF7892FA1
:105240000E943613EFCF9BE5980F933028F490E03F
:1052500080E00E941507089598E5980F973128F48B
:1052600090E080E00E94FF060895803F20F00E94B9
:10527000BD0F0E940F210895FF920F931F93CF93AC
:10528000DF93F82E0091C8081091C9080115110587
:1052900009F449C01092C7081092C6081092C308BA
:1052A0001092C408D8011696CD91DC919E013A95D2
:1052B00021153F4108F4D07ED1E0C11101C0D0E0FA
:1052C000D8011996ED91FC911A97309731F01B9601
:1052D0006D917C9180E00995D823DD2339F08CEF26
:1052E0008C0F813A30F58C2F0E944A13FF2099F0E1
:1052F000E091C808F091C908808584FD0CC08091B8
:10530000C508882341F0808191819C012150310999
:105310002C3A3D45A0F00E945D221092C9081092DF
:10532000C8081092C508C801CDB7DEB7E5E00C94F7
:10533000FB470E945D228C2F0E940A29D7CF0E9432
:105340003807E9CFCF93DF93EC010E940A29CE0101
:105350000E9425149E01205E31092830310510F08D
:10536000CD2B29F40E94FC28DF91CF9108950E9453
:10537000EB28FACFCF93C82F8823C1F18CEF8C0F85
:10538000813AB0F580912601882301F18091AE0920
:1053900087FF1CC0EC2FE695E695E695F0E0E45516
:1053A000FD4F828190E04C2F477021E030E002C039
:1053B000220F331F4A95E2F782239323892B79F03A
:1053C0008C2F0E944A130E945D2209C0EEEAF2E08F
:1053D0008191C817A9F382E0E43BF807C9F76C2F65
:1053E0008CEA92E00E94CA060E945D22CF91089545
:1053F00080E28C0F883048F4C77081E001C0880FCC
:10540000CA95EAF70E943D13EFCFEBE5EC0FE330CE
:1054100040F4F0E0EB5CFE4F808190E00E941507C5
:10542000E5CFE8E5EC0FE73150F4F0E0EE0FFF1FB9
:10543000E85CFE4F808191810E94FF06D7CFC03F7C
:10544000A8F28C2F0E94D8100E940F21CFCF1F935B
:10545000CF93DF93182FC091EA08D091EB088933DE
:1054600021F0C091E808D091E908812F0E94BA2963
:10547000209739F4812F0E940A29DF91CF911F9143
:1054800008958FE99FE00197F1F700C00000219790
:10549000EFCF0F931F93CF93DF93C42FD22FFC0135
:1054A00082818823A9F04093F0080E94CB1A909340
:1054B000EF088093EE08C77081E001C0880FCA959D
:1054C000EAF70E940329DF91CF911F910F91089570
:1054D0001091F008141336C08091EE089091EF08F7
:1054E0000E94BC1A2091E2083091E30882179307CA
:1054F00048F5C0E2CD0F1D17B9F080E2810F88306A
:1055000040F4177081E001C0880F1A95EAF70E94F5
:10551000FC28C83048F481E09D2F977001C0880FA7
:105520009A95EAF70E940329802F0E94272AC83003
:1055300050F6D77081E001C0880FDA95EAF70E9433
:10554000FC28C1CFC77081E001C0880FCA95EAF777
:10555000F6CFB0E0A0E0EFEAFAE20C94DA47EC0113
:105560008AE0A82E2881222309F48FC02130C9F5B2
:1055700099818A81913021F422960E94272A05C0C0
:10558000923029F422960E94BA292196EBCF9330CB
:1055900021F422960E940A29F8CF943011F0219626
:1055A000F4CF229630E020E0AE014F5F5F4F805392
:1055B000990B8A30910550F02150310930F38FE971
:1055C0009FE00197F1F700C00000F6CFA29EB00166
:1055D000A39E700D11249C01260F371F8981EA01BB
:1055E000E3CFE22FF0E0E25FFC4FB490822F86958C
:1055F0008695869590E0FC01E250FD4FE49027707F
:10560000F12C022E02C0F594E7940A94E2F731E0FF
:10561000E322FF24FC01E251FD4FC490D12C022E65
:1056200002C0D594C7940A94E2F731E0C322DD2486
:10563000FC01E252FD4F049110E002C01595079560
:105640002A95E2F701701127E114F10419F081EEB7
:105650000E94BA29C114D10419F086EE0E94BA2919
:105660008B2D0E94272AC114D10419F086EE0E94C6
:105670000A29E114F10419F081EE0E940A290115AA
:10568000110509F482CF8CE278CFCDB7DEB7EAE01E
:105690000C94F647CF93DF93EC010E9425149E01F2
:1056A000205E31092830310510F0209741F40E9426
:1056B00003298C2F0E94BA29DF91CF9108950E946F
:1056C000F228F7CF662329F02091160A2260209352
:1056D000160A9C013056211540E2340720F0305E56
:1056E0002115304108F499270E944A2B0895B0E013
:1056F000A0E0EDE7FBE20C94DD477C018B01D42EAA
:105700008091240182FF8CC0C0910D08D0910E08B9
:10571000CE15DF0521F0E114F10409F081C080917C
:1057200024018B7F8093240181FD73C080910B083D
:1057300090910C08A801481B590B81E0209122018F
:10574000309123014217530708F480E08170F82E4E
:1057500080912401F0FA81F980932401FE0183E015
:10576000F695E7958A95E1F7EE71FF27E551F84F39
:1057700020813181AE014F70552781E090E002C059
:10578000880F991F4A95E2F7FF2009F444C0822B45
:10579000932B918380838091EA0781FF08C08091D9
:1057A000240180618093240182E00E94361380915D
:1057B000EA0785FF08C0809124018062809324015C
:1057C00080E20E9436136F2DCE010E94622BDD20F5
:1057D00031F08091E50885FF02C086FF3BC08091D3
:1057E000E8089091E9080E94221580910D08909197
:1057F0000E089C013056211540E2340720F0305E3F
:105800002115304108F499270E94A2290E943123D2
:105810001DC081E09BCF8095909582239323B9CFC3
:10582000C701992797013056211540E2340728F027
:10583000305E2115304108F0C7010E94A2298091F5
:105840000D0890910E088E159F0501F310930C081A
:1058500000930B08CDB7DEB7E7E00C94F947A9E158
:10586000B0E0E5E3FCE20C94D247942F498B252F5E
:105870005A8B6B8B7C8B8D8B4C895D89622F892F2A
:105880000E94A907811109C0809196049091970404
:10589000019690939704809396048B8981111092BE
:1058A000160A1D861E861F86188A85E0FE017196DF
:1058B000DE01199601900D928A95E1F78091AF096A
:1058C00082FF1EC08091CC089091CD08892BC1F039
:1058D0000E94CB1A2091FD043091FE04821B930B91
:1058E0002091CC083091CD088217930720F0809149
:1058F000FF0482FFE2C10E94432281110E9424130F
:105900004C855D856A8589850E94A907811111C032
:1059100061E0CE0109960E9468166C018B8527EF25
:10592000C2162CE5D20681F4882321F181E0809310
:10593000250129853A854B855C856D857E858F851A
:1059400098890E94473CC6C038EFC3163CE5D30691
:1059500029F4882379F00E94033DEBCF49EFC41668
:105960004CE5D40639F4882329F080912501811172
:10597000F2CFDCCF03E718E0512CB12CA12C22246C
:105980002394312C2EEF422EF8014081518188243E
:105990008A94982C20E0822F90E0FC01EE0FFF1FEC
:1059A000E40FF51F608171816115710531F0C61634
:1059B000D70609F44C012F5FEECFF12CFFEF8F16C5
:1059C0009F0609F449C0F8014481F09025018F2D0C
:1059D000411180E0F82FF170FF2EF801E5808681FB
:1059E0009B85992309F4F8C0FF2009F4F5C0609065
:1059F000E0087090E108E11013C0A101082C01C07B
:105A0000440F0A94EAF7842B868380910F089091C3
:105A100010088615970520F47092100860920F0800
:105A2000C10102C0880F991F2A95E2F70197F8017A
:105A300026812817190681F48091B5089091B6083F
:105A4000009709F44BC00E94BC1A6816790608F04A
:105A500045C021E0F80124835F28FFEFAF1ABF0A99
:105A6000095F1F4F28E0A216B10409F08DCF8B8586
:105A7000882309F40DC1552009F40AC10E94CB1AEC
:105A80009093B6088093B50880911208883010F57D
:105A900091E0980F9093120898E0FE013996DE018C
:105AA000119601900D929A95E1F73CE0839FC00119
:105AB00011248D5E974F28E0FE013196DC010190A4
:105AC0000D922A95E1F72FEF3FEFFC0131872087F8
:105AD000D386C2866996E2E10C94EE478091B308C2
