:100000000C94BC040C94F4040C94F4040C94F404C8
:100010000C94F4040C94F4040C94F4040C94F40480
:100020000C94F4040C94F4040C941D200C945F1FA5
:100030000C94752D0C94F4040C94F4040C94F404B6
:100040000C94F4040C94F4040C94F4040C94F40450
:100050000C94F4040C94282D0C94F4040C94F404E3
:100060000C94F4040C94F4040C94F4040C94F40430
:100070000C94F4040C94F4040C94F4040C94F40420
:100080000C94F4040C94F4040C94F4040C94F40410
:100090000C94F4040C94F4040C94F4040C94F40400
:1000A0000C94F4040C94F4040C94F404040A780AF8
:1000B0000C0AD609DA09100ADD09130A1E0AE80932
:1000C0006E0AEC09220AF009260A500AF4092A0AE3
:1000D0005A0AFA09300A3A0AE109170AE4091A0A1F
:1000E000FF09350A460A660A680AD209080A810A1F
:1000F000A70AAD0A9B0AA10AB30AB90ABF0ABA0B3A
:10010000BA0BEA0BEA0B7C0C9A0CC20DC20D9F0CC9
:10011000120D250D250DE513FB1302140716071606
:100120003A144B145E149D14A214CA14ED14201535
:1001300023152F153915501587159915BE15E0157E
:100140006B1D921D471F921D471FDE1D011E471F7D
:10015000021F121FFD377A585A000004E6D6B44633
:100160000200210116000000742FE5A3E0077E02C3
:100170001E5D003D8889C65436C3174FE4E2A73D93
:10018000AC7164816411FCFB9B6302D49DA21230AC
:1001900050FAA09D4317116EC637A3E8A7A2961781
:1001A0006784FB573F0BDE7A04D66453907CCF3EC6
:1001B000EF89E85E749BD7BBB099E2DE3870B2E499
:1001C000E46CDF0170B64CAC4E9D47BD1396C3CBBB
:1001D000B2911D102AC37F217DD79FF81B586384DD
:1001E000CEB89916DAF7AAEAD833E147AFAB424462
:1001F0002810FF1C2A1504AB8653E5A79C5A275EDE
:10020000F8A47552613200CEAD67C8D1674C458005
:1002100011276F4E1809426040C8B6FC2B5D7C6BFD
:100220002FCB94F68DE2B4FFAB961F6E779B144DE7
:10023000CD86F9EECD1363AC52E495A8C63CD154FB
:10024000DE472BA3E2B14BC5A35D7B72ACBC44E39C
:1002500042FB4B0983C20FABB878FF21D9417BFB2E
:1002600052C41CE0B7FC59A53EE563A265971B3E4E
:100270005BA98A2D5F7B509B2E1A7C85B4A67EEEEF
:10028000B1ACF83B41DE28D0523174C67605F83166
:10029000CD1FAFF35D6314644529C2E4EE09190371
:1002A00067886E2D9BCB8CAB6CBD5E0B07E4E121A8
:1002B000A2DC7584F02F5021FAFA7FD55C4FB84646
:1002C000A482494AA7BF41EB7CFB94006BB4BF15E5
:1002D000C65E53E026F2B779A9ABE6ECCE9921C50C
:1002E000042667E439E7805781795B892E9760920D
:1002F000C160ED080ABF2225A6B8AE221662743A84
:1003000034081F70F17DC9BE7E6AFB878F9897DD28
:1003100040473F2169D7CBF044A755EC45E36763DD
:10032000131F1B3EA688961F964730F4D75A1C6FA2
:10033000C7553A5FFF6F67D6B9A96DAC831872EDE8
:100340009D4629EF541C7A51E397889829AA4AE9D7
:10035000772BF635B7383D2C6CE006C03EA3B4A22F
:10036000C02E7DAF1F7E0A14F28724FFFBF7E6D371
:10037000899D0D9FBC4F6029F420E65CF539DEC3F2
:1003800013E29101C7D1B1456E3B27852D558DF004
:10039000C4000000FA108EE31051F3D80001BA0433
:1003A000FF0E0000F5691F59B1C467FB0200000091
:1003B0000004595A05010902A10185020901A100A1
:1003C0000509190129081500250195087501810203
:1003D0000501093009311581257F950275088106CF
:1003E00009381581257F950175088106050C0A38A5
:1003F000021581257F950175088106C0C005010998
:1004000080A101850319012AB700150126B70095BF
:100410000175108100C0050C0901A10185041901B5
:100420002AA002150126A002950175108100C005C1
:10043000010906A1018506050719E029E715002530
:10044000019508750181020507190029EF1500259E
:100450000195F075018102050819012905950575B9
:10046000019102950175039101C00660FF0961A128
:10047000010962150026FF009520750881020963B5
:10048000150026FF00952075089102C00501090698
:10049000A101050719E029E7150025019508750157
:1004A00081029501750881010507190029FF1500D2
:1004B00026FF009506750881000508190129051514
:1004C000002501950575019102950175039101C003
:1004D00009025B00030100A0FA0904000001030106
:1004E00001000921110100012244000705810308D0
:1004F00000010904010002030000000921110100AC
:1005000001222200070582032000010705030320C2
:10051000000109040200010300000009211101008B
:100520000122B60007058403200001120100020029
:10053000000008B4DEEB600100010203011C037639
:1005400000690061006C003A006600360034006308
:10055000003200620033006300000018034D006F9A
:10056000006E006F0066006C0065007800200036A9
:1005700000300000002003530061006E0074006929
:100580000047006F00200043007500730074006F87
:10059000006D007300000004030904010001000B5A
:1005A000058A226F2200000200020007058A226FDE
:1005B000220000030001000C058A226F22000004C3
:1005C000000200F1048A226F22C921050001000DFA
:1005D000058A226F22000006000200F3048A226FBF
:1005E0002200000700020009058A226F220000088D
:1005F0000001000E058A226F22000009000200F5AA
:10060000048A226F22A4210A000200F7048A226FC2
:1006100022A4210B000200F9048A226F22A4210CDB
:10062000000200FB048A226F22A4210D000200FDBB
:10063000048A226F22A4210E000200FF048A226F86
:1006400022A4210F00020001058A226F22A421109A
:1006500000020003058A226F22A421110002000576
:10066000058A226F22A421120002000F058A226F40
:100670002200001300020011058A226F22000014DC
:1006800000010013058A226F2200001500000000FF
:10069000002721EF21000029001E001F002000215B
:1006A000002200230024002500260027002D002E14
:1006B0000035002B0014001A000800150017001C5C
:1006C0000018000C00120013002F00300031003918
:1006D0000004001600070009000A000B000D000EC0
:1006E000000F003300340028002A00E10031001D13
:1006F000001B00060019000500110010003600372D
:10070000003800E5002152E000E3000000E20000B4
:1007100000000000002C00000000000000E600E7E0
:1007200000E40001003A003B003C003D003E003F79
:100730000040004100420043004400450001000128
:1007400000010001000100010001000100010001A1
:100750000001000100010001000100010001000191
:100760000001000100010001000100010001000181
:100770000001000100010001000100010001000171
:100780000001000100010001000100010001000161
:100790000001000100010000000100000000000055
:1007A0000001000000000000000100010001000144
:1007B0000001000100010001000100010001000131
:1007C0000001000100010001000100010001000121
:1007D0000001000100010001000100010001000111
:1007E0000001000100010001000100010001000101
:1007F00000010001000100010001000100010001F1
:1008000000010001000100010001000100010001E0
:1008100000010001000100010001000100010001D0
:1008200000010000000100000000000000010000C5
:1008300000000000000100010001000100010001B2
:1008400000010001000100010001000100010001A0
:100850000001000100010001000100010001000190
:100860000001000100010001000100010001000180
:100870000001000100010001000100010001000170
:100880000001000100010001000100010001000160
:100890000001000100010001000100010001000150
:1008A0000001000100010001000100010001000041
:1008B0000001000000000000000100000000000036
:1008C0000001000100010000000000000000000025
:1008D0000000000000000000000000000000000018
:1008E00000000000000000000000007E0F00D4FFA8
:1008F000FFFFC70000007800000000000000002A91
:100900002B28000000000000000000000000000094
:10091000000029000000002C1E342021222434264F
:1009200027252E362D3738271E1F20212223242548
:10093000263333362E37381F0405060708090A0BFD
:100940000C0D0E0F101112131415161718191A1B6F
:100950001C1D2F3130232D350405060708090A0B0D
:100960000C0D0E0F101112131415161718191A1B4F
:100970001C1D2F3130354C0011241FBECFEFDAE0A3
:10098000DEBFCDBF04B603FE18C080913405909140
:100990003505A0913605B09137058730904BA740BB
:1009A000B04B59F41092340510923505109236056B
:1009B00010923705E0E0F8E3099511E0A0E0B1E01E
:1009C000E2E9FCE602C005900D92AC37B107D9F719
:1009D00025E0ACE7B1E001C01D92A433B207E1F716
:1009E0000E941A0E0C9447360C940000ACE0B0E064
:1009F000ECEFF4E00C94F335DC0114962C912223F7
:100A000011F40C94160E7C0161E00E94D8318C0127
:100A1000F7018581882319F180912505909126059C
:100A20000097E9F008171907D1F09927E4E0880F3B
:100A3000991FEA95E1F7FC01EF5FFD4F20812460EB
:100A4000208384509E4FDC010D931C930E94B62E90
:100A50001092240561E0C7010E94D8318C01F70192
:100A60003580332009F4BBC0C80197578038910501
:100A700008F001C1D02EFFE0F01708F40CC68FEF8C
:100A800093E00E946435811106C60CE613E0DD2078
:100A900071F0011524E0120709F4FDC5C8010E9498
:100AA0006435811101C0DA940F5F1F4FF0CF1982B6
:100AB0001A821B821C82AA24AA9468013FEFC31ADF
:100AC000D30AC8010E94643589831A82882309F4F5
:100AD000E2C5813009F07EC0480142E0840E911CDD
:100AE000C6010E946435B82E8A83882309F4D3C5D1
:100AF0008FEF8B0D833060F4680153E0C50ED11C7D
:100B0000C4010E9464358B83811164C08601D5CFF6
:100B10008BEF8B0D833078F5380183E0680E711C04
:100B2000C4010E9464358B83811102C06301EECF42
:100B3000680194E0C90ED11CC3010E9464358C8306
:100B4000882321F32B813C812130AFEF3A0718F045
:100B5000922F80E001C0C901B6E0BB1631F0E7E09A
:100B6000BE1631F00E941927D1CF0E94F426CECFB5
:100B70000E947A26CBCFF4E0BF1611F06401C6CFF5
:100B8000C4010E946435B82E680124E0C20ED11C55
:100B9000C80103960E946435BB2009F47CC58823F4
:100BA00009F479C5282F30E021503109A29EA00117
:100BB000A39E500D11248B2D90E00197840F951F5B
:100BC000019708F4A3CFAFE9BFE01197F1F700C098
:100BD0000000F6CFCE0101960E949D3497CF6801A8
:100BE000E7E5DE1AFFEFCF16D10411F008F05DC083
:100BF00062EF71E08C2D0E949E31892BB9F5C60100
:100C000074E0880F991F7A95E1F7FC01E450FE4FDC
:100C100022812130C9F42091F2013091F301232B7C
:100C200029F12091F4013091F501232BF9F0209165
:100C3000F6013091F701232BC9F42091F80130918E
:100C4000F901232B49F012C0223081F42091F601E2
:100C50003091F701232B51F0FC01EF5FFD4F208114
:100C60002E7F208384509E4F0E94B62ED70115966A
:100C70003C903320D9F00E35BCE71B0761F00F35EF
:100C8000ECE71E0761F00D35FCE71F0779F4809152
:100C90000001811104C081E080930001FCC4109226
:100CA000000180E00E946030F6C4312C8091000188
:100CB000811108C0C80197558F3F910509F008F4CC
:100CC00075C1E2C1480120EE821A91082090AD045E
:100CD00080917F04282A80915703282A38E08316C0
:100CE000910480F498012770332781E090E001C0DF
:100CF000880F2A95EAF7332011F0282A18C080952A
:100D0000282215C0332009F411C110937F010093EC
:100D10007E010E945D2D6093E5047093E60480934C
:100D2000E7049093E8041092ED041092EC04D701CC
:100D30008D919C910E94691621E030E0F90102C07A
:100D4000EE0FFF1F8A95E2F7FC87EB872091EE04F8
:100D50003091EF0438872F8340917E0150917F01BD
:100D60005A8749871D82432C512C5D81E52FF0E085
:100D7000EE0FFF1FE353FD4FC080D180C114D1049B
:100D800009F4EBC0211005C0D60112968C91811197
:100D9000C9C0F601838190E02B853C858223932393
:100DA000892B09F4BFC08085982F977009F487E0DC
:100DB00038E08316910440F4332019F081FD09C016
:100DC000B1C082FD06C0AEC0332009F4ABC080FFC5
:100DD000A9C0D601AD90BC900A151B0519F43320AB
:100DE00009F4A0C0EF81F885CE16DF0609F49AC099
:100DF000D6011D96ED91FC911E97309721F08081D0
:100E0000882309F48FC0622DC6010E94CD3088234B
:100E100009F488C00A151B0511F4320102C0612CC7
:100E2000712CB62DB170BE8381E0A114B10441F0E4
:100E3000B11106C0E985FA85AE16BF0609F080E05B
:100E400080FF70C080E00E946030D092EF04C092BA
:100E5000EE0481E08093EB04D60115968C9180938B
:100E6000E904BE81B11110C0AB2871F0F601808198
:100E700091819C0124503109213A310518F40E94D6
:100E80009E2D02C00E94E41AD6011696AD90BC9029
:100E90001797C5019A9581159F4110F4E0EEBE2287
:100EA00055245394C50101978F339E4708F0512C68
:100EB000D6011996ED91FC911A97309739F01B964F
:100EC0006D917C911C9781E009955822552019F16C
:100ED000F601868197810E943C348093EA04C50123
:100EE000F8E08F16910418F40E940F3014C0049794
:100EF000813A910520F48A2D0E94CC2D0EC00E94CB
:100F0000DA2B8FE39CE90197F1F700C000008A2DEE
:100F10000E94171B02C00E94DA2B91E0692660FE36
:100F200066C1C8CEAD81AF5FAD831FCF80917E011A
:100F300090917F010817190781F410927F01109298
:100F40007E011092E5041092E6041092E7041092DC
:100F5000E8041092ED041092EC048091EE0490915C
:100F6000EF04009709F4A6CEB8E08B16910438F48C
:100F7000622D0E94CD3081119DCE81E014C0FC0114
:100F8000208131810217130729F4311006C0109215
:100F9000EB0408C0332009F48DCEDC0118968C9147
:100FA00085FD88CE80E00E94603084CE5801BB244D
:100FB000C50154E0880F991F5A95E1F7FC01E450F0
:100FC000FE4F6F01D70115962C911597FC01EF5F2D
:100FD000FD4F5F01808120FB80F9808315968C9105
:100FE0008823A1F10E94692D90939B0180939A011F
:100FF000D60112968C9112978F5F12968C9312974E
:101000009091240580915703892B13968C93139705
:101010008091AD0414968C93149716964D915C9123
:1010200017971E966D917C911F97C6010E94972E6F
:10103000F501808181FF03C090E080E002C0902F25
:10104000812F90932505809326051EC0D6011C96FE
:101050004D915C911D971E966D917C911F97C601D5
:101060000E94972EF501808181FF0EC0C6010E946B
:101070009D2E80912505909126050817190721F4CA
:10108000109226051092250580910C0580FF82C0E4
:101090000E94692D6C01D70115968C918823B1F1BE
:1010A0008091120182FF08C02CE931E040E0B601D6
:1010B00080E090E00E9460240431BCE71B07A9F0A7
:1010C0000531ECE71E0751F00331FCE71F07A1F4DF
:1010D000809112018160809312010EC080911201F3
:1010E000982F909590FB80F903C0809112018E7F1C
:1010F000809312010E942624C801905281159043CA
:10110000D0F410927B0310927A0344C0013E110583
:1011100021F4809112018F7E06C0053E110531F445
:10112000809112018F7D8093120105C0C8019052F9
:101130008115904378F18091120180FF2BC0D70177
:1011400015968C910832110538F40E311105B8F45A
:101150000430110578F41CC00933110538F40D3240
:10116000110590F40B32110579F012C00436110507
:1011700059F00EC090910C0594FD0AC03BC09091AF
:101180000C0593FD05C036C090910C0592FF32C04E
:101190008111E0C0F801E851FC47E730F10508F49F
:1011A000C6C1F70195819111E0C00631FCE71F0728
:1011B00009F015C280915703282F2A7A30910B0528
:1011C00030FDE8C131FDECC132FDF0C133FDF4C1A9
:1011D000992309F4FAC181E0211101C080E08093D4
:1011E0008001222309F4EFC185E30E94CC2D0E94E7
:1011F000DA2B51C2882309F4A6C09091AD048091E6
:101200005703892B8D7F79F110927B0310927A031B
:1012100080910C0581FD27C0F80143E0F695E79524
:101220004A95E1F7EE71FF27E85AFC4F98012F70BD
:10123000332781E090E002C0880F991F2A95E2F7DA
:10124000809590952081318182239323918380839F
:10125000A70160E0C8010E9445248091AD048D7F04
:101260000E94FB2A6CC089E0F701ACE9B1E0019073
:101270000D928A95E1F710929F0110929E01809144
:101280007A0390917B0308171907E1F580910C050B
:1012900085FF38C09091120191FF02C086FF32C0D5
:1012A00080917803909179035601A81AB90AB70181
:1012B000C8010E944426A816B90620F5809157035C
:1012C00081FF08C08091120180618093120182E049
:1012D0000E942B2B8091570385FF08C0809112013B
:1012E00080628093120180E20E942B2B6091120198
:1012F00066956170A70180917A0390917B030E94AB
:101300004524C9C18091AD0490915703982B9695BF
:1013100091702091120190FB21F9209312018D7F91
:101320000E94FB2A10937B0300937A03D0927903E7
:10133000C09278038091120184608093120182E050
:101340000E943F2BA8C1970140E0B601C8010E944E
:101350006024A1C110927B0310927A03F801E85136
:10136000FC47E730F10508F4E2C010922305C801FC
:101370009057839708F00CC184E090E00E946C3590
:1013800090932E0580932D05F801E150F047E2324D
:10139000F10520F4EA5AFF4F0C94E63580912D05B3
:1013A0008160ACC080912E058860B4C080912D050D
:1013B0008260A4C080912D0520C080912D05886099
:1013C0009DC080912E051EC080912E058260A2C016
:1013D00080912D05806192C080912D0580628EC024
:1013E00080912D0580648AC00E943B1980912D0553
:1013F000806884C080912D05886084607FC0809162
:101400002E058260816086C080912D058E7F76C01A
:1014100080912E05877F7EC080912D058D7F6EC0C7
:1014200080912D0520C080912D05877F67C0809118
:101430002E051EC080912E058D7F6CC080912D05DC
:101440008F7E5CC080912D058F7D58C080912D05C9
:101450008F7B54C00E943B1980912D058F774EC021
:1014600080912D05877F8B7F49C080912E058D7FD0
:101470008E7F50C080912D0582FB222720F991E0BC
:10148000922790FB82F990FB83F938C080912E055A
:10149000982F909591708E7F892B90FB81F93AC09F
:1014A00080912D0586FB222720F991E0922790FB61
:1014B00086F924C00E943B1980912D0587FB2227C5
:1014C00020F991E0922790FB87F918C061E001C0F4
:1014D00060E08EE090E00E9482351EC080912D0574
:1014E00084FB222720F991E0922790FB84F906C023
:1014F00080912D05982F909590FB80F980932D0574
:101500000BC080912E0583FB222720F991E09227C2
:1015100090FB83F980932E0560912D0570912E0527
:1015200084E090E00E94A0350E943B19B4C0E858C6
:10153000FF4F0C94E63506E221EE41EE6AE17CE7CE
:1015400023C007E225EE45EE6BE17CE71DC006E215
:1015500021EE40EE68E17CE717C007E225EE44EE9D
:1015600069E17CE711C006E221EE42EE6CE17CE726
:101570000BC007E225EE46EE6DE17CE705C008E210
:1015800021E045EE6EE17CE7C7010E94DD2E83C0BD
:1015900091E00BCE482F447409F414CE20E012CE13
:1015A000482F417109F410CE20E00ECE482F487824
:1015B00009F40CCE20E00ACE827209F409CE9923F8
:1015C00021F01092800189E210CE80918001882361
:1015D00011F085E301C089E20E949E2D08CE0737F5
:1015E0002CE7120711F481E005C008373CE7130728
:1015F00071F482E0992319F00E94041702C00E943E
:10160000F71643E062E081E00E94D51644C0D7019E
:1016100015968C91882309F450C00330BCE71B0752
:1016200029F148F40115FCE71F0791F001302CE780
:10163000120711F142C00B353CE7130741F10C359D
:101640004CE71407E1F00A351C47B9F581E020C0EA
:101650000E943B198FEF94E3ACE081509040A04092
:10166000E1F700C000000E94042D15C06FEF7FEF6E
:1016700080E090E00E94A0350E9426340CC080914A
:101680002E0582FB882780F991E0892701C080E040
:101690000E94562B12C080918204877009F4C6C242
:1016A000F7018581882309F4C1C280912E0582FF4C
:1016B000BDC282E00E943F2BB9C2D70117968D911F
:1016C0009C9118970097C9F4D70115968C9115979E
:1016D0000D911C91882349F0C8010E942D16D82E27
:1016E000682FC8010E949D1604C0C8010E94691697
:1016F000D82EB8018D2D0E9492290E94AF29182F53
:10170000092FF701B580C680C2943FE0C3228091C3
:1017100082048770F9F0BB20E9F0892F807F803444
:1017200061F080E2810F8830A8F0892F807E8032BE
:1017300021F4123078F0CC2069F080912E0582FFE0
:1017400009C082E00E943F2B809182048770AA2406
:10175000A3948111A12C902E92942FE09222892D96
:1017600090E08C30910508F00DC2FC01E158FF4F6C
:101770000C94E635902F9F70802F807FD92E19F022
:10178000D29490EFD922BB20A9F0DD2009F4DAC170
:1017900080E2810F883010F0111104C08D2D0E945D
:1017A000322B05C080912405D82AD09224050E94AE
:1017B000DA2BC8C1812F0E94E41ADD2009F4E2C1AE
:1017C00080E2810F883068F1112359F18D2D0E943C
:1017D000242B2AC0902F9F70802F807FD92E80329B
:1017E00019F0D29480EFD822112321F0113009F49E
:1017F00069C074C080912E0582FD19C0BB2059F0CC
:10180000DD2029F08D2D0E94322B0E94DA2B80E002
:101810000E94171BB7C180E00E94E41ADD2009F482
:10182000B1C18D2D0E942B2B0E94DA2BABC1BB20A6
:1018300081F1CC2009F456C0F1E0CF1212C08091A2
:10184000AD048D21D81609F49DC10E94692D909395
:10185000AC048093AB048091AD04D82AD092AD043F
:1018600091C180910D05823008F48CC1C8128AC1E3
:101870008D2D0E94F1198D2D0E940F2B80917F04D8
:101880009D2D9823D91609F47DC1D82AD0927F04C2
:1018900079C1CC2069F080910D05823008F472C1C5
:1018A00021E0C2126FC1809157038D2109F46AC1F2
:1018B0008D2D0E94EA198D2D0E940F2B8D2D0E94D7
:1018C0002C2C60C180911305BB2021F08C1508F4ED
:1018D00059C108C0C81608F055C10AC0BB2031F074
:1018E000C11030C18D2D0E94F1194CC1C11033C1FE
:1018F0008D2D0E94EA1946C1802F869586958370AA
:1019000019F0813061F03EC1BB2021F0812F902F72
:10191000937002C080E090E00E94282E39C1BB2065
:1019200021F0812F902F937002C080E090E00E9400
:10193000032E2EC16B2D812F0E94F81929C1802FF3
:101940008370A1F5B11022C1412F42954695477091
:10195000440F440F212F2F7030E0C901042E01C025
:10196000880F0A94EAF714FF08C02FE030E001C0A6
:10197000220F4A95EAF7209501C020E0302F3695D6
:1019800036953370323069F040F440918D0131303A
:1019900019F0822B842302C0842B822B0E94101703
:1019A000F5C0282B80918D018227F8CFBB2019F03C
:1019B000802F817001C08695882309F4E7C0412FEC
:1019C000429546954770440F440F212F2F7030E009
:1019D000C901042E01C0880F0A94EAF714FF08C059
:1019E0002FE030E001C0220F4A95EAF7209501C0B0
:1019F00020E0302F369536953370323051F070F448
:101A000040918E01313019F0822B842308C0842B41
:101A100005C0282B80918E01822701C0822B0E9455
:101A2000D216B4C0302F3F70D32EBB2039F0832F95
:101A30000E940417812F0E94F119A8C0812F0E94D3
:101A4000EA198D2D0E94F716A1C0123F11F128F45A
:101A5000103F41F0113FA9F171C0133F01F1143F54
:101A600061F16CC080911305BB2021F0C81608F00D
:101A700089C003C08C1508F485C0202F2F7181E028
:101A800090E001C0880F2A95EAF790918E0189278E
:101A900011C0802F8F71BB2009F458C06FC0BB20CC
:101AA00041F081E0902F9F7101C0880F9A95EAF76D
:101AB00001C080E00E94D21665C080912E0582FD93
:101AC00006C0802F8F71BB2009F458C03FC08091A1
:101AD0000D05823008F1BB2089F090918204977047
:101AE000943039F40E94382B802F8F710E94F716A2
:101AF00048C0C81608F045C063E005C0C81640F0ED
:101B00000E94382B64E0802F8F710E946D2B39C0AA
:101B100081E00E943F2B35C0BB2031F063E0802F75
:101B20008F710E946D2B2EC081E00E943F2B41E0FF
:101B30004C1540F582E00E943F2B24C0BB2049F0A9
:101B4000CC2011F0812F64CE802F8F710E9404175A
:101B500019C0CC2089F0193329F480911105909196
:101B6000120504C080910F05909110050E94552424
:101B7000812F0E94E41A06C0802F8F710E94F716F1
:101B800001C0A12C88EF890D843010F40E944D2EE5
:101B9000812F902F0E941317811105C0109282018E
:101BA0001092810128C0BB2019F0C110F7CF23C0CB
:101BB000C110F4CF20E0D7014C9111965C911197A0
:101BC00012966C91129713967C91139714968C91A0
:101BD000149715969C910E94B33180910E0583FF56
:101BE000DDCF80918101909182010297B9F6812F1A
:101BF0000E949F1BD3CFAA20A9F08091820480FD70
:101C000011C0F70115828695869586950E94041766
:101C1000C7010E94F6048091820486958695869578
:101C20000E94F71660E0C7010E94D8312C96E2E1CD
:101C30000C940F36A9E3B0E0E0E2FEE00C94F3353B
:101C400085B7806885BF85B7806885BF84B7877F83
:101C500084BF0FB6F894A895809160008861809346
:101C60006000109260000FBE90E080E80FB6F8941C
:101C700080936100909361000FBE8BED97E290938B
:101C80007D0180937C010E9462260E9400260E94B2
:101C90008C250E9413250E94A31F0E94C21F8091C1
:101CA000E20084608093E20078948091DE018823D2
:101CB000A1F01091E9001F709091EC00892F8170C4
:101CC00090FD80E8182B1092E9008091E80083FDD8
:101CD0000E94881C1F701093E90082E084BD93E08D
:101CE00095BD9AEF97BD80936E000E947E2E811164
:101CF00002C00E948E3100E211E045E2E42E41E094
:101D0000F42ED8018D918D018F3F11F00E94C828CB
:101D1000E016F106B1F705E211E033E3E32E31E01E
:101D2000F32EF80181918F018F3F11F00E94C82896
:101D3000E016F106B1F78AE0EAEAF1E0DF01282FC8
:101D40001D922A95E9F7E3E8F1E0DF011D928A95FB
:101D5000E9F780E090E00E946C35853E9E4F21F4CB
:101D60000E947E2E811163C065EE7EEF80E090E0E0
:101D70000E94A03560E082E090E00E94823581E020
:101D800080938D0161E083E090E00E94823560E005
:101D900074E184E090E00E94A03560E086E090E08D
:101DA0000E94823560E087E090E00E94823540E04A
:101DB00050E0BA0188E090E00E94943560E083E250
:101DC00090E00E94823560E08CE090E00E948235D5
:101DD00060E08DE090E00E94823519821A821B82B9
:101DE0001C821D821E821F82188648E050E067E137
:101DF00070E0CE0101960E94723540E050E0BA01D9
:101E00008FE190E00E94943580E00E945F2E0E9456
:101E10008E3140E050E0BA018FE090E00E949435AE
:101E200040E050E0BA0183E190E00E94943582E006
:101E300090E00E94643580938F0184E090E00E94DE
:101E40006C3590932E0580932D050E94DF28EFEFCF
:101E5000F6E721E0E150F0402040E1F700C000004B
:101E60000E94DF288091AA0180FF08C06FEF7FEFFA
:101E700080E090E00E94A0350E94042D83E090E075
:101E80000E9464350E94101781E091E090932A052A
:101E9000809329052E013BE2430E511C8091DE0107
:101EA000853009F047C000E112E18091DE01853004
:101EB00009F03CC08091DE01843021F110922F05A1
:101EC00088E190E0A0E40FB6F894A89580936000B4
:101ED0000FBEA093600083B7817F846083BF83B708
:101EE000816083BF7894889583B78E7F83BF0FB658
:101EF000F894A895809160008861809360001092AA
:101F000060000FBE8091DD01882309F4CECF0E94CE
:101F1000DF28EAEAF1E081919191892B09F07EC6F0
:101F200024EB31E02E173F07B1F7BFCF0E943B19DA
:101F30000E944D2E0E94DF2820E9E22E21E0F22EA1
:101F40000AEA11E02AE931E0D801F7014191519103
:101F50008D919D91842795272E173F0719F0892B86
:101F6000A9F305C0892B19F40E94CC2A43C09AEA30
:101F7000692E91E0792E312CD3018D909D903D01F9
:101F8000F701A080B180A824B924A114B10449F1BB
:101F9000212CCC24C394D12CC5018C219D21892BCB
:101FA000B9F02CAA3DAA0E94692D9FAB8EABF1E03F
:101FB000F8AF91E094012C213D21232B09F490E00E
:101FC00099AF4CA95DA96EA97FA988AD0E94E731A0
:101FD0002394CC0CDD1C2EE02212DECFD7018D9293
:101FE0009C923394B2E0EB0EF11CE5E03E12C4CFBC
:101FF0000E945D2D8091EC049091ED04892B09F4F1
:102000003EC04091E1045091E2046091E30470917C
:10201000E4042FB7F8948091300590913105A09198
:102020003205B09133052FBF841B950BA60BB70B60
:102030004091DD045091DE046091DF047091E00472
:1020400084179507A607B707D0F08091EC0490910C
:10205000ED040E9483341092ED041092EC0410926F
:10206000E1041092E2041092E3041092E40410924E
:10207000DD041092DE041092DF041092E0048091DF
:10208000250590912605892B51F180919A01909117
:102090009B010E944E2D7C0189E0D2011D928A9500
:1020A000E9F7B20180912505909126050E9444260A
:1020B0008E159F05A0F480912505909126059927FE
:1020C000A4E0880F991FAA95E1F7FC01EF5FFD4F8F
:1020D000208122FD04C084509E4F0E94B62E809124
:1020E0001301882341F180912A0490912B040097D9
:1020F00011F10E944E2D20917C0330917D03281711
:102100003907C8F49091280480912904981759F050
:102110000E948D2310927D0310927C0310922B0459
:1021200010922A0408C00E94232310922B041092BC
:102130002A040E946D2380910C0580FF1EC08091AF
:10214000120182FF1AC00E94692D209178033091FC
:102150007903AC01421B530B209110013091110106
:102160004217530750F02CE931E041E0BC01809167
:102170007A0390917B030E94602486E0EBE1F5E016
:102180009E012F5F3F4F7901D90101900D928A95F1
:10219000E1F790901C05A0901D05B0901E05C09021
:1021A0001F05D090200510921D0510921E0510925B
:1021B0001F0510922005A11003C0BB2009F454C0D4
:1021C0008091190590911A050E944E2DAC019091B5
:1021D000F004992339F020910E0130E024173507DF
:1021E00058F042C020910F018AE0289F90011124ED
:1021F0002417350718F038C09F3F19F09F5F909360
:10220000F004AA2061F00E94B22F1A1414F491E095
:1022100001C09FEF899F802D112480931D05BB2055
:1022200061F00E94B22F1B1414F09FEF01C091E0E7
:10223000899F802D112480931E0580911D05882380
:1022400099F080901E05882079F00E94013081115C
:1022500001C081E080931D05882D0E94013081110D
:1022600001C081E080931E05C11003C0DD2009F488
:1022700054C080911705909118050E944E2DAC0115
:1022800090911505992339F020910C0130E0241725
:10229000350758F042C020910D01AAE02A9F900115
:1022A00011242417350718F038C09F3F19F09F5F9D
:1022B00090931505CC2061F00E94792F1C1414F422
:1022C00091E001C09FEF899F802D112480931F050D
:1022D000DD2061F00E94792F1D1414F09FEF01C0E2
:1022E00091E0899F802D11248093200580911F0506
:1022F000882399F080902005882079F00E94013091
:10230000811101C081E080931F05882D0E9401305A
:10231000811101C081E08093200580911C05891105
:102320001AC080911D05882311F08A1114C0809174
:102330001E05882311F08B110EC080912005882383
:1023400011F08D1108C090911F05992331F081E0A3
:102350009C1104C002C081E001C080E080FD15C076
:1023600080911D0581110FC080911E0581110BC048
:1023700080911F05811107C081E090912005911186
:1023800003C080E001C081E080FD0E944F2F9A824F
:10239000AB82BC82CD82DE8286E0F701ABE1B5E0A4
:1023A00001900D928A95E1F70E944D2E9091A50122
:1023B000891721F08093A5010E945D2D8091DE0197
:1023C000843009F06BCD83E08093E9008091E800D0
:1023D00082FF64CD8091E80085FF21C00E94F42037
:1023E00081111BC0F0E2CF2ED12C570109C0809182
:1023F000F100F50181935F01F1E0CF1AD10869F096
:102400008091E80085FDF3CF8091E8008B77809381
:10241000E8000E94F420882399F391E001C090E045
:102420008091E8008B778093E800992309F436CDFA
:10243000C090B401D090B5018981C114D10461F07C
:102440008E3F09F0E4C38A81833008F4B2C185501D
:10245000833008F0DCC3ADC18B3009F491C110F5B5
:10246000853009F46FC0B0F48230C1F130F48130AE
:1024700009F0CBC31A8289E0FAC2833009F455C04F
:10248000843009F0C2C34C816B818A810E94C722CB
:102490009D83E1C3873009F4B8C308F0B6C30E9436
:1024A000FD30B5C3803109F4B1C060F48D3009F45A
:1024B00056C008F452C08E3009F454C08F3009F46D
:1024C00079C0A3C3823109F4A7C008F4A2C0833144
:1024D00009F4CAC08E3F09F46CC197C38A81823067
:1024E00009F4B2C3833051F0813009F08EC30E94E9
:1024F0005D2D9B838C837D836E8389C38091DB04F8
:102500009091DC04892B09F482C3F701CE010B966C
:10251000D8012C9111963C910E5F1F4F328323837B
:102520003296E817F907A1F772C38A81823009F061
:102530006CC36B817C818D819E810E94EC350E94F1
:102540005A2E65C32D813E813227232732274C81A5
:102550006B818A810E94A0225AC380E15BC01A82EB
:1025600084E985C20A811B81102701271027AC80CE
:10257000B12CBDE1AB16B10408F049C36701C80135
:1025800084599C4F96012E193F092A153B0508F0E6
:102590003EC30439110528F40E946435F601848392
:1025A00003C0D60114961C920F5F1F4FBFEFCB1ACA
:1025B000DB0AE5CF8091DB049091DC04892B09F4E0
:1025C00026C30A811B81102701271027CC80D12C1C
:1025D000EDE1CE16D10408F01AC35701C8018459A1
:1025E0009C4F95012E193F092C153D0508F00FC38E
:1025F0000439110528F4D50114966C910E94823596
:102600000F5F1F4FBFEFAB1ABB0AE8CF0E94ED3040
:10261000FEC284E08A83FBC20A811B811027012746
:102620001027AC80B12CEDE1AE16B10408F0EFC27A
:102630006701C801889696012E193F092A153B05A6
:1026400008F0E5C20033F2E01F0730F40E94643561
:10265000D60114968C9302C0F60114820F5F1F4FAF
:10266000FFEFCF1ADF0AE5CF0A811B811027012770
:102670001027AC80B12C2DE1A216B10408F0C7C21E
:10268000380138E2630E711C003342E0140708F091
:10269000BEC280E392E0801B910B8A159B0508F473
:1026A000B6C28091DB049091DC04892B11F06701A4
:1026B0005EC000FF0FC0C80187960E94643590E09D
:1026C000982F88272D81822B81159C4731F48FEF1D
:1026D0008D8303C0C12CD12C03C0CC24C394D12C36
:1026E000C8018A0D9B1D450180FF1BC0B1E08B1AFC
:1026F000910855E0252E312C2C0E3D1E280C391C3E
:10270000C3018A0D9B1D0E946435F101208130E0D8
:10271000322F2227282B21153C4719F48FEFD101A6
:102720008C93F701EC0DFD1D2FEFCF018E199F0942
:102730008815990508F0BBCF848190E0982F8827F1
:102740003581832B81159C4711F424832583329690
:10275000ECCF0033E2E01E0728F4D60114966C910A
:102760000E9482350F5F1F4FBFEFCB1ADB0AC801F3
:10277000889696012E193F092A153B0550F347C24A
:102780008091DB049091DC04892B09F440C240E283
:1027900050E0B70182E00E94C62CEFEFF1EE24E09A
:1027A000E150F0402040E1F700C000000E94042DFD
:1027B0002EC2EA818E2F90E08E30910508F027C25C
:1027C000FC01E557FF4F0C94E63588E0E8E1F1E0C5
:1027D000DE01919601900D928A95E1F780E2D70192
:1027E0001D928A95E9F786E0898388E0FE01B1961B
:1027F000DE011596E0C180E6898382E08A831B8230
:102800001C8205C28C8190E0982F88272B81820F33
:10281000911D092E000CAA0BBB0B35E0880F991FE8
:10282000AA1FBB1F3A95D1F7AC01BD01405E5F4FB7
:102830006F4F7F4F481759076A077B0708F4E7C1B6
:102840008036E2E09E07A105B10508F0E0C14136FF
:10285000F2E05F076105710520F040E652E060E0BC
:1028600070E0481B590BBC016C5A7E4FC7010E9497
:102870004B35CDC140E250E06FEF70E0C7010E94E0
:1028800040368091DB048983CA821B821C8282E0ED
:102890008D838CE0E0C181E090E09093B50180935E
:1028A000B40182E390E09093A9018093A8010E9473
:1028B000692D9093A7018093A601A9C1CD28A1F10C
:1028C0001091AF01129511708091AA011823809187
:1028D000A6019091A7010E944E2D85369105F0F03A
:1028E0001123E1F00E94692D9093A7018093A60126
:1028F0008091A8019091A90101979093A9018093DB
:10290000A801892B89F41092B5011092B40181E0DD
:1029100090E09093DC048093DB0406C082E390E0B7
:102920009093A9018093A8018091DB048983809111
:10293000B4018A838091A8019AC01092DC0410929D
:10294000DB0465C10B811C8140E250E06FEF70E059
:10295000C7010E9440362BE935E0A7E9B6E080E0E8
:1029600090E0AC014E5F5F4F4132510508F04FC11E
:10297000F901659174910617170730F4F701E80F14
:10298000F91F71836083CA01245F3F4FA217B30709
:1029900041F73DC12B813C818BE995E0FC014591DC
:1029A00054912417350731F00C9646E08739940787
:1029B000A9F72BC1009709F428C1FC01369625918F
:1029C00034912115310509F420C14FE150E0BE01D9
:1029D0006E5F7F4FF901099519C12B813C8187E911
:1029E00096E00BE915E0F80145915491241735075D
:1029F00031F0045F1F4F80179107A9F706C1011539
:102A0000110509F402C1F801389625913491211578
:102A1000310509F4FAC04CE150E0BE016B5F7F4F15
:102A2000C801F9010995009709F0F0C0F8013A963C
:102A300085919491009711F0FC01099580E0E6C022
:102A40000E943A25E4C0EB818E2F90E087309105FB
:102A500008F0DDC0FC01E756FF4F0C94E63580E23C
:102A6000D7011D928A95E9F788E089838A838B8351
:102A7000CEC08C819AE0D92E8E010F5D1F4FF801D8
:102A80002D2D11922A95E9F7B8010E949E31898374
:102A9000F801DE01129601900D92DA94E1F7B7C0C9
:102AA0001C818AE0FE013596DE01919601900D921F
:102AB0008A95E1F789A19AA10E94CB279AA389A3BD
:102AC0008BA19CA10E94CB279CA38BA38DA19EA12F
:102AD0000E94CB279EA38DA38FA198A50E94CB27F0
:102AE00098A78FA3183070F43AE0139FB001112417
:102AF00064587D4F4AE050E0CE0181960E94A63591
:102B000080E001C08FEF89830E94622680C06C81C3
:102B1000CE0181962AE0DC011D922A95E9F7683002
:102B200008F042C0BAE06B9FB001112464537D4F9E
:102B300035C01C818AE0FE013596DE019196019038
:102B40000D928A95E1F789A59AA50E94CB279AA7AD
:102B500089A7183070F4EAE01E9FB0011124645375
:102B60007D4F4AE050E0CE0181960E94A63580E07C
:102B700001C08FEF89830E94002649C06C81CE017D
:102B800081962AE0DC011D922A95E9F7683060F40D
:102B9000BAE06B9FB0011124645E7C4F4AE050E0C4
:102BA0000E94543580E001C08FEF89838AE0FE01E6
:102BB000B196DE01129601900D928A95E1F727C039
:102BC0001C818AE0FE013596DE01919601900D92FE
:102BD0008A95E1F78BA19CA10E94CB279CA38BA394
:102BE000183070F4EAE01E9FB0011124645E7C4F3F
:102BF0004AE050E0CE0181960E94A63580E001C0F7
:102C00008FEF89830E948C2502C08FEF898340E279
:102C100050E0B70182E00E94C62C40C909BD19BD31
:102C200009B400FEFDCF8091D8008F7D8093D8003D
:102C30008091E00082608093E0008091E00081FD5F
:102C4000FCCF0E943B1931C987E290E00E946435B5
:102C50001B821C821D828E83DACFCF92DF92FF927D
:102C60000F931F93CF93DF936C0100918E0180919E
:102C70008D01082BC3E0D0E010E0C8010C2E02C08B
:102C8000959587950A94E2F780FD04C02197A8F7EF
:102C9000F12C09C0FC2EB6018C2F0E9492290E94B3
:102CA000AF29019799F38F2DDF91CF911F910F914C
:102CB000FF90DF90CF900895CF93DF93EC010E94B7
:102CC0002D16BE010E9492290E94AF29DF91CF915B
:102CD0000895292F953078F58E3068F590E03EE024
:102CE000239F800D911D1124682F677023E0969516
:102CF00087952A95E1F7FC01EE0FFF1FE80FF91FFA
:102D0000EA54FE4F40E050E080E0219130E0062E92
:102D100002C0369527950A94E2F721703327042ED6
:102D200001C0220F0A94EAF7822B4F5F5F4F4330B6
:102D3000510559F7089580E00895292F953088F5B9
:102D40008E3078F590E03EE0239F800D911D112498
:102D5000282F277051E001C0550F2A95EAF723E08C
:102D6000969587952A95E1F7FC01EE0FFF1FE80F76
:102D7000F91FEA54FE4F20E030E070E04081CB01C3
:102D8000022E02C0969587950A94E2F7817081958C
:102D900084278523842781932F5F3F4F233031057C
:102DA00069F7089580938E01089590918E0121E036
:102DB00030E0F90101C0EE0F8A95EAF7D90102C0AF
:102DC000AA0FBB1F6A95E2F7BD016E2B01C0220F4F
:102DD0004A95EAF7892F8623681303C0892F822B2F
:102DE00003C02095822F89230E94D216089521E0E6
:102DF00030E001C0220F8A95EAF7209580918E017C
:102E000082230E94D216089521E030E001C0220FF3
:102E10008A95EAF780918E01822B0E94D21608953E
:102E200080938D01089592959F70963079F010F4FB
:102E3000925001C09A50923068F4803F69F018F4C3
:102E4000883E40F409C0843F29F406C0883E20F043
:102E5000813F11F080E0089581E00895FC01248114
:102E6000222371F087819085009719F00E94AF2985
:102E700004C0808191810E945C160E9413170895FE
:102E800080E00895A8E1B0E0E8E4F7E10C94F635BD
:102E90008C0186E0F801DE01539601900D928A952F
:102EA000E1F7D80114967C9014971596EC908CE27B
:102EB000A82E84E0B82E80913004811122C07720A2
:102EC00009F45BC0EE2009F455C0C8010E942E171A
:102ED000F82E882309F44EC089E0F801ACE2B4E092
:102EE00001900D928A95E1F780913004813031F4A0
:102EF00080912C0490912D040E945C160E94602CFD
:102F0000B5C1F80150806180C280D38060E08CE25E
:102F100094E00E94D831F090310480912E04909179
:102F20002F044601881A990A60E08CE294E0FF20A1
:102F300009F431C10E94D8316CE274E00E94442649
:102F40008816990608F0CCC07720B9F08091320439
:102F5000382F307F20912D04D80111969C91119724
:102F6000332371F0291709F47AC0C8010E942E1783
:102F7000811189C0C8010E94F604FF24F39476C130
:102F800029131FC020912C049C9129131AC0409131
:102F900033045091340417962D913C9118974217A1
:102FA000530779F4E1100DC08F7080618093320473
:102FB0008CE294E00E94F60480913204F80186834A
:102FC0009DC0E1103AC040E0662D852D0E94362C50
:102FD000E82E882329F080910E0580FF8FC036C02F
:102FE0005B8A6C8A8B899C890E945C16292F2295AA
:102FF0002F70243020F49F70223028F009C02A500E
:10300000223080F014C0992349F0811107C013C009
:10301000992321F0F8019681907F69F0805E8830D5
:1030200030F409C0803F38F0815F833020F0C80160
:103030000E94F604EF2CFE2C19C1809132048160AD
:103040008093320480910E0581FD58C08CE294E09B
:103050000E94F604ECE2F4E089E0DF014CC020912C
:103060002C04F8019081291380CF409133045091B2
:103070003404278130854217530709F076CFE110D9
:1030800074CF8683D4C0EE2009F474CF209132042B
:10309000822F82958F7090E00297BCF080912C0473
:1030A00090912D049B878A87DD86CC8680913004A1
:1030B0008E871F86288B80913304909134049A8BDD
:1030C000898BCE010A960E94F60489E0F801ACE2F1
:1030D000B4E001900D928A95E1F70E94602C4DCFEB
:1030E00080913204982F907F59F48CE294E00E94F2
:1030F000F60489E0D5011D928A95E9F7F12CB6C056
:10310000772009F43ACF20912D04F80191812913F9
:103110001AC020912C049081291315C040913304CA
:1031200050913404278130854217530761F4E11030
:103130000AC08683C8010E94F60489E0D5011D9269
:103140008A95E9F793C0C8010E942E17882309F4D5
:1031500011CFEE2009F40ECF20913204822F8295F8
:103160008F7090E002970CF4B0CF80912C04909176
:103170002D049A838983DC82CB82809130048D83F5
:103180001E822F838091330490913404998788871D
:10319000CE01019698CF0E94D8316CE274E00E9473
:1031A00044268816990608F05CC0772009F4E5CE1D
:1031B000FE2CEE2009F4DECE90912D04F8018181E1
:1031C000981341C090912C04808198133CC02091A9
:1031D000330430913404878190852817390799F595
:1031E00080912E0490912F04C81AD90AF8ECCF16BA
:1031F000D10400F58091320480FD1CC082958F704F
:10320000482F50E041155105A9F020913204D80112
:1032100016962C9316974F30510549F08F5F982FD3
:103220009295907F822F8F70892B16968C93C80170
:103230000E94F60489E0F801ACE2B4E001900D923E
:103240008A95E1F713C0C8010E942E1781113DCF66
:1032500080913204816080933204C8010E94F60498
:1032600005C089E0F50111928A95E9F78F2D6896DE
:10327000EFE00C9412361092570380910B018823D3
:1032800041F080912D0587FF04C08EE1EDEBF4E065
:1032900003C086E0E5EBF4E0DF011D928A95E9F7D3
:1032A00080E090E00E94282E80E090E00E94032EB3
:1032B000109224050E94DA2BEBE1F5E086E0DF01B5
:1032C0001D928A95E9F71092F0041092150510925C
:1032D00016050E944F2F0895A2E1B0E0E2E7F9E160
:1032E0000C9401360A871B872C873D874E875F87A2
:1032F000688B798B8A8BCE010A960E9442178111C6
:103300003BC089E0FE013A96DE01119601900D92D4
:103310008A95E1F76E85662379F12091350430E0D6
:10332000C90101968770992740917E0450E0841767
:103330009507A1F06D8399E0929FD001939FB00D06
:103340001124AA5CBB4FFE01319601900D929A9513
:10335000E1F7809335040E94562C0EC00E943B1961
:103360001092350410927E04ECE2F4E089E0DF0173
:103370001D928A95E9F719C019E080917E04909119
:103380003504891791F0189FC00111248A5C9B4F66
:103390000E944217882349F080917E0490E00196B4
:1033A0008770992780937E04E8CF6296E4E00C94BE
:1033B0001D36882321F00E94242B0E94DA2B0895C9
:1033C000882339F090912405892B809324050E944D
:1033D000DA2B0895882321F00E942B2B0E94DA2BF0
:1033E0000895882321F00E94322B0E94DA2B089541
:1033F00090911D05662309F470C091110CC0909145
:103400001E05911108C090912005911104C0909162
:103410001F05992331F098E09093F00491E0909388
:1034200015058D3C21F40E94B22F819504C08E3C7D
:1034300029F40E94B22F80931E05C3C08F3C21F453
:103440000E94B22F819504C0803D29F40E94B22FC2
:1034500080931D05B6C0893D19F40E94792F05C0DF
:103460008A3D31F40E94792F819580931F05A9C070
:103470008B3D21F40E94792F819504C08C3D29F465
:103480000E94792F809320059CC09FE2980F98306E
:1034900078F421E030E0A90102C0440F551F9A954D
:1034A000E2F7CA0190911C05892B80931C0589C005
:1034B0008D3D21F48091160581600CC08E3D21F474
:1034C00080911605826006C08F3D09F07AC0809118
:1034D000160584608093160574C08D3C39F4909174
:1034E0001E0597FF33C010921E0557C08E3C29F46D
:1034F00090911E051916BCF329C08F3C29F497FF43
:1035000025C010921D0549C0803D19F41916CCF351
:103510001DC090911F05893D29F41916BCF4109225
:103520001F053BC08A3D19F497FF10C0F8CF8B3DB3
:1035300039F49091200597FF09C0109220052DC005
:103540008C3D21F4909120051916BCF39FE2980F51
:10355000983080F421E030E0A90102C0440F551FEB
:103560009A95E2F7CA01809590911C058923809372
:103570001C0513C08D3D21F4809116058E7F0BC074
:103580008E3D21F4809116058D7F05C08F3D29F475
:10359000809116058B7F8093160580911D05811102
:1035A00006C080911E05811102C01092F004809126
:1035B0001F05811106C080912005811102C0109263
:1035C00015050E944F2F0895882381F19CEF980FD5
:1035D000913A18F40E949E2D0DC090E2980F9830F9
:1035E00060F4877091E001C0990F8A95EAF7892FFE
:1035F0000E942B2B0E94DA2B08959BE5980F9330A5
:1036000028F480E090E00E94282E089598E5980F15
:103610009B3128F480E090E00E94032E089593E30C
:10362000980F933118F460E00E94F8190895CF9331
:10363000882309F46AC0C82F8CEF8C0F813AA0F55B
:1036400080910B018823E1F080912D0587FF18C040
:10365000EC2FE695E695E695F0E0E554FB4F828188
:10366000282F30E04C2F477081E090E002C0880F97
:10367000991F4A95E2F782239323892B61F410C0A6
:10368000E5EBF4E08BEB94E02191C21721F08E176B
:103690009F07D1F705C08C2F0E949E2D0E94DA2B28
:1036A0008C2F0E94CC2D0CC080E28C0F883058F4F7
:1036B000C77081E001C0880FCA95EAF70E94322BDB
:1036C0000E94DA2B22C0EBE5EC0FE33040F4F0E08F
:1036D000EE5BFE4F808190E00E94282E16C0E8E548
:1036E000EC0FEB3150F4F0E0EE0FFF1FEB5BFE4F01
:1036F000808191810E94032E08C083E38C0F833167
:1037000020F461E08C2F0E94F819CF9108951F9347
:10371000CF93DF93182FEB010E94171B209741F0E6
:103720008FE99FE00197F1F700C000002197F6CFE5
:10373000812F0E94E41ADF91CF911F910895893360
:1037400029F4609111057091120504C060910F0574
:10375000709110050E94871B08958091E00187FFFA
:1037600011C08091E80082FD05C08091DE018111C9
:10377000F8CF11C08091E8008B770BC08091DE01FB
:10378000882349F08091E80080FFF8CF8091E8001D
:103790008E778093E8000895982F973068F590937E
:1037A000E900981739F07091EC002091ED005091EC
:1037B000F00003C0242F762F50E021FD02C09F5F50
:1037C000ECCF3091EB003E7F3093EB003091ED0079
:1037D0003D7F3093ED003091EB0031603093EB0092
:1037E0007093EC002093ED005093F0002091EE00D8
:1037F00027FDE5CF80E008958F708093E90081E098
:1038000008952091E6013091E7012617370748F027
:103810006115710539F42091E8002E772093E800B6
:1038200001C0B901FC0120E06115710579F18091B9
:10383000DE018823F1F18530F1F18091E80083FD0C
:103840003CC08091E80082FD2EC08091E80080FF9E
:10385000EBCF2091F3008091F20090E0922B611564
:10386000710551F08830910538F421912093F100D1
:10387000615071090196F3CF21E0089709F020E02B
:103880008091E8008E778093E800CECF2111CFCFD2
:103890000AC08091DE01882361F0853061F080915B
:1038A000E80083FD0AC08091E80082FFF2CF80E04B
:1038B000089582E0089583E0089581E0089543E04B
:1038C00050E0BC0184E00E94C62C089546E050E020
:1038D000BC0184E00E94C62C089540E250E0BC0187
:1038E00084E00E94C62C0895CF93DF93EC0148E05A
:1038F00050E0BC0181E00E94C62C88E0FE01A4EDEE
:10390000B1E001900D928A95E1F7DF91CF91089592
:10391000AAE2B0E0EEE8FCE10C940236E0EEF1E061
:1039200088EE91E02091F10021938E179F07D1F747
:103930008091E101833009F463C030F4813071F08B
:10394000823009F49DC0B4C08A3009F489C08B303C
:1039500009F46EC0893009F0ABC020C08091E0014D
:10396000813A09F0A5C08091E800877F8093E80044
:103970008091E4019091E501892B21F468E084EDC8
:1039800091E003C060E080E090E070E00E94011CE4
:103990008091E8008B778093E8008AC08091E001F5
:1039A000813209F085C08091E4019091E501009792
:1039B00019F0029709F07CC08091E800877F80931E
:1039C000E8008091E80082FD05C08091DE01811150
:1039D000F8CF6EC02091F3008091F20090E0922B1E
:1039E000029731F48091F100813011F0863021F49A
:1039F0008091F1008093D3018091E8008B7754C0CF
:103A00008091E001813A09F053C08091E4019091E6
:103A1000E501892B09F04CC08091E800877F8093F5
:103A2000E8008091E80080FFFCCF80910B0137C057
:103A30008091E0018132E1F58091E4019091E5010E
:103A4000892BB1F58091E800877F8093E8000E9480
:103A5000AD1B8091E20180930B010E943B1928C0AD
:103A60008091E001813221F58091E800877F809389
:103A7000E8000E94AD1B8091E3018093D20118C041
:103A80008091E001813AA1F48091E800877F8093E2
:103A9000E8008091E80080FFFCCF8091D201809304
:103AA000F1008091E8008E778093E8000E94AD1BC2
:103AB0008091E80083FFEBC18091E0019091E101EA
:103AC000492F50E04A30510508F0E1C1FA01E056B3
:103AD000FF4F0C94E635803821F0823809F0D7C1C9
:103AE00008C08091DC019091DD01992389F082600A
:103AF0000FC08091E4018F70873008F0C8C18093B7
:103B0000E9008091EB0085FB882780F91092E9009D
:103B10009091E800977F9093E8008093F1001092D5
:103B2000F1007CC1282F2D7F09F0B1C1882319F045
:103B3000823061F0ACC18091E201813009F0A7C10F
:103B4000933009F080E08093DD012EC08091E20186
:103B500081112AC08091E4018F702FEF280F263049
:103B600008F095C18093E9002091EB0020FF1CC074
:103B7000933021F48091EB00806214C09091EB00AF
:103B800090619093EB0021E030E0A90102C0440F66
:103B9000551F8A95E2F74093EA001092EA0080915F
:103BA000EB0088608093EB001092E9008091E800C0
:103BB000877F8093E8000E94AD1B69C1811167C1B6
:103BC0001091E2011F778091E3008078812B809330
:103BD000E3008091E800877F8093E8000E94AD1B9E
:103BE0008091E80080FFFCCF8091E30080688093A3
:103BF000E300111102C082E001C083E08093DE0186
:103C000046C18058823008F042C12091E2013091D3
:103C1000E3012C3D53E0350779F583E08A838AE29E
:103C200089834FB7F894DE01139620E03EE051E21D
:103C3000E32FF0E050935700E49120FF03C0E2959A
:103C4000EF703F5FEF708E2F90E0EA3010F0C79674
:103C500001C0C0968D939D932F5F243149F74FBFCC
:103C60008091E800877F8093E8006AE270E0CE01EF
:103C700001960E94011CC0C08091E4019091E50171
:103C8000432F552743305105B1F068F441305105B9
:103C900009F40CC14230510509F0F9C08BE590E000
:103CA000E0EDF4E057C04132510589F1423251054F
:103CB00009F43CC0ECC0C901992781309105B9F0E5
:103CC00070F082309105D9F0039709F0E0C0EDE380
:103CD000F5E0E4918E2F90E0EDE3F5E038C0E7E900
:103CE000F5E0E4918E2F90E0E7E9F5E030C0E5E7FC
:103CF000F5E0E4918E2F90E0E5E7F5E028C0EBE5F4
:103D0000F5E0E4918E2F90E0EBE5F5E020C0833004
:103D1000910508F0BCC0880F991FFC01E45CFE4FC0
:103D20000190F081E02D89E090E014C0833091058E
:103D300008F0ADC0FC01EE0FFF1FEA5CFE4F0190E2
:103D4000F081E02DDC01AD5CBE4F8C9190E00097DE
:103D500009F49DC02091E800277F2093E80020917E
:103D6000E6013091E7012817390708F4C90140E05E
:103D7000009789F12091DE01222309F43DC025300E
:103D8000D9F12091E80023FD37C02091E80022FD01
:103D90002FC02091E80020FFEBCF4091F30020914D
:103DA000F20030E0342B009759F02830310540F410
:103DB00044914093F100319601972F5F3F4FF3CF2D
:103DC00041E02830310509F040E02091E8002E77ED
:103DD0002093E800CDCF4111CDCF0AC08091DE0104
:103DE000882351F0853041F08091E80083FD04C0C4
:103DF0008091E80082FFF2CF8091E8008B7780937A
:103E0000E80045C0803809F042C08091E800877F13
:103E10008093E8008091DF018093F1008091E800B9
:103E20008E77C7CE811133C08091E2019091E3017A
:103E30009927029764F58091E800877F8093E800D6
:103E40001091E2011093DF010E94AD1B111106C019
:103E50008091E30087FD02C081E001C084E080938F
:103E6000DE0142E061EC81E00E94CC1B42E261ECA9
:103E700084E00E94CC1B42E261EC82E00E94CC1BF9
:103E800042E260EC83E00E94CC1B8091DE018091D5
:103E9000E80083FF10C08091E800877F8093E800EE
:103EA0008091EB0080628093EB0005C082E190E09E
:103EB000EBE2F5E04FCFAA96E3E00C941E361F929A
:103EC0000F920FB60F9211242F933F934F935F934E
:103ED0006F937F938F939F93AF93BF93CF93DF9312
:103EE000EF93FF93C091E900CF708091EC00D82F41
:103EF000D17080FDD0E81092E9008091F000877FBA
:103F00008093F00078940E94881C1092E9008091C0
:103F1000F00088608093F000CD2BCF70C093E90053
:103F2000FF91EF91DF91CF91BF91AF919F918F91D1
:103F30007F916F915F914F913F912F910F900FBEA5
:103F40000F901F901895E8EDF0E080818E7F8083C0
:103F50001092E2001092DA001092E100A0EEB0E0C0
:103F60008C9181608C9380818F77808319BCA7EDC1
:103F7000B0E08C918E7F8C9380818F7E80831092B5
:103F8000D1010895A0E0B0E0E8ECFFE10C94FD352C
:103F9000C8EDD0E088818F7E8883E7EDF0E08081F6
:103FA0008160808384E082BF81E08093D101888139
:103FB0008E7F888302EE10E0F80110821092DA0002
:103FC00081EEC82ED12CF601108288818F778883EC
:103FD00088818068888388818F7D888319BC10924E
:103FE000DE011092DF011092DD011092DC0190EEF3
:103FF000E92EF12CF70180818B7F8083888181609D
:10400000888342E060E080E00E94CC1BF601808162
:104010008E7F8083F80180818160808380818860C9
:104020008083F70180818E7F80838881806188838F
:10403000CDB7DEB7E8E00C9419361F920F920FB699
:104040000F9211242F933F934F935F936F937F931E
:104050008F939F93AF93BF93EF93FF938091E10072
:1040600082FF09C08091E20082FF05C08091E100DB
:104070008B7F8093E1008091DA0080FF2AC08091DD
:10408000D80080FF26C08091DA008E7F8093DA000E
:104090008091D90080FF18C080E189BD82E189BD8F
:1040A00009B400FEFDCF81E08093DE018091D10153
:1040B00081110FC00E94A31F0E94C21F8091E200C5
:1040C00084608093E20005C019BC1092DE0110925A
:1040D000D1018091E10080FF17C08091E20080FF54
:1040E00013C08091E2008E7F8093E2008091E20015
:1040F00080618093E2008091D80080628093D80034
:1041000019BC85E08093DE018091E10084FF30C01E
:104110008091E20084FF2CC080E189BD82E189BDED
:1041200009B400FEFDCF8091D8008F7D8093D80028
:104130008091E1008F7E8093E1008091E2008F7E8C
:104140008093E2008091E20081608093E2008091A0
:10415000DF01882311F084E007C08091E30087FD30
:1041600002C081E001C083E08093DE018091DE0126
:104170008091E10083FF27C08091E20083FF23C08C
:104180008091E100877F8093E10082E08093DE01EF
:104190001092DF018091E1008E7F8093E100809199
:1041A000E2008E7F8093E2008091E2008061809344
:1041B000E20042E060E080E00E94CC1B8091F000D1
:1041C00088608093F000FF91EF91BF91AF919F9134
:1041D0008F917F916F915F914F913F912F910F90B0
:1041E0000FBE0F901F9018952091E4003091E500CC
:1041F00095E64091EC00842F817040FF23C08091B0
:10420000E80080FD1DC08091DE01882399F0853093
:1042100099F08091EB0085FD11C04091E400509130
:10422000E5002417350729F3915011F09A01E1CFE9
:1042300084E0089582E0089583E0089581E0089580
:1042400080E008954091E80042FFDDCF0895A0E0AE
:10425000B0E0EDE2F1E20C94FB354430510508F496
:104260006CC040912D0541FBCC24C0F8D12CCC0C66
:10427000DD1C42FB882780F9C82FE0E0DE2FCC0F41
:10428000DD1FCC0FDD1FCC2ADD2A40FBEE24E0F839
:10429000F12CEC28FD2843FBAA27A0F9B0E023E08D
:1042A000AA0FBB1F2A95E1F7EA2AFB2A44FBEE2757
:1042B000E0F9F0E034E0EE0FFF1F3A95E1F7EE2968
:1042C000FF2945FB222720F930E055E0220F331F5C
:1042D0005A95E1F72E2B3F2B46FB882780F990E07B
:1042E000E6E0880F991FEA95E1F7822B932B47FBB5
:1042F000442740F950E05695542F44275795479549
:10430000842B952B20912E05322F3170132F00E036
:10431000082B192B26952170B22EBB0CA12C0A2933
:104320001B29012E000C220B330BFB010083118390
:104330002283338380E090E002C08FEF9FEFCDB700
:10434000DEB7EAE00C941736E1EFF4E08481958162
:104350002AE030E0B9010E94BE3560930F018681EA
:1043600080930E01828580931501848580931401CA
:1043700086859785B9010E94BE3560930D018089BD
:1043800080930C01828980931701848980931601A0
:1043900008958091F1049091F2049093110180931B
:1043A000100108950F931F93CF93DF9301EF14E053
:1043B000C8E5D2E0CE010E946435F80161918F0119
:1043C000681719F0CE010E9482352196CC37F2E0B1
:1043D000DF0781F7DF91CF911F910F910895CF9261
:1043E000DF92EF92FF924430510508F471C0FB0157
:1043F000C080D180E280F3800E943B1980912D051E
:10440000C0FA80F9B701A60176956795579547954B
:1044100040FB81F9B701A60122E076956795579593
:1044200047952A95D1F740FB82F9B701A60133E001
:1044300076956795579547953A95D1F740FB83F95F
:10444000B701A601E4E07695679557954795EA95FB
:10445000D1F740FB84F9B701A601F5E076956795A1
:1044600057954795FA95D1F740FB85F9B701A60115
:10447000A6E07695679557954795AA95D1F740FBA5
:1044800086F9B701A601B7E07695679557954795E8
:10449000BA95D1F740FB87F980932D0580912E05C1
:1044A000D0FA80F999E0F694E794D794C7949A9556
:1044B000D1F7C0FA81F980932E0560912D05709196
:1044C0002E0584E090E00E94A03580E090E002C0DC
:1044D0008FEF9FEFFF90EF90DF90CF900895DA017C
:1044E0009C012E5F3F4FF90145915491F9012591AF
:1044F0003491A217B30758F0FC013496859194913A
:104500000E9437360E94D22180E090E008958FEF1C
:104510009FEF08959C01CA01F9013296459154918B
:104520008417950750F0CB01F90134966591749189
:104530000E94373680E090E008958FEF9FEF089556
:104540001F93CF93DF93962F8430E8F46530D8F42F
:104550004E30C8F4632F122FC42FD0E0CC0FDD1FD4
:104560002CE1929FC00DD11D11249CE8899FC00DA4
:10457000D11D1124CE0188960E948235612FCE0173
:1045800089960E948235DF91CF911F9108950F93F4
:104590001F93CF93DF93843008F56530F8F44E30E5
:1045A000E8F4C42FD0E0CC0FDD1F2CE1629FC00DDA
:1045B000D11D11243CE8839FC00DD11D1124CE01D3
:1045C00088960E94643590E0182F0027CE018996C6
:1045D0000E9464359801282BC90102C080E090E058
:1045E000DF91CF911F910F910895BC014091280454
:1045F00080912904942F981729F1292F30E0F9018F
:10460000EE0FFF1FE05EFB4F0190F081E02DE617FB
:10461000F70799F487E0869FF001879FF00D11243A
:10462000E158FC4F81E0848394130CC02F5F3F4F0F
:10463000237033272093280408952F5F3F4F922F34
:104640009370D9CF0895EF92FF920F931F93CF935A
:10465000DF938091B7038823D9F1C0917E038DE069
:10466000F82E8091B703C81778F5EE24E394EC0E8A
:10467000E0927E03D0E0FC9EF001FD9EF00D11243F
:10468000E854FC4F84818823E9F087819085892B49
:1046900021F481859285019659F40081118122814E
:1046A0003381448155816681778180850E946C19B0
:1046B000FC9EF001FD9EF00D1124E854FC4F148285
:1046C00010922405CE2DCDCF1092B70310927E0309
:1046D000CDB7DEB7E6E00C941B3610927D03109246
:1046E0007C03EFE7F3E08581811102C0148216821A
:1046F000379683E0E73BF807B1F7089510922B0453
:1047000010922A04109213018091290480932804A6
:104710000E946D230E9423230895A0E0B0E0E3E906
:10472000F3E20C94F435C091280497E0992E01E04F
:1047300010E02DE0322E34E0432E55245394809126
:104740002904C81709F479C0D0E0FE01EE0FFF1F5D
:10475000E05EFB4F80819181989ED001999EB00DC3
:104760001124A158BC4F14962C911497211162C0AA
:104770007090B703E8EBF3E020E030E0812C5D01BE
:10478000271508F055C0E384F484D501CD90DC9062
:104790006FEF7FEF612C462D50E0DA01AA0FBB1FAF
:1047A000AC0DBD1D0D90BC91A02D109731F0EA16F7
:1047B000FB0609F4BA016394EECF6F3FBFEF7B07AE
:1047C00099F1D80102C0AA0FBB1F6A95E2F78A2AA5
:1047D000B801062C02C0660F771F0A94E2F7AB01FE
:1047E00041505109682D70E046175707E1F4329E99
:1047F000F001339EF00D1124E854FC4F989ED00137
:10480000999EB00D1124A158BC4F12962D913C9148
:104810001397308727834482108211829287818781
:1048200015965C9205C014822F5F3F4F3D96A8CF2E
:104830000E94F5222196C37082CF0E9423230E94FA
:104840006D23CDB7DEB7E1E10C94103680911201F3
:10485000877F8093120182E00E94242B80911201B5
:1048600084FF06C08F7E8093120182E00E94322B6B
:104870008091120185FF06C08F7D8093120180E236
:104880000E94322B0E94DA2B0895662329F0209192
:1048900024052260209324059C01305221153043C9
:1048A00008F499270E9483340895009741F0EFE9B6
:1048B000FFE03197F1F700C000000197F6CF0895AF
:1048C000A0E0B0E0E6E6F4E20C94FB355C017B018D
:1048D000C42E89018091120182FF88C0C0917A03A1
:1048E000D0917B03CA15DB0521F0A114B10409F0B6
:1048F0007DC0809112018B7F8093120181FD11C0D8
:104900008091780390917903A701481B590B81E0AE
:1049100020911001309111014217530718F480E0E3
:1049200001C081E08170D82E80911201D0FA81F906
:1049300080931201FE01FF2784E0F695E7958A95A2
:10494000E1F79E012F703327EE0FFF1FE85AFC4F4F
:1049500081E090E002C0880F991F2A95E2F7DD20E0
:1049600029F020813181822B932B06C08095909570
:104970002081318182239323918380838091570307
:1049800081FF08C08091120180618093120182E052
:104990000E942B2B8091570385FF08C08091120144
:1049A00080628093120180E20E942B2BA8016D2D62
:1049B000CE010E944524CC2031F080910C0585FF6A
:1049C00002C086FF2BC080910F05909110050E94B8
:1049D000552480917A0390917B039C0130522115DC
:1049E000304308F499270E94693412C0C5019052DF
:1049F0008115904318F4C501992701C0C5010E9493
:104A0000693480917A0390917B03A816B90611F45A
:104A10000E942624F0927903E0927803CDB7DEB7A6
:104A2000EAE00C9417360F931F93CF93DF9301EFB7
:104A300014E0C8E5D2E0CE010E946435F80181930C
:104A40008F012196CC37F2E0DF07A9F7C0E0D0E074
:104A5000FE01EB55FA4F85919491009711F0FC01FE
:104A600009952C96CC3FD10599F7DF91CF911F91F5
:104A70000F910895E1EFF4E0128E138E8FEA90E02B
:104A80009183808325E0248F88E893E19383828358
:104A90008AE090E09583848344E150E05783468325
:104AA00048E050E051874087938782876EE170E04D
:104AB000758764879787868780E590E0918B808BE8
:104AC000538B428B48E250E0558B448B42E350E0DD
:104AD000578B468B48EC50E0518F408F158E178EC8
:104AE000168E91A380A322A30E94D2210E943B197B
:104AF00010922E0510922D05EEE2F5E08081846083
:104B0000808360912D0570912E0584E090E00E94D5
:104B1000A0350E9413250895AAE0B0E0E2E9F5E28D
:104B20000C94F9350FED12E08DECC82E82E0D82EF2
:104B30009CE1E92E93E0F92E2FE0922E3CECA32E7F
:104B400032E0B32E88248394F601019311936F0110
:104B50004AE050E0B701CE0101960E945435F801B9
:104B6000892D11928A95E9F789819A81F8019183BB
:104B700080838F8182838D818383888584838985E7
:104B800085838B819C819783868310868A8587FFA6
:104B900003C01686158603C0F801B686A58680FF79
:104BA00002C0F801808681FF04C0F8019085926000
:104BB000908782FF04C0F80190859460908783FFFE
:104BC00004C0F80190859860908784FF04C0F801C4
:104BD00090859061908785FF04C0F8018085806290
:104BE0008087015F1F4FFAE0EF0EF11C8CE6E8169C
:104BF00083E0F80609F0A8CF2A96ECE00C9415366D
:104C0000AAE0B0E0E6E0F6E20C94FD3580E5ECE7E2
:104C1000F2E0DF011D928A95E9F788E3EFE7F3E020
:104C2000DF011D928A95E9F78CE7C82E82E0D82E25
:104C30007F010CEC12E0F701D182C0824AE050E023
:104C4000B801CE0101960E94543588E0FE013196EC
:104C5000D60101900D928A95E1F789859A85D70151
:104C600013969C938E931297BAE0CB0ED11CE7E07B
:104C7000EE0EF11C065F1F4F0C31F3E01F07D9F653
:104C80002A96E8E00C941936AAE0B0E0EAE4F6E2ED
:104C90000C9403369C0137552F3F310509F050F431
:104CA000BE016F5F7F4F0E949E31892B19F4898569
:104CB0009A8504C08091090590910A052A96E2E040
:104CC0000C941F36ECEFF1E080E090E06AE277E2CE
:104CD00041E557E22FE936E27783668351874087C3
:104CE000338722879787868701967096883091054B
:104CF00099F70895A6E0B0E0E0E8F6E20C940336F8
:104D00009093E9018093E801811520E2920718F45D
:104D10000E94693410C080EF89838A830E94692DC4
:104D20008160682F9C838B8349815A817C8181E0DB
:104D300090E00E94E7312696E2E00C941F360F9334
:104D40001F93CF93DF938C01EB0162EF71E08C2F07
:104D50000E949E31892B09F042C080910F059091ED
:104D600010050E945524DD27C651DE4F8881F801C9
:104D700012821882833079F048F4813041F1823018
:104D800071F58091F4019091F50109C0843051F0E2
:104D90008530E9F024C08091F6019091F7010097E9
:104DA000B1F01BC08091F8019091F9010097A9F42E
:104DB0002091F2013091F3018091F4019091F5017D
:104DC0002115310541F0009741F4C90106C08091D9
:104DD000F2019091F301009711F00E947A26DF9181
:104DE000CF911F910F910895A6E0B0E0EAEFF6E2AF
:104DF0000C9403369093E9018093E801811520E239
:104E0000920718F40E94833410C080EF89838A834C
:104E10000E94692D8160682F9C838B8349815A8110
:104E20007C8181E091E00E94E7312696E2E00C94DB
:104E30001F36CF93DF93EC010E94F42680910F057B
:104E4000909110050E945524CE010E947A26DF9190
:104E5000CF9108950F931F93CF93DF938C01862FEB
:104E600062EF71E00E949E31892BB1F4C091F20192
:104E7000D091F301209781F0F8018281833039F4D9
:104E8000CE010E941927CE010E94192702C084304A
:104E900018F0CE010E941927DF91CF911F910F9139
:104EA00008950F931F93CF93DF938C01EB0162EF73
:104EB00071E08C2F0E949E31892B09F067C0DD279D
:104EC000F8018281813039F4958192FD13C090FF01
:104ED00011C082E00FC0823041F4F801858182FD6B
:104EE00006C080FD06C083E005C086E003C085E003
:104EF00001C084E0C651DE4F88838330B1F028F4CE
:104F0000813071F0823031F041C08430A9F08530B9
:104F100079F13CC08091F4019091F5010097A1F5E1
:104F20008091F2019091F30120C08091F60190915F
:104F3000F7010097E9F028C08091F8019091F901FC
:104F4000009711F58091F2019091F301009749F0DB
:104F50000E9419278091F4019091F501009781F04A
:104F600013C08091F4019091F501009779F00CC085
:104F70008091F2019091F301009741F00E9419276E
:104F80008091F2019091F3010E94F426DF91CF917C
:104F90001F910F91089581152CE7920759F4809184
:104FA000DB049091DC04892B19F480E090E00895F3
:104FB00080E09CE7089580E0089590912D0592FF90
:104FC00010C041E0282F2471243009F040E031E086
:104FD000282F2871283009F030E0431711F02CE019
:104FE000822793FF10C041E0282F2471243109F05B
:104FF00040E031E0282F2871283109F030E04317D4
:1050000011F02CE0822730912E0530FF10C051E0C6
:10501000282F2171213009F050E041E0282F28711C
:10502000283009F040E0541711F029E0822731FFC1
:1050300010C041E0282F2171213109F040E031E01A
:10504000282F2871283109F030E0431711F029E0AA
:10505000822794FD877E08958238910569F1B0F426
:105060008133910509F475C048F48932910509F43A
:1050700067C08A32910509F471C00895853391059E
:1050800009F459C089339105B9F00895833E91051B
:1050900089F138F4803E9105D1F0823E910529F1E5
:1050A0000895863E9105C9F1873E9105D9F1843E68
:1050B000910509F06CC027C020912D0520FD57C037
:1050C00021FD55C020912E0523FD5BC008958091E0
:1050D0002D0580FD48C080912E0580FF48C080913D
:1050E0002D0584FD46C083EE51C080912D0582FFC1
:1050F0003CC0F5CF80912D0582FD37C080912E05F3
:1051000080FD35C0ECCF80912E0581FF36C08091A7
:105110002D0584FD2EC087EE39C080912D0583FFBB
:105120002AC0F5CF80912D0583FD25C080912E05E5
:1051300081FD23C0ECCF80912D0585FD22C01FC0CD
:1051400080912D0585FD1BC080912E0583FF19C020
:105150000AC080912D0586FD16C017C080912D05CF
:1051600086FD13C010C089E311C082EE0FC080EE2F
:105170000DC080E00BC086EE09C084EE07C085E359
:1051800005C089E203C08AE201C081E390E008958E
:10519000F894E82FE295EF70F0E031A1282F2F70FE
:1051A00081E090E001C0880F2A95EAF7982F90954A
:1051B000932391A392A1892B82A378940895AAE0C6
:1051C000B0E0E5EEF8E20C94F735AE014F5F5F4FCB
:1051D0007A018AE0FA0111928A95E9F700E211E07A
:1051E0006A0195E2692E91E0792E88248394912CAE
:1051F000F80180818F3F09F447C0F894E82FE295C9
:10520000EF70F0E021A18F70A40102C0440F551F80
:105210008A95E2F7CA01922F982B91A392A18095CB
:10522000892382A3789400C0E5E2F1E021E030E038
:10523000A12CB12C41914F3F89F0A42FA295AF70C2
:10524000B0E090968C9190E04F7002C09595879554
:105250004A95E2F780FD02C0C90102C080E090E0FB
:10526000A82AB92A220F331F51E0E333F50711F7BB
:10527000F80180818F3F11F00E94C828F0EAFA956A
:10528000F1F7F601B182A0820F5F1F4FF2E0CF0E5F
:10529000D11C6016710609F0ABCF4AE050E0B701AF
:1052A00083E891E00E942A36892B91F08AE0F70189
:1052B000A3E8B1E001900D928A95E1F781E0809337
:1052C000B2040E94692D9093B1048093B0040CC085
:1052D0008091B204882341F08091B0049091B10490
:1052E0000E944E2D059710F480E018C04AE050E06F
:1052F00063E871E08AEA91E00E942A36892B59F02E
:105300008AE0E3E8F1E0AAEAB1E001900D928A9523
:10531000E1F781E001C080E01092B2042A96EEE04D
:105320000C9413362091B4013091B501232BA1F4D4
:10533000703F39F4603F81F48091E8019091E90178
:105340000895753048F46E3038F4843028F4462FD0
:10535000672F0E94C722089580E090E008951F9370
:10536000CF93DF930E942C28EC01C11580E5D8076C
:10537000E8F5C11590E4D90708F0A8C0C03ED105F2
:1053800030F5CD3CD10508F094C0C83AD10578F489
:10539000C53AD10508F083C0C130D10509F47CC0FD
:1053A00008F4F2C0C430D10508F0F1C0EDC0C33C30
:1053B000D10508F0E9C0C85AD0E0CC0FDD1FCB5BA7
:1053C000DE4F0990D881C02DCE019464E1C0C11593
:1053D00080E2D80708F0CBC0C11591E0D90708F0EA
:1053E0006BC0C83ED10508F4D2C0CEC0C03682E53D
:1053F000D80728F5C03492E5D90708F079C0C03243
:1054000082E5D80708F06CC0C11592E5D90708F409
:1054100081C04C2F4695469580E2489FA0011124FB
:10542000C37021E030E0C90102C0880F991FCA95FE
:10543000E2F7EA01C82BD92BCE019D68A9C0C03A7A
:1054400082E5D807B8F48C2F8F71C03892E5D90760
:1054500008F07BC08695869590E2899F9001112483
:10546000C37081E090E002C0880F991FCA95E2F7EF
:105470009A6868C0C03C82E5D80708F46DC0C03E99
:1054800092E5D90708F080C0CF71DD27DC2FCC274B
:10549000CE01806F906A7CC081E090E079C0C55AEF
:1054A000D0E0CE5BDE4F8881C82FD0E0CE01906483
:1054B0006FC0CE0190656CC08D2F0E94DD27182F24
:1054C000CE0199270E942C281F715CC0CE0199271C
:1054D0000E942C28CC27DF70D06A8C2B9D2B58C0C3
:1054E000CF71D0E0DC2FCC27CE01816F906A50C005
:1054F0008C2F8F718695869590E2899F900111245B
:10550000C37081E090E002C0880F991FCA95E2F74E
:105510009C6818C08C2F8F710E94DD2795E0D6956E
:10552000C7959A95E1F7CF70D0E0DC2FCC27282FD4
:1055300030E084FF05C084E0220F331F8A95E1F735
:10554000D069CE01822B932B23C090E0D82FCC279B
:10555000CE01846F906A1CC08C2F8F710E94DD2752
:105560008F7190E0D82FCC27CE01906211C08D2F83
:105570008F710E94DD27182FCE0199270E942C28B9
:105580001F719062912B04C080E090E001C0CE01B9
:10559000DF91CF911F910895A6E0B0E0E2EDFAE22D
:1055A0000C9401360E94692D8C018091AE0490917B
:1055B000AF040817190781F019821A820E94692D19
:1055C000682F49815A81792F80E090E00E94E7316D
:1055D0001093AF040093AE042696E4E00C941D36BD
:1055E0008091AD04882331F01092AD041092AC0488
:1055F0001092AB040895CF9390912E0592FF0DC0A9
:105600009091AD04981749F0C82F0E94692D90938E
:10561000AC048093AB04C093AD04CF9108959091F6
:10562000AD04292F282379F0809589238093AD0438
:10563000882319F00E94692D02C080E090E09093C9
:10564000AC048093AB040895809590912405892340
:105650008093240508958095909157038923809322
:105660005703089590915703892B8093570308950A
:1056700010928204109281041092800408959091F7
:1056800082048095892380938204282F277069F4EF
:10569000981759F090912E0592FF07C08695869530
:1056A00086950E94F7160E94382B089590912E053A
:1056B00092FB222720F9281779F080FB92F990932A
:1056C0002E0560912D0570912E0584E090E00E94DA
:1056D000A03582E00E943F2B089590912E0592FF05
:1056E00010C098E0899F90011124262B20938204FA
:1056F0000E9404170E94692D909381048093800476
:1057000008950E94041708958091F3049091F40481
:10571000892B89F00E94692D2091AB043091AC0453
:10572000AC01421B530B81E02091F3043091F4044F
:105730004217530708F480E081700895CF93C09119
:10574000570380912405C82B8091AD04882349F12B
:105750008091F3049091F404892B29F00E94842B0A
:1057600081110E94F02A8091AD04C82B80910B0119
:10577000882341F080912D0587FF04C02EE18DEB39
:1057800094E003C026E085EB94E0FC0180E021502A
:1057900028F091919923D9F38F5FF9CF81110E945D
:1057A000F02A8091E9048095C8238091EA048C2B2B
:1057B000CF91089580910B01882351F180912D059F
:1057C00087FF26C00E949E2B8093BC0440E250E0DD
:1057D00063E874E08BEB94E00E942A36892BD9F1C0
:1057E00080E2EBEBF4E0A3E8B4E001900D928A953F
:1057F000E1F7E0912905F0912A05309761F186E003
:105800008093BB040480F581E02D8BEB94E022C0F3
:105810000E949E2B8093B30448E050E063EA74E05A
:1058200083EB94E00E942A36892BA9F088E0E3EB11
:10583000F4E0A3EAB4E001900D928A95E1F7E091DB
:105840002905F0912A05309731F00280F381E02D8F
:1058500083EB94E00995089590917F04292F2823E4
:1058600021F08095982390937F04089520917E04E1
:105870009091350459E02917A9F030E0529FF001CA
:10588000539FF00D1124EA5CFB4F7181761306C023
:105890007081781303C07581741306C02F5F3F4F6A
:1058A0002770E9CF80E0089581E0089580917E041B
:1058B00090913504891719F08F5F8770FBCF089599
:1058C000A0E0B0E0E6E6FCE20C94FE358091320404
:1058D00082958F7009F052C080913104882309F4B9
:1058E0004DC0C0917E0489E0D82E80913504C81740
:1058F00009F444C0D0E0DC9E8001DD9E100D11242F
:10590000F801EA5CFB4F84818823A9F191818091A1
:105910002D04981330C0908180912C0498132BC0D3
:105920008581811128C0E280F38080912E049091BE
:105930002F04E81AF90A60E08CE294E00E94D83162
:105940006CE274E00E944426E816F906A0F4809107
:1059500032048F70806180933204F801E45CFB4F65
:1059600080818F70806180838CE294E00E94F604D5
:105970000E94562C03C02196C770B7CFCDB7DEB7B3
:10598000E7E00C941A368091D30108950F931F938A
:10599000CF93DF938B01EA019091DE01943079F58A
:1059A0008F708093E9008FEF9091E800815095FD12
:1059B00006C095ED9A95F1F700008111F5CF809121
:1059C000E80085FF1CC00E94F420882361F08091CC
:1059D000E8008E778093E80012C0F80181918F0172
:1059E0008093F1002197209791F38091E80085FD45
:1059F000F4CF8091E8008E778093E800E4CFDF91C8
:105A0000CF911F910F91089581E08093E00080E293
:105A10008093D8001092C9008FE19EE40197F1F7BE
:105A200000C0000087E090EBDC0180933405909388
:105A30003505A0933605B09337059CE088E10FB695
:105A4000F894A895809360000FBE90936000FFCFFC
:105A500078941F920F920FB60F9211248F939F93F9
:105A6000AF93BF938091300590913105A09132059D
:105A7000B09133050196A11DB11D8093300590931F
:105A80003105A0933205B0933305BF91AF919F913B
:105A90008F910F900FBE0F901F9018959C014FB7DC
:105AA000F8948091300590913105A0913205B09124
:105AB00033054FBF821B930B08952FB7F894609165
:105AC00030057091310580913205909133052FBFDB
:105AD00008952FB7F8948091300590913105A091E9
