:100000000C94C3020C94FB020C94FB020C94FB02B4
:100010000C94FB020C94FB020C94FB020C94FB026C
:100020000C94FB020C94FB020C947C2E0C94312D4E
:100030000C9422300C94FB020C94FB020C94FB02F7
:100040000C94FB020C94FB020C94FB020C94FB023C
:100050000C94FB020C94D52F0C94FB020C94FB0225
:100060000C94FB020C94FB020C94FB020C94FB021C
:100070000C94FB020C94FB020C94FB020C94FB020C
:100080000C94FB020C94FB020C94FB020C94FB02FC
:100090000C94FB020C94FB020C94FB020C94FB02EC
:1000A0000C94FB020C94FB020C94FB02E907E90799
:1000B0001C081C088F08AD08B909B909B8082C0933
:1000C0003D093D09C80ECB0EEC0EF90E000F200FB6
:1000D000230F340F4B0FEA0FEA0F500F520F560F3A
:1000E0007C0F9F0FA20FA50FC90FEA201121BA2282
:1000F0001121BA225D218021BA22752285220000B9
:1001000000000000000000000000000000000000EF
:1001100000000000000000000000000000000000DF
:1001200000007E0F00D4FFFFFFC700000078000032
:100130000000000000002A2B280000000000000042
:1001400000000000000000000029000000002C1E3C
:100150003420212224342627252E362D3738271EF9
:100160001F202122232425263333362E37381F041F
:1001700005060708090A0B0C0D0E0F1011121314B7
:1001800015161718191A1B1C1D2F3130232D350475
:1001900005060708090A0B0C0D0E0F101112131497
:1001A00015161718191A1B1C1D2F3130354C050157
:1001B0000902A10185020901A10005091901290807
:1001C00015002501950875018102050109300931E5
:1001D0001581257F95027508810609381581257FCF
:1001E000950175088106050C0A38021581257F9551
:1001F0000175088106C0C005010980A101850319A8
:10020000012AB700150126B700950175108100C0BD
:10021000050C0901A101850419012AA00215012676
:10022000A002950175108100C005010906A1018594
:1002300006050719E029E7150025019508750181D4
:10024000020507190029EF1500250195F0750181B8
:100250000205081901290595057501910295017599
:10026000039101C00660FF0961A101096215002622
:10027000FF009520750881020963150026FF00958F
:100280002075089102C005010906A101050719E0C2
:1002900029E715002501950875018102950175086A
:1002A00081010507190029FF150026FF0095067535
:1002B0000881000508190129059505750191029528
:1002C0000175039101C009025B00030100A0FA0956
:1002D0000400000103010100092111010001224075
:1002E0000007058103080001090401000203000062
:1002F00000092111010001222200070582032000CC
:1003000001070503032000010904020001030000A6
:100310000009211101000122B60007058403200015
:10032000011201000200000008D445210001000173
:1003300002000112036F006D006E00690068006822
:10034000006B00620000000C03530061006C00763B
:100350000061000000040309040001010101010122
:10036000010101020202020202020202030303036C
:10037000030303030404040404040405050505053C
:1003800006060606060707070707080808080909FA
:1003900009090A0A0A0B0B0B0C0C0C0D0D0D0E0EA5
:1003A0000E0F0F0F10101111111212131314141538
:1003B0001516161717181819191A1A1B1B1C1D1DAC
:1003C0001E1E1F2020212222232424252626272802
:1003D00029292A2B2C2D2D2E2F3031323233343532
:1003E000363738393A3B3C3D3E3F40414243444535
:1003F000464748494A4C4D4E4F5051535455565814
:10040000595A5B5D5E5F616264656668696B6C6DBD
:100410006F7072737577787A7B7D7E808283858733
:10042000888A8C8E8F91939596989A9C9EA0A2A371
:10043000A5A7A9ABADAFB1B3B5B7BABCBEC0C2C476
:10044000C6C9CBCDCFD1D4D6D8DBDDDFE2E4E7E936
:10045000EBEEF0F3F5F8FAFDFF29001E001F002077
:100460000021002200230024002500260027002D63
:10047000002E00310035002B0014001A0008001572
:100480000017001C0018000C00120013002F003091
:10049000002A000000E00004001600070009000A1E
:1004A000000B000D000E000F003300340000002888
:1004B000000000E10000001D001B000600190005FF
:1004C00000110010003600370038000000E5000180
:1004D00051E000E200E30000000000000000002CFA
:1004E0000000000000E7000000E600E4000000A5B6
:1004F000003A003B003C003D003E003F0040004110
:1005000000420043004400450049004C003900010E
:100510000001000100010001000100010046004748
:1005200000480052000100010000000100AA00A9DB
:1005300000A80001000100550054004A004B005083
:10054000004F000000580000000100000001000101
:1005500000010001000100570056004D004E0051FF
:100560000000000100010001000100010000000086
:100570000000000000010000000000010000000178
:1005800000010000000011241FBECFEFDAE0DEBF43
:10059000CDBF04B603FE18C080919B0590919C05C9
:1005A000A0919D05B0919E058730904BA740B04B20
:1005B00059F410929B0510929C0510929D05109283
:1005C0009E05E0E0F8E3099512E0A0E0B1E0ECE27E
:1005D000F9E602C005900D92A43AB107D9F725E0DB
:1005E000A4EAB2E001C01D92AB39B207E1F70E9464
:1005F000B00A0C9494340C9400001F93CF93DF93B3
:10060000CDB7DEB767970FB6F894DEBF0FBECDBF8C
:100610004B8B5C8B6D8B7E8B8F8B61111092E20309
:1006200086E09E01235F3F4FD901E82F1D92EA9596
:10063000E9F795E0FE017396D90101900D929A9524
:10064000E1F79C894E895F897B897D879E876F87CB
:10065000598B488BF901DE01179601900D928A950E
:10066000E1F7CE0107960E943B1B81113EC086E058
:10067000FE013796DE01119601900D928A95E1F701
:10068000FF81E8856A857B856115710531F0EF3F53
:1006900031F481E0FF3F19F403C081E001C080E044
:1006A00080FD23C020918F0330E0C901019687703F
:1006B00099274091C00350E08417950779F1F98399
:1006C000EA837D836C8396E0929FD001939FB00D67
:1006D0001124A057BC4FFE01319601900D929A95BE
:1006E000E1F780938F030E94B81A16E08091C0034F
:1006F00090918F038917F9F0189FC001112480573A
:100700009C4F0E943B1B8823B1F08091C00390E076
:100710000196877099278093C003E8CF0E94C0316B
:1007200010928F031092C003E9E8F3E086E0DF0146
:100730001D928A95E9F767960FB6F894DEBF0FBE53
:10074000CDBFDF91CF911F9108953F924F925F925D
:100750006F927F928F929F92AF92BF92CF92DF92D1
:10076000EF92FF920F931F93CF93DF93CDB7DEB736
:1007700029970FB6F894DEBF0FBECDBFFC01808174
:10078000918123813481232B31F09F3F31F491E01B
:100790008F3F19F403C091E001C090E090FDC8C6FE
:1007A0007F0185E0DE01119601900D928A95E1F7B7
:1007B000F701228189819A81222349F00E94FB302E
:1007C000182F682F89819A810E94563103C00E9498
:1007D0002A31182F69817A81812F0E94EF298C019B
:1007E000F7018281882309F4F2C0980122513F4524
:1007F0002031310508F01DC18FEF93E00E94943342
:100800008111EFC002513FE7832E32E0932E002387
:1008100079F08114F4E09F0609F4E3C0C4010E945A
:100820009433811101C001502FEF821A920AEFCF49
:100830001E821F8218861986442443942AE0322E91
:1008400084010F5F1F4FC4010E9494338E831F8267
:10085000882309F4C6C09FEF980F933060F48F830C
:100860004E8232E0830E911CC8010E949433888727
:10087000811102C0B6C048018E010A5F1F4FF80106
:1008800020812223E9F2213009F04CC0818181309E
:1008900049F46801F2E0CF0ED11CF80182810E9478
:1008A0000A330AC0823051F46801F2E0CF0ED11C45
:1008B000F80182810E944632860186C0833049F465
:1008C0006801F2E0CF0ED11CF80182810E94E6316E
:1008D000F3CF843019F00F5F1F4F76C0F8012281EB
:1008E0000E5F1F4F80E090E030E0205331092A3046
:1008F000310568F4389EA001399E500D1124C901BC
:10090000840F951F0F5F1F4FF8012081EDCF0097D7
:1009100009F45AC0EFE9FFE03197F1F700C0000099
:100920000197F5CFE22FF0E0E25DFE4F5490822F69
:1009300086958695869590E0FC01E25EFE4F649078
:100940002770712C022E02C0759467940A94E2F706
:10095000F1E06F227724FC01E25FFE4FA490B12CFE
:10096000022E02C0B594A7940A94E2F731E0A322C4
:10097000BB24FC01E250FF4FC490D12C02C0D5949F
:10098000C7942A95E2F781E0C822DD24611471043E
:1009900019F081EE0E944632A114B10419F086EEDE
:1009A0000E944632852D0E940A33AB2819F086EE4C
:1009B0000E94E631672819F081EE0E94E631CD28C9
:1009C00019F08CE20E940A330F5F1F4F58CF00319D
:1009D000EFE51E0709F02AC581E00E9485310E94DB
:1009E000DC1C8091C103877009F4A2C5F7018281E4
:1009F000882309F49DC58091780582FD99C582E020
:100A000029960FB6F894DEBF0FBECDBFDF91CF9110
:100A10001F910F91FF90EF90DF90CF90BF90AF901C
:100A20009F908F907F906F905F904F903F900C942D
:100A30007E1A00313FE5130711F481E005C0013152
:100A40009FE5190721F482E00E949131C8CF0D3B48
:100A5000FCE51F0781F480916805982F969596957F
:100A60009695C9F1915E990F990F990F8770892B0F
:100A70008093680524C00E3B2CE5120708F43EC0A5
:100A80000F3BECE51E0769F108F4B3C4003C2CE50C
:100A9000120709F045C090916805892F86958695C3
:100AA00086958F5F8F71863008F0BCC4880F880FE1
:100AB000880F9770892B8093680580916805887FDF
:100AC00091E009F490E08091680590FB80F98093B3
:100AD00068050E94F92A8091680586958695869515
:100AE0000AC08091680580FF79C48E7F8093680575
:100AF0000E94F92A80E00E94462A73CF0B3B3CE516
:100B0000130711F485E005C00C3B9CE5190741F47F
:100B100080E00E94FE2A809168050E94F92A61CF38
:100B2000033FFCE51F0799F406E221EE40EE63EF78
:100B30007CE509C0073DECE51E0711F506E221EE54
:100B400041EE67ED7CE5C7010E9412294ACF043FC0
:100B50002CE5120708F05CC1083D3CE5130731F4B1
:100B600007E225EE45EE68ED7CE5EDCF093D9CE51D
:100B7000190701F708E221E045EE69ED7CE5E3CFD6
:100B8000882309F47AC110926B0503309DE519079B
:100B900058F40A3FECE51E0780F4C80182509C45DA
:100BA000449708F054C109C00136FDE51F0729F03C
:100BB000053A2DE5120709F04AC10E949619909353
:100BC00078058093770501313CE5130709F4C6C029
:100BD00008F042C009309CE5190709F49BC000F5F4
:100BE0000530FCE51F0709F485C078F403303CE5C7
:100BF000130709F478C008F07AC002301C4509F0E8
:100C0000F7C0809177058160F1C00730ECE51E07E1
:100C100009F478C008F07AC0809177058061E6C059
:100C20000D302CE5120709F487C058F40B308CE521
:100C3000180709F479C008F07BC0809177058860B7
:100C40006FC00F30ECE51E0709F480C008F082C0C9
:100C500080917705877FCAC00D3F2CE5120709F404
:100C600071C000F505318CE5180709F485C068F4FA
:100C70000331ECE51E0709F475C008F095C00E9429
:100C8000C031809177058F77B1C00B3F2CE51207FB
:100C9000A9F108F054C00A3F1C4509F0A9C0809191
:100CA000780540C001309DE5190709F489C058F462
:100CB0000F3FFCE51F0709F45AC008F069C0809196
:100CC000780582602FC001363DE5130709F47EC028
:100CD000053A8DE5180709F483C002301D4509F077
:100CE00087C060E06EC08091770582607FC0809190
:100CF000770516C080917705886078C08091780567
:100D000082604FC080917705806270C080917705C6
:100D100080646CC00E94C03180917705806866C095
:100D2000846064C081603DC0809177058E7F5EC025
:100D3000809177058D7F5AC08091770516C080918C
:100D4000780518C0809178058D7F2BC0809177053C
:100D50008F7E4CC0809177058F7D48C0809177054C
:100D60008F7B44C080917705877F8B7F3FC08091C8
:100D700078058D7F8E7F15C08091770582FB2227B5
:100D800020F991E0922790FB82F990FB83F92EC025
:100D900080917805982F909591708E7F892B90FB8C
:100DA00081F98093780524C00E94C0318091770535
:100DB00087FB222720F991E0922790FB87F916C044
:100DC00061E08EE090E00E94B23312C0809177051E
:100DD00084FB222720F991E0922790FB84F906C03A
:100DE00080917705982F909590FB80F980937705F7
:100DF000609177051091780584E090E00E94B2330D
:100E0000612F82E290E00E94B2330E94C031E9CDAE
:100E1000053FFCE51F0731F406E221EE42EE65EFE7
:100E20007CE591CE053F2CE5120730F407E225EE74
:100E300044EE64EF7CE587CE063F3CE5130709F0FE
:100E40009FCE07E225EE46EE66EF7CE57CCE0631CE
:100E50008CE5180721F58091E3038A7A91E009F483
:100E600090E09093A602882311F065E301C069E247
:100E700089E693E00E9473300FC006312CE512071B
:100E800009F040C08091A602882309F4D6C265E328
:100E900089E693E00E944B300E94291AA2CD0A35C0
:100EA0009DE5190749F158F40115FCE51F07B1F05C
:100EB0000E3D1C4509F040C00E94B21992CD0B3581
:100EC0003DE51307D9F00C351D45B1F58091780546
:100ED00082FB882780F991E0892711C00E94C031E8
:100EE0009FEFE4E3FCE09150E040F040E1F700C008
:100EF00000000E94B12F75CD81E001C080E00E940A
:100F00009B1A1AC08091E30382720A3CECE51E072B
:100F100009F4F7C208F493C20F3CFCE51F0709F47B
:100F200003C308F4BBC2063D2CE5120708F4C5C292
:100F30000D351D4509F455CDF701828100811181E0
:100F4000882349F0C8010E94FB30D82E682FC801C1
:100F50000E94563104C0C8010E942A31D82EB8011F
:100F60008D2D0E94EF290E94FC17B82E192F982E64
:100F7000F7010281A580A2949FE0A9228091C1037C
:100F80008770B9F00023A9F0812F807F803421F091
:100F900080E28B0D883068F08091780582FD09C071
:100FA00082E00E947E1A8091C1038770DD24D39471
:100FB0008111D12CC12EC2948FE0C8228C2D90E0DB
:100FC0008C30910508F0D5C1FC01EA5AFF4F0C9412
:100FD0007134812F807F1F70882311F01295107F4C
:100FE0000023B9F0112309F4B2C180E28B0D8830DF
:100FF00010F0911006C08091E303182B1093E303C7
:1010000005C08091E203182B1093E2030E94291A75
:101010009EC18B2D0E94E631112309F4AAC180E202
:101020008B0D883080F1992071F110958091E20349
:1010300018231093E2032AC0812F807F1F70803213
:1010400011F01295107F8B2D992021F0F1E09F1661
:10105000D9F149C08091780582FF1BC0002369F057
:10106000112339F08091E303182B1093E3030E94BE
:10107000291A80E00E9446327CC180E00E94E6315D
:10108000112309F476C1812F0E94221A0E94291A85
:1010900070C1002381F08091E403AA2051F021E087
:1010A000A21207C0182B181709F463C11093E403A8
:1010B00060C1812B10C0AA2021F031E0A31609F4F1
:1010C00058C10E941C1A27C0002341F085E08A15F0
:1010D00008F44FC1812F0E94DC314BC194E09A1576
:1010E00008F447C118C0002349F0AA2099F3F7017A
:1010F000858180FF2CC18F708583ECCFAA2059F0A9
:10110000893309F033C1FFEF27EE33E0F15020407F
:101110003040E1F729C1812F0E94D5312AC1812FAA
:1011200086958695837019F0813061F022C1002385
:1011300021F08B2D912F937002C080E090E00E94EF
:10114000BE301DC1002321F08B2D912F937002C062
:1011500080E090E00E94A83012C18B2D002319F08E
:101160000E94082802C00E944F270E94252707C11D
:10117000812F8370A9F5011100C14B2D4295469531
:101180004770440F440F8B2D8F7090E09C01042E0C
:1011900001C0220F0A94EAF7B4FE08C08FE090E085
:1011A00001C0880F4A95EAF7809501C080E0169546
:1011B00016951370123069F088F49091E5031130A0
:1011C00019F0822B892302C0922B892B0E949C311B
:1011D000D4C0822B9091E5038927F8CF822BF6CFDC
:1011E000002319F0812F817001C08695882309F4AE
:1011F000C4C04B2D429546954770440F440F8B2D2C
:101200008F7090E09C01042E01C0220F0A94EAF72F
:10121000B4FE08C08FE090E001C0880F4A95EAF75D
:10122000809501C080E0169516951370123059F024
:1012300078F490914B04113019F0822B892309C066
:10124000922B892B06C0822B90914B04892701C0D9
:10125000822B0E94813191C01F70002339F0812FB1
:101260000E9491318B2D0E94DC3187C08B2D0E9412
:10127000D531812F0E94853180C08B2D92EF991638
:1012800079F1991538F0E0EF9E1659F0F1EF9F16BD
:1012900011F159C023EF921651F134EF9316B9F0C2
:1012A00052C0002379F084E08A1508F462C01F71EF
:1012B00081E090E001C0880F1A95EAF790914B0405
:1012C00089271FC095E09A1508F453C0F0CF80918C
:1012D000780582FF19C0002329F0812F8F7126C065
:1012E0000023D9F3812F8F710E94853142C00023E2
:1012F00039F01F7181E001C0880F1A95EAF701C02B
:1013000080E00E94813135C0002399F01F71812F48
:101310000E9491318091780582FD07C0E8E01E9F10
:10132000C001112483608093C103812F0E949131F9
:1013300020C081E00E947E1AF1E0FA15D0F482E02C
:101340000E947E1A16C0002321F0AA2031F28B2DB4
:1013500091CEAA2039F2893349F42FEF37EE83E09A
:10136000215030408040E1F700C000008B2D0E94EA
:10137000E63188EF8C0D843010F40E94D430DD20EB
:1013800009F4D6C08091C10380FDD2C0F70112825A
:101390008595859585950E949131C7010E94A50389
:1013A0008091C10385958595859529960FB6F8940A
:1013B000DEBF0FBECDBFDF91CF911F910F91FF9088
:1013C000EF90DF90CF90BF90AF909F908F907F90E5
:1013D0006F905F904F903F900C9485318160809327
:1013E0006805813019F489E080936805809168056B
:1013F00070CB20916805822F869586958695482F1B
:1014000050E04530510554F48F5F982F990F990F94
:10141000990F822F8770892B8093680580916805CA
:10142000816055CB97709093680547CB0131FFE5FC
:101430001F0709F075CB82E0D0CA69E229CD053CCF
:101440002CE5120709F449C0B8F4033C9CE51907E0
:10145000D1F1F0F5023C1C4509F06ECD90914504A8
:1014600081E08927809345041092140180914404FF
:10147000816080934404B5CA073C2CE51207B9F19A
:1014800088F1083C9CE51907B9F1093C1C4509F0B5
:1014900053CD4DEB58E269EC78E241C00C3C3CE5A1
:1014A0001307C9F198F10D3CECE51E07D9F10E3C8C
:1014B0001C4509F041CD85E038C0013D1C4508F0D0
:1014C00090CA82E132C04FEF58E268E079E227C06B
:1014D00048E059E26FEF78E222C04DEE58E266EF45
:1014E00078E21DC046EF58E26DEE78E218C045ED97
:1014F00058E261EE78E213C041EE58E265ED78E221
:101500000EC049EC58E26DEB78E209C04BE758E2B7
:1015100069E878E204C049E858E26BE778E20E94A3
:10152000422B5FCA81E001C08DE00E94E71C59CACE
:1015300029960FB6F894DEBF0FBECDBFDF91CF91D5
:101540001F910F91FF90EF90DF90CF90BF90AF90E1
:101550009F908F907F906F905F904F903F900895F5
:10156000CF93DF93CDB7DEB7AA970FB6F894DEBF5F
:101570000FBECDBF84B7877F84BF0FB6F894A89500
:1015800080916000886180936000109260000FBEBF
:1015900090E080E80FB6F89480936100909361002A
:1015A0000FBE85B7806885BF85B7806885BF87EB2C
:1015B00096E19093A5028093A4020E94752D0E944B
:1015C0001B2E8091E20084608093E20078948091E9
:1015D0000D048823A1F01091E9001F709091EC0098
:1015E000892F817090FD80E8182B1092E90080917E
:1015F000E80083FD0E9402201F701093E90082E042
:1016000084BD93E095BD9AEF97BD80936E000E94D4
:101610002D2A811102C00E941E2A0CE111E0ABE2CA
:10162000EA2EA1E0FA2ED8018D918D018F3F11F0A5
:101630000E94FC16E016F106B1F70BE211E0F0E3B0
:10164000EF2EF1E0FF2EF80181918F018F3F11F015
:101650000E94FC16E016F106B1F78AE0EDEBF2E02D
:10166000DF01282F1D922A95E9F7E7EAF2E0DF0172
:101670001D928A95E9F70E94A719811102C00E9464
:10168000B21982E090E00E9494338093B1020E94EC
:10169000961990937805809377050E941317EFE3CE
:1016A000FCE93197F1F700C000000E941317809108
:1016B000BD0280FF08C06FEF7FEF80E090E00E94E6
:1016C000D0330E94B12F83E090E00E9494330E94B7
:1016D0009C31279A2F988AE08093800089E180933B
:1016E00081008FEF9FEF90938700809386000E9488
:1016F000172B10921B04E4E3F4E084E494E02FEF52
:101700003FEF219331938E179F07D9F71092590419
:10171000E2E7F4E08FEF9FEF8193919324E0E238CA
:10172000F207D1F70E94A719811104C00E94B219D3
:101730000E94BC2546E050E06CE170E085E494E056
:101740000E94843310924404809145048C7F11F4EC
:101750000E94BC250E94172B84E091E090936F05B6
:1017600080936E05E8E12E2E312C442443948E01A3
:101770000F5F1F4F80910D04853009F066C053E064
:10178000D52E60E1E62E72E1F72E80910D048530B2
:1017900009F053C080910D04843009F43BC080E00F
:1017A0000E94462A0E94B52B8091860481110DC0AB
:1017B0000E943D101092180180914504837080931F
:1017C00017010E949728D092140131E030938604CB
:1017D0001092720540E40FB6F894A895209260002C
:1017E0000FBE4093600083B7817F846083BF83B75F
:1017F000816083BF7894889583B78E7F83BF0FB64F
:10180000F894A895809160008861809360001092A0
:1018100060000FBE80910C04882309F4B6CF0E94AB
:101820001317EDEBF2E081919191892B09F0FCC344
:1018300062E0E73CF607B9F7A8CF0E94C0310E94EA
:10184000172B0E94D430109286040E941317811126
:101850000E940A304DEB842E42E0942EE2EBF2E03F
:10186000D401C12CD12C5C2CAD90BD908191919173
:101870008A259B25009709F446C1712CEE24E39438
:10188000F12C970128233923232B09F436C179A29F
:101890005AA2AE20BF2081E0A114B10409F480E077
:1018A0008BA30E9416308160782F9DA38CA349A141
:1018B0005AA16BA18DA10E94FD02F601EE0FFF1F40
:1018C000EE54FD4F80819181E826F926F182E08275
:1018D000AB2839F0A801672D852D0E94AA25682E16
:1018E00001C0612CE62CF12C80915904D701A80F7E
:1018F000B11D19976CF188E090E05C01AE18BF084B
:10190000B701665A7B4FA5018AE594E00E948B34AB
:10191000B7016E597B4FA50182E694E00E948B349B
:10192000A501440F551FB701660F771F6E587B4FF7
:1019300082E794E00E948B34B70166597B4FA50182
:101940008AE694E00E948B3488E0861980935904DB
:10195000F0905904A80160E08F2D860F661609F1FA
:1019600090E0FA017191AF01272F30E0FC01E75AB6
:10197000FB4FD901AA0FBB1FA554BE4FAC91A18349
:10198000220F331FD901A454BE4F2C912187718B94
:10199000880F991FFC01E75AFB4F128E118E6F5F63
:1019A000DBCF80935904809145048C7F883709F000
:1019B000C2C0AFEFA50DFF24F394F50C5FEF570DF8
:1019C00041E0470D571580F48FE08C9DF0018D9D0F
:1019D000F00D1124E25EFC4FE50FF11D208130E196
:1019E000230F08F42FEF2083272D30E07FE07C9D2C
:1019F000C0017D9D900D1124825E9C4FFC01E20F81
:101A0000F31F7081B0E26B2F760F08F47FEF7083C5
:101A10004F3051F0FC01E40FF11D708180E1682F1F
:101A2000760F08F47FEF708375E0F71609F431C084
:101A3000EF2CF12C571588F48FE08E9DF0018F9DCF
:101A4000F00D1124E25EFC4FE50FF11D80819DE059
:101A5000BC01670F08F46FEF6083EFE0EE9DC001FB
:101A6000EF9D900D1124825E9C4FFC01E20FF31F4D
:101A7000608170E1670F08F46FEF60834F3049F0C9
:101A8000FC01E40FF11D60817DE0670F08F46FEF4A
:101A90006083A51508F04FC0B0E0571580F48FE0C3
:101AA0008A9FF0018B9FF00D1124E25EFC4FE50F41
:101AB000F11D50816DE0560F08F45FEF50838FE009
:101AC0008A9FF0018B9FF00D1124CF01825E9C4F05
:101AD000FC01E20FF31F208130E1230F08F42FEF08
:101AE00020834F3041F1FC01E40FF11D20813DE0E6
:101AF000230F08F42FEF20831EC07394EE0CFF1CFD
:101B00002FE07212BECE3FEFC31AD30A45E0C416CF
:101B1000D10409F0A8CE8FEF8EA38FA318A60E9440
:101B200016308160782F9AA789A74EA15FA168A57A
:101B30008AA50E94FD020E94B52B86E0E3E5F4E051
:101B4000D80101900D928A95E1F7C0905504D0908C
:101B50005604E0905704F0905804109255041092E7
:101B600056041092570410925804C11003C0DD208F
:101B700009F44FC080915104909152040E94FB2FB0
:101B80009C0190914D04992309F46DC225313105D2
:101B900008F43FC09F3F19F09F5F90934D04CC2005
:101BA00061F00E94E8271C1414F491E001C09FEF3B
:101BB000899F802D112480935504DD2061F00E94BF
:101BC000E8271D1414F491E001C09FEF899F802D38
:101BD000112480935604309155043323D1F0209181
:101BE00056042223B1F065EB3603C001112499237A
:101BF00019F09093550402C04092550475EB2703E9
:101C0000C0011124992319F09093560402C0409208
:101C10005604E11003C0FF2009F44FC080914F0427
:101C2000909150040E94FB2F9C0190914C049923A9
:101C300009F41EC22135310508F43FC09F3F19F059
:101C40009F5F90934C04EE2061F00E94C6271E1403
:101C500014F491E001C09FEF899F802D112480939F
:101C60005704FF2061F00E94C6271F1414F491E06E
:101C700001C09FEF899F802D1124809358043091DB
:101C800057043323D1F0209158042223B1F045EBBF
:101C90003403C0011124992319F09093570402C012
:101CA0004092570465EB2603C0011124992319F0D3
:101CB0009093580402C040925804809155048111B9
:101CC0000BC080915604811107C080915704811187
:101CD00003C08091580481110E942527CB82DC82A9
:101CE000ED82FE8286E0F801A3E5B4E001900D925A
:101CF0008A95E1F70E94D4309091BC0289138093B9
:101D0000BC0280910D04843009F034CD83E08093CF
:101D1000E9008091E80082FF2DCD8091E80085FFE9
:101D200021C00E94942D81111BC080E2C82ED12CAD
:101D3000780109C08091F100D7018D937D01B1E058
:101D4000CB1AD10869F08091E80085FDF3CF80912E
:101D5000E8008B778093E8000E94942D882399F304
:101D600091E001C090E08091E8008B778093E800DB
:101D7000992309F4FFCCE9818E2F90E0FC01319783
:101D8000E331F10508F026C1EE59FF4F0C94713490
:101D90001A8289E089C08A81823009F45BC183306C
:101DA00051F0813009F016C10E940A309B838C8368
:101DB0007D836E8311C1F801CE010B96D4012C9165
:101DC00011963C91B2E08B0E911C328323833296A4
:101DD0008E179F0799F700C18A81823009F0FAC0F7
:101DE0006B817C818D819E810E9477340E94FC29C9
:101DF000F3C04C816B818A810E94C9299D8331C1C6
:101E0000CD80DE80DC24CD24DC248C81EB809A81A3
:101E1000EEE1EE9E70011124F6E99F9FE00CF11CAB
:101E20001124E80EF11CE80EF11C6D2DC7018796F8
:101E30000E94B2336C2DC70188960E94B233CCC089
:101E40000E949529C9C08A81893009F0C5C08B815B
:101E500025E0829FC00111246FEF70E00E94493499
:101E6000862F0E94FE2AB8C08A81893029F08A30E4
:101E700009F0B2C01B82B0C0809168058695869536
:101E800086953FEF839FC001112465E070E00E94BA
:101E900049346B83A1C0809168050E94F92A9CC0D7
:101EA00080E151C04A8281E88B8396C0EA80FB8042
:101EB000FE24EF24FE24CC80D12C5801C701815888
:101EC0009D4F9501201B310B2C153D0508F084C05A
:101ED00041E8E41641E0F40630F40E949433D50161
:101EE00014968C9302C0F5011482FFEFEF1AFF0ADB
:101EF0002FEFA21AB20AE2CFEA80FB80FE24EF2481
:101F0000FE24CC80D12C5801C70181589D4F9501EA
:101F1000201B310B2C153D0508F05EC031E8E3169F
:101F200031E0F30628F4D50114966C910E94B23387
:101F3000BFEFEB1AFB0AEFEFAE1ABE0AE5CF0E9425
:101F400085294AC084E08A8347C0EA80FB80FE245A
:101F5000EF24FE24CC80D12C5801C701879695012F
:101F6000201B310B2C153D05B8F5F8E5EF16F2E016
:101F7000FF0630F40E949433D50114968C9302C06E
:101F8000F5011482FFEFEF1AFF0A2FEFA21AB20A2F
:101F9000E4CFEA80FB80FE24EF24FE24CC80D12C09
:101FA0005801C70187969501201B310B2C153D0563
:101FB00098F438E5E31632E0F30628F4D5011496D8
:101FC0006C910E94B233BFEFEB1AFB0AEFEFAE1A2F
:101FD000BE0AE7CF8FEF898380910D04843009F02A
:101FE000C9CB8091E9008F702091EC00922F917005
:101FF00020FD90E8F92EF82A82E08093E900809194
:10200000E80080FF0CC040E050E060E270E0C801F2
:102010000E94C41F8091E8008E778093E8008F2D86
:102020008F708093E900A6CBE9BCF9BC09B400FE2F
:10203000FDCF8091D8008F7D8093D8008091E00003
:1020400082608093E0008091E00081FDFCCF0E94DF
:10205000C0319BCB86E290E00E9494331B821C82AD
:102060001D828E83B9CF2B30310508F095CDD1CDAF
:102070002B30310508F0E4CD20CE2F923F924F92C5
:102080005F926F927F928F929F92AF92BF92CF9208
:10209000DF92EF92FF920F931F93CF93DF93CDB711
:1020A000DEB729970FB6F894DEBF0FBECDBF182F4D
:1020B0008091180181130DC020914504237030E0F8
:1020C0004091170150E081E02417350719F480E0B2
:1020D00001C081E081708093130180914A04909146
:1020E0001201981739F08093120140E060E080E01F
:1020F0000E94A625163109F045C087EA93E20E94A6
:102100008B1E2CC01B3008F0BCC1143009F44EC02B
:1021100008F050C1113009F093C0809111010FE017
:10212000809F002D11245FE0F52EF00E2BE42F157B
:1021300010F44BE4F42E60914604709147048091B2
:1021400048040E949526E62ED72EC82E0F1508F4B7
:1021500084C081E03AE43F1508F47DC090911101FC
:102160009F5F909311018111E9C582E08093140172
:10217000809113018111E2C51111E0C583E08093C4
:102180001401DCC5173108F0B7C11A3009F0BACF15
:102190008EE495E208C01E3008F086C11B3009F0BD
:1021A0007DC182E395E20E94EC1ED8CF009111011F
:1021B0008FE0089F002D1124EFE0DE2ED00EABE45F
:1021C000AD1510F47BE4D72EB0904704A0904804DE
:1021D0002091490460E4C62E3C2D329F312D1124FC
:1021E000C32E0D1538F5E02EF12CF701EF5AFD4FF7
:1021F0009081809112018923D9F0F701EE0FFF1F22
:10220000E554FE4F6081C69EB001112455E07595DE
:1022100067955A95E1F780914604680F7B2D8A2DCA
:102220000E949526462F282F672FC7010E94A825B8
:102230000F5FD7CF81E09AE49D1508F08FCF0BC0D8
:102240001130E8F480911301882329F040E060E028
:1022500080E00E94A62580E081CFE02FF0E0DF0142
:10226000AF5ABD4F8C9190911201982331F02C2DD3
:102270004E2D6D2DCF010E94A8250F5F67CF809155
:1022800011011230E1F50FE0809F002D11243FE095
:10229000F32EF00E8BE48F1510F42BE4F22ED09079
:1022A0004704E0904804C0904604B6018E2D0E9479
:1022B0009526B62EA72E982E609149046C0D7D2D83
:1022C0008E2D0E949526E62ED72EC82E0F15A8F526
:1022D000802F90E0FC01EF5AFD4F308120911201D8
:1022E000232359F030FF04C02C2D4E2D6D2D03C03B
:1022F000292D4B2D6A2D0E94A8250F5FE7CF1330A3
:1023000009F052C00FE0809F002D11249FE0F92EAC
:10231000F00EABE4AF1510F48BE4F82EB090470448
:10232000A090480420914904B0E4EB2E3E2D329F4A
:10233000312D1124E32E0F1530F081E09AE49F1522
:1023400008F00CCF88CFC02ED12CF601EF5AFD4FEC
:102350009081809112018923B9F0F601EE0FFF1FE1
:10236000E454FE4F808182958F70609146048E9D6B
:10237000600D11247B2D8A2D0E949526462F282F33
:10238000672FC6010E94A8250F5FD5CF1C3108F426
:10239000C3C01E3109F49BC108F092C31C3109F47B
:1023A00043C21D3109F4ADC2809111018F5F80934A
:1023B0001101DBCE173029F483E894E20E943D1E20
:1023C000CDCE183008F050C0153009F047C000914C
:1023D00011018FE0089F002D11243FE0F32EF00E35
:1023E000ABE4AF1510F42BE4F22ED0904604E0904D
:1023F0004704C090480460914904669566956695C7
:1024000080911704909118040E948B260E94D72572
:10241000805887FD8195880F282F3C2D239F212DE3
:102420001124822F6D2D7E2D0E949526E62ED72E0B
:10243000C82E0F1508F081CFE02FF0E0DF01AF5A72
:10244000BD4F8C9190911201982331F02C2D4E2D7F
:102450006D2DCF010E94A8250F5FEBCF163009F03C
:10246000A3CF8FEA94E2AACF183019F488E895E256
:1024700005C0193009F098CF89E695E20E94681FDF
:102480006DCE103119F485E494E28DCE1131B8F49B
:102490001D3009F080CE88E794E290CF1C3009F01F
:1024A00083CF81E894E28ACF1E3019F48FE694E25C
:1024B00085CF1F3009F078CF84E594E27FCF1331C8
:1024C00019F48DE095E26FCE143158F4113119F4FE
:1024D00082E696E2D3CF123109F066CF81E295E22F
:1024E000CDCF143119F487E194E209CE153109F00A
:1024F0005BCF85EE93E203CE113229F489E893E2B3
:102500000E94C81D2BCE123208F07EC31B3109F089
:102510003DCF86E993E252CF183109F042C0809155
:10252000130181111EC06091490420E1620F08F47B
:102530006FEF80911704909118040E948B2665E03C
:1025400070E00E944934892B09F085CE0E947433D3
:102550006BE470E00E945D34609112010E94482B90
:102560007ACE809111019FE0899F802D11240FE088
:10257000080F0C3408F00BE4E82EF12CC02ED12CFF
:10258000EC14FD044CF460911201C7010E94482B29
:10259000BFEFEB1AFB0AF4CF81E00B3408F4DECD79
:1025A0005ACE183108F03EC08091130181111EC02F
:1025B0006091490420E1620F08F46FEF80911704E5
:1025C000909118040E948B266AE070E00E944934C2
:1025D000892B09F040CE0E9474336BE470E00E94B6
:1025E0005D34609112010E946F2B35CE80911101F4
:1025F0009FE0899F802D11240FE0080F0C3408F014
:102600000BE4E82EF12CC02ED12CEC14FD040CF0C0
:10261000C3CF60911201C7010E946F2BAFEFEA1A7E
:10262000FA0AF3CF193109F04CC0009111018FE083
:10263000089F002D11249FE0F92EF00EEBE4EF151A
:1026400010F48BE4F82ED0904704E0904804C0903A
:1026500046046091490466956695669580911704D5
:10266000909118040E948B260E94D725805887FDE0
:102670008195880F682F2CE0629F612D11246C0DCD
:102680007D2D8E2D0E949526E62ED72EC82E0F1555
:1026900090F4E02FF0E0DF01AF5ABD4F8C919091A4
:1026A0001201982331F02C2D4E2D6D2DCF010E945B
:1026B000A8250F5FECCF81E0FAE4FF1508F04ECDBE
:1026C000CACD1A3109F070CE88EF95E277CE8091AD
:1026D00011010FE0809F002D1124FFE0F00FF9871A
:1026E000FC3410F02BE4298780911301882361F0DA
:1026F00040E060E080E00E94A6258BE4EEE1F3E09C
:10270000DF011D928A95E9F780911101811115C0B1
:1027100080911B0390911C030E94FB2F21E08931C3
:10272000910508F420E020931A03499730F00E94A5
:10273000163090931C0380931B03E02EF12CB98577
:102740004B2E512C7FE0372EFE0131964F01E414C1
:10275000F5040CF063C0C70165E070E00E945D34D1
:102760006B013C01389EF001399EF00D1124E25EB0
:10277000FC4FE60FF71F0081A4010E94AA25282E16
:1027800054018A2D8819821508F031C0D501EC91C9
:10279000F0E0EF5AFD4F908180911201892319F1E9
:1027A000302F25E5321B08F430E0709147042AEA07
:1027B000200F08F42FEF4091480482E0289F200D5D
:1027C00011242E5F249F212D11246AEA631B822F7E
:1027D0000E949526462FD5019C91282F672F892F7F
:1027E00090E00E94A825BFEFAB1ABB0ACACF809128
:1027F0001A03882379F021E0021B08F400E0369CDC
:10280000C001379C900D1124825E9C4FFC01EC0DA1
:10281000FD1D00833FEFE31AF30A99CF81E099850C
:102820009B3408F49BCC17CD4091C7025091C8024D
:102830006091C9027091CA028091170490911804A6
:10284000A0911904B0911A0484179507A607B70739
:1028500008F401CD0E941C26082F0E941C269BE430
:10286000891BF0F7890FE82EF12CF701EF5AFD4F85
:10287000909112018081892309F441C001FF04C0B5
:1028800020E040E060E013C00E941C26082F0E9458
:102890001C268695782F2FE7720F08F47FEF602FA4
:1028A000809148040E949526462F282F672FC70144
:1028B0000E94A8252091490430E1230F08F42FEF4E
:1028C00060E1822F90E00E948B26BC0184EF91E0B2
:1028D0000E9449348091170490911804A091190422
:1028E000B0911A04860F971FA11DB11D8093C702D6
:1028F0009093C802A093C902B093CA02ACCC81E005
:102900002DCC4091160350911703609118037091DC
:1029100019038091170490911804A0911904B091A3
:102920001A0484179507A607B70708F494CC80917A
:102930001301882329F040E060E080E00E94A62592
:102940006091460470914704809148040E94952646
:10295000062F772E682EFBECCF2EF2E0DF2EA0E7BD
:10296000EA2EA1E0FA2EBBEB4B2EB1E05B2E460126
:10297000A12CB12CD4018C91F701EA0DFB1D882309
:1029800029F08081262D402F672D04C0808120E012
:1029900040E060E090E00E94A825F4018181D4012C
:1029A0008D934D01BFEFAB1ABB0AE6E0AE16B10442
:1029B00009F747015601EEE03E2ED5011E968C9197
:1029C000882331F0F4018685262D402F672D06C01F
:1029D000D4011E968C9120E040E060E090E00E94DF
:1029E000A825F501858586873A94F1E0AF1AB108EC
:1029F00021E0821A910837E03312DFCFD601179613
:102A00008C91882331F0F7018781262D402F672D87
:102A100006C0D70117968C9120E040E060E090E07E
:102A20000E94A825F6018681882339F0D7011696E1
:102A30008C91262D402F672D05C0F701868120E05F
:102A400040E060E090E00E94A8250E941C26837070
:102A500091E009F090E0D60116969C931697179690
:102A60009C93BFE0CB0ED11CEFE0EE0EF11C4E1498
:102A70005F0409F07CCF2091490430E1230F08F472
:102A80002FEF60E1822F90E00E948B26BC0188EB43
:102A90009BE00E9449348091170490911804A09102
:102AA0001904B0911A04860F971FA11DB11D8093C0
:102AB000160390931703A0931803B0931903CBCB7D
:102AC0001F3109F09BC080911301882371F040E011
:102AD00060E080E00E94A6258BE4EEE1F3E0DF01F8
:102AE0001D928A95E9F710921D033EE1C32E33E053
:102AF000D32E712C66246A9440EDA42EB12C50EC98
:102B0000552E6FE2862E912C760100E001110CC04B
:102B100080911D03811108C00E9474338535954052
:102B20001CF4F601608206C0D7018C9181508E3F63
:102B300008F48C93AE014F5F5F4F672D802F0E948A
:102B4000AA25882309F1F7012081E981213D70F050
:102B500030E0205D3109529EC001539E900D11243A
:102B6000B4010E944934262F4FEF0AC0FFEF2F9F78
:102B7000C0011124B5010E944934462F20E060E0D5
:102B80008E2F90E00E94A8250F5F2FE0E20EF11C2F
:102B9000053009F0BBCF73943FEFC31AD30A8FE01F
:102BA0007812B2CF80911D038F5F8D3118F480931E
:102BB0001D0351CB10921D032BE433E084E04EEF54
:102BC000AEE1B3E0F9019FE0843041F4DC965C9122
:102BD000DC975F3F19F4DC964C93DC9750815F3FA4
:102BE00011F4408357879150319611969111ECCF93
:102BF00081502F5031098111E3CF2DCB103209F0D4
:102C0000D3CB8FE893E27CCC173261F466E073E2B9
:102C100005C0133209F0C8CB60E773E280E00E9480
:102C2000001D9CCA183278F5143259F480911B04A7
:102C300021E0382F321B08F430E0832F68E373E281
:102C4000EECF153268F4123221F780911B0421E097
:102C5000382F321B08F430E0832F60E773E2DFCFB8
:102C6000153219F468E373E2D9CF163209F09CCB20
:102C700080911B0421E0382F321B08F430E0832FB1
:102C800066E073E2CCCF1A3259F480911B0421E044
:102C9000382F321B08F430E0832F68ED72E2BFCF8B
:102CA0001B3298F4183259F480911B0421E0382F1C
:102CB000321B08F430E0832F6EEE72E2B0CF19328F
:102CC00009F072CB6EEE72E2A9CF1B3219F468EDF7
:102CD00072E2A4CF1F3F09F067CB80911704909157
:102CE0001804A0911904B0911A0488279C70AA278F
:102CF000BB272AE0B695A795979587952A95D1F792
:102D000082309105A105B10571F083309105A105CF
:102D1000B10569F040E00197A105B10511F060E04F
:102D200008C064E102C044E160E080E003C044E127
:102D300064E184E10E94A62582E021CA29960FB6AB
:102D4000F894DEBF0FBECDBFDF91CF911F910F91E1
:102D5000FF90EF90DF90CF90BF90AF909F908F90BB
:102D60007F906F905F904F903F902F90089580E0FC
:102D700008959091770592FF0DC0282F2871283073
:102D800019F4877F846006C0282F2471243011F441
:102D90008B7F886093FF0DC0282F2871283119F48C
:102DA000877E846106C0282F2471243111F48B7E24
:102DB00088612091780520FF0DC0382F3871383098
:102DC00019F4877F816006C0382F3171313011F4DA
:102DD0008E7F886021FF0DC0282F2871283119F4BB
:102DE000877E816106C0282F2171213111F48E7EEA
:102DF000886194FD877E0895F894E82FE295EF703E
:102E0000F0E031A1282F2F7081E090E001C0880F01
:102E10002A95EAF7982F9095932391A392A1892B55
:102E200082A3789408958F929F92AF92BF92CF928F
:102E3000DF92EF92FF920F931F93CF93DF93CDB763
:102E4000DEB72A970FB6F894DEBF0FBECDBFAE0136
:102E50004F5F5F4F7A018AE0DA011D928A95E9F7A8
:102E60000CE111E0CC24C394D12CAA24A394B12C5E
:102E70004E01BBE08B0E911CF80180818F3F09F45D
:102E80004AC0F894E82FE295EF70F0E021A18F702E
:102E9000A50102C0440F551F8A95E2F7CA01922F7F
:102EA000982B91A392A18095892382A3789400C046
:102EB0006BE271E0F701A60140955095DB012D9181
:102EC000BD012F3FA9F0822F82958F7090E0DC0129
:102ED00090968C9190E02F7002C0959587952A95D9
:102EE000E2F780FD05C0808191818C299D2904C075
:102EF00080819181842395239183808332968E16DD
:102F00009F06E1F6F80180818F3F11F00E94FC16C8
:102F1000F0EAFA95F1F7CC0CDD1C0F5F1F4F41E092
:102F20000B32140709F0A8CF4AE050E0B70187EA56
:102F300092E00E947E3411E0009709F410E0892BA2
:102F400089F08AE0F701A7EAB2E001900D928A9534
:102F5000E1F781E08093E8030E9416309093E70345
:102F60008093E6038091E803882391F18091E60342
:102F70009091E7030E94FB2F059750F18091A702E3
:102F80009091A8029093BE028093BD028091A90205
:102F90009091AA029093C0028093BF028091AB02ED
:102FA0009091AC029093C2028093C1028091AD02D5
:102FB0009091AE029093C4028093C3028091AF02BD
:102FC0009091B0029093C6028093C5021092E803DC
:102FD000812F2A960FB6F894DEBF0FBECDBFDF91CA
:102FE000CF911F910F91FF90EF90DF90CF90BF9006
:102FF000AF909F908F900895CF93DF938238910583
:1030000069F1B0F48133910509F46FC048F4893255
:10301000910509F465C08A32910509F46BC08AC034
:103020008533910509F457C089339105B9F082C001
:10303000833E910571F138F4803E9105B1F0823EF6
:10304000910511F177C0863E9105B9F1873E910552
:10305000C9F1843E910509F06DC024C02091770527
:1030600020FD53C021FD51C065C08091770580FDD2
:1030700046C08091780580FF48C08091770584FD27
:1030800050C183EE90E04FC18091770582FF3AC036
:10309000F4CF8091770582FD35C08091780580FD61
:1030A00034C0EBCF8091780581FF35C080917705E2
:1030B00084FD37C187EE90E036C18091770583FFAC
:1030C00027C0F4CF8091770583FD22C080917805D9
:1030D00081FD21C0EBCF8091770585FD1FC021C008
:1030E0008091770585FD1DC019C08091770586FD0B
:1030F0001BC01DC08091770586FD19C015C089E3EE
:1031000090E011C182EE90E00EC180EE90E00BC124
:1031100086EE90E008C184EE90E005C189E290E07F
:1031200002C185E390E0FFC08AE290E0FCC081E349
:1031300090E0F9C0811531E5930708F069C0811569
:1031400040E59407F0F09C0174E0369527957A9558
:10315000E1F7922F9370482F437021E030E002C0D6
:10316000220F331F4A95E2F73C68392B982F9F7046
:103170009695969540E2949FC0011124822B932B43
:10318000D2C0883E910568F5803E910508F0CBC01D
:10319000883A9105B8F4853A910548F0855AE82FA8
:1031A000F0E0E05DFE4F808190E09064BCC0813033
:1031B000910509F4B3C008F4B4C08430910508F453
:1031C000B0C0B1C08F3B910508F0ABC0885AE82F62
:1031D000F0E0EE0FFF1FED5CFE4F80819181946463
:1031E000A2C0811520E2920758F4811531E09307BF
:1031F00008F099C0803F910508F493C0906593C092
:10320000811540E4940708F48CC09F70906A8BC0CD
:10321000811525E5920708F042C0811534E5930732
:1032200028F0982F8827846F906A7DC0811543E528
:103230009407B0F09C012370332741E050E002C0B6
:10324000440F551F2A95E2F7282F2695269580E2F0
:10325000289F90011124CA01822B932B9A6863C086
:10326000811522E5920728F4982F8827816F906AAC
:103270005AC09C012370332741E050E002C0440F44
:10328000551F2A95E2F7282F2695269580E2289F3C
:1032900090011124CA01822B932B9C6844C0EC013D
:1032A000811539E59307A8F48115984528F09C2FDE
:1032B0008827806F906A37C0C11586E5D80788F5E2
:1032C0008C2F0E94B9168F7190E0982F88279062FA
:1032D0002AC081152AE5920790F48C2F8F700E94E6
:1032E000B91694E0D695C7959A95E1F7CF70D0E0DE
:1032F000DC2FCC27D0699E01282BC90114C0905621
:103300008115904270F48D2F8F710E94B916282F6D
:103310002F71CE0199279062922B05C081E090E039
:1033200002C080E090E0DF91CF910895CF9384E0D8
:1033300090E00E949433C82F82E290E00E94943380
:103340002C2F30E0A901582BCA01CF91089580E0BD
:1033500090E00E949C33893E9E4F11F40C942D2ADC
:1033600080E0089569EE7EEF80E090E00E94D03327
:1033700060E082E090E00E94B23360E083E090E0A1
:103380000E94B2331092E50360E084E090E00E9476
:10339000B23360E082E290E00E94B23360E085E008
:1033A00090E00E94B23360E086E090E00E94B23389
:1033B0006FEF87E090E00E94B23340E050E0BA0146
:1033C00088E090E00E94C43360E08DE090E00E94CD
:1033D000B23340E050E0BA0188E190E00E94C4338B
:1033E00060E087E190E00E94B23340E050E0BA0133
:1033F0008CE190E00E94C43360E070E080E290E0F5
:103400000E94D03340E050E0BA0188E190E00E9491
:10341000C43380E00E94002A0E941E2A40E050E04F
:10342000BA018FE090E00E94C43340E050E0BA015E
:1034300083E190E00C94C4338091E40381111092F5
:10344000E403089580959091E30389238093E30337
:1034500008959091E3038091E203982B9093690380
:103460008091E4038823D9F0892B809369038091AC
:103470001001882331F08091770587FF02C08EE12B
:1034800001C086E0EBE6F3E090E0815028F0219166
:103490002223D9F39F5FF9CF91110E941C1A40E2B9
:1034A00050E062EC73E089E693E00E947E34892B61
:1034B00021F180E2E9E6F3E0A2ECB3E001900D92A5
:1034C0008A95E1F7E0916E05F0916F053097A9F0CC
:1034D00080911001882359F08091770587FF07C0FC
:1034E0008091690380936A0386E080936903028078
:1034F000F381E02D89E693E0099408952091C103BA
:10350000809582238093C103982F977099F430E0BF
:10351000482F082E000C550B2417350759F09091B1
:10352000780592FD07C08595859585950E94853122
:103530001092C1030895CF93C0917805C2FB9927DB
:1035400090F9981799F080FBC2F9C09378056091C3
:10355000770584E090E00E94B2336C2F82E290E025
:103560000E94B23382E0CF910C947E1ACF910895DD
:103570008091C00390918F03891719F08F5F877036
:10358000FBCF08950F931F93CF93DF9380918E030A
:1035900082958F7009F05DC080918B03882309F4B8
:1035A00058C08091C00310918F036091890370917E
:1035B0008A03C0918C03D0918D0391E06F3F09F095
:1035C00090E0292F06E0811709F443C0209721F0ED
:1035D0007F3F21F030E003C031E001C0322F90E0A6
:1035E00030FD34C0089FF001099FF00D1124DF0168
:1035F000A057BC4F11963C911197371327C03C91AF
:10360000361324C012963C91129731111FC01396A5
:103610004D915C9114974C1B5D0B483C5105B0F4E7
:1036200080918E038F70806180938E03EB56FC4FE8
:1036300080818F708061808389E893E00E94A50378
:10364000DF91CF911F910F910C94B81A019687705A
:10365000BACFDF91CF911F910F910895CF93DF9350
:10366000EC010E94FB30BE010E94EF290E94FC1772
:10367000DF91CF9108959F92AF92BF92CF92DF9248
:10368000EF92FF920F931F93CF93DF93CDB7DEB7E7
:1036900061970FB6F894DEBF0FBECDBF8C0185E0F9
:1036A000F801DE011D9601900D928A95E1F7F8016F
:1036B000E2809091890360918A0340918C0350913C
:1036C0008D034115510531F06F3F31F481E09F3F8B
:1036D00019F403C081E001C080E0F82FF1709F2E43
:1036E00080FD1AC1F80130812181C380D48089E82E
:1036F000A82E83E0B82EF0908B03F601E41BF50BA7
:10370000FF2009F4C6C080918E03E83CF10508F063
:1037100091C0482F407F09F050C0621311C093132D
:103720000FC0FE2CE1100CC08F70806180938E035F
:10373000C5010E94A50380918E03F801858329C1EC
:10374000CD2831F02F3F31F481E03F3F19F403C021
:1037500081E001C080E080FD03C081E08E2502C0D1
:1037600080E090E0F82FF170FF2E80FF1CC0809168
:10377000C00340918F0356E0841709F4E8C090E03D
:10378000589FF001599FF00D1124E057FC4F6181C3
:10379000261306C06081631303C06281E61203C072
:1037A00001968770E9CFFE2CEE2009F4F2C08091DB
:1037B0008E03816080938E0349C0621306C0931309
:1037C00004C0E11002C0F80186C0C8010E94A03107
:1037D000882351F1EE2041F120918E03822F8295B2
:1037E0008F7090E0029774F08091890390918A0322
:1037F00098878F831986DB86CA862C87CE01079629
:103800000E94A50386E0F801A9E8B3E001900D92BB
:103810008A95E1F70E94C21A0AC06217C9F0C8016E
:103820000E94A03181111EC0C8010E94A503FF247F
:10383000F394AFC0482F407F81F789E893E00E945E
:10384000A50386E0F50111928A95E9F7F12CA1C054
:103850009313E5CFE110E3CFF8018583C8010E94FF
:10386000A50354C0EE2001F320918E03822F829590
:103870008F7090E0029734F28091890390918A03CF
:103880009A8389831B82DD82CC822E83CE010196AE
:10389000B7CFE83CF105D0F5FE2CEE2029F26213FB
:1038A00027C0931325C020918E0320FD18C0822FBE
:1038B00082958F70482F50E04115510581F0F80135
:1038C00025834F30510541F08F5F982F9295907F5F
:1038D000822F8F70892B8583C8010E94A50386E003
:1038E000F801A9E8B3E001900D928A95E1F751C083
:1038F000C8010E94A031811185CF80918E03816023
:1039000080938E03C8010E94A50343C086E0F501A1
:1039100011928A95E9F73DC0EE2009F485CFC801E0
:103920000E94A031F82E882309F47ECF86E0F801AA
:10393000A9E8B3E001900D928A95E1F7809189039F
:1039400090918A030E942E1B0E94C21A22C03D87BA
:103950002E878D859E850E942E1B292F22952F70E4
:10396000223028F49F7039F0811105C00BC024303B
:1039700028F49F7049F4805E883020F0C8010E94CE
:10398000A5039F2CF92C05C0F8019581907F99F72C
:10399000F9CF8F2D61960FB6F894DEBF0FBECDBF65
:1039A000DF91CF911F910F91FF90EF90DF90CF901B
:1039B000BF90AF909F90089580914B04982F967080
:1039C000963011F4886001C0877F0C94813190910A
:1039D00045049370A1F0811102C0946007C08C323D
:1039E00010F09C6A03C0880F880F982B90934504B1
:1039F00010921401809144048160809344040895DE
:103A00002F923F924F925F926F927F928F929F92EE
:103A1000AF92BF92CF92DF92EF92FF920F931F93DC
:103A2000CF93DF93CDB7DEB727970FB6F894DEBFFD
:103A30000FBECDBF282E4B01209111018FE0289F92
:103A4000802D11248E83182F115F1C3408F01BE485
:103A500030911B0439839E81911708F07CC08E81C0
:103A6000682E712CF301EF5AFD4F90818091120165
:103A7000892309F46CC03090460440904704522CCE
:103A80001F82C301880F991FDC01A554BE4FBB8361
:103A9000AA83C301880F991FFC01E454FE4FFD83E4
:103AA000EC83F9815F1608F040C0E52CF12CAA8167
:103AB000BB81CC90D12CF701E55EFB4F8181C81A08
:103AC000D108AC81BD81AC90B12C8185A81AB10818
:103AD000CC9C9001CD9C300D300D1124AA9CC001CE
:103AE000AB9C900D900D1124820F931F0E943126E4
:103AF000082F6091490421E0620F08F46FEFF7018D
:103B0000EE0FFF1FE55EFB4F818D928D0E948B268D
:103B10007C019501A601632D742D8F81F401099517
:103B2000362E472E8F835394BCCF209148048F812B
:103B3000382F329F312D1124832F632D742D0E9435
:103B40009526462F282F672FC3010E94A8258E8116
:103B50008F5F8E8380CF81E01B3408F080E0279652
:103B60000FB6F894DEBF0FBECDBFDF91CF911F918E
:103B70000F91FF90EF90DF90CF90BF90AF909F900C
:103B80008F907F906F905F904F903F902F9008950F
:103B9000CF92DF92EF92FF920F931F93CF93DF9319
:103BA0008C01C09111018FE0C89FC02D1124DFE06E
:103BB000DC0FDC3408F0DBE42091490431E0230F12
:103BC00008F42FEF30E040E050E06FEF7FEF80E04F
:103BD00090E00E94D6337901CD1708F041C0CC2E79
:103BE000D12CF601EF5AFD4F90818091120189236B
:103BF000A9F190911B04915097FD15C0492F092EF2
:103C0000000C550BFA01E55EFB4F8189C813F3CF19
:103C1000440F551FFA01E55EFB4F218D328D2E15A5
:103C20003F0548F701C097016091490441E0640FE6
:103C300008F46FEFC9010E948B26AC016091460425
:103C40007091470480914804F80109950E949526D7
:103C5000462F282F672FC6010E94A825CF5FBCCF13
:103C600081E0DB3408F080E0DF91CF911F910F916C
:103C7000FF90EF90DF90CF900895DF92EF92FF9248
:103C80000F931F93CF93DF938C01C09111018FE0AD
:103C9000C89FC02D1124DFE0DC0FDC3408F0DBE42A
:103CA000609149046695669521E0620F08F46FEF14
:103CB00080911704909118040E948B26D82ECD175E
:103CC000F0F4EC2EF12CF701EF5AFD4F908180912A
:103CD0001201892391F0609146047091470480910C
:103CE00048042D2D4C2FF80109950E949526462F4A
:103CF000282F672FC7010E94A825CF5FE0CF81E062
:103D0000DB3408F080E0DF91CF911F910F91FF909D
:103D1000EF90DF9008959F92AF92BF92CF92DF9283
:103D2000EF92FF920F931F93CF93DF936C01C0919B
:103D300011018FE0C89FC02D1124DFE0DC0FDC34BF
:103D400008F0DBE46091490466956695809117045C
:103D5000909118040E948B26182F80E4810F0E94F6
:103D6000D72590E8F92EF80E812F0E94D72520E85C
:103D7000922E980ECD1700F5AC2EB12CF501EF5A0E
:103D8000FD4F9081809112018923A1F0609146043A
:103D90007091470480914804E12E0C2F292D4F2D5E
:103DA000F60109950E949526462F282F672FC501F9
:103DB0000E94A825CF5FDECF81E0DB3408F080E0F1
:103DC000DF91CF911F910F91FF90EF90DF90CF90F7
:103DD000BF90AF909F9008956F927F928F929F9225
:103DE000AF92BF92CF92DF92EF920F931F93CF9338
:103DF000DF933C01C09111018FE0C89FC02D1124B9
:103E0000DFE0DC0FDC3408F0DBE460914904669508
:103E100080911704909118040E948B26182FCD17BB
:103E200008F044C08C2E912CF401EF5AFD4F908184
:103E3000809112018923C1F1F401EE0FFF1FE554B7
:103E4000FE4FC080D12C80E7C81AD108F401EE0FD4
:103E5000FF1FE454FE4FA080B12CE0E2AE1AB1087F
:103E6000CC9C9001CD9C300D300D1124AA9CC0013A
:103E7000AB9C900D900D1124820F931F0E94312650
:103E8000082F609146047091470480914804E12E08
:103E90009501A601F30109950E949526462F282F2A
:103EA000672FC4010E94A825CF5FB9CF81E0DB3422
:103EB00008F080E0DF91CF911F910F91EF90DF909C
:103EC000CF90BF90AF909F908F907F906F9008950C
:103ED000CF92DF92EF92FF920F931F93CF93DF93D6
:103EE0006C01C09111018FE0C89FC02D1124DFE04B
:103EF000DC0FDC3408F0DBE46091490466958091C6
:103F00001704909118040E948B26182FCD1778F56E
:103F1000EC2EF12CF701EF5AFD4F908180911201A8
:103F2000892319F1F701EE0FFF1FE454FE4F2081A2
:103F300030E020523109F701EE0FFF1FE554FE4F2C
:103F4000408150E040575109609146047091470408
:103F500080914804012FF60109950E949526462F6D
:103F6000282F672FC7010E94A825CF5FCFCF81E000
:103F7000DB3408F080E0DF91CF911F910F91FF902B
:103F8000EF90DF90CF900895EF92FF920F931F93E1
:103F9000CF93DF937C018B010E94942D811119C076
:103FA000E70101151105A1F08091E80085FD0AC027
:103FB0008091E8008E778093E8000E94942D8823FA
:103FC00081F307C089918093F10001501109E9CF75
:103FD00080E0DF91CF911F910F91FF90EF900895B6
:103FE00090914504937069F0809346046093470470
:103FF00047FD4FE7409348048091440481608093DB
:10400000440408951F93CF93DF93CDB7DEB7AA97EB
:104010000FB6F894DEBF0FBECDBFEFE0F4E087E14E
:1040200094E02091F10021938E179F07D1F78091A2
:104030001004833009F463C030F4813071F08230B1
:1040400009F49DC0B4C08A3009F489C08B3009F4EA
:104050006EC0893009F0ABC020C080910F04813A56
:1040600009F0A5C08091E800877F8093E8008091E7
:10407000130490911404892B21F460E28BEE93E0F9
:1040800003C060E080E090E070E00E94532F8091D8
:10409000E8008B778093E8008AC080910F0481321A
:1040A00009F085C08091130490911404009719F0D1
:1040B000029709F07CC08091E800877F8093E80038
:1040C0008091E80082FD05C080910D048111F8CF38
:1040D0006EC02091F3008091F20090E0922B029745
:1040E00031F48091F100813011F0863021F480911B
:1040F000F1008093EA038091E8008B7754C08091AF
:104100000F04813A09F053C0809113049091140474
:10411000892B09F04CC08091E800877F8093E800EC
:104120008091E80080FFFCCF8091100137C0809122
:104130000F048132E1F58091130490911404892BCE
:10414000B1F58091E800877F8093E8000E94C72D39
:1041500080911104809310010E94C03128C0809189
:104160000F04813221F58091E800877F8093E80079
:104170000E94C72D809112048093E90318C080919A
:104180000F04813AA1F48091E800877F8093E800D2
:104190008091E80080FFFCCF8091E9038093F100DB
:1041A0008091E8008E778093E8000E94C72D80916F
:1041B000E80083FFDFC180910F0490911004492F24
:1041C00050E04A30510508F0D5C1FA01EB58FF4FD5
:1041D0000C947134803821F0823809F0CBC108C0CA
:1041E00080910B0490910C04992389F082600FC098
:1041F000809113048F70873008F0BCC18093E90070
:104200008091EB0085FB882780F91092E90090915E
:10421000E800977F9093E8008093F1001092F100FE
:1042200070C1282F2D7F09F0A5C1882319F0823095
:1042300061F0A0C180911104813009F09BC19330DD
:1042400009F080E080930C042EC08091110481114C
:104250002AC0809113048F702FEF280F263008F0AA
:1042600089C18093E9002091EB0020FF1CC09330AE
:1042700021F48091EB00806214C09091EB0090617A
:104280009093EB0021E030E0A90102C0440F551FDC
:104290008A95E2F74093EA001092EA008091EB00E1
:1042A00088608093EB001092E9008091E800877F9E
:1042B0008093E8000E94C72D5DC181115BC1109100
:1042C00011041F778091E3008078812B8093E300B5
:1042D0008091E800877F8093E8000E94C72D80913D
:1042E000E80080FFFCCF8091E30080688093E300CA
:1042F000111102C082E001C083E080930D043AC135
:104300008058823008F036C1209111043091120497
:104310002C3D53E0350779F583E08A838AE289836F
:104320004FB7F894DE01139620E03EE051E2E32F10
:10433000F0E050935700E49120FF03C0E295EF7046
:104340003F5FEF708E2F90E0EA3010F0C79601C00B
:10435000C0968D939D932F5F243149F74FBF809175
:10436000E800877F8093E8006AE270E0CE01019662
:104370000E94532FB4C08091130490911404432FD2
:10438000552743305105A9F068F44130510509F42F
:1043900000C14230510509F0EDC08BE590E0E6EC3C
:1043A000F2E04BC04132510529F14232510589F109
:1043B000E1C0C901992781309105A1F058F0029719
:1043C00009F0D8C0E3E3F3E0E4918E2F90E0E3E35B
:1043D000F3E030C0E5E5F3E0E4918E2F90E0E5E511
:1043E000F3E028C0E7E4F3E0E4918E2F90E0E7E407
:1043F000F3E020C08330910508F0BCC0880F991FFE
:10440000FC01E659FE4F0190F081E02D89E090E03B
:1044100014C08330910508F0ADC0FC01EE0FFF1F02
:10442000EC59FE4F0190F081E02DDC01AF59BE4FF9
:104430008C9190E0009709F49DC02091E800277FBF
:104440002093E800209115043091160428173907AD
:1044500008F4C90140E0009789F120910D0422235E
:1044600009F43DC02530D9F12091E80023FD37C083
:104470002091E80022FD2FC02091E80020FFEBCF23
:104480004091F3002091F20030E0342B009759F076
:104490002830310540F444914093F1003196019762
:1044A0002F5F3F4FF3CF41E02830310509F040E066
:1044B0002091E8002E772093E800CDCF4111CDCF99
:1044C0000AC080910D04882351F0853041F080911D
:1044D000E80083FD04C08091E80082FFF2CF809164
:1044E000E8008B778093E80045C0803809F042C02F
:1044F0008091E800877F8093E80080910E0480938C
:10450000F1008091E8008E77D3CE811133C0809185
:104510001104909112049927029764F58091E800A4
:10452000877F8093E8001091110410930E040E947D
:10453000C72D111106C08091E30087FD02C081E004
:1045400001C084E080930D0442E061EC81E00E94B0
:10455000E62D42E261EC84E00E94E62D42E261EC4D
:1045600082E00E94E62D42E260EC83E00E94E62DAC
:1045700080910D048091E80083FF10C08091E800D5
:10458000877F8093E8008091EB0080628093EB004E
:1045900005C082E190E0E1E2F3E04FCFAA960FB6CA
:1045A000F894DEBF0FBECDBFDF91CF911F9108956C
:1045B000EF92FF920F939701201B31092F3F310596
:1045C00019F010F02FEF30E02095382F320F08F45B
:1045D0003FEF832F0F91FF90EF900895EF92FF929E
:1045E0000F939701201B31092F3F310519F010F06F
:1045F0002FEF30E0322F3095482F430F08F44FEF64
:10460000842F620F0F91FF90EF900895EF92FF9229
:104610000F93972F093438F4B701601B71096F3F6E
:10462000710519F010F06FEF70E0485F5F4F413196
:10463000510540F0A901485F5F4F4131510510F02D
:104640006FEF70E06095482F460F08F44FEF842F0E
:1046500037FF02C02D5F3F4F35952795359527953C
:1046600060914604620F792F0F91FF90EF900895AB
:10467000EF92FF920F93E00EF11CF90137FF03C098
:10468000F195E195F10924E0EE0FFF1F2A95E1F77E
:10469000EF3FF10519F014F0EFEFF0E09A0157FF4A
:1046A00003C031952195310994E0220F331F9A956B
:1046B000E1F72E173F070CF4F901EE0DFF1DEF3F58
:1046C000F10519F010F0EFEFF0E02E2F2095382FC4
:1046D000320F08F43FEF832F0F91FF90EF90089572
:1046E000EF92FF920F93970195E0099F200D311DE6
:1046F00011242F3F310519F010F02FEF30E02095F5
:10470000382F320F08F43FEF832F0F91FF90EF9077
:10471000089522E8241B08F420E0620F08954095D4
:10472000282F429F412D1124842F0895E42FF0E07B
:10473000EE0FFF1FE554FE4F9081921B97FD919560
:10474000292F38E1239F212D1124620F08950F9303
:104750001F9310E0F801EE0FFF1FE554FE4F90810C
:10476000905797FD9195000F111FF801E454FE4FEB
:10477000E081F0E0B097DF01AA0FBB1F8D010E0FA3
:104780001F1F2003D001219FB00D1124E8E3F0E0AA
:10479000E91BF10997FDF3959F01220F331F890152
:1047A0000E0F1F1F40039001419F300D11242A0F4F
:1047B0003B1F37FF02C021583F4F220F232F221FDC
:1047C000330B620F1F910F9108950F931F93522F78
:1047D00010E0F801EE0FFF1FE454FE4FE081F0E01F
:1047E000B097EE0FFF1F9F015203D001539FB00DF2
:1047F0001124000F111FF801E554FE4F008110E055
:1048000000571109000F111F40039001419F300D07
:1048100011242A0F3B1F37FF02C021583F4F220FA0
:10482000232F221F330B620F1F910F9108950F93B7
:104830001F93522F10E0F801EE0FFF1FE454FE4FBC
:10484000E081F0E0B0979F015203D001539FB00D7B
:104850001124000F111FF801E554FE4F008110E0F4
:104860000057110940039001419F300D11242A0F78
:104870003B1F37FF02C021583F4F220F232F221F1B
:10488000330B620F1F910F910895EF920F931F93B7
:1048900093E0099F80011124159507956E2D600FF7
:1048A0001F910F91EF900895A22F50E0FA01EE0FA3
:1048B000FF1FE454FE4F9081905297FD9195440F55
:1048C000551FFA01E554FE4F3081232F30E02A1B9B
:1048D0003109290F311D97FD3A95620F0895E42F94
:1048E000F0E0EE0FFF1FE454FE4F6081621B08955D
:1048F000E42FF0E0EE0FFF1FE554FE4F6081621BD6
:104900000895622F0895E42FF0E0EE0FFF1FE554A5
:10491000FE4F408134EE439F412D1124E82FF0E0FB
:1049200050E0445E5F4FDA01A21BB1099D01B7FF61
:1049300003C031952195310993E0220F331F9A95D9
:10494000E1F7AF01421B530B9A0157FF02C020E071
:1049500030E0582F259F212D1124822F0895E42F18
:10496000F0E0EE0FFF1FE554FE4F408134EE439F11
:10497000412D1124E72FF0E050E0445E5F4FDA0153
:10498000A21BB1099D01B7FF03C0319521953109E3
:1049900093E0220F331F9A95E1F7AF01421B530BAF
:1049A0009A0157FF02C020E030E0279F212D1124FB
:1049B000722F0895FC019B01009721F477FF2BC013
:1049C00080E80895AC0197FF04C044275527481B91
:1049D000590BB901640F751F37FD0CC0241B350B33
:1049E000C901A5E0880F991FAA95E1F70E945D34DF
:1049F00080E20CC0CB0165E0880F991F6A95E1F752
:104A0000BA01621B730B0E945D3480E6861BF7FFC0
:104A100003C08195089580E00895EF920F93CF939E
:104A2000DF93D72FC82FC9010E19BA010E94DA24CB
:104A3000602F681B7D2F8C2FDF91CF910F91EF900E
:104A400008950F93CF93DF93D72FC82FC901BA01D1
:104A50000E94DA24682F600F7D2F8C2FDF91CF9179
:104A60000F910895EF920F931F93CF93DF93D62F5B
:104A7000C72F182FC9010E19010FBA010E94DA249D
:104A8000081B202F219F212D1124822F6D2F7C2F79
:104A9000DF91CF911F910F91EF900895EF920F93B7
:104AA0001F93CF93DF93D62F172FC82FC9010E194D
:104AB000070FBA010E94DA24702F781B719F712DA5
:104AC00011246D2F8C2FDF91CF911F910F91EF90BB
:104AD0000895FF920F931F93CF93DF93F62ED72F56
:104AE000182FC901C12FC01BBA010E94DA24982FC8
:104AF000990F890FC81B2C2F219F212D1124822F44
:104B00006F2D7D2FDF91CF911F910F91FF90089511
:104B1000FF920F931F93CF93DF93F62E172FD82F6B
:104B2000C901C72FC01BBA010E94DA24982F990F20
:104B3000890F7C2F781B719F712D11246F2D8D2F64
:104B4000DF91CF911F910F91FF9008950C946328EE
:104B50000C946F282FE0829FC0011124FC01E059C2
:104B6000FE4FE60FF11D80818F3F21F0FA01808317
:104B700081E0089580E00895E5E4F4E085E3808332
:104B80008091190190911A01A0911B018183928358
:104B9000A3838FE784838FEF858346E050E06CE149
:104BA00070E0CF010E94A233109244040895482F70
:104BB000982F46FD9095E92FEF739F7046FD9F5FFC
:104BC000E295EF70EE0FF0E0E456FD4F2181299F52
:104BD000802D212D112482958F702295207F822B8C
:104BE0003081982F930F892F47FD81958058089524
:104BF0000F931F93CF93DF93D62F072F182FC42F18
:104C0000822F0E94D725EC2FF0E0EE0FFF1FE55416
:104C1000FE4F90819058890F87FD8195880F682FEE
:104C20002CE0629F612D11246D0F702F812FDF9179
:104C3000CF911F910F910895409115015091160148
:104C400025E038E0429FC001439F900D529F900D98
:104C50001124875E994C9093160180931501890F5A
:104C60000895BC018230910508F40895613E8EE1FB
:104C7000780748F49B0195E0369527959A95E1F7DA
:104C800048E0420F01C04FEF91E0242F30E0290FA0
:104C9000311D35952795229FF001239FF00DF00DD2
:104CA00011246E177F0718F44FEF420F04C02F3FF7
:104CB00039F091E0920F491740F78FEF890F08956F
:104CC0008FEF08950F93CF93DF93D72FC82F47FD12
:104CD0004195E8E3F0E0CF01841B910947FD9395EE
:104CE000889FB001899F700D700D1124229FC00113
:104CF000239F900D900D1124860F971F0E9431263F
:104D0000682F660F860F682F600F7D2F8C2FDF9125
:104D1000CF910F91089520E030E0869F212D969F3E
:104D2000200D311D1124C9010895CF92DF92EF9219
:104D3000FF920F931F93CF93DF93F62E472FE82F09
:104D4000F0E0711106C0E75AFC4F8491782F682F6C
:104D500073C0272F30E0E75AFC4FE491FE2F0E2F4F
:104D600010E056E0659FC0011124CFEFD0E0BE01F6
:104D70000E9449345BEA5603C001579F900D1124ED
:104D80008F0D911D8F0D911D982F990F980F7E01FA
:104D9000E21AF30AE09ED001E19EB00DF09EB00D44
:104DA00011248B2F499FA0011124452F55277E01E7
:104DB000E41AF50AE09EA001E19E500DF09E500D10
:104DC00011246E01C91AD108C29E7001C39EF00C55
:104DD000D29EF00C11242F2D3327C21BD30BC09F62
:104DE0009001C19F300DD09F300D1124932F623060
:104DF000710591F048F461157105E1F061307105BC
:104E0000B9F49E2FE52F16C06430710569F040F0AB
:104E10006630710579F00CC09E2FEB2F832F0AC0EE
:104E2000EB2F8F2F952F06C09B2F8E2FE32F02C0C5
:104E30009B2F852F7E2F692FDF91CF911F910F918F
:104E4000FF90EF90DF90CF9008950E941630209150
:104E50005504211104C020915604222321F090937F
:104E600052048093510420915704211104C02091D1
:104E70005804222321F09093500480934F04E09132
:104E80006E05F0916F05309749F082E080935304EE
:104E90000480F581E02D83E594E009940895803F36
:104EA00039F49091560497FF35C01092560459C0BA
:104EB000813F29F4909156041916BCF32BC09091B0
:104EC0005504823F29F497FF25C01092550449C02C
:104ED000833F19F41916CCF31DC090915704893FF4
:104EE00029F41916BCF4109257043BC08A3F19F4F8
:104EF00097FF10C0F8CF8B3F39F49091580497FF7B
:104F000009C0109258042DC08C3F21F49091580490
:104F10001916BCF39CE0980F953080F421E030E046
:104F2000A90102C0440F551F9A95E2F7CA01809566
:104F30009091540489238093540413C08D3F21F42D
:104F400080914E048E7F0BC08E3F21F480914E04E1
:104F50008D7F05C08F3F29F480914E048B7F809315
:104F60004E0480915504811106C080915604811130
:104F700002C010924D0480915704811106C08091A7
:104F80005804811102C010924C04089580914E047F
:104F900080FD16C081FD16C082FD18C080914C04B2
:104FA000882391F0883290F428E0829FC001112478
:104FB00068E270E00E945D34862F672B29F007C0FD
:104FC00082E0089584E0089581E0089588E00895DE
:104FD00080914E0480FD14C081FD14C082FD16C076
:104FE00080914D04882381F08E3180F420E5829FEA
:104FF000C00111246EE170E00E945D34862F089597
:1050000084E1089588E2089588E0089580E5089590
:10501000803F21F40E94E827819504C0813F29F454
:105020000E94E827809356040895823F21F40E944D
:10503000E827819504C0833F29F40E94E8278093E4
:1050400055040895893F19F40E94C62705C08A3F78
:1050500031F40E94C62781958093570408958B3FB1
:1050600021F40E94C627819504C08C3F29F40E9438
:10507000C6278093580408959CE0980F953078F4E3
:1050800021E030E0A90102C0440F551F9A95E2F7D4
:10509000CA0190915404892B8093540408958D3F44
:1050A00021F480914E0481600BC08E3F21F48091E9
:1050B0004E04826005C08F3F29F480914E048460C5
:1050C00080934E040895E7E8F4E095E0E836F907A8
:1050D00029F08183608342833396F7CF0895FC01E2
:1050E000EE0FFF1F8E0F9F1FFC01E957FB4F6183DF
:1050F000408322830895E5E4F4E0248130E1231B1A
:1051000008F420E024838091440481608093440467
:105110000895E5E4F4E0248130E1230F08F42FEF53
:1051200024838091440481608093440408956A9AA2
:105130008EB18B7F9EB194602FB7F894E7E8F4E0CE
:1051400035E0E836F30789F0319148E09EB9000078
:1051500000C037FF8EB9330F000000C000C000C090
:105160008EB900C04A9591F7EBCF2FBF8FE594E041
:105170000197F1F700C000000895E5E4F4E04381F1
:1051800020E1421B08F440E08181628190E00C94B0
:10519000F01FE5E4F4E0438120E1420F08F44FEF13
:1051A0008181628190E00C94F01FE5E4F4E062817B
:1051B00020E1621B08F460E08181438190E00C945F
:1051C000F01FE5E4F4E0628120E1620F08F46FEF84
:1051D0008181438190E00C94F01FE5E4F4E081814B
:1051E00090E04381628108970C94F01FE5E4F4E0BD
:1051F000818190E04381628108960C94F01F809138
:10520000450486958695815009F48BE20C94E71C41
:1052100080914504869586958F5F8C3208F081E0F9
:105220000C94E71C0F931F93CF93DF93C42FD22FBF
:10523000FC0182818823C9F040936B050E941630DF
:1052400090936A058093690580E28C0F883008F09E
:1052500057C0C77081E001C0880FCA95EAF7DF9197
:10526000CF911F910F910C94DC3180916B05481305
:1052700030C08091690590916A050E94FB2F883C9F
:10528000910538F510E21D0FCD17B9F080E28C0FB3
:10529000883040F4C77081E001C0880FCA95EAF7F2
:1052A0000E94D531183028F581E09D2F977001C0FC
:1052B000880F9A95EAF70E94DC31802F0E940A330A
:1052C0001830F0F4D77081E001C0880FDA95EAF762
:1052D0000AC080E28C0F883098F4C77081E001C06A
:1052E000880FCA95EAF7DF91CF911F910F910C9427
:1052F000D531802FDF91CF911F910F910C940A33FC
:10530000DF91CF911F910F910895CF93DF93CFE756
:10531000D2E060E0CE010E94B2332196C11584E054
:10532000D807B9F7DF91CF910895CF92DF92EF922E
:10533000FF920F931F93CF93DF93C0E0D0E08E01D5
:105340000A561F4F6E018EE1C80ED11CFE01E75AAE
:10535000FB4FE590F4906F2DCE0187960E94B233FB
:105360006E2DCE0188960E94B2332296CC15DD05B3
:1053700069F70C171D0731F7E80108351240F9F6F7
:10538000DF91CF911F910F91FF90EF90DF90CF9021
:1053900008950F931F93CF93DF93C42FD0E0CC0FCA
:1053A000DD1F2EE1629FC00DD11D112436E9839FC0
:1053B000C00DD11D1124CE0187960E949433082F71
:1053C00010E0102F0027CE0188960E949433980198
:1053D000282BC901DF91CF911F910F910895462F7E
:1053E000843038F4753028F46F3018F4672F0C943B
:1053F000C92980E090E0089586E290E00C94B233F1
:10540000CF93C82F811102C06FEF01C062E283E227
:1054100090E00E94B233C11102C06FEF01C066E09C
:1054200084E290E00E94B233C11102C06FEF01C06C
:1054300067E285E290E0CF910C94B23380E00E9465
:10544000002A60E070E0CB010E94FC290E949529AF
:105450000E94852981E00C94002A83E290E00E945A
:105460009433823281F484E290E00E949433863057
:1054700051F485E290E00E94943391E0873209F084
:1054800090E0892F01C080E0817008958F929F92F3
:10549000AF92BF92CF92DF92EF92FF920F931F9342
:1054A000CF93DF93863048F4811108C0909180003B
:1054B000977F909380002F9806C085E090918000A0
:1054C000986090938000A0918600B0918700282F6B
:1054D00030E00E942A3425E030E040E050E00E94B5
:1054E00008340027122F232F342F012F122F232FA0
:1054F000332780918600909187006CE070E00E94D5
:1055000049346017710730F0C80169E070E00E940B
:1055100049345EC08091860090918700E0908600BB
:10552000F0908700E0918600F0918700C6E0D0E01F
:10553000BE010E944934060F171F211D311D48016D
:10554000590185E0880C991CAA1CBB1C8A95D1F7CF
:10555000C701BE010E9449346F01E12CF12CA70163
:105560009601260F371F411D511DC501B4010E9430
:10557000083469017A01E0918600F0918700CA0140
:10558000B9010E9439349B01AC01DF010E94F5335F
:105590009B01AC01C701B6010E943934DC01CB018B
:1055A0002FE0B695A795979587952A95D1F7009105
:1055B00086001091870020E030E0081719072A07BD
:1055C0003B0728F46091860070918700CB01BC01F5
:1055D00070938D0060938C00DF91CF911F910F919C
:1055E000FF90EF90DF90CF90BF90AF909F908F9003
:1055F0000895682F86E090E00C94B233863008F06E
:1056000085E0909168059770282F220F220F220FB6
:10561000922B90936805987F21E009F420E0909107
:10562000680520FB90F9909368050C94462A0E9427
:10563000A71981110AC00E94B2198091680584706F
:105640008962809368050E94F92A86E090E00E94B2
:10565000943380936805282F26952695269530E06B
:105660002630310524F08770886280936805809128
:10567000680580FF04C086958695869501C080E008
:105680000C94462A882311F0FA0101C0FB01099409
:105690001F93CF93DF93FC01EF5AFD4F20816223CC
:1056A000D1F0EC010E947433182F0E9474338F776D
:1056B000782F20E8720F08F47FEF612F8091480463
:1056C0000E949526462F282F672FCE01DF91CF917C
:1056D0001F910C94A825DF91CF911F910895DF921F
:1056E000EF92FF920F931F93CF93DF93EC01FC0196
:1056F000EF5AFD4F9081692381F1D09047040091CA
:10570000480410914604E12EF12C0E947433282F96
:10571000C7018C549F4F68E671E00E945D348E197A
:105720009F0997FD03969595879595958795237085
:10573000612F289F600D11247D2D802F0E949526BA
:10574000462F282F672FCE01DF91CF911F910F9108
:10575000FF90EF90DF900C94A825DF91CF911F91DF
:105760000F91FF90EF90DF9008954F925F926F92AC
:105770007F928F929F92AF92BF92CF92DF92EF92E1
:10578000FF92CF938091820490918304A09184042E
:10579000B09185042FB7F894C0907305D09074052C
:1057A000E0907505F09076052FBFC81AD90AEA0A6D
:1057B000FB0A0E940A304B015C01609382047093E3
:1057C00083048093840490938504A0915904E9E5AF
:1057D000F4E08A2F90E04FEF5FEF60E070E04C194B
:1057E0005D096E097F09A91799F0218D328D290174
:1057F000612C712C441555056605770510F4815010
:1058000004C02C0D3D1D328F218F9F5F3296EBCF50
:105810008093590480918604811108C0C091450489
:105820008C2F837019F0C695C69501C0C0E0809199
:1058300014018130E1F030F08230B9F1833009F4A5
:1058400041C06BC01092110180921704909218040D
:10585000A0921904B0921A0489E2E9E5F4E0ABE100
:10586000B4E001900D928A95E1F781E028C08C2F79
:105870000E943D10CC2309F450C00E94D43081FF17
:105880004CC02FEF4FEF6FEF8CE190E0CF91FF9086
:10589000EF90DF90CF90BF90AF909F908F907F90D0
:1058A0006F905F904F900C94A825C0931801809141
:1058B00045048370809317010E94972883E08093AA
:1058C00014012BC080914404882351F046E050E03D
:1058D0006CE170E085E494E00E94A23310924404ED
:1058E00040911704509118046091190470911A04A2
:1058F0002FB7F8948091730590917405A091750568
:10590000B09176052FBF841B950BA60BB70B409764
:10591000A105B10510F010921401CF91FF90EF9006
:10592000DF90CF90BF90AF909F908F907F906F90BF
:105930005F904F90089508958091EA0308958093B1
:10594000790570937B0560937A0580910D0484300E
:10595000F9F48093E9008FEF9091E800815095FD74
:1059600006C095ED9A95F1F700008111F5CF809171
:10597000E80085FF0DC040E050E063E070E089E79B
:1059800095E00E94C41F8091E8008E778093E80024
:105990000895BC0184E00C949F2CBC0183E00C941E
:1059A0009F2C24E02093E9002FEF3091E800215054
:1059B00035FD06C035ED3A95F1F700002111F5CF20
:1059C0002091E80025FF0BC040E050E066E070E069
:1059D0000E94C41F8091E8008E778093E8000895AC
:1059E000CF93DF9320911001222339F02091770586
:1059F00027FF03C060E224E002C068E021E02093BA
:105A0000E9002FEF3091E800215035FD06C035ED5B
:105A10003A95F1F700002111F5CF2091E80025FF1C
:105A20001DC0EC0180911001811105C040E050E0E3
:105A300068E070E003C070E040E050E0CE010E94FA
:105A4000C41F8091E8008E778093E80080E2FE0119
:105A5000ABEEB3E001900D928A95E1F7DF91CF9123
:105A600008951F920F920FB60F9211242F933F9318
:105A70004F935F936F937F938F939F93AF93BF9356
:105A8000CF93DF93EF93FF93C091E900CF708091A4
:105A9000EC00D82FD17080FDD0E81092E900809101
:105AA000F000877F8093F00078940E94022010928B
:105AB000E9008091F00088608093F000CD2BCF70DA
:105AC000C093E900FF91EF91DF91CF91BF91AF912A
:105AD0009F918F917F916F915F914F913F912F9106
