:100000000C9471030C94A9030C94A9030C94A903F8
:100010000C94A9030C94A9030C94A9030C94A903B0
:100020000C94A9030C94A9030C94F0280C94AC280C
:100030000C94ED290C94A9030C94A9030C94A90326
:100040000C94A9030C94A9030C94A9030C94A90380
:100050000C94A9030C94C9290C94A9030C94A9032A
:100060000C94A9030C94A9030C94A9030C94A90360
:100070000C94A9030C94A9030C94A9030C94A90350
:100080000C94A9030C94A9030C94A9030C94A90340
:100090000C94A9030C94A9030C94A9030C94A90330
:1000A0000C94A9030C94A9030C94A903050109025B
:1000B000A10185020901A100050919012905150001
:1000C00025019505750181029501750381010501E1
:1000D000093009311581257F950275088106093897
:1000E0001581257F950175088106050C0A380215D2
:1000F00081257F950175088106C0C005010980A191
:1001000001850319012AB700150126B7009501756D
:10011000108100C0050C0901A101850419012AA064
:1001200002150126A002950175108100C005010984
:1001300006A1018506050719E029E71500250195A7
:1001400008750181020507190029EF1500250195A1
:10015000F0750181020508190129059505750191C0
:1001600002950175039101C00660FF0961A10109B3
:1001700062150026FF0095207508810209631500AD
:1001800026FF00952075089102C005010906A1010E
:10019000050719E029E71500250195087501810279
:1001A0009501750881010507190029FF150026FF33
:1001B0000095067508810005081901290595057542
:1001C000019102950175039101C00000000000003B
:1001D000000000000000000000000000000000001F
:1001E00000000000000000000000000000007E0F82
:1001F00000D4FFFFFFC700000078000000000000EF
:1002000000002A2B28000000000000000000000071
:10021000000000000029000000002C1E34202122D4
:1002200024342627252E362D3738271E1F2021223D
:10023000232425263333362E37381F0405060708B6
:10024000090A0B0C0D0E0F101112131415161718A6
:10025000191A1B1C1D2F3130232D350405060708E4
:10026000090A0B0C0D0E0F10111213141516171886
:10027000191A1B1C1D2F3130354C643214783C1E6A
:10028000FD377A585A000004E6D6B4460200210130
:1002900016000000742FE5A3E002D5013D5D003D8E
:1002A0008889C65436C3174FE4E3D305C75A3CEADE
:1002B0004085414CF5125C622F38BBE0B85DBFCA87
:1002C000ABC464DCE3D631C603B4358114546DE2AB
:1002D0009F6E63B444050516ECF9DAF09B9C585008
:1002E00004DA9FDD59F82381D05708274B8408345E
:1002F000190E2226095E7ABAABB6DEE045DC3CD4A4
:10030000759590CC23F701EC4DFE8D385F52F821A6
:10031000B1A81C8B4769FF09BA406B33E5585217E7
:10032000F97DCFD80AAA2E21304B0E86240A35C873
:100330002B07BB5A5DBE125ED7725906755A20B99B
:10034000DE2CDEE42042B8C0A0C93E798391709EC5
:100350004BE857B015030A268936DC8BEC8CA6CD0A
:1003600021E792B8BA3C9AD20C1F21D346008803E9
:10037000FDC90733E8ABC975EC3F3058A84EC658E5
:100380000E422CD8ED65C1992B68CE8D83B782ECD7
:10039000599373D3B44DB95CC4487861CD9EA376AC
:1003A000351A75F959725BB3E70D39C71EBBDF33D8
:1003B000BE1F71B051C0BFA42F54C0B350054A1A1C
:1003C000D22E5CB9911DE117637F1026E848FBA38C
:1003D0001155DE4FDFF2F0F5249398F20000000093
:1003E0006CF275D91A28F7A80001D902D6050000C9
:1003F000F4EE5089B1C467FB020000000004595AB2
:1004000000010101010101010101020202020202D7
:1004100002020203030303030303030404040404AA
:100420000404050505050506060606060707070771
:100430000708080808090909090A0A0A0B0B0B0C26
:100440000C0C0D0D0D0E0E0E0F0F0F1010111111C3
:100450001212131314141515161617171818191944
:100460001A1A1B1B1C1D1D1E1E1F202021222223A9
:100470002424252626272829292A2B2C2D2D2E2FEA
:1004800030313232333435363738393A3B3C3D3E01
:100490003F404142434445464748494A4C4D4E4FF0
:1004A00050515354555658595A5B5D5E5F616264B2
:1004B000656668696B6C6D6F7072737577787A7B3F
:1004C0007D7E8082838587888A8C8E8F9193959696
:1004D000989A9C9EA0A2A3A5A7A9ABADAFB1B3B5B6
:1004E000B7BABCBEC0C2C4C6C9CBCDCFD1D4D6D892
:1004F000DBDDDFE2E4E7E9EBEEF0F3F5F8FAFDFF30
:10050000FFAA7F554029001E001F00200021002265
:1005100000230024002500260027002D002E003592
:10052000002A002B0014001A000800150017001CF8
:100530000018000C00120013002F003000310000E2
:1005400000E00004001600070009000A000B000D7F
:10055000000E000F0033003400000028000000E10E
:100560000000001D001B000600190005001100100E
:10057000003600370038000000E5000151E000E3DC
:1005800000E20000000000000000002C000000005D
:1005900000E60000006500E4000000A5003A003B12
:1005A000003C003D003E003F00400041004200434F
:1005B000004400450049004C0039000100010001E1
:1005C0000001000100010001004600470048005200
:1005D000000100010000000100AA00A900A800011C
:1005E000000100550054004A004B0050004F00002D
:1005F000005800000001000000010001000100019E
:10060000000100570056004D004E0051000000014F
:1006100000010001000100010000000000000000D6
:1006200000010000000000010000000100010000C6
:100630000009025B00030100A0FA090400000103A5
:100640000101000921110100012240000705810379
:100650000800010904010002030000000921110142
:100660000001222200070582032000010705030381
:10067000200001090402000103000000092111010A
:10068000000122BC000705840320000112010002C2
:1006900000000008D44521000100010203011C03F1
:1006A0007600690061006C003A0066003600340094
:1006B00063003200620033006300000012036F0029
:1006C0006D006E006900680068006B006200000049
:1006D0000C03530061006C0076006100000004030D
:1006E000090411241FBECFEFDAE0DEBFCDBF04B690
:1006F00003FE18C08091CA049091CB04A091CC0451
:10070000B091CD048730904BA740B04B59F4109274
:10071000CA041092CB041092CC041092CD04E0E0F5
:10072000F8E3099511E0A0E0B1E0E2E3F6E602C0EB
:1007300005900D92AC38B107D9F724E0ACE8B1E0F0
:1007400001C01D92AA3CB207E1F70E94142A0C9442
:10075000F3320C940000E8EDF0E080818E7F80831E
:100760001092E2001092DA001092E100A0EEB0E0E8
:100770008C9181608C9380818F77808319BCA7EDE9
:10078000B0E08C918E7F8C9380818F7E80831092DD
:10079000970408952091E4003091E50095E6A901C1
:1007A0002091EC00822F817020FF06C08091E8002C
:1007B00080FF06C080E008952091E80022FD1AC065
:1007C0008091C504882389F0853089F08091EB0001
:1007D00085FD0FC02091E4003091E50042175307DA
:1007E000F9F29150E1F684E0089582E0089583E003
:1007F000089581E00895EF92FF920F931F93CF9396
:100800007C018B010E94CA03C82F811117C08091FF
:10081000E80085FD0BC08091E8008E778093E800AA
:100820000E94CA03882399F3C82F08C0F701819159
:100830007F018093F1000150110949F78C2FCF916E
:100840001F910F91FF90EF900895CF93FC0180913D
:10085000C504843001F5C091E900CF702091EC000F
:10086000922F917020FD90E8C92B82E08093E900DF
:100870008091E80080FF0CC050E040E060E270E052
:10088000CF010E94FB038091E8008E778093E800FF
:10089000CF70C093E900CF9108958091BD0487FF88
:1008A00013C08091E80082FF06C08091E8008B773A
:1008B0008093E80004C08091C5048111F2CF0895AF
:1008C0008091C5048823D9F38091E80080FFF8CF98
:1008D0008091E8008E77ECCF982F9093E900242F39
:1008E000762F50E0891731F07091EC002091ED00E7
:1008F0005091F00021FD07C09F5F973071F7809302
:10090000E90081E008953091EB003E7F3093EB00E9
:100910003091ED003D7F3093ED003091EB00316080
:100920003093EB007093EC002093ED005093F000B7
:100930002091EE0027FDE0CF80E00895CF92DF9276
:10094000EF92FF920F931F93CF93DF93C8EDD0E008
:1009500088818F7E8883E7EDF0E0808181608083ED
:1009600084E082BF81E08093970488818E7F8883B2
:1009700002EE10E0F80110821092DA0081EEC82E2B
:10098000D12CF601108288818F77888388818068D6
:10099000888388818F7D888319BC1092C50410924A
:1009A000BC041092BB041092BA0490EEE92EF12C14
:1009B000F70180818B7F808388818160888342E01A
:1009C00060E080E00E946C04F60180818E7F80836D
:1009D000F801808181608083808188608083F70155
:1009E00080818E7F8083888180618883DF91CF9131
:1009F0001F910F91FF90EF90DF90CF900895FC0131
:100A00008091C3049091C40486179707A0F06115E4
:100A1000710529F49091E8009E779093E80090E0AA
:100A20006115710551F4911108C08091E80082FFB1
:100A300034C080E00895BC01F2CF8091C5048823C2
:100A4000C1F18530C1F18091E80083FD30C0809113
:100A5000E80082FDEACF8091E80080FFE1CF80913D
:100A6000F3002091F200382F6115710519F028303C
:100A7000310558F091E02830310509F090E02091DF
:100A8000E8002E772093E800CBCF81918093F1008E
:100A9000615071092F5F3F4FE7CF8091C5048823D4
:100AA00041F0853041F08091E80083FFBECF81E0C6
:100AB000089582E0089583E008950895809199044F
:100AC00008959C014FB7F89480918E0490918F0403
:100AD000A0919004B09191044FBF821B930B089595
:100AE0002FB7F89480918E0490918F04A091900478
:100AF000B09191042FBF089520918B0430918C0404
:100B00002817390771F090938C0480938B04E0913F
:100B10008904F0918A04309721F00084F185E02D5A
:100B20000994089520918704309188042817390783
:100B300071F09093880480938704E0918904F09188
:100B40008A04309721F00680F781E02D09940895FA
:100B5000E0918904F0918A04309721F00190F081AE
:100B6000E02D099480E00895DC01609127048091D4
:100B70002804962F891301C00895292F30E0F90128
:100B8000EE0FFF1FE15EFB4F408151814A175B076B
:100B9000A1F487E08A9FA0018B9F500D11244D5F27
:100BA0005B4F81E0FA0184839613E6CF2F5F3F4FBE
:100BB000237033272093270408952F5F3F4F922FF0
:100BC0009370D8CF1092A00310929F03E3E0F4E05B
:100BD0008581811102C014821682379684E0EF313C
:100BE000F807B1F7089581152CE5920741F420919B
:100BF000990330919A03232B11F490E080E008953B
:100C00008F929F92AF92BF92EF92FF920F931F939A
:100C1000CF93DF938630B8F5811136C09091800074
:100C2000977F909380002F98A0918600B0918700C5
:100C3000282F30E00E944F3225E030E040E050E0C5
:100C40000E94203289019A0180918600909187004C
:100C50006CE070E00E94F83160177107D8F0C801AD
:100C600069E070E00E94F83170938D0060938C0011
:100C7000DF91CF911F910F91FF90EF90BF90AF90B8
:100C80009F908F90089585E0909180009860909358
:100C90008000CACF8091860090918700E090860006
:100CA000F0908700E0918600F0918700C6E0D0E0E8
:100CB000BE010E94F831060F171F211D311D48018A
:100CC000590185E0880C991CAA1CBB1C8A95D1F798
:100CD000C701BE010E94F8319F0150E040E0260F9D
:100CE000371F411D511DC501B4010E942032490129
:100CF0005A01E0918600F0918700CA01B9010E9473
:100D0000E8319B01AC01DF010E945E329B01AC0126
:100D1000C501B4010E94E8312FE09695879577953B
:100D200067952A95D1F7009186001091870030E0F1
:100D300020E0061717072807390708F095CF6091BC
:100D400086007091870090CF282F220F220F220F4C
:100D5000909162039770922B90936203987F21E0A9
:100D600009F420E09091620320FB90F990936203D4
:100D70000C940006FA01811101C0FB010994089549
:100D800080915D03982F9E7F61F4817082608093D3
:100D90005D038091600387FF03C08FE7809360034A
:100DA00008958A32B0F381708862F1CFAF92BF921A
:100DB000DF92EF92FF920F931F93CF93DF93082F51
:100DC000162FE901E42FF0E0E050FC4F611110C054
:100DD000E4915E2F4E2F4983E8835A83DF91CF91B0
:100DE0001F910F91FF90EF90DF90BF90AF9008950B
:100DF000E62EF12C4491D42EE42FF0E026E0829FE1
:100E0000C00111242FEF30E0B9010E94F831802F8A
:100E100090E0880F991F55E5569FD001579FB00D60
:100E200011248A1B9B0B982F990F890F5901AE181B
:100E3000BF08AE9ED001AF9EB00DBE9EB00D112476
:100E40005B2F189F80011124012F11275901A01A2F
:100E5000B10AAE9E8001AF9E100DBE9E100D1124F2
:100E60005901A81AB108AE9CC001AF9C900DBE9C60
:100E7000900D1124892F9927281B390B2E9FC00113
:100E80002F9F900D3E9F900D1124E92F6230710528
:100E9000A1F050F46115710509F49DCF6130710521
:100EA00081F0EB2F512F97CF6430710569F080F0FE
:100EB0006630710509F48FCFF4CFE42F4B2F592FF3
:100EC0008ACFE42F412F87CFEB2F542F492F83CF89
:100ED0004B2F5D2DE12F7FCF0E9470059C019091DB
:100EE000700280917102982B21F030936D02209353
:100EF0006C029091720280917302982B21F03093D2
:100F00006B0220936A02E0918904F0918A04309781
:100F100049F082E080936E020480F581E02D8EE638
:100F200092E00994089590917002803F59F4809165
:100F3000710287FF0DC01092710291110BC01092C7
:100F4000680208C0813F81F48091710218169CF3F9
:100F5000992381F08091720290917302892B09F09C
:100F600064C0109267020895823F49F497FFF0CF62
:100F700010927002809171028111ECCFE0CF833F1B
:100F800019F41916ACF3E4CF20917202893F29F4C9
:100F90001216F4F610927202DBCF8A3F19F427FF83
:100FA000D7CFF8CF209173028B3F29F427FFD0CF02
:100FB00010927302CDCF8C3F19F41216CCF3C8CF28
:100FC000843F31F480916F028E7F80936F02C0CF97
:100FD000853F21F480916F028D7FF7CF863F21F40A
:100FE00080916F028B7FF1CF873F21F480916F0258
:100FF000877FEBCF883F21F480916F028F7EE5CF12
:101000008D3F31F4809169028E7F80936902A0CF79
:101010008E3F21F4809169028D7FF7CF8F3F09F0D9
:1010200097CF809169028B7FF0CF089580916902FC
:1010300080FD16C081FD16C082FD16C0809167023A
:101040008823A1F0883280F428E0829FC001112417
:1010500068E270E00E940C32862F672B39F0089509
:1010600082E0089584E0089588E0089581E008957D
:101070008091690280FD14C081FD14C082FD16C0FC
:1010800080916802882381F08E3180F420E5829F70
:10109000C00111246EE170E00E940C32862F089589
:1010A00084E1089588E2089588E0089580E5089530
:1010B000803F31F40E943808819580937102089531
:1010C000813F19F40E943808F8CF823F31F40E9422
:1010D00038088195809370020895833F19F40E9427
:1010E0003808F8CF893F29F40E94160880937202CD
:1010F00008958A3F21F40E9416088195F7CF8B3F0F
:1011000031F40E94160881958093730208958C3FF4
:1011100019F40E941608F8CF843F31F480916F02D1
:10112000816080936F020895853F21F480916F0262
:101130008260F7CF863F21F480916F028460F1CF07
:10114000873F21F480916F028860EBCF883F21F4C4
:1011500080916F028061E5CF8D3F31F4809169020B
:1011600081608093690208958E3F21F48091690225
:101170008260F7CF8F3FB9F7809169028460F1CF29
:1011800080E00895F894E82FE295EF70F0E031A147
:10119000282F2F7081E090E001C0880F2A95EAF790
:1011A000982F9095932391A392A1892B82A3789451
:1011B00008959091920492FF06C0282F287128303C
:1011C000F9F4877F846093FF06C0282F28712831A7
:1011D000F1F4877E84612091930420FF06C0382FAC
:1011E00038713830D9F4877F816021FF06C0282FFD
:1011F00028712831D1F4877E816194FD877E08951E
:10120000282F24712430F9F68B7F8860DCCF282FBB
:101210002471243101F78B7E8861DDCF382F317145
:10122000313019F78E7F8860E0CF282F217121316E
:1012300021F78E7E8861E1CFCF93DF93EC01823876
:101240009105A9F1D8F58133910509F496C048F5C7
:101250008932910509F48AC08A9709F495C0C115AD
:1012600021E5D20708F0BCC0C11530E5D30708F06E
:1012700014C1C83ED10508F09CC0C03ED10560F540
:10128000C83AD10508F087C0C53AD10508F0FDC0BD
:10129000C130D10509F12097F9F0C430D105E0F44F
:1012A00040C08533910509F45AC0C997C1F68091B1
:1012B0009204837089F0C0EED0E00EC0833E9105A9
:1012C00099F170F4803E910501F1823E910539F665
:1012D0008091920482FD21C0CE01DF91CF910895CB
:1012E000863E910561F1873E910571F1843E91053D
:1012F00009F0B5CF8091930481FFEECF80919204E5
:10130000C7EED0E084FD0DC0E7CF8091920480FD50
:1013100012C19091930490FFDFCFC3EED0E084FF21
:10132000DBCFD0E0C0E0D8CF8091920482FD06C12F
:101330009091930490FDBFCF84FFCECFF2CF8091E8
:10134000920483FDDDCFC8CF8091920483FDF9C064
:101350009091930491FFF0CFC4EED0E0BDCF809187
:10136000920485FFB9CFC9E2D0E0B6CF8091920454
:1013700085FFB2CFC5E3D0E0AFCF8091920486FF66
:10138000ABCFCAE2D0E0A8CF8091920486FFA4CF71
:10139000C1E3D0E0A1CFCF3BD10518F6C85AD0E0C9
:1013A000CC0FDD1FCA5DDE4F0990D881C02DD464FB
:1013B00093CFC11540E2D40758F4C11581E0D80796
:1013C00008F08ACFC03FD10508F4ABCFD06584CFF9
:1013D000C11590E4D90708F4A4CFDF70D06A7CCFA0
:1013E000C11525E5D20700F5C11534E5D30708F08E
:1013F0008AC0C11543E5D40708F071C0C11582E564
:10140000D80708F467C0CE018370992721E030E047
:1014100002C0220F331F8A95E2F7C695C69580E277
:10142000C89FE001112452C0C11599E5D907A8F45D
:10143000C11528E5D20708F06BC0C11536E5D30702
:1014400008F06FCF8C2F0E94D908C82FD0E0DC2F76
:10145000CC27CC27DF71D0623FCFC1154AE5D40736
:1014600008F45BC0CE0190568115904208F059CF28
:101470008D2F8F710E94D90890E0982F8827882798
:101480009F719C012C2BE901E6CFC55AD0E0CD5DC0
:10149000DE4FC881D0E0D0641FCFCE01E4E0969546
:1014A0008795EA95E1F783702C2F26952695237072
:1014B00040E2249F90011124382B8C2F8370C1E0CF
:1014C000D0E002C0CC0FDD1F8A95E2F7C22BD32BF0
:1014D000DC6802CFDC2FCC27C16FD06AFDCECE01F5
:1014E0008370992721E030E002C0220F331F8A95D4
:1014F000E2F7C695C69590E2C99FE0011124C22B80
:10150000D32BDA68E9CEDC2FCC27C46FD06AE4CEC7
:10151000DC2FCC27C06FD06ADFCE8C2F8F700E945B
:10152000D90834E0D695C7953A95E1F7CF709C2F4E
:10153000EC01D069D1CEC9E3D0E0CECEC2EED0E08E
:10154000CBCEC6EED0E0C8CE80913D02882331F0EC
:1015500010923D0210923C0210923B020895809539
:1015600090912C04982390932C0408958095909149
:101570002B04982390932B04089510921A02109232
:101580001902109218020895809117028111109289
:101590001702089590911A019923D1F09091920425
:1015A00097FF16C0E82FE695E695E695EE31E0F454
:1015B000F0E0E257FE4F282F277081E090E001C055
:1015C000880F2A95EAF7809592818923828308956E
:1015D000E0E9F1E09191891303C0DF0111971C92BA
:1015E00091E0E639F907B1F7089590911A0199232E
:1015F000C1F09091920497FF14C0E82FE695E6950C
:10160000E695EE31F8F4F0E0E257FE4F877021E006
:1016100030E001C0220F8A95EAF78281822B828313
:101620000895A0E9B1E0EFEF90E02D91821751F01D
:10163000EF3F19F4211101C0E92F9F5F9630A9F700
:10164000EF3F09F408950E2E000CFF0BE257FE4FFA
:10165000E6CF809116029091D501981301C00895AC
:101660008F5F8770FACF9E3F49F1E82F2FE0929F5E
:10167000E00D11249E2F9770E695E695E69583E0A0
:10168000E89FF0011124E155FE4F50E040E080E07A
:10169000219130E0092E02C0369527950A94E2F791
:1016A00021703327042E01C0220F0A94EAF7822BFF
:1016B0004F5F5F4F4330510559F7089580E008951B
:1016C0009E3F69F1E82F2FE0929FE00D11248E2FAD
:1016D000877041E001C0440F8A95EAF7E695E695E8
:1016E000E69583E0E89FF0011124E155FE4F30E0DC
:1016F00020E070E05191DF011197CB01022E02C072
:10170000969587950A94E2F78170819585278423C1
:1017100085278C932F5F3F4F2330310559F708956C
:101720009C013A9521153F4150F5FC01EE27F170DF
:10173000BC0166277270AC01442754709C012227BB
:10174000387094FF0EC080E1EF2B09F480E0672B26
:1017500009F08062452B09F08064232B89F08068B2
:10176000089581E0EF2B09F480E0672B09F0826097
:10177000452B09F08460232B19F08860089580E0E0
:1017800008958093940470939604609395048091D7
:10179000C5048430F9F48093E9008FEF9091E8005C
:1017A000815095FD06C095ED9A95F1F700008111E5
:1017B000F5CF8091E80085FF0DC050E040E063E088
:1017C00070E084E994E00E94FB038091E8008E774A
:1017D0008093E8000895BC0184E00C94C10BBC0127
:1017E00083E00C94C10B9C0184E08093E9009FEF9F
:1017F0008091E800915085FD06C085ED8A95F1F74E
:1018000000009111F5CF8091E80085FF0CC050E0F9
:1018100040E066E070E0C9010E94FB038091E800AF
:101820008E778093E8000895CF93DF93EC01809149
:101830001A018823B1F18091920487FF32C060E2DF
:1018400084E08093E9008FEF9091E800815095FD4E
:1018500006C095ED9A95F1F700008111F5CF8091C2
:10186000E80085FF1BC080911A0170E050E040E065
:10187000811104C050E040E068E070E0CE010E94B9
:10188000FB038091E8008E778093E80080E2FE0100
:10189000AAE9B4E001900D928A95E1F7DF91CF912A
:1018A000089568E081E0CDCF81E08093E00080E2A0
:1018B0008093D8001092C9008FE19EE40197F1F760
:1018C00000C0000087E090EBDC018093CA04909395
:1018D000CB04A093CC04B093CD0488E19CE00FB678
:1018E000F894A895809360000FBE90936000FFCF9E
:1018F00080915D0380FD0AC0ECE7F2E01182108266
:101900001282339653E0ED35F507C1F76A9A3EB17E
:101910003B7F2EB124604FB7F8948CE792E0FC0136
:101920005191CF0168E02EB9000000C057FF3EB9C9
:10193000550F000000C000C000C03EB900C06A954D
:1019400091F7F3E08D359F0751F74FBF8FE594E096
:101950000197F1F700C000000895EF92FF921F93E6
:10196000CF93DF93EC018CE7E82E82E0F82E10E0B5
:101970008C81810F4091600360915F0347FD4FE7C9
:1019800097010E94D6061D5F83E0E80EF11C113E10
:1019900079F70E94780C9A818C8190FF08C08F5F44
:1019A0008C83DF91CF911F91FF90EF90089581502C
:1019B000F7CF90915D0390FF0CC0ECE7F2E08183DC
:1019C00060834283339693E0ED35F907C1F70C94B9
:1019D000780C08950F931F93CF93DF9300D00F924D
:1019E000CDB7DEB78C0180915D0380FF12C04091BE
:1019F000600347FD4FE79E012F5F3F4F60915F03FC
:101A0000F80184810E94D6064B8169818A810E94F7
:101A1000D90CF80184818F5F84830F900F900F9011
:101A2000DF91CF911F910F910895CF93DF93CFEC6A
:101A3000D2E060E0CE010E94B7322196C11584E069
:101A4000D807B9F7DF91CF9108950F931F93CF93E4
:101A5000DF938901843048F5653038F54F3028F53B
:101A600021153C4531F42091990330919A03232BA1
:101A7000E1F0C42FD0E0CC0FDD1F9EE1699FC00DC7
:101A8000D11D112496E9899FC00DD11D1124612F0C
:101A9000CE0187960E94B732602FCE018896DF91E3
:101AA000CF911F910F910C94B732DF91CF911F917D
:101AB0000F910895CF93C82F6FEF811164E083E2F7
:101AC00090E00E94B7326FEFC1116DED84E290E0BB
:101AD0000E94B7326FEFC1116DE685E290E0CF91C1
:101AE0000C94B732682F86E090E00C94B7327F9266
:101AF0008F929F92AF92BF92CF92DF92EF92FF921E
:101B00000F931F93CF93DF93CDB7DEB764970FB6D4
:101B1000F894DEBF0FBECDBFA0909903B0909A039A
:101B200081E090E090939A038093990385E0C82E1A
:101B300085E0D82E00E0760110E015C0F401259173
:101B40003491472D612F802F0E94250D82E0880E51
:101B5000911C7394EFE07E12F1CFFEE1EF0EF11CC9
:101B60001F5F153019F04701712CE8CF0F5F86E930
:101B7000C80ED11C0430F9F61A8219821C821B820D
:101B80001E821D8218861F8288EC90E09A878987C2
:101B90004AE050E06FE772E0CE0101960E94DB322E
:101BA0004AE050E069E872E0CE0101960E94DB3223
:101BB0004AE050E063E972E0CE0101960E94DB3218
:101BC0004AE050E06DE972E0CE0101960E94DB32FE
:101BD0008E01055F1F4F8AE0F80111928A95E9F79F
:101BE0004AE050E067EA72E0C8010E94DB324AE056
:101BF00050E061EB72E0C8010E94DB324AE050E045
:101C00006BEB72E0C8010E94DB324AE050E065EC09
:101C100072E0C8010E94DB32B0929A03A09299034D
:101C200064960FB6F894DEBF0FBECDBFDF91CF91A3
:101C30001F910F91FF90EF90DF90CF90BF90AF90EA
:101C40009F908F907F90089580E00E945A0D60E0F1
:101C500086E290E00E94B7320E94770D0E94150D37
:101C600081E00C945A0D9B01843070F49AE0899FB6
:101C7000B001112461587D4F4AE050E0C9010E9433
:101C8000933290E080E008958FEF9FEF08958F9258
:101C90009F92AF92BF92CF92DF92EF92FF920F93FB
:101CA0001F93CF93DF93CDB7DEB72A970FB6F89483
:101CB000DEBF0FBECDBF0FE214E0F12CE12C85EDAD
:101CC000C82E87E2D82E9FEFA92E97E2B92E21E3E6
:101CD000822E27E2922EF801D182C082B382A282A4
:101CE00095828482F58AE48ABE016F5F7F4F8E2DD4
:101CF0000E94330E892B29F489859A85F801938BEC
:101D0000828BFFEFEF1AFF0A0A5E1F4F84E0E8168E
:101D1000F10409F72A960FB6F894DEBF0FBECDBFC7
:101D2000DF91CF911F910F91FF90EF90DF90CF90B7
:101D3000BF90AF909F908F9008950F931F93CF9374
:101D4000DF93843030F5653020F54F3010F5C42F27
:101D5000D0E0CC0FDD1F2EE1629FC00DD11D1124FC
:101D600036E9839FC00DD11D1124CE0187960E94B4
:101D7000A332082F10E0102F0027CE0188960E9472
:101D8000A3329801282BC901DF91CF911F910F91A8
:101D9000089590E080E0F8CF462F20919D03309188
:101DA0009E03232B91F47E3F39F46E3F71F48091B2
:101DB0009B0390919C030895843038F4753028F487
:101DC0006F3018F4672F0C949D0E90E080E008951A
:101DD000CF92DF92FF920F931F93CF93DF936C010B
:101DE0000091C60480913E02082BC7E0D0E010E0CD
:101DF000FC2EC8010C2E02C0959587950A94E2F737
:101E000080FD0CC02197A0F7F12C8F2DDF91CF9191
:101E10001F910F91FF90DF90CF900895B6018C2F06
:101E20000E94CC0E0E941C09019761F3EECFCF9364
:101E3000DF93EC010E94E80EBE010E94CC0EDF9100
:101E4000CF910C941C09FC0186819781009791F039
:101E50000E941C0992959F709630B9F080F4925FB1
:101E60009F70923080F4803F19F058F4883E58F407
:101E700081E00895808191810E94170FEBCF9A5FD6
:101E8000EFCF843FA9F380E00895883E88F3813F37
:101E9000D1F7EECF1F93CF93DF9300D000D00F92F6
:101EA000CDB7DEB7FC01268137812115310541F51B
:101EB00025E0DE01119601900D922A95E1F7FC01D3
:101EC000228189819A812223B9F06623A9F00E9498
:101ED000E80E182F682F89819A810E94600B698112
:101EE0007A81812F0F900F900F900F900F90DF91BC
:101EF000CF911F910C94CC0E0E94330B182FEFCF73
:101F0000C9010F900F900F900F900F90DF91CF911C
:101F10001F91089583E290E00E94A332843089F4F7
:101F200084E290E00E94A3328D3D59F485E290E076
:101F30000E94A33291E08D3609F090E0892F8170E4
:101F4000089580E0FCCFCF9384E090E00E94A3321C
:101F5000C82F82E290E00E94A332982F8C2FCF915D
:101F60000895CF92DF92EF92FF920F931F93CF933A
:101F7000DF93CDB7DEB72A970FB6F894DEBF0FBE5A
:101F8000CDBFE1E7F3E088E2DF011D928A95E9F732
:101F9000E3E0F4E08CE1DF011D928A95E9F781E747
:101FA000C82E83E0D82E7F0107EA12E0F701D18224
:101FB000C0824AE050E0B801CE0101960E949332FF
:101FC00088E0FE013196D60101900D928A95E1F7E5
:101FD00089859A85D70113969C938E931297BAE0C0
:101FE000CB0ED11CE7E0EE0EF11C065F1F4F0F3C3D
:101FF000F2E01F07D9F62A960FB6F894DEBF0FBE9F
:10200000CDBFDF91CF911F910F91FF90EF90DF90A7
:10201000CF900895CF92DF92EF92FF926B017C01F7
:102020000E94C006B701A60188E090E0FF90EF9003
:10203000DF90CF900C94C9324F925F926F927F9253
:102040008F929F92AF92BF92CF92DF92EF92FF92C8
:102050000F931F93CF93DF9300D00F92CDB7DEB7CE
:10206000082F762E142F622E80915D0380FF2DC0E5
:10207000E82FE695AE2FB0E0A859BE4F9C91909303
:102080007A028E7F8230A9F54FE717FF412F9E011C
:102090002F5F3F4F672D802F0E94D6064B816981AD
:1020A0008A810E94D90C00935E0370925F031093A3
:1020B0006003662051F060915D0370915E03809132
:1020C0005F03909160030E940A100F900F900F9091
:1020D000DF91CF911F910F91FF90EF90DF90CF9004
:1020E000BF90AF909F908F907F906F905F904F9038
:1020F0000895923019F400915E03D5CF9530D9F34D
:102100009B3089F6EB508E2F8170582EE695F0E0CB
:10211000E050FB4FA590B490442E47FF02C02FE73C
:10212000422EBB248CE7E82E82E0F82ED12CC12C65
:102130009BE4892E912CC601B4010E94F831802FB6
:10214000511013C0860F9701442D672D0E94D606AB
:10215000CA0CDB1C83E0E80EF11C8DE5E81683E079
:10216000F80649F70E94780C9ECF861BECCFEDE570
:10217000F3E0438128E0421B08F440E021E0628163
:1021800081810C941C10EDE5F3E0438128E0420FBF
:1021900008F44FEF21E0628181810C941C10EDE581
:1021A000F3E0628128E0621B08F460E021E04381F3
:1021B00081810C941C10EDE5F3E0628128E0620F50
:1021C00008F46FEF21E0438181810C941C10EDE550
:1021D000F3E0818121E04381628188500C941C10DE
:1021E000EDE5F3E0818121E043816281885F0C9419
:1021F0001C1080916103882319F081508093610342
:1022000060915D0370915E0380915F039091600324
:102210000C940A1080916103833018F48F5F8093CF
:10222000610360915D0370915E0380915F03909103
:1022300060030C940A1090915D0390FF3DC0917073
:10224000811129C0926090935D03662351F06091E3
:102250005D0370915E0380915F03909160030E9423
:102260000A1060915D03669570E04BE050E08EE0EF
:1022700091E00E947232892BA9F010927B0281E0DA
:102280008093770220E04091600360915F0380912A
:102290005E030C941C10853110F09862D4CF880F27
:1022A000982BD1CF81E080937B020E9470059093A0
:1022B000750280937402E3CF089580915D03869543
:1022C000815009F484E161E00C941B1180915D035D
:1022D00086958F5F853108F081E061E00C941B11D9
:1022E00090915D0390FF07C09695981720F0961780
:1022F00010F40C94661161E00C941B11EDE5F3E011
:1023000083E0808311828FEF82838FE7838314823F
:1023100060817181828193810C940A1069EE7EEF55
:1023200090E080E00E94D53260E082E090E00E9480
:10233000B73260E083E090E00E94B73210923E0234
:1023400060E084E090E00E94B73260E082E290E0DA
:102350000E94B73260E085E090E00E94B73260E012
:1023600086E090E00E94B7326FEF87E090E00E9435
:10237000B73240E050E0BA0188E090E00E94C932F4
:1023800060E08DE090E00E94B73240E050E0BA019A
:1023900088E190E00E94C93260E087E190E00E940D
:1023A000B73240E050E0BA018CE190E00E94C932BF
:1023B00070E060E080E290E00E94D53240E050E0C2
:1023C000BA0188E190E00E94C93280E00E945A0D73
:1023D0000E94240E40E050E0BA018FE090E00E949D
:1023E000C93240E050E0BA0183E190E00C94C93278
:1023F0004F925F927F928F929F92AF92BF92CF92B5
:10240000DF92EF92FF920F931F93CF93DF93CDB79D
:10241000DEB72A970FB6F894DEBF0FBECDBF8E0190
:102420000F5F1F4F8AE0F80111928A95E9F724E5C2
:10243000E22E21E0F22ECC24C394D12C8824839464
:10244000912C58E6A52E51E0B52EF70181917F0120
:102450008F3F09F44DC0F894E82FE295EF70F0E05B
:1024600021A18F70A40102C0440F551F8A95E2F785
:10247000CA01922F982B91A392A18095892382A3C0
:10248000789400C093E6492E91E0592ED801B60108
:1024900060957095F20171902F018D919D91AD0124
:1024A00042505109FFEF7F1609F47DC0272D229578
:1024B0002F7030E0F90120A130E0F72DFF7002C04D
:1024C00035952795FA95E2F720FD6DC08C299D2959
:1024D000FA0191838083A414B504E1F6F7013197E2
:1024E00080818F3F11F00E94C208F0EAFA95F1F75F
:1024F000CC0CDD1C23E6E21621E0F20609F0A5CFA4
:102500004AE050E0B80182E492E00E947F32FF246A
:10251000F394009709F4F12C892B09F447C08AE061
:10252000F801A2E4B2E001900D928A95E1F781E012
:10253000809341020E9470059093400280933F0275
:1025400080913F02909140020E946105059790F1B1
:10255000809142029091430290935E0280935D02CB
:1025600080914402909145029093600280935F02B3
:10257000809146029091470290936202809361029B
:102580008091480290914902909364028093630283
:1025900080914A0290914B0290936602809365026B
:1025A0001092410207C08623972392CF8091410267
:1025B0008111C6CF8F2D2A960FB6F894DEBF0FBEBD
:1025C000CDBFDF91CF911F910F91FF90EF90DF90E2
:1025D000CF90BF90AF909F908F907F905F904F90E3
:1025E000089580912B0490912C04892B80938E0167
:1025F00080913D02882329F10E94700520913B02C1
:1026000030913C02821B930B8838934110F00E945A
:10261000A40A80918E0190913D02892B80938E01B6
:1026200080911A018823D9F18091920487FF37C0E5
:102630008EE1E0E9F1E090E0815098F591110E947F
:10264000A40A40E250E06BE172E08EE891E00E9463
:102650007F32892B59F180E2EEE8F1E0ABE1B2E0A4
:1026600001900D928A95E1F7E0918904F0918A0436
:102670003097E1F080911A01882359F080919204FB
:1026800087FF07C080918E0180938F0186E0809341
:102690008E010280F381E02D8EE891E0099486E0BE
:1026A000C8CF2191222341F29F5FC6CF0895EF92B8
:1026B000FF920F931F93CF93DF93EC018A858111D3
:1026C00034C0EB80FC8087E5F81A26E12E9DC0011E
:1026D0002F9D900D1124DC01A15DBB4F1496ED914F
:1026E000FC911597309731F054966D917C918B5CED
:1026F0009B4F099586E18E9D80018F9D100D1124C1
:10270000015D1B4FF80187810E94B60AF8018085A0
:102710000E94AF0A0E94F112188219861B861E823F
:102720001D8210922E0410922D04DF91CF911F91E3
:102730000F91FF90EF900895CF93DF93EC0189897B
:1027400081111BC081E0898B80912B049F81892B93
:1027500080932B0480912C049885892B80932C04E2
:102760000E94F112EA81FB81309739F06C897D89F2
:10277000CE010696DF91CF910994DF91CF91089514
:1027800090E080E00E94920590E080E00E947C054D
:1027900010922C040E94F11286E0EEE6F2E0DF01D6
:1027A0001D928A95E9F710926802109267021092C2
:1027B00069020C946C078093C6040C94C01380913A
:1027C000C604982F9670963019F488600C94DB1329
:1027D000877FFCCF21E030E001C0220F8A95EAF725
:1027E00020958091C60482230C94DB1390911A02E9
:1027F0008095892380931A02282F277091F4282F1F
:10280000082E000C330B9217130659F09091930485
:1028100092FD07C08595859585950E94EA130C94D5
:10282000BD0A0895CF93C0919304C2FB992790F9F4
:10283000981799F080FBC2F9C093930460919204B9
:1028400084E090E00E94B7326C2F82E290E00E9418
:10285000B73282E0CF910C94F613CF91089521E026
:1028600030E001C0220F8A95EAF78091C604822BDE
:102870000C94DB139091930492FD10C098E0899F13
:1028800090011124622B60931A020E942F140E945F
:102890007005909319028093180208950C942F14D8
:1028A00080933E020C94C01310922B0480911A0165
:1028B000E0E9F1E0882359F08091920487FF07C096
:1028C0008EE1DF011D928A95E9F70C94C01386E032
:1028D000F8CF1F93CF93DF93CDB7DEB7AA970FB68C
:1028E000F894DEBF0FBECDBF8DEB94E02091F100D8
:1028F000DC012D93CD01B4E0853C9B07B9F78091B5
:10290000BE04833009F472C0B8F4813009F449C0C0
:10291000823009F4B3C08091E80083FF96C28091B1
:10292000BD049091BE049A3008F08FC2E92FF0E008
:10293000EB50FD4C0C9442328A3009F48EC08B303F
:1029400009F471C0893039F78091BD04813219F7DB
:102950008091C1049091C204009711F00297D9F6BA
:102960008091E800877F8093E8008091E80082FFF3
:1029700038C09091F3008091F200029731F4809179
:10298000F100813011F0863021F48091F1008093C4
:1029900099048091E8008B778093E8000E944D04B1
:1029A000BACF8091BD04813A09F0B5CF8091E8009B
:1029B000877F8093E8008091C1049091C204892BA5
:1029C00061F460E28AE994E070E00E94FF04809183
:1029D000E8008B778093E8009ECF60E090E080E095
:1029E000F3CF8091C5048111C0CF95CF8091BD04F4
:1029F000813A09F090CF8091C1049091C204892B53
:102A000009F089CF8091E800877F8093E80080916A
:102A1000E80080FFFCCF80911A018093F100809143
:102A2000E8008E77B9CF8091BD04813209F073CF71
:102A30008091C1049091C204892B09F06CCF8091E0
:102A4000E800877F8093E8000E944D048091BF04D6
:102A500080931A010E9454145ECF8091BD0481328C
:102A600009F059CF8091E800877F8093E8000E94A9
:102A70004D048091C004809398044DCF8091BD0493
:102A8000813A09F048CF8091E800877F8093E80081
:102A90008091E80080FFFCCF80919804BECF803801
:102AA00099F0823809F0D1C18091C1048F708730CC
:102AB00008F0CBC18093E9008091EB0085FB88276B
:102AC00080F91092E90006C08091BA049091BB048D
:102AD000911182609091E800977F9093E800809335
:102AE000F1001092F1008091E8008E77AAC188234E
:102AF00009F498C1823009F0A8C18091BF04811106
:102B00009BC18091C1048F702FEF280F263008F0F1
:102B10009CC18093E9002091EB0020FF8DC1933090
:102B200031F48091EB0080628093EB0085C190913D
:102B3000EB0090619093EB0021E030E001C0220FA8
:102B40008A95EAF72093EA001092EA008091EB0060
:102B50008860EACF811179C11091BF041F778091FD
:102B6000E3008078812B8093E3008091E800877FE9
:102B70008093E8000E944D048091E80080FFFCCF24
:102B80008091E30080688093E30082E0111183E08C
:102B90008093C5045AC18058823008F056C12091F4
:102BA000BF043091C0042C3DE3E03E07A1F583E073
:102BB0008A838AE289834FB7F894DE01139620E076
:102BC0003EE051E2E32FF0E050935700E49120FF04
:102BD00003C0E295EF703F5FEF708E2F90E0EA3018
:102BE000C0F0C7968D939D932F5F243159F74FBF47
:102BF0008091E800877F8093E8006AE270E0CE0170
:102C000001960E94FF048091E8008B778093E80092
:102C10001CC1C096E7CF8091C1049091C204432F9C
:102C200055274330510509F44AC078F54130510524
:102C300009F485C08BE590E0E1E3F6E04230510510
:102C400009F003C12091E800277F2093E80020913C
:102C5000C3043091C4048217930708F49C0140E038
:102C60002115310509F070C041116EC08091E80056
:102C700082FDC9CF8091C504882329F2853019F2DD
:102C80008091E80083FFF2CFBECF4132510509F4B5
:102C900047C04232510509F0D8C08330910508F091
:102CA000D4C0FC01EE0FFF1FE058FE4F0190F081F1
:102CB000E02D83589E4FDC018C9190E01DC033279E
:102CC00021303105E9F02115310579F02230310547
:102CD000F9F02330310509F0B8C0EEE9F6E0E491EF
:102CE0008E2F90E0EEE9F6E007C0EEEDF6E0E4911D
:102CF0008E2F90E0EEEDF6E0009709F4A6C0A2CF8B
:102D0000E0EDF6E0E4918E2F90E0E0EDF6E0F4CF18
:102D1000ECEBF6E0E4918E2F90E0ECEBF6E0ECCFFC
:102D20008330910508F091C0880F991FFC01EA5784
:102D3000FE4F0190F081E02D89E090E083CF82E1A9
:102D400090E0ECE8F6E07ECF8091C504882309F49A
:102D50005ACF853009F457CF8091E80083FD53CFD7
:102D60008091E80082FD82CF8091E80080FF78CFDB
:102D70009091F3008091F2002115310519F088300F
:102D8000910550F041E0089709F040E08091E8009B
:102D90008E778093E80064CF44914093F1003196A0
:102DA000215031090196E8CF803809F04EC080915A
:102DB000E800877F8093E8008091BC048093F10055
:102DC00092CE811142C01091BF041230F0F5809173
:102DD000E800877F8093E8001093BC040E944D04B4
:102DE000112311F084E005C08091E30087FDFACF44
:102DF00081E08093C50442E061EC81E00E946C04B4
:102E000042E261EC84E00E946C0442E261EC82E008
:102E10000E946C0442E260EC83E00E946C048091AA
:102E2000C50413C08091BF04813079F481E09330F0
:102E300009F080E08093BB041092E9008091E800E3
:102E4000877F8093E8000E944D048091E80083FF13
:102E50000AC08091E800877F8093E8008091EB00B2
:102E600080628093EB00AA960FB6F894DEBF0FBE87
:102E7000CDBFDF91CF911F910895882321F00E944B
:102E8000AF0A0C94F1120895882339F090912C0424
:102E9000982B90932C040C94F1120895882321F020
:102EA0000E94B60A0C94F1120895882339F090918B
:102EB0002B04982B90932B040C94F11208958823E3
:102EC00009F452C0823871F40E94A80581FF4CC0F9
:102ED00089E30E94F50A0E94F11289E30E94CA0A5E
:102EE0000C94F112833859F40E94A80580FF3CC06D
:102EF00083E50E94F50A0E94F11283E5EFCF843842
:102F000059F40E94A80582FF2FC087E40E94F50AA9
:102F10000E94F11287E4E2CF9CEF980F913AF0F211
:102F200090E2980F983050F4877091E001C0990FAB
:102F30008A95EAF7892F0E94B60AD2CF9BE5980FAF
:102F4000933020F490E080E00C94920598E5980F7F
:102F5000973120F490E080E00C947C05803F20F0D5
:102F60000E9493070C946C070895CF93C82F882371
:102F700009F4AFC08238C1F40E94A80581FDA9C040
:102F800089E30E94F50A0E94F1122FEF81EE94E08E
:102F9000215080409040E1F700C0000089E30E948A
:102FA000CA0ACF910C94F1128338A1F40E94A805AB
:102FB00080FD8FC083E50E94F50A0E94F1122FEF79
:102FC00081EE94E0215080409040E1F700C0000085
:102FD00083E5E5CF8438A1F40E94A80582FD79C07D
:102FE00087E40E94F50A0E94F1122FEF81EE94E02F
:102FF000215080409040E1F700C0000087E4CFCF2F
:103000008CEF8C0F813A90F580911A01882301F1A1
:103010008091920487FF1CC0EC2FE695E695E6951B
:10302000F0E0E257FE4F828190E04C2F477021E0A4
:1030300030E002C0220F331F4A95E2F78223932328
:10304000892B81F08C2F0E94CA0A0E94F1120AC0BB
:10305000E0E9F1E086E991E02191C21799F38E173A
:103060009F07D1F78C2F0E94F50A9BCF80E28C0F2F
:10307000883068F4C77021E030E001C0220FCA95A3
:10308000EAF780912B04822B80932B048ACFEBE507
:10309000EC0FE33040F4F0E0ED5DFE4F808190E016
:1030A000CF910C949205E8E5EC0FE73150F4F0E095
:1030B000EE0FFF1FEA5DFE4F80819181CF910C944E
:1030C0007C05C03F30F08C2F0E945808CF910C94A3
:1030D0006C07CF9108951F93CF93DF93182FD0E003
:1030E000C0E0893311F4C0E5D0E0812F0E94B5170C
:1030F000209731F4812FDF91CF911F910C945F17AE
:103100008FE99FE00197F1F700C000002197F0CF11
:103110000F931F93CF93DF93C62FD42F022FFC0161
:1031200082818823A1F06093C9040E947005909366
:10313000C8048093C704C77081E001C0880FCA9596
:10314000EAF7DF91CF911F910F910C945517809161
:10315000C904681335C08091C7049091C8040E94C7
:103160006105883C910560F510E21D0FCD17B9F09F
:1031700080E28C0F883040F4C77081E001C0880F76
:10318000CA95EAF70E944E17183048F481E09D2F47
:10319000977001C0880F9A95EAF70E945517802F03
:1031A0000E946B18183098F4D77081E001C0880F26
:1031B000DA95EAF7DF91CF911F910F910C944E179A
:1031C000C77081E001C0880FCA95EAF7F3CFDF919D
:1031D000CF911F910F910895AF92BF92CF92DF923E
:1031E000EF92FF920F931F93CF93DF93EC018AE04E
:1031F000A82E2881222309F48CC02130C9F5998199
:103200008A81913021F422960E946B1805C0923079
:1032100029F422960E94B5172196EBCF933021F422
:1032200022960E945F17F8CF943011F02196F4CFC8
:10323000229630E020E0AE014F5F5F4F8053990B44
:103240008A30910550F02150310930F38FE99FE029
:103250000197F1F700C00000F6CFA29EB001A39E37
:10326000700D11249C01260F371F8981EA01E3CFDD
:10327000E22FF0E0E650FE4FB490822F86958695BF
:10328000869590E0FC01E651FE4FE4902770F12C0A
:10329000022E02C0F594E7940A94E2F731E0E322AB
:1032A000FF24FC01E652FE4FC490D12C022E02C036
:1032B000D594C7940A94E2F731E0C322DD24FC01DF
:1032C000E653FE4F049110E002C0159507952A952C
:1032D000E2F701701127E114F10419F081EE0E9468
:1032E000B517C114D10419F086EE0E94B5178B2DC5
:1032F0000E946B18CD2819F086EE0E945F17EF2808
:1033000019F081EE0E945F17012B09F485CF8CE242
:103310007BCFDF91CF911F910F91FF90EF90DF90C6
:10332000CF90BF90AF9008959F92AF92BF92CF92EF
:10333000DF92EF92FF920F931F93CF93DF9300D012
:1033400000D0CDB7DEB77C01DC0113968D919C9146
:103350001497892B39F08C9111969C9189238F3F7A
:1033600009F064C50F900F900F900F90DF91CF91EF
:103370001F910F91FF90EF90DF90CF90BF90AF9093
:103380009F900895D60116968C9116978823D1F0B8
:1033900019968D919C910817190739F480912D0485
:1033A00090912E040817190769F0F6019786148783
:1033B0000387C6010E949C13C60106960E945713FC
:1033C00010922C04FFEFAF1ABF0A26E1C20ED11CE7
:1033D00045C5C80182519F45409708F01BC58FEF36
:1033E00093E00E94A3325EEED52ED00E0FEC12E0D9
:1033F0008823F9F080911A02877009F4B3CFD701BE
:1034000012968C91882309F4ADCF8091930482FDAC
:10341000A9CF82E00E94F613A5CF011534E013076F
:1034200049F3C8010E94A332811101C0DA940F5FF1
:103430001F4FD110F2CF19821A821B821C8299244D
:103440009A9468014FEFC41AD40AC8010E94A332AB
:1034500089831A82882371F2813009F073C0580180
:1034600052E0A50EB11CC6010E94A332C82E8A8369
:10347000882309F4BFCFC5010E94A332D82E8FEF55
:103480008C0D833068F4580183E0A80EB11CDB82F8
:10349000DD2021F0CE0101960E94EC188501D1CFEC
:1034A0008BEF8C0D833030F5C8010396DB825C0115
:1034B000DD20A1F35801A4E0AA0EB11C0E94A332A2
:1034C0008C83882359F38B819C818130BFEF9B07CC
:1034D00010F0982F8827E6E0CE1631F0F7E0CF16EF
:1034E00031F00E94CB27DACF0E948227D7CF0E94EB
:1034F000E226D4CF24E0C212D1CF580134E0A30E8B
:10350000B11CC80103960E94A332DD2009F472CFDA
:10351000882309F46FCF8150990B989E9001999E52
:10352000300D11244D2D4150550BCA01820F931FB0
:10353000019708F4B3CFAFE9BFE01197F1F700C0EE
:103540000000F6CFCE0101960E94EC185601A6CFDE
:1035500081E00E942F140E94DF134CCF81E00E9473
:10356000EA13F9CF82E0FBCF823009F0C1C4809129
:103570006B0390916C03892B09F4BAC426E12C9D4E
:10358000C0012D9D900D1124815D9B4FDC01509653
:103590001C920E949C13ACC40F3B8CE5180709F4E5
:1035A00054C008F43EC0003CACE51A0709F0B6C4AC
:1035B00090916203892F8695869586958F5F8F718E
:1035C0009770863008F059C0880F880F880F892BB4
:1035D000809362038091620310C085E00E94A4067C
:1035E000809162030E94720D05CF80916203982F33
:1035F000987F79F0885080936203887F91E009F486
:1036000090E08091620390FB80F9809362030E94B6
:10361000720D809162038695869586950E940006BC
:10362000E9CE80916203982F969596959695953060
:1036300040F49F5F990F990F990F8770892B8093A2
:103640006203809162038160E0CF8091620380FF1A
:1036500007C08E7F809362030E94720D80E0DECFF0
:1036600080FDC8CE816080936203813019F489E0C7
:103670008093620380916203CACF90936203AACFC2
:10368000882309F492C48189882309F48EC4C50172
:103690008B5C9B4F0E94571388C4033FFCE51F07B8
:1036A00039F188F4083D3CE51307F1F0093D4CE59C
:1036B000140751F1073D5CE5150709F076C426E2D1
:1036C00041EE61EE0DC0053F8CE51807C9F0A0F092
:1036D00027E245EE66EE063FACE51A0709F065C441
:1036E000C7010E94881886CE24E641EE65EEF8CF29
:1036F00026E241EE60EEF4CF27E245EE64EEF0CF35
:1037000026E241EE62EEECCF28E241E0EFCF013657
:103710003DE5130709F45FC4053A4DE5140709F4C4
:103720005AC40631ACE51A0709F09BC480912B04FA
:103730008A7A91E009F490E09093AE018111F1C092
:1037400089E20E94F50A0E94F11254CE80919204FF
:10375000806207304CE5140709F494C0809192040C
:10376000806108301C4508F48DC08091920480640B
:1037700089C00D308CE5180709F499C098F4809140
:1037800092048E7F0B30ACE51A0709F47BC0809160
:1037900092048C600C301C4508F474C08091920433
:1037A0008D7F70C0809192048F7E0F30ECE51E07F4
:1037B00009F468C080919204877F00311C4508F4A9
:1037C00061C0809192048F7D5DC00D3F2CE5120792
:1037D00009F475C038F505314CE5140709F481C0CA
:1037E00080F403318CE5180709F477C008F46FC042
:1037F0000E94541490919204892F97FB87F9805866
:1038000041C00B3FACE51A0709F447C008F053C0AC
:103810008091930481600A3F1C4509F005C48093A0
:10382000930402C40130FDE51F0709F466C0B8F433
:10383000809193048C7F0F3F3CE5130781F38091C7
:103840009304836001151D4550F380919304982FD4
:10385000909591708E7F892B90FB81F9E0CF013696
:103860005DE5150709F44FC0053A8DE5180709F421
:1038700051C002301D4509F0D7C360E03FC08091C0
:103880009204826080939204CFC3809192048460FA
:10389000F9CF809192048860F5CF80919304826083
:1038A000BECF0E945414809192048068EBCF809127
:1038B00092048B7FE7CF809193048E7FB0CF80916D
:1038C00093048D7FACCF809192048F7BDBCF0E94DD
:1038D0005414809192048F77D5CF80919204837F86
:1038E000D1CF8091920482FB992790F921E0922711
:1038F00090FB82F990FB83F9C5CF61E08EE090E008
:103900000E94B73291C390919204892F8F7E94FFC9
:103910008061B8CF90919204892F8E7F90FF816053
:10392000B1CF85E30ECF85E399C3816080935D03BA
:1039300061E086950E941B115DCD4DE551E166E683
:1039400071E10E94BA0656CD46E651E16DE571E19E
:10395000F8CF40EF50E167EE70E1F3CF4FEC50E16C
:103960006BED70E1EECF4BED50E16FEC70E1E9CF24
:1039700047EB50E163EC70E1E4CF49EF50E16AE0DE
:1039800071E1DFCF4AE051E169EF70E1DACF61E048
:1039900081E0D0CF6AE085E034C464E18BE031C4DB
:1039A0000E9454142FEF34E34CE02150304040404B
:1039B000E1F700C000000E94540C81E072C380E077
:1039C00070C3828100811181882369F0C8010E943F
:1039D000E80ED82E682FC8010E94600BB8018D2D0B
:1039E0000E94CC0E66C3C8010E94330BD82EF6CFBE
:1039F000212F2F70D22E107F19F0D29490EFD92260
:103A0000CC20B9F0DD2069F080E2800F883010F022
:103A1000011109C080912B04D82AD0922B040E9456
:103A2000F112802F46C080912C04D82AD0922C0409
:103A3000F6CF802F0E945F17DD20E9F180E2800F32
:103A4000883010F0011104C08D2D0E94B60A03C009
:103A50008D2D0E94AF0A0E94F1122DC0312F3F70B0
:103A6000D32E107F103219F0D29480EFD822002389
:103A700081F0013009F48BC0CC2009F494C0BB2044
:103A800009F469C0F701858180FFCBCF8F708583F2
:103A900062C08091930482FF39C0CC2089F1DD207F
:103AA00039F080912B04D82AD0922B040E94F11275
:103AB00080E00E94B517292D2850330B24303105A2
:103AC00010F40E94A805AA20B1F080911A0280FD8E
:103AD00012C0D70112961C928595859585950E94F6
:103AE0002F14C7010E94941980911A02859585951B
:103AF00085950E94EA1360E0C7010E944A0F32CC0C
:103B000080E00E945F17DD20B1F29ECFCC2039F11A
:103B1000B11004C080913D028D291EC041E0B41255
:103B200010C082FDC8CF80913D02D82AD81619F264
:103B30000E94700590933C0280933B02D0923D021C
:103B4000BACF55E0B512E6CF0E94A40A80911702C1
:103B5000D812D09217028D2D0E945517ACCFB110FC
:103B600006C00E94A40A8D2D0E944E17A4CF81E0AA
:103B7000B81208C080912B048D2109F49CCF0E94BB
:103B8000C40AEFCF95E0B91609F495CFEACFCC205F
:103B900029F0A5E0AB1508F48ECFDDCFB4E0BB155E
:103BA00008F489CFE0CFBB20F1F2093349F4FFEFED
:103BB00027EE33E0F15020403040E1F700C0000034
:103BC000802F0E945F1777CF812F8695869583700F
:103BD00061F0813009F06FCFC8019370C11002C04D
:103BE00090E080E00E947C0566CFC8019370C11010
:103BF00002C090E080E00E9492055DCF802FCC2033
:103C000029F00E9458080E946C0755CF0E94930724
:103C1000FACF812F837089F5C1104DCF402F429587
:103C200046954770440F440F802F8F70042E01C0BB
:103C3000880F0A94EAF7202F207104FF07C02FE0B5
:103C400030E001C0220F4A95EAF7209516951695A7
:103C50001370123069F050F430913E02113029F0A7
:103C6000822B83230E94501426CF832B822BFACFE2
:103C7000282B80913E028227F5CF8695CC2011F02B
:103C8000812F8170882309F416CF402F42954695E5
:103C90004770440F440F802F8F70042E01C0880F8F
:103CA0000A94EAF7202F207104FF07C02FE030E0CC
:103CB00001C0220F4A95EAF72095169516951370C4
:103CC000123069F050F43091C604113029F0822B83
:103CD00083230E94DB13EFCE832B822BFACF282B7A
:103CE0008091C6048227F5CF1F70CC2029F0812F48
:103CF0000E942F14802F30CF802F0E944E17812FCB
:103D00000E94EA13D8CE023F81F160F4003FB9F07F
:103D1000013F81F0CC2009F46DC0B11082CE812F1B
:103D20008F7127C0033F41F1043FA1F780919304B5
:103D300082FF2DC0812F8F71CC2011F31AC0CC20AF
:103D400079F044E04B1508F4B6CE1F7181E090E0A5
:103D500001C0880F1A95EAF79091C6048927B9CF58
:103D600055E05B1508F4A7CEF0CF812F8F71C110FD
:103D7000C7CF0E942F149FCE80E0CC2009F4A9CF9A
:103D80001F7181E001C0880F1A95EAF7A2CF8091D8
:103D90001702CC20D9F00E94B60A80911A028770CF
:103DA000843041F40E94BD0A812F8F710E94EA1372
:103DB000A12C81CE84E08B15D8F31F71812F0E9436
:103DC0002F1463E0812F0E943A14F2CF90912B04BC
:103DD000982B90932B0494E09B1540F40E94BD0A0D
:103DE0000E94C40A64E0812F8F71EDCF81E00E94B0
:103DF000F613DECFBB2059F0093309F0E1CEAFEF67
:103E0000B7EEE3E0A150B040E040E1F7D7CE812F1C
:103E10008F7176CF0031BFE51B0709F499CB0131D3
:103E2000EFE51E0709F064C082E093CB61E0C701B3
:103E30000E944A0F8C01D70112968C918823B1F011
:103E400080910C0190910D01019681F06FE2C62ED8
:103E500064E0D62EB12CA12C9924939480910C016E
:103E600090910D018A159B050CF08CCAF701828197
:103E70008111AFCA0031FFE51F0709F46FCB013193
:103E80002FE5120709F46ECB6801E7E5DE1AFFEFB4
:103E9000CF16D10409F060F567E673E08C2D0E941F
:103EA000330E892B29F586E18C9DF0018D9DF00D57
:103EB0001124E15DFB4F8681813009F055CB809163
:103EC000670390916803892B99F080916903909121
:103ED0006A03892B69F080916B0390916C032091A8
:103EE0006D0330916E03822B932B892B09F446CB03
:103EF000F7012281222391F00D3BFCE51F0709F415
:103F000074CB08F049CB0B3B4CE5140709F465CBA7
:103F100080E00C3B5CE5150709F460CBC8019755C0
:103F20008F3F910511F008F0B8CB40910C015091F2
:103F30000D014817590724F490930D0180930C014B
:103F400036E1389F5001399FB00C1124F501E15D35
:103F5000FB4F6F01208BD70112969C91868199238C
:103F600009F48ECB128701878F5F86830E947005CC
:103F7000F6019687858780913D02878380912C0486
:103F800090912B04892B80870190F081E02D309750
:103F900041F0D60154966D917C91C5018B5C9B4F8D
:103FA000099510932E0400932D04F7018281882334
:103FB00009F44AC01092C9040330FDE51F0708F058
:103FC000A6CB0A3F2CE5120730F4C80182509C456D
:103FD000449708F0A6CB0E94A30F9093930480937C
:103FE000920401315CE5150709F46DCC08F0EDCBC6
:103FF00009309CE5190709F454CC08F0BACB053018
:10400000BCE51B0709F445CC08F0A0CB0330FCE568
:104010001F0709F434CC08F038CC809192048160F9
:1040200002301C4509F42ECC609192041091930447
:1040300084E090E00E94B732612F82E290E00E941B
:10404000B7320E945414D6C90631BCE51B0709F0EB
:1040500064C08091AE01811166CC89E20E94CA0AD7
:1040600072CB0A35EDE51E0709F4A7CC58F401150B
:104070002CE5120709F494CC0E3D1C45A1F40E94D6
:104080008E11B8C90B354DE5140709F498CC0C35E1
:104090001D4549F48091930482FB882780F991E0C3
:1040A00089270E941214F70186819781009709F4ED
:1040B00088CC0E941C098C01F701C280B580B294A3
:1040C0003FE0B32280911A028770C1F0AC2CCC2063
:1040D000B1F0812F807F803421F080E2800F883022
:1040E00068F08091930482FD09C082E00E94F6137B
:1040F00080911A028770AA24A3948111A12C912E79
:1041000092942FE09222FBE0F91508F4D4CCE92D2B
:10411000F0E0E150FD4C0C94423280912B0482720D
:104120000B3C9CE5190709F428CC08F052C0063C6A
:10413000BCE51B0709F40DCCB8F5033CFCE51F07F3
:1041400009F4FBCB18F5023C1C4509F0ACCF80917B
:104150005D0380FFEACB8E7F80935D0360915D03FA
:1041600070915E0380915F03909160030E940A103A
:1041700010927B02BFEFE0E7F2E0B150E040F04088
:10418000E1F700C000000E94780C34C9043C4CE503
:10419000140709F4D9CB053C1C4509F084CF47EE40
:1041A00050E160EF70E1CDCB083C9CE5190709F4C4
:1041B000DACB08F4D3CB093CBCE51B0709F4D8CB18
:1041C00043EC50E167EB70E10A3C1C4509F4B9CBC4
:1041D0006ACF003DFCE51F0709F4DCCBA8F40D3CD9
:1041E0003CE5130709F4D3CB08F4CCCB0E3C5CE5DB
:1041F000150709F4FFC80F3C1C4509F054CF64E0D3
:1042000082E00E947011F6C8043D9CE5190709F48C
:10421000C4CB08F4EFC8053DBCE51B0709F4EAC8A8
:104220000D351D4509F4E6C83ECFCF93DF9380914D
:10423000D201807FA1F48091CF01882381F0809109
:104240001602D091D5016091CD017091CE01A0915F
:10425000D001B091D101C62FC723D81303C0DF917D
:10426000CF91089590E0109711F0CF3F19F4019687
:104270008770F3CF9C0143E0220F331F4A95E1F78B
:10428000F901EA52FE4F41814713F1CF40814613B5
:10429000EECF42814111EBCF438154814A1B5B0B2E
:1042A000483C510520F78091D2018F708061809346
:1042B000D201F901E552FE4F80818F7080618083C9
:1042C0008DEC91E00E949419DF91CF910C94290B11
:1042D000AF92BF92CF92DF92EF92FF920F931F9314
:1042E000CF93DF93CDB7DEB765970FB6F894DEBFF7
:1042F0000FBECDBF8C0185E0F801DE015196019023
:104300000D928A95E1F7F801E2806DECA62E61E04E
:10431000B62E6091D0017091D1016115710509F43B
:1043200068C19091CD014091CE01892F84238F3FA8
:1043300009F45FC120813181C380D480F090CF0126
:10434000F601E61BF70BFF2009F41DC18091D20195
:10435000582F507FE83CF10508F0D0C0511181C0C2
:10436000FE2C43132BC0921329C06091D30170918E
:10437000D401F8014681578164177507F9F4E110FB
:104380001DC08F7080618093D201C5010E94941975
:104390008091D201F80185838F2D65960FB6F89430
:1043A000DEBF0FBECDBFDF91CF911F910F91FF9068
:1043B000EF90DF90CF90BF90AF900895CD2829F077
:1043C000822F83238F3F09F02FC180E0F82FF170F7
:1043D000DF2E80FF3CC0809116024091D5018413EE
:1043E00015C0298B3A8B89899A890E94170F292F2A
:1043F00022952F702230F8F0243020F59F70F9F0CC
:10440000F8019581907FD9F4D12C1FC090E0FC0178
:1044100053E0EE0FFF1F5A95E1F7EA52FE4F51812C
:10442000351306C05081251303C05281E5120FC019
:1044300001968770D4CF9F7011F0882329F3805E96
:10444000883010F3C8010E949419FD2CA5CFEE20EE
:1044500009F4A2CF8091D20181608093D201F12C26
:104460009BCF43131BC0921319C04091D3015091AD
:10447000D401F801268137814217530779F4E110FE
:104480000DC08583C8010E94941988E0F801ADEC45
:10449000B1E001900D928A95E1F77ECFC8010E94AC
:1044A000230F882339F1EE2029F18091D201803247
:1044B000A0F02091CD013091CE013A8729871B864B
:1044C000DD86CC868E878091D3019091D401988B24
:1044D0008F87CE0109960E94941988E0F801ADEC0F
:1044E000B1E001900D928A95E1F70E941521FF2419
:1044F000F39452CFC8010E949419F9CF51110AC008
:104500008DEC91E00E94941988E0F50111928A9552
:10451000E9F7A5CF431318C0921316C04091D301F9
:104520005091D401F801268137814217530761F475
:10453000E1100AC08583C8010E94941988E0F50142
:1045400011928A95E9F728CFC8010E94230F88238A
:1045500089F2EE2079F28091D201803208F4BDCF49
:104560002091CD013091CE013A8329831B82DD82D7
:10457000CC828E838091D3019091D40198878F83D0
:10458000CE010196A8CFE83CF105C0F6FE2CEE2046
:1045900009F4B0CF43131FC092131DC02091D30163
:1045A0003091D401F801868197812817390799F451
:1045B0009091D20190FD69CF907F09F466CF8091F0
:1045C000D2018583903F09F45DCF982F907F905F53
:1045D0008F70892B56CFC8010E94230F81117DCF88
:1045E0008091D20181608093D201C8010E94941908
:1045F000D3CEEE2009F47ECFC8010E94230FF82EFF
:10460000882309F477CF88E0F801ADECB1E00190A0
:104610000D928A95E1F78091CD019091CE010E9493
:10462000170F0E941521B8CE81E08E25CFCECF93F3
:10463000DF93CDB7DEB760970FB6F894DEBF0FBE3D
:10464000CDBF29873A874B875C876D877E878F87A9
:10465000988BCE0109960E946821811112C088E0D2
:10466000FE013996DE01119601900D928A95E1F7CF
:104670008C859D85892B29F089859A8589238F3F93
:10468000A9F5809116029091D50189131CC06096FE
:104690000FB6F894DEBF0FBECDBFDF91CF91089566
:1046A00093E0AA0FBB1F9A95E1F7AA52BE4F98E07C
:1046B000FE01319601900D929A95E1F78093D50114
:1046C0000E94290BDECFB8E08B9FC00111248A52D3
:1046D0009E4F0E9468218823D1F28091160290E0BB
:1046E00001968770992780931602CBCFA091D501B0
:1046F000B0E0CD0101968770992720911602281706
:10470000190671F60E9454141092D50110921602E7
:1047100088E0EDECF1E0DF011D928A95E9F7B1CF79
:104720000F931F93CF93DF938091A203E091A10396
:10473000CCE081111AC0DF91CF911F910F910895A4
:10474000D1E0DE0FD093A1030E2F10E0EC9FF0011B
:104750001124ED55FC4F83819481892B29F08081B0
:10476000918189238F3F51F4ED2F8091A203E817A7
:1047700038F31092A2031092A103DDCFC09FD001A5
:10478000C19FB00D1124AD55BC4F16968D919C91D3
:104790001797892B29F418968D919C91019651F4C5
:1047A0002081318142815381648175818681978125
:1047B0000E941723C09FF001C19FF00D1124ED55F9
:1047C000FC4F1482138210922C04CECF10922A0434
:1047D00010922904109219018091280480932704D3
:1047E0000E94E2050C9490233F924F925F926F9249
:1047F0007F928F929F92AF92BF92CF92DF92EF9271
:10480000FF920F931F93CF93DF93C091270497E0FC
:10481000892E01E010E02CE0322E3EEF932E44244E
:104820004394809128048C1315C00E949023DF913B
:10483000CF911F910F91FF90EF90DF90CF90BF909D
:10484000AF909F908F907F906F905F904F903F9030
:104850000C94E205D0E0FE01EE0FFF1FE15EFB4F7E
:1048600080819181889ED001899EB00D1124AD5F19
:10487000BB4F14962C911497211157C05090A2034E
:10488000E3EAF3E030E020E0712C5D01251508F04B
:104890004AC0E284F384D501CD90DC906FEF7FEFC6
:1048A000612C462D50E0DA01AA0FBB1FAC0DBD1DD7
:1048B0000D90BC91A02D109731F0EA16FB0609F47B
:1048C000BA016394EECF6F3F7607A1F1D80102C021
:1048D000AA0FBB1F6A95E2F77A2AB80102C0660FD9
:1048E000771F6A94E2F7AB0141505109741615061F
:1048F000F9F4329EF001339EF00D1124ED55FC4F7A
:10490000889ED001899EB00D1124AD5FBB4F1296D9
:104910002D913C91139737832683908291829187C2
:10492000808715964C920E94B4052196C37079CF6A
:10493000148213822F5F3F4F3C96A8CF2F923F9255
:104940004F925F926F927F928F929F92AF92BF929F
:10495000CF92DF92EF92FF920F931F93CF93DF934B
:10496000CDB7DEB769970FB6F894DEBF0FBECDBFE7
:10497000498B5A8B6B8B7C8B8D8B611110922C0425
:104980001D861E861F86188A85E0FE017196DE014F
:10499000199601900D928A95E1F78091930482FD1A
:1049A0001CC00E9470052091180230911902821BD0
:1049B000930B8838934120F080911A0282FFFEC148
:1049C0000E94700520913B0230913C02821B930BA8
:1049D0008838934110F00E94A40A8C859D85892B0C
:1049E00031F089859A8589238F3F09F0D3C12985C4
:1049F0003A854B855C856D857E858F8598890E947B
:104A00001723C2C048EFC4164CE5D40629F4882306
:104A100079F00E94E623EBCF69EFC6166CE5D60667
:104A200039F4882329F0809119018111F2CFC2C194
:104A300003E014E0E12CB12CA12C88248394912C68
:104A40002EEF522E44244394F80140815181662474
:104A50006A94762C20E0822F90E0FC01EE0FFF1F7D
:104A6000E40FF51F608171816115710531F0C61683
:104A7000D70609F43C012F5FEECFF12CFFEF6F1644
:104A80007F0609F443C0F8014481F09019018F2D8D
:104A9000411180E0F82FF170FF2EF801258086810A
:104AA0009B85992309F406C1FF2009F403C1211055
:104AB00013C0A40101C0440F6A94EAF7842B8683D3
:104AC00080919F039091A003C29730F462E370E05D
:104AD0007093A00360939F03C40102C0880F991FC5
:104AE0002A95E2F70197F80126812817190671F433
:104AF0008091290490912A04009709F45EC00E94D5
:104B00006105C39708F459C0F8014482EF28FFEF0C
:104B1000AF1ABF0A095F1F4F24E0A216B10409F0C3
:104B200093CF8B85882309F420C1EE2009F41DC1A1
:104B30000E94700590932A04809329048091A20317
:104B4000883010F591E0980F9093A20398E0FE0151
:104B50003996DE01119601900D929A95E1F73CE0AD
:104B6000839FC00111248D559C4F28E0FE01319692
:104B7000DC0101900D922A95E1F72FEF3FEFFC0148
:104B800031872087D386C28669960FB6F894DEBF38
:104B90000FBECDBFDF91CF911F910F91FF90EF908E
:104BA000DF90CF90BF90AF909F908F907F906F904D
:104BB0005F904F903F902F900895809127045091DF
:104BC0002804982FF0E0E0E0851314C090932704A8
:104BD0000E171F0709F49ACF90E0FC01EE0FFF1F9C
:104BE000E15EFB4FB182A08201968370992780938A
:104BF00028048CCF282E312CF101EE0FFF1FE15E2F
:104C0000FB4F20813181F7E0F29FD001F39FB00D7F
:104C10001124AD5FBB4F2D913C911197398F288F97
:104C200040E020E030E0E32FF0E0EE0FFF1F688D62
:104C3000798DE60FF71F6080718061147104E1F0D7
:104C4000F8010190F081E02DFF8BEE8B20E005C094
:104C50006616770609F44F2D2F5FE22FF0E0EE0F76
:104C6000FF1F6E897F89E60FF71F608171816115D3
:104C7000710571F73F5FD7CF4423C9F0F8012317BF
:104C800008F0FD0144820E171F0721F490932704BA
:104C9000F42E3CCF981305C0AE17BF0711F49F5FE9
:104CA000937091012F5F3F4F822F83708DCFF0E083
:104CB000E0E0F7CF90E021101FC0B40102C0660F02
:104CC000771F2A95E2F79B0121503109821793073C
:104CD00031F4442309F447C0C5010E94B405C4015E
:104CE00001C0880F6A94EAF7982F9095F8018681A1
:104CF00089238683F22C0ACF9C01062C02C03595AD
:104D000027950A94E2F7A90141705527BC0161502B
:104D1000710986239723892B11F5452B01F1F801A1
:104D200082819381892BC1F01B821C821D821E828D
:104D300059825A820E9470058160582F9D838C830E
:104D4000F801828193818F83988729813A814B81F1
:104D50006D817E810E941723F8011582C0CFF22F4A
:104D6000F1702F2EBCCF2F2CBACF909127048091B9
:104D70002804981731F00E94F423EE2009F437CE6E
:104D800003CF0E94902310922A04109229040E94BB
:104D9000E205F3CF61E0CE0109960E944A0F6C0153
:104DA0008B85F7EFCF16FCE5DF0609F02BCE8823C5
:104DB00009F43ECE81E08093190119CE82E00E9471
:104DC000F613FECD0F931F93CF93DF9300D000D047
:104DD0000F92CDB7DEB78C0190939C0380939B0319
:104DE000011580E2180720F5802F0E945F17C80187
:104DF0000E94900B9801205E31092830310510F097
:104E0000012B59F40F900F900F900F900F90DF919E
:104E1000CF911F910F910C944E170F900F900F9000
:104E20000F900F90DF91CF911F910F910C943D1730
:104E30008EEF89838A831B820E9470058160782FA0
:104E40009D838C8349815A816B818D810F900F9056
:104E50000F900F900F90DF91CF911F910F910C94B5
:104E60009E240F931F93CF93DF938C01EB0167E692
:104E700073E08C2F0E94330E892B71F4DD27CD59FE
:104E8000DC4F8881F80110821882833009F148F4E0
:104E9000813059F0823081F0DF91CF911F910F91D5
:104EA00008958430D1F08530B9F7809167039091EF
:104EB0006803009789F306C08091690390916A03A3
:104EC000009799F3DF91CF911F910F910C94E226F7
:104ED00080916B0390916C03F3CF80916D0390915F
:104EE0006E03009779F720916703309168038091F2
:104EF000690390916A0321153105D9F2009711F7E2
:104F0000C901E0CF0F931F93CF93DF9300D000D060
:104F10000F92CDB7DEB78C0190939C0380939B03D7
:104F2000011580E21807E8F4C8010E94900B98016F
:104F3000205E31092830310518F00115110571F492
:104F40000E945517802F0F900F900F900F900F9089
:104F5000DF91CF911F910F910C94B5170E944417C8
:104F6000F1CF8EEF89838A8381E08B830E94700565
:104F70008160782F9D838C8349815A816B818D81DB
:104F80000F900F900F900F900F90DF91CF911F9186
:104F90000F910C949E24CF93DF93EC010E94822703
:104FA000CE01DF91CF910C94E2260F931F93CF9304
:104FB000DF938C01862F67E673E00E94330E892B06
:104FC000C9F4C0916703D0916803209799F0F80164
:104FD0008081833069F4CE010E94CB27CE010E94EC
:104FE000CB27CE01DF91CF911F910F910C94CB274E
:104FF0008430B8F7DF91CF911F910F9108950F93EF
:105000001F93CF93DF938C01EB0167E673E08C2F46
:105010000E94330E892B09F064C0FE01FF27D801DE
:105020008C91ED59FC4F8130D9F419969C911997C8
:10503000992311F080830CC01A969C919923D1F387
:1050400082E080838091690390916A030097D9F48C
:105050008091670390916803009709F442C013C0E0
:105060008230E9F519968C91199781112DC01A9605
:105070008C9181110EC083E0808380916B039091AD
:105080006C03009719F1DF91CF911F910F910C9450
:10509000822784E0808380916D0390916E03009756
:1050A00091F780916703909168030097F9F00E944F
:1050B000CB278091690390916A03009721F7809133
:1050C000670390916803DFCF85E080838091670359
:1050D00090916803009729F00E94CB27F0CF86E0DB
:1050E0008083DF91CF911F910F9108958091690383
:1050F00090916A03B1CF90E080E00E94B132893E86
:105100009E4F11F40C948A0F80E008950E947B2832
:1051100081110AC00E948E1180916203847089629D
:10512000809362030E94720D86E090E00E94A33299
:1051300080936203803320F08770886280936203DB
:1051400090916203892F817090FF04C0892F86950A
:10515000869586950C9400061F920F920FB60F92BB
:1051600011242F933F934F935F936F937F938F936C
:105170009F93AF93BF93CF93DF93EF93FF93D09120
:10518000E900DF708091EC00C82FC17080FDC0E89D
:105190001092E9008091F000877F8093F00078946E
:1051A0000E9469141092E9008091F0008860809359
:1051B000F000CD2BCF70C093E900FF91EF91DF910C
:1051C000CF91BF91AF919F918F917F916F915F919F
:1051D0004F913F912F910F900FBE0F901F901895F8
:1051E0001F920F920FB60F9211242F933F934F935C
:1051F0005F936F937F938F939F93AF93BF93EF933F
:10520000FF938091E10082FF09C08091E20082FF5C
:1052100005C08091E1008B7F8093E1008091DA00EE
:1052200080FF24C08091D80080FF20C08091DA00E8
:105230008E7F8093DA008091D90080FF9DC080E14D
:1052400089BD82E189BD09B400FEFDCF81E0809374
:10525000C50480919704811109C00E94AB030E948C
:105260009E048091E20084608093E2008091E100DE
:1052700080FF17C08091E20080FF13C08091E200A0
:105280008E7F8093E2008091E20080618093E20053
:105290008091D80080628093D80019BC85E080930B
:1052A000C5048091E10084FF2BC08091E20084FF5F
:1052B00027C080E189BD82E189BD89B5982F9170B1
:1052C00080FFFBCF8091D8008F7D8093D8008091A4
:1052D000E1008F7E8093E1008091E2008F7E8093D9
:1052E000E2008091E20081608093E2008091BC0442
:1052F000882309F447C084E08093C5048091C504E5
:105300008091E10083FF27C08091E20083FF23C0EA
:105310008091E100877F8093E10082E08093C50463
:105320001092BC048091E1008E7F8093E100809117
:10533000E2008E7F8093E2008091E20080618093A2
:10534000E20042E060E080E00E946C048091F000A6
:1053500088608093F000FF91EF91BF91AF919F9192
:105360008F917F916F915F914F913F912F910F900E
:105370000FBE0F901F90189519BC1092C504109283
:10538000970474CF8091E30087FD93E09093C50468
:10539000B5CF78941F921FB61F9211248F939F93BD
:1053A000AF93BF9380918E0490918F04A09190044D
:1053B000B09191040196A11DB11D80938E0490932C
:1053C0008F04A0939004B0939104BF91AF919F91EB
:1053D0008F911F901FBE1F9018951F921FB61F928E
:1053E00011248F939F93AF93BF9380918D0481116C
:1053F00013C080918E0490918F04A0919004B0917D
:1054000091044196A11DB11D80938E0490938F0449
:10541000A0939004B0939104BF91AF919F918F910D
:105420001F901FBE1F901895CDB7DEB7E4970FB63B
:10543000F894DEBF0FBECDBF84B7877F84BF0FB6A1
:10544000F894A89580916000886180936000109224
:1054500060000FBE80E890E00FB6F8948093610082
:10546000909361000FBE85B7806885BF85B780685F
:1054700085BF80EC98E090938D0180938C010E9411
:10548000470E0E94B10F0E94AB030E949E048091C0
:10549000E20084608093E20078948091C5048823C0
:1054A000A1F01091E9001F709091EC00892F81709C
:1054B00090FD80E8182B1092E9008091E80083FDB0
:1054C0000E9469141F701093E90082E084BD93E08C
:1054D00095BD9AEF97BD80936E000E948A0F81114F
:1054E00002C00E94240E04E511E0D8018D918D01C7
:1054F0008F3F11F00E94C208B1E003361B07A9F7E5
:1055000003E611E088E6E82E81E0F82EF8018191AB
:105510008F018F3F11F00E94C208E016F106B1F72B
:105520008AE0EDE5F2E0DF01282F1D922A95E9F7E8
:10553000E2E4F2E0DF011D928A95E9F70E947B2800
:10554000811102C00E948E1182E090E00E94A3327D
:1055500080934D020E94A30F909393048093920432
:105560000E94F811EFE3FCE93197F1F700C0000069
:105570000E94F81180915D0280FF08C06FEF7FEFFD
:1055800090E080E00E94D5320E94540C83E090E0CD
:105590000E94A3320E945014279A2F988AE0809389
:1055A000800089E1809381008FEF9FEF90938700C7
:1055B000809386000E9486280E94862880914C0253
:1055C000811133C00E947B28811104C00E948E117A
:1055D0000E947E1188E090E00E94AB3260935D03F0
:1055E00070935E0380935F03909360036E7F71F40A
:1055F0000E947E1188E090E00E94AB3260935D03D0
:1056000070935E0380935F03909360030E94C006D3
:1056100010927B0280915D0380FF04C060E086955C
:105620000E941B1181E080934C0280E091E09093F6
:105630008A04809389048091C50400E112E18530D9
:1056400009F407C20E94F811882359F08FB7F89423
:1056500040918E0450918F04609190047091910458
:105660008FBFBDE56B2EB2E07B2E1EE4C12E12E093
:10567000D12E512C412CD301AD90BD903D01F601AE
:10568000E190F1906F01EA14FB04B1F1312C01E0DB
:1056900010E0EA24FB244F01F2E08F1A9108C701C1
:1056A00080239123892B11F13BA64CA621E0C50153
:1056B00080239123892B09F420E02DA70E947005F7
:1056C0008160782F9FA78EA74BA55CA56DA58FA5A0
:1056D0000E949E24D4018D919C911197802791273F
:1056E0008D939C935394BBE0B515E0F03394000F79
:1056F000111FEFE03E12D3CF4394F5E04F12BBCF22
:10570000511010C08FEF88AB89AB1AAA0E947005A8
:105710008160782F9CAB8BAB48A959A96AA98CA949
:105720000E949E2480910C0190910D0110E006E1F1
:10573000019609F0C8C1809119018111CEC18091F3
:105740007B028823D1F180917A02E0915D03E69596
:10575000E81BE0937602823009F0EAC1F0E0E358FA
:10576000FD4FE4910E2F10E0EAEEEE2EECE0FE2E5F
:1057700080917702882361F0109277020E94700571
:1057800090937502809374021092790210927802BD
:105790000E947005E0917402F09175028E1B9F0BC0
:1057A0008F3F9F4750F40E0F1F1F109375020093F9
:1057B000740284E792E0F701099586E0EEE6F2E0F4
:1057C0008E010F5F1F4FD80101900D928A95E1F76E
:1057D000D0907002C0907102F0907202E09073025B
:1057E0001092700210927102109272021092730263
:1057F0008D2D8C2909F448C080916C0290916D0226
:105800000E9461059C0190916802992309F4DBC50F
:1058100025313105C8F19F3F19F09F5F90936802D1
:10582000DD2059F00E9438089FEF1D140CF491E020
:10583000899F802D112480937002CC2059F00E9402
:1058400038089FEF1C140CF491E0899F802D1124DF
:1058500080937102309170023323B1F02091710274
:10586000222391F045EB3403C0011124992309F45C
:1058700074C19093700245EB2403900111243323EB
:1058800009F46FC1309371028F2D8E2909F448C03D
:1058900080916A0290916B020E9461059C01909137
:1058A0006702992309F48AC521353105C8F19F3F64
:1058B00019F09F5F90936702FF2059F00E9416082D
:1058C0009FEF1F140CF491E0899F802D1124809389
:1058D0007202EE2059F00E9416089FEF1E140CF47D
:1058E00091E0899F802D1124809373023091720280
:1058F0003323B1F020917302222391F045EB34035E
:10590000C0011124992309F430C19093720245EB30
:10591000240390011124332309F42BC13093730223
:105920008091700290917102892B90917202892B63
:1059300090917302892B11F00E946C0786E0F801A8
:10594000AEE6B2E001900D928A95E1F70E94A805BB
:10595000909158028913809358028091C504843035
:1059600009F069CE83E08093E9008091E80082FF2E
:1059700062CE8091E80090E085FF0AC00E94CA03D1
:1059800050E2C52ED12C7801882309F400C191E0A2
:105990008091E8008B778093E800992309F44BCE3F
:1059A000E0909D03F0909E038981E114F10409F4D5
:1059B000FCC08E3F09F099C18A81833020F0855068
:1059C000833008F092C1EA81EE3008F08EC1F0E039
:1059D000E55FFC4C0C9442328091C504843039F16F
:1059E00080E00E94000610928D0428E130E040E43F
:1059F0000FB6F894A895209360000FBE4093600006
:105A000083B7817F846083BF83B7816083BF7894CD
:105A1000889583B78E7F83BF0FB6F894A895809141
:105A20006000886180936000109260000FBE8091DA
:105A3000BB04882371F00E94F811EDE5F2E081913A
:105A40009191892B09F09CC487E692E08E179F07FD
:105A5000B1F78091C504853009F4BECF0E9454147B
:105A60000E9486280E94A805EDCD089FF001099F9D
:105A7000F00D1124E15DFB4FE288F388E114F1049D
:105A800019F4F8ECEF2EF12C089FF001099FF00DAE
:105A90001124E15DFB4F86818823A1F085859685E1
:105AA0000E946105E816F90668F4109F7001112440
:105AB000C701815D9B4F0E949C13C7018B5C9B4F6C
:105AC0000E9457131F5F812F90E020910C013091AD
:105AD0000D01281739074CF62ECE8091290490919C
