:100000000C94F7030C942F040C942F040C942F04DD
:100010000C942F040C942F040C942F040C942F0494
:100020000C942F040C942F040C945F2B0C941B2B1A
:100030000C945C2C0C942F040C942F040C942F041F
:100040000C942F040C942F040C942F040C942F0464
:100050000C942F040C94382C0C942F040C942F0423
:100060000C942F040C942F040C942F040C942F0444
:100070000C942F040C942F040C942F040C942F0434
:100080000C942F040C942F040C942F040C942F0424
:100090000C942F040C942F040C942F040C942F0414
:1000A0000C942F040C942F040C942F0405010902C6
:1000B000A10185020901A100050919012905150001
:1000C00025019505750181029501750381010501E1
:1000D000093009311581257F950275088106093897
:1000E0001581257F950175088106050C0A380215D2
:1000F00081257F950175088106C0C005010980A191
:1001000001850319012AB700150126B7009501756D
:10011000108100C0050C0901A101850419012AA064
:1001200002150126A002950175108100C005010984
:1001300006A1018506050719E029E71500250195A7
:1001400008750181020507190029EF1500250195A1
:10015000F0750181020508190129059505750191C0
:1001600002950175039101C00660FF0961A10109B3
:1001700062150026FF0095207508810209631500AD
:1001800026FF00952075089102C005010906A1010E
:10019000050719E029E71500250195087501810279
:1001A0009501750881010507190029FF150026FF33
:1001B0000095067508810005081901290595057542
:1001C000019102950175039101C00000000000003B
:1001D000000000000000000000000000000000001F
:1001E00000000000000000000000000000007E0F82
:1001F00000D4FFFFFFC700000078000000000000EF
:1002000000002A2B28000000000000000000000071
:10021000000000000029000000002C1E34202122D4
:1002200024342627252E362D3738271E1F2021223D
:10023000232425263333362E37381F0405060708B6
:10024000090A0B0C0D0E0F101112131415161718A6
:10025000191A1B1C1D2F3130232D350405060708E4
:10026000090A0B0C0D0E0F10111213141516171886
:10027000191A1B1C1D2F3130354C00047F3F1F64A1
:100280003214643214783C1E1E140A05FD377A5865
:100290005A000004E6D6B446020021011600000010
:1002A000742FE5A3E002D5013D5D003D8889C65469
:1002B00036C3174FE4E3D305C75A3CEA4085414CA7
:1002C000F5125C622F38BBE0B85DBFCAABC464DC1A
:1002D000E3D631C603B4358114546DE29F6E63B426
:1002E00044050516ECF9DAF09B9C585004DA9FDDC2
:1002F00059F82381D05708274B840834190E222639
:10030000095E7ABAABB6DEE045DC3CD4759590CC9C
:1003100023F701EC4DFE8D385F52F821B1A81C8BFC
:100320004769FF09BA406B33E5585217F97DCFD8BA
:100330000AAA2E21304B0E86240A35C82B07BB5A39
:100340005DBE125ED7725906755A20B9DE2CDEE406
:100350002042B8C0A0C93E798391709E4BE857B047
:1003600015030A268936DC8BEC8CA6CD21E792B8E2
:10037000BA3C9AD20C1F21D346008803FDC907332B
:10038000E8ABC975EC3F3058A84EC6580E422CD881
:10039000ED65C1992B68CE8D83B782EC599373D3E9
:1003A000B44DB95CC4487861CD9EA376351A75F911
:1003B00059725BB3E70D39C71EBBDF33BE1F71B087
:1003C00051C0BFA42F54C0B350054A1AD22E5CB9F5
:1003D000911DE117637F1026E848FBA31155DE4FFE
:1003E000DFF2F0F5249398F2000000006CF275D96A
:1003F0001A28F7A80001D902D6050000F4EE5089AA
:10040000B1C467FB020000000004595A0001010159
:1004100001010101010102020202020202020203C1
:100420000303030303030304040404040404050591
:100430000505050606060606070707070708080854
:1004400008090909090A0A0A0B0B0B0C0C0C0D0D03
:100450000D0E0E0E0F0F0F1010111111121213139B
:100460001414151516161717181819191A1A1B1B14
:100470001C1D1D1E1E1F2020212222232424252670
:1004800026272829292A2B2C2D2D2E2F30313232A8
:10049000333435363738393A3B3C3D3E3F404142B4
:1004A000434445464748494A4C4D4E4F505153549A
:1004B000555658595A5B5D5E5F616264656668694E
:1004C0006B6C6D6F7072737577787A7B7D7E8082CE
:1004D000838587888A8C8E8F91939596989A9C9E17
:1004E000A0A2A3A5A7A9ABADAFB1B3B5B7BABCBE27
:1004F000C0C2C4C6C9CBCDCFD1D4D6D8DBDDDFE2F4
:10050000E4E7E9EBEEF0F3F5F8FAFDFFFFAA7F551B
:10051000402223252628292A2C2D2F303233353608
:10052000383A3B3D3E4042434547494A4C4E505184
:10053000535557595A5C5E6062646668696B6D6FAB
:1005400071737577797B7D7F81838587898A8C8EAE
:1005500090929496989A9C9E9FA1A3A5A7A8AAACB6
:10056000AEAFB1B3B4B6B8B9BBBCBEBFC1C2C3C5F0
:10057000C6C7C9CACBCCCDCED0D1D2D2D3D4D5D692
:10058000D7D7D8D9D9DADADBDBDBDCDCDCDCDCDDC5
:10059000DDDDDDDCDCDCDCDCDBDBDBDADAD9D9D8A9
:1005A000D7D7D6D5D4D3D2D2D1D0CECDCCCBCAC941
:1005B000C7C6C5C3C2C1BFBEBCBBB9B8B6B4B3B170
:1005C000AFAEACAAA8A7A5A3A19F9E9C9A9896940B
:1005D00092908E8C8A89878583817F7D7B797775E0
:1005E00073716F6D6B6968666462605E5C5A5957BF
:1005F000555351504E4C4A4947454342403E3D3B7E
:100600003A3836353332302F2D2C2A292826252307
:100610002229001E001F00200021002200230024A8
:10062000002500260027002D002E0035002A002B73
:100630000014001A000800150017001C0018000C18
:1006400000120013002F00300031000000E0000411
:10065000001600070009000A000B000D000E000F35
:100660000033003400000028000000E10000001DFD
:10067000001B0006001900050011001000360037AD
:100680000038000000E5000151E000E300E2000056
:10069000000000000000002C0000000000E6000048
:1006A000006500E4000000A5003A003B003C003D6E
:1006B000003E003F0040004100420043004400452E
:1006C0000049004C00390001000100010001000157
:1006D00000010001004600470048005200010001EF
:1006E0000000000100AA00A900A8000100010055B7
:1006F0000054004A004B0050004F0000005800001A
:10070000000100000001000100010001000100578C
:100710000056004D004E0051000000010001000194
:1007200000010001000000000000000000010000C6
:100730000000000100000001000100000009025B50
:1007400000030100A0FA09040000010301010009EF
:100750002111010001224000070581030800010961
:1007600004010002030000000921110100012222FE
:10077000000705820320000107050303200001098B
:10078000040200010300000009211101000122BC44
:100790000007058403200001120100020000000888
:1007A000D44521000100010203011C037600690009
:1007B00061006C003A0066003600340063003200CD
:1007C000620033006300000012036F006D006E00D2
:1007D0006900680068006B00620000000C035300B1
:1007E00061006C007600610000000403090411241C
:1007F0001FBECFEFDAE0DEBFCDBF04B603FE18C0E8
:100800008091E1049091E204A091E304B091E404AA
:100810008730904BA740B04B59F41092E1041092EE
:10082000E2041092E3041092E404E0E0F8E3099596
:1008300011E0A0E0B1E0E2E0FCE602C005900D921C
:10084000A03AB107D9F724E0A0EAB1E001C01D92B7
:10085000A13EB207E1F70E94832C0C94DB350C9487
:100860000000E8EDF0E080818E7F80831092E2004E
:100870001092DA001092E100A0EEB0E08C9181605D
:100880008C9380818F77808319BCA7EDB0E08C9129
:100890008E7F8C9380818F7E80831092AE0408952A
:1008A0002091E4003091E50095E6A9012091EC004B
:1008B000822F817020FF06C08091E80080FF06C073
:1008C00080E008952091E80022FD1AC08091DC04A8
:1008D000882389F0853089F08091EB0085FD0FC079
:1008E0002091E4003091E50042175307F9F291504E
:1008F000E1F684E0089582E0089583E0089581E0C0
:100900000895EF92FF920F931F93CF937C018B0179
:100910000E945004C82F811117C08091E80085FD06
:100920000BC08091E8008E778093E8000E9450040D
:10093000882399F3C82F08C0F70181917F01809324
:10094000F1000150110949F78C2FCF911F910F91A0
:10095000FF90EF900895CF93FC018091DC048430E8
:1009600001F5C091E900CF702091EC00922F9170B9
:1009700020FD90E8C92B82E08093E9008091E80097
:1009800080FF0CC050E040E060E270E0CF010E94C8
:1009900081048091E8008E778093E800CF70C09347
:1009A000E900CF9108958091D40487FF13C080910E
:1009B000E80082FF06C08091E8008B778093E80012
:1009C00004C08091DC048111F2CF08958091DC0491
:1009D0008823D9F38091E80080FFF8CF8091E80068
:1009E0008E77ECCF982F9093E900242F762F50E04C
:1009F000891731F07091EC002091ED005091F000DA
:100A000021FD07C09F5F973071F78093E90081E077
:100A100008953091EB003E7F3093EB003091ED0074
:100A20003D7F3093ED003091EB0031603093EB006F
:100A30007093EC002093ED005093F0002091EE00B5
:100A400027FDE0CF80E00895CF92DF92EF92FF92F2
:100A50000F931F93CF93DF93C8EDD0E088818F7EF3
:100A60008883E7EDF0E080818160808384E082BF4D
:100A700081E08093AE0488818E7F888302EE10E04F
:100A8000F80110821092DA0081EEC82ED12CF60106
:100A9000108288818F7788838881806888838881A5
:100AA0008F7D888319BC1092DC041092D3041092BD
:100AB000D2041092D10490EEE92EF12CF70180813E
:100AC0008B7F808388818160888342E060E080E062
:100AD0000E94F204F60180818E7F8083F80180817C
:100AE00081608083808188608083F70180818E7F30
:100AF0008083888180618883DF91CF911F910F91DE
:100B0000FF90EF90DF90CF900895FC018091DA0480
:100B10009091DB0486179707A0F06115710529F401
:100B20009091E8009E779093E80090E06115710540
:100B300051F4911108C08091E80082FF34C080E038
:100B40000895BC01F2CF8091DC048823C1F1853087
:100B5000C1F18091E80083FD30C08091E80082FD02
:100B6000EACF8091E80080FFE1CF8091F3002091EF
:100B7000F200382F6115710519F02830310558F051
:100B800091E02830310509F090E02091E8002E77BF
:100B90002093E800CBCF81918093F10061507109DF
:100BA0002F5F3F4FE7CF8091DC04882341F08530F1
:100BB00041F08091E80083FFBECF81E0089582E09C
:100BC000089583E0089508958091B00408959C01EC
:100BD0004FB7F8948091A5049091A604A091A70422
:100BE000B091A8044FBF821B930B08952FB7F894C0
:100BF0008091A5049091A604A091A704B091A804A7
:100C00002FBF08952091A2043091A304281739071B
:100C100071F09093A3048093A204E091A004F0915A
:100C2000A104309721F00084F185E02D0994089506
:100C300020919E0430919F042817390771F09093FA
:100C40009F0480939E04E091A004F091A10430974A
:100C500021F00680F781E02D09940895E091A00429
:100C6000F091A104309721F00190F081E02D0994DA
:100C700080E00895DC0160913E0480913F04962F4E
:100C8000891301C00895292F30E0F901EE0FFF1FED
:100C9000EA5CFB4F408151814A175B07A1F487E072
:100CA0008A9FA0018B9F500D1124465E5B4F81E00F
:100CB000FA0184839613E6CF2F5F3F4F23703327CB
:100CC00020933E0408952F5F3F4F922F9370D8CF0B
:100CD0001092B7031092B603EAE1F4E08581811126
:100CE00002C014821682379684E0E633F807B1F723
:100CF000089581152CE5920741F42091B0033091BD
:100D0000B103232B11F490E080E008958F929F921D
:100D1000AF92BF92EF92FF920F931F93CF93DF9307
:100D20008630B8F5811136C090918000977F9093FE
:100D300080002F98A0918600B0918700282F30E086
:100D40000E941C3525E030E040E050E00E94E53490
:100D500089019A0180918600909187006CE070E093
:100D60000E94BD3460177107D8F0C80169E070E0D7
:100D70000E94BD3470938D0060938C00DF91CF9101
:100D80001F910F91FF90EF90BF90AF909F908F9029
:100D9000089585E090918000986090938000CACF7C
:100DA0008091860090918700E0908600F090870007
:100DB000E0918600F0918700C6E0D0E0BE010E947D
:100DC000BD34060F171F211D311D4801590185E053
:100DD000880C991CAA1CBB1C8A95D1F7C701BE01BF
:100DE0000E94BD349F0150E040E0260F371F411D97
:100DF000511DC501B4010E94E53449015A01E09139
:100E00008600F0918700CA01B9010E949F349B01BE
:100E1000AC01DF010E9432359B01AC01C501B40178
:100E20000E949F342FE096958795779567952A9530
:100E3000D1F7009186001091870030E020E006177E
:100E400017072807390708F095CF60918600709141
:100E5000870090CF282F220F220F220F9091790325
:100E60009770922B90937903987F21E009F420E00A
:100E70009091790320FB90F9909379030C94860666
:100E8000FA01811101C0FB01099408958091740356
:100E9000982F9E7F61F481708260809374038091AB
:100EA000770387FF03C08FE78093770308958A3421
:100EB000B0F381708864F1CFAF92BF92DF92EF926E
:100EC000FF920F931F93CF93DF93082F162FE90103
:100ED00047FD4FE7E42FF0E0E45FFB4F111110C036
:100EE000E4915E2F4E2F4983E8835A83DF91CF919F
:100EF0001F910F91FF90EF90DF90BF90AF900895FA
:100F0000E12EF12C4491D42EE42FF0E026E0029F54
:100F1000C00111242FEF30E0B9010E94BD34802FB1
:100F200090E0880F991F55E5569FD001579FB00D4F
:100F300011248A1B9B0B982F990F890F5901AE180A
:100F4000BF08AE9ED001AF9EB00DBE9EB00D112465
:100F50005B2F189F80011124012F11275901A01A1E
:100F6000B10AAE9E8001AF9E100DBE9E100D1124E1
:100F70005901A81AB108AE9CC001AF9C900DBE9C4F
:100F8000900D1124892F9927281B390B2E9FC00102
:100F90002F9F900D3E9F900D1124E92F6230710517
:100FA000A1F050F46115710509F49DCF6130710510
:100FB00081F0EB2F512F97CF6430710569F080F0ED
:100FC0006630710509F48FCFF4CFE42F4B2F592FE2
:100FD0008ACFE42F412F87CFEB2F542F492F83CF78
:100FE0004B2F5D2DE12F7FCF0E94F6059C01909144
:100FF000840280918502982B21F030938102209306
:1010000080029091860280918702982B21F0309384
:101010007F0220937E02E091A004F091A10430971A
:1010200049F082E0809382020480F581E02D82E81D
:1010300092E00994089590918402803F59F4809140
:10104000850287FF0DC01092850291110BC010928E
:101050007C0208C0813F81F48091850218169CF3C0
:10106000992381F08091860290918702892B09F063
:1010700064C010927B020895823F49F497FFF0CF3D
:1010800010928402809185028111ECCFE0CF833FE2
:1010900019F41916ACF3E4CF20918602893F29F4A4
:1010A0001216F4F610928602DBCF8A3F19F427FF5E
:1010B000D7CFF8CF209187028B3F29F427FFD0CFDD
:1010C00010928702CDCF8C3F19F41216CCF3C8CF03
:1010D000843F31F4809183028E7F80938302C0CF5E
:1010E000853F21F4809183028D7FF7CF863F21F4E5
:1010F000809183028B7FF1CF873F21F4809183021F
:10110000877FEBCF883F21F4809183028F7EE5CFEC
:101110008D3F31F480917D028E7F80937D02A0CF40
:101120008E3F21F480917D028D7FF7CF8F3F09F0B4
:1011300097CF80917D028B7FF0CF089580917D02C3
:1011400080FD16C081FD16C082FD16C080917B0215
:101150008823A1F0883280F428E0829FC001112406
:1011600068E270E00E94D134862F672B39F0089531
:1011700082E0089584E0089588E0089581E008956C
:1011800080917D0280FD14C081FD14C082FD16C0D7
:1011900080917C02882381F08E3180F420E5829F4B
:1011A000C00111246EE170E00E94D134862F0895B1
:1011B00084E1089588E2089588E0089580E508951F
:1011C000803F31F40E94C008819580938502089584
:1011D000813F19F40E94C008F8CF823F31F40E9489
:1011E000C0088195809384020895833F19F40E947A
:1011F000C008F8CF893F29F40E949E088093860298
:1012000008958A3F21F40E949E088195F7CF8B3F75
:1012100031F40E949E0881958093870208958C3F47
:1012200019F40E949E08F8CF843F31F48091830224
:101230008160809383020895853F21F48091830229
:101240008260F7CF863F21F4809183028460F1CFE2
:10125000873F21F4809183028860EBCF883F21F49F
:10126000809183028061E5CF8D3F31F480917D02D2
:10127000816080937D0208958E3F21F480917D02EC
:101280008260F7CF8F3FB9F780917D028460F1CF04
:1012900080E00895F894E82FE295EF70F0E031A136
:1012A000282F2F7081E090E001C0880F2A95EAF77F
:1012B000982F9095932391A392A1892B82A3789440
:1012C00008959091A90492FF06C0282F2871283014
:1012D000F9F4877F846093FF06C0282F2871283196
:1012E000F1F4877E84612091AA0420FF06C0382F84
:1012F00038713830D9F4877F816021FF06C0282FEC
:1013000028712831D1F4877E816194FD877E08950C
:10131000282F24712430F9F68B7F8860DCCF282FAA
:101320002471243101F78B7E8861DDCF382F317134
:10133000313019F78E7F8860E0CF282F217121315D
:1013400021F78E7E8861E1CFCF93DF93EC01823865
:101350009105A9F1D8F58133910509F496C048F5B6
:101360008932910509F48AC08A9709F495C0C1159C
:1013700021E5D20708F0BCC0C11530E5D30708F05D
:1013800014C1C83ED10508F09CC0C03ED10560F52F
:10139000C83AD10508F087C0C53AD10508F0FDC0AC
:1013A000C130D10509F12097F9F0C430D105E0F43E
:1013B00040C08533910509F45AC0C997C1F68091A0
:1013C000A904837089F0C0EED0E00EC0833E910581
:1013D00099F170F4803E910501F1823E910539F654
:1013E0008091A90482FD21C0CE01DF91CF910895A3
:1013F000863E910561F1873E910571F1843E91052C
:1014000009F0B5CF8091AA0481FFEECF8091A904A5
:10141000C7EED0E084FD0DC0E7CF8091A90480FD28
:1014200012C19091AA0490FFDFCFC3EED0E084FFF9
:10143000DBCFD0E0C0E0D8CF8091A90482FD06C107
:101440009091AA0490FDBFCF84FFCECFF2CF8091C0
:10145000A90483FDDDCFC8CF8091A90483FDF9C025
:101460009091AA0491FFF0CFC4EED0E0BDCF80915F
:10147000A90485FFB9CFC9E2D0E0B6CF8091A90415
:1014800085FFB2CFC5E3D0E0AFCF8091A90486FF3E
:10149000ABCFCAE2D0E0A8CF8091A90486FFA4CF49
:1014A000C1E3D0E0A1CFCF3BD10518F6C85AD0E0B8
:1014B000CC0FDD1FC75DDE4F0990D881C02DD464ED
:1014C00093CFC11540E2D40758F4C11581E0D80785
:1014D00008F08ACFC03FD10508F4ABCFD06584CFE8
:1014E000C11590E4D90708F4A4CFDF70D06A7CCF8F
:1014F000C11525E5D20700F5C11534E5D30708F07D
:101500008AC0C11543E5D40708F071C0C11582E552
:10151000D80708F467C0CE018370992721E030E036
:1015200002C0220F331F8A95E2F7C695C69580E266
:10153000C89FE001112452C0C11599E5D907A8F44C
:10154000C11528E5D20708F06BC0C11536E5D307F1
:1015500008F06FCF8C2F0E946109C82FD0E0DC2FDC
:10156000CC27CC27DF71D0623FCFC1154AE5D40725
:1015700008F45BC0CE0190568115904208F059CF17
:101580008D2F8F710E94610990E0982F88278827FE
:101590009F719C012C2BE901E6CFC55AD0E0CA5DB2
:1015A000DE4FC881D0E0D0641FCFCE01E4E0969535
:1015B0008795EA95E1F783702C2F26952695237061
:1015C00040E2249F90011124382B8C2F8370C1E0BE
:1015D000D0E002C0CC0FDD1F8A95E2F7C22BD32BDF
:1015E000DC6802CFDC2FCC27C16FD06AFDCECE01E4
:1015F0008370992721E030E002C0220F331F8A95C3
:10160000E2F7C695C69590E2C99FE0011124C22B6E
:10161000D32BDA68E9CEDC2FCC27C46FD06AE4CEB6
:10162000DC2FCC27C06FD06ADFCE8C2F8F700E944A
:10163000610934E0D695C7953A95E1F7CF709C2FB4
:10164000EC01D069D1CEC9E3D0E0CECEC2EED0E07D
:10165000CBCEC6EED0E0C8CE80915102882331F0C7
:10166000109251021092500210924F0208958095EC
:10167000909143049823909343040895809590910A
:101680004204982390934204089510922E021092DF
:101690002D0210922C02089580912B02811110923C
:1016A0002B02089590911D019923D1F09091A904E6
:1016B00097FF16C0E82FE695E695E695EE31E0F443
:1016C000F0E0EE55FE4F282F277081E090E001C03A
:1016D000880F2A95EAF7809592818923828308955D
:1016E000E4EAF1E09191891303C0DF0111971C92A4
:1016F00091E0EA3AF907B1F7089590911D01992315
:10170000C1F09091A90497FF14C0E82FE695E695E3
:10171000E695EE31F8F4F0E0EE55FE4F877021E0EB
:1017200030E001C0220F8A95EAF78281822B828302
:101730000895A4EAB1E0EFEF90E02D91821751F007
:10174000EF3F19F4211101C0E92F9F5F9630A9F7EF
:10175000EF3F09F408950E2E000CFF0BEE55FE4FDF
:10176000E6CF80912A029091E901981301C0089573
:101770008F5F8770FACF9E3F49F1E82F2FE0929F4D
:10178000E00D11249E2F9770E695E695E69583E08F
:10179000E89FF0011124ED53FE4F50E040E080E05F
:1017A000219130E0092E02C0369527950A94E2F780
:1017B00021703327042E01C0220F0A94EAF7822BEE
:1017C0004F5F5F4F4330510559F7089580E008950A
:1017D0009E3F69F1E82F2FE0929FE00D11248E2F9C
:1017E000877041E001C0440F8A95EAF7E695E695D7
:1017F000E69583E0E89FF0011124ED53FE4F30E0C1
:1018000020E070E05191DF011197CB01022E02C060
:10181000969587950A94E2F78170819585278423B0
:1018200085278C932F5F3F4F2330310559F708955B
:101830009C013A9521153F4150F5FC01EE27F170CE
:10184000BC0166277270AC01442754709C012227AA
:10185000387094FF0EC080E1EF2B09F480E0672B15
:1018600009F08062452B09F08064232B89F08068A1
:10187000089581E0EF2B09F480E0672B09F0826086
:10188000452B09F08460232B19F08860089580E0CF
:1018900008958093AB047093AD046093AC04809181
:1018A000DC048430F9F48093E9008FEF9091E80034
:1018B000815095FD06C095ED9A95F1F700008111D4
:1018C000F5CF8091E80085FF0DC050E040E063E077
:1018D00070E08BEA94E00E9481048091E8008E77AA
:1018E0008093E8000895BC0184E00C94490CBC018D
:1018F00083E00C94490C9C0184E08093E9009FEF05
:101900008091E800915085FD06C085ED8A95F1F73C
:1019100000009111F5CF8091E80085FF0CC050E0E8
:1019200040E066E070E0C9010E9481048091E80017
:101930008E778093E8000895CF93DF93EC01809138
:101940001D018823B1F18091A90487FF32C060E2B4
:1019500084E08093E9008FEF9091E800815095FD3D
:1019600006C095ED9A95F1F700008111F5CF8091B1
:10197000E80085FF1BC080911D0170E050E040E051
:10198000811104C050E040E068E070E0CE010E94A8
:1019900081048091E8008E778093E80080E2FE0168
:1019A000A1EBB4E001900D928A95E1F7DF91CF9120
:1019B000089568E081E0CDCF81E08093E00080E28F
:1019C0008093D8001092C9008FE19EE40197F1F74F
:1019D00000C0000087E090EBDC018093E10490936D
:1019E000E204A093E304B093E40488E19CE00FB622
:1019F000F894A895809360000FBE90936000FFCF8D
:101A00008091740380FD0AC0E3E9F2E01182108244
:101A10001282339653E0E437F507C1F76A9A3EB174
:101A20003B7F2EB124604FB7F89483E992E0FC012C
:101A30005191CF0168E02EB9000000C057FF3EB9B8
:101A4000550F000000C000C000C03EB900C06A953C
:101A500091F7F3E084379F0751F74FBF8FE594E08C
:101A60000197F1F700C000000895EF92FF920F93E5
:101A70001F93CF93DF938C01C3E9D2E0F12CE12CCB
:101A8000F80194816091760380917503F5E2EF1679
:101A9000F104FCF49923F9F09E01409177030E9430
:101AA0005C072FEFE21AF20A23968BE4E816F104A2
:101AB00039F70E94000DF801848190E00196817051
:101AC00099278483DF91CF911F910F91FF90EF9021
:101AD0000895992309F39E0140E0E1CF8F929F92F0
:101AE000AF92BF92CF92DF92EF92FF920F931F932C
:101AF000CF93DF93EC014C81042F10E09801D801C3
:101B00000E941C359B01AC010E9432354B015C01E7
:101B1000E0E2F0E0E01BF10BA5E5B0E0AC019B01D9
:101B20000E9432356B017C019F01DF010E94143558
:101B30009B01AC010E943D359B01AC01280D391D74
:101B40004A1D5B1DC701B6010E94E534F22E822FAB
:101B500090E039E23F15D8F143E0249F9001112431
:101B600035952795122F109593E9C92E92E0D92E1D
:101B700000E085E5E82EEF188E2D01FD8F2D9601F2
:101B8000412F609176030E945C070F5F53E0C50E02
:101B9000D11C0B3489F70E94000D9C8181E09923B0
:101BA00019F0903219F48FEF80931B0180911B0183
:101BB000890F8C83DF91CF911F910F91FF90EF9050
:101BC000DF90CF90BF90AF909F908F90089525E5C4
:101BD00030E0A901481B590BCA019A01220F331F9B
:101BE000280F391F37FFBCCF2F5F3F4FB9CF0F935F
:101BF0001F93CF93DF93C3E9D2E0FE0111821082DD
:101C00001282339683E0E437F807C1F710E000E072
:101C100080919102082E000C990B081719078CF17E
:101C200080911A01082E000C990B801791074CF136
:101C30009E014091770360917603809175030E9425
:101C40005C070F5F1F4F23960B34110509F70E94A5
:101C5000000D8091190190919102980F909391023B
:101C600020911A01280F20931A01121614F49A34A5
:101C70001CF0819580931901DF91CF911F910F91F5
:101C80000895198218821A82DCCFBF92CF92DF9218
:101C9000EF92FF920F931F93CF93DF93FC0182810A
:101CA000DD24DA9480FD02C0DD24D39403E912E040
:101CB000D0E0C0E02BE4B22EF80111821082128233
:101CC00094E0E92EF12CC12C809190028C0D8C3483
:101CD0000CF43DC06B2D0E94AF34892F082E000CF0
:101CE000990B8C179D0791F4809177038E9DA0012D
:101CF0008F9D500D11245595479555954795980101
:101D000060917603809175030E945C07CD0CF1E031
:101D1000EF1AF108C9F621960D5F1F4FCB34D1059C
:101D200059F60E94000D8091900291E0D91215C0E1
:101D3000811111C08AE480939002DF91CF911F91AD
:101D40000F91FF90EF90DF90CF90BF90089587FFA5
:101D5000C5CF855BC3CF8150EECF90E00196BE0129
:101D60000E94D134E8CFEF92FF921F93CF93DF937D
:101D7000EC0183E9E82E82E0F82E10E08C819701D7
:101D80004091770360917603810F0E945C071D5F8D
:101D900083E0E80EF11C113E89F70E94000D9A8144
:101DA0008C8190FF08C08F5F8C83DF91CF911F9152
:101DB000FF90EF9008958150F7CF9091740390FFBA
:101DC0000CC0E3E9F2E0818360834283339693E0C1
:101DD000E437F907C1F70C94000D08950F931F9392
:101DE000CF93DF9300D00F92CDB7DEB78C018091F7
:101DF000920281110AC09E012F5F3F4F4FE76FEFA4
:101E00000E945C078A8180939202F80164816130AC
:101E100069F08091920240E0662361F040E0623018
:101E200011F44091920280E060E004C0609192025F
:101E300040E080E00E94DD0EF801848190E0019690
:101E400063E070E00E94D13484830F900F900F9074
:101E5000DF91CF911F910F910895CF93DF9300D021
:101E60000F92CDB7DEB79091740390FF0AC09E0128
:101E70002F5F3F4F0E945C074B8169818A810E94DE
:101E8000DD0E0F900F900F90DF91CF910895CF93BB
:101E9000DF93EC01E4E7F3E0438162818C810E94EF
:101EA0002D0F8C818F5F8C83DF91CF910895CF931D
:101EB000DF93EC01EC81F0E0EF5EFA4F4491E4E750
:101EC000F3E0628181810E942D0F8C818F5F8C8372
:101ED000DF91CF910895CF93DF93CFECD2E060E014
:101EE000CE010E949F352196C11584E0D807B9F72D
:101EF000DF91CF9108950F931F93CF93DF938901C3
:101F0000843048F5653038F54F3028F521153C45CB
:101F100031F42091B0033091B103232BE1F0C42FB1
:101F2000D0E0CC0FDD1F9EE1699FC00DD11D1124B3
:101F300096E9899FC00DD11D1124612FCE0187968E
:101F40000E949F35602FCE018896DF91CF911F911F
:101F50000F910C949F35DF91CF911F910F910895B0
:101F6000CF93C82F6FEF81116DEA83E290E00E945A
:101F70009F356FEFC11168E284E290E00E949F35C7
:101F80006FEFC11165E485E290E0CF910C949F352D
:101F9000682F86E090E00C949F357F928F929F92FD
:101FA000AF92BF92CF92DF92EF92FF920F931F9367
:101FB000CF93DF93CDB7DEB764970FB6F894DEBF4B
:101FC0000FBECDBFA090B003B090B10381E090E010
:101FD0009093B1038093B00381E1C82E86E0D82EA0
:101FE00000E0760110E015C0F40125913491472DF1
:101FF000612F802F0E947B0F82E0880E911C7394CA
:10200000EFE07E12F1CFFEE1EF0EF11C1F5F153005
:1020100019F04701712CE8CF0F5F86E9C80ED11C7B
:102020000430F9F61A8219821C821B821E821D82DC
:1020300018861F8288EC90E09A8789874AE050E0F2
:102040006FE772E0CE0101960E94C3354AE050E08E
:1020500069E872E0CE0101960E94C3354AE050E083
:1020600063E972E0CE0101960E94C3354AE050E078
:102070006DE972E0CE0101960E94C3358E01055FC5
:102080001F4F8AE0F80111928A95E9F74AE050E083
:1020900067EA72E0C8010E94C3354AE050E061EB94
:1020A00072E0C8010E94C3354AE050E06BEB72E079
:1020B000C8010E94C3354AE050E065EC72E0C801F7
:1020C0000E94C335B092B103A092B00364960FB6DC
:1020D000F894DEBF0FBECDBFDF91CF911F910F915E
:1020E000FF90EF90DF90CF90BF90AF909F908F9038
:1020F0007F90089580E00E94B00F60E086E290E05B
:102100000E949F350E94CD0F0E946B0F81E00C94BE
:10211000B00F9B01843070F49AE0899FB0011124C4
:1021200061587D4F4AE050E0C9010E947B3590E044
:1021300080E008958FEF9FEF08958F929F92AF9266
:10214000BF92CF92DF92EF92FF920F931F93CF93A4
:10215000DF93CDB7DEB72A970FB6F894DEBF0FBE78
:10216000CDBF06E414E0F12CE12C84E4C82E8AE211
:10217000D82E9EE6A92E9AE2B92E20EA822E29E2D6
:10218000922EF801D182C082B382A282958284828B
:10219000F58AE48ABE016F5F7F4F8E2D0E94891001
:1021A000892B29F489859A85F801938B828BFFEF1F
:1021B000EF1AFF0A0A5E1F4F84E0E816F10409F7E0
:1021C0002A960FB6F894DEBF0FBECDBFDF91CF9138
:1021D0001F910F91FF90EF90DF90CF90BF90AF9045
:1021E0009F908F9008950F931F93CF93DF93843028
:1021F00030F5653020F54F3010F5C42FD0E0CC0F0E
:10220000DD1F2EE1629FC00DD11D112436E9839F91
:10221000C00DD11D1124CE0187960E948B35082F49
:1022200010E0102F0027CE0188960E948B35980170
:10223000282BC901DF91CF911F910F91089590E054
:1022400080E0F8CF462F2091B4033091B503232BC3
:1022500091F47E3F39F46E3F71F48091B203909116
:10226000B3030895843038F4753028F46F3018F4CF
:10227000672F0C94F31090E080E00895CF92DF92E6
:10228000FF920F931F93CF93DF936C010091DD04B6
:1022900080915202082BC7E0D0E010E0FC2EC8016C
:1022A0000C2E02C0959587950A94E2F780FD0CC02C
:1022B0002197A0F7F12C8F2DDF91CF911F910F91D6
:1022C000FF90DF90CF900895B6018C2F0E942211CD
:1022D0000E94A409019761F3EECFCF93DF93EC0145
:1022E0000E943E11BE010E942211DF91CF910C94F9
:1022F000A409FC0186819781009791F00E94A409AE
:1023000092959F709630B9F080F4925F9F709230F2
:1023100080F4803F19F058F4883E58F481E0089525
:10232000808191810E946D11EBCF9A5FEFCF843F46
:10233000A9F380E00895883E88F3813FD1F7EECF7E
:102340001F93CF93DF9300D000D00F92CDB7DEB7AD
:10235000FC01268137812115310541F525E0DE019B
:10236000119601900D922A95E1F7FC012281898155
:102370009A812223B9F06623A9F00E943E11182FFA
:10238000682F89819A810E94E80B69817A81812F67
:102390000F900F900F900F900F90DF91CF911F91A2
:1023A0000C9422110E94BB0B182FEFCFC9010F9084
:1023B0000F900F900F900F90DF91CF911F91089584
:1023C00083E290E00E948B358D3A89F484E290E0BC
:1023D0000E948B35883259F485E290E00E948B355B
:1023E00091E0853409F090E0892F8170089580E0B4
:1023F000FCCFCF9384E090E00E948B35C82F82E21F
:1024000090E00E948B35982F8C2FCF910895CF921A
:10241000DF92EF92FF920F931F93CF93DF93CDB78D
:10242000DEB72A970FB6F894DEBF0FBECDBFE8E83F
:10243000F3E088E2DF011D928A95E9F7EAE1F4E032
:102440008CE1DF011D928A95E9F788E8C82E83E0C8
:10245000D82E7F0107EA12E0F701D182C0824AE05C
:1024600050E0B801CE0101960E947B3588E0FE0164
:102470003196D60101900D928A95E1F789859A856A
:10248000D70113969C938E931297BAE0CB0ED11C72
:10249000E7E0EE0EF11C065F1F4F0F3CF2E01F0756
:1024A000D9F62A960FB6F894DEBF0FBECDBFDF91E6
:1024B000CF911F910F91FF90EF90DF90CF900895F3
:1024C000CF92DF92EF92FF926B017C010E94460750
:1024D000B701A60188E090E0FF90EF90DF90CF90E9
:1024E0000C94B1355F926F927F928F929F92AF92D0
:1024F000BF92CF92DF92EF92FF920F931F93CF93F1
:10250000DF9300D00F92CDB7DEB7182F762E042FB1
:10251000622E9091740390FF29C0E92FE695AE2FAB
:10252000B0E0A559BE4F8C9180938E029E7F923071
:1025300081F59E012F5F3F4F812F0E945C074B81E9
:1025400069818A810E94DD0E109375037092760373
:1025500000937703662051F06091740370917503C6
:1025600080917603909177030E9460120F900F90F4
:102570000F90DF91CF911F910F91FF90EF90DF901F
:10258000CF90BF90AF909F908F907F906F905F9013
:102590000895823019F400917703D6CF863019F46C
:1025A00010917503D1CF8930D9F3893169F6E9519A
:1025B0008E2F8170582EE695F0E0E45FFA4FA590DB
:1025C000B490BB2483E9E82E82E0F82ED12CC12CF4
:1025D0009BE4892E912CC601B4010E94BD34812F49
:1025E000511013C0860F9701402F672D0E945C0782
:1025F000CA0CDB1C83E0E80EF11C84E7E81683E0DC
:10260000F80649F70E94000D9FCF861BECCFE4E748
:10261000F3E0438128E0421B08F440E021E06281BE
:1026200081810C947212E4E7F3E0438128E0420FC9
:1026300008F44FEF21E0628181810C947212E4E78B
:10264000F3E0628128E0621B08F460E021E043814E
:1026500081810C947212E4E7F3E0628128E0620F5A
:1026600008F46FEF21E0438181810C947212E4E75A
:10267000F3E0818121E04381628188500C947212E1
:10268000E4E7F3E0818121E043816281885F0C947B
:10269000721280917803882319F081508093780317
:1026A0006091740370917503809176039091770324
:1026B0000C94601280917803833018F48F5F8093BC
:1026C0007803609174037091750380917603909103
:1026D00077030C9460129091740390FF3DC0917049
:1026E000811129C0926090937403662351F0609128
:1026F00074037091750380917603909177030E9423
:10270000601260917403669570E04BE050E08EE0DB
:1027100091E00E945A35892BA9F010928F0281E036
:1027200080938B0220E04091770360917603809143
:1027300075030C947212853210F09864D4CF880F10
:10274000982BD1CF81E080938F020E94F605909361
:10275000890280938802E3CF08958091740386955F
:10276000815009F484E261E00C946B13809174034E
:1027700086958F5F853208F081E061E00C946B13E1
:102780009091740390FF07C09695981720F09617C4
:1027900010F40C94B61361E00C946B13E4E7F3E0CF
:1027A00083E0808311828FEF82838FE7838314829B
:1027B00060817181828193810C94601269EE7EEF59
:1027C00090E080E00E94BD3560E082E090E00E94F1
:1027D0009F3560E083E090E00E949F3510925202A6
:1027E00060E084E090E00E949F3560E082E290E04B
:1027F0000E949F3560E085E090E00E949F3560E098
:1028000086E090E00E949F356FEF87E090E00E94A5
:102810009F3540E050E0BA0188E090E00E94B13579
:1028200060E08DE090E00E949F3540E050E0BA010A
:1028300088E190E00E94B13560E087E190E00E947D
:102840009F3540E050E0BA018CE190E00E94B13544
:1028500070E060E080E290E00E94BD3540E050E032
:10286000BA0188E190E00E94B13580E00E94B00F8B
:102870000E947A1040E050E0BA018FE090E00E94A0
:10288000B13540E050E0BA0183E190E00C94B135FD
:102890004F925F927F928F929F92AF92BF92CF9210
:1028A000DF92EF92FF920F931F93CF93DF93CDB7F9
:1028B000DEB72A970FB6F894DEBF0FBECDBF8E01EC
:1028C0000F5F1F4F8AE0F80111928A95E9F727E51B
:1028D000E22E21E0F22ECC24C394D12C88248394C0
:1028E000912C5BE6A52E51E0B52EF70181917F0179
:1028F0008F3F09F44DC0F894E82FE295EF70F0E0B7
:1029000021A18F70A40102C0440F551F8A95E2F7E0
:10291000CA01922F982B91A392A18095892382A31B
:10292000789400C096E6492E91E0592ED801B60160
:1029300060957095F20171902F018D919D91AD017F
:1029400042505109FFEF7F1609F47DC0272D2295D3
:102950002F7030E0F90120A130E0F72DFF7002C0A8
:1029600035952795FA95E2F720FD6DC08C299D29B4
:10297000FA0191838083A414B504E1F6F70131973D
:1029800080818F3F11F00E944A09F0EAFA95F1F731
:10299000CC0CDD1C26E6E21621E0F20609F0A5CFFC
:1029A0004AE050E0B80186E592E00E946735FF24D6
:1029B000F394009709F4F12C892B09F447C08AE0BD
:1029C000F801A6E5B2E001900D928A95E1F781E069
:1029D000809355020E94F60590935402809353020F
:1029E00080915302909154020E94E705059790F15F
:1029F00080915602909157029093720280937102D7
:102A000080915802909159029093740280937302BE
:102A100080915A0290915B029093760280937502A6
:102A200080915C0290915D0290937802809377028E
:102A300080915E0290915F0290937A028093790276
:102A40001092550207C08623972392CF809155029A
:102A50008111C6CF8F2D2A960FB6F894DEBF0FBE18
:102A6000CDBFDF91CF911F910F91FF90EF90DF903D
:102A7000CF90BF90AF909F908F907F905F904F903E
:102A800008958091420490914304892B8093A20180
:102A900080915102882329F10E94F60520914F026E
:102AA00030915002821B930B8838934110F00E94A2
:102AB0002C0B8091A20190915102892B8093A2014D
:102AC00080911D018823D9F18091A90487FF37C027
:102AD0008EE1E4EAF1E090E0815098F591110E94D6
:102AE0002C0B40E250E06FE272E082EA91E00E943B
:102AF0006735892B59F180E2E2EAF1E0AFE2B2E01A
:102B000001900D928A95E1F7E091A004F091A10463
:102B10003097E1F080911D01882359F08091A9043C
:102B200087FF07C08091A2018093A30186E0809374
:102B3000A2010280F381E02D82EA91E0099486E00F
:102B4000C8CF2191222341F29F5FC6CF0895EF9213
:102B5000FF920F931F93CF93DF93EC018A8581112E
:102B600034C0EB80FC8087E5F81A26E12E9DC00179
:102B70002F9D900D1124DC01AA5BBB4F1496ED91A3
:102B8000FC911597309731F054966D917C91845B50
:102B90009B4F099586E18E9D80018F9D100D11241C
:102BA0000A5B1B4FF80187810E943E0BF80180856C
:102BB0000E94370B0E944115188219861B861E82BF
:102BC0001D821092450410924404DF91CF911F9111
:102BD0000F91FF90EF900895CF93DF93EC018989D7
:102BE00081111BC081E0898B809142049F81892BD8
:102BF00080934204809143049885892B80934304F9
:102C00000E944115EA81FB81309739F06C897D89FA
:102C1000CE010696DF91CF910994DF91CF9108956F
:102C200090E080E00E94180690E080E00E9402069A
:102C3000109243040E94411586E0E2E8F2E0DF01D1
:102C40001D928A95E9F710927C0210927B021092F5
:102C50007D020C94F4078093DD040C94101680918F
:102C6000DD04982F9670963019F488600C942B161A
:102C7000877FFCCF21E030E001C0220F8A95EAF780
:102C800020958091DD0482230C942B1690912E02C6
:102C90008095892380932E02282F277091F4282F66
:102CA000082E000C330B9217130659F09091AA04CA
:102CB00092FD07C08595859585950E943A160C94DE
:102CC000450B0895CF93C091AA04C2FB992790F9B0
:102CD000981799F080FBC2F9C093AA046091A904E7
:102CE00084E090E00E949F356C2F82E290E00E9489
:102CF0009F3582E0CF910C944616CF91089521E044
:102D000030E001C0220F8A95EAF78091DD04822B22
:102D10000C942B169091AA0492FD10C098E0899F04
:102D200090011124622B60932E020E947F160E9454
:102D3000F60590932D0280932C0208950C947F1633
:102D4000809352020C9410161092420480911D013F
:102D5000E4EAF1E0882359F08091A90487FF07C0D5
:102D60008EE1DF011D928A95E9F70C94101686E03A
:102D7000F8CF1F93CF93DF93CDB7DEB7AA970FB6E7
:102D8000F894DEBF0FBECDBF84ED94E02091F1003A
:102D9000DC012D93CD01B4E08C3D9B07B9F7809108
:102DA000D504833009F472C0B8F4813009F449C005
:102DB000823009F4B3C08091E80083FF96C280910D
:102DC000D4049091D5049A3008F08FC2E92FF0E036
:102DD000E352FA4C0C9407358A3009F48EC08B30DC
:102DE00009F471C0893039F78091D404813219F720
:102DF0008091D8049091D904009711F00297D9F6E8
:102E00008091E800877F8093E8008091E80082FF4E
:102E100038C09091F3008091F200029731F48091D4
:102E2000F100813011F0863021F48091F10080931F
:102E3000B0048091E8008B778093E8000E94D3046F
:102E4000BACF8091D404813A09F0B5CF8091E800DF
:102E5000877F8093E8008091D8049091D904892BD2
:102E600061F460E281EB94E070E00E94850580915E
:102E7000E8008B778093E8009ECF60E090E080E0F0
:102E8000F3CF8091DC048111C0CF95CF8091D40421
:102E9000813A09F090CF8091D8049091D904892B80
:102EA00009F089CF8091E800877F8093E8008091C6
:102EB000E80080FFFCCF80911D018093F10080919C
:102EC000E8008E77B9CF8091D404813209F073CFB6
:102ED0008091D8049091D904892B09F06CCF80910E
:102EE000E800877F8093E8000E94D3048091D60495
:102EF00080931D010E94A4165ECF8091D40481327C
:102F000009F059CF8091E800877F8093E8000E9404
:102F1000D3048091D7048093AF044DCF8091D40423
:102F2000813A09F048CF8091E800877F8093E800DC
:102F30008091E80080FFFCCF8091AF04BECF803845
:102F400099F0823809F0D1C18091D8048F70873010
:102F500008F0CBC18093E9008091EB0085FB8827C6
:102F600080F91092E90006C08091D1049091D204BA
:102F7000911182609091E800977F9093E800809390
:102F8000F1001092F1008091E8008E77AAC18823A9
:102F900009F498C1823009F0A8C18091D60481114A
:102FA0009BC18091D8048F702FEF280F263008F036
:102FB0009CC18093E9002091EB0020FF8DC19330EC
:102FC00031F48091EB0080628093EB0085C1909199
:102FD000EB0090619093EB0021E030E001C0220F04
:102FE0008A95EAF72093EA001092EA008091EB00BC
:102FF0008860EACF811179C11091D6041F77809142
:10300000E3008078812B8093E3008091E800877F44
:103010008093E8000E94D3048091E80080FFFCCFF9
:103020008091E30080688093E30082E0111183E0E7
:103030008093DC045AC18058823008F056C1209138
:10304000D6043091D7042C3DE3E03E07A1F583E0A0
:103050008A838AE289834FB7F894DE01139620E0D1
:103060003EE051E2E32FF0E050935700E49120FF5F
:1030700003C0E295EF703F5FEF708E2F90E0EA3073
:10308000C0F0C7968D939D932F5F243159F74FBFA2
:103090008091E800877F8093E8006AE270E0CE01CB
:1030A00001960E9485058091E8008B778093E80067
:1030B0001CC1C096E7CF8091D8049091D904432FCA
:1030C00055274330510509F44AC078F54130510580
:1030D00009F485C08BE590E0EDE3F7E0423051055F
:1030E00009F003C12091E800277F2093E800209198
:1030F000DA043091DB048217930708F49C0140E066
:103100002115310509F070C041116EC08091E800B1
:1031100082FDC9CF8091DC04882329F2853019F221
:103120008091E80083FFF2CFBECF4132510509F410
:1031300047C04232510509F0D8C08330910508F0EC
:10314000D4C0FC01EE0FFF1FED56FE4F0190F08141
:10315000E02D80579E4FDC018C9190E01DC03327FD
:1031600021303105E9F02115310579F022303105A2
:10317000F9F02330310509F0B8C0EAEAF7E0E4914C
:103180008E2F90E0EAEAF7E007C0EAEEF7E0E4917C
:103190008E2F90E0EAEEF7E0009709F4A6C0A2CFE8
:1031A000ECEDF7E0E4918E2F90E0ECEDF7E0F4CF5A
:1031B000E8ECF7E0E4918E2F90E0E8ECF7E0ECCF5C
:1031C0008330910508F091C0880F991FFC01E756E4
:1031D000FE4F0190F081E02D89E090E083CF82E105
:1031E00090E0E8E9F7E07ECF8091DC04882309F4E1
:1031F0005ACF853009F457CF8091E80083FD53CF33
:103200008091E80082FD82CF8091E80080FF78CF36
:103210009091F3008091F2002115310519F088306A
:10322000910550F041E0089709F040E08091E800F6
:103230008E778093E80064CF44914093F1003196FB
:10324000215031090196E8CF803809F04EC08091B5
:10325000E800877F8093E8008091D3048093F10099
:1032600092CE811142C01091D6041230F0F58091B7
:10327000E800877F8093E8001093D3040E94D30472
:10328000112311F084E005C08091E30087FDFACF9F
:1032900081E08093DC0442E061EC81E00E94F20472
:1032A00042E261EC84E00E94F20442E261EC82E0DE
:1032B0000E94F20442E260EC83E00E94F2048091FA
:1032C000DC0413C08091D604813079F481E093301E
:1032D00009F080E08093D2041092E9008091E80028
:1032E000877F8093E8000E94D3048091E80083FFE9
:1032F0000AC08091E800877F8093E8008091EB000E
:1033000080628093EB00AA960FB6F894DEBF0FBEE2
:10331000CDBFDF91CF911F910895882321F00E94A6
:10332000370B0C9441150895882339F0909143048C
:10333000982B909343040C9441150895882321F011
:103340000E943E0B0C9441150895882339F090910A
:103350004204982B909342040C94411508958823BD
:1033600009F452C0823871F40E942E0681FF4CC0CD
:1033700089E30E947D0B0E94411589E30E94520B54
:103380000C944115833859F40E942E0680FF3CC0EE
:1033900083E50E947D0B0E94411583E5EFCF8438C1
:1033A00059F40E942E0682FF2FC087E40E947D0BF5
:1033B0000E94411587E4E2CF9CEF980F913AF0F21A
:1033C00090E2980F983050F4877091E001C0990F07
:1033D0008A95EAF7892F0E943E0BD2CF9BE5980F82
:1033E000933020F490E080E00C94180698E5980F54
:1033F000973120F490E080E00C940206803F20F0AA
:103400000E941B080C94F4070895CF93C82F8823BB
:1034100009F4AFC08238C1F40E942E0681FDA9C014
:1034200089E30E947D0B0E9441152FEF81EE94E00D
:10343000215080409040E1F700C0000089E30E94E5
:10344000520BCF910C9441158338A1F40E942E06A3
:1034500080FD8FC083E50E947D0B0E9441152FEFF8
:1034600081EE94E0215080409040E1F700C00000E0
:1034700083E5E5CF8438A1F40E942E0682FD79C051
:1034800087E40E947D0B0E9441152FEF81EE94E0AE
:10349000215080409040E1F700C0000087E4CFCF8A
:1034A0008CEF8C0F813A90F580911D01882301F1FA
:1034B0008091A90487FF1CC0EC2FE695E695E69560
:1034C000F0E0EE55FE4F828190E04C2F477021E0F6
:1034D00030E002C0220F331F4A95E2F78223932384
:1034E000892B81F08C2F0E94520B0E9441150AC03B
:1034F000E4EAF1E08AEA91E02191C21799F38E178C
:103500009F07D1F78C2F0E947D0B9BCF80E28C0F01
:10351000883068F4C77021E030E001C0220FCA95FE
:10352000EAF780914204822B809342048ACFEBE534
:10353000EC0FE33040F4F0E0EA5DFE4F808190E074
:10354000CF910C941806E8E5EC0FE73150F4F0E069
:10355000EE0FFF1FE75DFE4F80819181CF910C94AC
:103560000206C03F30F08C2F0E94E008CF910C94EF
:10357000F407CF9108951F93CF93DF93182FD0E0D6
:10358000C0E0893311F4C0E5D0E0812F0E94051A14
:10359000209731F4812FDF91CF911F910C94AF19B7
:1035A0008FE99FE00197F1F700C000002197F0CF6D
:1035B0000F931F93CF93DF93C62FD42F022FFC01BD
:1035C00082818823A1F06093E0040E94F605909325
:1035D000DF048093DE04C77081E001C0880FCA95C4
:1035E000EAF7DF91CF911F910F910C94A51980916B
:1035F000E004681335C08091DE049091DF040E94DE
:10360000E705883C910560F510E21D0FCD17B9F074
:1036100080E28C0F883040F4C77081E001C0880FD1
:10362000CA95EAF70E949E19183048F481E09D2F50
:10363000977001C0880F9A95EAF70E94A519802F0C
:103640000E94BB1A183098F4D77081E001C0880F2F
:10365000DA95EAF7DF91CF911F910F910C949E19A3
:10366000C77081E001C0880FCA95EAF7F3CFDF91F8
:10367000CF911F910F910895AF92BF92CF92DF9299
:10368000EF92FF920F931F93CF93DF93EC018AE0A9
:10369000A82E2881222309F48CC02130C9F59981F4
:1036A0008A81913021F422960E94BB1A05C0923083
:1036B00029F422960E94051A2196EBCF933021F42B
:1036C00022960E94AF19F8CF943011F02196F4CFD2
:1036D000229630E020E0AE014F5F5F4F8053990BA0
:1036E0008A30910550F02150310930F38FE99FE085
:1036F0000197F1F700C00000F6CFA29EB001A39E93
:10370000700D11249C01260F371F8981EA01E3CF38
:10371000E22FF0E0E650FE4FB490822F869586951A
:10372000869590E0FC01E651FE4FE4902770F12C65
:10373000022E02C0F594E7940A94E2F731E0E32206
:10374000FF24FC01E652FE4FC490D12C022E02C091
:10375000D594C7940A94E2F731E0C322DD24FC013A
:10376000E653FE4F049110E002C0159507952A9587
:10377000E2F701701127E114F10419F081EE0E94C3
:10378000051AC114D10419F086EE0E94051A8B2D7A
:103790000E94BB1ACD2819F086EE0E94AF19EF28BF
:1037A00019F081EE0E94AF19012B09F485CF8CE24C
:1037B0007BCFDF91CF911F910F91FF90EF90DF9022
:1037C000CF90BF90AF9008959F92AF92BF92CF924B
:1037D000DF92EF92FF920F931F93CF93DF9300D06E
:1037E00000D0CDB7DEB77C01DC0113968D919C91A2
:1037F0001497892B39F08C9111969C9189238F3FD6
:1038000009F06DC50F900F900F900F90DF91CF9141
:103810001F910F91FF90EF90DF90CF90BF90AF90EE
:103820009F900895D60116968C9116978823D1F013
:1038300019968D919C910817190739F480914404C9
:10384000909145040817190769F0F60197861487C7
:103850000387C6010E94EC15C60106960E94A715B3
:1038600010924304FFEFAF1ABF0A26E1C20ED11C2B
:103870004EC5C80182519F45409708F024C58FEF7F
:1038800093E00E948B355EEED52ED00E0FEC12E049
:103890008823F9F080912E02877009F4B3CFD70105
:1038A00012968C91882309F4ADCF8091AA0482FDF1
:1038B000A9CF82E00E944616A5CF011534E0130778
:1038C00049F3C8010E948B35811101C0DA940F5F62
:1038D0001F4FD110F2CF19821A821B821C829924A9
:1038E0009A9468014FEFC41AD40AC8010E948B351C
:1038F00089831A82882371F2813009F073C05801DC
:1039000052E0A50EB11CC6010E948B35C82E8A83D9
:10391000882309F4BFCFC5010E948B35D82E8FEFC5
:103920008C0D833068F4580183E0A80EB11CDB8253
:10393000DD2021F0CE0101960E943C1B8501D1CFF4
:103940008BEF8C0D833030F5C8010396DB825C0170
:10395000DD20A1F35801A4E0AA0EB11C0E948B3512
:103960008C83882359F38B819C818130BFEF9B0727
:1039700010F0982F8827E6E0CE1631F0F7E0CF164A
:1039800031F00E943A2ADACF0E94F129D7CF0E9463
:103990005129D4CF24E0C212D1CF580134E0A30E74
:1039A000B11CC80103960E948B35DD2009F472CF4B
:1039B000882309F46FCF8150990B989E9001999EAE
:1039C000300D11244D2D4150550BCA01820F931F0C
:1039D000019708F4B3CFAFE9BFE01197F1F700C04A
:1039E0000000F6CFCE0101960E943C1B5601A6CFE7
:1039F00081E00E947F160E942F164CCF81E00E942A
:103A00003A16F9CF82E0FBCF823009F0CAC4809128
:103A1000820390918303892B09F4C3C426E12C9D72
:103A2000C0012D9D900D11248A5B9B4FDC015096A7
:103A30001C920E94EC15B5C40F3B8CE5180709F4E5
:103A400054C008F43EC0003CACE51A0709F0BFC4FE
:103A500090917903892F8695869586958F5F8F71D2
:103A60009770863008F059C0880F880F880F892B0F
:103A7000809379038091790310C085E00E942A0722
:103A8000809179030E94C80F05CF80917903982F08
:103A9000987F79F0885080937903887F91E009F4CA
:103AA00090E08091790390FB80F9809379030E94E4
:103AB000C80F809179038695869586950E94860623
:103AC000E9CE80917903982F9695969596959530A5
:103AD00040F49F5F990F990F990F8770892B8093FE
:103AE0007903809179038160E0CF8091790380FF31
:103AF00007C08E7F809379030E94C80F80E0DECFDD
:103B000080FDC8CE816080937903813019F489E00B
:103B10008093790380917903CACF90937903AACFD8
:103B2000882309F49BC48189882309F497C4C501BB
:103B3000845B9B4F0E94A71591C4033FFCE51F07C0
:103B400039F188F4083D3CE51307F1F0093D4CE5F7
:103B5000140751F1073D5CE5150709F07FC426E223
:103B600041EE61EE0DC0053F8CE51807C9F0A0F0ED
:103B700027E245EE66EE063FACE51A0709F06EC493
:103B8000C7010E94D81A86CE24E641EE65EEF8CF32
:103B900026E241EE60EEF4CF27E245EE64EEF0CF90
:103BA00026E241EE62EEECCF28E241E0EFCF0136B3
:103BB0003DE5130709F468C4053A4DE5140709F417
:103BC00063C40631ACE51A0709F0A4C4809142042D
:103BD0008A7A91E009F490E09093C2018111F1C0DA
:103BE00089E20E947D0B0E94411554CE8091A90468
:103BF000806207304CE5140709F494C08091A90451
:103C0000806108301C4508F48DC08091A90480644F
:103C100089C00D308CE5180709F499C098F480919B
:103C2000A9048E7F0B30ACE51A0709F47BC08091A4
:103C3000A9048C600C301C4508F474C08091A90460
:103C40008D7F70C08091A9048F7E0F30ECE51E0738
:103C500009F468C08091A904877F00311C4508F4ED
:103C600061C08091A9048F7D5DC00D3F2CE51207D6
:103C700009F475C038F505314CE5140709F481C025
:103C800080F403318CE5180709F477C008F46FC09D
:103C90000E94A4169091A904892F97FB87F9805858
:103CA00041C00B3FACE51A0709F447C008F053C008
:103CB0008091AA0481600A3F1C4509F00EC48093DC
:103CC000AA040BC40130FDE51F0709F466C0B8F46F
:103CD0008091AA048C7F0F3F3CE5130781F380910C
:103CE000AA04836001151D4550F38091AA04982F02
:103CF000909591708E7F892B90FB81F9E0CF0136F2
:103D00005DE5150709F44FC0053A8DE5180709F47C
:103D100051C002301D4509F0E0C360E03FC0809112
:103D2000A90482608093A904D8C38091A904846007
:103D3000F9CF8091A9048860F5CF8091AA048260B0
:103D4000BECF0E94A4168091A9048068EBCF809119
:103D5000A9048B7FE7CF8091AA048E7FB0CF80919A
:103D6000AA048D7FACCF8091A9048F7BDBCF0E940A
:103D7000A4168091A9048F77D5CF8091A904837F61
:103D8000D1CF8091A90482FB992790F921E0922755
:103D900090FB82F990FB83F9C5CF61E08EE090E063
:103DA0000E949F359AC39091A904892F8F7E94FF1A
:103DB0008061B8CF9091A904892F8E7F90FF816098
:103DC000B1CF85E30ECF85E3A2C3816080937403F6
:103DD00061E086950E946B135DCD4DEA53E166EB81
:103DE00073E10E94400756CD46EB53E16DEA73E163
:103DF000F8CF40E453E167E373E1F3CF4FE153E1E0
:103E00006BE273E1EECF47E053E163E173E1E9CFA9
:103E100043E153E167E073E1E4CF4AE553E169E44C
:103E200073E1DFCF61E081E0D5CF65E082E00E9401
:103E3000C01330CD68E086E0FACF64E18FE0F7CFC1
:103E400067E185E1F4CF62E289E1F1CF61E083E2ED
:103E5000C1CF0E94A4162FEF34E34CE02150304034
:103E60004040E1F700C000000E94DC0C81E072C31A
:103E700080E070C3828100811181882369F0C801CC
:103E80000E943E11D82E682FC8010E94E80BB8018D
:103E90008D2D0E94221166C3C8010E94BB0BD82E33
:103EA000F6CF212F2F70D22E107F19F0D29490EFE1
:103EB000D922CC20B9F0DD2069F080E2800F883073
:103EC00010F0011109C080914204D82AD092420416
:103ED0000E944115802F46C080914304D82AD09279
:103EE0004304F6CF802F0E94AF19DD20E9F180E274
:103EF000800F883010F0011104C08D2D0E943E0B00
:103F000003C08D2D0E94370B0E9441152DC0312F0B
:103F10003F70D32E107F103219F0D29480EFD82248
:103F2000002381F0013009F48BC0CC2009F494C047
:103F3000BB2009F469C0F701858180FFCBCF8F706A
:103F4000858362C08091AA0482FF39C0CC2089F1A8
:103F5000DD2039F080914204D82AD09242040E9498
:103F6000411580E00E94051A292D2850330B24307A
:103F7000310510F40E942E06AA20B1F080912E0285
:103F800080FD12C0D70112961C9285958595859566
:103F90000E947F16C7010E94E41B80912E02859526
:103FA000859585950E943A1660E0C7010E94A01190
:103FB00029CC80E00E94AF19DD20B1F29ECFCC2049
:103FC00039F1B11004C0809151028D291EC041E029
:103FD000B41210C082FDC8CF80915102D82AD816E1
:103FE00019F20E94F6059093500280934F02D092EE
:103FF0005102BACF55E0B512E6CF0E942C0B80914A
:104000002B02D812D0922B028D2D0E94A519ACCF75
:10401000B11006C00E942C0B8D2D0E949E19A4CFBA
:1040200081E0B81208C0809142048D2109F49CCF30
:104030000E944C0BEFCF95E0B91609F495CFEACF6B
:10404000CC2029F0A5E0AB1508F48ECFDDCFB4E08D
:10405000BB1508F489CFE0CFBB20F1F2093349F456
:10406000FFEF27EE33E0F15020403040E1F700C091
:104070000000802F0E94AF1977CF812F86958695FB
:10408000837061F0813009F06FCFC8019370C11067
:1040900002C090E080E00E94020666CFC8019370E3
:1040A000C11002C090E080E00E9418065DCF802F12
:1040B000CC2029F00E94E0080E94F40755CF0E940E
:1040C0001B08FACF812F837089F5C1104DCF402F87
:1040D000429546954770440F440F802F8F70042EF1
:1040E00001C0880F0A94EAF7202F207104FF07C04F
:1040F0002FE030E001C0220F4A95EAF7209516958F
:1041000016951370123069F050F43091520211304C
:1041100029F0822B83230E94A01626CF832B822B8B
:10412000FACF282B809152028227F5CF8695CC209A
:1041300011F0812F8170882309F416CF402F42950A
:1041400046954770440F440F802F8F70042E01C096
:10415000880F0A94EAF7202F207104FF07C02FE090
:1041600030E001C0220F4A95EAF720951695169582
:104170001370123069F050F43091DD04113029F0E1
:10418000822B83230E942B16EFCE832B822BFACF18
:10419000282B8091DD048227F5CF1F70CC2029F0D9
:1041A000812F0E947F16802F30CF802F0E949E1972
:1041B000812F0E943A16D8CE023F81F160F4003F71
:1041C000B9F0013F81F0CC2009F46DC0B11082CE6E
:1041D000812F8F7127C0033F41F1043FA1F78091E8
:1041E000AA0482FF2DC0812F8F71CC2011F31AC039
:1041F000CC2079F044E04B1508F4B6CE1F7181E075
:1042000090E001C0880F1A95EAF79091DD048927A4
:10421000B9CF55E05B1508F4A7CEF0CF812F8F7191
:10422000C110C7CF0E947F169FCE80E0CC2009F43A
:10423000A9CF1F7181E001C0880F1A95EAF7A2CFBC
:1042400080912B02CC20D9F00E943E0B80912E024F
:104250008770843041F40E94450B812F8F710E943A
:104260003A16A12C81CE84E08B15D8F31F71812FD3
:104270000E947F1663E0812F0E948A16F2CF9091F0
:104280004204982B9093420494E09B1540F40E94C2
:10429000450B0E944C0B64E0812F8F71EDCF81E0C4
:1042A0000E944616DECFBB2059F0093309F0E1CE5B
:1042B000AFEFB7EEE3E0A150B040E040E1F7D7CE7A
:1042C000812F8F7176CF0031BFE51B0709F490CBAA
:1042D0000131EFE51E0709F064C082E08ACB61E09E
:1042E000C7010E94A0118C01D70112968C918823DE
:1042F000B1F080910C0190910D01019681F066E47E
:10430000C62E64E0D62EB12CA12C992493948091D2
:104310000C0190910D018A159B050CF083CAF701E1
:1043200082818111A6CA0031FFE51F0709F466CB1F
:1043300001312FE5120709F465CB6801E7E5DE1AC4
:10434000FFEFCF16D10409F060F56EE773E08C2D16
:104350000E948910892B29F586E18C9DF0018D9DA5
:10436000F00D1124EA5BFB4F8681813009F04CCBC4
:1043700080917E0390917F03892B99F08091800337
:1043800090918103892B69F080918203909183033E
:104390002091840330918503822B932B892B09F480
:1043A0003DCBF7012281222391F00D3BFCE51F0755
:1043B00009F46BCB08F040CB0B3B4CE5140709F438
:1043C0005CCB80E00C3B5CE5150709F457CBC801DA
:1043D00097558F3F910511F008F0AFCB40910C013C
:1043E00050910D014817590724F490930D018093C3
:1043F0000C0136E1389F5001399FB00C1124F501B2
:10440000EA5BFB4F6F01208BD70112969C9186814E
:10441000992309F485CB128701878F5F86830E94D9
:10442000F605F601968785878091510287838091F2
:10443000430490914204892B80870190F081E02D04
:10444000309741F0D60154966D917C91C501845B03
:104450009B4F09951093450400934404F701828112
:10446000882309F44AC01092E0040330FDE51F07D9
:1044700008F09DCB0A3F2CE5120730F4C8018250AA
:104480009C45449708F09DCB0E94F9119093AA0493
:104490008093A90401315CE5150709F464CC08F0A8
:1044A000E4CB09309CE5190709F44BCC08F0B1CBFB
:1044B0000530BCE51B0709F43CCC08F097CB033072
:1044C000FCE51F0709F42BCC08F02FCC8091A90440
:1044D000816002301C4509F425CC6091A90410913B
:1044E000AA0484E090E00E949F35612F82E290E070
:1044F0000E949F350E94A416CDC90631BCE51B075A
:1045000009F064C08091C20181115DCC89E20E94F2
:10451000520B69CB0A35EDE51E0709F4A7CC58F418
:1045200001152CE5120709F494CC0E3D1C45A1F4AD
:104530000E94DE13AFC90B354DE5140709F498CC82
:104540000C351D4549F48091AA0482FB882780F927
:1045500091E089270E946216F70186819781009772
:1045600009F488CC0E94A4098C01F701C280B580AF
:10457000B2943FE0B32280912E028770C1F0AC2C40
:10458000CC20B1F0812F807F803421F080E2800F39
:10459000883068F08091AA0482FD09C082E00E9400
:1045A000461680912E028770AA24A3948111A12C13
:1045B000912E92942FE09222FBE0F91508F4D4CCCE
:1045C000E92DF0E0E951FA4C0C9407358091420452
:1045D00082720C3C9CE5190709F41FCC08F05FC0FF
:1045E000063CBCE51B0709F404CCB8F5033CFCE52C
:1045F0001F0709F4F2CB18F5023C1C4509F0ACCFBB
:104600008091740380FFE1CB8E7F8093740360916F
:1046100074037091750380917603909177030E94E3
:10462000601210928F02BFEFE0E7F2E0B150E0407D
:10463000F040E1F700C000000E94000D2BC9043CCF
:104640004CE5140709F4D0CB053C1C4509F084CF98
:1046500047E353E160E473E1C4CB093C9CE51907EF
:1046600009F4D1CB70F4073CBCE51B0709F4C6CBB9
:104670004BE253E16FE173E1083C1C4509F4B1CB17
:104680006BCF0A3CFCE51F0709F4C2CB49E453E1B8
:104690006AE573E10B3C1C4509F4A3CB5DCF013DFA
:1046A0003CE5130709F4C9CB98F40E3C5CE515070B
:1046B00009F4BBCB08F4B6CB0F3C9CE5190709F411
:1046C000B9CB6EE089E0003D1C4509F4B0CB44CF86
:1046D000043DBCE51B0709F4B6CB60F4023DFCE5E4
:1046E0001F0709F4ADCB61E088E1033D1C4509F4E7
:1046F00071CB32CF053D3CE5130709F4A7CB0D354F
:104700001D4509F4C7C828CFCF93DF938091E601F8
:10471000807FA1F48091E301882381F080912A02B7
:10472000D091E9016091E1017091E201A091E40171
:10473000B091E501C62FC723D81303C0DF91CF91F5
:10474000089590E0109711F0CF3F19F4019687700B
:10475000F3CF9C0143E0220F331F4A95E1F7F901A3
:10476000E651FE4F41814713F1CF40814613EECF12
:1047700042814111EBCF438154814A1B5B0B483C82
:10478000510520F78091E6018F7080618093E601EA
:10479000F901E151FE4F80818F708061808381EE4D
:1047A00091E00E94E41BDF91CF910C94B10BAF928A
:1047B000BF92CF92DF92EF92FF920F931F93CF930E
:1047C000DF93CDB7DEB765970FB6F894DEBF0FBEA7
:1047D000CDBF8C0185E0F801DE01519601900D926C
:1047E0008A95E1F7F801E28061EEA62E61E0B62E2F
:1047F0006091E4017091E5016115710509F468C1EA
:104800009091E1014091E201892F84238F3F09F4C7
:104810005FC120813181C380D480F090E301F60133
:10482000E61BF70BFF2009F41DC18091E601582F0C
:10483000507FE83CF10508F0D0C0511181C0FE2C3A
:1048400043132BC0921329C06091E7017091E801D6
:10485000F8014681578164177507F9F4E1101DC00E
:104860008F7080618093E601C5010E94E41B8091F6
:10487000E601F80185838F2D65960FB6F894DEBFAB
:104880000FBECDBFDF91CF911F910F91FF90EF90A1
:10489000DF90CF90BF90AF900895CD2829F0822F60
:1048A00083238F3F09F02FC180E0F82FF170DF2EB6
:1048B00080FF3CC080912A024091E901841315C019
:1048C000298B3A8B89899A890E946D11292F22950B
:1048D0002F702230F8F0243020F59F70F9F0F801A5
:1048E0009581907FD9F4D12C1FC090E0FC0153E05A
:1048F000EE0FFF1F5A95E1F7E651FE4F5181351338
:1049000006C05081251303C05281E5120FC00196E5
:104910008770D4CF9F7011F0882329F3805E883090
:1049200010F3C8010E94E41BFD2CA5CFEE2009F472
:10493000A2CF8091E60181608093E601F12C9BCFAC
:1049400043131BC0921319C04091E7015091E80135
:10495000F801268137814217530779F4E1100DC021
:104960008583C8010E94E41B88E0F801A1EEB1E054
:1049700001900D928A95E1F77ECFC8010E947911CE
:10498000882339F1EE2029F18091E6018032A0F0F0
:104990002091E1013091E2013A8729871B86DD866B
:1049A000CC868E878091E7019091E801988B8F8764
:1049B000CE0109960E94E41B88E0F801A1EEB1E067
:1049C00001900D928A95E1F70E948423FF24F394CD
:1049D00052CFC8010E94E41BF9CF51110AC081EEE9
:1049E00091E00E94E41B88E0F50111928A95E9F7B5
:1049F000A5CF431318C0921316C04091E701509100
:104A0000E801F801268137814217530761F4E1106C
:104A10000AC08583C8010E94E41B88E0F501119259
:104A20008A95E9F728CFC8010E947911882389F275
:104A3000EE2079F28091E601803208F4BDCF20911A
:104A4000E1013091E2013A8329831B82DD82CC822D
:104A50008E838091E7019091E80198878F83CE0142
:104A60000196A8CFE83CF105C0F6FE2CEE2009F433
:104A7000B0CF43131FC092131DC02091E7013091A6
:104A8000E801F801868197812817390799F49091F8
:104A9000E60190FD69CF907F09F466CF8091E60131
:104AA0008583903F09F45DCF982F907F905F8F7042
:104AB000892B56CFC8010E94791181117DCF809139
:104AC000E60181608093E601C8010E94E41BD3CE19
:104AD000EE2009F47ECFC8010E947911F82E8823B8
:104AE00009F477CF88E0F801A1EEB1E001900D92D2
:104AF0008A95E1F78091E1019091E2010E946D11A8
:104B00000E948423B8CE81E08E25CFCECF93DF9351
:104B1000CDB7DEB760970FB6F894DEBF0FBECDBF3E
:104B200029873A874B875C876D877E878F87988B2D
:104B3000CE0109960E94D723811112C088E0FE01A0
:104B40003996DE01119601900D928A95E1F78C85D8
:104B50009D85892B29F089859A8589238F3FA9F521
:104B600080912A029091E90189131CC060960FB6CA
:104B7000F894DEBF0FBECDBFDF91CF91089593E0D3
:104B8000AA0FBB1F9A95E1F7A651BE4F98E0FE0110
:104B9000319601900D929A95E1F78093E9010E9478
:104BA000B10BDECFB8E08B9FC001112486519E4F20
:104BB0000E94D7238823D1F280912A0290E00196A7
:104BC0008770992780932A02CBCFA091E901B0E0AA
:104BD000CD0101968770992720912A02281719067E
:104BE00071F60E94A4161092E90110922A0288E040
:104BF000E1EEF1E0DF011D928A95E9F7B1CF0F9365
:104C00001F93CF93DF938091B903E091B803CCE079
:104C100081111AC0DF91CF911F910F910895D1E0BA
:104C2000DE0FD093B8030E2F10E0EC9FF00111249B
:104C3000E654FC4F83819481892B29F080819181F6
:104C400089238F3F51F4ED2F8091B903E81738F392
:104C50001092B9031092B803DDCFC09FD001C19F5D
:104C6000B00D1124A654BC4F16968D919C911797A8
:104C7000892B29F418968D919C91019651F42081ED
:104C800031814281538164817581868197810E943F
:104C90008625C09FF001C19FF00D1124E654FC4F02
:104CA0001482138210924304CECF109241041092CA
:104CB000400410921C0180913F0480933E040E94A6
:104CC00068060C94FF253F924F925F926F927F92FD
:104CD0008F929F92AF92BF92CF92DF92EF92FF920C
:104CE0000F931F93CF93DF93C0913E0497E0892EDB
:104CF00001E010E02CE0322E3EEF932E442443944A
:104D000080913F048C1315C00E94FF25DF91CF9145
:104D10001F910F91FF90EF90DF90CF90BF90AF90D9
:104D20009F908F907F906F905F904F903F900C94EA
:104D30006806D0E0FE01EE0FFF1FEA5CFB4F8081AA
:104D40009181889ED001899EB00D1124A65EBB4F33
:104D500014962C911497211157C05090B903EAEB87
:104D6000F3E030E020E0712C5D01251508F04AC029
:104D7000E284F384D501CD90DC906FEF7FEF612C5E
:104D8000462D50E0DA01AA0FBB1FAC0DBD1D0D90E2
:104D9000BC91A02D109731F0EA16FB0609F4BA0178
:104DA0006394EECF6F3F7607A1F1D80102C0AA0F3E
:104DB000BB1F6A95E2F77A2AB80102C0660F771F17
:104DC0006A94E2F7AB014150510974161506F9F4E3
:104DD000329EF001339EF00D1124E654FC4F889E64
:104DE000D001899EB00D1124A65EBB4F12962D9165
:104DF0003C91139737832683908291829187808795
:104E000015964C920E943A062196C37079CF14826F
:104E100013822F5F3F4F3C96A8CF2F923F924F9225
:104E20005F926F927F928F929F92AF92BF92CF923A
:104E3000DF92EF92FF920F931F93CF93DF93CDB743
:104E4000DEB769970FB6F894DEBF0FBECDBF498BB2
:104E50005A8B6B8B7C8B8D8B6111109243041D865A
:104E60001E861F86188A85E0FE017196DE0119965E
:104E700001900D928A95E1F78091AA0482FD1CC0F1
:104E80000E94F60520912C0230912D02821B930B7B
:104E90008838934120F080912E0282FFFEC10E944B
:104EA000F60520914F0230915002821B930B8838F7
:104EB000934110F00E942C0B8C859D85892B31F03D
:104EC00089859A8589238F3F09F0D3C129853A8541
:104ED0004B855C856D857E858F8598890E948625AA
:104EE000C2C048EFC4164CE5D40629F4882379F0F3
:104EF0000E945526EBCF69EFC6166CE5D60639F44D
:104F0000882329F080911C018111F2CFC2C10AE1EE
:104F100014E0E12CB12CA12C88248394912C2EEF49
:104F2000522E44244394F8014081518166246A94AE
:104F3000762C20E0822F90E0FC01EE0FFF1FE40FA3
:104F4000F51F608171816115710531F0C616D706B4
:104F500009F43C012F5FEECFF12CFFEF6F167F06B7
:104F600009F443C0F8014481F0901C018F2D4111D8
:104F700080E0F82FF170FF2EF801258086819B8557
:104F8000992309F406C1FF2009F403C1211013C0BD
:104F9000A40101C0440F6A94EAF7842B86838091B0
:104FA000B6039091B703C29730F462E370E0709358
:104FB000B7036093B603C40102C0880F991F2A95F6
:104FC000E2F70197F80126812817190671F48091FC
:104FD000400490914104009709F45EC00E94E705E7
:104FE000C39708F459C0F8014482EF28FFEFAF1AC5
:104FF000BF0A095F1F4F24E0A216B10409F093CF46
:105000008B85882309F420C1EE2009F41DC10E947C
:10501000F60590934104809340048091B903883051
:1050200010F591E0980F9093B90398E0FE0139963E
:10503000DE01119601900D929A95E1F73CE0839F75
:10504000C001112486549C4F28E0FE013196DC01FA
:1050500001900D922A95E1F72FEF3FEFFC01318788
:105060002087D386C28669960FB6F894DEBF0FBE3E
:10507000CDBFDF91CF911F910F91FF90EF90DF9007
:10508000CF90BF90AF909F908F907F906F905F90E8
:105090004F903F902F90089580913E0450913F048F
:1050A000982FF0E0E0E0851314C090933E040E17B3
:1050B0001F0709F49ACF90E0FC01EE0FFF1FEA5C96
:1050C000FB4FB182A08201968370992780933F04A1
:1050D0008CCF282E312CF101EE0FFF1FEA5CFB4F25
:1050E00020813181F7E0F29FD001F39FB00D1124B0
:1050F000A65EBB4F2D913C911197398F288F40E0D0
:1051000020E030E0E32FF0E0EE0FFF1F688D798D97
:10511000E60FF71F6080718061147104E1F0F801FF
:105120000190F081E02DFF8BEE8B20E005C066162C
:10513000770609F44F2D2F5FE22FF0E0EE0FFF1FEF
:105140006E897F89E60FF71F608171816115710596
:1051500071F73F5FD7CF4423C9F0F801231708F058
:10516000FD0144820E171F0721F490933E04F42E94
:105170003CCF981305C0AE17BF0711F49F5F937023
:1051800091012F5F3F4F822F83708DCFF0E0E0E0E1
:10519000F7CF90E021101FC0B40102C0660F771F47
:1051A0002A95E2F79B01215031098217930731F4C8
:1051B000442309F447C0C5010E943A06C40101C056
:1051C000880F6A94EAF7982F9095F80186818923D1
:1051D0008683F22C0ACF9C01062C02C035952795B8
:1051E0000A94E2F7A90141705527BC016150710989
:1051F00086239723892B11F5452B01F1F801828134
:105200009381892BC1F01B821C821D821E825982D0
:105210005A820E94F6058160582F9D838C83F80185
:10522000828193818F83988729813A814B816D8117
:105230007E810E948625F8011582C0CFF22FF17081
:105240002F2EBCCF2F2CBACF90913E0480913F04DB
:10525000981731F00E946326EE2009F437CE03CF71
:105260000E94FF2510924104109240040E9468069B
:10527000F3CF61E0CE0109960E94A0116C018B85ED
:10528000F7EFCF16FCE5DF0609F02BCE882309F4F3
:105290003ECE81E080931C0119CE82E00E9446162A
:1052A000FECD0F931F93CF93DF9300D000D00F92CA
:1052B000CDB7DEB78C019093B3038093B203011591
:1052C00080E2180720F5802F0E94AF19C8010E94C4
:1052D000180C9801205E31092830310510F0012B9F
:1052E00059F40F900F900F900F900F90DF91CF9186
:1052F0001F910F910C949E190F900F900F900F908B
:105300000F90DF91CF911F910F910C948D198EEF1B
:1053100089838A831B820E94F6058160782F9D8392
:105320008C8349815A816B818D810F900F900F90F2
:105330000F900F90DF91CF911F910F910C940D273B
:105340000F931F93CF93DF938C01EB016EE773E014
:105350008C2F0E948910892B71F4DD27C658DC4FF1
:105360008881F80110821882833009F148F4813075
:1053700059F0823081F0DF91CF911F910F91089504
:105380008430D1F08530B9F780917E0390917F030E
:10539000009789F306C08091800390918103009764
:1053A00099F3DF91CF911F910F910C945129809126
:1053B000820390918303F3CF8091840390918503BE
:1053C000009779F720917E0330917F0380918003CD
:1053D0009091810321153105D9F2009711F7C90188
:1053E000E0CF0F931F93CF93DF9300D000D00F92A5
:1053F000CDB7DEB78C019093B3038093B203011550
:1054000080E21807E8F4C8010E94180C9801205E99
:1054100031092830310518F00115110571F40E9489
:10542000A519802F0F900F900F900F900F90DF9184
:10543000CF911F910F910C94051A0E949419F1CFEE
:105440008EEF89838A8381E08B830E94F6058160D9
:10545000782F9D838C8349815A816B818D810F9038
:105460000F900F900F900F90DF91CF911F910F91A0
:105470000C940D27CF93DF93EC010E94F129CE010C
:10548000DF91CF910C9451290F931F93CF93DF930A
:105490008C01862F6EE773E00E948910892BC9F476
:1054A000C0917E03D0917F03209799F0F80180810D
:1054B000833069F4CE010E943A2ACE010E943A2A32
:1054C000CE01DF91CF911F910F910C943A2A843035
:1054D000B8F7DF91CF911F910F9108950F931F930C
:1054E000CF93DF938C01EB016EE773E08C2F0E946A
:1054F0008910892B09F064C0FE01FF27D8018C9127
:10550000E658FC4F8130D9F419969C91199799234C
:1055100011F080830CC01A969C919923D1F382E0FC
:10552000808380918003909181030097D9F48091CA
:105530007E0390917F03009709F442C013C082302C
:10554000E9F519968C91199781112DC01A968C91B5
:1055500081110EC083E08083809182039091830348
:10556000009719F1DF91CF911F910F910C94F129C0
:1055700084E080838091840390918503009791F764
:1055800080917E0390917F030097F9F00E943A2A60
:105590008091800390918103009721F780917E0391
:1055A00090917F03DFCF85E0808380917E0390918F
:1055B0007F03009729F00E943A2AF0CF86E080838B
:1055C000DF91CF911F910F91089580918003909169
:1055D0008103B1CF90E080E00E949935893E9E4FD3
:1055E00011F40C94E01180E008950E94EA2A8111E0
:1055F0000AC00E94DE1380917903847089628093CF
:1056000079030E94C80F86E090E00E948B3580935A
:105610007903803320F087708862809379039091BA
:105620007903892F817090FF04C0892F8695869514
:1056300086950C9486061F920F920FB60F92112436
:105640002F933F934F935F936F937F938F939F938A
:10565000AF93BF93CF93DF93EF93FF93D091E90084
:10566000DF708091EC00C82FC17080FDC0E81092FF
:10567000E9008091F000877F8093F00078940E9489
:10568000B9161092E9008091F00088608093F000D4
:10569000CD2BCF70C093E900FF91EF91DF91CF91B7
:1056A000BF91AF919F918F917F916F915F914F913A
:1056B0003F912F910F900FBE0F901F9018951F9242
:1056C0000F920FB60F9211242F933F934F935F9336
:1056D0006F937F938F939F93AF93BF93EF93FF93BA
:1056E0008091E10082FF09C08091E20082FF05C045
:1056F0008091E1008B7F8093E1008091DA0080FF50
:1057000024C08091D80080FF20C08091DA008E7F75
:105710008093DA008091D90080FF9DC080E189BD2F
:1057200082E189BD09B400FEFDCF81E08093DC04F5
:105730008091AE04811109C00E9431040E942405A9
:105740008091E20084608093E2008091E10080FF1C
:1057500017C08091E20080FF13C08091E2008E7F2D
:105760008093E2008091E20080618093E20080916A
:10577000D80080628093D80019BC85E08093DC0457
:105780008091E10084FF2BC08091E20084FF27C05C
:1057900080E189BD82E189BD89B5982F917080FF34
:1057A000FBCF8091D8008F7D8093D8008091E1005D
:1057B0008F7E8093E1008091E2008F7E8093E200F3
:1057C0008091E20081608093E2008091D30488237D
:1057D00009F447C084E08093DC048091DC0480916C
:1057E000E10083FF27C08091E20083FF23C0809106
:1057F000E100877F8093E10082E08093DC041092D7
:10580000D3048091E1008E7F8093E1008091E200DB
:105810008E7F8093E2008091E20080618093E200BD
:1058200042E060E080E00E94F2048091F000886035
:105830008093F000FF91EF91BF91AF919F918F9175
:105840007F916F915F914F913F912F910F900FBE7C
:105850000F901F90189519BC1092DC041092AE04A2
:1058600074CF8091E30087FD93E09093DC04B5CF83
:1058700078941F921FB61F9211248F939F93AF931A
:10588000BF938091A5049091A604A091A704B09124
:10589000A8040196A11DB11D8093A5049093A604B0
:1058A000A093A704B093A804BF91AF919F918F914B
:1058B0001F901FBE1F9018951F921FB61F92112494
:1058C0008F939F93AF93BF938091A404811113C0D2
:1058D0008091A5049091A604A091A704B091A8047A
:1058E0004196A11DB11D8093A5049093A604A09399
:1058F000A704B093A804BF91AF919F918F911F907F
:105900001FBE1F901895CDB7DEB7E4970FB6F89479
:10591000DEBF0FBECDBF84B7877F84BF0FB6F894BC
:10592000A89580916000886180936000109260006B
:105930000FBE80E890E00FB6F894809361009093DA
:1059400061000FBE85B7806885BF85B7806885BF59
:1059500088E499E09093A1018093A0010E949D109A
:105960000E9407120E9431040E9424058091E200E7
:1059700084608093E20078948091DC048823A1F015
:105980001091E9001F709091EC00892F817090FDBB
:1059900080E8182B1092E9008091E80083FD0E94B6
:1059A000B9161F701093E90082E084BD93E095BDA5
:1059B0009AEF97BD80936E000E94E011811102C0A2
:1059C0000E947A1007E511E0E6E6EE2EE1E0FE2EF9
:1059D000D8018D918D018F3F11F00E944A09E01688
:1059E000F106B1F706E611E07BE6E72E71E0F72E4F
:1059F000F80181918F018F3F11F00E944A09E01652
:105A0000F106B1F78AE0E1E7F2E0DF01282F1D920D
:105A10002A95E9F7E6E5F2E0DF011D928A95E9F7BC
:105A20000E94EA2A811102C00E94DE1382E090E007
:105A30000E948B35809361020E94F9119093AA0411
:105A40008093A9040E944814EFE3FCE93197F1F731
:105A500000C000000E9448148091710280FF08C0BD
:105A60006FEF7FEF90E080E00E94BD350E94DC0C7C
:105A700083E090E00E948B350E94A016279A2F9811
:105A80008AE08093800089E1809381008FEF9FEF0F
:105A900090938700809386000E94F52A0E94F52A41
:105AA00080916002811133C00E94EA2A811104C0F2
:105AB0000E94DE130E94CE1388E090E00E9493358E
:105AC00060937403709375038093760390937703C8
:105AD0006E7F71F40E94CE1388E090E00E949335AF
