:100000000C946C030C94A4030C94A4030C94A4030C
:100010000C94A4030C94A4030C94A4030C94A403C4
:100020000C94A4030C94A4030C94922C0C944E2CCA
:100030000C948F2D0C94A4030C94A4030C94A4038F
:100040000C94A4030C94A4030C94A4030C94A40394
:100050000C94A4030C946B2D0C94A4030C94A40393
:100060000C94A4030C94A4030C94A4030C94A40374
:100070000C94A4030C94A4030C94A4030C94A40364
:100080000C94A4030C94A4030C94A4030C94A40354
:100090000C94A4030C94A4030C94A4030C94A40344
:1000A0000C94A4030C94A4030C94A403050109026A
:1000B000A10185020901A100050919012905150001
:1000C00025019505750181029501750381010501E1
:1000D000093009311581257F950275088106093897
:1000E0001581257F950175088106050C0A380215D2
:1000F00081257F950175088106C0C005010980A191
:1001000001850319012AB700150126B7009501756D
:10011000108100C0050C0901A101850419012AA064
:1001200002150126A002950175108100C005010984
:1001300006A1018506050719E029E71500250195A7
:1001400008750181020507190029EF1500250195A1
:10015000F0750181020508190129059505750191C0
:1001600002950175039101C00660FF0961A10109B3
:1001700062150026FF0095207508810209631500AD
:1001800026FF00952075089102C005010906A1010E
:10019000050719E029E71500250195087501810279
:1001A0009501750881010507190029FF150026FF33
:1001B0000095067508810005081901290595057542
:1001C000019102950175039101C00000000000003B
:1001D000000000000000000000000000000000001F
:1001E00000000000000000000000000000007E0F82
:1001F00000D4FFFFFFC700000078000000000000EF
:1002000000002A2B28000000000000000000000071
:10021000000000000029000000002C1E34202122D4
:1002200024342627252E362D3738271E1F2021223D
:10023000232425263333362E37381F0405060708B6
:10024000090A0B0C0D0E0F101112131415161718A6
:10025000191A1B1C1D2F3130232D350405060708E4
:10026000090A0B0C0D0E0F10111213141516171886
:10027000191A1B1C1D2F3130354CFD377A585A0086
:100280000004E6D6B4460200210116000000742FD7
:10029000E5A3E002D5013D5D003D8889C65436C323
:1002A000174FE4E3D305C75A3CEA4085414CF512A9
:1002B0005C622F38BBE0B85DBFCAABC464DCE3D678
:1002C00031C603B4358114546DE29F6E63B44405A6
:1002D0000516ECF9DAF09B9C585004DA9FDD59F8CA
:1002E0002381D05708274B840834190E2226095E33
:1002F0007ABAABB6DEE045DC3CD4759590CC23F7FA
:1003000001EC4DFE8D385F52F821B1A81C8B476976
:10031000FF09BA406B33E5585217F97DCFD80AAAC6
:100320002E21304B0E86240A35C82B07BB5A5DBEE2
:10033000125ED7725906755A20B9DE2CDEE42042CF
:10034000B8C0A0C93E798391709E4BE857B01503A1
:100350000A268936DC8BEC8CA6CD21E792B8BA3C14
:100360009AD20C1F21D346008803FDC90733E8AB9E
:10037000C975EC3F3058A84EC6580E422CD8ED65D2
:10038000C1992B68CE8D83B782EC599373D3B44D4A
:10039000B95CC4487861CD9EA376351A75F9597257
:1003A0005BB3E70D39C71EBBDF33BE1F71B051C051
:1003B000BFA42F54C0B350054A1AD22E5CB9911D68
:1003C000E117637F1026E848FBA31155DE4FDFF2EB
:1003D000F0F5249398F2000000006CF275D91A2809
:1003E000F7A80001D902D6050000F4EE5089B1C487
:1003F00067FB020000000004595A000101010101DD
:1004000001010101020202020202020202030303CD
:10041000030303030304040404040404050505059D
:10042000050606060606070707070708080808095D
:100430000909090A0A0A0B0B0B0C0C0C0D0D0D0E09
:100440000E0E0F0F0F10101111111212131314149E
:10045000151516161717181819191A1A1B1B1C1D13
:100460001D1E1E1F2020212222232424252626276C
:100470002829292A2B2C2D2D2E2F3031323233349E
:1004800035363738393A3B3C3D3E3F4041424344A4
:1004900045464748494A4C4D4E4F50515354555686
:1004A00058595A5B5D5E5F616264656668696B6C32
:1004B0006D6F7072737577787A7B7D7E80828385AD
:1004C00087888A8C8E8F91939596989A9C9EA0A2ED
:1004D000A3A5A7A9ABADAFB1B3B5B7BABCBEC0C2F7
:1004E000C4C6C9CBCDCFD1D4D6D8DBDDDFE2E4E7BB
:1004F000E9EBEEF0F3F5F8FAFDFF29001E001F000E
:1005000020002100220023002400250026002700CF
:100510002D002E0035002A002B0014001A000800C0
:10052000150017001C0018000C00120013002F000B
:10053000300031000000E000040016000700090050
:100540000A000B000D000E000F0033003400000005
:1005500028000000E10000001D001B00060019003B
:100560000500110010003600370038000000E500DB
:100570000151E000E300E200000000000000000084
:100580002C0000000000E60000006500E400000010
:10059000A5003A003B003C003D003E003F0040000B
:1005A0004100420043004400450049004C0039002E
:1005B00001000100010001000100010001004600EE
:1005C0004700480052000100010000000100AA009D
:1005D000A900A80001000100550054004A004B008A
:1005E00050004F0000005800000001000000010012
:1005F0000100010001000100570056004D004E00AF
:100600005100000001000100010001000100000094
:1006100000000000000001000000000001000000D8
:1006200001000100000009025B00030100A0FA09BB
:100630000400000103010100092111010001224011
:1006400000070581030800010904010002030000FE
:100650000009211101000122220007058203200068
:100660000107050303200001090402000103000043
:100670000009211101000122BC00070584032000AC
:10068000011201000200000008D445210001000110
:100690000203011C037600690061006C003A0066E9
:1006A0000036003400630032006200330063000053
:1006B0000012036F006D006E006900680068006B37
:1006C00000620000000C03530061006C00760061C2
:1006D000000000040309040011241FBECFEFDAE07C
:1006E000DEBFCDBF04B603FE18C080913C069091DA
:1006F0003D06A0913E06B0913F068730904BA74043
:10070000B04B59F410923C0610923D0610923E06F2
:1007100010923F06E0E0F8E3099512E0A0E0B1E0B6
:10072000E0E2FEE602C005900D92AA3AB107D9F7C1
:1007300026E0AAEAB2E001C01D92AC33B207E1F7AD
:100740000E94B62D0C94DA360C9400009091360677
:10075000937061F081110BC09460909336061092F3
:1007600015018091350681608093350608958031AA
:1007700010F09C63F2CF880F880F982BEECF9091EA
:100780003606937071F08093370660933806453BC8
:1007900008F044EB409339068091350681608093E0
:1007A00035060895E8EDF0E080818E7F8083109219
:1007B000E2001092DA001092E100A0EEB0E08C911D
:1007C00081608C9380818F77808319BCA7EDB0E026
:1007D0008C918E7F8C9380818F7E80831092D50543
:1007E00008952091E4003091E50095E6A90120915B
:1007F000EC00822F817020FF06C08091E80080FF0E
:1008000006C080E008952091E80022FD1AC0809182
:100810000306882389F0853089F08091EB0085FDFF
:100820000FC02091E4003091E50042175307F9F220
:100830009150E1F684E0089582E0089583E0089500
:1008400081E00895EF92FF920F931F93CF937C0165
:100850008B010E94F103C82F811117C08091E8001D
:1008600085FD0BC08091E8008E778093E8000E94A0
:10087000F103882399F3C82F08C0F70181917F0104
:100880008093F1000150110949F78C2FCF911F91EE
:100890000F91FF90EF900895CF93FC018091030694
:1008A000843001F5C091E900CF702091EC00922FC7
:1008B000917020FD90E8C92B82E08093E90080913F
:1008C000E80080FF0CC050E040E060E270E0CF0143
:1008D0000E9422048091E8008E778093E800CF7018
:1008E000C093E900CF9108958091FB0587FF13C065
:1008F0008091E80082FF06C08091E8008B778093AA
:10090000E80004C0809103068111F2CF0895809120
:1009100003068823D9F38091E80080FFF8CF809107
:10092000E8008E77ECCF982F9093E900242F762F54
:1009300050E0891731F07091EC002091ED0050915A
:10094000F00021FD07C09F5F973071F78093E900A9
:1009500081E008953091EB003E7F3093EB003091C1
:10096000ED003D7F3093ED003091EB00316030932E
:10097000EB007093EC002093ED005093F000209179
:10098000EE0027FDE0CF80E00895CF92DF92EF9256
:10099000FF920F931F93CF93DF93C8EDD0E0888130
:1009A0008F7E8883E7EDF0E080818160808384E042
:1009B00082BF81E08093D50588818E7F888302EE97
:1009C00010E0F80110821092DA0081EEC82ED12CCE
:1009D000F601108288818F77888388818068888378
:1009E00088818F7D888319BC109203061092FA05C6
:1009F0001092F9051092F80590EEE92EF12CF7010E
:100A000080818B7F808388818160888342E060E081
:100A100080E00E949304F60180818E7F8083F8013C
:100A2000808181608083808188608083F7018081FC
:100A30008E7F8083888180618883DF91CF911F9131
:100A40000F91FF90EF90DF90CF900895FC0180917F
:100A500001069091020686179707A0F061157105AF
:100A600029F49091E8009E779093E80090E061155A
:100A7000710551F4911108C08091E80082FF34C0E3
:100A800080E00895BC01F2CF809103068823C1F174
:100A90008530C1F18091E80083FD30C08091E8008D
:100AA00082FDEACF8091E80080FFE1CF8091F300E2
:100AB0002091F200382F6115710519F028303105A9
:100AC00058F091E02830310509F090E02091E800DD
:100AD0002E772093E800CBCF81918093F100615075
:100AE00071092F5F3F4FE7CF80910306882341F0C4
:100AF000853041F08091E80083FFBECF81E008950A
:100B000082E0089583E0089508958091D7050895BF
:100B10009C014FB7F8948091CC059091CD05A091A0
:100B2000CE05B091CF054FBF821B930B08952FB711
:100B3000F8948091CC059091CD05A091CE05B0910F
:100B4000CF052FBF08952091C9053091CA052817F8
:100B5000390771F09093CA058093C905E091C705E4
:100B6000F091C805309721F00084F185E02D0994BB
:100B700008952091C5053091C6052817390771F0F1
:100B80009093C6058093C505E091C705F091C8050F
:100B9000309721F00680F781E02D09940895E091C7
:100BA000C705F091C805309721F00190F081E02D44
:100BB000099480E00895DC016091650580916605E7
:100BC000962F891301C00895292F30E0F901EE0F07
:100BD000FF1FE35AFA4F408151814A175B07A1F486
:100BE00087E08A9FA0018B9F500D11244F5B5A4FC5
:100BF00081E0FA0184839613E6CF2F5F3F4F237085
:100C000033272093650508952F5F3F4F922F9370F0
:100C1000D8CF1092DE041092DD04E1E4F5E0858186
:100C2000811102C014821682379685E0ED35F807EF
:100C3000B1F7089581152CE5920741F42091D7046E
:100C40003091D804232B11F490E080E008958F9226
:100C50009F92AF92BF92EF92FF920F931F93CF9309
:100C6000DF938630B8F5811136C090918000977F70
:100C7000909380002F98A0918600B0918700282F34
:100C800030E00E94303625E030E040E050E00E9445
:100C9000E23589019A0180918600909187006CE08D
:100CA00070E00E94BA3560177107D8F0C80169E09A
:100CB00070E00E94BA3570938D0060938C00DF91D4
:100CC000CF911F910F91FF90EF90BF90AF909F90A9
:100CD0008F90089585E090918000986090938000B7
:100CE000CACF8091860090918700E0908600F090B6
:100CF0008700E0918600F0918700C6E0D0E0BE0159
:100D00000E94BA35060F171F211D311D48015901D8
:100D100085E0880C991CAA1CBB1C8A95D1F7C701D9
:100D2000BE010E94BA359F0150E040E0260F371FF8
:100D3000411D511DC501B4010E94E23549015A010E
:100D4000E0918600F0918700CA01B9010E94AA359E
:100D50009B01AC01DF010E943F369B01AC01C50144
:100D6000B4010E94AA352FE09695879577956795EF
:100D70002A95D1F7009186001091870030E020E09D
:100D8000061717072807390708F095CF60918600E6
:100D90007091870090CF282F220F220F220F909161
:100DA000A0049770922B9093A004987F21E009F4FF
:100DB00020E09091A00420FB90F99093A0040C9463
:100DC0002706FA01811101C0FB010994EFEBF3E062
:100DD000818360834283339694E0E03AF907C1F758
:100DE0000895FC01EE0FFF1FE80FF91FE154FC4FBF
:100DF0006183408322830895E6E3F6E0248130E1B5
:100E0000231B08F420E024838091350681608093C1
:100E100035060895E6E3F6E0248130E1230F08F477
:100E20002FEF2483809135068160809335060895E5
:100E3000E6E3F6E0438120E1421B08F440E08181D3
:100E4000628190E00C94BF03E6E3F6E0438120E189
:100E5000420F08F44FEF8181628190E00C94BF0350
:100E6000E6E3F6E0628120E1621B08F460E0818144
:100E7000438190E00C94BF03E6E3F6E0628120E159
:100E8000620F08F46FEF8181438190E00C94BF03FF
:100E9000E6E3F6E08181438162818850990B0C94EE
:100EA000BF03E6E3F6E0818190E04381628108962A
:100EB0000C94BF038091360686958695815009F47F
:100EC0008FE00C94A60380913606869586958F5FF9
:100ED000803108F081E00C94A603EF92FF920F930B
:100EE0009701201B31092F3F310519F010F02FEF2A
:100EF00030E02095382F320F08F43FEF832F0F9109
:100F0000FF90EF900895EF92FF920F939701201BAF
:100F100031092F3F310519F010F02FEF30E0322F5B
:100F20003095482F430F08F44FEF842F620F0F9135
:100F3000FF90EF900895EF92FF920F93972F09344F
:100F400038F4B701601B71096F3F710519F010F09B
:100F50006FEF70E0485F5F4F4131510540F0A901EC
:100F6000485F5F4F4131510510F06FEF70E06095C1
:100F7000482F460F08F44FEF842F37FF02C02D5F34
:100F80003F4F359527953595279560913706620F28
:100F9000792F0F91FF90EF900895EF92FF920F93AA
:100FA0001F930E0D1F2D111DF90137FF03C0F19581
:100FB000E195F10924E0EE0FFF1F2A95E1F7EF3FDD
:100FC000F10519F014F0EFEFF0E09A0157FF03C0BC
:100FD00031952195310994E0220F331F9A95E1F75D
:100FE0002E173F070CF4F901E00FF11FEF3FF10559
:100FF00019F010F0EFEFF0E0E095282F3E2F230FCF
:1010000008F42FEF822F1F910F91FF90EF9008951A
:10101000EF92FF920F93970195E0099F200D311DEC
:1010200011242F3F310519F010F02FEF30E02095FB
:10103000382F320F08F43FEF832F0F91FF90EF907E
:10104000089522E8241B08F420E0620F08954095DB
:10105000282F429F412D1124842F0895E42FF0E082
:10106000EE0FFF1FE753FE4F6081621B0895E42FD0
:10107000F0E0EE0FFF1FE853FE4F6081621B089502
:10108000622F08950C94E6060C94F10630E020E0FF
:10109000869F212D969F200D311D1124C901089591
:1010A000AF92BF92CF92DF92FF920F931F93CF9395
:1010B000DF93362F472FE82FF0E0E650FC4F7111F9
:1010C0000FC0E4918E2F2E2F6E2F722FDF91CF91B4
:1010D0001F910F91FF90DF90CF90BF90AF90089538
:1010E000C72FD0E02491F22E022F10E056E0659F2A
:1010F000C0011124EFEFF0E0BF010E94BA35832F49
:1011000090E0880F991F35E5369FD001379FB00DCD
:1011100011248A1B9B0B982F990F980F6F01CC1AE3
:10112000DD0AC09ED001C19EB00DD09EB00D11242D
:101130008B2F499FA0011124452F55276F01C41AF9
:10114000D50AC09EA001C19E500DD09E500D112405
:101150005F01A91AB108AC9E6001AD9ED00CBC9E87
:10116000D00C1124CD2CDD24EC19FD09E09FE00109
:10117000E19FD00DF09FD00D1124ED2F623071054D
:10118000A1F050F46115710509F49ECF613071052D
:1011900081F0EB2F852F98CF6430710569F080F0D6
:1011A0006630710509F490CFF4CFE22F2B2F8D2FED
:1011B0008BCFE22F252F88CFEB2F822F2D2F84CF9F
:1011C0002B2F8F2DE52F80CF2F923F924F925F9242
:1011D0006F927F928F929F92AF92BF92CF92DF9247
:1011E000EF92FF920F931F93CF93DF93CDB7DEB7AC
:1011F00029970FB6F894DEBF0FBECDBF8B837D83DA
:101200006C83209112018FE0289F802D11248E8302
:10121000815F89838A838C3410F03BE43A83709039
:1012200008067E81672F70E079876887CB01880F79
:10123000991FFC01E853FE4F6F01FB818F2F90E057
:101240009C012F5F3F4F3F832E836A8178857617FD
:10125000F0F081E099819B3408F080E029960FB688
:10126000F894DEBF0FBECDBFDF91CF911F910F91DC
:10127000FF90EF90DF90CF90BF90AF909F908F90B6
:101280007F906F905F904F903F902F900895E885EA
:10129000F985E25AFD4F8081909113018923F1F085
:1012A00050903706609038066E817F81685F794F75
:1012B0004B014B8010E04714D8F020913906129F63
:1012C000112D1124652D762D812F0E945008462F57
:1012D000282F672F888599850E944408288539859D
:1012E0002F5F3F4F3987288732E0C30ED11CADCF27
:1012F000F40181914F01F6019081292F281B330BB6
:101300001901A180F4018781A81ABB08229C9001D1
:10131000239C300D300D1124AA9CC001AB9C900D74
:10132000900D1124820F931F082F8230910524F114
:101330004FEF813EFEE19F073CF4AC0175E056950E
:1013400047957A95E1F7485F51E0652F640F77275D
:10135000771F9B0135952795022F229FB001239F70
:10136000700D700D11248617970718F54FEF420F77
:10137000451758F70FEF050F60913A0671E0670FB8
:1013800008F46FEFF401EE0FFF1FE850F640858977
:1013900096890E9446087C019501A101652D762D54
:1013A000812FEC81FD810995562E672E4394182FCD
:1013B00082CF2F3F09F351E0520FDACFCF92DF9265
:1013C000EF92FF920F931F93CF93DF938C01C09105
:1013D00012018FE0C89FC02D11242FE0D22EDC0E09
:1013E000CD2C2BE42D1510F49BE4C92E20913A0648
:1013F00031E0230F08F42FEF30E050E040E06FEFD2
:101400007FEF80E090E00E9404367901D0E02C2F3D
:10141000CC1570F081E0FAE4FD1508F480E0DF916E
:10142000CF911F910F91FF90EF90DF90CF90089593
:10143000FE01E25AFD4F808190911301892311F141
:10144000409108064150042E000C550B47FF1CC06C
:10145000C70160913A0621E0620F08F46FEF0E9425
:101460004608AC01609137067091380680913906C4
:10147000F80109950E945008462F282F672FCE01AA
:101480000E9444082196C3CFFA01E85FF94F818991
:1014900082130AC0FA01EE0FFF1FE85FF94F818D3A
:1014A000928D8E159F05A8F241505109CFCFDF9242
:1014B000EF92FF920F931F93CF93DF937C01C09124
:1014C00012018FE0C89FC02D11241FE01C0F012FB7
:1014D0001C3408F00BE460913A066695669521E0AD
:1014E000620F08F46FEF80910406909105060E9448
:1014F0004608D82ED0E0C01760F081E01B3408F019
:1015000080E0DF91CF911F910F91FF90EF90DF90DE
:101510000895FE01E25AFD4F8081909113018923C5
:1015200091F06091370670913806809139062D2D23
:101530004C2FF70109950E945008462F282F672F3E
:10154000CE010E9444082196D6CF9F92AF92BF92BF
:10155000CF92DF92EF92FF920F931F93CF93DF937F
:10156000D82F80910F018D1323C090913606937070
:1015700020910E0130E081E09217130609F480E01B
:1015800081708093140180913B069091130198170C
:1015900039F08093130140E060E080E00E9442084F
:1015A000D03188F4ED2FF0E0E452F94C0C9423365E
:1015B00081E0E6CF80911401882329F140E060E0CA
:1015C00080E00E94420880E01EC0009112018FE07E
:1015D000089F002D1124CFE0C00FFC2ECC3410F05A
:1015E0002BE4F22E6091370670913806809139060F
:1015F0000E945008E62ED72EC82E10E00F1510F1CD
:1016000081E0CB3400F7909112019F5F909312011B
:1016100081110CC082E08093150180911401811129
:1016200005C0D11103C083E080931501DF91CF91F4
:101630001F910F91FF90EF90DF90CF90BF90AF90F0
:101640009F900895F801E25AFD4F80819091130117
:10165000892331F02C2D4E2D6D2DC8010E94440898
:101660000F5F1F4FCBCF009112018FE0089F002D1D
:1016700011249FE0F92EF00EEF2C2BE42F1510F41F
:101680008BE4E82ED090380610913906C0913706C9
:101690006C2F7D2D812F0E945008C62EB72EA82EAC
:1016A00060913A066C0F7D2D812F0E945008C62F45
:1016B000D72E982E10E00E1530F081E03AE43F1559
:1016C00008F0A1CF80CFF801E25AFD4F90818091C0
:1016D0001301892359F0292D4C2F6D2D90FD03C046
:1016E0002A2D4C2D6B2DC8010E9444080F5F1F4FFF
:1016F000E2CFC09112018FE0C89FC02D11241FE0DE
:101700001C0F012F1C3408F00BE4E0903706F0901A
:101710003806D090390660913A06669566956695CA
:1017200080910406909105060E944608E82F86FDE8
:10173000E0952E2F2F7086FD2F5FE695E695E695B6
:10174000E670F0E0EA59FE4F9181929F902D212D95
:10175000112492959F702295207F922B2081920FC9
:1017600087FD9195892F87FD8195880F282F3D2D25
:10177000239F212D1124822FB7010E945008D62EBD
:10178000C72EB82EEC2EF12CE01628F081E01B3489
:1017900008F439CF18CFF701E25AFD4F80819091BC
:1017A0001301892331F02B2D4D2D6C2DC7010E9483
:1017B00044088FEFE81AF80AE7CF80E498E00E9427
:1017C000570A21CF87E398E0FACF8EE298E0F7CF6F
:1017D00087E298E00E94DE0916CF81E298E0FACF16
:1017E0008091080621E0382F321B08F430E0832F67
:1017F00068E078E00E94E40806CF8091080621E0C6
:10180000382F321B08F430E0832F6DEC77E0F2CFF5
:101810008091080621E0382F321B08F430E0832F36
:101820006BE977E0E7CF8091080621E0382F321B83
:1018300008F430E0832F63E877E0DCCF63E877E0FB
:1018400080E0D8CF8091080621E0382F321B08F4C1
:1018500030E0832F6DE677E0CDCF6DE677E0F0CF17
:101860000E9497059C0190918D0380918E03982B87
:1018700021F030938A032093890390918F03809104
:101880009003982B21F03093880320938703E091F5
:10189000C705F091C805309749F082E080938B032B
:1018A0000480F581E02D8BE893E0099408959091F0
:1018B0008D03803F59F480918E0387FF0DC01092F5
:1018C0008E0391110BC01092850308C0813F81F4F3
:1018D00080918E0318169CF3992381F080918F03D9
:1018E00090919003892B09F064C0109284030895AD
:1018F000823F49F497FFF0CF10928D0380918E03C1
:101900008111ECCFE0CF833F19F41916ACF3E4CF8B
:1019100020918F03893F29F41216F4F610928F0359
:10192000DBCF8A3F19F427FFD7CFF8CF2091900360
:101930008B3F29F427FFD0CF10929003CDCF8C3F5F
:1019400019F41216CCF3C8CF843F31F480918C0384
:101950008E7F80938C03C0CF853F21F480918C03D0
:101960008D7FF7CF863F21F480918C038B7FF1CF61
:10197000873F21F480918C03877FEBCF883F21F450
:1019800080918C038F7EE5CF8D3F31F4809186036B
:101990008E7F80938603A0CF8E3F21F480918603B3
:1019A0008D7FF7CF8F3F09F097CF809186038B7F94
:1019B000F0CF08958091860380FD16C081FD16C08A
:1019C00082FD16C0809184038823A1F0883280F4C0
:1019D00028E0829FC001112468E270E00E94CE35A9
:1019E000862F672B39F0089582E0089584E00895EA
:1019F00088E0089581E008958091860380FD14C0F9
:101A000081FD14C082FD16C080918503882381F07A
:101A10008E3180F420E5829FC00111246EE170E0D8
:101A20000E94CE35862F089584E1089588E20895B6
:101A300088E0089580E50895803F31F40E94FC0C11
:101A4000819580938E030895813F19F40E94FC0CC8
:101A5000F8CF823F31F40E94FC0C819580938D0376
:101A60000895833F19F40E94FC0CF8CF893F29F4B4
:101A70000E94DA0C80938F0308958A3F21F40E941C
:101A8000DA0C8195F7CF8B3F31F40E94DA0C819507
:101A90008093900308958C3F19F40E94DA0CF8CFDC
:101AA000843F31F480918C03816080938C0308958E
:101AB000853F21F480918C038260F7CF863F21F42B
:101AC00080918C038460F1CF873F21F480918C0357
:101AD0008860EBCF883F21F480918C038061E5CF53
:101AE0008D3F31F480918603816080938603089551
:101AF0008E3F21F4809186038260F7CF8F3FB9F744
:101B0000809186038460F1CF80E00895F894E82FF7
:101B1000E295EF70F0E031A1282F2F7081E090E086
:101B200001C0880F2A95EAF7982F9095932391A3E7
:101B300092A1892B82A3789408959091D00592FF69
:101B400006C0282F28712830F9F4877F846093FF1E
:101B500006C0282F28712831F1F4877E84612091F6
:101B6000D10520FF06C0382F38713830D9F4877F6F
:101B7000816021FF06C0282F28712831D1F4877E8B
:101B8000816194FD877E0895282F24712430F9F611
:101B90008B7F8860DCCF282F2471243101F78B7E66
:101BA0008861DDCF382F3171313019F78E7F886031
:101BB000E0CF282F2171213121F78E7E8861E1CF7E
:101BC000CF93DF93EC0182389105A9F1D8F58133E9
:101BD000910509F496C048F58932910509F48AC047
:101BE0008A9709F495C0C11521E5D20708F0BCC059
:101BF000C11530E5D30708F014C1C83ED10508F07F
:101C00009CC0C03ED10560F5C83AD10508F087C038
:101C1000C53AD10508F0FDC0C130D10509F12097C2
:101C2000F9F0C430D105E0F440C08533910509F4E2
:101C30005AC0C997C1F68091D005837089F0C0EE73
:101C4000D0E00EC0833E910599F170F4803E91057D
:101C500001F1823E910539F68091D00582FD21C0C7
:101C6000CE01DF91CF910895863E910561F1873EC7
:101C7000910571F1843E910509F0B5CF8091D105B0
:101C800081FFEECF8091D005C7EED0E084FD0DC07E
:101C9000E7CF8091D00580FD12C19091D10590FFD2
:101CA000DFCFC3EED0E084FFDBCFD0E0C0E0D8CF01
:101CB0008091D00582FD06C19091D10590FDBFCFE6
:101CC00084FFCECFF2CF8091D00583FDDDCFC8CF8A
:101CD0008091D00583FDF9C09091D10591FFF0CF9F
:101CE000C4EED0E0BDCF8091D00585FFB9CFC9E269
:101CF000D0E0B6CF8091D00585FFB2CFC5E3D0E06C
:101D0000AFCF8091D00586FFABCFCAE2D0E0A8CF9D
:101D10008091D00586FFA4CFC1E3D0E0A1CFCF3B17
:101D2000D10518F6C85AD0E0CC0FDD1FCC5DDE4FD0
:101D30000990D881C02DD46493CFC11540E2D40757
:101D400058F4C11581E0D80708F08ACFC03FD1050B
:101D500008F4ABCFD06584CFC11590E4D90708F45F
:101D6000A4CFDF70D06A7CCFC11525E5D20700F57E
:101D7000C11534E5D30708F08AC0C11543E5D4077F
:101D800008F071C0C11582E5D80708F467C0CE011C
:101D90008370992721E030E002C0220F331F8A951B
:101DA000E2F7C695C69580E2C89FE001112452C0B3
:101DB000C11599E5D907A8F4C11528E5D20708F09F
:101DC0006BC0C11536E5D30708F06FCF8C2F0E948A
:101DD0009D0DC82FD0E0DC2FCC27CC27DF71D0623F
:101DE0003FCFC1154AE5D40708F45BC0CE01905639
:101DF0008115904208F059CF8D2F8F710E949D0D53
:101E000090E0982F882788279F719C012C2BE9014F
:101E1000E6CFC55AD0E0CF5DDE4FC881D0E0D064B8
:101E20001FCFCE01E4E096958795EA95E1F78370A0
:101E30002C2F26952695237040E2249F9001112493
:101E4000382B8C2F8370C1E0D0E002C0CC0FDD1F97
:101E50008A95E2F7C22BD32BDC6802CFDC2FCC278C
:101E6000C16FD06AFDCECE018370992721E030E0AA
:101E700002C0220F331F8A95E2F7C695C69590E2FD
:101E8000C99FE0011124C22BD32BDA68E9CEDC2FE5
:101E9000CC27C46FD06AE4CEDC2FCC27C06FD06AC9
:101EA000DFCE8C2F8F700E949D0D34E0D695C795A4
:101EB0003A95E1F7CF709C2FEC01D069D1CEC9E300
:101EC000D0E0CECEC2EED0E0CBCEC6EED0E0C8CED3
:101ED00080915B03882331F010925B0310925A03C8
:101EE000109259030895809590916A0598239093D4
:101EF0006A050895809590916905982390936905E6
:101F00000895109238031092370310923603089503
:101F1000809135038111109235030895909111013C
:101F20009923D1F09091D00597FF16C0E82FE69540
:101F3000E695E695EE31E0F4F0E0E455FD4F282F0C
:101F4000277081E090E001C0880F2A95EAF780951C
:101F50009281892382830895EEEAF2E091918913B8
:101F600003C0DF0111971C9292E0E43BF907B1F73F
:101F70000895909111019923C1F09091D00597FF98
:101F800014C0E82FE695E695E695EE31F8F4F0E01A
:101F9000E455FD4F877021E030E001C0220F8A95A3
:101FA000EAF78281822B82830895AEEAB2E0EFEFF6
:101FB00090E02D91821751F0EF3F19F4211101C0EB
:101FC000E92F9F5F9630A9F7EF3F09F408950E2E91
:101FD000000CFF0BE455FD4FE6CF80913403909148
:101FE000F302981301C008958F5F8770FACF9E3F68
:101FF00049F1E82F2FE0929FE00D11249E2F97705A
:10200000E695E695E69583E0E89FF0011124E35319
:10201000FD4F50E040E080E0219130E0092E02C009
:10202000369527950A94E2F721703327042E01C0D4
:10203000220F0A94EAF7822B4F5F5F4F433051051E
:1020400059F7089580E008959E3F69F1E82F2FE049
:10205000929FE00D11248E2F877041E001C0440F44
:102060008A95EAF7E695E695E69583E0E89FF00124
:102070001124E353FD4F30E020E070E05191DF0187
:102080001197CB01022E02C0969587950A94E2F72C
:10209000817081958527842385278C932F5F3F4FFF
:1020A0002330310559F7089581FF02C08C9A0895B5
:1020B0008C9808959C013A9521153F4150F5FC01FB
:1020C000EE27F170BC0166277270AC014427547092
:1020D0009C012227387094FF0EC080E1EF2B09F499
:1020E00080E0672B09F08062452B09F08064232B88
:1020F00089F08068089581E0EF2B09F480E0672B78
:1021000009F08260452B09F08460232B19F0886068
:10211000089580E008958093D2057093D40560936C
:10212000D305809103068430F9F48093E9008FEFA2
:102130009091E800815095FD06C095ED9A95F1F7D4
:1021400000008111F5CF8091E80085FF0DC050E0BF
:1021500040E063E070E082ED95E00E94220480910F
:10216000E8008E778093E8000895BC0184E00C9429
:102170008B10BC0183E00C948B109C0184E0809355
:10218000E9009FEF8091E800915085FD06C085ED44
:102190008A95F1F700009111F5CF8091E80085FF55
:1021A0000CC050E040E066E070E0C9010E942204EB
:1021B0008091E8008E778093E8000895CF93DF93B5
:1021C000EC01809111018823B1F18091D00587FF46
:1021D00032C060E284E08093E9008FEF9091E800E4
:1021E000815095FD06C095ED9A95F1F7000081119B
:1021F000F5CF8091E80085FF1BC08091110170E050
:1022000050E040E0811104C050E040E068E070E040
:10221000CE010E9422048091E8008E778093E8002E
:1022200080E2FE01A8EDB5E001900D928A95E1F7FC
:10223000DF91CF91089568E081E0CDCF81E0809378
:10224000E00080E28093D8001092C9008FE19EE404
:102250000197F1F700C0000087E090EBDC0180936C
:102260003C0690933D06A0933E06B0933F0688E15E
:102270009CE00FB6F894A895809360000FBE9093F1
:102280006000FFCF6A9A3EB13B7F2EB124604FB70A
:10229000F8948FEB93E0FC015191CF0168E02EB9E7
:1022A000000000C057FF3EB9550F000000C000C03D
:1022B00000C03EB900C06A9591F7F4E0803A9F07EC
:1022C00051F74FBF8FE594E00197F1F700C0000090
:1022D0000895CF93DF93CFECD2E060E0CE010E946F
:1022E0009E362196C11584E0D807B9F7DF91CF91CA
:1022F00008950F931F93CF93DF938901843048F59E
:10230000653038F54F3028F521153C4531F42091E2
:10231000D7043091D804232BE1F0C42FD0E0CC0FA8
:10232000DD1F9EE1699FC00DD11D112496E9899F93
:10233000C00DD11D1124612FCE0187960E949E36BB
:10234000602FCE018896DF91CF911F910F910C9451
:102350009E36DF91CF911F910F910895CF93C82F93
:102360006FEF81116FEA83E290E00E949E366FEF7B
:10237000C1116BE084E290E00E949E366FEFC111C4
:102380006DE985E290E0CF910C949E36682F86E04F
:1023900090E00C949E367F928F929F92AF92BF9264
:1023A000CF92DF92EF92FF920F931F93CF93DF9321
:1023B000CDB7DEB764970FB6F894DEBF0FBECDBFC2
:1023C000A090D704B090D80481E090E09093D80416
:1023D0008093D7048AEFC82E84E0D82E00E07601DF
:1023E00010E015C0F40125913491472D612F802F05
:1023F0000E94791182E0880E911C7394EFE07E12A6
:10240000F1CFFEE1EF0EF11C1F5F153019F047010F
:10241000712CE8CF0F5F86E9C80ED11C0430F9F6A5
:102420001A8219821C821B821E821D8218861F82BC
:1024300088EC90E09A8789874AE050E06FE772E085
:10244000CE0101960E94C2364AE050E069E872E08F
:10245000CE0101960E94C2364AE050E063E972E084
:10246000CE0101960E94C2364AE050E06DE972E06A
:10247000CE0101960E94C2368E01055F1F4F8AE091
:10248000F80111928A95E9F74AE050E067EA72E0B4
:10249000C8010E94C2364AE050E061EB72E0C80118
:1024A0000E94C2364AE050E06BEB72E0C8010E9425
:1024B000C2364AE050E065EC72E0C8010E94C236C4
:1024C000B092D804A092D70464960FB6F894DEBFF9
:1024D0000FBECDBFDF91CF911F910F91FF90EF9075
:1024E000DF90CF90BF90AF909F908F907F90089596
:1024F00080E00E94AE1160E086E290E00E949E368D
:102500000E94CB110E94691181E00C94AE119B01D5
:10251000843070F49AE0899FB001112461587D4F96
:102520004AE050E0C9010E94703690E080E00895D2
:102530008FEF9FEF08958F929F92AF92BF92CF92AD
:10254000DF92EF92FF920F931F93CF93DF93CDB75C
:10255000DEB72A970FB6F894DEBF0FBECDBF0DE6EB
:1025600015E0F12CE12C82E8C82E8BE2D82E9CEAF3
:10257000A92E9BE2B92E2EED822E2AE2922EF80190
:10258000D182C082B382A28295828482F58AE48A53
:10259000BE016F5F7F4F8E2D0E948712892B29F419
:1025A00089859A85F801938B828BFFEFEF1AFF0ADA
:1025B0000A5E1F4F84E0E816F10409F72A960FB669
:1025C000F894DEBF0FBECDBFDF91CF911F910F9169
:1025D000FF90EF90DF90CF90BF90AF909F908F9043
:1025E00008950F931F93CF93DF93843030F56530B8
:1025F00020F54F3010F5C42FD0E0CC0FDD1F2EE1B9
:10260000629FC00DD11D112436E9839FC00DD11DDD
:102610001124CE0187960E948036082F10E0102FDB
:102620000027CE0188960E9480369801282BC90188
:10263000DF91CF911F910F91089590E080E0F8CF46
:10264000462F2091DB043091DC04232B91F47E3F54
:1026500039F46E3F71F48091D9049091DA040895B1
:10266000843038F4753028F46F3018F4672F0C94E8
:10267000F11290E080E00895CF92DF92FF920F93E5
:102680001F93CF93DF936C010091310680915C031F
:10269000082BC7E0D0E010E0FC2EC8010C2E02C0D1
:1026A000959587950A94E2F780FD0CC02197A0F7D5
:1026B000F12C8F2DDF91CF911F910F91FF90DF9023
:1026C000CF900895B6018C2F0E9420130E94E00D38
:1026D000019761F3EECFCF93DF93EC010E943C139F
:1026E000BE010E942013DF91CF910C94E00DFC01FC
:1026F00086819781009791F00E94E00D92959F70DE
:102700009630B9F080F4925F9F70923080F4803FF1
:1027100019F058F4883E58F481E008958081918141
:102720000E946B13EBCF9A5FEFCF843FA9F380E059
:102730000895883E88F3813FD1F7EECF1F93CF9362
:10274000DF9300D000D00F92CDB7DEB7FC01268119
:1027500037812115310541F525E0DE011196019003
:102760000D922A95E1F7FC01228189819A81222329
:10277000B9F06623A9F00E943C13182F682F8981B5
:102780009A810E94241069817A81812F0F900F9085
:102790000F900F900F90DF91CF911F910C94201309
:1027A0000E94F70F182FEFCFC9010F900F900F90D5
:1027B0000F900F90DF91CF911F91089583E290E0E9
:1027C0000E9480368F3A89F484E290E00E9480363D
:1027D0008B3059F485E290E00E94803691E08D398B
:1027E00009F090E0892F8170089580E0FCCFCF93AD
:1027F00084E090E00E948036C82F82E290E00E9440
:102800008036982F8C2FCF910895CF92DF92EF9240
:10281000FF920F931F93CF93DF93CDB7DEB72A9725
:102820000FB6F894DEBF0FBECDBFEFEAF4E088E24A
:10283000DF011D928A95E9F7E1E4F5E08CE1DF0123
:102840001D928A95E9F78FEAC82E84E0D82E7F0181
:1028500007EA12E0F701D182C0824AE050E0B801F5
:10286000CE0101960E94703688E0FE013196D601B5
:1028700001900D928A95E1F789859A85D701139683
:102880009C938E931297BAE0CB0ED11CE7E0EE0E2C
:10289000F11C065F1F4F0F3CF2E01F07D9F62A9686
:1028A0000FB6F894DEBF0FBECDBFDF91CF911F9161
:1028B0000F91FF90EF90DF90CF9008958F929F92AD
:1028C000AF92BF92CF92DF92EF92FF921F93CF937E
:1028D000DF938091BA039091BB03A091BC03B091A8
:1028E000BD032FB7F8948090CC059090CD05A090B3
:1028F000CE05B090CF052FBF75016401C81AD90A63
:10290000EA0AFB0A2FB7F8944091CC055091CD0507
:102910006091CE057091CF052FBF4093BA035093BD
:10292000BB036093BC037093BD0310919103E1E975
:10293000F3E0C12FD0E00197AF4FBF4F881999093D
:10294000AA09BB091D1327C0C09391038091BE0340
:10295000C0E0811108C080913606C82FC37019F0FD
:10296000C82FC695C695809115018130F1F1882355
:1029700029F1823009F454C0833009F45CC0DF913E
:10298000CF911F91FF90EF90DF90CF90BF90AF90CD
:102990009F908F900895218D328D4901B12CA12CEB
:1029A00088159905AA05BB0520F4C150DF5F329652
:1029B000C9CF2C0D3D1D328F218FF8CF10921201FF
:1029C000409304065093050660930606709307062D
:1029D00089E2E1E9F3E0A8E0B6E001900D928A9582
:1029E000E1F781E080931501CACF8C2F0E94A50AE0
:1029F000CC2329F20E94CF0581FFC1CF2FEF4FEFEB
:102A00006FEF8DE190E0DF91CF911F91FF90EF90FC
:102A1000DF90CF90BF90AF909F908F900C94440820
:102A2000C0930F0180913606837080930E010E943F
:102A3000421183E0D7CF80913506882351F046E0DC
:102A400050E06CE170E086E396E00E948E361092D2
:102A50003506409104065091050660910606709176
:102A600007062FB7F8948091CC059091CD05A091E1
:102A7000CE05B091CF052FBF841B950BA60BB70BCE
:102A80004097A105B10508F47ACF1092150177CFD0
:102A9000E6E3F6E085E180838091160190911701CD
:102AA000A091180181839283A3838FE784838FEFA2
:102AB000858346E050E06CE170E0CF010E948E36E5
:102AC0001092350608954F925F927F928F929F9257
:102AD000AF92BF92CF92DF92EF92FF920F931F932C
:102AE000CF93DF93CDB7DEB72A970FB6F894DEBF4A
:102AF0000FBECDBF8E010F5F1F4F8AE0F80111920C
:102B00008A95E9F722E5E22E21E0F22ECC24C39447
:102B1000D12C88248394912C56E6A52E51E0B52E15
:102B2000F70181917F018F3F09F44DC0F894E82FA0
:102B3000E295EF70F0E021A18F70A40102C0440F74
:102B4000551F8A95E2F7CA01922F982B91A392A163
:102B50008095892382A3789400C091E6492E91E064
:102B6000592ED801B60160957095F20171902F0130
:102B70008D919D91AD0142505109FFEF7F1609F4EF
:102B80007DC0272D22952F7030E0F90120A130E083
:102B9000F72DFF7002C035952795FA95E2F720FDD5
:102BA0006DC08C299D29FA0191838083A414B504FA
:102BB000E1F6F701319780818F3F11F00E94860D79
:102BC000F0EAFA95F1F7CC0CDD1C21E6E21621E0E3
:102BD000F20609F0A5CF4AE050E0B80180E693E0A4
:102BE0000E945336FF24F394009709F4F12C892BAB
:102BF00009F447C08AE0F801A0E6B3E001900D9225
:102C00008A95E1F781E080935F030E949705909396
:102C10005E0380935D0380915D0390915E030E944B
:102C20008805059790F180916003909161039093DE
:102C30007B0380937A038091620390916303909366
:102C40007D0380937C03809164039091650390934E
:102C50007F0380937E038091660390916703909336
:102C6000810380938003809168039091690390931E
:102C700083038093820310925F0307C08623972308
:102C800092CF80915F038111C6CF8F2D2A960FB608
:102C9000F894DEBF0FBECDBFDF91CF911F910F9192
:102CA000FF90EF90DF90CF90BF90AF909F908F906C
:102CB0007F905F904F9008958091690590916A058B
:102CC000892B8093AC0280915B03882329F10E94B9
:102CD00097052091590330915A03821B930B883832
:102CE000934110F00E94680F8091AC0290915B03B9
:102CF000892B8093AC02809111018823D9F18091B6
:102D0000D00587FF37C08EE1EEEAF2E090E0815017
:102D100098F591110E94680F40E250E069E373E07A
:102D20008CEA92E00E945336892B59F180E2ECEA5A
:102D3000F2E0A9E3B3E001900D928A95E1F7E0910A
:102D4000C705F091C8053097E1F080911101882303
:102D500059F08091D00587FF07C08091AC02809325
:102D6000AD0286E08093AC020280F381E02D8CEA14
:102D700092E0099486E0C8CF2191222341F29F5F1F
:102D8000C6CF0895EF92FF920F931F93CF93DF93D7
:102D9000EC018A85811134C0EB80FC8087E5F81A4C
:102DA00026E12E9DC0012F9D900D1124DC01A35919
:102DB000BA4F1496ED91FC911597309731F05496D7
:102DC0006D917C918D589A4F099586E18E9D800179
:102DD0008F9D100D112403591A4FF80187810E940D
:102DE0007A0FF80180850E94730F0E945C1618828A
:102DF00019861B861E821D8210926C0510926B052F
:102E0000DF91CF911F910F91FF90EF900895CF9395
:102E1000DF93EC01898981111BC081E0898B80914E
:102E200069059F81892B8093690580916A05988542
:102E3000892B80936A050E945C16EA81FB8130979A
:102E400039F06C897D89CE010696DF91CF91099486
:102E5000DF91CF91089590E080E00E94B90590E065
:102E600080E00E94A30510926A050E945C1686E02D
:102E7000EBE8F3E0DF011D928A95E9F710928503F4
:102E800010928403109286030C94300C80933106C8
:102E90000C942B1780913106982F9670963019F468
:102EA00088600C944617877FFCCF21E030E001C09A
:102EB000220F8A95EAF720958091310682230C949F
:102EC0004617909138038095892380933803282FE3
:102ED000277091F4282F082E000C330B921713063D
:102EE00059F09091D10592FD07C0859585958595FE
:102EF0000E9455170C94810F0895CF93C091D1056E
:102F0000C2FB992790F9981799F080FBC2F9C093FA
:102F1000D1056091D00584E090E00E949E366C2F30
:102F200082E290E00E949E3682E0CF910C9461177D
:102F3000CF91089521E030E001C0220F8A95EAF791
:102F400080913106822B0C9446179091D10592FD09
:102F500010C098E0899F90011124622B6093380380
:102F60000E949A170E949705909337038093360327
:102F700008950C949A1780935C030C942B1710926D
:102F8000690580911101EEEAF2E0882359F0809101
:102F9000D00587FF07C08EE1DF011D928A95E9F712
:102FA0000C942B1786E0F8CF1F93CF93DF93CDB708
:102FB000DEB7AA970FB6F894DEBF0FBECDBF8BEF7A
:102FC00095E02091F100DC012D93CD01B6E0833036
:102FD0009B07B9F78091FC05833009F472C0B8F4FF
:102FE000813009F449C0823009F4B3C08091E8000F
:102FF00083FF96C28091FB059091FC059A3008F002
:103000008FC2E92FF0E0E451F94C0C9423368A305A
:1030100009F48EC08B3009F471C0893039F7809182
:10302000FB05813219F78091FF059091000600970A
:1030300011F00297D9F68091E800877F8093E8002D
:103040008091E80082FF38C09091F3008091F200F7
:10305000029731F48091F100813011F0863021F433
:103060008091F1008093D7058091E8008B77809361
:10307000E8000E947404BACF8091FB05813A09F000
:10308000B5CF8091E800877F8093E8008091FF05AD
:1030900090910006892B61F460E288ED95E070E084
:1030A0000E9426058091E8008B778093E8009ECFF0
:1030B00060E090E080E0F3CF809103068111C0CF03
:1030C00095CF8091FB05813A09F090CF8091FF0563
:1030D00090910006892B09F089CF8091E800877FC5
:1030E0008093E8008091E80080FFFCCF809111017F
:1030F0008093F1008091E8008E77B9CF8091FB0535
:10310000813209F073CF8091FF0590910006892BE1
:1031100009F06CCF8091E800877F8093E8000E94DF
:1031200074048091FD05809311010E94BF175ECF4A
:103130008091FB05813209F059CF8091E800877FAB
:103140008093E8000E9474048091FE058093D60568
:103150004DCF8091FB05813A09F048CF8091E8007E
:10316000877F8093E8008091E80080FFFCCF80910A
:10317000D605BECF803899F0823809F0D1C1809150
:10318000FF058F70873008F0CBC18093E9008091F4
:10319000EB0085FB882780F91092E90006C080913A
:1031A000F8059091F905911182609091E800977F60
:1031B0009093E8008093F1001092F1008091E80074
:1031C0008E77AAC1882309F498C1823009F0A8C17A
:1031D0008091FD0581119BC18091FF058F702FEFBC
:1031E000280F263008F09CC18093E9002091EB0065
:1031F00020FF8DC1933031F48091EB008062809389
:10320000EB0085C19091EB0090619093EB0021E081
:1032100030E001C0220F8A95EAF72093EA0010926D
:10322000EA008091EB008860EACF811179C11091AA
:10323000FD051F778091E3008078812B8093E30068
:103240008091E800877F8093E8000E947404809159
:10325000E80080FFFCCF8091E30080688093E3006A
:1032600082E0111183E0809303065AC180588230B6
:1032700008F056C12091FD053091FE052C3DE3E09C
:103280003E07A1F583E08A838AE289834FB7F894E9
:10329000DE01139620E03EE051E2E32FF0E0509390
:1032A0005700E49120FF03C0E295EF703F5FEF709D
:1032B0008E2F90E0EA30C0F0C7968D939D932F5FDC
:1032C000243159F74FBF8091E800877F8093E80051
:1032D0006AE270E0CE0101960E9426058091E80026
:1032E0008B778093E8001CC1C096E7CF8091FF05E3
:1032F00090910006432F55274330510509F44AC0E9
:1033000078F54130510509F485C08BE590E0E6E29F
:10331000F6E04230510509F003C12091E800277F13
:103320002093E8002091010630910206821793074E
:1033300008F49C0140E02115310509F070C04111ED
:103340006EC08091E80082FDC9CF8091030688237A
:1033500029F2853019F28091E80083FFF2CFBECFC9
:103360004132510509F447C04232510509F0D8C035
:103370008330910508F0D4C0FC01EE0FFF1FEF5819
:10338000FE4F0190F081E02D82599E4FDC018C911F
:1033900090E01DC0332721303105E9F021153105BA
:1033A00079F022303105F9F02330310509F0B8C049
:1033B000E3E9F6E0E4918E2F90E0E3E9F6E007C060
:1033C000E3EDF6E0E4918E2F90E0E3EDF6E0009778
:1033D00009F4A6C0A2CFE5ECF6E0E4918E2F90E0D0
:1033E000E5ECF6E0F4CFE1EBF6E0E4918E2F90E02F
:1033F000E1EBF6E0ECCF8330910508F091C0880F47
:10340000991FFC01E958FE4F0190F081E02D89E001
:1034100090E083CF82E190E0E1E8F6E07ECF80911A
:103420000306882309F45ACF853009F457CF8091D9
:10343000E80083FD53CF8091E80082FD82CF809128
:10344000E80080FF78CF9091F3008091F200211581
:10345000310519F08830910550F041E0089709F0E6
:1034600040E08091E8008E778093E80064CF44913B
:103470004093F1003196215031090196E8CF803810
:1034800009F04EC08091E800877F8093E80080912A
:10349000FA058093F10092CE811142C01091FD0592
:1034A0001230F0F58091E800877F8093E800109358
:1034B000FA050E947404112311F084E005C0809184
:1034C000E30087FDFACF81E08093030642E061ECE0
:1034D00081E00E94930442E261EC84E00E94930444
:1034E00042E261EC82E00E94930442E260EC83E0FD
:1034F0000E9493048091030613C08091FD058130E2
:1035000079F481E0933009F080E08093F90510921E
:10351000E9008091E800877F8093E8000E947404AE
:103520008091E80083FF0AC08091E800877F809344
:10353000E8008091EB0080628093EB00AA960FB6C2
:10354000F894DEBF0FBECDBFDF91CF911F910895DC
:10355000882321F00E94730F0C945C160895882331
:1035600039F090916A05982B90936A050C945C163B
:103570000895882321F00E947A0F0C945C16089518
:10358000882339F090916905982B909369050C94E4
:103590005C160895882309F452C0823871F40E94A1
:1035A000CF0581FF4CC089E30E94B90F0E945C16D1
:1035B00089E30E948E0F0C945C16833859F40E94A4
:1035C000CF0580FF3CC083E50E94B90F0E945C16C6
:1035D00083E5EFCF843859F40E94CF0582FF2FC0D6
:1035E00087E40E94B90F0E945C1687E4E2CF9CEF4B
:1035F000980F913AF0F290E2980F983050F487705B
:1036000091E001C0990F8A95EAF7892F0E947A0FFD
:10361000D2CF9BE5980F933020F490E080E00C949B
:10362000B90598E5980F973120F490E080E00C946C
:10363000A305803F20F00E94570C0C94300C089595
:10364000CF93C82F882309F4AFC08238C1F40E94F9
:10365000CF0581FDA9C089E30E94B90F0E945C16C5
:103660002FEF81EE94E0215080409040E1F700C0C0
:10367000000089E30E948E0FCF910C945C16833872
:10368000A1F40E94CF0580FD8FC083E50E94B90F91
:103690000E945C162FEF81EE94E021508040904014
:1036A000E1F700C0000083E5E5CF8438A1F40E9473
:1036B000CF0582FD79C087E40E94B90F0E945C1695
:1036C0002FEF81EE94E0215080409040E1F700C060
:1036D000000087E4CFCF8CEF8C0F813A90F580917A
:1036E0001101882301F18091D00587FF1CC0EC2FC8
:1036F000E695E695E695F0E0E455FD4F828190E091
:103700004C2F477021E030E002C0220F331F4A9552
:10371000E2F782239323892B81F08C2F0E948E0F56
:103720000E945C160AC0EEEAF2E084EB92E021917E
:10373000C21799F38E179F07D1F78C2F0E94B90FEC
:103740009BCF80E28C0F883068F4C77021E030E0B6
:1037500001C0220FCA95EAF780916905822B8093F8
:1037600069058ACFEBE5EC0FE33040F4F0E0EF5D64
:10377000FE4F808190E0CF910C94B905E8E5EC0F05
:10378000E73150F4F0E0EE0FFF1FEC5DFE4F80815B
:103790009181CF910C94A305C03F30F08C2F0E94F3
:1037A0001C0DCF910C94300CCF9108951F93CF93A3
:1037B000DF93182FD0E0C0E0893311F4C0E5D0E0EA
:1037C000812F0E94201B209731F4812FDF91CF9110
:1037D0001F910C94CA1A8FE99FE00197F1F700C07E
:1037E00000002197F0CF0F931F93CF93DF93C62F45
:1037F000D42F022FFC0182818823A1F0609334062C
:103800000E9497059093330680933206C77081E03B
:1038100001C0880FCA95EAF7DF91CF911F910F91F0
:103820000C94C01A80913406681335C0809132061A
:10383000909133060E948805883C910560F510E25E
:103840001D0FCD17B9F080E28C0F883040F4C7709F
:1038500081E001C0880FCA95EAF70E94B91A1830B2
:1038600048F481E09D2F977001C0880F9A95EAF780
:103870000E94C01A802F0E94D61B183098F4D7706F
:1038800081E001C0880FDA95EAF7DF91CF911F91AF
:103890000F910C94B91AC77081E001C0880FCA95C6
:1038A000EAF7F3CFDF91CF911F910F910895AF9277
:1038B000BF92CF92DF92EF92FF920F931F93CF931D
:1038C000DF93EC018AE0A82E2881222309F48CC022
:1038D0002130C9F599818A81913021F422960E9484
:1038E000D61B05C0923029F422960E94201B2196F7
:1038F000EBCF933021F422960E94CA1AF8CF94306D
:1039000011F02196F4CF229630E020E0AE014F5F17
:103910005F4F8053990B8A30910550F02150310947
:1039200030F38FE99FE00197F1F700C00000F6CF78
:10393000A29EB001A39E700D11249C01260F371F7B
:103940008981EA01E3CFE22FF0E0E650FE4FB49028
:10395000822F86958695869590E0FC01E651FE4F74
:10396000E4902770F12C022E02C0F594E7940A949B
:10397000E2F731E0E322FF24FC01E652FE4FC4905F
:10398000D12C022E02C0D594C7940A94E2F731E0FC
:10399000C322DD24FC01E653FE4F049110E002C077
:1039A000159507952A95E2F701701127E114F104A6
:1039B00019F081EE0E94201BC114D10419F086EE8B
:1039C0000E94201B8B2D0E94D61BCD2819F086EE5D
:1039D0000E94CA1AEF2819F081EE0E94CA1A012B20
:1039E00009F485CF8CE27BCFDF91CF911F910F91AE
:1039F000FF90EF90DF90CF90BF90AF90089590E050
:103A000080E00E948836893E9E4F11F40C94DE13AC
:103A100080E0089569EE7EEF90E080E00E94BC3681
:103A200060E082E090E00E949E3660E083E090E0FB
:103A30000E949E3610925C0360E084E090E00E9459
:103A40009E3660E082E290E00E949E3660E085E073
:103A500090E00E949E3660E086E090E00E949E36F4
:103A60006FEF87E090E00E949E3640E050E0BA01A0
:103A700088E090E00E94B03660E08DE090E00E9427
:103A80009E3640E050E0BA0188E190E00E94B036F6
:103A900060E087E190E00E949E3640E050E0BA018D
:103AA0008CE190E00E94B03670E060E080E290E04F
:103AB0000E94BC3640E050E0BA0188E190E00E94EC
:103AC000B03680E00E94AE110E94781240E050E0D3
:103AD000BA018FE090E00E94B03640E050E0BA01B9
:103AE00083E190E00C94B0369F92AF92BF92CF9258
:103AF000DF92EF92FF920F931F93CF93DF9300D04B
:103B000000D0CDB7DEB77C01DC0113968D919C917E
:103B10001497892B39F08C9111969C9189238F3FB2
:103B200009F057C50F900F900F900F90DF91CF9134
:103B30001F910F91FF90EF90DF90CF90BF90AF90CB
:103B40009F900895D60116968C9116978823D1F0F0
:103B500019968D919C910817190739F480916B057E
:103B600090916C050817190769F0F601978614877C
:103B70000387C6010E940717C60106960E94C21657
:103B800010926A05FFEFAF1ABF0A26E1C20ED11CE0
:103B900038C5C80182519F45409708F00EC58FEF88
:103BA00093E00E9480365EEED52ED00E0FEC12E030
:103BB0008823F9F080913803877009F4B3CFD701D7
:103BC00012968C91882309F4ADCF8091D10582FDA6
:103BD000A9CF82E00E946117A5CF011534E0130739
:103BE00049F3C8010E948036811101C0DA940F5F49
:103BF0001F4FD110F2CF19821A821B821C82992486
:103C00009A9468014FEFC41AD40AC8010E94803602
:103C100089831A82882371F2813009F073C05801B8
:103C200052E0A50EB11CC6010E948036C82E8A83C0
:103C3000882309F4BFCFC5010E948036D82E8FEFAC
:103C40008C0D833068F4580183E0A80EB11CDB8230
:103C5000DD2021F0CE0101960E94571C8501D1CFB5
:103C60008BEF8C0D833030F5C8010396DB825C014D
:103C7000DD20A1F35801A4E0AA0EB11C0E948036F9
:103C80008C83882359F38B819C818130BFEF9B0704
:103C900010F0982F8827E6E0CE1631F0F7E0CF1627
:103CA00031F00E94782BDACF0E942F2BD7CF0E94C1
:103CB0008F2AD4CF24E0C212D1CF580134E0A30E12
:103CC000B11CC80103960E948036DD2009F472CF32
:103CD000882309F46FCF8150990B989E9001999E8B
:103CE000300D11244D2D4150550BCA01820F931FE9
:103CF000019708F4B3CFAFE9BFE01197F1F700C027
:103D00000000F6CFCE0101960E94571C5601A6CFA7
:103D100081E00E949A170E944A174CCF81E00E94CE
:103D20005517F9CF82E0FBCF823009F0B4C48091FF
:103D3000A9049091AA04892B09F4ADC426E12C9D15
:103D4000C0012D9D900D112483599A4FDC0150968E
:103D50001C920E9407179FC40F3B8CE5180709F4BB
:103D600054C008F43EC0003CACE51A0709F0A9C4F1
:103D70009091A004892F8695869586958F5F8F7187
:103D80009770863008F059C0880F880F880F892BEC
:103D90008093A0048091A00410C085E00E94CB060F
:103DA0008091A0040E94C61105CF8091A004982F95
:103DB000987F79F088508093A004887F91E009F47F
:103DC00090E08091A00490FB80F98093A0040E9471
:103DD000C6118091A0048695869586950E94270637
:103DE000E9CE8091A004982F96959695969595305A
:103DF00040F49F5F990F990F990F8770892B8093DB
:103E0000A0048091A0048160E0CF8091A00480FF95
:103E100007C08E7F8093A0040E94C61180E0DECF91
:103E200080FDC8CE81608093A004813019F489E0C0
:103E30008093A0048091A004CACF9093A004AACF3D
:103E4000882309F485C48189882309F481C4C501C4
:103E50008D589A4F0E94C2167BC4033FFCE51F0792
:103E600039F188F4083D3CE51307F1F0093D4CE5D4
:103E7000140751F1073D5CE5150709F069C426E216
:103E800041EE61EE0DC0053F8CE51807C9F0A0F0CA
:103E900027E245EE66EE063FACE51A0709F058C486
:103EA000C7010E94F31B86CE24E641EE65EEF8CFF3
:103EB00026E241EE60EEF4CF27E245EE64EEF0CF6D
:103EC00026E241EE62EEECCF28E241E0EFCF013690
:103ED0003DE5130709F452C4053A4DE5140709F40A
:103EE0004DC40631ACE51A0709F08EC4809169050E
:103EF0008A7A91E009F490E09093CC028111F1C0AC
:103F000089E20E94B90F0E945C1654CE8091D005C0
:103F1000806207304CE5140709F494C08091D00505
:103F2000806108301C4508F48DC08091D005806404
:103F300089C00D308CE5180709F499C098F4809178
:103F4000D0058E7F0B30ACE51A0709F47BC0809159
:103F5000D0058C600C301C4508F474C08091D005ED
:103F60008D7F70C08091D0058F7E0F30ECE51E07ED
:103F700009F468C08091D005877F00311C4508F4A2
:103F800061C08091D0058F7D5DC00D3F2CE512078B
:103F900009F475C038F505314CE5140709F481C002
:103FA00080F403318CE5180709F477C008F46FC07A
:103FB0000E94BF179091D005892F97FB87F98058F1
:103FC00041C00B3FACE51A0709F447C008F053C0E5
:103FD0008091D10581600A3F1C4509F0F8C38093A8
:103FE000D105F5C30130FDE51F0709F466C0B8F43B
:103FF0008091D1058C7F0F3F3CE5130781F38091C1
:10400000D105836001151D4550F38091D105982F8E
:10401000909591708E7F892B90FB81F9E0CF0136CE
:104020005DE5150709F44FC0053A8DE5180709F459
:1040300051C002301D4509F0CAC360E03FC0809105
:10404000D00582608093D005C2C38091D005846082
:10405000F9CF8091D0058860F5CF8091D10582603D
:10406000BECF0E94BF178091D0058068EBCF8091B2
:10407000D0058B7FE7CF8091D1058E7FB0CF809127
:10408000D1058D7FACCF8091D0058F7BDBCF0E9497
:10409000BF178091D0058F77D5CF8091D005837FD2
:1040A000D1CF8091D00582FB992790F921E092270A
:1040B00090FB82F990FB83F9C5CF61E08EE090E040
:1040C0000E949E3684C39091D005892F8F7E94FFE5
:1040D0008061B8CF9091D005892F8E7F90FF81604D
:1040E000B1CF85E30ECF85E38CC34AE557E063E6A5
:1040F00077E00E94E1065ECD43E657E06AE577E0AF
:10410000F8CF48E457E061E577E0F3CF41E557E0C9
:1041100068E477E0EECF40E357E06CE377E0E9CF87
:104120004CE357E060E377E0E4CF44E257E068E136
:1041300077E0DFCF4AE057E06CEF76E0DACF83E05C
:1041400010C40E94BF17BFEFE4E3FCE0B150E040B1
:10415000F040E1F700C000000E941E1181E074C32E
:1041600080E072C3828100811181882369F0C801D7
:104170000E943C13D82E682FC8010E942410B80159
:104180008D2D0E94201368C3C8010E94F70FD82EFE
:10419000F6CF212F2F70D22E107F19F0D29490EFEE
:1041A000D922CC20B9F0DD2069F080E2800F883080
:1041B00010F0011109C080916905D82AD0926905D3
:1041C0000E945C16802F46C080916A05D82AD09242
:1041D0006A05F6CF802F0E94CA1ADD20E9F180E23D
:1041E000800F883010F0011104C08D2D0E947A0FCD
:1041F00003C08D2D0E94730F0E945C162DC0312FBD
:104200003F70D32E107F103219F0D29480EFD82255
:10421000002381F0013009F48DC0CC2009F496C050
:10422000BB2009F46BC0F701858180FFCBCF8F7075
:10423000858364C08091D10582FF3BC0CC2099F179
:10424000DD2039F080916905D82AD09269050E9455
:104250005C1680E00E94201B292D2850330B24304F
:10426000310520F40E94CF050E945410AA20B1F01D
:104270008091380380FD12C0D70112961C9285955B
:10428000859585950E949A17C7010E94741D80919B
:1042900038038595859585950E94551760E0C7017F
:1042A0000E949E133FCC80E00E94CA1ADD20A1F23A
:1042B0009CCFCC2039F1B11004C080915B038D29D3
:1042C0001EC041E0B41210C082FDC6CF80915B03D6
:1042D000D82AD81609F20E94970590935A03809322
:1042E0005903D0925B03B8CF55E0B512E6CF0E94D8
:1042F000680F80913503D812D09235038D2D0E941E
:10430000C01AAACFB11006C00E94680F8D2D0E945E
:10431000B91AA2CF81E0B81208C0809169058D2139
:1043200009F49ACF0E94880FEFCF95E0B91609F4EF
:1043300093CFEACFCC2029F0A5E0AB1508F48CCFC1
:10434000DDCFB4E0BB1508F487CFE0CFBB20F1F29E
:10435000093349F4FFEF27EE33E0F15020403040BD
:10436000E1F700C00000802F0E94CA1A75CF812F8C
:1043700086958695837061F0813009F06DCFC80114
:104380009370C11002C090E080E00E94A30564CF4A
:10439000C8019370C11002C090E080E00E94B9058E
:1043A0005BCF802FCC2029F00E941C0D0E94300C86
:1043B00053CF0E94570CFACF812F837089F5C1101B
:1043C0004BCF402F429546954770440F440F802FA6
:1043D0008F70042E01C0880F0A94EAF7202F2071F5
:1043E00004FF07C02FE030E001C0220F4A95EAF732
:1043F0002095169516951370123069F050F430918F
:104400005C03113029F0822B83230E94BB1724CF39
:10441000832B822BFACF282B80915C038227F5CF48
:104420008695CC2011F0812F8170882309F414CF58
:10443000402F429546954770440F440F802F8F7050
:10444000042E01C0880F0A94EAF7202F207104FF80
:1044500007C02FE030E001C0220F4A95EAF720950F
:10446000169516951370123069F050F4309131069C
:10447000113029F0822B83230E944617EDCE832B27
:10448000822BFACF282B809131068227F5CF1F701F
:10449000CC2029F0812F0E949A17802F30CF802FB7
:1044A0000E94B91A812F0E945517D6CE023F81F182
:1044B00060F4003FB9F0013F81F0CC2009F46DC0F9
:1044C000B11080CE812F8F7127C0033F41F1043F8F
:1044D000A1F78091D10582FF2DC0812F8F71CC2053
:1044E00011F31AC0CC2079F044E04B1508F4B4CE97
:1044F0001F7181E090E001C0880F1A95EAF7909152
:1045000031068927B9CF55E05B1508F4A5CEF0CF69
:10451000812F8F71C110C7CF0E949A179DCE80E066
:10452000CC2009F4A9CF1F7181E001C0880F1A9532
:10453000EAF7A2CF80913503CC20D9F00E947A0F00
:10454000809138038770843041F40E94810F812F5D
:104550008F710E945517A12C7FCE84E08B15D8F364
:104560001F71812F0E949A1763E0812F0E94A51767
:10457000F2CF90916905982B9093690594E09B1573
:1045800040F40E94810F0E94880F64E0812F8F7198
:10459000EDCF81E00E946117DECFBB2059F00933D7
:1045A00009F0E1CEAFEFB7EEE3E0A150B040E0405C
:1045B000E1F7D7CE812F8F7176CF0031BFE51B0792
:1045C00009F4A6CB0131EFE51E0709F064C082E0D3
:1045D000A0CB61E0C7010E949E138C01D701129607
:1045E0008C918823B1F080910C0190910D0101967E
:1045F00081F06DE6C62E65E0D62EB12CA12C992453
:10460000939480910C0190910D018A159B050CF0FB
:1046100099CAF70182818111BCCA0031FFE51F07E9
:1046200009F47CCB01312FE5120709F47BCB68013B
:10463000E7E5DE1AFFEFCF16D10409F060F565EA71
:1046400074E08C2D0E948712892B29F586E18C9DC0
:10465000F0018D9DF00D1124E359FA4F86818130D0
:1046600009F062CB8091A5049091A604892B99F062
:104670008091A7049091A804892B69F08091A904E6
:104680009091AA042091AB043091AC04822B932B1F
:10469000892B09F453CBF7012281222391F00D3BA2
:1046A000FCE51F0709F481CB08F056CB0B3B4CE52A
:1046B000140709F472CB80E00C3B5CE5150709F4A4
:1046C0006DCBC80197558F3F910511F008F0C5CB10
:1046D00040910C0150910D014817590724F4909313
:1046E0000D0180930C0136E1389F5001399FB00CC9
:1046F0001124F501E359FA4F6F01208BD70112966F
:104700009C918681992309F49BCB128701878F5F47
:1047100086830E949705F6019687858780915B03C3
:10472000878380916A0590916905892B8087019024
:10473000F081E02D309741F0D60154966D917C9137
:10474000C5018D589A4F099510936C0500936B0520
:10475000F7018281882309F44AC01092340603309D
:10476000FDE51F0708F0B3CB0A3F2CE5120730F434
:10477000C80182509C45449708F0B3CB0E94F713C0
:104780009093D1058093D00501315CE5150709F4BC
:104790007ACC08F0FACB09309CE5190709F461CC12
:1047A00008F0C7CB0530BCE51B0709F452CC08F074
:1047B000ADCB0330FCE51F0709F441CC08F045CC34
:1047C0008091D005816002301C4509F43BCC60919A
:1047D000D0051091D10584E090E00E949E36612FB3
:1047E00082E290E00E949E360E94BF17E3C9063124
:1047F000BCE51B0709F064C08091CC02811173CC29
:1048000089E20E948E0F7FCB0A35EDE51E0709F481
:10481000A5CC58F401152CE5120709F492CC0E3DF5
:104820001C45A1F40E940A1DC5C90B354DE51407AE
:1048300009F496CC0C351D4549F48091D10582FBD5
:10484000882780F991E089270E947D17F7018681EA
:104850009781009709F486CC0E94E00D8C01F70146
:10486000C280B580B2943FE0B32280913803877054
:10487000C1F0AC2CCC20B1F0812F807F803421F0AE
:1048800080E2800F883068F08091D10582FD09C0F8
:1048900082E00E946117809138038770AA24A39454
:1048A0008111A12C912E92942FE09222FBE0F91518
:1048B00008F4D2CCE92DF0E0EA50F94C0C94233600
:1048C0008091690582720A3C9CE5190709F42DCC98
:1048D000A0F5053CBCE51B0709F413CCC8F4033C68
:1048E000FCE51F0709F401CC08F006CC023C1C458E
:1048F00009F0ACCF8091360691E089278093360687
:10490000109215018091350681608093350652C959
:10491000073C4CE5140709F4FECB08F4F7CB083C40
:104920009CE5190709F4FCCB48E157E064E277E025
:10493000093C1C4509F4DDCB89CF0E3CBCE51B07C7
:1049400009F4FDCB88F40C3CFCE51F0709F4F2CB1D
:104950004CEF56E06AE077E00D3C1C4508F4C9CB0B
:1049600081E00E94A60326C9063D3CE5130728F412
:1049700085E0003D1C45A8F31DC90D351D4509F412
:1049800019C964CFCF93DF938091F002807FA1F4A7
:104990008091ED02882381F080913403D091F3025D
:1049A0006091EB027091EC02A091EE02B091EF02E7
:1049B000C62FC723D81303C0DF91CF91089590E08D
:1049C000109711F0CF3F19F401968770F3CF9C0137
:1049D00043E0220F331F4A95E1F7F901EC50FD4FF8
:1049E00041814713F1CF40814613EECF42814111FF
:1049F000EBCF438154814A1B5B0B483C510520F7A8
:104A00008091F0028F7080618093F002F901E7508D
:104A1000FD4F80818F70806180838BEE92E00E94D9
:104A2000741DDF91CF910C94ED0FAF92BF92CF9296
:104A3000DF92EF92FF920F931F93CF93DF93CDB747
:104A4000DEB765970FB6F894DEBF0FBECDBF8C0101
:104A500085E0F801DE01519601900D928A95E1F70B
:104A6000F801E2806BEEA62E62E0B62E6091EE02B7
:104A70007091EF026115710509F468C19091EB0224
:104A80004091EC02892F84238F3F09F45FC120817C
:104A90003181C380D480F090ED02F601E61BF70B64
:104AA000FF2009F41DC18091F002582F507FE83C8F
:104AB000F10508F0D0C0511181C0FE2C43132BC06A
:104AC000921329C06091F1027091F202F8014681BF
:104AD000578164177507F9F4E1101DC08F7080616C
:104AE0008093F002C5010E94741D8091F002F801CC
:104AF00085838F2D65960FB6F894DEBF0FBECDBFB0
:104B0000DF91CF911F910F91FF90EF90DF90CF90A9
:104B1000BF90AF900895CD2829F0822F83238F3F37
:104B200009F02FC180E0F82FF170DF2E80FF3CC02C
:104B3000809134034091F302841315C0298B3A8B82
:104B400089899A890E946B13292F22952F70223010
:104B5000F8F0243020F59F70F9F0F8019581907FEE
:104B6000D9F4D12C1FC090E0FC0153E0EE0FFF1FE1
:104B70005A95E1F7EC50FD4F5181351306C0508135
:104B8000251303C05281E5120FC001968770D4CF60
:104B90009F7011F0882329F3805E883010F3C801DC
:104BA0000E94741DFD2CA5CFEE2009F4A2CF8091A8
:104BB000F00281608093F002F12C9BCF43131BC065
:104BC000921319C04091F1025091F202F80126812E
:104BD00037814217530779F4E1100DC08583C8016E
:104BE0000E94741D88E0F801ABEEB2E001900D92D6
:104BF0008A95E1F77ECFC8010E947713882339F1A7
:104C0000EE2029F18091F0028032A0F02091EB0299
:104C10003091EC023A8729871B86DD86CC868E8709
:104C20008091F1029091F202988B8F87CE010996C4
:104C30000E94741D88E0F801ABEEB2E001900D9285
:104C40008A95E1F70E94C224FF24F39452CFC80151
:104C50000E94741DF9CF51110AC08BEE92E00E94A0
:104C6000741D88E0F50111928A95E9F7A5CF4313E9
:104C700018C0921316C04091F1025091F202F8014F
:104C8000268137814217530761F4E1100AC08583FA
:104C9000C8010E94741D88E0F50111928A95E9F718
:104CA00028CFC8010E947713882389F2EE2079F279
:104CB0008091F002803208F4BDCF2091EB02309158
:104CC000EC023A8329831B82DD82CC828E83809121
:104CD000F1029091F20298878F83CE010196A8CFBE
:104CE000E83CF105C0F6FE2CEE2009F4B0CF4313EA
:104CF0001FC092131DC02091F1023091F202F80101
:104D0000868197812817390799F49091F00290FDD8
:104D100069CF907F09F466CF8091F0028583903F40
:104D200009F45DCF982F907F905F8F70892B56CFBD
:104D3000C8010E94771381117DCF8091F0028160BC
:104D40008093F002C8010E94741DD3CEEE2009F4B6
:104D50007ECFC8010E947713F82E882309F477CFFD
:104D600088E0F801ABEEB2E001900D928A95E1F790
:104D70008091EB029091EC020E946B130E94C2247E
:104D8000B8CE81E08E25CFCECF93DF93CDB7DEB7FF
:104D900060970FB6F894DEBF0FBECDBF29873A8764
:104DA0004B875C876D877E878F87988BCE010996AE
:104DB0000E941525811112C088E0FE013996DE019E
:104DC000119601900D928A95E1F78C859D85892B2E
:104DD00029F089859A8589238F3FA9F5809134032D
:104DE0009091F30289131CC060960FB6F894DEBF51
:104DF0000FBECDBFDF91CF91089593E0AA0FBB1FE7
:104E00009A95E1F7AC50BD4F98E0FE0131960190C4
:104E10000D929A95E1F78093F3020E94ED0FDECF99
:104E2000B8E08B9FC00111248C509D4F0E94152526
:104E30008823D1F28091340390E0019687709927FE
:104E400080933403CBCFA091F302B0E0CD01019663
:104E500087709927209134032817190671F60E944C
:104E6000BF171092F3021092340388E0EBEEF2E0E9
:104E7000DF011D928A95E9F7B1CF0F931F93CF936E
:104E8000DF938091E004E091DF04CCE081111AC04F
:104E9000DF91CF911F910F910895D1E0DE0FD09354
:104EA000DF040E2F10E0EC9FF0011124EF51FB4FB7
:104EB00083819481892B29F08081918189238F3F7F
:104EC00051F4ED2F8091E004E81738F31092E004DC
:104ED0001092DF04DDCFC09FD001C19FB00D11241F
:104EE000AF51BB4F16968D919C911797892B29F442
:104EF00018968D919C91019651F4208131814281C7
:104F0000538164817581868197810E94C426C09FE8
:104F1000F001C19FF00D1124EF51FB4F1482138259
:104F200010926A05CECF1092680510926705109214
:104F3000100180916605809365050E9409060C9416
:104F40003D273F924F925F926F927F928F929F92F6
:104F5000AF92BF92CF92DF92EF92FF920F931F9387
:104F6000CF93DF93C091650597E0892E01E010E0B3
:104F70002CE0322E3EEF932E44244394809166051C
:104F80008C1315C00E943D27DF91CF911F910F9187
:104F9000FF90EF90DF90CF90BF90AF909F908F9059
:104FA0007F906F905F904F903F900C940906D0E0F7
:104FB000FE01EE0FFF1FE35AFA4F80819181889E18
:104FC000D001899EB00D1124AF5BBA4F14962C917D
:104FD0001497211157C05090E004E1EEF4E030E066
:104FE00020E0712C5D01251508F04AC0E284F384AD
:104FF000D501CD90DC906FEF7FEF612C462D50E016
:10500000DA01AA0FBB1FAC0DBD1D0D90BC91A02DE8
:10501000109731F0EA16FB0609F4BA016394EECF5B
:105020006F3F7607A1F1D80102C0AA0FBB1F6A9596
:10503000E2F77A2AB80102C0660F771F6A94E2F796
:10504000AB014150510974161506F9F4329EF00176
:10505000339EF00D1124EF51FB4F889ED001899EA5
:10506000B00D1124AF5BBA4F12962D913C9113975E
:1050700037832683908291829187808715964C9200
:105080000E94DB052196C37079CF148213822F5FB3
:105090003F4F3C96A8CF2F923F924F925F926F92D4
:1050A0007F928F929F92AF92BF92CF92DF92EF92B8
:1050B000FF920F931F93CF93DF93CDB7DEB769971E
:1050C0000FB6F894DEBF0FBECDBF498B5A8B6B8BEA
:1050D0007C8B8D8B611110926A051D861E861F8642
:1050E000188A85E0FE017196DE01199601900D92F5
:1050F0008A95E1F78091D10582FD1CC00E94970539
:105100002091360330913703821B930B88389341EB
:1051100020F08091380382FFFEC10E949705209104
:10512000590330915A03821B930B8838934110F036
:105130000E94680F8C859D85892B31F089859A8521
:1051400089238F3F09F0D3C129853A854B855C853A
:105150006D857E858F8598890E94C426C2C048EFE0
:10516000C4164CE5D40629F4882379F00E949327CD
:10517000EBCF69EFC6166CE5D60639F4882329F023
:10518000809110018111F2CFC2C101E415E0E12C40
:10519000B12CA12C88248394912C2EEF522E4424E0
:1051A0004394F8014081518166246A94762C20E072
:1051B000822F90E0FC01EE0FFF1FE40FF51F6081CE
:1051C00071816115710531F0C616D70609F43C01ED
:1051D0002F5FEECFF12CFFEF6F167F0609F443C06F
:1051E000F8014481F09010018F2D411180E0F82FDB
:1051F000F170FF2EF801258086819B85992309F4A3
:1052000006C1FF2009F403C1211013C0A40101C08D
:10521000440F6A94EAF7842B86838091DD04909191
:10522000DE04C29730F462E370E07093DE046093B2
:10523000DD04C40102C0880F991F2A95E2F7019787
:10524000F80126812817190671F48091670590915D
:105250006805009709F45EC00E948805C39708F4AA
:1052600059C0F8014482EF28FFEFAF1ABF0A095F67
:105270001F4F24E0A216B10409F093CF8B85882339
:1052800009F420C1EE2009F41DC10E9497059093F6
:105290006805809367058091E004883010F591E0FF
:1052A000980F9093E00498E0FE013996DE01119684
:1052B00001900D929A95E1F73CE0839FC001112483
:1052C0008F519B4F28E0FE013196DC0101900D9239
:1052D0002A95E1F72FEF3FEFFC0131872087D38636
:1052E000C28669960FB6F894DEBF0FBECDBFDF91C0
:1052F000CF911F910F91FF90EF90DF90CF90BF90D3
:10530000AF909F908F907F906F905F904F903F9065
:105310002F9008958091650550916605982FF0E0D3
:10532000E0E0851314C0909365050E171F0709F47C
:105330009ACF90E0FC01EE0FFF1FE35AFA4FB182C3
:10534000A082019683709927809366058CCF282EC2
:10535000312CF101EE0FFF1FE35AFA4F208131810A
:10536000F7E0F29FD001F39FB00D1124AF5BBA4F6D
:105370002D913C911197398F288F40E020E030E04B
:10538000E32FF0E0EE0FFF1F688D798DE60FF71F1A
:105390006080718061147104E1F0F8010190F08186
:1053A000E02DFF8BEE8B20E005C06616770609F432
:1053B0004F2D2F5FE22FF0E0EE0FFF1F6E897F89E8
:1053C000E60FF71F608171816115710571F73F5F0D
:1053D000D7CF4423C9F0F801231708F0FD01448218
:1053E0000E171F0721F490936505F42E3CCF9813F8
:1053F00005C0AE17BF0711F49F5F937091012F5F37
:105400003F4F822F83708DCFF0E0E0E0F7CF90E048
:1054100021101FC0B40102C0660F771F2A95E2F762
:105420009B01215031098217930731F4442309F479
:1054300047C0C5010E94DB05C40101C0880F6A9402
:10544000EAF7982F9095F801868189238683F22CBC
:105450000ACF9C01062C02C0359527950A94E2F7E5
:10546000A90141705527BC0161507109862397231A
:10547000892B11F5452B01F1F80182819381892B4C
:10548000C1F01B821C821D821E8259825A820E9498
:1054900097058160582F9D838C83F80182819381C9
:1054A0008F83988729813A814B816D817E810E940B
:1054B000C426F8011582C0CFF22FF1702F2EBCCF79
:1054C0002F2CBACF9091650580916605981731F021
:1054D0000E94A127EE2009F437CE03CF0E943D277A
:1054E00010926805109267050E940906F3CF61E0EB
:1054F000CE0109960E949E136C018B85F7EFCF16A3
:10550000FCE5DF0609F02BCE882309F43ECE81E0CE
:105510008093100119CE82E00E946117FECD0F9397
:105520001F93CF93DF9300D000D00F92CDB7DEB79B
:105530008C019093DA048093D904011580E2180756
:1055400020F5802F0E94CA1AC8010E945A109801A3
:10555000205E31092830310510F0012B59F40F90ED
:105560000F900F900F900F90DF91CF911F910F919F
:105570000C94B91A0F900F900F900F900F90DF912D
:10558000CF911F910F910C94A81A8EEF89838A8373
:105590001B820E9497058160782F9D838C834981AF
:1055A0005A816B818D810F900F900F900F900F900B
:1055B000DF91CF911F910F910C944B280F931F9364
:1055C000CF93DF938C01EB0165EA74E08C2F0E948E
:1055D0008712892B71F4DD27CF55DB4F8881F801C5
:1055E00010821882833009F148F4813059F08230FA
:1055F00081F0DF91CF911F910F9108958430D1F008
:105600008530B9F78091A5049091A604009789F39D
:1056100006C08091A7049091A804009799F3DF91A8
:10562000CF911F910F910C948F2A8091A904909192
:10563000AA04F3CF8091AB049091AC04009779F762
:105640002091A5043091A6048091A7049091A8040C
:1056500021153105D9F2009711F7C901E0CF0F9359
:105660001F93CF93DF9300D000D00F92CDB7DEB75A
:105670008C019093DA048093D904011580E2180715
:10568000E8F4C8010E945A109801205E31092830C0
:10569000310518F00115110571F40E94C01A802F10
:1056A0000F900F900F900F900F90DF91CF911F915F
:1056B0000F910C94201B0E94AF1AF1CF8EEF8983BB
:1056C0008A8381E08B830E9497058160782F9D8378
:1056D0008C8349815A816B818D810F900F900F903F
:1056E0000F900F90DF91CF911F910F910C944B2849
:1056F000CF93DF93EC010E942F2BCE01DF91CF914E
:105700000C948F2A0F931F93CF93DF938C01862FD6
:1057100065EA74E00E948712892BC9F4C091A50440
:10572000D091A604209799F0F8018081833069F424
:10573000CE010E94782BCE010E94782BCE01DF9102
:10574000CF911F910F910C94782B8430B8F7DF9193
:10575000CF911F910F9108950F931F93CF93DF93D4
:105760008C01EB0165EA74E08C2F0E948712892B73
:1057700009F064C0FE01FF27D8018C91EF55FB4F63
:105780008130D9F419969C911997992311F080834F
:105790000CC01A969C919923D1F382E0808380916A
:1057A000A7049091A8040097D9F48091A504909142
:1057B000A604009709F442C013C08230E9F5199697
:1057C0008C91199781112DC01A968C9181110EC060
:1057D00083E080838091A9049091AA04009719F135
:1057E000DF91CF911F910F910C942F2B84E0808338
:1057F0008091AB049091AC04009791F78091A5043F
:105800009091A6040097F9F00E94782B8091A7044C
:105810009091A804009721F78091A5049091A60487
:10582000DFCF85E080838091A5049091A604009746
:1058300029F00E94782BF0CF86E08083DF91CF9112
:105840001F910F9108958091A7049091A804B1CF62
:105850000E94FF1C81110AC00E940A1D8091A004B1
:10586000847089628093A0040E94C61186E090E053
:105870000E9480368093A004803320F08770886275
:105880008093A0049091A004892F817090FF04C0A0
:10589000892F8695869586950C9427061F920F92E0
:1058A0000FB60F9211242F933F934F935F936F93F3
:1058B0007F938F939F93AF93BF93CF93DF93EF9398
:1058C000FF93D091E900DF708091EC00C82FC17088
:1058D00080FDC0E81092E9008091F000877F8093FE
:1058E000F00078940E94D4171092E9008091F000A3
:1058F00088608093F000CD2BCF70C093E900FF91BA
:10590000EF91DF91CF91BF91AF919F918F917F9157
:105910006F915F914F913F912F910F900FBE0F901C
:105920001F9018951F920F920FB60F9211242F936C
:105930003F934F935F936F937F938F939F93AF9317
:10594000BF93EF93FF938091E10082FF09C08091A4
:10595000E20082FF05C08091E1008B7F8093E1002F
:105960008091DA0080FF24C08091D80080FF20C0A1
:105970008091DA008E7F8093DA008091D90080FFD9
:105980009DC080E189BD82E189BD09B400FEFDCFE3
:1059900081E0809303068091D505811109C00E94A2
:1059A000D2030E94C5048091E20084608093E200EB
:1059B0008091E10080FF17C08091E20080FF13C05A
:1059C0008091E2008E7F8093E2008091E20080610E
:1059D0008093E2008091D80080628093D80019BC47
:1059E00085E0809303068091E10084FF2BC08091C5
:1059F000E20084FF27C080E189BD82E189BD89B5CD
:105A0000982F917080FFFBCF8091D8008F7D80937D
:105A1000D8008091E1008F7E8093E1008091E200C8
:105A20008F7E8093E2008091E20081608093E200AB
:105A30008091FA05882309F447C084E08093030627
:105A4000809103068091E10083FF27C08091E200EE
:105A500083FF23C08091E100877F8093E10082E093
:105A6000809303061092FA058091E1008E7F809367
:105A7000E1008091E2008E7F8093E2008091E2005D
:105A800080618093E20042E060E080E00E94930445
:105A90008091F00088608093F000FF91EF91BF91BA
:105AA000AF919F918F917F916F915F914F913F91B6
:105AB0002F910F900FBE0F901F90189519BC109248
:105AC00003061092D50574CF8091E30087FD93E023
:105AD00090930306B5CF78941F921FB61F9211249E
