:100000000C9424020C945C020C945C020C945C0230
:100010000C945C020C945C020C945C020C945C02E8
:100020000C945C020C945C020C947C290C9438298E
:100030000C94792A0C945C020C945C020C945C0283
:100040000C945C020C945C020C945C020C945C02B8
:100050000C945C020C94552A0C945C020C945C0287
:100060000C945C020C945C020C945C020C945C0298
:100070000C945C020C945C020C945C020C945C0288
:100080000C945C020C945C020C945C020C945C0278
:100090000C945C020C945C020C945C020C945C0268
:1000A0000C945C020C945C020C945C0229001E000F
:1000B0001F0020002100220023002400250026002C
:1000C00027002D002E00310035002B0014001A00EF
:1000D0000800150017001C0018000C001200130087
:1000E0002F0030002A000000E00004001600070086
:1000F00009000A000B000D000E000F003300340051
:10010000000028000000E10000001D001B000600A8
:1001100019000500110010003600370038000000FB
:10012000E5000151E000E200E300000000000000F3
:1001300000002C0000000000E7000000E600E400E2
:100140000000A5003A003B003C003D003E003F009F
:1001500040004100420043004400450049004C007B
:10016000390001000100010001000100010001004F
:100170004600470048005200010001000000010055
:10018000AA00A900A80001000100550054004A007F
:100190004B0050004F00000058000000010000001C
:1001A00001000100010001000100570056004D0050
:1001B0004E0051000000010001000100010001009B
:1001C000000000000000000001000000000001002D
:1001D0000000010001000000000101010101010116
:1001E00001010202020202020202020303030303EC
:1001F00003030304040404040404050505050506BB
:100200000606060607070707070808080809090978
:10021000090A0A0A0B0B0B0C0C0C0D0D0D0E0E0E21
:100220000F0F0F10101111111212131314141515B2
:1002300016161717181819191A1A1B1B1C1D1D1E24
:100240001E1F202021222223242425262627282978
:10025000292A2B2C2D2D2E2F3031323233343536A6
:100260003738393A3B3C3D3E3F40414243444546A6
:100270004748494A4C4D4E4F505153545556585982
:100280005A5B5D5E5F616264656668696B6C6D6F29
:100290007072737577787A7B7D7E8082838587889C
:1002A0008A8C8E8F91939596989A9C9EA0A2A3A5D6
:1002B000A7A9ABADAFB1B3B5B7BABCBEC0C2C4C6D7
:1002C000C9CBCDCFD1D4D6D8DBDDDFE2E4E7E9EB93
:1002D000EEF0F3F5F8FAFDFF05010902A101850230
:1002E0000901A10005091901290515002501950538
:1002F00075018102950175038101050109300931FC
:100300001581257F95027508810609381581257F9D
:10031000950175088106050C0A38021581257F951F
:100320000175088106C0C005010980A10185031976
:10033000012AB700150126B700950175108100C08C
:10034000050C0901A101850419012AA00215012645
:10035000A002950175108100C005010906A1018563
:1003600006050719E029E7150025019508750181A3
:10037000020507190029EF1500250195F075018187
:100380000205081901290595057501910295017568
:10039000039101C005010906A101050719E029E73C
:1003A00015002501950875018102950175088101E7
:1003B0000507190029FF150026FF0095067508811D
:1003C000000508190129059505750191029501752A
:1003D000039101C009023B00020100A0FA090400D8
:1003E0000001030101000921110100012240000761
:1003F0000581030800010904010001030000000950
:10040000211101000122BC00070582032000011216
:1004100001000200000008D4452100010001020093
:100420000112036F006D006E006900680068006BC8
:1004300000620000000C03530061006C0076006154
:10044000000000040309040011241FBECFEFDAE00E
:10045000DEBFCDBF04B603FE18C08091AC059091FD
:10046000AD05A091AE05B091AF058730904BA74088
:10047000B04B59F41092AC051092AD051092AE0538
:100480001092AF05E0E0F8E3099525E0A6E9B2E0B7
:1004900001C01D92AC3AB207E1F712E0A0E0B1E072
:1004A000EEECF0E602C005900D92A639B107D9F73F
:1004B0000E94A02A0C9423300C9400009091A60571
:1004C000937061F081110BC094609093A605109217
:1004D00018018091A50581608093A50508958C324F
:1004E00010F09C6AF2CF880F880F982BEECF909176
:1004F000A605937069F08093A7056093A80547FD52
:100500004FE74093A9058091A50581608093A505DB
:100510000895E8EDF0E080818E7F80831092E20004
:100520001092DA001092E100A0EEB0E08C918160B0
:100530008C9380818F77808319BCA7EDB0E08C917C
:100540008E7F8C9380818F7E8083109246050895E4
:100550002091E4003091E50095E6A9012091EC009E
:10056000822F817020FF06C08091E80080FF06C0C6
:1005700080E008952091E80022FD1AC080916B056B
:10058000882389F0853089F08091EB0085FD0FC0CC
:100590002091E4003091E50042175307F9F29150A1
:1005A000E1F684E0089582E0089583E0089581E013
:1005B0000895EF92FF920F931F93CF937C018B01CD
:1005C0000E94A802C82F811117C08091E80085FD04
:1005D0000BC08091E8008E778093E8000E94A8020B
:1005E000882399F3C82F08C0F70181917F01809378
:1005F000F1000150110949F78C2FCF911F910F91F4
:10060000FF90EF90089580916D0587FF13C0809152
:10061000E80082FF06C08091E8008B778093E800B5
:1006200004C080916B058111F2CF089580916B0514
:100630008823D9F38091E80080FFF8CF8091E8000B
:100640008E77ECCF982F9093E900242F762F50E0EF
:10065000891731F07091EC002091ED005091F0007D
:1006600021FD07C09F5F973071F78093E90081E01B
:1006700008953091EB003E7F3093EB003091ED0018
:100680003D7F3093ED003091EB0031603093EB0013
:100690007093EC002093ED005093F0002091EE0059
:1006A00027FDE0CF80E00895CF92DF92EF92FF9296
:1006B0000F931F93CF93DF93C8EDD0E088818F7E97
:1006C0008883E7EDF0E080818160808384E082BFF1
:1006D00081E08093460588818E7F888302EE10E05A
:1006E000F80110821092DA0081EEC82ED12CF601AA
:1006F000108288818F778883888180688883888149
:100700008F7D888319BC10926B0510926C05109236
:100710006A051092690590EEE92EF12CF7018081AF
:100720008B7F808388818160888342E060E080E005
:100730000E942203F60180818E7F8083F8018081F0
:1007400081608083808188608083F70180818E7FD3
:100750008083888180618883DF91CF911F910F9181
:10076000FF90EF90DF90CF900895FC01809173058A
:100770009091740586179707A0F06115710529F40B
:100780009091E8009E779093E80090E061157105E4
:1007900051F4911108C08091E80082FF34C080E0DC
:1007A0000895BC01F2CF80916B058823C1F185309B
:1007B000C1F18091E80083FD30C08091E80082FDA6
:1007C000EACF8091E80080FFE1CF8091F300209193
:1007D000F200382F6115710519F02830310558F0F5
:1007E00091E02830310509F090E02091E8002E7763
:1007F0002093E800CBCF81918093F1006150710983
:100800002F5F3F4FE7CF80916B05882341F0853004
:1008100041F08091E80083FFBECF81E0089582E03F
:10082000089583E0089508958091480508959C01F6
:100830004FB7F89480913D0590913E05A0913F05FA
:10084000B09140054FBF821B930B08952FB7F894CA
:1008500080913D0590913E05A0913F05B0914005E6
:100860002FBF089520913A0530913B05281739078D
:1008700071F090933B0580933A05E0913805F09133
:100880003905309721F00084F185E02D0994089511
:1008900020913605309137052817390771F090936C
:1008A000370580933605E0913805F091390530978A
:1008B00021F00680F781E02D09940895E091380534
:1008C000F0913905309721F00190F081E02D0994E5
:1008D00080E008958F929F92AF92BF92EF92FF9225
:1008E0000F931F93CF93DF938630B8F5811136C0F5
:1008F00090918000977F909380002F98A091860020
:10090000B0918700282F30E00E94143025E030E0BD
:1009100040E050E00E94F22F89019A018091860008
:10092000909187006CE070E00E94CE2E60177107F6
:10093000D8F0C80169E070E00E94CE2E70938D005F
:1009400060938C00DF91CF911F910F91FF90EF90FA
:10095000BF90AF909F908F90089585E09091800018
:10096000986090938000CACF809186009091870014
:10097000E0908600F0908700E0918600F09187007B
:10098000C6E0D0E0BE010E94CE2E060F171F211D2B
:10099000311D4801590185E0880C991CAA1CBB1C1B
:1009A0008A95D1F7C701BE010E94CE2E9F0150E06B
:1009B00040E0260F371F411D511DC501B4010E94A3
:1009C000F22F49015A01E0918600F0918700CA0197
:1009D000B9010E94BE2E9B01AC01DF010E94DF2FF6
:1009E0009B01AC01C501B4010E94BE2E2FE096957B
:1009F0008795779567952A95D1F700918600109194
:100A0000870030E020E0061717072807390708F0AD
:100A100095CF609186007091870090CFFA01811187
:100A200001C0FB010994E4E5F4E081836083428323
:100A3000339695E0E533F907C1F70895FC01EE0F11
:100A4000FF1FE80FF91FEC5AFB4F6183408322839D
:100A50000895E6EAF5E0248130E1231B08F420E064
:100A600024838091A50581608093A5050895E6EA19
:100A7000F5E0248130E1230F08F42FEF24838091E7
:100A8000A50581608093A5050895E6EAF5E0438118
:100A900020E1421B08F440E08181628190E00C94E7
:100AA0007702E6EAF5E0438120E1420F08F44FEFD8
:100AB0008181628190E00C947702E6EAF5E0628140
:100AC00020E1621B08F460E08181438190E00C9496
:100AD0007702E6EAF5E0628120E1620F08F46FEF49
:100AE0008181438190E00C947702E6EAF5E0818110
:100AF000438162818850990B0C947702E6EAF5E015
:100B0000818190E04381628108960C947702809104
:100B1000A60586958695815009F48BE20C945E02B9
:100B20008091A605869586958F5F8C3208F081E0CE
:100B30000C945E02EF92FF920F939701201B3109F4
:100B40002F3F310519F010F02FEF30E02095382FAE
:100B5000320F08F43FEF832F0F91FF90EF9008952D
:100B6000EF92FF920F939701201B31092F3F310520
:100B700019F010F02FEF30E0322F3095482F430F4F
:100B800008F44FEF842F620F0F91FF90EF900895BC
:100B9000EF92FF920F93972F093438F4B701601B3F
:100BA00071096F3F710519F010F06FEF70E0485F49
:100BB0005F4F4131510540F0A901485F5F4F41311E
:100BC000510510F06FEF70E06095482F460F08F464
:100BD0004FEF842F37FF02C02D5F3F4F359527958C
:100BE000359527956091A705620F792F0F91FF909A
:100BF000EF900895EF92FF920F931F930E0D1F2D0C
:100C0000111DF90137FF03C0F195E195F10924E0C9
:100C1000EE0FFF1F2A95E1F7EF3FF10519F014F0F1
:100C2000EFEFF0E09A0157FF03C0319521953109AC
:100C300094E0220F331F9A95E1F72E173F070CF42B
:100C4000F901E00FF11FEF3FF10519F010F0EFEFA0
:100C5000F0E0E095282F3E2F230F08F42FEF822F8E
:100C60001F910F91FF90EF900895EF92FF920F93D5
:100C7000970195E0099F200D311D11242F3F31056B
:100C800019F010F02FEF30E02095382F320F08F4D4
:100C90003FEF832F0F91FF90EF90089522E8241BE0
:100CA00008F420E0620F08954095282F429F412DBF
:100CB0001124842F0895E42FF0E0EE0FFF1FEC5471
:100CC000FE4F9081921B97FD9195292F38E1239F2C
:100CD000212D1124620F08950F931F9310E0F80146
:100CE000EE0FFF1FEC54FE4F9081905797FD9195AA
:100CF000000F111FF801EB54FE4F00810052110B41
:100D00002003F001219FF00D112408E310E0091BDE
:100D1000110997FD139540039001419F300D112457
:100D2000E20FF31F9F01220F331F2E0F3F1F37FFCC
:100D300002C021583F4F220F232F221F330B620F77
:100D40001F910F9108950F931F93522F10E0F801F8
:100D5000EE0FFF1FEB54FE4FA081A052BB0B9D0175
:100D60005203F001539FF00D1124000F111FD80101
:100D7000AC54BE4F0C910057110B40039001419FA2
:100D8000300D11242E0F3F1F37FF02C0215C3F4F53
:100D900096E0359527959A95E1F7620F1F910F918F
:100DA00008950F931F93522F10E0F801EE0FFF1FCD
:100DB000EB54FE4FA081A052BB0B9D015203F001EA
:100DC000539FF00D1124000F111FD801AC54BE4FDA
:100DD0000C910057110B40039001419F300D1124DD
:100DE0002E0F3F1F37FF02C021583F4F220F232FE6
:100DF000221F330B620F1F910F910895EF920F93F3
:100E0000972F23E0029FB0011124759567956E0D11
:100E1000792F0F91EF900895322F50E0FA01EE0FE5
:100E2000FF1FEB54FE4F9081905297FD9195440F18
:100E3000551FFA01EC54FE4F2081231B330B290F61
:100E4000311D97FD3A95620F0895E42FF0E0EE0F03
:100E5000FF1FEB54FE4F6081621B0895E42FF0E00A
:100E6000EE0FFF1FEC54FE4F6081621B0895622F4E
:100E70000895E42FF0E0EE0FFF1FEC54FE4F408189
:100E800034EE439F412D1124E82FF0E050E0445E02
:100E90005F4FDA01A21BB1099D01B7FF03C0319575
:100EA0002195310993E0220F331F9A95E1F7AF01A5
:100EB000421B530B9A0157FD20E0582F259F212DEF
:100EC0001124822F0895E42FF0E0EE0FFF1FEC5461
:100ED000FE4F408134EE439F412D1124E72FF0E077
:100EE00050E0445E5F4FDA01A21BB1099D01B7FFDC
:100EF00003C031952195310993E0220F331F9A9554
:100F0000E1F7AF01421B530B9A0157FD20E0279FE9
:100F1000212D1124722F08950C9413050C941E0595
:100F2000FC019B01009729F480E077FF2BC080E84B
:100F30000895AC0197FF04C044275527481B590B5F
:100F4000B901640F751F37FD10C0241B350BC90193
:100F5000A5E0880F991FAA95E1F70E94E22E80E292
:100F6000861BF7FF0FC081950895CB0165E0880FC0
:100F7000991F6A95E1F7BA01621B730B0E94E22E7A
:100F800080E6EECF0895EF920F93CF93DF93D72FA4
:100F9000C82FC9010E19BA010E949007602F681B63
:100FA0007D2F8C2FDF91CF910F91EF9008950F93AC
:100FB000CF93DF93D72FC82FC901BA010E949007A2
:100FC000682F600F7D2F8C2FDF91CF910F910895A7
:100FD000EF920F931F93CF93DF93D62FC72F182F26
:100FE000C9010E19010FBA010E949007081B202F9A
:100FF000219F212D1124822F6D2F7C2FDF91CF91E6
:101000001F910F91EF900895EF920F931F93CF933D
:10101000DF93D62F172FC82FC9010E19070FBA015A
:101020000E949007702F781B719F712D11246D2FD6
:101030008C2FDF91CF911F910F91EF9008950F9317
:101040001F93CF93DF93D62FC72F182FC901212FBE
:10105000201B022FBA010E949007982F990F990F19
:10106000891B800F282F219F212D1124822F6D2F66
:101070007C2FDF91CF911F910F9108950F931F93B4
:10108000CF93DF93D62F172FC82FC901272F201BEF
:10109000022FBA010E949007982F990F990F782F6D
:1010A000791B700F719F712D11246D2F8C2FDF9183
:1010B000CF911F910F910895E82F86FDE0952E2F77
:1010C0002F7086FD2F5FE695E695E695E670F0E0D9
:1010D000EF59FE4F9181929F902D212D11249295D1
:1010E0009F702295207F922B2081920F87FD9195F2
:1010F00080E8890F08950F931F93CF93DF938B019F
:10110000D82FC42F822F0E945C08EC2FF0E0EE0F46
:10111000FF1FEC54FE4F90819058890F87FD8195F9
:10112000880F682F2CE0629F612D1124600F712FB2
:101130008D2FDF91CF911F910F9108954091100154
:101140005091110125E038E0429FC001439F900D6E
:10115000529F900D1124875E994C909311018093BA
:101160001001890F0895AC018230910508F40895AB
:101170009FEF413E8EE1580740F49A0195E0369585
:1011800027959A95E1F798E0920F61E0E62FE90F35
:10119000FF27FF1F9F0135952795822F229FF00182
:1011A000239FF00DF00D11244E175F0738F49FEFC9
:1011B000920F961758F78FEF860F08952F3FE9F398
:1011C00061E0620FF6CF0F93CF93DF93D72FC82F35
:1011D00047FD419588E390E0841B910947FD939575
:1011E000889FB001899F700D700D1124229FC0014E
:1011F000239F900D900D1124860F971F0E94B30816
:10120000982F990F890F682F600F7D2F8C2FDF91FA
:10121000CF910F91089530E020E0869F212D969F79
:10122000200D311D1124C9010895AF92BF92CF92B4
:10123000DF92FF920F931F93CF93DF93362F472FA9
:10124000E82FF0E0E852FE4F71110FC0E4918E2FAD
:101250002E2F6E2F722FDF91CF911F910F91FF9044
:10126000DF90CF90BF90AF900895C72FD0E024912A
:10127000F22E022F10E056E0659FC0011124EFEF1F
:10128000F0E0BF010E94CE2E832F90E0880F991FBF
:1012900035E5369FD001379FB00D11248A1B9B0B7B
:1012A000982F990F980F6F01CC1ADD0AC09ED001BC
:1012B000C19EB00DD09EB00D11248B2F499FA0016F
:1012C0001124452F55276F01C41AD50AC09EA001CD
:1012D000C19E500DD09E500D11245F01A91AB10876
:1012E000AC9E6001AD9ED00CBC9ED00C1124CD2CC8
:1012F000DD24EC19FD09E09FE001E19FD00DF09F96
:10130000D00D1124ED2F62307105A1F050F461155C
:10131000710509F49ECF6130710581F0EB2F852FA7
:1013200098CF6430710569F080F06630710509F47A
:1013300090CFF4CFE22F2B2F8D2F8BCFE22F252FA5
:1013400088CFEB2F822F2D2F84CF2B2F8F2DE52FA2
:1013500080CF2F923F925F926F927F928F929F9257
:10136000AF92BF92CF92DF92EF92FF920F931F93B3
:10137000CF93DF93CDB7DEB72A970FB6F894DEBFD1
:101380000FBECDBF8B837E836D83209115018FE0CF
:10139000289F802D11248F83815F89838A838C34D9
:1013A00010F03BE43A83809179058C83FF81EF2F25
:1013B000F0E0FA87E987CF01880F991F9C012C5430
:1013C0003E4F69013B81832F90E0FC013196F88705
:1013D000EF838A8199859817E8F081E0E981EB3401
:1013E00008F080E02A960FB6F894DEBF0FBECDBF9E
:1013F000DF91CF911F910F91FF90EF90DF90CF90F1
:10140000BF90AF909F908F907F906F905F903F9034
:101410002F900895E985FA85E65BFD4F80819091D4
:1014200016018923F1F02090A7053090A8052F819F
:10143000388527583A4F39015B8010E0FC815F16F0
:10144000D0F02091A905129F112D1124B101812FF7
:101450000E941509462F282F672F89859A850E949B
:101460008E0729853A852F5F3F4F3A87298732E0DB
:10147000C30ED11CAECFF30181913F01F601A080D4
:10148000A81ABB088180F3018781881A9908AA9C51
:101490009001AB9C300D300D1124889CC001899CBB
:1014A000900D900D1124820F931F0E94B308082FF6
:1014B0006091AA0521E0620F08F46FEFF301EE0FCF
:1014C000FF1FE957F540858996890E940B097C0129
:1014D0009401A501B101812FED81FE8109951B01C8
:1014E0005394182FABCFCF92DF92EF92FF920F93CE
:1014F0001F93CF93DF938C01C09115018FE0C89F9C
:10150000C02D11242FE0D22EDC0ECD2C2BE42D1576
:1015100010F49BE4C92E2091AA0531E0230F08F4B2
:101520002FEF30E050E040E06FEF7FEF80E090E0A1
:101530000E94C02F7901D0E02C2FCC1570F081E0F3
:10154000FAE4FD1508F480E0DF91CF911F910F912F
:10155000FF90EF90DF90CF900895FE01E65BFD4F86
:10156000808190911601892311F1409179054150B4
:10157000042E000C550B47FF1CC0C7016091AA0543
:1015800021E0620F08F46FEF0E940B09AC0160913B
:10159000A7057091A8058091A905F80109950E94F9
:1015A0001509462F282F672FCE010E948E072196FE
:1015B000C3CFFA01E758FA4F818982130AC0FA01B2
:1015C000EE0FFF1FE758FA4F818D928D8E159F0504
:1015D000A8F241505109CFCFDF92EF92FF920F93C3
:1015E0001F93CF93DF937C01C09115018FE0C89FBB
:1015F000C02D11241FE01C0F012F1C3408F00BE438
:101600006091AA056695669521E0620F08F46FEF78
:1016100080917505909176050E940B09D82ED0E037
:10162000C01760F081E01B3408F080E0DF91CF91BB
:101630001F910F91FF90EF90DF900895FE01E65B00
:10164000FD4F808190911601892391F06091A7054B
:101650007091A8058091A9052D2D4C2FF7010995B2
:101660000E941509462F282F672FCE010E948E0752
:101670002196D6CF9F92AF92BF92CF92DF92EF92F8
:10168000FF920F931F93CF93DF936C01C0911501CD
:101690008FE0C89FC02D11241FE01C0FB12E1C34F9
:1016A00010F03BE4B32E6091AA0566956695809193
:1016B0007505909176050E940B09F82E80E48F0D38
:1016C0000E945C0890E8A92EA80E8F2D0E945C084D
:1016D00020E8922E980ED0E0CB1580F081E01B34EC
:1016E00008F080E0DF91CF911F910F91FF90EF9074
:1016F000DF90CF90BF90AF909F900895FE01E65B82
:10170000FD4F8081909116018923A1F06091A7057A
:101710007091A8058091A905EF2C0C2F292D4A2D39
:10172000F60109950E941509462F282F672FCE0133
:101730000E948E072196D0CF7F928F929F92AF9278
:10174000BF92CF92DF92EF92FF920F931F93CF93AE
:10175000DF935C01C09115018FE0C89FC02D11245B
:101760001FE01C0FF12E1C3410F03BE4F32E6091AF
:10177000AA05669580917505909176050E940B09E2
:10178000782ED0E0CF1590F081E01B3408F080E097
:10179000DF91CF911F910F91FF90EF90DF90CF904D
:1017A000BF90AF909F908F907F900895FE01E65B71
:1017B000FD4F8081909116018923C9F1CE01880FD8
:1017C000991F87599E4FFC01E55BFF4F2081422FF7
:1017D0004057550B6A01845B9F4FFC018081282F85
:1017E0002052330B4901449F9001459F300D300D2D
:1017F0001124889CC001899C900D900D1124820FAA
:10180000931F0E94B308082F6091A7057091A80547
:101810008091A905E72C9401A601F50109950E9484
:101820001509462F282F672FCE010E948E0721967B
:10183000A9CFCF92DF92EF92FF920F931F93CF9396
:10184000DF937C01C09115018FE0C89FC02D11244A
:101850001FE01C0FD12E1C3410F03BE4D32E6091FE
:10186000AA05669580917505909176050E940B09F1
:10187000C82ED0E0CD1568F081E01B3408F080E080
:10188000DF91CF911F910F91FF90EF90DF90CF905C
:101890000895FE01E65BFD4F80819091160189233A
:1018A00011F1CE01880F991F87599E4FFC01E45B0F
:1018B000FF4F20812052330B855B9F4FFC014081FD
:1018C0004057550B6091A7057091A8058091A90517
:1018D0000C2DF70109950E941509462F282F672F17
:1018E000CE010E948E072196C5CF0E9426049C013E
:1018F0009091800380918103982B21F030937D0398
:1019000020937C039091820380918303982B21F094
:1019100030937B0320937A03E0913805F0913905E9
:10192000309749F082E080937E030480F581E02DBA
:101930008EE793E009940895909180038D3E59F4C9
:101940008091810387FF0DC01092810391110BC01C
:101950001092780308C08E3E81F48091810318169E
:101960009CF3992381F08091820390918303892BCA
:1019700009F064C01092770308958F3E49F497FFF1
:10198000F0CF10928003809181038111ECCFE0CFE2
:10199000803F19F41916ACF3E4CF20918203893FFC
:1019A00029F41216F4F610928203DBCF8A3F19F461
:1019B00027FFD7CFF8CF209183038B3F29F427FF50
:1019C000D0CF10928303CDCF8C3F19F41216CCF3F5
:1019D000C8CF813F31F480917F038E7F80937F0356
:1019E000C0CF823F21F480917F038D7FF7CF833F6B
:1019F00021F480917F038B7FF1CF843F21F480918C
:101A00007F03877FEBCF853F21F480917F038F7E1B
:101A1000E5CF8D3F31F4809179038E7F80937903F8
:101A2000A0CF8E3F21F4809179038D7FF7CF8F3F38
:101A300009F097CF809179038B7FF0CF0895809143
:101A4000790380FD16C081FD16C082FD16C080910D
:101A500077038823A1F0883280F428E0829FC001B8
:101A6000112468E270E00E94E22E862F672B39F085
:101A7000089582E0089584E0089588E0089581E063
:101A800008958091790380FD14C081FD14C082FD0A
:101A900016C080917803882381F08E3180F420E590
:101AA000829FC00111246EE170E00E94E22E862F19
:101AB000089584E1089588E2089588E0089580E516
:101AC00008958D3E31F40E94410D819580938103EC
:101AD00008958E3E19F40E94410DF8CF8F3E31F4E7
:101AE0000E94410D8195809380030895803F19F4F1
:101AF0000E94410DF8CF893F29F40E941F0D809369
:101B0000820308958A3F21F40E941F0D8195F7CF2B
:101B10008B3F31F40E941F0D8195809383030895BC
:101B20008C3F19F40E941F0DF8CF813F31F4809152
:101B30007F03816080937F030895823F21F4809129
:101B40007F038260F7CF833F21F480917F0384601D
:101B5000F1CF843F21F480917F038860EBCF853FF4
:101B600021F480917F038061E5CF8D3F31F4809136
:101B7000790381608093790308958E3F21F48091E9
:101B800079038260F7CF8F3FB9F780917903846042
:101B9000F1CF80E00895F894E82FE295EF70F0E03F
:101BA00031A1282F2F7081E090E001C0880F2A9585
:101BB000EAF7982F9095932391A392A1892B82A362
:101BC000789408959091410592FF06C0282F2871BE
:101BD0002830F9F4877F846093FF06C0282F28718E
:101BE0002831F1F4877E84612091420520FF06C0F0
:101BF000382F38713830D9F4877F816021FF06C0D3
:101C0000282F28712831D1F4877E816194FD877E49
:101C10000895282F24712430F9F68B7F8860DCCF5B
:101C2000282F2471243101F78B7E8861DDCF382F76
:101C30003171313019F78E7F8860E0CF282F217104
:101C4000213121F78E7E8861E1CFCF93DF93EC01C4
:101C500082389105A9F1D8F58133910509F496C030
:101C600048F58932910509F48AC08A9709F495C02C
:101C7000C11521E5D20708F0BCC0C11530E5D30776
:101C800008F014C1C83ED10508F09CC0C03ED10583
:101C900060F5C83AD10508F087C0C53AD10508F00B
:101CA000FDC0C130D10509F12097F9F0C430D1054C
:101CB000E0F440C08533910509F45AC0C997C1F6D4
:101CC00080914105837089F0C0EED0E00EC0833E64
:101CD000910599F170F4803E910501F1823E9105E4
:101CE00039F68091410582FD21C0CE01DF91CF916F
:101CF0000895863E910561F1873E910571F1843E1C
:101D0000910509F0B5CF8091420581FFEECF80911A
:101D10004105C7EED0E084FD0DC0E7CF80914105BD
:101D200080FD12C19091420590FFDFCFC3EED0E05D
:101D300084FFDBCFD0E0C0E0D8CF8091410582FDA9
:101D400006C19091420590FDBFCF84FFCECFF2CF68
:101D50008091410583FDDDCFC8CF8091410583FD92
:101D6000F9C09091420591FFF0CFC4EED0E0BDCF15
:101D70008091410585FFB9CFC9E2D0E0B6CF80910F
:101D8000410585FFB2CFC5E3D0E0AFCF80914105DB
:101D900086FFABCFCAE2D0E0A8CF8091410586FF95
:101DA000A4CFC1E3D0E0A1CFCF3BD10518F6C85AEC
:101DB000D0E0CC0FDD1FC15EDE4F0990D881C02D71
:101DC000D46493CFC11540E2D40758F4C11581E023
:101DD000D80708F08ACFCD3ED10508F4ABCFD06547
:101DE00084CFC11590E4D90708F4A4CFDF70D06A7E
:101DF0007CCFC11525E5D20700F5C11534E5D30721
:101E000008F08AC0C11543E5D40708F071C0C115B8
:101E100082E5D80708F467C0CE018370992721E0D6
:101E200030E002C0220F331F8A95E2F7C695C695AF
:101E300080E2C89FE001112452C0C11599E5D9077D
:101E4000A8F4C11528E5D20708F06BC0C11536E526
:101E5000D30708F06FCF8C2F0E94E20DC82FD0E07F
:101E6000DC2FCC27CC27DF71D0623FCFC1154AE5EC
:101E7000D40708F45BC0CE0190568115904208F05B
:101E800059CF8D2F8F710E94E20D90E0982F8827F7
:101E900088279F719C012C2BE901E6CFC55AD0E021
:101EA000C45EDE4FC881D0E0D0641FCFCE01E4E035
:101EB00096958795EA95E1F783702C2F26952695C0
:101EC000237040E2249F90011124382B8C2F8370C3
:101ED000C1E0D0E002C0CC0FDD1F8A95E2F7C22B33
:101EE000D32BDC6802CFDC2FCC27C16FD06AFDCEAC
:101EF000CE018370992721E030E002C0220F331F0A
:101F00008A95E2F7C695C69590E2C99FE001112433
:101F1000C22BD32BDA68E9CEDC2FCC27C46FD06A72
:101F2000E4CEDC2FCC27C06FD06ADFCE8C2F8F7031
:101F30000E94E20D34E0D695C7953A95E1F7CF704F
:101F40009C2FEC01D069D1CEC9E3D0E0CECEC2EE59
:101F5000D0E0CBCEC6EED0E0C8CE80914B03882334
:101F600031F010924B0310924A03109249030895E6
:101F70008095909148039823909348030895109278
:101F800026031092250310922403089580912303C1
:101F90008111109223030895909114019923D1F097
:101FA0009091410597FF16C0E82FE695E695E695D6
:101FB000EE31E0F4F0E0E856FD4F282F277081E085
:101FC00090E001C0880F2A95EAF7809592818923D5
:101FD00082830895EAE9F2E09191891303C0DF0159
:101FE00011971C9292E0E03AF907B1F708959091A9
:101FF00014019923C1F09091410597FF14C0E82F77
:10200000E695E695E695EE31F8F4F0E0E856FD4FFA
:10201000877021E030E001C0220F8A95EAF78281C3
:10202000822B82830895AAE9B2E0EFEF90E02D9130
:10203000821751F0EF3F19F4211101C0E92F9F5F82
:102040009630A9F7EF3F09F408950E2E000CFF0B10
:10205000E856FD4FE6CF809122039091F10298134C
:1020600001C008958F5F8770FACFAF92BF92CF9271
:10207000DF92EF92FF920F931F93CF93DF93C09065
:102080005D03D0905E03E0905F03F09060034091A9
:102090004C0350914D0360914E0370914F03C42A3D
:1020A000D52AE62AF72ACFE1D0E0082F10E02FE06A
:1020B000929F000D111D11249BE4A92EBC2ED70167
:1020C000C6010C2E04C0B695A795979587950A94DE
:1020D000D2F780FD0FC0219788F7B12C8B2DDF91AF
:1020E000CF911F910F91FF90EF90DF90CF90BF9015
:1020F000AF900895AC9EF001AD9EF00D1124E00F5D
:10210000F11FEE0FFF1FE455FF4F859194910E9440
:10211000250E019701F3E2CFCF93DF93EC010E94EC
:102120003510EC2FF0E09FE0D99FE00DF11D112458
:102130009BE4899FE00DF11D1124EE0FFF1FE45574
:10214000FF4F85919491DF91CF910C94250E2FE054
:10215000929F800D1124982F97708695869586956D
:1021600025E0829FF0011124E754FD4F50E040E04C
:1021700080E0219130E0092E02C0369527950A941F
:10218000E2F721703327042E01C0220F0A94EAF7E8
:10219000822B4F5F5F4F4530510559F708952FE06F
:1021A000929F800D1124982F977041E001C0440F39
:1021B0009A95EAF786958695869595E0899FF00130
:1021C0001124E754FD4F90E080E070E05191DF0171
:1021D00011979B01082E02C0369527950A94E2F7C5
:1021E000217021952527242325272C9301968530BE
:1021F000910561F70895FC01808191810E948C1006
:1022000092959F70963091F058F4925F9F70923043
:1022100058F4803F19F030F4883E30F481E008959E
:102220009A5FF4CF843FD1F380E00895883EB0F305
:10223000813FD1F7F3CF80934305709345056093B9
:10224000440580916B05843001F582E08093E900BC
:102250008FEF9091E800815095FD06C095ED9A951D
:10226000F1F700008111F5CF8091E80085FF0DC0E6
:1022700050E040E063E070E083E495E00E94D90222
:102280008091E8008E778093E8000895BC0184E097
:102290000C941B11BC0183E00C941B119C0182E087
:1022A0008093E9009FEF8091E800915085FD06C082
:1022B00085ED8A95F1F700009111F5CF8091E80046
:1022C00085FF0CC050E040E066E070E0C9010E946C
:1022D000D9028091E8008E778093E8000895CF932B
:1022E000DF93EC01809114018823B1F180914105C5
:1022F00087FF32C060E282E08093E9008FEF909127
:10230000E800815095FD06C095ED9A95F1F7000023
:102310008111F5CF8091E80085FF1BC080911401E9
:1023200070E050E040E0811104C050E040E068E01F
:1023300070E0CE010E94D9028091E8008E778093F0
:10234000E80080E2FE01A9E4B5E001900D928A95D3
:10235000E1F7DF91CF91089568E081E0CDCF81E092
:102360008093E00080E28093D8001092C9008FE152
:102370009EE40197F1F700C0000087E090EBDC01DC
:102380008093AC059093AD05A093AE05B093AF05D7
:1023900088E19CE00FB6F894A895809360000FBE8A
:1023A00090936000FFCF6A9A3EB13B7F2EB12460CC
:1023B0004FB7F89484E594E0FC015191CF0168E0B7
:1023C0002EB9000000C057FF3EB9550F000000C0F5
:1023D00000C000C03EB900C06A9591F7F5E08533B2
:1023E0009F0751F74FBF8FE594E00197F1F700C0C9
:1023F00000000895682F86E090E00C949C2FCF9306
:1024000084E090E00E947E2FC82F82E290E00E943C
:102410007E2F982F8C2FCF9108951F93CF93DF930A
:10242000EC01FC01E65BFD4F80816823C9F00E944E
:10243000482F182F0E94482F8F77782F20E8720F8F
:1024400008F47FEF612F8091A9050E941509462F9E
:10245000282F672FCE01DF91CF911F910C948E070B
:10246000DF91CF911F910895DF92EF92FF920F932A
:102470001F93CF93DF938C01FC01E65BFD4F8081BE
:10248000682381F1D090A805D091A905C091A70536
:10249000EC2EF12C0E94482F282FC7018C549F4FFF
:1024A00068E671E00E94E22E8E199F0997FD03965F
:1024B000959587959595879523706C2F289F600D2E
:1024C00011247D2D8D2F0E941509462F282F672F4F
:1024D000C801DF91CF911F910F91FF90EF90DF9096
:1024E0000C948E07DF91CF911F910F91FF90EF9089
:1024F000DF900895E6EAF5E085E380838091190195
:1025000090911A01A0911B0181839283A3838FE78D
:1025100084838FEF858346E050E06CE170E0CF016B
:102520000E948C2F1092A50508953F924F925F92C2
:102530006F927F928F929F92AF92BF92CF92DF92D3
:10254000EF92FF920F931F93CF93DF93682E8091AA
:102550001301861124C09091A60593702091120159
:1025600030E081E09217130609F480E081708093D7
:1025700017018091AB0590911601981739F080935F
:10258000160140E060E080E00E948C072BE22615F7
:1025900060F0E62DF0E0EB5DFF4C0C94F62E81E050
:1025A000E5CF80911701811102C0C0E08EC140E0EB
:1025B00060E080E00E948C07F8CFC09115018FE0A9
:1025C000C89FC02D11241FE01C0F012F1C3408F0E0
:1025D0000BE46091A7057091A8058091A9050E9460
:1025E0001509F62EE72ED82ED0E0C01728F0C1E04E
:1025F0001B3408F46AC1D9CFFE01E65BFD4F808130
:1026000090911601892331F02D2D4F2D6E2DCE0185
:102610000E948E072196E9CFC09115018FE0C89FD7
:10262000C02D11241FE01C0F012F1C3408F00BE4F7
:10263000E090A805F090A905D091A7056D2F7E2DFB
:102640008F2D0E941509D62EC72EB82E6091AA058F
:102650006D0F7E2D8F2D0E941509F62EE72EA82EC8
:10266000D0E0C01720F6FE01E65BFD4F908180911F
:102670001601892359F02A2D4F2D6E2D90FD03C090
:102680002B2D4D2D6C2DCE010E948E072196E9CF6A
:10269000C09115018FE0C89FC02D11241FE01C0FB1
:1026A000F12E1C3410F03BE4F32EE090A805D090FE
:1026B000A9052091AA0500E4029F012D1124D0E074
:1026C000CF1508F094CFFE01E65BFD4F808190911D
:1026D00016018923B9F0FE01EE0FFF1FEB54FE4FE8
:1026E000808182958F706091A705809F600D112475
:1026F0007E2D8D2D0E941509462F282F672FCE0184
:102700000E948E072196DCCFC09115018FE0C89FF3
:10271000C02D11241FE01C0FF12E1C3410F09BE47F
:10272000F92EE090A805D090A9052091AA0500E413
:10273000029F012D1124D0E0CF1508F058CFFE01E3
:10274000E65BFD4F8081909116018923D9F0FE014F
:10275000EE0FFF1FEC54FE4F6081069FB001112465
:1027600085E0759567958A95E1F78091A705680FD3
:102770007E2D8D2D0E941509462F282F672FCE0103
:102780000E948E072196D8CFC09115018FE0C89F77
:10279000C02D11241FE01C0F012F1C3408F00BE486
:1027A000F090A705D091A805E090A9056091AA0531
:1027B00066956695669580917505909176050E945F
:1027C0000B090E945C08805887FD8195880F282F8F
:1027D0003E2D239F212D1124822F6F2D7D2F0E94AE
:1027E0001509F62EE72ED82ED0E0C01708F0FFCE40
:1027F000FE01E65BFD4F808190911601892331F047
:102800002D2D4F2D6E2DCE010E948E072196EDCFDE
:1028100083E697E00E94EC0A07C089E397E0FACFCD
:102820008EE398E00E94190CC82F4FC08FE198E00A
:10283000F9CF84E098E00E949C0BF6CF88EE97E0F9
:10284000FACF87E397E0E6CF8EE297E0E3CF85E229
:1028500097E0E0CF8CE097E0DDCF8EEF96E0EBCF16
:1028600083EE98E0DFCF87ED97E0DCCF83EC97E055
:10287000E2CF81ED96E00E943A0BD6CF83EA96E054
:10288000FACF8CE696E0F7CFC0911701C11142C094
:102890006091AA0520E1620F08F46FEF8091750541
:1028A000909176050E940B096AE070E00E94CE2E9E
:1028B000892B09F07ACE0E94482F6BE470E00E94C9
:1028C000E22E609116010E943412809115018F5FF3
:1028D00080931501C1110CC082E080931801809192
:1028E0001701811105C0611003C083E080931801B6
:1028F000DF91CF911F910F91FF90EF90DF90CF90DC
:10290000BF90AF909F908F907F906F905F904F900F
:102910003F900895C09115018FE0C89FC02D1124EC
:10292000AFE0FA2EFC0E0F2D8BE48F1508F40BE4AC
:10293000D0E010E0C017D1072CF0C1E09AE49F1559
:1029400020F633CE60911601CE010E9434122196FA
:10295000F1CFC0911701C1111EC06091AA0520E1FD
:10296000620F08F46FEF80917505909176050E94D3
:102970000B0965E070E00E94CE2E892B09F015CE80
:102980000E94482F6BE470E00E94E22E60911601D5
:102990000E940D129ACFC09115018FE0C89FC02DE3
:1029A0001124FFE0FF2EFC0E0F2DABE4AF1508F451
:1029B0000BE4D0E010E0C017D10734F0C1E0BAE476
:1029C000BF1508F082CFF1CD60911601CE010E94B3
:1029D0000D122196F0CFC09115018FE0C89FC02D38
:1029E00011241FE01C0F012F1C3408F00BE4E090B1
:1029F000A805F090A905D091A7056091AA05669554
:102A00006695669580917505909176050E940B09F3
:102A10000E945C08805887FD8195880F682F2CE004
:102A2000629F612D11246D0F7E2D8F2D0E9415093F
:102A3000F62EE72ED82ED0E0C01708F0D8CDFE0134
:102A4000E65BFD4F808190911601892331F02D2D99
:102A50004F2D6E2DCE010E948E072196EDCF8BE774
:102A600098E0D8CE8BE596E0D5CE40918403509186
:102A7000850360918603709187038091750590911D
:102A80007605A0917705B091780584179507A6077C
:102A9000B70708F48ACD0E949E08182F0E949E084E
:102AA0009BE4891BF0F7890FC82FD0E0FE01E65B9D
:102AB000FD4F809116019081892309F498C220E08E
:102AC00040E060E011FD13C00E949E08182F0E9494
:102AD0009E08782F76952FE7720F08F47FEF612F0D
:102AE0008091A9050E941509462F282F672FCE0136
:102AF0000E948E072091AA0530E1230F08F42FEFE2
:102B000060E1822F90E00E940B09BC0184EF91E00C
:102B10000E94CE2E8091750590917605A091770543
:102B2000B0917805860F971FA11DB11D8093840376
:102B300090938503A0938603B093870336CD40918D
:102B4000D3035091D4036091D5037091D603809143
:102B5000750590917605A0917705B0917805841759
:102B60009507A607B70708F420CD809117018823A1
:102B700029F040E060E080E00E948C076091A705AA
:102B80007091A8058091A9050E941509962E872E9F
:102B9000782EC8E8D3E009E611E0EEE0CE2ED12C85
:102BA00058017E01512CD7012D917D01F5018191B4
:102BB0005F0190E0222309F481C0272D492D682D63
:102BC0000E948E07D7018C91F7013197808353942F
:102BD000B6E05B12E8CF76017EE0572EF701E857AA
:102BE000FC4F5F01F701E759FE4F808190E0D5016E
:102BF0002C91222309F466C0272D492D682D0E94AF
:102C00008E07F50131978081F50180835A94F1E0B8
:102C1000EF1AF10827E05212E1CFD80117968C91F4
:102C200090E02F81222309F451C0272D492D682DD2
:102C30000E948E07F801868190E02E81222309F4FC
:102C400049C0272D492D682D0E948E070E949E089D
:102C5000837091E009F090E09E839F832F96015F3F
:102C60001F4FFFE0CF0ED11C29E5C216D10409F099
:102C700097CF2091AA0530E1230F08F42FEF60E1F0
:102C8000822F90E00E940B09BC0188EB9BE00E9420
:102C9000CE2E8091750590917605A0917705B09123
:102CA0007805860F971FA11DB11D8093D3039093C4
:102CB000D403A093D503B093D60377CC20E040E0B3
:102CC00060E07ECF20E040E060E099CF20E040E08F
:102CD00060E0AECF20E040E060E0B6CFC0911501EB
:102CE0008FE0C89FC02D11246FE0562E5C0E152D6D
:102CF0003BE4351508F41BE480911701882361F04B
:102D000040E060E080E00E948C07EBEDF3E08BE4B4
:102D1000DF011D928A95E9F780911501811115C097
:102D20008091D8039091D9030E94170421E0893142
:102D3000910508F420E02093D703499730F00E94D2
:102D400026049093D9038093D803D0E0E12EF12C90
:102D500035E0832E912C4FE0442E5AEA352ECE15C5
:102D6000DF0534F0C1E0BAE4B51508F0AECD1DCCF6
:102D7000CE01B4010E94E22E6B015C014A9CC001AD
:102D80004B9C900D1124FC01E552FC4FE60FF71F00
:102D9000708087599E4FFC01E60FF71F00810F3F9F
:102DA00051F110E0F801E65BFD4F80819091160132
:102DB000892309F1372D25E5321B08F430E07091A5
:102DC000A805232D472D240F08F42FEF4091A905C6
:102DD000822F880F820F8E5F282F249F212D112490
:102DE000822F632D631B0E941509462F282F672F02
:102DF000C8010E948E078091D703882381F0372D68
:102E000041E0341B08F430E04A9CC0014B9C900D1B
:102E1000112485529C4FC80ED91ED6013C93219691
:102E20009ECF80911701882371F040E060E080E040
:102E30000E948C07EBEDF3E08BE4DF011D928A9595
:102E4000E9F71092DA03D0E0C0E088248A9480ED9C
:102E5000C82ED12C90EC792E2FE2A22EB12C8E010F
:102E6000912C9E0125523C4F79018091DA038929EA
:102E7000A9F50E94482F8535954084F5F701808299
:102E8000F801E759FE4FE081EF3FB1F0D801A552BC
:102E9000BC4F2C91F0E0213D50F1205D330B729E30
:102EA000C001739E900D1124B5010E94CE2E262FD5
:102EB0004FEFCF010E948E079394015F1F4FF5E003
:102EC0009F12D3CF2196CF30D10549F68091DA03F6
:102ED0008F5F8D31B0F48093DA0367CBF801E55250
:102EE000FC4F808181508E3F58F68083C9CF289D4A
:102EF000C0011124B6010E94CE2E462F20E060E0D2
:102F0000D8CF1092DA0328E034E084E06AEE73E070
:102F10009EEFABEDB3E0F901843041F4DC964C91C7
:102F2000DC974F3F19F4DC969C93DC9740814F3F30
:102F300011F490834787119631966A177B0761F7E2
:102F400081502F5031098111E4CF2FCB84E596E0D9
:102F50000E94730A69CC8EE496E0FACF80917905DD
:102F600021E0382F321B08F430E0832F65E376E050
:102F70000E94A90959CC65E376E080E0F9CF809101
:102F8000790521E0482F421B08F440E0842F6AEFC6
:102F900075E0EECF6AEF75E0F0CF8091790521E022
:102FA000382F321B08F430E0832F68EC75E0E0CF57
:102FB00068EC75E0E2CF8091790521E0482F421B53
:102FC00008F440E0842F60EB75E0D2CF60EB75E051
:102FD000D4CF8091790521E0382F321B08F430E0FE
:102FE000832F6AE975E0C4CF6AE975E0C6CFC1E016
:102FF0006CCC8F929F92AF92BF92CF92DF92EF9262
:10300000FF921F93CF93DF9380914F0490915004D0
:10301000A0915104B09152042FB7F89480903D05CF
:1030200090903E05A0903F05B09040052FBF7501E0
:103030006401C81AD90AEA0AFB0A2FB7F89440912A
:103040003D0550913E0560913F05709140052FBFB1
:1030500040934F0450935004609351047093520472
:1030600010912604E6E2F4E0C12FD0E00197AF4FC3
:10307000BF4F88199909AA09BB091D1327C0C0931E
:10308000260480915304C0E0811108C08091A605F8
:10309000C82FC37019F0C82FC695C6958091180126
:1030A0008130F1F1882329F1823009F454C0833052
:1030B00009F45CC0DF91CF911F91FF90EF90DF90FA
:1030C000CF90BF90AF909F908F900895218D328DBB
:1030D0004901B12CA12C88159905AA05BB0520F43E
:1030E000C150DF5F3296C9CF2C0D3D1D328F218F2D
:1030F000F8CF1092150140937505509376056093B3
:1031000077057093780589E2E6E2F4E0A9E7B5E097
:1031100001900D928A95E1F781E080931801CACF62
:103120008C2F0E949512CC2329F20E945E0481FF0D
:10313000C1CF2FEF4FEF6FEF8CE190E0DF91CF9198
:103140001F91FF90EF90DF90CF90BF90AF909F9036
:103150008F900C948E07C09313018091A605837005
:10316000809312010E94D31183E0D7CF8091A505EF
:10317000882351F046E050E06CE170E086EA95E08B
:103180000E948C2F1092A5054091750550917605EF
:1031900060917705709178052FB7F89480913D057F
:1031A00090913E05A0913F05B09140052FBF841B33
:1031B000950BA60BB70B4097A105B10508F47ACF84
:1031C0001092180177CF4F925F927F928F929F92C9
:1031D000AF92BF92CF92DF92EF92FF920F931F9325
:1031E000CF93DF93CDB7DEB72A970FB6F894DEBF43
:1031F0000FBECDBF8E010F5F1F4F8AE0F801119205
:103200008A95E9F72DE4E22E21E0F22ECC24C39436
:10321000D12C88248394912C51E6A52E51E0B52E13
:10322000F70181917F018F3F09F44DC0F894E82F99
:10323000E295EF70F0E021A18F70A40102C0440F6D
:10324000551F8A95E2F7CA01922F982B91A392A15C
:103250008095892382A3789400C09CE5492E91E053
:10326000592ED801B60160957095F20171902F0129
:103270008D919D91AD0142505109FFEF7F1609F4E8
:103280007DC0272D22952F7030E0F90120A130E07C
:10329000F72DFF7002C035952795FA95E2F720FDCE
:1032A0006DC08C299D29FA0191838083A414B504F3
:1032B000E1F6F701319780818F3F11F00E94CB0D2D
:1032C000F0EAFA95F1F7CC0CDD1C2CE5E21621E0D2
:1032D000F20609F0A5CF4AE050E0B80183E593E09B
:1032E0000E94582FFF24F394009709F4F12C892BA6
:1032F00009F447C08AE0F801A3E5B3E001900D921C
:103300008A95E1F781E0809352030E94260490930E
:1033100051038093500380915003909151030E9478
:103320001704059790F18091530390915403909363
:1033300062038093610380915503909156039093AB
:103340006403809363038091570390915803909393
:103350006603809365038091590390915A0390937B
:1033600068038093670380915B0390915C03909363
:103370006A03809369031092520307C08623972340
:1033800092CF809152038111C6CF8F2D2A960FB60E
:10339000F894DEBF0FBECDBFDF91CF911F910F918B
:1033A000FF90EF90DF90CF90BF90AF909F908F9065
:1033B0007F905F904F9008958091480390914703CC
:1033C000892B8093980280914B03882329F10E94D6
:1033D00026042091490330914A03821B930B8838BD
:1033E000934110F00E94AD0F8091980290914B0391
:1033F000892B80939802809114018823D9F18091C0
:10340000410587FF37C08EE1EAE9F2E090E08150A4
:1034100098F591110E94AD0F40E250E067E273E031
:1034200088E992E00E94582F892B59F180E2E8E95F
:10343000F2E0A7E2B3E001900D928A95E1F7E09106
:103440003805F09139053097E1F080911401882317
:1034500059F08091410587FF07C0809198028093C1
:10346000990286E0809398020280F381E02D88E93A
:1034700092E0099486E0C8CF2191222341F29F5F18
:10348000C6CF089590E080E00E94480490E080E07C
:103490000E943204109247030E94DC1986E0EEE796
:1034A000F3E0DF011D928A95E9F7109278031092FC
:1034B0007703109279030C94750C60935D037093FD
:1034C0005E0380935F03909360030C94421A0F9302
:1034D0001F9341E050E060E070E004C0440F551FCE
:1034E000661F771F8A95D2F7CB01BA016095709558
:1034F0008095909500915D0310915E0320915F038C
:103500003091600360237123822393231F910F91D5
:103510000C945D1A9091260380958923809326034D
:10352000282F277091F4282F082E000C330B9217A8
:10353000130659F09091420592FD07C08595859537
:1035400085950E94671A0C94BF0F0895CF93C09180
:103550004205C2FB992790F9981799F080FBC2F9B0
:10356000C09342056091410584E090E00E949C2F49
:103570006C2F82E290E00E949C2F82E0CF910C940D
:103580008A1ACF9108950F931F9341E050E060E0B5
:1035900070E004C0440F551F661F771F8A95D2F74D
:1035A00080915D0390915E03A0915F03B0916003F1
:1035B0008A019B01082B192B2A2B3B2BC901B8012F
:1035C0001F910F910C945D1A9091420592FD10C0CD
:1035D00098E0899F90011124622B609326030E943A
:1035E000C31A0E9426049093250380932403089510
:1035F0000C94C31A60934C0370934D0380934E0355
:1036000090934F030C94421A109248038091140136
:10361000EAE9F2E0882359F08091410587FF07C06D
:103620008EE1DF011D928A95E9F70C94421A86E03B
:10363000F8CF1F93CF93DF93CDB7DEB7AA970FB61E
:10364000F894DEBF0FBECDBF8DE695E02091F1006E
:10365000FC012193CF01F5E085379F07B9F78091F1
:103660006E05833009F470C0B8F4813009F447C0A6
:10367000823009F4B1C08091E80083FF7EC280915E
:103680006D0590916E059A3008F077C2E92FF0E051
:10369000EF5AFF4C0C94F62E8A3009F48CC08B3014
:1036A00009F46FC0893039F780916D05813219F7BF
:1036B00080917105909172050297E8F68091E8007B
:1036C000877F8093E8008091E80082FF38C0909166
:1036D000F3008091F200029731F48091F100813083
:1036E00011F0863021F48091F1008093480580919B
:1036F000E8008B778093E8000E940303BCCF8091A1
:103700006D05813A09F0B7CF8091E800877F8093FB
:10371000E8008091710590917205892B61F460E257
:1037200089E495E070E00E94B5038091E8008B7712
:103730008093E800A0CF60E090E080E0F3CF80913C
:103740006B058111C0CF97CF80916D05813A09F04B
:1037500092CF8091710590917205892B09F08BCFE2
:103760008091E800877F8093E8008091E80080FFE7
:10377000FCCF809114018093F1008091E8008E7756
:10378000B9CF80916D05813209F075CF80917105B7
:1037900090917205892B09F06ECF8091E800877FA8
:1037A0008093E8000E94030380916F0580931401C9
:1037B0000E94041B60CF80916D05813209F05BCFC0
:1037C0008091E800877F8093E8000E940303809146
:1037D0007005809347054FCF80916D05813A09F0C0
:1037E0004ACF8091E800877F8093E8008091E800CD
:1037F00080FFFCCF80914705BECF803899F082389A
:1038000009F0BBC1809171058F70873008F0B5C198
:103810008093E9008091EB0085FB882780F9109266
:10382000E90006C08091690590916A059111826056
:103830009091E800977F9093E8008093F1001092B8
:10384000F1008091E8008E7794C1882309F482C149
:10385000823009F092C180916F05811185C18091FC
:1038600071058F702FEF280F263008F086C18093E6
:10387000E9002091EB0020FF77C1933031F4809173
:10388000EB0080628093EB006FC19091EB00906140
:103890009093EB0021E030E001C0220F8A95EAF717
:1038A0002093EA001092EA008091EB008860EACF52
:1038B000811163C110916F051F778091E3008078BB
:1038C000812B8093E3008091E800877F8093E8005C
:1038D0000E9403038091E80080FFFCCF8091E30009
:1038E00080688093E30082E0111183E080936B0590
:1038F00044C18058823008F040C180916F0590919A
:1039000070058C3D23E09207A1F583E08A838AE26B
:1039100089834FB7F894DE01139620E03EE051E230
:10392000E32FF0E050935700E49120FF03C0E295AD
:10393000EF703F5FEF708E2F90E0EA30C0F0C796D7
:103940008D939D932F5F243159F74FBF8091E800ED
:10395000877F8093E8006AE270E0CE0101960E94C2
:10396000B5038091E8008B778093E80006C1C0968C
:10397000E7CF4091710550917205292F33272330ED
:10398000310509F444C078F52130310509F46FC0E0
:103990008BE390E0E4EDF3E02230310509F0EDC077
:1039A0002091E800277F2093E80020917305309153
:1039B00074058217930708F49C0140E02115310536
:1039C00009F064C0411162C08091E80082FDC9CF56
:1039D00080916B05882329F2853019F28091E800E7
:1039E00083FFF2CFBECF21323105A9F1223231055A
:1039F00009F0C3C04115510509F443C041305105D8
:103A000009F0BBC08CEB90E0E8EDF2E0C9CF99275C
:103A100081309105C1F0009759F0029709F0ADC0CF
:103A2000E1E2F4E0E4918E2F90E0E1E2F4E007C0FF
:103A3000E3E4F4E0E4918E2F90E0E3E4F4E0009717
:103A400009F49BC0ADCFE5E3F4E0E4918E2F90E064
:103A5000E5E3F4E0F4CF4115510571F04130510533
:103A600009F08BC089E090E0EFEFF3E099CF82E1BD
:103A700090E0EFE0F4E094CF89E090E0E6EEF3E050
:103A80008FCF80E490E0E4E9F3E08ACF80916B058A
:103A9000882309F466CF853009F463CF8091E8006C
:103AA00083FD5FCF8091E80082FD8ECF8091E8009A
:103AB00080FF84CF9091F3008091F20021153105B1
:103AC00019F08830910550F041E0089709F040E086
:103AD0008091E8008E778093E80070CF4491409306
:103AE000F1003196215031090196E8CF803809F074
:103AF00044C08091E800877F8093E80080916C0546
:103B00008093F1009ECE811138C010916F05123064
:103B1000A0F58091E800877F8093E80010936C0502
:103B20000E940303112311F084E005C08091E3009B
:103B300087FDFACF81E080936B0542E061EC81E084
:103B40000E94220342E261EC82E00E942203809103
:103B50006B0513C080916F05813079F481E093305B
:103B600009F080E080936A051092E9008091E800F6
:103B7000877F8093E8000E9403038091E80083FF21
:103B80000AC08091E800877F8093E8008091EB0075
:103B900080628093EB00AA960FB6F894DEBF0FBE4A
:103BA000CDBFDF91CF911F910895882321F00E940E
:103BB000B80F0C94DC190895882339F090914803CC
:103BC000982B909348030C94DC190895882309F4EA
:103BD00052C0823871F40E945E0481FF4CC089E3B8
:103BE0000E94F70F0E94DC1989E30E94CC0F0C940D
:103BF000DC19833859F40E945E0480FF3CC083E5E1
:103C00000E94F70F0E94DC1983E5EFCF843859F446
:103C10000E945E0482FF2FC087E40E94F70F0E947B
:103C2000DC1987E4E2CF9CEF980F913AF0F290E232
:103C3000980F983050F4877091E001C0990F8A95E1
:103C4000EAF7892F0E94B80FD2CF9BE5980F9330E7
:103C500020F490E080E00C94480498E5980F9731A8
:103C600020F490E080E00C9432048D3E20F00E941D
:103C70009C0C0C94750C0895CF93C82F882309F4DD
:103C8000AFC08238C1F40E945E0481FDA9C089E3FF
:103C90000E94F70F0E94DC192FEF81EE94E0215073
:103CA00080409040E1F700C0000089E30E94CC0F03
:103CB000CF910C94DC198338A1F40E945E0480FD3E
:103CC0008FC083E50E94F70F0E94DC192FEF81EE71
:103CD00094E0215080409040E1F700C0000083E56F
:103CE000E5CF8438A1F40E945E0482FD79C087E4A8
:103CF0000E94F70F0E94DC192FEF81EE94E0215013
:103D000080409040E1F700C0000087E4CFCF8CEF07
:103D10008C0F813A90F580911401882301F18091F4
:103D2000410587FF1CC0EC2FE695E695E695F0E08F
:103D3000E856FD4F828190E04C2F477021E030E043
:103D400002C0220F331F4A95E2F782239323892B67
:103D500081F08C2F0E94CC0F0E94DC190AC0EAE986
:103D6000F2E080EA92E02191C21799F38E179F0743
:103D7000D1F78C2F0E94F70F9BCF80E28C0F8830F9
:103D800068F4C77021E030E001C0220FCA95EAF75D
:103D900080914803822B809348038ACFEBE5EC0F98
:103DA000E33040F4F0E0E45EFE4F808190E0CF919C
:103DB0000C944804E8E5EC0FE73150F4F0E0EE0F26
:103DC000FF1FE15EFE4F80819181CF910C94320400
:103DD000CD3E30F08C2F0E94610DCF910C94750C6C
:103DE000CF9108950F931F93CF93DF93C62FD42FB6
:103DF000022FFC0182818823A1F06093A4050E9418
:103E000026049093A3058093A205C77081E001C0AA
:103E1000880FCA95EAF7DF91CF911F910F910C940B
:103E2000DC1D8091A405681338C08091A205909193
:103E3000A3050E941704883C910578F510E21D0F38
:103E4000CD17B9F080E28C0F883040F4C77081E064
:103E500001C0880FCA95EAF70E94D51D183048F4B2
:103E600081E09D2F977001C0880F9A95EAF70E9414
:103E7000DC1D802F0E943C1E802F0E94E61D183002
:103E800098F4D77081E001C0880FDA95EAF7DF91E6
:103E9000CF911F910F910C94D51DC77081E001C087
:103EA000880FCA95EAF7F3CFDF91CF911F910F9159
:103EB000089569EE7EEF90E080E00E94BA2F60E006
:103EC00082E090E00E949C2F60E083E090E00E94FE
:103ED0009C2F10924C0310924D0310924E0310929F
:103EE0004F0360E084E090E00E949C2F60E082E25B
:103EF00090E00E949C2F60E085E090E00E949C2F63
:103F000060E086E090E00E949C2F6FEF87E090E0F9
:103F10000E949C2F40E050E0BA0188E090E00E94AF
:103F2000AE2F60E08DE090E00E949C2F40E050E0DA
:103F3000BA0188E190E00E94AE2F60E087E190E056
:103F40000E949C2F40E050E0BA018CE190E00E947A
:103F5000AE2F70E060E080E290E00E94BA2F40E077
:103F600050E0BA0188E190E00E94AE2F40E050E0BE
:103F7000BA018FE090E00E94AE2F40E050E0BA011D
:103F800083E190E00C94AE2F4F925F926F927F92FC
:103F90008F929F92AF92BF92CF92DF92EF92FF9259
:103FA0000F931F93CF93DF9300D000D00F92CDB724
:103FB000DEB77C01FC0183819481892B39F010816B
:103FC000D180812F8D218F3F09F07BC50F900F90FD
:103FD0000F900F900F90DF91CF911F910F91FF9055
:103FE000EF90DF90CF90BF90AF909F908F907F9099
:103FF0006F905F904F9008950E943510082F682FA2
:1040000089819A810E94CF10E12FF0E02FE0D29EAB
:10401000E00DF11D11243BE4039FE00DF11D11247F
:10402000EE0FFF1FE455FF4F05911491F7018281B8
:10403000882309F40DC60E3BFCE51F0709F4D2C026
:1040400008F06AC00C3B3CE5130709F486C00D3B41
:104050008CE5180709F4BEC0043F3CE5130709F4DA
:1040600010C108F04AC6093D9CE5190709F405C1CD
:104070000A3DECE51E0709F410C1083DFCE51F07E9
:1040800009F4FAC51092A40504302DE5120708F0D2
:1040900007C10B3F3CE5130730F4C80182509C4533
:1040A000449708F007C10E94FF1190934205809346
:1040B00041050131ECE51E0709F4CCC108F047C108
:1040C00009302CE5120709F4B3C108F016C1053018
:1040D0008CE5180709F4A0C108F001C10330ECE534
:1040E0001E0709F48FC108F093C1809141058160DA
:1040F00002301C4509F489C16091410510914205C7
:1041000084E090E00E949C2F612F82E290E00E9468
:104110009C2F0E94041B38C0003C9CE5190709F441
:1041200091C008F47BC0013CFCE51F0709F094CF67
:1041300090913505892F8695869586958F5F8F712D
:104140009770863008F096C0880F880F880F892BEB
:1041500080933505809135054DC080913505877078
:10416000886280933505887F91E009F490E0809122
:10417000350590FB80F98093350585E00E946A043F
:10418000809135050E94FA1180912603877009F409
:104190001DCFF7018281882309F418CF8091420551
:1041A00082FD14CF82E00F900F900F900F900F9030
:1041B000DF91CF911F910F91FF90EF90DF90CF9003
:1041C000BF90AF909F908F907F906F905F904F9037
:1041D0000C948A1A8091350587708E7F80933505FF
:1041E00080E0CCCF80913505982F987F79F088506A
:1041F00080933505887F91E009F490E08091350542
:1042000090FB80F9809335050E94FA118091350565
:104210008695869586950E946A04B6CF809135056D
:10422000982F969596959695953040F49F5F990FA7
:10423000990F990F8770892B8093350580913505EB
:104240008160E0CF8091350580FF07C08E7F80932D
:1042500035050E94FA1180E0DECF80FD95CF8160A8
:1042600080933505813019F489E08093350580917C
:104270003505CACF909335056DCF27E245EE65EE43
:10428000FEC426E241EE60EEFAC427E245EE64EE9B
:10429000F6C426E241EE62EEF2C428E241E0EFCF3E
:1042A00002368DE5180709F4FECE063A9DE519079A
:1042B00009F4F9CE06313CE5130709F04FC48091AB
:1042C00048038A7A91E009F490E09093B802811152
:1042D000EFC089E20E94F70F0E94DC1955CF809150
:1042E0004105806207303CE5130709F48EC008F4ED
:1042F0009BC080914105806488C0809141058B7F7F
:104300000D309CE5190709F480C098F480914105AF
:104310008E7F0B30FCE51F0709F477C080914105C3
:104320008C600C301C4508F470C0809141058D7F75
:104330006CC0809141058F7E0F303CE5130709F476
:1043400064C008F47BC0809141058F7D5EC00E3F44
:104350009CE5190709F47AC050F50531FCE51F0703
:1043600009F486C098F480914105837F03313CE5D0
:10437000130709F44AC008F471C00E94041B90910D
:104380004105892F97FB87F980583FC00C3F9CE57A
:10439000190709F445C008F055C0809142058160B5
:1043A0000B3F1C4509F0A8CE80934205A5CE0230F4
:1043B0002DE5120709F468C0A8F401158DE518076A
:1043C00009F452C080914205836001301D4560F3BD
:1043D00080914205982F909591708E7F892B90FB4C
:1043E00081F9E2CF0236EDE51E0709F453C0063A23
:1043F000FDE51F0709F455C003301D4509F07CCECB
:1044000060E043C08091410582608093410574CE95
:10441000809141058460F9CF809141058860F5CF96
:10442000809142058260C0CF809141058061EDCFCF
:104430000E94041B809141058068E7CF809141056F
:10444000877FE3CF809142058E7FAECF809142057A
:104450008D7FAACF809141058F7BD7CF0E94041B0F
:10446000809141058F77D1CF809142058C7F9CCF81
:104470008091410582FB992790F921E0922790FBDA
:1044800082F990FB83F9C1CF61E08EE090E00E9459
:104490009C2F32CE90914105892F8F7E94FF8061B1
:1044A000B4CF90914105892F8E7F90FF8160ADCF71
:1044B00085E310CF8091B802811104C089E20E9487
:1044C000CC0F0ACF85E3FBCF47E855E060E975E004
:1044D0000E940E0559CE40E955E067E875E0F8CF37
:1044E00045E755E06EE775E0F3CF4EE755E065E749
:1044F00075E0EECF4DE555E069E675E0E9CF49E6B8
:1045000055E06DE575E0E4CF41E555E065E475E023
:10451000DFCF49E255E067E375E0DACF47E355E0E6
:1045200069E275E0D5CF81E00E945E022DCE8DE07C
:10453000FBCF0E94041B8FEF94E3ECE0815090408E
:10454000E040E1F700C000000E94AF1181E026C307
:1045500080E024C3812F902F0E94A710D82E31C352
:10456000212F2F70D22E107F19F0D29420EFD2225B
:10457000CC20B9F0DD2069F080E2800F883010F0A7
:10458000811009C080914803D82AD09248030E9424
:10459000DC19802F4BC080914703D82AD092470363
:1045A000F6CF802F0E94E61DDD2009F441C0005E99
:1045B000083010F0811004C08D2D0E94B80F06C085
:1045C000D09480914703D822D09247030E94DC19EF
:1045D0002FC0312F3F70D32E107F103219F0D2949C
:1045E00090EFD922882089F081E0881609F4A7C0CD
:1045F000CC2009F4B0C0BB2009F485C0F701858147
:1046000080FFC7CF8F7085837EC08091420582FF77
:1046100054C0CC2009F44AC0DD2039F08091480311
:10462000D82AD09248030E94DC1980E00E943C1EE8
:10463000E92DE850FF0B349710F40E945E04AA2085
:10464000A9F08091260380FD11C0F70112828595A3
:10465000859585950E94C31AC7010E94C41F809149
:1046600026038595859585950E94671A85E0F70153
:10467000DE01119601900D928A95E1F789819A8168
:104680000E94A7109A81E981F0E02FE0929FE00D4F
:10469000F11D11243BE4839FE00DF11D1124EE0F69
:1046A000FF1FE455FF4F8591949190CC80E00E94CC
:1046B000E61DDD2009F4BCCF7FCFCC2041F1B11045
:1046C00004C080914B038D291FC091E0B91211C025
:1046D00082FDAECF80914B03D82AD81609F4A8CF1B
:1046E0000E94260490934A0380934903D0924B037F
:1046F0009FCFE5E0BE12E5CF0E94AD0F809123036E
:10470000D812D09223038D2D0E94DC1D91CFB110C1
:1047100006C00E94AD0F8D2D0E94D51D89CFF1E0FE
:10472000BF1208C0809148038D2109F481CF0E94F7
:10473000C60FEFCF25E0B21609F47ACFEACFCC202E
:1047400029F035E03B1508F473CFDDCF84E08B15FD
:1047500008F46ECFE0CFBB20F1F2F9E38F12AAC1CB
:104760002FEF37EE83E0215030408040E1F700C06A
:104770000000A0C1812F86958695837061F08130FD
:1047800009F056CFC8019370C11002C090E080E0DC
:104790000E9432044DCFC8019370C11002C090E056
:1047A00080E00E94480444CF802FCC2029F00E9452
:1047B000610D0E94750C3CCF0E949C0CFACF812F9A
:1047C000837009F066C0C11033CF802F8295869523
:1047D0008770880F880F602F6F70462E512C712CB8
:1047E000612C082E04C0440C551C661C771C0A94CE
:1047F000D2F740E050E0BA0104FF0FC04FE050E0B4
:1048000060E070E004C0440F551F661F771F8A9553
:10481000D2F74095509560957095812F8695869535
:104820008370823019F1D8F400914C0310914D033C
:1048300020914E0330914F03813069F0442955296E
:1048400066297729CB01BA01602371238223932340
:104850000E94FA1AEDCE402A512A622A732ACB010D
:10486000BA016429752986299729F2CF4429552947
:104870006629772900914C0310914D0320914E0336
:1048800030914F03CB01BA0160277127822793270C
:10489000DFCF8695CC2011F0812F8170882309F419
:1048A000C7CE802F829586958770880F880F602FDE
:1048B0006F70462E512C712C612C082E04C0440CB4
:1048C000551C661C771C0A94D2F740E050E0BA01F0
:1048D00004FF0FC04FE050E060E070E004C0440F00
:1048E000551F661F771F8A95D2F7409550956095A2
:1048F0007095812F869586958370823019F1D8F452
:1049000000915D0310915E0320915F03309160037D
:10491000813069F04429552966297729CB01BA01EC
:1049200060237123822393230E945D1A81CE402A43
:10493000512A622A732ACB01BA0164297529862972
:104940009729F2CF442955296629772900915D03DB
:1049500010915E0320915F0330916003CB01BA0197
:104960006027712782279327DFCF1F70CC2029F083
:10497000812F0E94C31A802FC7CE802F0E94D51D81
:10498000812F0E94671A54CE802F92EF891609F466
:104990003FC0981570F0E0EF8E16D1F0F1EF8F1652
:1049A00091F0CC2009F481C0B110F3CD812F8F712B
:1049B00033C023EF821699F134EF8312F2CF809146
:1049C000420582FF3FC0812F8F71CC20D1F224C0DD
:1049D000CC20C9F084E08B1508F42ACE1F7161E069
:1049E00070E080E090E004C0660F771F881F991F79
:1049F0001A95D2F700915D0310915E0320915F0339
:104A000030916003ADCF95E09B1508F411CEE6CF51
:104A1000812F8F71C110B5CF0E94C31A09CE60E0FB
:104A200070E0CB01CC2009F47FCF1F7161E070E012
:104A300080E090E004C0660F771F881F991F1A95C9
:104A4000D2F772CF80912303CC20D9F00E94B80F07
:104A5000809126038770843041F40E94BF0F812F1C
:104A60008F710E94671AA12CE3CDE4E0EB15D8F317
:104A70001F71812F0E94C31A63E0812F0E94E41AE4
:104A8000F2CF90914803982B90934803F4E0FB15E4
:104A900040F40E94BF0F0E94C60F64E0812F8F7107
:104AA000EDCF81E00E948A1ADECFBB2039F0893336
:104AB00009F456CE802F0E94E61DBACD812F8F714A
:104AC00060CF85E0DE01119601900D928A95E1F7A5
:104AD000F701228189819A8121118ECA0E94A71033
:104AE000082F92CA083C9CE5190709F403CD08F485
:104AF000FCCC093CFCE51F0709F401CD45E455E079
:104B000061E575E00A3C1C4509F4E2CC49C0003D72
:104B10003CE5130709F40BCD90F40D3CECE51E07C2
:104B200009F4FCCC08F4F5CC0E3C2CE5120709F492
:104B3000FACC85E00F3C1C4509F4F6CC31C0073DAA
:104B40008CE5180730F482E1023D1C4508F4ECCCFA
:104B50001BCB0E351D4509F417CB22C00B35FDE5E7
:104B60001F0709F4F3CC58F401153CE5130709F4C9
:104B7000E0CC0F3D1C45A1F40E94591F05CB0C351C
:104B80009DE5190709F4E4CC0D351D4549F48091E4
:104B9000420582FB882780F991E089270E94A61AA6
:104BA000F701828110810181882309F4D3CC812F00
:104BB000902F0E943510D82E682F812F902F0E94A1
:104BC000CF10E12FF0E02FE0029FE00DF11D112446
:104BD0003BE4D39EE00DF11D1124EE0FFF1FE455C1
:104BE000FF4F859194910E94250E8C01882EF7012C
:104BF000C280B580B2945FE0B522809126038770B1
:104C0000C1F0AC2CCC20B1F0812F807F803421F01A
:104C100080E2800F883068F08091420582FD09C0F3
:104C200082E00E948A1A809126038770AA24A394A6
:104C30008111A12C912E92943FE09322FBE0F91573
:104C400008F4F6CCE92DF0E0E55AFF4C0C94F62E72
:104C5000043FFCE51F0709F414CBA8F4093D3CE52B
:104C6000130709F40ACB0A3D8CE5180709F415CBA4
:104C7000083D9CE5190791F426E241EE61EEC7017B
:104C80000E94F21E81CA063FECE51E0709F401CB23
:104C900008F4FBCA073F2CE51207D9F10631FCE501
:104CA0001F0709F407CC8091480382720B3C2CE566
:104CB000120709F429CC08F02ACF063C9CE5190715
:104CC00009F40ECC08F00ECF043CFCE51F0709F4F4
:104CD000FBCB08F000CC033C1C4509F061CF809170
:104CE000A60591E089278093A6051092180180916E
:104CF000A50581608093A50547CA063F2CE51207EC
:104D000009F4C7CA08F4C1CA073F8CE5180709F0BF
:104D1000B9C927E245EE66EEB2CF1F93CF93DF937A
:104D20008091F002807FA9F48091ED02882389F0C0
:104D300080912203D091F1026091EB027091EC021C
:104D4000A091EE02B091EF02C62FC72316E0D81350
:104D500004C0DF91CF911F91089590E0109711F05A
:104D6000CF3F19F401968770F2CF189F9001199FD9
:104D7000300D1124F901EE50FD4F41814713F2CF60
:104D800040814613EFCF42814111ECCF43815481E2
:104D90004A1B5B0B483C510528F78091F0028F704D
:104DA00080618093F002F901E950FD4F80818F709E
:104DB000806180838BEE92E00E94C41FDF91CF91CF
:104DC0001F910C942B10AF92BF92CF92DF92EF9273
:104DD000FF920F931F93CF93DF93CDB7DEB7619709
:104DE0000FB6F894DEBF0FBECDBF8C0185E0F80191
:104DF000DE011D9601900D928A95E1F7F801E2809F
:104E00008BEEA82E82E0B82E6091EE027091EF0238
:104E10006115710509F432C19091EB024091EC02E9
:104E2000892F84238F3F09F429C120813181C380D8
:104E3000D480F090ED02F601E61BF70BFF2009F499
:104E4000E8C08091F002582F507FE83CF10508F04F
:104E5000ABC0511177C0FE2C431321C092131FC069
:104E6000E1101DC08F7080618093F002C5010E9427
:104E7000C41F8091F002F80185838F2D61960FB6D3
:104E8000F894DEBF0FBECDBFDF91CF911F910F9180
:104E9000FF90EF90DF90CF90BF90AF900895CD2816
:104EA00029F0822F83238F3F09F003C180E0F82F80
:104EB000F170DF2E80FF3CC0809122034091F1020F
:104EC00056E0841315C02D873E878D859E850E94F0
:104ED0008C10292F22952F702230F0F0243018F5F5
:104EE0009F70F1F0F8019581907FD1F4D12C1EC014
:104EF00090E0589FF001599FF00D1124EE50FD4FA6
:104F00006181361306C06081261303C06281E612F8
:104F10000FC001968770D5CF9F7011F0882331F3B1
:104F2000805E883018F3C8010E94C41FFD2CA5CFF5
:104F3000EE2009F4A2CF8091F00281608093F0020C
:104F4000F12C9BCF431306C0921304C0F801EE204E
:104F500009F479C0C8010E94FB10882309F1EE20F2
:104F6000F9F08091F002803270F02091EB023091E4
:104F7000EC0238872F831986DB86CA868C87CE01A0
:104F800007960E94C41F86E0F801ABEEB2E00190E4
:104F90000D928A95E1F70E948D26FF24F3946DCF40
:104FA000C8010E94C41FF9CF51110AC08BEE92E0D4
:104FB0000E94C41F86E0F50111928A95E9F7C0CFDF
:104FC00043130FC092130DC0E1100BC0F80185838D
:104FD000C8010E94C41F86E0F50111928A95E9F785
:104FE0004CCFC8010E94FB108823D1F2EE20C1F201
:104FF0008091F002803238F22091EB023091EC0285
:105000003A8329831B82DD82CC828E83CE01019676
:10501000B8CFE83CF105F8F6FE2CEE2009F2431378
:105020001FC092131DC08091F00280FD10C0982F08
:10503000907F69F0F8018583903F31F0982F907F41
:10504000905F8F70892B8583C8010E94C41F86E002
:10505000F801ABEEB2E001900D928A95E1F70DCF29
:10506000C8010E94FB1081118ECF8091F0028160F7
:105070008093F002C8010E94C41FFFCEEE2009F405
:105080008FCFC8010E94FB10F82E882309F488CF27
:1050900086E0F801ABEEB2E001900D928A95E1F75F
:1050A0008091EB029091EC020E948C100E948D2660
:1050B000E4CE81E08E25FBCE1F93CF93DF93CDB757
:1050C000DEB767970FB6F894DEBF0FBECDBF4B8B30
:1050D0005C8B6D8B7E8B8F8B6111109247031A8ACC
:1050E000198A85E0FE017396DE011D9601900D92EE
:1050F0008A95E1F78091420582FD1CC00E9426043A
:105100002091240330912503821B930B883893410F
:1051100020F08091260382FF7EC00E942604209109
:10512000490330914A03821B930B8838934110F056
:105130000E94AD0F86E0FE013D96DE0117960190BC
:105140000D928A95E1F7CE0107960E94E326811120
:1051500012C086E0FE013796DE01119601900D9295
:105160008A95E1F78A859B85892B29F088859F811F
:1051700089238F3FB1F516E0809122039091F102CF
:1051800089131DC067960FB6F894DEBF0FBECDBF62
:10519000DF91CF911F91089596E0929FD001939F48
:1051A000B00D1124AE50BD4FFE01319601900D920D
:1051B0009A95E1F78093F1020E942B10DCCF819F3A
:1051C000C00111248E509D4F0E94E3268823D1F206
:1051D0008091220390E001968770992780932203A3
:1051E000CBCF2091F10230E0C90101968770992759
:1051F000409122034817190679F60E94041B109269
:10520000F1021092220386E0EBEEF2E0DF011D9244
:105210008A95E9F7B0CF82E00E948A1A7ECF90E0AB
:1052200080E00E94862F893E9E4F51F00E94591FB8
:105230008091350584708962809335050E94FA114A
:1052400086E090E00E947E2F80933505803320F029
:10525000877088628093350590913505892F81701C
:1052600090FF04C0892F8695869586950C946A04D4
:105270001F920F920FB60F9211242F933F934F93CB
:105280005F936F937F938F939F93AF93BF93CF93CE
:10529000DF93EF93FF93D091E900DF708091EC00F2
:1052A000C82FC17080FDC0E81092E9008091F00025
:1052B000877F8093F00078940E94191B1092E90078
:1052C0008091F00088608093F000CD2BCF70C09368
:1052D000E900FF91EF91DF91CF91BF91AF919F9145
:1052E0008F917F916F915F914F913F912F910F908F
:1052F0000FBE0F901F9018951F920F920FB60F922E
:1053000011242F933F934F935F936F937F938F93CA
:105310009F93AF93BF93EF93FF938091E10082FF40
:1053200009C08091E20082FF05C08091E1008B7F7F
:105330008093E1008091DA0080FF24C08091D80042
:1053400080FF20C08091DA008E7F8093DA00809108
:10535000D90080FF9DC080E189BD82E189BD09B48B
:1053600000FEFDCF81E080936B05809146058111A1
:1053700009C00E9489020E9454038091E200846067
:105380008093E2008091E10080FF17C08091E200ED
:1053900080FF13C08091E2008E7F8093E2008091B5
:1053A000E20080618093E2008091D8008062809367
:1053B000D80019BC85E080936B058091E10084FFE3
:1053C0002BC08091E20084FF27C080E189BD82E18B
:1053D00089BD89B5982F917080FFFBCF8091D8004F
:1053E0008F7D8093D8008091E1008F7E8093E100D3
:1053F0008091E2008F7E8093E2008091E2008160E4
:105400008093E20080916C05882309F447C084E012
:1054100080936B0580916B058091E10083FF27C02D
:105420008091E20083FF23C08091E100877F809319
:10543000E10082E080936B0510926C058091E100A1
:105440008E7F8093E1008091E2008E7F8093E20066
:105450008091E20080618093E20042E060E080E0C1
:105460000E9422038091F00088608093F000FF91F9
:10547000EF91BF91AF919F918F917F916F915F91CC
:105480004F913F912F910F900FBE0F901F90189545
:1054900019BC10926B051092460574CF8091E30001
:1054A00087FD93E090936B05B5CF78941F921FB65C
:1054B0001F9211248F939F93AF93BF9380913D05CB
:1054C00090913E05A0913F05B09140050196A11D28
:1054D000B11D80933D0590933E05A0933F05B09389
:1054E0004005BF91AF919F918F911F901FBE1F905C
:1054F00018951F921FB61F9211248F939F93AF93FD
:10550000BF9380913C05811113C080913D0590911E
:105510003E05A0913F05B09140054196A11DB11DEA
:1055200080933D0590933E05A0933F05B0934005C1
:10553000BF91AF919F918F911F901FBE1F901895A3
:10554000CDB7DEB760970FB6F894DEBF0FBECDBF04
:1055500084B7877F84BF0FB6F894A89580916000C8
:10556000886180936000109260000FBE80E890E038
:105570000FB6F89480936100909361000FBE85B7D9
:10558000806885BF85B7806885BF89EC9DE0909372
:105590009702809396020E9489020E945403809190
:1055A000E20084608093E200789480916B05882308
:1055B000A1F01091E9001F709091EC00892F81708B
:1055C00090FD80E8182B1092E9008091E80083FD9F
:1055D0000E94191B1F701093E90082E084BD93E0C4
:1055E00095BD9AEF97BD80936E000DE411E0D80150
:1055F0008D918D018F3F11F00E94CB0DB1E00C35E4
:105600001B07A9F70CE511E0F80181918F018F3F8D
:1056100011F00E94CB0DF1E001361F07A9F78AE0D7
:10562000E1E6F3E0DF01282F1D922A95E9F7E3E593
:10563000F3E0DF011D928A95E9F790E080E00E9497
:10564000862F893E9E4F11F00E94591F82E090E004
:105650000E947E2F80936B030E94FF11909342055E
:10566000809341050E94E318EFE3FCE93197F1F7DD
:1056700000C000000E94E3188091610380FF08C011
:105680006FEF7FEF90E080E00E94BA2F0E94AF1191
:1056900083E090E00E947E2F682F70E090E080E031
:1056A0000E94FA1A279A2F988AE08093800089E155
:1056B000809381000FEF1FEF109387000093860007
:1056C0000E940F291092790510939305009392057B
:1056D00010939505009394051093970500939605F4
:1056E000109399050093980510939B0500939A05D4
:1056F00010939D0500939C0510939F0500939E05B4
:105700001093A1050093A005109226041093400465
:1057100000933F0410934204009341041093440407
:1057200000934304109346040093450410934804E7
:105730000093470410934A040093490410934C04C7
:1057400000934B0410934E0400934D0490E080E0CE
:105750000E94862F893E9E4F21F00E94591F0E9471
:105760007A1246E050E06CE170E086EA95E00E9433
:105770006E2F1092A5058091A6058C7F11F40E94D2
:105780007A120E940F2984E091E09093390580936A
:10579000380528E1622E712C30E4432E992493942D
:1057A0005524539480916B0593E0F92E00E112E1AA
:1057B000853009F467C10E94E318882359F08FB738
:1057C000F89440913D0550913E0560913F057091E0
:1057D00040058FBFA1E6B3E0ECE6F3E0F12CE12C4D
:1057E0000E2DCD90DD90219131912C153D0509F4C0
:1057F00078C210E0AA24A394B12C2C253D25A90140
:105800004A215B21452B09F466C21F830887CA2001
:10581000DB2081E0C114D10409F480E089870E9473
:1058200026048160782F9B878A874F8158856985F8
:105830008B850E945C28F701EE0FFF1FE459FC4F97
:1058400080819181A826B926B182A082CD2871F0ED
:105850008FE08E9DF0018F9DF00D1124E759FE4FD2
:10586000E10FF11D80818F3F09F01AC1312CC32C4B
:10587000D12C809126048C0D9D2D911D09976CF1E2
:1058800088E090E05C01AC18BD08B601695D7B4F13
:10589000A50187E294E00E94652FB601615D7B4F10
:1058A000A5018FE294E00E94652FA501440F551FCA
:1058B000B601660F771F615C7B4F8FE394E00E9417
:1058C000652FB601695C7B4FA50187E394E00E94D8
:1058D000652F88E08319809326048091260490E048
:1058E000A82DB0E09D01220F331F2C543E4FAA0F6C
:1058F000BB1FBD016B547E4F41E0480F931508F468
:10590000D3C0809326048091A6058C7F883709F048
:105910000EC1EFEFE00FDD24D394D00E6FEF610FD7
:1059200071E0710F611780F48FE08E9DD0018F9D23
:10593000B00D1124A552BC4FA60FB11D3C9140E102
:10594000340F08F43FEF3C93812F90E03FE03E9D01
:10595000A0013F9D500D112445525C4FDA01A80F64
:10596000B91F3C91F0E2232F3F2F230F08F42FEFB4
:105970002C937F3009F4FEC1DA01A70FB11D3C91D1
:1059800040E1340F08F43FEF3C9345E0D412A1C04E
:10599000611770F4FFE0EF9FD0011124A552BC4FB6
:1059A000A60FB11D2C913DE0230F08F42FEF2C938F
:1059B0002FE0E29FF0011124E552FC4FDF01A80F18
:1059C000B91F2C9130E1230F08F42FEF2C937F3077
:1059D00009F4ADC0E70FF11D20813DE0230F08F46D
:1059E0002FEF2083A4C080916B05843009F439C067
:1059F00080E00E946A040E94F9178091530481118B
:105A00000DC00E949512109213018091A60583701B
:105A1000809312010E94D311F09218015092530406
:105A200010923C050FB6F894A895609260000FBEE6
:105A30004092600083B7817F846083BF83B78160B9
:105A400083BF7894889583B78E7F83BF0FB6F89411
:105A5000A89580916000886180936000109260003A
:105A60000FBE80916A05882369F00E94E318E1E681
:105A7000F3E081919191892B09F058C123E0EB3635
:105A8000F207B9F780916B05853009F4ACCF0E941D
:105A9000041B0E940F290E945E04109253048BCEB7
:105AA000882E33243394E3CE90E0FC01EA5DFB4F73
:105AB000D9015C915183DB015C915187818A880F08
:105AC000991FFC01EA5DFB4F128E118E91E0842F2D
:105AD00013CF611770F4FFE0DF9ED0011124A552AF
