:100000000C94B9070C94F1070C94F1070C94D235B9
:100010000C94F1070C94F1070C94F1070C94F10780
:100020000C94F1070C94F1070C9492160C94D81DC3
:100030000C94EF2A0C94F1070C94F1070C94F1073F
:100040000C94F1070C94F1070C94F1070C94F10750
:100050000C94F1070C946B170C94F1070C94F107B6
:100060000C94F1070C94F1070C94F1070C94F10730
:100070000C94F1070C94F1070C94F1070C94F10720
:100080000C94F1070C94F1070C94F1070C94F10710
:100090000C94F1070C94F1070C94F1070C94F10700
:1000A0000C94F1070C94F1070C94F10705010980F9
:1000B000A101850319012AB700150126B700950192
:1000C00075108100C0050C0901A101850419012AE0
:1000D000A002150126A002950175108100C005013E
:1000E0000906A1018506050719E029E71500250184
:1000F0009508750181020507190029EF15002501F2
:1001000095F075018102050819012905950575010C
:100110009102950175039101C00660FF0961A1017B
:100120000962150026FF00952075088102096315F4
:100130000026FF00952075089102C005010906A15F
:1001400001050719E029E7150025019508750181CA
:10015000029501750881010507190029FF15002680
:10016000FF00950675088100050819012905950508
:1001700075019102950175039101C0000000000016
:10018000000000000000000000000000000000006F
:100190000000000000000000000000000000007EE1
:1001A0000F00D4FFFFFFC700000078000000000030
:1001B0000000002A2B2800000000000000000000C2
:1001C00000000000000029000000002C1E34202147
:1001D0002224342627252E362D3738271E1F20218E
:1001E00022232425263333362E37381F04050607ED
:1001F00008090A0B0C0D0E0F101112131415161707
:1002000018191A1B1C1D2F3130232D350405060724
:1002100008090A0B0C0D0E0F1011121314151617E6
:1002200018191A1B1C1D2F3130354C010000050117
:100230000502050305040505050000000601060288
:10024000060306040605060000000701070207036F
:100250000704070507000000080108020803080456
:10026000080508000000090109020903090409053D
:100270000900000000010002000300040005000066
:100280000000010101020103010401050100000059
:10029000020102020203020402050200000003013F
:1002A0000302030303040305030000000401040226
:1002B00004030404040504000000DA02815AD9F1A1
:1002C000DB20A4A62EAF00A0C000A1C800AED58040
:1002D000A81FD300408D1420006432144350534CA7
:1002E0004B000A0A00556E646566004C6F776572B4
:1002F00000526169736500426173650A004C41599F
:100300004552000A0A004D6F640A00436C6D6B0091
:1003100051777274000A0A008081828384858687FF
:1003200088898A8B8C8D8E8F9091929394A0A1A2B4
:10033000A3A4A5A6A7A8A9AAABACADAEAFB0B1B215
:10034000B3B4C0C1C2C3C4C5C6C7C8C9CACBCCCD6B
:10035000CECFD0D1D2D3D400FD377A585A00000482
:10036000E6D6B4460200210116000000742FE5A372
:10037000E008E2024C5D003D8889C65436C3174F41
:10038000E4E62B87DC61F128B5AEA0A33C3CF45F2A
:100390007424B52C3D20C7689B3A8E08CE16E28F98
:1003A000DD74FFA04F08D43D201DD0558F11BBB187
:1003B0003287318A341491884A492E35E0342D0C25
:1003C000400E9A3CEAF71ADE8FB7A230CF5983F27B
:1003D00023EF20330CC056779F9CED4D7DAF3FD669
:1003E000C289956075A12F2E891DDC43DF675F816F
:1003F000D38DC5C3D81411649D6290F38B2C365DE8
:100400000B6F74C04E46B3DED00F56EE8AE2DAB7F9
:10041000FB9EFD0D52C588DC45FF874E8E61CF38AF
:10042000B24884655A4D7476CD19495E5DD5F1A404
:10043000BAB0B017AFD23C9471A8793419EDC73671
:100440007C4DB86CFF0F9FC4D682F61E028C6E04E2
:100450000164DC13F769236B5C1B173425A3AACC5A
:10046000B1CE1B6458512974EBCF67BC05AF68014E
:10047000AB1F9DBAF8424C73DA53FA234F3ED1FCBE
:10048000DE9F32459070FE604F3037942A16C7A821
:100490009A52BA8BD32488E60234B33230E25B023C
:1004A000F96739FB000ED8394232BA69E6C7B6B4EB
:1004B000B1109460026B794FB8BDC9E9DA58763251
:1004C000299FB653855DFDDEF3B603CD39B7DC4D0C
:1004D000A942249A5411D726B6B55B33ADEBADF5DE
:1004E000D7D48445A32FAECFE7FD52418C7535D1CB
:1004F000ED6688C5C3B66ED8A73473063DC8E06EF6
:10050000BAE463C7C59C31D05BE096CC2FBE1F53C5
:10051000F74A885C950AFE0A7AB34C3248230B5797
:10052000D3C22EFF6C14DF96681887B11377178833
:10053000D21F2EF65EF6EA81BD9E780C99ADFBAE19
:100540008ACB3F227CC2541095BA3303810447A85A
:10055000821B9EBE3EE2CEBBBFD790D6CCA1CDDEE5
:1005600015224B703556F3C0AEF2CA6FB306516C0C
:10057000763356767F419828CEB0EB9E5CBB68AC54
:100580009CF7C21DFD6BEB2C49B7166F54BB28526C
:10059000D4BC222279F621D7640A4DFF6E6B661116
:1005A00040C16B4059A09581608C237F04137E97D6
:1005B00070EC23369BC1F35CD589B57D7896442DCC
:1005C00057F1A400522FF7134D662E810001E80465
:1005D000E311000063CCEC15B1C467FB020000001E
:1005E0000004595A00010101010101010101020247
:1005F00002020202020202030303030303030304D1
:10060000040404040404050505050506060606069B
:10061000070707070708080808090909090A0A0A55
:100620000B0B0B0C0C0C0D0D0D0E0E0E0F0F0F10F7
:100630001011111112121313141415151616171781
:10064000181819191A1A1B1B1C1D1D1E1E1F2020ED
:10065000212222232424252626272829292A2B2C37
:100660002D2D2E2F30313232333435363738393A5A
:100670003B3C3D3E3F404142434445464748494A52
:100680004C4D4E4F50515354555658595A5B5D5E20
:100690005F616264656668696B6C6D6F70727375BB
:1006A00077787A7B7D7E8082838587888A8C8E8F1F
:1006B00091939596989A9C9EA0A2A3A5A7A9ABAD4D
:1006C000AFB1B3B5B7BABCBEC0C2C4C6C9CBCDCF3B
:1006D000D1D4D6D8DBDDDFE2E4E7E9EBEEF0F3F5E9
:1006E000F8FAFDFF1C1004010D190A242322212011
:1006F0001F1E1D1B1A18171615141312110F0E0C9E
:100700000B09080706050302002D3945483C303F18
:1007100025262728292A2B2C2E2F31323334353603
:1007200037383A3B3D3E4041424344464749010049
:1007300001000100010001000100010001000100B1
:10074000010001000100010001000100010035006D
:100750001E001F00200021002200000029001400BC
:100760001A0008001500170000002B0004001600F6
:10077000070009000A000000E1001D001B00060040
:10078000190005000000A800E300E200E0000251AB
:100790002800000035002700260025002400230043
:1007A00000002A00130012000C0018001C000000BA
:1007B000340033000F000E000D000B000000E500B8
:1007C000380037003600100011000000E700E60096
:1007D000E40003512C000000000035001E001F0043
:1007E0002000210022000000290014001A00090046
:1007F00013000A0000002B0004001500160017006B
:1008000007000000E1001D001B00060019000500A4
:100810000000A800E300E200E00001002800000062
:1008200035002700260025002400230000002A00B0
:1008300033001C0018000F000D00000034001200EF
:100840000C00080011000B000000E5003800370024
:10085000360010000E000000E700E600E400010092
:100860002C000000000001003A003B003C003D006D
:100870003E00000035001E001F0020002100220065
:10088000000001001E021F022002210222020000BD
:1008900001002E002D002E022F0230020000010068
:1008A00001000100010001000100000044004300BC
:1008B0004200410040003F000000450027002600A4
:1008C0002500240023000000310227022602250211
:1008D0002402230200000100310033023300300003
:1008E0002F000000010001000100010001000100D3
:1008F00000000100010001000100010001000000F2
:1009000001004900460065000000000000000100F1
:10091000E200E000E10000003900000001007A0080
:100920007B007C007D000000000001000100010050
:1009300001000100010000000100010001000100B0
:100940000100010000002A00010001005200010026
:100950004B0000002A004C004F00510050004E0098
:100960000000010000000100000001000000000084
:100970000100010001000100010001000000070862
:100980007F0807003E5B4F5B3E003E6B4F6B3E00B7
:100990001C3E7C3E1C00183C7E3C18001C577D57BA
:1009A0001C001C5E7F5E1C0000183C180000FFE766
:1009B000C3E7FF00001824180000FFE7DBE7FF0093
:1009C00030483A060E00262979292600407F050581
:1009D0000700407F05253F005A3CE73C5A007F3E18
:1009E0001C1C0800081C1C3E7F0014227F221400DF
:1009F0005F5F005F5F0006097F017F0000668995E9
:100A00006A0060606060600094A2FFA29400080425
:100A10007E04080010207E20100008082A1C080010
:100A2000081C2A0808001E10101010000C1E0C1EB6
:100A30000C0030383E383000060E3E0E0600000036
:100A40000000000000005F00000000070007000039
:100A5000147F147F1400242A7F2A120023130864B1
:100A60006200364956205000000807030000001CB1
:100A7000224100000041221C00002A1C7F1C2A0089
:100A800008083E08080000807030000008080808C8
:100A900008000000606000002010080402003E51C1
:100AA00049453E0000427F400000724949494600E6
:100AB0002141494D33001814127F10002745454548
:100AC00039003C4A494931004121110907003649A2
:100AD00049493600464949291E000000140000001B
:100AE00000403400000000081422410014141414C3
:100AF00014000041221408000201590906003E4179
:100B00005D594E007C1211127C007F494949360024
:100B10003E41414122007F4141413E007F494949D8
:100B200041007F09090901003E41415173007F08DE
:100B300008087F0000417F4100002040413F010044
:100B40007F08142241007F40404040007F021C0289
:100B50007F007F0408107F003E4141413E007F0935
:100B6000090906003E4151215E007F09192946000E
:100B700026494949320003017F0103003F404040BC
:100B80003F001F2040201F003F4038403F006314BB
:100B9000081463000304780403006159494D4300BD
:100BA000007F414141000204081020000041414102
:100BB0007F00040201020400404040404000000366
:100BC000070800002054547840007F28444438002F
:100BD000384444442800384444287F00385454544E
:100BE000180000087E09020018A4A49C78007F0861
:100BF0000404780000447D4000002040403D000097
:100C00007F102844000000417F4000007C047804ED
:100C100078007C0804047800384444443800FC1808
:100C20002424180018242418FC007C08040408005C
:100C300048545454240004043F4424003C404020C1
:100C40007C001C2040201C003C4030403C004428DC
:100C5000102844004C9090907C004464544C440014
:100C6000000836410000000077000000004136080F
:100C700000000201020402003C2623263C00000082
:100C800000000000404040F0F8F8FF38FFF8F83F5F
:100C9000F8F8FF38FFF8F8F040404000000000008E
:100CA0000080C0C0C0800000C0C08000000080C0C4
:100CB000C000C0C0000080C0C00000000000C0C074
:100CC000C0C0C000C0C00000000000000000000064
:100CD0000000000000000000000000000000000014
:100CE0000000000000000000000000000000000004
:100CF00000000000000000000000000000C0F0F84C
:100D0000FC3E1E06010000007F4141417F007F4103
:100D100041417F000080C0E07E5B4F5BFEC0000071
:100D2000C000DCD7DEDEDED7DC00C0000000000043
:100D300000000000000000000000000000000000B3
:100D400000000000494949FFFFFFFFE0DFBFBF008F
:100D5000BFBFDFE0FFFFFFFF49494900000000007F
:100D60001F3F6060E0BF1F007F7F071E381E077FA8
:100D70007F007F7F0E1F3B716000000000007F7FBF
:100D80000C0C0C007E7E007F7E0303007F7E03033D
:100D90007E7E03037F7E000F3E703C063C703E0F5C
:100DA00000327B49493F7E007F7E0303001E3F697E
:100DB000696F2600000000000000000000030F1F04
:100DC0003F3C7870600000007F4141417F007F41DF
:100DD00041417F00307B7F7830202030787F3B009E
:100DE00003000F7F0F0F0F7F0F00030000000000B4
:100DF00000000000000000000000000000000000F3
:100E000000000000010101070F0F7F0F7F0F0F7E11
:100E10000F0F7F0F7F0F0F0701010100000000007F
:100E200000000000000101000000000000000000C0
:100E300000000000000000000000000000000000B2
:100E400000000000000000000000000000000000A2
:100E50000000000000000000000000000000000092
:100E60000000000000000000000000000000000082
:100E70000000000000000000000000000000000072
:100E80000000000000000000000000000000000062
:100E90000000000000000000000000000000000052
:100EA0000000000000000000000000000000000042
:100EB000000000000000000000000000000000AF83
:100EC00000AE09025B00030100A0FA090400000162
:100ED00003010100092111010001224000070581E1
:100EE00003080001090401000203000000092111A8
:100EF00001000122220007058203200001070503EB
:100F0000032000010904020001030000000921116F
:100F1000010001226D000705840320000112010079
:100F2000020000000832FC87120200010203011CCB
:100F3000037600690061006C003A006600360034F8
:100F4000006300320062003300630000000C0353B2
:100F5000006F0066006C006500000010034B006528
:100F6000007900680069007600650000000403094C
:100F7000040011241FBECFEFDAE0DEBFCDBF04B600
:100F800003FE18C08091830690918406A091850687
:100F9000B09186068730904BA740B04B59F4109221
:100FA0008306109284061092850610928606E0E071
:100FB000F8E3099511E0A0E0B1E0ECE1F0E702C050
:100FC00005900D92AA3EB107D9F726E0AAEEB1E04E
:100FD00001C01D92A338B207E1F70E94162B0C94B2
:100FE000E1370C940000E8EDF0E080818E7F808393
:100FF0001092E2001092DA001092E100A0EEB0E050
:101000008C9181608C9380818F77808319BCA7ED50
:10101000B0E08C918E7F8C9380818F7E8083109244
:101020004B0608952091E4003091E50095E6A90172
:101030002091EC00822F817020FF06C08091E80093
:1010400080FF06C080E008952091E80022FD1AC0CC
:1010500080917906882389F0853089F08091EB00B2
:1010600085FD0FC02091E4003091E5004217530741
:10107000F9F29150E1F684E0089582E0089583E06A
:10108000089581E00895EF92FF920F931F93CF93FD
:101090007C018B010E941208C82F811117C080911A
:1010A000E80085FD0BC08091E8008E778093E80012
:1010B0000E941208882399F3C82F08C0F701819174
:1010C0007F018093F1000150110949F78C2FCF91D6
:1010D0001F910F91FF90EF900895CF93FC018091A5
:1010E0007906843001F5C091E900CF702091EC00C1
:1010F000922F917020FD90E8C92B82E08093E90047
:101100008091E80080FF0CC050E040E060E270E0B9
:10111000CF010E9443088091E8008E778093E80019
:10112000CF70C093E900CF9108958091710687FF39
:1011300013C08091E80082FF06C08091E8008B77A1
:101140008093E80004C0809179068111F2CF089560
:10115000809179068823D9F38091E80080FFF8CF49
:101160008091E8008E77ECCF982F9093E900242FA0
:10117000762F50E0891731F07091EC002091ED004E
:101180005091F00021FD07C09F5F973071F7809369
:10119000E90081E008953091EB003E7F3093EB0051
:1011A0003091ED003D7F3093ED003091EB003160E8
:1011B0003093EB007093EC002093ED005093F0001F
:1011C0002091EE0027FDE0CF80E00895B0E0A0E0A0
:1011D000ECEEF8E00C940C37C8EDD0E088818F7EFF
:1011E0008883E7EDF0E080818160808384E082BFC6
:1011F00081E080934B0688818E7F888302EE10E029
:10120000F80110821092DA0081EEC82ED12CF6017E
:10121000108288818F77888388818068888388811D
:101220008F7D888319BC10927906109270061092F7
:101230006F0610926E0690EEE92EF12CF701808178
:101240008B7F808388818160888342E060E080E0DA
:101250000E94B408F60180818E7F8083F80180812E
:1012600081608083808188608083F70180818E7FA8
:101270008083888180618883CDB7DEB7E8E00C94F5
:101280002837FC018091770690917806861797079A
:10129000A0F06115710529F49091E8009E77909374
:1012A000E80090E06115710551F4911108C080913A
:1012B000E80082FF34C080E00895BC01F2CF809145
:1012C00079068823C1F18530C1F18091E80083FD62
:1012D00030C08091E80082FDEACF8091E80080FF75
:1012E000E1CF8091F3002091F200382F6115710554
:1012F00019F02830310558F091E02830310509F017
:1013000090E02091E8002E772093E800CBCF8191E8
:101310008093F100615071092F5F3F4FE7CF8091BB
:101320007906882341F0853041F08091E80083FF01
:10133000BECF81E0089582E0089583E00895089586
:101340000895089580914D0608952FB7F8946091FF
:1013500042067091430680914406909145062FBF46
:10136000089520916A012223C9F02091460627FFA3
:1013700015C0E62FE695E695E695EE31D8F4E80F30
:10138000F92FF11D677021E030E001C0220F6A954E
:10139000EAF720958281282322830895FC01329662
:1013A00008962191621303C0DF0111971C92E81780
:1013B000F907B9F7089520916A012223C1F020911D
:1013C000460627FF14C0E62FE695E695E695EE3132
:1013D000F8F4E80FF92FF11D677021E030E001C04B
:1013E000220F6A95EAF78281822B82830895FC019D
:1013F00032962FEF30E04191641751F02F3F19F4EE
:10140000411101C0232F3F5F3630A9F72F3F09F468
:101410000895820F911D27FD9A95FC01628308951E
:1014200020913F06309140062817390771F09093BC
:10143000400680933F06E0913D06F0913E063097CE
:1014400021F00084F185E02D0995089520913B0657
:1014500030913C062817390771F090933C06809331
:101460003B06E0913D06F0913E06309721F0068064
:10147000F781E02D09950895FC01680F791F8FEF22
:1014800091E32191822728E030E087FF09C0880F8F
:10149000892721503109C9F7E617F70791F7089511
:1014A000880FF7CFFA01811101C0FB01099508955A
:1014B000E3E4F3E011828281846082830895809165
:1014C0007D06982F9E7F61F48170826080937D06F7
:1014D00080918006853618F084E680938006089512
:1014E0008031B0F381708E60F1CFAF92BF92DF9206
:1014F000EF92FF920F931F93CF93DF93082F162F36
:10150000E901E42FF0E0EC51FA4F611110C0E491D1
:101510005E2F4E2F4983E8835A83DF91CF911F912D
:101520000F91FF90EF90DF90BF90AF900895E62E5F
:10153000F12C4491D42EE42FF0E026E0829FC001EC
:1015400011242FEF30E0B9010E94EE36802F90E099
:10155000880F991F55E5569FD001579FB00D112454
:101560008A1B9B0B982F990F890F5901AE18BF0842
:10157000AE9ED001AF9EB00DBE9EB00D11245B2F6C
:10158000189F80011124012F11275901A01AB10AB7
:10159000AE9E8001AF9E100DBE9E100D112459010C
:1015A000A81AB108AE9CC001AF9C900DBE9C900DD6
:1015B0001124892F9927281B390B2E9FC0012F9F9B
:1015C000900D3E9F900D1124E92F62307105A1F01E
:1015D00050F46115710509F49DCF6130710581F0FA
:1015E000EB2F512F97CF6430710569F080F0663092
:1015F000710509F48FCFF4CFE42F4B2F592F8ACFE9
:10160000E42F412F87CFEB2F542F492F83CF4B2F20
:101610005D2DE12F7FCF80E00895F894E82FE295CB
:10162000EF70F0E031A1282F2F7081E090E001C031
:10163000880F2A95EAF7982F9095932391A392A16A
:10164000892B82A3789408959091460692FF06C054
:10165000282F28712830F9F4877F846093FF06C013
:10166000282F28712831F1F4877E84612091470664
:1016700020FF06C0382F38713830D9F4877F816059
:1016800021FF06C0282F28712831D1F4877E81617F
:1016900094FD877E0895282F24712430F9F68B7FDE
:1016A0008860DCCF282F2471243101F78B7E88617C
:1016B000DDCF382F3171313019F78E7F8860E0CF60
:1016C000282F2171213121F78E7E8861E1CFCF93C0
:1016D000DF93EC0182389105A9F1D8F581339105AA
:1016E00009F496C048F58932910509F48AC08A97B1
:1016F00009F495C0C11522E5D20708F0B6C0C1159E
:1017000031E5D30708F029C1C83ED10508F09CC0D7
:10171000C03ED10560F5C83AD10508F087C0C53A8A
:10172000D10508F0F2C0C130D10509F12097F9F0D8
:10173000C430D105E0F440C08533910509F45AC0A6
:10174000C997C1F680914606837089F0C0EED0E05B
:101750000EC0833E910599F170F4803E910501F130
:10176000823E910539F68091460682FD21C0CE0168
:10177000DF91CF910895863E910561F1873E9105F5
:1017800071F1843E910509F0B5CF8091470681FF44
:10179000EECF80914606C7EED0E084FD0DC0E7CFC6
:1017A0008091460680FD0FC19091470690FFDFCFE4
:1017B000C3EED0E084FFDBCFD0E0C0E0D8CF809193
:1017C000460682FD03C19091470690FDBFCF84FF7E
:1017D000CECFF2CF8091460683FDDDCFC8CF80917A
:1017E000460683FDF6C09091470691FFF0CFC4EE08
:1017F000D0E0BDCF8091460685FFB9CFC9E2D0E0E9
:10180000B6CF8091460685FFB2CFC5E3D0E0AFCF1B
:101810008091460686FFABCFCAE2D0E0A8CF809188
:10182000460686FFA4CFC1E3D0E0A1CFCF3BD105D0
:1018300018F6C85AD0E0CC0FDD1FCE57DE4F099006
:10184000D881C02DD46493CFC11540E5D40708F0EA
:1018500067C0C11580E4D80708F05FC0CE019A9533
:1018600081159F4108F483CFA7CFC11536E5D30773
:1018700018F5C11545E5D40708F087C0C11584E502
:10188000D80708F07DC09C2F969596959E012370F1
:101890003327C115D34508F465C0C1E0D0E002C0CC
:1018A000CC0FDD1F2A95E2F730E2939FC00111248F
:1018B000C82BD92BDA685BCFC11589E5D80768F446
:1018C000C11598E5D90708F06BC0C11527E5D20707
:1018D00008F072CFDD27D0664ACFC1153AE5D307AD
:1018E00008F463C0CE0190568115904208F064CF91
:1018F0008D2F8F710E94240B90E0982F88278827C6
:101900009F719C012C2BE90149C0C55AD0E0C158F8
:10191000DE4FC881D0E0D0642ACFDF70D06A27CFF5
:10192000CE01E4E096958795EA95E1F783702C2F38
:1019300026952695237090E2299F90011124382B3B
:101940008C2F8370C1E0D0E002C0CC0FDD1F8A95E0
:10195000E2F7C22BD32BDC680ACFDC2FCC27C16F78
:10196000D06A05CFC1E0D0E002C0CC0FDD1F2A95C0
:10197000E2F720E2929FC0011124C82BD92BEBCFB4
:10198000DC2FCC27C46FD06AF2CE8C2F0E94240BA0
:10199000C82FD0E0DC2FCC27CC27DF71D062E7CE78
:1019A000DC2FCC27C06FD06AE2CE8C2F8F700E94C4
:1019B000240B34E0D695C7953A95E1F7CF709C2F6C
:1019C000EC01D069D4CEC9E3D0E0D1CEC2EED0E0F4
:1019D000CECEC6EED0E0CBCE0E94A5090895809170
:1019E0009A02882331F010929A0210929902109272
:1019F000980208958095909197029823909397026A
:101A00000895109275021092740210927302089554
:101A10008091720290914102981301C008958F5FE6
:101A20008770FACFA82FA77023E0969587952A95FF
:101A3000E1F7FC01EE0FFF1FE80FF91FE60FF71F9C
:101A400050E040E080E0219130E00A2E02C036955F
:101A500027950A94E2F721703327042E01C0220F44
:101A60000A94EAF7822B4F5F5F4F4330510559F7D5
:101A70000895903FC9F09A3080F48730A8F4282F59
:101A800030E06EE172E0A901E7E09E9F400D511D3C
:101A90001124CA010E94120D08959C5F923020F417
:101AA0006BE172E090E0F6CF80E00895262F27707A
:101AB00091E001C0990F2A95EAF723E076956795A2
:101AC0002A95E1F7FB01EE0FFF1FE60FF71FE40F6A
:101AD000F51F50E040E0682F70E08191DF01119721
:101AE0009B01042E02C0369527950A94E2F72170D7
:101AF00021952827292328272C934F5F5F4F4330B8
:101B0000510559F70895282F862F903F79F09A3084
:101B100070F4273058F4622F70E027E0929F600D38
:101B2000711D11244EE152E00E94560D08959C5FF4
:101B30009230E0F7622F70E04BE152E0F5CF982F42
:101B400092959F7011F0892F94E0282F2695269565
:101B500011F09E5F822F869509F09F5F892F08956F
:101B60009C013A9521153F4150F5FC01EE27F1709B
:101B7000BC0166277270AC01442754709C01222777
:101B8000387094FF0EC080E1EF2B09F480E0672BE2
:101B900009F08062452B09F08064232B89F080686E
:101BA000089581E0EF2B09F480E0672B09F0826053
:101BB000452B09F08460232B19F08860089580E09C
:101BC0000895B0E0A0E0E7EEFDE00C940C376C0166
:101BD0007B0164E670E088E70E944934EC0197FDE0
:101BE00012C010E000E0F601E00FF11F849164E6FE
:101BF00070E00E94B734EC01892B29F40F5F1F4F6E
:101C00000E151F0581F70E942E35CE01CDB7DEB728
:101C1000E8E00C9428378091390690913A069111AA
:101C200003C091E089270895882369F062E070E09D
:101C300080EC9EE00E94E10D892B19F0809139061D
:101C400008951092390680913906EBCFCF93C09159
:101C5000390680913A068823D1F00E94A509605880
:101C6000774C8E4F9F4F6093350670933606809366
:101C7000370690933806C11108C062E070E08EEB21
:101C80009EE00E94E10D892B29F0C09139068C2F2E
:101C9000CF91089581E080933906F7CF809348066D
:101CA00070934A0660934906809179068430F9F46E
:101CB0008093E9008FEF9091E800815095FD06C078
:101CC00095ED9A95F1F700008111F5CF8091E8002C
:101CD00085FF0DC050E040E063E070E088E496E0EE
:101CE0000E9443088091E8008E778093E800089571
:101CF000BC0184E00E944E0E0895BC0183E00E9466
:101D00004E0E0895CF93DF93EC0180916A018823F2
:101D1000B1F18091460687FF32C060E284E0809393
:101D2000E9008FEF9091E800815095FD06C095ED98
:101D30009A95F1F700008111F5CF8091E80085FFB9
:101D40001BC080916A0170E050E040E0811104C046
:101D500050E040E068E070E0CE010E9443088091CE
:101D6000E8008E778093E80080E2FE01AEE4B6E002
:101D700001900D928A95E1F7DF91CF91089568E087
:101D800081E0CDCF81E08093E00080E28093D800B5
:101D90001092C9008FE19EE40197F1F700C00000A6
:101DA00087E090EBDC018093830690938406A093F8
:101DB0008506B093860688E19CE00FB6F894A89556
:101DC000809360000FBE90936000FFCFCF92DF92B0
:101DD000EF920F931F93CF93DF93CDB7DEB7CE5D16
:101DE000D1090FB6F894DEBF0FBECDBF609166017A
:101DF00080917D0680FF4CC0E4EEF6E09E012F5FEF
:101E00003F4F8E0101521F4FC901A4914A2F50E04C
:101E1000DA01AA0FBB1FA40FB51FAA5BBC4FCD9060
:101E2000DD90EC90D901CD92DD92ED929D0131963D
:101E3000A017B10751F72091650143E0249F800D61
:101E4000911D1124539A2BB1277F3BB138605FB7A6
:101E5000F894FC01649FE00DF11D1124BF01861769
:101E6000970749F55FBFEFE5F4E03197F1F700C060
:101E70000000C252DF4F0FB6F894DEBF0FBECDBFD9
:101E8000DF91CF911F910F91EF90DF90CF90089548
:101E9000809167019091680123E0829FF0011124F5
:101EA000EA5BFC4F891708F0A7CF118210821282DB
:101EB0008F5F3396F7CFDC014D91CD01E8E03BB960
:101EC000000000C047FF2BB9440F000000C000C055
:101ED00000C02BB900C0EA9591F7C1CFEF92FF92F5
:101EE0001F93CF93DF93EC0110E0EE24EA94F12CE2
:101EF00060916901161770F00E94E60E9A818C813C
:101F000090FF2AC08F5F8C83DF91CF911F91FF904C
:101F1000EF90089520916701422F410F5527551FDB
:101F2000CA019A01220F331F280F391F2A5B3C4F29
:101F300040918006453608F044E670E0C7010E94F3
:101F40004537962F8C8160917F06199F800D112453
:101F50000E94750A1F5FCCCF8150D5CFEDE7F6E028
:101F600080818E7F80830E94580AE3E4F3E08281BF
:101F7000816082832FEF80E792E021508040904083
:101F8000E1F700C000000E94E60E0895B0E0A0E076
:101F9000ECECFFE00C940A377C015B016A01809154
:101FA000DE0201E010E08A3010F40AE010E0C1E047
:101FB000D0E0B501C701F6010995811104C0219651
:101FC0000C171D072CF4CDB7DEB7EAE00C942637CA
:101FD000CC9F9001CD9F300D300D112490E080E01A
:101FE00045E34A95F1F70000019682179307C1F780
:101FF000E0CF8091A602811110C08091D80080614D
:102000008093D8008AE18A95F1F700C08091D900C9
:1020100080FF0AC081E08093A60281E09091A60231
:10202000913009F080E0089582E08093A6020E943A
:10203000F30710927906F1CF0E94F90F882359F027
:10204000E0913D06F0913E06309729F00190F08135
:10205000E02D0995089580E008950F931F930E9445
:10206000F90F882329F00E94A5091F910F91089567
:102070000E94A5090091DF021091E0022091E10287
:102080003091E202600F711F821F931FEECF1F93EA
:10209000CF93DF93162F8A3039F481E00E94EA1043
:1020A000DF91CF911F9108958D3011F480E0F6CF2C
:1020B000C0913306D091340696E0FE01ADE2B6E061
:1020C00001900D929A95E1F7803E90F186E0FE0135
:1020D00011928A95E9F7C0913306D0913406111117
:1020E00033C046E050E0BE018DE296E00E947C37AE
:1020F0009E012D523440892B91F52A5F3F4F40912C
:102100002A04642F70E0C9010E94EE36481B463055
:1021100010F4240F311D211572E0370710F030E064
:1021200020E0235D3B4F3093340620933306B8CF35
:10213000F6E08F9FB00111246258764F46E050E0E0
:10214000CE010E946637C7CF9E012A5F3F4FFE0136
:102150002E173F0731F2808180958193F9CFC90115
:1021600045E0969587954A95E1F741E050E0BA0140
:1021700002C0660F771F8A95E2F7CB0160912B04AE
:1021800070912C04862B972BB9016B5F7F4FE5E094
:1021900076956795EA95E1F702C0440F551F6A9559
:1021A000E2F7842B952B90932C0480932B04A5CFDE
:1021B0001F93CF93DF93EC01162FFE0184918111C1
:1021C00004C0DF91CF911F910895612F0E944710A5
:1021D0002196F3CFCF93382FE0913306F091340658
:1021E000ED52F44020912A04622F70E0CF010E944A
:1021F000EE36281B822F332369F066E00E943937C0
:10220000C82FC15010F4CF91089560E080E20E9481
:102210004710F7CF9F01280F311D2115324018F0CC
:1022200080E0F0E0E0E08E0F9F2F911D835D9B4FDB
:102230009093340680933306E6CF0E94D81081E055
:102240000E94EA100895CF93DF93C7E7D2E060E0E1
:10225000CE010E94AD372196C11584E0D807B9F7A9
:10226000DF91CF9108950F931F93CF93DF93142F96
:10227000022F843020F5623010F598E0899FE0014C
:10228000112484E0689FB0011124C60FD71FC95ADA
:10229000DD4F82E090E0442311F090E080E0632F76
:1022A0008C0F9D1F0E94AD3783E090E0112311F049
:1022B00081E090E0602F8C0F9D1F0E94AD37DF9171
:1022C000CF911F910F9108951F93CF93DF93122FFA
:1022D0008430E0F46A30D0F44730C0F4C42FD0E04A
:1022E000CC0FDD1F9EE0699FC00DD11D11249CE81D
:1022F000899FC00DD11D1124632FCE0187960E94A6
:10230000AD37612FCE0188960E94AD37DF91CF9116
:102310001F910895B0E0A0E0E0E9F1E10C940637E8
:10232000A0902404B090250481E090E090932504CF
:10233000809324048EE2C82E87E0D82E9EE4E92EF6
:1023400097E0F92EC0E0470110E014C0F301259199
:1023500034914D2F612F8C2F0E94641182E0680E02
:10236000711CDF5FD73091F78EE0880E911C1F5FE4
:102370001A3019F03401D0E0E9CF8601D0E0F8013D
:102380002591349141E06D2F8C2F0E943311F8017B
:1023900032962591349140E06D2F8C2F0E9433119D
:1023A0000C5F1F4FD13099F488E0C80ED11CCF5F6D
:1023B0008CE8E80EF11CC43009F0C5CFB0922504BA
:1023C000A0922404CDB7DEB7EEE00C942237D1E022
:1023D000D6CFCF93C82F6FEF811165E283E290E0F3
:1023E0000E94AD376FEFC11161EA84E290E00E9474
:1023F000AD376FEFC1116EE885E290E00E94AD3716
:10240000CF91089580E00E94E91160E086E290E0BB
:102410000E94AD370E948A110E94231181E00E9420
:10242000E9110895FF920F931F93CF93DF93F42E3A
:10243000843070F5623060F528E0829F80011124BD
:1024400034E0639FB0011124060F171F095A1D4F76
:1024500082E090E0442311F090E080E0800F911F33
:102460000E949937C82FD0E0DC2FCC2783E090E082
:10247000FF2011F081E090E0800F911F0E949937BA
:102480009E01282BC901CDB7DEB7E5E00C942B37B0
:1024900090E080E0F8CF0F931F93CF93DF938430C9
:1024A00030F56A3020F5473010F5C42FD0E0CC0F5E
:1024B000DD1F2EE0629FC00DD11D11243CE8839FDB
:1024C000C00DD11D1124CE0187960E949937082F87
:1024D00010E0102F0027CE0188960E9499379801AE
:1024E000282BC901DF91CF911F910F91089590E0A2
:1024F00080E0F8CF2091280430912904232BC9F4DF
:10250000703F39F4603FA9F480912604909127042C
:102510000895843070F47A3038F4673050F4462FE0
:10252000672F0E944B1208957D3F31F441E06230E5
:1025300040F090E080E008957C3FD9F76230C8F722
:1025400040E00E9412120895CF92DF92FF920F9303
:102550001F93CF93DF936C010091820680919B02C1
:10256000082BC7E0D0E010E0FC2EC8010C2E02C002
:10257000959587950A94E2F780FD0CC02197A0F706
:10258000F12C8F2DDF91CF911F910F91FF90DF9054
:10259000CF900895B6018C2F0E947A120E94670B8B
:1025A000019761F3EECFCF93DF93EC010E94A41269
:1025B000BE010E947A120E94670BDF91CF910895AD
:1025C000FC01808191810E94D31292959F70963078
:1025D00091F058F4925F9F70923058F4803F19F058
:1025E00030F4883E30F481E008959A5FF4CF843F60
:1025F000D1F380E00895883EB0F3813FD1F7F3CF67
:1026000083E290E00E949937853289F484E290E079
:102610000E949937813A59F485E290E00E949937F7
:1026200091E08E3809F090E0892F8170089580E064
:10263000FCCFCF9384E090E00E949937C82F82E2CC
:1026400090E00E949937982F8C2FCF910895CF92C8
:10265000DF92EF92FF926B017C010E945F0AB7014B
:10266000A60188E090E00E94BF37FF90EF90DF90D6
:10267000CF900895A3E0B0E0E0E4F3E10C940E37CE
:10268000082FF62E142FE22E80917D0680FF4EC07B
:10269000E82FE695F0E0EE52FE4F908190934303D1
:1026A0008E7F823009F04CC0453608F044E69E012A
:1026B0002F5F3F4F6F2D802F0E94750A80917D06FE
:1026C00080FF11C02B8139814A81809167019091EF
:1026D000680153E0859FF0011124EA5BFC4F8917E4
:1026E00048F10E94E60E80917E06801308C080911A
:1026F0007F068F1104C080918006811729F0809198
:10270000450382608093450300937E06F0927F0626
:1027100010938006EE2051F060917D0670917E0648
:1027200080917F06909180060E9427132396E6E011
:102730000C942A374183308322838F5F3396CFCF27
:10274000923089F600917E06CECFEDE7F6E0438128
:1027500021E1421B08F440E021E0628181810E9476
:102760003A130895EDE7F6E0438121E1420F08F4C2
:102770004FEF21E0628181810E943A130895EDE7D5
:10278000F6E0628121E1621B08F460E021E0438110
:1027900081810E943A130895EDE7F6E0628121E11C
:1027A000620F08F46FEF21E0438181810E943A13A8
:1027B0000895EDE7F6E0818121E0438162818A504E
:1027C0000E943A130895EDE7F6E0818121E043810C
:1027D0006281865F0E943A13089580918106882362
:1027E00019F081508093810660917D0670917E067C
:1027F00080917F06909180060E9427130895809112
:102800008106833018F48F5F8093810660917D0686
:1028100070917E0680917F06909180060E9427131A
:102820000895EDE7F6E083E0808311828FEF8283E5
:1028300084E683831482A3E4B3E012968C9112970A
:10284000836012968C9360817181828193810E9452
:102850002713089568EE7EEF90E080E00E94CB376A
:1028600060E082E090E00E94AD3760E083E090E0BD
:102870000E94AD3710929B0260E084E090E00E94DD
:10288000AD3764E082E290E00E94AD3760E085E021
:1028900090E00E94AD3760E086E090E00E94AD37A6
:1028A0006FEF87E090E00E94AD3740E050E0BA0162
:1028B00088E090E00E94BF3760E08DE090E00E94E9
:1028C000AD3740E050E0BA0188E190E00E94BF37A8
:1028D00060E087E190E00E94AD3740E050E0BA014F
:1028E0008CE190E00E94BF3770E060E080E290E011
:1028F0000E94CB3740E050E0BA0188E190E00E94AE
:10290000BF3780E00E94E9110E94021240E050E0CF
:10291000BA018FE090E00E94BF3740E050E0BA017A
:1029200083E190E00E94BF370895A4E0B0E0EBE9B6
:10293000F4E10C9411374091D2025091D30260918E
:10294000D4027091D5022FB7F894809142069091ED
:102950004306A0914406B09145062FBF841B950BFA
:10296000A60BB70B11E084369105A105B10570F1F6
:102970000E942D106E5F7F4F8F4F9F4F69837A8328
:102980008B839C838091290190912A0188549D4FCB
:102990004091280150E04530510510F044E050E0EE
:1029A000BE016F5F7F4F0E94893785E090E00E94F3
:1029B0007836182F882351F00E94A5096093D2021F
:1029C0007093D3028093D4029093D502812F2496E2
:1029D000E3E00C942D374F925F926F927F928F922B
:1029E0009F92AF92BF92EF92FF920F931F93CF935C
:1029F000DF937B01FB0140805180628073809FB731
:102A0000F8948090420690904306A0904406B090BF
:102A100045069FBF84189508A608B708F4E68F16E8
:102A20009104A104B10418F4C1E0442329F1C82F92
:102A3000880FDD0BFE0183E0EE0FFF1F8A95E1F7A3
:102A4000E050FF4F8181928188549D4F408150E03A
:102A50000417150708F4A801B9010E948937CE01AF
:102A60000E947836C82F882339F00E94A509F70103
:102A700060837183828393838C2FDF91CF911F9129
:102A80000F91FF90EF90BF90AF909F908F907F90AD
:102A90006F905F904F900895A1E0B0E0E2E5F5E11E
:102AA0000C9410378091390689832091D10290E0EF
:102AB00041E02817190609F440E001E010E09E010A
:102AC0002F5F3F4F6AED72E087E00E94EB14219682
:102AD000E4E00C942C37A8E0B0E0E1E7F5E10C94D9
:102AE000103785E0EDE7F6E0DE01119601900D92DA
:102AF0008A95E1F78091430390914403A0914503A7
:102B00008E839F83A88741E08885811101C040E0C2
:102B100008E010E09E012F5F3F4F66ED72E086E017
:102B20000E94EB148111109245032896E4E00C9466
:102B30002C370F931F93CF93DF93EC0145E050E0C8
:102B40006EEB72E00E947C3741E0892B09F440E093
:102B500005E010E09E0160EB72E082E00E94EB1461
:102B6000DF91CF911F910F9108954F925F927F92C5
:102B70008F929F92AF92BF92CF92DF92EF92FF928D
:102B80000F931F93CF93DF930F92CDB7DEB7C62E6F
:102B90004A015901482E880F5508C2010E94783613
:102BA000782E882309F480C0C20133E0880F991F72
:102BB0003A95E1F7FC01E050FF4F438150E04115A9
:102BC000510511F041E050E080509F4FFC016481BD
:102BD000758168547D4FCE0101960E948937F401BA
:102BE00040815181628173812FB7F89480914206B0
:102BF00090914306A0914406B09145062FBF841BD7
:102C0000950BA60BB70B84369105A105B10540F4D1
:102C1000B701C8010E943C0A9981891709F444C090
:102C20000C2C000CDD08C6010E947836782E81112C
:102C300013C0712C872D0F90DF91CF911F910F91B1
:102C4000FF90EF90DF90CF90BF90AF909F908F90CC
:102C50007F905F904F900895C60123E0880F991FE1
:102C60002A95E1F7FC01E050FF4F438150E0E41664
:102C7000F50608F4A70180509F4FFC01648175811F
:102C800068547D4FC5010E948937B701C8010E9471
:102C90003C0A99818913CDCF0E94A509F401608374
:102CA000718382839383C6CFA701B801C5010E94B7
:102CB0008937C0CFA5E0B0E0E0E6F6E10C940C3730
:102CC0006B0185E0E82EF12C09EB12E09E012F5FED
:102CD0003F4F4CEA52E061E080E00E94B515882346
:102CE00049F095E0FE013196A7EAB2E001900D921D
:102CF0009A95E1F795E0E7EAF2E0D60101900D92AE
:102D00009A95E1F72596E8E00C94283790E080E06A
:102D10000E94A737883E9E4F19F40E940013089521
:102D200080E008951F920F920FB60F9211242F93F7
:102D30003F934F935F936F937F938F939F93AF9343
:102D4000BF93EF93FF938091E10082FF09C08091D0
:102D5000E20082FF05C08091E1008B7F8093E1005B
:102D60008091DA0080FF24C08091D80080FF20C0CD
:102D70008091DA008E7F8093DA008091D90080FF05
:102D80009DC080E189BD82E189BD09B400FEFDCF0F
:102D900081E08093790680914B06811109C00E94E1
:102DA000F3070E94E6088091E20084608093E200CD
:102DB0008091E10080FF17C08091E20080FF13C086
:102DC0008091E2008E7F8093E2008091E20080613A
:102DD0008093E2008091D80080628093D80019BC73
:102DE00085E0809379068091E10084FF2BC080917B
:102DF000E20084FF27C080E189BD82E189BD89B5F9
:102E0000982F917080FFFBCF8091D8008F7D8093A9
:102E1000D8008091E1008F7E8093E1008091E200F4
:102E20008F7E8093E2008091E20081608093E200D7
:102E300080917006882309F447C084E08093790666
:102E4000809179068091E10083FF27C08091E200A4
:102E500083FF23C08091E100877F8093E10082E0BF
:102E600080937906109270068091E1008E7F8093A6
:102E7000E1008091E2008E7F8093E2008091E20089
:102E800080618093E20042E060E080E00E94B4084C
:102E90008091F00088608093F000FF91EF91BF91E6
:102EA000AF919F918F917F916F915F914F913F91E2
:102EB0002F910F900FBE0F901F90189519BC109274
:102EC000790610924B0674CF8091E30087FD93E062
:102ED00090937906B5CF78941F921FB61F92112454
:102EE0008F939F93AF93BF93809142069091430637
:102EF000A0914406B09145060196A11DB11D809395
:102F0000420690934306A0934406B0934506BF91B2
:102F1000AF919F918F911F901FBE1F9018959C019C
:102F20004FB7F8948091420690914306A0914406D1
:102F3000B09145064FBF821B930B08952FB7F894AD
:102F40008091420690914306A0914406B0914506B7
:102F50002FBF08950E94F90F882319F00E949E1731
:102F600008950E942D10CB01089560917D0666950D
:102F700070E041E050E084E691E00E946F37892BD9
:102F800019F481E0809344030E94AA1790933E03B2
:102F900080933D03809145038460809345030895A9
:102FA00090917D0690FF31C0917081112FC0926089
:102FB00090937D068091450381608093450366234D
:102FC00051F060917D0670917E0680917F06909110
:102FD00080060E94271360917D06669570E041E0AF
:102FE00050E084E691E00E946F37892BB1F00E9497
:102FF000580A81E08093400320E040918006609170
:103000007F0680917E060E943A130895883010F062
:103010009E60CECF880F982BCBCF0E94B517E9CFFB
:1030200080917D068695815009F487E061E00E94D9
:10303000D017089580917D0686958F5F883008F0BF
:1030400081E061E00E94D017089580917D0680FFA5
:1030500008C0869582588F77853018F40E941A1818
:10306000089561E082E00E94D0170895AFE0B0E0DB
:10307000ECE3F8E10C9407378E010F5F1F4F8AE0F5
:10308000D8011D928A95E9F787E4C82E81E0D82EF1
:10309000F12CE12CAA24A394B12C27E4822E21E068
:1030A000922EF60181916F018F3F09F442C0F8948E
:1030B000E82FE295EF70F0E021A18F70A50102C02A
:1030C000440F551F8A95E2F7CA01922F982B91A3BE
:1030D00092A18095892382A3789400C0E0E4F1E076
:1030E000712C31E021912F3F09F46BC0A22FA295E2
:1030F000AF70B0E090968C9190E02F7002C09595E3
:1031000087952A95E2F780FD5CC0832F782A330FDC
:103110008E169F0639F7F601319780818F3F11F0A7
:103120000E940D0B50EA5A95F1F7F801EE0DFF1DC4
:1031300070828FEFE81AF80A95E0E916F10409F0B9
:10314000B0CF4AE050E0B80183EE92E00E947C37B5
:103150007C01892B41F08AE0F801A3EEB2E00190F6
:103160000D928A95E1F71091EE02E114F10459F104
:1031700081E080939E020E949E1790939D0280930F
:103180009C0280919C0290919D020E948F1705974E
:1031900078F0A3EEB2E0E12FF0E0ED5CFC4F88EEBA
:1031A00092E02D9121938A179B07D9F710929E02E6
:1031B00081E090E0E114F10451F02F96EDE00C94E1
:1031C000233780E0A3CF80919E028111DACF0E9445
:1031D000F90FD82EE091EE02DE011B967D018823C7
:1031E00009F487C085E01D928A95E9F70E2F10E05B
:1031F0000D5C1C4F8091DE028A3008F046C04AE523
:1032000056E1B701C8010E94C60F882309F44DC0DA
:1032100049E955E1B701C8010E94C60F882309F4A6
:1032200044C046E951E2B701C8010E94C60F882395
:10323000E1F145E954E1B701C8010E94C60F8823B6
:10324000A1F14BE655E1B701C8010E94C60F8823E2
:1032500061F14CE455E1B701C8010E94C60F882313
:1032600021F11092DE028091ED0290E045E050E005
:10327000B7018D5C9C4F0E947C3721E02093A50212
:10328000892B51F5D12C8D2D98CF80919F02909153
:10329000A0020E948F17843F914008F0B0CF809128
:1032A000A502811112C080E088CF8091DE028F3F9D
:1032B00029F08F5F8093DE028A30A8F20E949E1769
:1032C0009093A00280939F02EACF85E0F7011192CC
:1032D0008A95E9F71092A502A091ED02B0E0AD5CED
:1032E000BC4F85E0FE013B9601900D928A95E1F777
:1032F000CACF0091ED0210E00D5C1C4FF0E0ED5CD8
:10330000FC4F85E0A9EBB2E001900D928A95E1F7C0
:1033100065E070E089EB92E00E943C0A8093B8027D
:1033200085E0EEEBF2E0D80101900D928A95E1F78D
:103330004091070350E06091060370E06E5F7C4FA0
:10334000C7010E9489378B858093C40261E070E0D9
:10335000C7010E943C0A8093C302C090C502D0906E
:10336000C602E090C702F090C8028091A10290913D
:10337000A202A091A302B091A402C816D906EA063F
:10338000FB06D1F0C092A102D092A202E092A30269
:10339000F092A4020E94F90F81110EC00E94A509AB
:1033A000C61AD70AE80AF90AC092DF02D092E002F0
:1033B000E092E102F092E2028091D002882379F15A
:1033C00080FF0DC08091C90280FF30C090917D06C2
:1033D000916090937D0660E086950E94D017809161
:1033E000D00281FF09C020E04091CC026091CB0265
:1033F0008091CA020E943A138091D00282FF06C0D7
:103400008091CF028823A9F00E94B5178091D00245
:1034100083FF03C081E0809340031092D00280912B
:10342000D102882349F00E94260E3DCF0E94AE0FA4
:10343000D6CF0E94580AEACF0E940B0E34CF80915B
:10344000970290919602892B8093EC0180919A02C9
:10345000882329F10E949E172091980230919902A9
:10346000821B930B8838934110F00E94EF0C8091DF
:10347000EC0190919A02892B8093EC0180916A0172
:103480008823E1F18091460687FF38C08EE1EEEE99
:10349000F1E090E08150A0F591110E94EF0C40E224
:1034A00050E066E772E08CEE91E00E947C37892B59
:1034B00021F180E2ECEEF1E0A6E7B2E001900D929E
:1034C0008A95E1F7E0913D06F0913E063097A9F02C
:1034D00080916A01882359F08091460687FF07C0D2
:1034E0008091EC018093ED0186E08093EC010280F5
:1034F000F381E02D8CEE91E00995089586E0C7CF29
:103500002191222339F29F5FC5CF90E080E00E9495
:10351000260A90E080E00E94100A109296020E9413
:103520001F1A0895809382060E94851A089580913B
:103530008206982F9670963021F488600E94921A25
:103540000895877FFBCF21E030E001C0220F8A95EC
:10355000EAF720958091820682230E94921A0895AC
:10356000909175028095892380937502282F27708A
:1035700091F4282F082E000C330B9217130659F0E4
:103580009091470692FF07C08595859585950E9485
:10359000A31A0E94010D0895CF93C0914706C2FB64
:1035A000992790F9981791F080FBC2F9C0934706CC
:1035B0006091460684E090E00E94AD376C2F82E275
:1035C00090E00E94AD3782E00E94B01ACF9108953A
:1035D00021E030E001C0220F8A95EAF7809182064F
:1035E000822B0E94921A089580939B020E94851A52
:1035F00008951092970280916A01EEEEF1E088231F
:1036000061F08091460687FF08C08EE1DF011D92C0
:103610008A95E9F70E94851A089586E0F7CFAAE215
:10362000B0E0E5E1FBE10C94113781E796E02091F1
:10363000F100DC012D93CD01B6E089379B07B9F786
:1036400080917206833009F472C0B8F4813009F4B5
:1036500049C0823009F4B3C08091E80083FF96C26C
:1036600080917106909172069A3008F08FC2E92F0E
:10367000F0E0ED51F84C0C9459378A3009F48EC0C3
:103680008B3009F471C0893039F78091710681322D
:1036900019F78091750690917606009711F00297C0
:1036A000D9F68091E800877F8093E8008091E80058
:1036B00082FF38C09091F3008091F200029731F4BC
:1036C0008091F100813011F0863021F48091F10079
:1036D00080934D068091E8008B778093E8000E94EC
:1036E0009508BACF80917106813A09F0B5CF8091E3
:1036F000E800877F8093E8008091750690917606B8
:10370000892B61F460E28EE496E070E00E9441094A
:103710008091E8008B778093E8009ECF60E090E096
:1037200080E0F3CF809179068111C0CF95CF809151
:103730007106813A09F090CF8091750690917606D6
:10374000892B09F089CF8091E800877F8093E8007A
:103750008091E80080FFFCCF80916A018093F100A6
:103760008091E8008E77B9CF80917106813209F09F
:1037700073CF8091750690917606892B09F06CCFF6
:103780008091E800877F8093E8000E9495088091EF
:10379000730680936A010E94F91A5ECF80917106C8
:1037A000813209F059CF8091E800877F8093E8004B
:1037B0000E9495088091740680934C064DCF8091AD
:1037C0007106813A09F048CF8091E800877F8093A5
:1037D000E8008091E80080FFFCCF80914C06BECFCE
:1037E000803899F0823809F0D1C1809175068F70C8
:1037F000873008F0CBC18093E9008091EB0085FB16
:10380000882780F91092E90006C080916E06909199
:103810006F06911182609091E800977F9093E80085
:103820008093F1001092F1008091E8008E77AAC198
:10383000882309F498C1823009F0A8C180917306E9
:1038400081119BC1809175068F702FEF280F263054
:1038500008F09CC18093E9002091EB0020FF8DC10E
:10386000933031F48091EB0080628093EB0085C14E
:103870009091EB0090619093EB0021E030E001C06B
:10388000220F8A95EAF72093EA001092EA008091CD
:10389000EB008860EACF811179C1109173061F7720
:1038A0008091E3008078812B8093E3008091E80091
:1038B000877F8093E8000E9495088091E80080FF50
:1038C000FCCF8091E30080688093E30082E01111D7
:1038D00083E0809379065AC18058823008F056C13F
:1038E00020917306309174062C3DE3E03E07A1F56C
:1038F00083E08A838AE289834FB7F894DE011396C6
:1039000020E03EE051E2E32FF0E050935700E491D5
:1039100020FF03C0E295EF703F5FEF708E2F90E0C5
:10392000EA30C0F0C7968D939D932F5F243159F7ED
:103930004FBF8091E800877F8093E8006AE270E0E3
:10394000CE0101960E9441098091E8008B77809317
:10395000E8001CC1C096E7CF80917506909176066D
:10396000432F55274330510509F44AC078F54130BB
:10397000510509F485C08BE590E0E2ECFEE04230B1
:10398000510509F003C12091E800277F2093E8004A
:1039900020917706309178068217930708F49C01EE
:1039A00040E02115310509F070C041116EC08091D1
:1039B000E80082FDC9CF80917906882329F28530FD
:1039C00019F28091E80083FFF2CFBECF413251055A
:1039D00009F447C04232510509F0D8C0833091053F
:1039E00008F0D4C0FC01EE0FFF1FE352FE4F019020
:1039F000F081E02D86529E4FDC018C9190E01DC03D
:103A0000332721303105E9F02115310579F02230D5
:103A10003105F9F02330310509F0B8C0EFE2FFE0DD
:103A2000E4918E2F90E0EFE2FFE007C0EDE6FFE0CB
:103A3000E4918E2F90E0EDE6FFE0009709F4A6C038
:103A4000A2CFEBE5FFE0E4918E2F90E0EBE5FFE005
:103A5000F4CFEDE4FFE0E4918E2F90E0EDE4FFE0A1
:103A6000ECCF8330910508F091C0880F991FFC01BD
:103A7000ED51FE4F0190F081E02D89E090E083CF81
:103A800082E190E0EDE1FFE07ECF8091790688232E
:103A900009F45ACF853009F457CF8091E80083FDAF
:103AA00053CF8091E80082FD82CF8091E80080FFB3
:103AB00078CF9091F3008091F2002115310519F033
:103AC0008830910550F041E0089709F040E080917E
:103AD000E8008E778093E80064CF44914093F10032
:103AE0003196215031090196E8CF803809F04EC057
:103AF0008091E800877F8093E80080917006809332
:103B0000F10092CE811142C0109173061230F0F58F
:103B10008091E800877F8093E800109370060E94F0
:103B20009508112311F084E005C08091E30087FD22
:103B3000FACF81E08093790642E061EC81E00E9457
:103B4000B40842E261EC84E00E94B40842E261EC15
:103B500082E00E94B40842E260EC83E00E94B40874
:103B60008091790613C080917306813079F481E0E9
:103B7000933009F080E080936F061092E900809105
:103B8000E800877F8093E8000E9495088091E80014
:103B900083FF0AC08091E800877F8093E8008091CE
:103BA000EB0080628093EB00AA96E3E00C942D3743
:103BB0001F920F920FB60F9211242F933F934F93A2
:103BC0005F936F937F938F939F93AF93BF93CF93A5
:103BD000DF93EF93FF93D091E900DF708091EC00C9
:103BE000C82FC17080FDC0E81092E9008091F000FC
:103BF000877F8093F00078940E940F1B1092E90059
:103C00008091F00088608093F000CD2BCF70C0933E
:103C1000E900FF91EF91DF91CF91BF91AF919F911B
:103C20008F917F916F915F914F913F912F910F9065
:103C30000FBE0F901F9018950E94F91A2FEF84E382
:103C40009CE0215080409040E1F700C0000088E1F6
:103C50009CE00FB6F894A895809360000FBE9093F7
:103C60006000FFCF882341F08095909196028923D0
:103C7000809396020E941F1A0895882339F090912C
:103C80009602982B909396020E941F1A08958823FB
:103C900021F00E94FA0C0E941F1A0895882339F01F
:103CA00090919702982B909397020E941F1A089563
:103CB000882351F19CEF980F913A40F4682F8CEED5
:103CC00091E00E94B1090E941F1A089590E2980F96
:103CD000983050F4877091E001C0990F8A95EAF707
:103CE000892F0E94FA0CEFCF9BE5980F933028F4B0
:103CF00090E080E00E94260A0895885A873120F4D7
:103D000090E080E00E94100A0895CF93C82F882386
:103D1000D9F18CEF8C0F813AC8F580916A01882324
:103D200011F18091460687FF1EC0EC2FE695E695BF
:103D3000E695F0E0E451FE4F828190E04C2F477011
:103D400021E030E002C0220F331F4A95E2F78223C0
:103D50009323892B91F06C2F8CEE91E00E94B10996
:103D60000E941F1A0AC0EEEEF1E084EF91E021916B
:103D7000C21789F38E179F07D1F76C2F8CEE91E055
:103D80000E94DB090E941F1ACF91089580E28C0FD8
:103D9000883068F4C77021E030E001C0220FCA9576
:103DA000EAF780919702822B80939702EBCFEBE5A5
:103DB000EC0FE33040F4F0E0E158FE4F808190E0FA
:103DC0000E94260AE1CFC85AC731F0F6EC2FF0E086
:103DD000EE0FFF1FEE57FE4F808191810E94100A67
:103DE000D3CF1F93CF93DF93182FCAE0D0E089334E
:103DF00011F4C0E5D0E0812F0E94851E8FE99FE07D
:103E00000197F1F700C000002197C1F7812F0E94B0
:103E1000581EDF91CF911F9108950F931F93CF9359
:103E2000DF93C62FD42F022FFC0182818823A9F0B3
:103E300060937C060E949E1790937B0680937A067F
:103E4000C77081E001C0880FCA95EAF70E944E1E34
:103E5000DF91CF911F910F91089580917C06681397
:103E600032C080917A0690917B060E948F17883C21
:103E7000910548F510E21D0FCD17B9F080E28C0FC7
:103E8000883040F4C77081E001C0880FCA95EAF716
:103E90000E94471E183048F481E09D2F977001C0A2
:103EA000880F9A95EAF70E944E1E802F0E94F11EFD
:103EB000183070F6D77081E001C0880FDA95EAF704
:103EC0000E94471EC5CFC77081E001C0880FCA9508
:103ED000EAF7F6CFB0E0A0E0E0E7FFE10C940A37A4
:103EE000EC018AE0A82E2881222309F48FC021301A
:103EF000C9F599818A81913021F422960E94F11EA0
:103F000005C0923029F422960E94851E2196EBCF9F
:103F1000933021F422960E94581EF8CF943011F06D
:103F20002196F4CF229630E020E0AE014F5F5F4F44
:103F30008053990B8A30910550F02150310930F3AC
:103F40008FE99FE00197F1F700C00000F6CFA29E35
:103F5000B001A39E700D11249C01260F371F89818B
:103F6000EA01E3CFE22FF0E0E555FE4FB490822F57
:103F700086958695869590E0FC01E556FE4FE49087
:103F80002770F12C022E02C0F594E7940A94E2F710
:103F900031E0E322FF24FC01E557FE4FC490D12C11
:103FA000022E02C0D594C7940A94E2F731E0C322EE
:103FB000DD24FC01E558FE4F049110E002C0159588
:103FC00007952A95E2F701701127E114F10419F021
:103FD00081EE0E94851EC114D10419F086EE0E9464
:103FE000851E8B2D0E94F11EC114D10419F086EE9E
:103FF0000E94581EE114F10419F081EE0E94581E2F
:104000000115110509F482CF8CE278CFCDB7DEB768
:10401000EAE00C9426379091470692FF10C098E092
:10402000899F90011124622B609375020E94E81A07
:104030000E949E17909374028093730208950E94C9
:10404000E81A0895A7E1B0E0E8E2F0E20C94113735
:104050006D8B7E8B8F8B6111109296028E899F895A
:10406000892BC1F15F3F09F0F0C04F3F99F5542F04
:1040700031C0473078F5E42FF0E027E0529FE00DA3
:10408000F11D1124CF018770992721E030E001C094
:10409000220F8A95EAF7DF0173E0B695A7957A9526
:1040A000E1F7A35FBD4F7C9180913A02611102C09C
:1040B000872F8223882309F476C0CF01880F991FA8
:1040C000FC01E25DFD4F5491FC01E35DFD4F449125
:1040D000272B2C931A8A198A4B8B5C8B85E0FE0167
:1040E0007396DE011D9601900D928A95E1F78091FD
:1040F000470682FF2CC00E949E17209173023091C8
:104100007402821B930B8838934120F080917502D2
:1041100082FF97C00E949E172091980230919902C9
:10412000821B930B8838934110F00E94EF0C0E9481
:104130009E172091180230911902821B930B883828
:10414000934128F080911A02813009F471C086E011
:10415000FE013D96DE01179601900D928A95E1F7DA
:10416000CE0107960E948029811112C086E0FE01CF
:104170003796DE01119601900D928A95E1F78A85B6
:104180009B85892B29F088859F8189238F3FB1F5F5
:1041900016E0809172029091410289131DC06796CA
:1041A000E3E00C942D372095272393CF809582232D
:1041B00074C096E0929FD001939FB00D1124AE5B26
:1041C000BD4FFE01319601900D929A95E1F78093D3
:1041D00041020E94080DDCCF819FC00111248E5B3B
:1041E0009D4F0E9480298823D1F28091720290E035
:1041F00001968770992780937202CBCF209141025C
:1042000030E0C901019687709927409172024817E2
:10421000190679F60E94F91A109241021092720260
:1042200086E0EBE3F2E0DF011D928A95E9F7B0CF7B
:1042300010921A0210923A02109219021092180269
:1042400086CF82E00E94B01A65CF5A3008F411CFB1
:1042500084E0850F823008F03DCFE42FF0E0242F7A
:10426000277081E090E001C0880F2A95EAF7DF010E
:1042700093E0B695A7959A95E1F7A45FBD4F2C9171
:1042800030913A02611102C0322F3823332309F4EE
:104290008DCFE55DFD4F4491822B8C931BCFAAE01F
:1042A000B0E0E5E5F1E20C941037182F062F6623F5
:1042B00099F10E949E171E832DEF2F8321E02887FE
:1042C00081609A8789874E815F81688579858A8533
:1042D0000E9422208FE39FE10197F1F700C00000C8
:1042E0000023F9F00E949E1719832DEF2A831B8269
:1042F00081609D838C8349815A816B817C818D8112
:104300000E9422208FE39FE10197F1F700C0000097
:104310002A96E4E00C942C370E949E171E832CEF03
:10432000CCCF0E949E1719832CEFE0CFA1E0B0E024
:10433000ECE9F1E20C940B37EE24E394F12C04EC5D
:1043400012E09E012F5F3F4F44EB52E064E083E0B8
:104350000E94B515C82E882339F100E080E01DC009
:10436000D090F102D00E2D2D30E0A9014E5F5C4FB0
:104370007A01E1E0F0E0EC0FFD1FE00FF11D10818C
:10438000FA019081191BB12E1B149CF0912F17FD7F
:1043900090E0191B111118C00F5F9091F0020917DE
:1043A000F8F281110E94EC0C8C2D2196E9E00C941E
:1043B0002737BA94F70180818F5F808360E08D2D6D
:1043C0000E944F218C2DE0CF1F5FF701808181502B
:1043D000808361E08D2D0E944F218C2DDBCFA5E0E5
:1043E000B0E0E5EFF1E20C9410378C0190932704D4
:1043F00080932604011580E21807C0F4802F0E94E4
:10440000581EC8010E94B00D9801205E3109283065
:10441000310518F00115110531F40E94471E25964B
:10442000E4E00C942C370E94321EF9CF80EF898390
:104430008A831B820E949E178160782F9D838C83C4
:1044400049815A816B818D810E942220E8CFA5E0AD
:10445000B0E0EDE2F2E20C9410378C019093270467
:1044600080932604011580E21807C0F4C8010E9459
:10447000B00D9801205E31092830310518F0011582
:10448000110549F40E944E1E802F0E94851E25961C
:10449000E4E00C942C370E943D1EF6CF80EF898318
:1044A0008A8381E08B830E949E178160782F9D8391
:1044B0008C8349815A816B818D810E942220E7CFB4
:1044C000A5E0B0E0E6E6F2E20C9408376C01FC01EE
:1044D00083819481892B31F08081918189238F3F61
:1044E00009F004C62596ECE00C9424370E94A4122F
:1044F000182F682F89819A810E94830D69817A81A2
:10450000812F0E947A128C01F6018281882309F49E
:10451000E2C5980122513F452031310508F0B4C56C
:104520008FEF93E00E9499378111ABC0025157E79A
:10453000A52E52E0B52E011133C019821A821B82BA
:104540001C82EE24EA9445013FEF831A930AC501C9
:104550000E94993789831A82882309F492C0813096
:1045600009F084C085010E5F1F4FC4010E94993776
:10457000F82E8A83882309F484C0C8010E949937E1
:10458000982E8FEF8F0D8330D0F40F5F1F4F9B82DB
:10459000992021F0CE0101960E946A1F5801D3CFC5
:1045A000A114F4E0BF0609F46CC0C5010E9499375C
:1045B000811101C001502FEFA21AB20ABCCF8BEFBC
:1045C0008F0D833070F5C50103969B828C01992075
:1045D00029F385010C5F1F4F0E9499378C83882334
:1045E000E9F2AB80BC8041E0A4164FEFB40610F0B6
:1045F000BA2CAA2456E0F51681F087E0F81649F0A7
:10460000C5010E942722EFE3FCE93197F1F700C0D2
:104610000000C5010E94EF21C1CFC5010E942722E1
:10462000BDCFF4E0FF12BACF85010C5F1F4FC5016B
:1046300003960E949937992021F1882311F1815026
:10464000990BE89E9001E99E300D1124492D4150AF
:10465000550BCA01820F931F019708F49FCFEFE912
:10466000FFE03197F1F700C00000F6CFCE010196D0
:104670000E946A1F840192CF81E00E94E81A0E9482
:10468000971A80917502877009F42CCFF601828108
:10469000882309F427CF8091470682FF23CF82E049
:1046A0000E94B01A1FCF81E00E94A31AE8CF82E0D7
:1046B000E4CF053FECE51E0709F461C008F45BC0D8
:1046C000063F2CE5120709F45EC0882309F41FC5D4
:1046D00010927C0603303DE5130708F05BC00A3FEB
:1046E0004CE5140730F4C80182509C45449708F00B
:1046F0005BC00E94191390934706809346060131D0
:104700009CE5190709F42DC108F0A7C00930FCE5A4
:104710001F0709F414C108F072C005303CE5130707
:1047200009F405C108F057C003305CE5150709F42A
:10473000F4C008F0F8C080914606816002309CE524
:10474000190709F4EDC0609146061091470684E010
:1047500090E00E94AD37612F82E290E00E94AD3779
:104760000E94F91A8ECF27E245EE65EEB0C426E22C
:1047700041EE60EEACC427E245EE64EEA8C426E24A
:1047800041EE62EEA4C427E245EE66EEA0C428E244
:1047900041E0EBCF01365DE5150709F4AACF053AF4
:1047A0008DE5180709F4A5CF0631ECE51E0709F0E1
:1047B00034C5809197028A7A91E009F490E0909351
:1047C000160269E2811165E38CEE91E00E94DB093B
:1047D0000E941F1A56CF8091460680620730ECE592
:1047E0001E0709F49DC08091460680610830FCE5F3
:1047F0001F0708F495C080914606806491C080919F
:1048000046068B7F0D302CE5120709F489C0A0F411
:10481000809146068E7F0B304CE5140709F480C06A
:10482000809146068C600C305CE5150708F478C072
:10483000809146068D7F74C00F308CE5180709F40F
:104840008CC080914606877F00319CE5190708F4EB
:1048500067C0809146068F7D63C00D3FECE51E0763
:1048600009F477C058F505312CE5120709F483C027
:1048700098F480914606837F03314CE5140709F4D0
:104880004FC008F472C00E94F91A90914606892F11
:1048900097FB87F9805844C00B3F8CE5180709F453
:1048A0004AC008F052C08091470681600A3FECE59B
:1048B0001E0709F048CF8093470645CF0130FDE53C
:1048C0001F0709F464C0C0F4809147068C7F0F3F36
:1048D0003CE5130781F380914706836001154DE5A0
:1048E000140748F380914706982F909591708E7F1A
:1048F000892B90FB81F9DFCF01365DE5150709F4BF
:104900004CC0053A8DE5180709F44EC002309DE50C
:10491000190709F018CF60E03BC08091460682601D
:104920008093460610CF809146068460F9CF80912F
:1049300046068860F5CF809147068260BCCF0E9412
:10494000F91A809146068068EBCF809147068E7FEA
:10495000B2CF809147068D7FAECF809146068F7E85
:10496000DFCF809146068F7BDBCF0E94F91A8091C2
:1049700046068F77D5CF8091460682FB992790F91E
:1049800021E0922790FB82F990FB83F9C9CF61E087
:104990008EE090E00E94AD37D6CE90914606892FEA
:1049A0008F7E94FF8061BCCF90914606892F8E7FC9
:1049B00090FF8160B5CF8091160269E2811165E3B5
:1049C0008CEE91E00E94B10903CF816080937D0657
:1049D00061E086950E94D01754CE40E158E16AE12B
:1049E00078E10E94520A4DCE4AE158E160E178E157
:1049F000F8CF49ED53E163EE73E1F3CF43EE53E1BA
:104A000069ED73E1EECF4FEB53E16CEC73E1E9CF6D
:104A10004CEC53E16FEB73E1E4CF42EB53E165EA19
:104A200073E1DFCF4FEF53E16DEE73E1DACF0E9418
:104A3000F91A4FEF54E38CE0415050408040E1F7C9
:104A400000C000000E94C20E8091470682FB8827AA
:104A500080F991E089270E94CC1AF60182810081B9
:104A60001181882309F44BC0C8010E94A412F82EBA
:104A7000682FC8010E94830DB8018F2D0E947A1201
:104A80000E94670BF82E092FA82EF6011281B5801F
:104A9000B2943FE0B322809175028770E9F0912EC5
:104AA0001123D9F0892F807F803449F090E29F0D47
:104AB000983090F0803619F4F6EFFF1669F0809187
:104AC000470682FF09C082E00E94B01A80917502F9
:104AD0008770992493948111912C802E82942FE0D9
:104AE00082222BE0281508F479C0E82DF0E0E3518C
:104AF000F84C0C94593781E0AECF80E0ACCFC801C0
:104B00000E94390DF82EB8CF302F3F70E32E802F42
:104B1000807F19F0E29490EFE9221123B9F0EE20A2
:104B200069F080E28F0D883010F0A11009C08091EB
:104B30009702E82AE09297020E941F1A8F2D4CC01C
:104B400080919602E82AE0929602F6CF8F2D0E947D
:104B5000581EEE2009F442C080E28F0D883010F01C
:104B6000A11004C08E2D0E94FA0C06C0E094809122
:104B70009602E822E09296020E941F1A2FC0402F50
:104B80004F70E42E802F807F803219F0E29480EF06
:104B9000E822AA2089F051E0A51609F4A2C0112349
:104BA00009F4ABC0BB2009F47AC0F601858180FF0F
:104BB000C5CF8F70858373C08091470682FD45C045
:104BC0001123E9F1EE2039F080919702E82AE09272
:104BD00097020E941F1A80E00E94851E282D2850EF
:104BE000330B2430310510F40E941C10112371F096
:104BF000007F003619F436EFA31641F080911A02B7
:104C0000823009F035C283E080931A02992009F4BA
:104C100069CC8091750280FD65CCF6011282859584
:104C2000859585950E94E81AC6010E9460228091B0
:104C300075028595859585950E94A31A53CC80E0D1
:104C40000E94581EEE2051F28DCF112351F1B11068
:104C500006C080919A028E290E944E1EBFCF91E01D
:104C6000B91211C082FFBACF80919A02E82AE816E1
:104C700009F4B4CF0E949E179093990280939802F2
:104C8000E0929A02ABCFE5E0BE12E3CF0E94EF0CB8
:104C9000909117028E2D892B8913809317028E2DE8
:104CA000DBCFB11003C00E94EF0C12C0F1E0BF12C5
:104CB00013C0809197028E2109F490CF0E94EF0CCF
:104CC000909117028E2D8095892389138093170266
:104CD0008E2D0E94471E82CF25E0B21609F47ECFAA
:104CE000E2CF112329F035E03B1508F477CFD7CF79
:104CF00044E04B1508F472CFEBCFBB2049F3F9E346
:104D0000AF1223C12FEF37EE43E021503040404037
:104D1000E1F700C000008F2D0E94581E5FCF802F4A
:104D200086958695837069F0813009F057CF8F2D75
:104D3000902F9370111102C090E080E00E94100A41
:104D40004DCF8F2D902F9370111102C090E080E015
:104D50000E94260A43CF802F837091F511113ECF18
:104D60004F2D429546954770440F440F8F2D8F70FD
:104D7000042E01C0880F0A94EAF72F2D2071F4FE4B
:104D800007C02FE030E001C0220F4A95EAF72095D6
:104D9000302F369536953370323069F050F44091AB
:104DA0009B02313029F0822B84230E94F41A16CF03
:104DB000842B822BFACF282B80919B028227F5CF60
:104DC0008695112311F0802F8170882309F406CF76
:104DD0004F2D429546954770440F440F8F2D8F708D
:104DE000042E01C0880F0A94EAF72F2D2071F4FEDB
:104DF00007C02FE030E001C0220F4A95EAF7209566
:104E0000302F369536953370323069F050F440913A
:104E10008206313029F0822B84230E94921ADECE42
:104E2000842B822BFACF282B809182068227F5CF04
:104E3000902F9F70E92E112329F0892F0E94E81AE4
:104E40008F2D0ACF8F2D0E94471E8E2D0E94A31AF0
:104E5000C5CE8F2DE2EFAE16B1F1EA1570F0F0EF8E
:104E6000AF16D1F021EFA21691F0112309F468C01A
:104E7000B11064CE802F8F712AC033EFA31651F189
:104E800044EFA412F2CF8091470682FD2FC0802FFD
:104E90008F711123D9F21BC0112381F054E05B15EF
:104EA00008F49CCE202F2F7181E090E001C0880F84
:104EB0002A95EAF7909182068927AFCF85E08B1576
:104EC00008F48CCEEFCF802F8F711111BFCF0E94CD
:104ED000E81A84CE80E0112309F49FCF81E0902F5F
:104EE0009F7101C0880F9A95EAF797CF1123D9F0E7
:104EF000809175028770843041F40E94010D802FEB
:104F00008F710E94A31A912C69CE94E09B15D8F35F
:104F1000E02FEF71FE2E8E2F0E94E81A63E08F2D96
:104F20000E940B20F0CFF4E0FB1530F40E94010D3D
:104F300064E0802F8F71F4CF81E00E94B01AE3CF3C
:104F4000BB2041F0893309F4DDCE8FE39CE9019762
:104F5000F1F7DFCE802F8F7179CFE0E1EF0DE730F1
:104F600008F05BC0F0E0E750F84C0C94593711237F
:104F700009F434CE80913A0291E0892705C010935C
:104F80003A022CCE81E0812780933A0227CE81E03D
:104F90001123D1F323CE111121CE10923A021ECE4D
:104FA0001123C1F082E080931A0281E080933A02DB
:104FB0000E949E1790931902809318022091730209
:104FC00030917402232B09F409CE909374028093DC
:104FD000730204CE80911A02823021F481E0809322
:104FE0001A02FCCD833009F0F9CD10921A0210920A
:104FF0003A021092190210921802F0CD112341F0DA
:1050000080913902882309F4B5CF10923902E6CD98
:1050100094E09B1508F4E2CDADCF80913902BB201E
:10502000D9F0882341F080913A0291E0892780935A
:105030003A0210923902111181CDEFE3FCE9319768
:10504000F1F700C000008F2D0E94581E86E0F60187
:1050500011928A95E9F7C2CD882309F4BFCD1111C9
:10506000BDCD80913A0291E0892780933A02CDCF5D
:10507000813009F0CBCD10921A0210923A021092B0
:10508000190210921802C2CD0031FFE51F0709F482
:10509000F3CA01312FE5120709F409CB033F2CE5D0
:1050A000120709F464CB08F004CB083D4CE5140763
:1050B00009F459CB093D5CE5150709F468CB073DB8
:1050C0009CE5190709F001CB26E241EE61EEC6012D
:1050D0000E940D1FD6CA00313FE5130709F4E3CA49
:1050E00001314FE51407D1F682E0DECA85E0DE012A
:1050F000119601900D928A95E1F7F601228189813E
:105100009A812111F3C90E94390D182FF7C9063170
:10511000FCE51F0709F44FCC8091970282720A3C8C
:105120002CE5120709F479CC08F04CC0053C4CE59D
:10513000140709F45ECC80F5033C9CE5190709F4DB
:105140004CCC08F051CC023CFCE51F0709F085CCA3
:1051500080917D0680FF39CC8E7F80937D066091A3
:105160007D0670917E0680917F06909180060E9458
:1051700027130E94580A809145038160809345035C
:10518000FFEF20E732E0F15020403040E1F700C06F
:1051900000000E94E60E75CA073C2CE5120709F4D0
:1051A00032CC08F42BCC083C4CE5140709F430CC85
:1051B000093C5CE5150709F050CC45EA53E162EB88
:1051C00073E10FCC003D9CE51907B0F40E3CECE513
:1051D0001E0708F056CA0C3CFCE51F0709F422CC58
:1051E0004DEE53E16FEF73E10D3C2CE5120708F42F
:1051F000F8CB61E081E0EECB063D3CE5130740F4DF
:10520000013D4CE5140708F03CCA0E94251839CA34
:105210000D35100709F435CA20CC0A358DE518077D
:1052200009F469CC68F40115ECE51E0709F4FFCB1D
:105230000E3D1C4509F011CC0E942A140E941C1E30
:105240000C352DE5120709F4FFCB08F456CC073ACC
:105250001D45A1F302CC1F93CF93DF9380914002B1
:10526000807F09F049C080913D02882309F444C041
:1052700080917202D091410260913B0270913C0298
:10528000A0913E02B0913F02C62FC72316E0D81767
:1052900099F190E0109711F0CF3F19F401968770C3
:1052A000F6CF189F9001199F300D1124F901EE5B84
:1052B000FD4F41814713F2CF40814613EFCF42812A
:1052C0004111ECCF438154814A1B5B0B483C510593
:1052D00028F7809140028F70806180934002F9012D
:1052E000E95BFD4F80818F70806180838BE392E06A
:1052F0000E9460220E94080DDF91CF911F910895B6
:10530000A1E1B0E0E6E8F9E20C940A378C0185E00F
:10531000F801DE011D9601900D928A95E1F7F801E2
:10532000E2808BE3A82E82E0B82E60913E0270915D
:105330003F026115710509F426C190913B0240912D
:105340003C02892F84238F3F09F41DC120813181C4
:10535000C380D480F0903D02F601E61BF70BFF20DE
:1053600009F4DCC080914002582F507FE83CF105E1
:1053700008F09FC051116BC0FE2C431314C0921350
:1053800012C0E11010C08F70806180934002C5018F
:105390000E94602280914002F80185838F2D6196E2
:1053A000EAE00C942637C114D10429F0822F83231C
:1053B0008F3F09F011C180E0F82FF170DF2E80FFE0
:1053C0003CC0809172024091410256E0841315C0A6
:1053D0002D873E878D859E850E94D312292F229589
:1053E0002F702230F0F0243018F59F70F1F0F801A2
:1053F0009581907FD1F4D12C1EC090E0589FF00190
:10540000599FF00D1124EE5BFD4F6181361306C0EC
:105410006081261303C06281E6120FC00196877077
:10542000D5CF9F7011F0882331F3805E883018F358
:10543000C8010E946022FD2CB1CFEE2009F4AECF4E
:1054400080914002816080934002F12CA7CF4313EA
:1054500006C0921304C0F801EE2009F479C0C80117
:105460000E94E012882309F1EE20F9F080914002B9
:10547000803270F020913B0230913C0238872F83BC
:105480001986DB86CA868C87CE0107960E94602229
:1054900086E0F801ABE3B2E001900D928A95E1F766
:1054A0000E942B29FF24F39479CFC8010E94602227
:1054B000F9CF51110AC08BE392E00E94602286E08E
:1054C000F50111928A95E9F7C0CF43130FC09213EB
:1054D0000DC0E1100BC0F8018583C8010E94602255
:1054E00086E0F50111928A95E9F758CFC8010E942C
:1054F000E0128823D1F2EE20C1F280914002803286
:1055000038F220913B0230913C023A8329831B827E
:10551000DD82CC828E83CE010196B8CFE83CF105C6
:10552000F8F6FE2CEE2009F243131FC092131DC0A3
:105530008091400280FD10C0982F907F69F0F801A3
:105540008583903F31F0982F907F905F8F70892BEB
:105550008583C8010E94602286E0F801ABE3B2E0D7
:1055600001900D928A95E1F719CFC8010E94E012CF
:1055700081118ECF80914002816080934002C801EA
:105580000E9460220BCFEE2009F48FCFC8010E9449
:10559000E012F82E882309F488CF86E0F801ABE307
:1055A000B2E001900D928A95E1F780913B029091D3
:1055B0003C020E94D31292959F70963051F4863F20
:1055C00041F080913A0291E0892780933A029093CA
:1055D00039020E942B29E2CE81E08E25EDCE1F926A
:1055E0001FB61F9211248F939F93AF93BF93809107
:1055F0004106811113C08091420690914306A0910B
:105600004406B09145064196A11DB11D8093420606
:1056100090934306A0934406B0934506BF91AF9183
:105620009F918F911F901FBE1F901895CDB7DEB729
:10563000E7970FB6F894DEBF0FBECDBF85B7806881
:1056400085BF85B7806885BF84B7877F84BF0FB665
:10565000F894A89580916000886180936000109212
:1056600060000FBE80E890E00FB6F8948093610070
:10567000909361000FBE8BE09BE09093EB018093D1
:10568000EA010E94F3070E94E6088091E20084602C
:105690008093E2007894809179068823A1F010919C
:1056A000E9001F709091EC00892F817090FD80E8D7
:1056B000182B1092E9008091E80083FD0E940F1BD7
:1056C0001F701093E90082E084BD93E095BD9AEFCE
:1056D00097BD80936E001092DF021092E00210924C
:1056E000E1021092E2020E940013811102C00E94A6
:1056F00002120E94F90F80934C0180914C01882383
:1057000009F495C01092650185E2809366010E94BC
:10571000F90F81110E948C3580914C0181112CC0B0
:1057200085E0EBE6F1E0DE01919601900D928A951D
:10573000E1F789A1809347018AA1809348018BA159
:10574000809349018CA180934A018DA180934B01E4
:1057500087E0E0E7F1E0DE01119601900D928A9575
:10576000E1F7FE013196A0E4B1E0CE010896219167
:105770002D938E179F07D9F780914C0195E08111E9
:1057800090E09093EE0285E0891B8093ED0207E4A0
:1057900011E0D8018D918D018F3F11F00E940D0B0A
:1057A000B1E00C341B07A9F700E411E0F801819186
:1057B0008F018F3F11F00E940D0BF1E007341F079E
:1057C000A9F78AE0E3E3F3E0DF01282F1D922A9591
:1057D000E9F7E3EEF2E0DF011D928A95E9F70E9416
:1057E0008616811102C00E942A1482E090E00E9475
:1057F00099378093F4020E9419139093470680937F
:1058000046060E943618EFE3FCE93197F1F700C035
:1058100000000E9436188091330380FF0CC06FEFA8
:105820007FEF90E080E00E94CB370E94C20E85E2BD
:10583000809365016ACF83E090E00E9499370E94CF
:10584000F41A0E94F90F882309F4E5C083E08093DD
:105850002A0380FDE2C080E880932A040E9443343A
:105860006DE070E08CEC92E00E94E10D892BE9F58F
:1058700080912A0363E070E081FDD1C089EC92E061
:105880000E94E10D892B89F56DE070E089EB92E0D3
:105890000E94E10D892B49F50E94A5096058774CBB
:1058A0008E4F9F4F60933506709336068093370670
:1058B00090933806EDE2F4E080E092E0DF019C0195
:1058C0001D9221503040E1F7F0933406E093330607
:1058D0008FEF9FEF90932C0480932B0481E08093B3
:1058E0003A068093390610922B038091EF028111C2
:1058F00038C00E948616811104C00E942A140E949A
:10590000111488E090E00E94A13760937D067093A7
:105910007E0680937F069093800680914503836086
:10592000809345036E7F71F40E94111488E090E02B
:105930000E94A13760937D0670937E0680937F0658
:10594000909380060E945F0A0E94580A80917D060B
:1059500080FF04C060E086950E94D01781E08093AC
:10596000EF0290914C0181E0982790930603382F25
:10597000391B3093F10290914C0180930703909171
:105980004C018093F00280914C01811106C084EF9C
:1059900080935C0185EF80935B0182E080935A01E4
:1059A00020915C01E22FE295EF70F0E061A12F7091
:1059B00081E090E0AC0101C0440F2A95EAF7342F52
:1059C0003095362331A322A1242B22A320915B0101
:1059D000E22FE295EF70F0E031A12F7001C0880F47
:1059E0002A95EAF7982F9095932391A392A1892B5A
:1059F00082A3EFE8F1E03197F1F700C000001091C9
:105A0000070368E073E04CE551E08BE5E82E81E0A8
:105A1000F82EFB012FC080E01ACF80E21DCF86EC6C
:105A200092E02ECFDA012D91AD01822F82958F70F9
:105A300090E0DC0190968C9190E02F7002C09595DB
:105A400087952A95E2F78170D7019D917D01292FD5
:105A500022952F7030E0D90190962C9130E09F7004
:105A600002C0359527959A95E2F790E020FD92E0E7
:105A7000892B81938E2F861B8117A0F20E94F90F2C
:105A8000811102C00E948F358DE491E090933E0613
:105A900080933D0683E393E0BAE0B80FBDAB2224C8
:105AA0002394312C80917906853001F520E4F22E83
:105AB000EE24E39400E112E180917906853009F447
:105AC000C3C00E94F91A0E941C101092F302809128
:105AD000F202882349F080917D06816080937D06E3
