:100000000C94B9070C94F1070C94F1070C9448393F
:100010000C94F1070C94F1070C94F1070C94F10780
:100020000C94F1070C94F1070C940F170C94BA1E62
:100030000C94C72D0C94F1070C94F1070C94F10764
:100040000C94F1070C94F1070C94F1070C94F10750
:100050000C94F1070C94E8170C94F1070C94F10739
:100060000C94F1070C94F1070C94F1070C94F10730
:100070000C94F1070C94F1070C94F1070C94F10720
:100080000C94F1070C94F1070C94F1070C94F10710
:100090000C94F1070C94F1070C94F1070C94F10700
:1000A0000C94F1070C94F1070C94F10705010980F9
:1000B000A101850319012AB700150126B700950192
:1000C00075108100C0050C0901A101850419012AE0
:1000D000A002150126A002950175108100C005013E
:1000E0000906A1018506050719E029E71500250184
:1000F0009508750181020507190029EF15002501F2
:1001000095F075018102050819012905950575010C
:100110009102950175039101C00660FF0961A1017B
:100120000962150026FF00952075088102096315F4
:100130000026FF00952075089102C005010906A15F
:1001400001050719E029E7150025019508750181CA
:10015000029501750881010507190029FF15002680
:10016000FF00950675088100050819012905950508
:1001700075019102950175039101C0000000000016
:10018000000000000000000000000000000000006F
:100190000000000000000000000000000000007EE1
:1001A0000F00D4FFFFFFC700000078000000000030
:1001B0000000002A2B2800000000000000000000C2
:1001C00000000000000029000000002C1E34202147
:1001D0002224342627252E362D3738271E1F20218E
:1001E00022232425263333362E37381F04050607ED
:1001F00008090A0B0C0D0E0F101112131415161707
:1002000018191A1B1C1D2F3130232D350405060724
:1002100008090A0B0C0D0E0F1011121314151617E6
:1002200018191A1B1C1D2F3130354C010000050117
:100230000502050305040505050000000601060288
:10024000060306040605060000000701070207036F
:100250000704070507000000080108020803080456
:10026000080508000000090109020903090409053D
:100270000900000000010002000300040005000066
:100280000000010101020103010401050100000059
:10029000020102020203020402050200000003013F
:1002A0000302030303040305030000000401040226
:1002B00004030404040504000000DA02815AD9F1A1
:1002C000DB20A4A62EAF00A0C000A1C800AED58040
:1002D000A81FD300408D1420006432144350534CA7
:1002E0004B000A0A00556E646566004C6F776572B4
:1002F00000526169736500426173650A004C41599F
:100300004552000A0A004D6F640A00436C6D6B0091
:1003100051777274000A0A008081828384858687FF
:1003200088898A8B8C8D8E8F9091929394A0A1A2B4
:10033000A3A4A5A6A7A8A9AAABACADAEAFB0B1B215
:10034000B3B4C0C1C2C3C4C5C6C7C8C9CACBCCCD6B
:10035000CECFD0D1D2D3D400FD377A585A00000482
:10036000E6D6B4460200210116000000742FE5A372
:10037000E008E2024C5D003D8889C65436C3174F41
:10038000E4E62B87DC61F128B5AEA0A33C3CF45F2A
:100390007424B52C3D20C7689B3A8E08CE16E28F98
:1003A000DD74FFA04F08D43D201DD0558F11BBB187
:1003B0003287318A341491884A492E35E0342D0C25
:1003C000400E9A3CEAF71ADE8FB7A230CF5983F27B
:1003D00023EF20330CC056779F9CED4D7DAF3FD669
:1003E000C289956075A12F2E891DDC43DF675F816F
:1003F000D38DC5C3D81411649D6290F38B2C365DE8
:100400000B6F74C04E46B3DED00F56EE8AE2DAB7F9
:10041000FB9EFD0D52C588DC45FF874E8E61CF38AF
:10042000B24884655A4D7476CD19495E5DD5F1A404
:10043000BAB0B017AFD23C9471A8793419EDC73671
:100440007C4DB86CFF0F9FC4D682F61E028C6E04E2
:100450000164DC13F769236B5C1B173425A3AACC5A
:10046000B1CE1B6458512974EBCF67BC05AF68014E
:10047000AB1F9DBAF8424C73DA53FA234F3ED1FCBE
:10048000DE9F32459070FE604F3037942A16C7A821
:100490009A52BA8BD32488E60234B33230E25B023C
:1004A000F96739FB000ED8394232BA69E6C7B6B4EB
:1004B000B1109460026B794FB8BDC9E9DA58763251
:1004C000299FB653855DFDDEF3B603CD39B7DC4D0C
:1004D000A942249A5411D726B6B55B33ADEBADF5DE
:1004E000D7D48445A32FAECFE7FD52418C7535D1CB
:1004F000ED6688C5C3B66ED8A73473063DC8E06EF6
:10050000BAE463C7C59C31D05BE096CC2FBE1F53C5
:10051000F74A885C950AFE0A7AB34C3248230B5797
:10052000D3C22EFF6C14DF96681887B11377178833
:10053000D21F2EF65EF6EA81BD9E780C99ADFBAE19
:100540008ACB3F227CC2541095BA3303810447A85A
:10055000821B9EBE3EE2CEBBBFD790D6CCA1CDDEE5
:1005600015224B703556F3C0AEF2CA6FB306516C0C
:10057000763356767F419828CEB0EB9E5CBB68AC54
:100580009CF7C21DFD6BEB2C49B7166F54BB28526C
:10059000D4BC222279F621D7640A4DFF6E6B661116
:1005A00040C16B4059A09581608C237F04137E97D6
:1005B00070EC23369BC1F35CD589B57D7896442DCC
:1005C00057F1A400522FF7134D662E810001E80465
:1005D000E311000063CCEC15B1C467FB020000001E
:1005E0000004595A00010101010101010101020247
:1005F00002020202020202030303030303030304D1
:10060000040404040404050505050506060606069B
:10061000070707070708080808090909090A0A0A55
:100620000B0B0B0C0C0C0D0D0D0E0E0E0F0F0F10F7
:100630001011111112121313141415151616171781
:10064000181819191A1A1B1B1C1D1D1E1E1F2020ED
:10065000212222232424252626272829292A2B2C37
:100660002D2D2E2F30313232333435363738393A5A
:100670003B3C3D3E3F404142434445464748494A52
:100680004C4D4E4F50515354555658595A5B5D5E20
:100690005F616264656668696B6C6D6F70727375BB
:1006A00077787A7B7D7E8082838587888A8C8E8F1F
:1006B00091939596989A9C9EA0A2A3A5A7A9ABAD4D
:1006C000AFB1B3B5B7BABCBEC0C2C4C6C9CBCDCF3B
:1006D000D1D4D6D8DBDDDFE2E4E7E9EBEEF0F3F5E9
:1006E000F8FAFDFF1C1004010D190A242322212011
:1006F0001F1E1D1B1A18171615141312110F0E0C9E
:100700000B09080706050302002D3945483C303F18
:1007100025262728292A2B2C2E2F31323334353603
:1007200037383A3B3D3E4041424344464749010049
:1007300001000100010001000100010001000100B1
:10074000010001000100010001000100010035006D
:100750001E001F00200021002200000029001400BC
:100760001A0008001500170000002B0004001600F6
:10077000070009000A000000E1001D001B00060040
:10078000190005000000A800E300E200E0000251AB
:100790002800000035002700260025002400230043
:1007A00000002A00130012000C0018001C000000BA
:1007B000340033000F000E000D000B000000E500B8
:1007C000380037003600100011000000E700E60096
:1007D000E40003512C000000000035001E001F0043
:1007E0002000210022000000290014001A00090046
:1007F00013000A0000002B0004001500160017006B
:1008000007000000E1001D001B00060019000500A4
:100810000000A800E300E200E00001002800000062
:1008200035002700260025002400230000002A00B0
:1008300033001C0018000F000D00000034001200EF
:100840000C00080011000B000000E5003800370024
:10085000360010000E000000E700E600E400010092
:100860002C000000000001003A003B003C003D006D
:100870003E00000035001E001F0020002100220065
:10088000000001001E021F022002210222020000BD
:1008900001002E002D002E022F0230020000010068
:1008A00001000100010001000100000044004300BC
:1008B0004200410040003F000000450027002600A4
:1008C0002500240023000000310227022602250211
:1008D0002402230200000100310033023300300003
:1008E0002F000000010001000100010001000100D3
:1008F00000000100010001000100010001000000F2
:1009000001004900460065000000000000000100F1
:10091000E200E000E10000003900000001007A0080
:100920007B007C007D000000000001000100010050
:1009300001000100010000000100010001000100B0
:100940000100010000002A00010001005200010026
:100950004B0000002A004C004F00510050004E0098
:100960000000010000000100000001000000000084
:100970000100010001000100010001000000070862
:100980007F0807003E5B4F5B3E003E6B4F6B3E00B7
:100990001C3E7C3E1C00183C7E3C18001C577D57BA
:1009A0001C001C5E7F5E1C0000183C180000FFE766
:1009B000C3E7FF00001824180000FFE7DBE7FF0093
:1009C00030483A060E00262979292600407F050581
:1009D0000700407F05253F005A3CE73C5A007F3E18
:1009E0001C1C0800081C1C3E7F0014227F221400DF
:1009F0005F5F005F5F0006097F017F0000668995E9
:100A00006A0060606060600094A2FFA29400080425
:100A10007E04080010207E20100008082A1C080010
:100A2000081C2A0808001E10101010000C1E0C1EB6
:100A30000C0030383E383000060E3E0E0600000036
:100A40000000000000005F00000000070007000039
:100A5000147F147F1400242A7F2A120023130864B1
:100A60006200364956205000000807030000001CB1
:100A7000224100000041221C00002A1C7F1C2A0089
:100A800008083E08080000807030000008080808C8
:100A900008000000606000002010080402003E51C1
:100AA00049453E0000427F400000724949494600E6
:100AB0002141494D33001814127F10002745454548
:100AC00039003C4A494931004121110907003649A2
:100AD00049493600464949291E000000140000001B
:100AE00000403400000000081422410014141414C3
:100AF00014000041221408000201590906003E4179
:100B00005D594E007C1211127C007F494949360024
:100B10003E41414122007F4141413E007F494949D8
:100B200041007F09090901003E41415173007F08DE
:100B300008087F0000417F4100002040413F010044
:100B40007F08142241007F40404040007F021C0289
:100B50007F007F0408107F003E4141413E007F0935
:100B6000090906003E4151215E007F09192946000E
:100B700026494949320003017F0103003F404040BC
:100B80003F001F2040201F003F4038403F006314BB
:100B9000081463000304780403006159494D4300BD
:100BA000007F414141000204081020000041414102
:100BB0007F00040201020400404040404000000366
:100BC000070800002054547840007F28444438002F
:100BD000384444442800384444287F00385454544E
:100BE000180000087E09020018A4A49C78007F0861
:100BF0000404780000447D4000002040403D000097
:100C00007F102844000000417F4000007C047804ED
:100C100078007C0804047800384444443800FC1808
:100C20002424180018242418FC007C08040408005C
:100C300048545454240004043F4424003C404020C1
:100C40007C001C2040201C003C4030403C004428DC
:100C5000102844004C9090907C004464544C440014
:100C6000000836410000000077000000004136080F
:100C700000000201020402003C2623263C00000082
:100C800000000000404040F0F8F8FF38FFF8F83F5F
:100C9000F8F8FF38FFF8F8F040404000000000008E
:100CA0000080C0C0C0800000C0C08000000080C0C4
:100CB000C000C0C0000080C0C00000000000C0C074
:100CC000C0C0C000C0C00000000000000000000064
:100CD0000000000000000000000000000000000014
:100CE0000000000000000000000000000000000004
:100CF00000000000000000000000000000C0F0F84C
:100D0000FC3E1E06010000007F4141417F007F4103
:100D100041417F000080C0E07E5B4F5BFEC0000071
:100D2000C000DCD7DEDEDED7DC00C0000000000043
:100D300000000000000000000000000000000000B3
:100D400000000000494949FFFFFFFFE0DFBFBF008F
:100D5000BFBFDFE0FFFFFFFF49494900000000007F
:100D60001F3F6060E0BF1F007F7F071E381E077FA8
:100D70007F007F7F0E1F3B716000000000007F7FBF
:100D80000C0C0C007E7E007F7E0303007F7E03033D
:100D90007E7E03037F7E000F3E703C063C703E0F5C
:100DA00000327B49493F7E007F7E0303001E3F697E
:100DB000696F2600000000000000000000030F1F04
:100DC0003F3C7870600000007F4141417F007F41DF
:100DD00041417F00307B7F7830202030787F3B009E
:100DE00003000F7F0F0F0F7F0F00030000000000B4
:100DF00000000000000000000000000000000000F3
:100E000000000000010101070F0F7F0F7F0F0F7E11
:100E10000F0F7F0F7F0F0F0701010100000000007F
:100E200000000000000101000000000000000000C0
:100E300000000000000000000000000000000000B2
:100E400000000000000000000000000000000000A2
:100E50000000000000000000000000000000000092
:100E60000000000000000000000000000000000082
:100E70000000000000000000000000000000000072
:100E80000000000000000000000000000000000062
:100E90000000000000000000000000000000000052
:100EA0000000000000000000000000000000000042
:100EB000000000000000000000000000000000AF83
:100EC00000AE09025B00030100A0FA090400000162
:100ED00003010100092111010001224000070581E1
:100EE00003080001090401000203000000092111A8
:100EF00001000122220007058203200001070503EB
:100F0000032000010904020001030000000921116F
:100F1000010001226D000705840320000112010079
:100F2000020000000832FC87120200010203011CCB
:100F3000037600690061006C003A006600360034F8
:100F4000006300320062003300630000000C0353B2
:100F5000006F0066006C006500000010034B006528
:100F6000007900680069007600650000000403094C
:100F7000040011241FBECFEFDAE0DEBFCDBF04B600
:100F800003FE18C08091490790914A07A0914B0732
:100F9000B0914C078730904BA740B04B59F410925A
:100FA000490710924A0710924B0710924C07E0E055
:100FB000F8E3099511E0A0E0B1E0E8E3F7E702C04B
:100FC00005900D92AC3EB107D9F727E0ACEEB1E049
:100FD00001C01D92A934B207E1F70E94EE2D0C94D6
:100FE0006F3B0C940000E8EDF0E080818E7F808301
:100FF0001092E2001092DA001092E100A0EEB0E050
:101000008C9181608C9380818F77808319BCA7ED50
:10101000B0E08C918E7F8C9380818F7E8083109244
:10102000110708952091E4003091E50095E6A901AB
:101030002091EC00822F817020FF06C08091E80093
:1010400080FF06C080E008952091E80022FD1AC0CC
:1010500080913F07882389F0853089F08091EB00EB
:1010600085FD0FC02091E4003091E5004217530741
:10107000F9F29150E1F684E0089582E0089583E06A
:10108000089581E00895EF92FF920F931F93CF93FD
:101090007C018B010E941208C82F811117C080911A
:1010A000E80085FD0BC08091E8008E778093E80012
:1010B0000E941208882399F3C82F08C0F701819174
:1010C0007F018093F1000150110949F78C2FCF91D6
:1010D0001F910F91FF90EF900895CF93FC018091A5
:1010E0003F07843001F5C091E900CF702091EC00FA
:1010F000922F917020FD90E8C92B82E08093E90047
:101100008091E80080FF0CC050E040E060E270E0B9
:10111000CF010E9443088091E8008E778093E80019
:10112000CF70C093E900CF9108958091370787FF72
:1011300013C08091E80082FF06C08091E8008B77A1
:101140008093E80004C080913F078111F2CF089599
:1011500080913F078823D9F38091E80080FFF8CF82
:101160008091E8008E77ECCF982F9093E900242FA0
:10117000762F50E0891731F07091EC002091ED004E
:101180005091F00021FD07C09F5F973071F7809369
:10119000E90081E008953091EB003E7F3093EB0051
:1011A0003091ED003D7F3093ED003091EB003160E8
:1011B0003093EB007093EC002093ED005093F0001F
:1011C0002091EE0027FDE0CF80E00895B0E0A0E0A0
:1011D000ECEEF8E00C94823AC8EDD0E088818F7E86
:1011E0008883E7EDF0E080818160808384E082BFC6
:1011F00081E08093110788818E7F888302EE10E062
:10120000F80110821092DA0081EEC82ED12CF6017E
:10121000108288818F77888388818068888388811D
:101220008F7D888319BC10923F0710923607109269
:1012300035071092340790EEE92EF12CF7018081EA
:101240008B7F808388818160888342E060E080E0DA
:101250000E94B408F60180818E7F8083F80180812E
:1012600081608083808188608083F70180818E7FA8
:101270008083888180618883CDB7DEB7E8E00C94F5
:101280009E3AFC0180913D0790913E078617970793
:10129000A0F06115710529F49091E8009E77909374
:1012A000E80090E06115710551F4911108C080913A
:1012B000E80082FF34C080E00895BC01F2CF809145
:1012C0003F078823C1F18530C1F18091E80083FD9B
:1012D00030C08091E80082FDEACF8091E80080FF75
:1012E000E1CF8091F3002091F200382F6115710554
:1012F00019F02830310558F091E02830310509F017
:1013000090E02091E8002E772093E800CBCF8191E8
:101310008093F100615071092F5F3F4FE7CF8091BB
:101320003F07882341F0853041F08091E80083FF3A
:10133000BECF81E0089582E0089583E00895089586
:10134000089508958091130708952FB7F894609138
:1013500008077091090780910A0790910B072FBF2A
:10136000089520916C012223C9F020910C0727FFDA
:1013700015C0E62FE695E695E695EE31D8F4E80F30
:10138000F92FF11D677021E030E001C0220F6A954E
:10139000EAF720958281282322830895FC01329662
:1013A00008962191621303C0DF0111971C92E81780
:1013B000F907B9F7089520916C012223C1F020911B
:1013C0000C0727FF14C0E62FE695E695E695EE316B
:1013D000F8F4E80FF92FF11D677021E030E001C04B
:1013E000220F6A95EAF78281822B82830895FC019D
:1013F00032962FEF30E04191641751F02F3F19F4EE
:10140000411101C0232F3F5F3630A9F72F3F09F468
:101410000895820F911D27FD9A95FC01628308951E
:1014200020910507309106072817390771F090932E
:10143000060780930507E0910307F09104073097B2
:1014400021F00084F185E02D099508952091010790
:10145000309102072817390771F0909302078093A3
:101460000107E0910307F0910407309721F006800F
:10147000F781E02D09950895FC01680F791F8FEF22
:1014800091E32191822728E030E087FF09C0880F8F
:10149000892721503109C9F7E617F70791F7089511
:1014A000880FF7CF81152CE5920741F4209136047F
:1014B00030913704232B11F490E080E00895FA0175
:1014C000811101C0FB0109950895E3E4F3E0118265
:1014D000828184608283089580914307982F9E7F44
:1014E00061F481708260809343078091460785365E
:1014F00018F084E68093460708958031B0F3817038
:101500008E60F1CFAF92BF92DF92EF92FF920F9376
:101510001F93CF93DF93082F162FE901E42FF0E0FC
:10152000EC51FA4F611110C0E4915E2F4E2F4983A8
:10153000E8835A83DF91CF911F910F91FF90EF9035
:10154000DF90BF90AF900895E62EF12C4491D42EF9
:10155000E42FF0E026E0829FC00111242FEF30E05D
:10156000B9010E94643A802F90E0880F991F55E5D9
:10157000569FD001579FB00D11248A1B9B0B982FAB
:10158000990F890F5901AE18BF08AE9ED001AF9ECA
:10159000B00DBE9EB00D11245B2F189F8001112449
:1015A000012F11275901A01AB10AAE9E8001AF9EEA
:1015B000100DBE9E100D11245901A81AB108AE9C41
:1015C000C001AF9C900DBE9C900D1124892F9927CE
:1015D000281B390B2E9FC0012F9F900D3E9F900D11
:1015E0001124E92F62307105A1F050F461157105E5
:1015F00009F49DCF6130710581F0EB2F512F97CF0A
:101600006430710569F080F06630710509F48FCFA0
:10161000F4CFE42F4B2F592F8ACFE42F412F87CFC0
:10162000EB2F542F492F83CF4B2F5D2DE12F7FCFF1
:1016300080E00895F894E82FE295EF70F0E031A192
:10164000282F2F7081E090E001C0880F2A95EAF7DB
:10165000982F9095932391A392A1892B82A378949C
:10166000089590910C0792FF06C0282F287128300A
:10167000F9F4877F846093FF06C0282F28712831F2
:10168000F1F4877E846120910D0720FF06C0382F7A
:1016900038713830D9F4877F816021FF06C0282F48
:1016A00028712831D1F4877E816194FD877E089569
:1016B000282F24712430F9F68B7F8860DCCF282F07
:1016C0002471243101F78B7E8861DDCF382F317191
:1016D000313019F78E7F8860E0CF282F21712131BA
:1016E00021F78E7E8861E1CFCF93DF93EC018238C2
:1016F0009105A9F1D8F58133910509F496C048F513
:101700008932910509F48AC08A9709F495C0C115F8
:1017100022E5D20708F0B6C0C11531E5D30708F0BD
:1017200029C1C83ED10508F09CC0C03ED10560F576
:10173000C83AD10508F087C0C53AD10508F0F2C013
:10174000C130D10509F12097F9F0C430D105E0F49A
:1017500040C08533910509F45AC0C997C1F68091FC
:101760000C07837089F0C0EED0E00EC0833E910577
:1017700099F170F4803E910501F1823E910539F6B0
:1017800080910C0782FD21C0CE01DF91CF91089599
:10179000863E910561F1873E910571F1843E910588
:1017A00009F0B5CF80910D0781FFEECF80910C0736
:1017B000C7EED0E084FD0DC0E7CF80910C0780FD1F
:1017C0000FC190910D0790FFDFCFC3EED0E084FFF3
:1017D000DBCFD0E0C0E0D8CF80910C0782FD03C101
:1017E00090910D0790FDBFCF84FFCECFF2CF8091B7
:1017F0000C0783FDDDCFC8CF80910C0783FDF6C0B9
:1018000090910D0791FFF0CFC4EED0E0BDCF809155
:101810000C0785FFB9CFC9E2D0E0B6CF80910C07A5
:1018200085FFB2CFC5E3D0E0AFCF80910C0786FF34
:10183000ABCFCAE2D0E0A8CF80910C0786FFA4CF3F
:10184000C1E3D0E0A1CFCF3BD10518F6C85AD0E014
:10185000CC0FDD1FCC57DE4F0990D881C02DD4644A
:1018600093CFC11540E5D40708F067C0C11580E4E7
:10187000D80708F05FC0CE019A9581159F4108F402
:1018800083CFA7CFC11536E5D30718F5C11545E5B8
:10189000D40708F087C0C11584E5D80708F07DC0DB
:1018A0009C2F969596959E0123703327C115D3459D
:1018B00008F465C0C1E0D0E002C0CC0FDD1F2A955E
:1018C000E2F730E2939FC0011124C82BD92BDA68CC
:1018D0005BCFC11589E5D80768F4C11598E5D9072C
:1018E00008F06BC0C11527E5D20708F072CFDD27DD
:1018F000D0664ACFC1153AE5D30708F463C0CE01DC
:1019000090568115904208F064CF8D2F8F710E9400
:10191000310B90E0982F882788279F719C012C2BF2
:10192000E90149C0C55AD0E0CF57DE4FC881D0E0A9
:10193000D0642ACFDF70D06A27CFCE01E4E096953D
:101940008795EA95E1F783702C2F269526952370CD
:1019500090E2299F90011124382B8C2F8370C1E0D5
:10196000D0E002C0CC0FDD1F8A95E2F7C22BD32B4B
:10197000DC680ACFDC2FCC27C16FD06A05CFC1E06D
:10198000D0E002C0CC0FDD1F2A95E2F720E2929F43
:10199000C0011124C82BD92BEBCFDC2FCC27C46F6F
:1019A000D06AF2CE8C2F0E94310BC82FD0E0DC2FF2
:1019B000CC27CC27DF71D062E7CEDC2FCC27C06FDD
:1019C000D06AE2CE8C2F8F700E94310B34E0D69516
:1019D000C7953A95E1F7CF709C2FEC01D069D4CE32
:1019E000C9E3D0E0D1CEC2EED0E0CECEC6EED0E09C
:1019F000CBCE0E94A509089580919A02882331F0E8
:101A000010929A021092990210929802089580956D
:101A100090914E06982390934E060895809590914C
:101A20004D06982390934D060895109277021092D8
:101A3000760210927502089580917402909143028B
:101A4000981301C008958F5F8770FACFA82FA770F1
:101A500023E0969587952A95E1F7FC01EE0FFF1F8D
:101A6000E80FF91FE60FF71F50E040E080E02191FA
:101A700030E00A2E02C0369527950A94E2F72170CD
:101A80003327042E01C0220F0A94EAF7822B4F5FFE
:101A90005F4F4330510559F70895903FC9F09A3090
:101AA00080F48730A8F4282F30E060E272E0A901CA
:101AB000E7E09E9F400D511D1124CA010E94260D92
:101AC00008959C5F923020F46DE172E090E0F6CFD3
:101AD00080E00895262F277091E001C0990F2A9584
:101AE000EAF723E0769567952A95E1F7FB01EE0F7B
:101AF000FF1FE60FF71FE40FF51F50E040E0682FCF
:101B000070E08191DF0111979B01042E02C0369590
:101B100027950A94E2F72170219528272923282761
:101B20002C934F5F5F4F4330510559F70895282F8D
:101B3000862F903F79F09A3070F4273058F4622F56
:101B400070E027E0929F600D711D112440E252E089
:101B50000E946A0D08959C5F9230E0F7622F70E05A
:101B60004DE152E0F5CF982F92959F7011F0892F9B
:101B700094E0282F2695269511F09E5F822F86955A
:101B800009F09F5F892F08959C013A9521153F41E7
:101B900050F5FC01EE27F170BC0166277270AC01B4
:101BA000442754709C012227387094FF0EC080E1B6
:101BB000EF2B09F480E0672B09F08062452B09F0D8
:101BC0008064232B89F08068089581E0EF2B09F46D
:101BD00080E0672B09F08260452B09F08460232B9D
:101BE00019F08860089580E00895B0E0A0E0EBEF80
:101BF000FDE00C94823A6C017B0164E670E088E7BA
:101C00000E94BF37EC0197FD12C010E000E0F60122
:101C1000E00FF11F849164E670E00E942D38EC0122
:101C2000892B29F40F5F1F4F0E151F0581F70E94A6
:101C3000A438CE01CDB7DEB7E8E00C949E3A80918F
:101C40004B0690914C06911103C091E089270895AD
:101C5000882369F062E070E080EC9EE00E94F50D60
:101C6000892B19F080914B06089510924B068091B4
:101C70004B06EBCFCF93C0914B0680914C06882347
:101C8000D1F00E94A5096058774C8E4F9F4F60930A
:101C90004706709348068093490690934A06C111FF
:101CA00008C062E070E08EEB9EE00E94F50D892B8B
:101CB00029F0C0914B068C2FCF91089581E080933D
:101CC0004B06F7CF80930E077093100760930F07B2
:101CD00080913F078430F9F48093E9008FEF909171
:101CE000E800815095FD06C095ED9A95F1F700004A
:101CF0008111F5CF8091E80085FF0DC050E040E0F4
:101D000063E070E08EE097E00E9443088091E80075
:101D10008E778093E8000895BC0184E00E94620EF3
:101D20000895BC0183E00E94620E0895CF93DF9373
:101D3000EC0180916C018823B1F180910C0787FF41
:101D400032C060E284E08093E9008FEF9091E80078
:101D5000815095FD06C095ED9A95F1F7000081112F
:101D6000F5CF8091E80085FF1BC080916C0170E089
:101D700050E040E0811104C050E040E068E070E0D5
:101D8000CE010E9443088091E8008E778093E8009E
:101D900080E2FE01A4E1B7E001900D928A95E1F79F
:101DA000DF91CF91089568E081E0CDCF81E080930D
:101DB000E00080E28093D8001092C9008FE19EE499
:101DC0000197F1F700C0000087E090EBDC01809301
:101DD000490790934A07A0934B07B0934C0788E1BB
:101DE0009CE00FB6F894A895809360000FBE909386
:101DF0006000FFCFCF92DF92EF920F931F93CF93AC
:101E0000DF93CDB7DEB7CE5DD1090FB6F894DEBF54
:101E10000FBECDBF609168018091430780FF4CC029
:101E2000E4EEF6E09E012F5F3F4F8E0101521F4FFF
:101E3000C901A4914A2F50E0DA01AA0FBB1FA40FD9
:101E4000B51FAA5BBC4FCD90DD90EC90D901CD922F
:101E5000DD92ED929D013196A017B10751F72091C7
:101E6000670143E0249F800D911D1124539A2BB1EB
:101E7000277F3BB138605FB7F894FC01649FE00DA9
:101E8000F11D1124BF018617970749F55FBFEFE5E4
:101E9000F4E03197F1F700C00000C252DF4F0FB6F7
:101EA000F894DEBF0FBECDBFDF91CF911F910F9190
:101EB000EF90DF90CF9008958091690190916A0131
:101EC00023E0829FF0011124EA5BFC4F891708F0A0
:101ED000A7CF1182108212828F5F3396F7CFDC0179
:101EE0004D91CD01E8E03BB9000000C047FF2BB9A0
:101EF000440F000000C000C000C02BB900C0EA952C
:101F000091F7C1CFEF92FF921F93CF93DF93EC0134
:101F100010E0EE24EA94F12C60916B01161770F03A
:101F20000E94FA0E9A818C8190FF2AC08F5F8C8369
:101F3000DF91CF911F91FF90EF900895209169015B
:101F4000422F410F5527551FCA019A01220F331FF7
:101F5000280F391F2A5B3C4F40914607453608F051
:101F600044E670E0C7010E94BB3A962F8C816091D5
:101F70004507199F800D11240E94820A1F5FCCCF54
:101F80008150D5CFE3E4F7E080818E7F80830E948B
:101F9000650AE3E4F3E08281816082832FEF80E7CA
:101FA00092E0215080409040E1F700C000000E9484
:101FB000FA0E0895B0E0A0E0E0EEFFE00C94803A65
:101FC0007C015B016A018091DE0201E010E08A3051
:101FD00010F40AE010E0C1E0D0E0B501C701F6015D
:101FE0000995811104C021960C171D072CF4CDB75B
:101FF000DEB7EAE00C949C3ACC9F9001CD9F300D67
:10200000300D112490E080E045E34A95F1F700009F
:10201000019682179307C1F7E0CF8091A602811144
:1020200010C08091D80080618093D8008AE18A95A1
:10203000F1F700C08091D90080FF0AC081E0809351
:10204000A60281E09091A602913009F080E0089507
:1020500082E08093A6020E94F30710923F07F1CF1F
:102060000E940D10882359F0E0910307F0910407B6
:10207000309729F00190F081E02D0995089580E0D6
:1020800008950F931F930E940D10882329F00E943A
:10209000A5091F910F9108950E94A5090091DF02E3
:1020A0001091E0022091E1023091E202600F711F75
:1020B000821F931FEECF1F93CF93DF93162F8A308B
:1020C00039F481E00E94FE10DF91CF911F910895B5
:1020D0008D3011F480E0F6CFC0914506D0914606D0
:1020E00096E0FE01AFE3B6E001900D929A95E1F71C
:1020F000803E90F186E0FE0111928A95E9F7C09149
:102100004506D0914606111133C046E050E0BE01AD
:102110008FE396E00E94F23A9E012F533440892BC0
:1021200091F52A5F3F4F40913C04642F70E0C90154
:102130000E94643A481B463010F4240F311D2115CB
:1021400072E0370710F030E020E0215C3B4F309325
:10215000460620934506B8CFF6E08F9FB0011124C4
:102160006258764F46E050E0CE010E94DC3AC7CF7D
:102170009E012A5F3F4FFE012E173F0731F28081FB
:1021800080958193F9CFC90145E0969587954A9549
:10219000E1F741E050E0BA0102C0660F771F8A956F
:1021A000E2F7CB0160913D0470913E04862B972BA2
:1021B000B9016B5F7F4FE5E076956795EA95E1F7AA
:1021C00002C0440F551F6A95E2F7842B952B90931C
:1021D0003E0480933D04A5CF1F93CF93DF93EC0182
:1021E000162FFE018491811104C0DF91CF911F91C0
:1021F0000895612F0E945B102196F3CFCF93382F63
:10220000E0914506F0914606EF53F44020913C04DE
:10221000622F70E0CF010E94643A281B822F332383
:1022200069F066E00E94AF3AC82FC15010F4CF9118
:10223000089560E080E20E945B10F7CF9F01280FB5
:10224000311D2115324018F080E0F0E0E0E08E0F03
:102250009F2F911D815C9B4F90934606809345066E
:10226000E6CF0E94EC1081E00E94FE100895CF930B
:10227000DF93C7ECD2E060E0CE010E94333B2196B1
:10228000C11584E0D807B9F7DF91CF9108950F9376
:102290001F93CF93DF93142F022F843020F56230E9
:1022A00010F598E0899FE001112484E0689FB00157
:1022B0001124C60FD71FC95ADD4F82E090E0442396
:1022C00011F090E080E0632F8C0F9D1F0E94333B44
:1022D00083E090E0112311F081E090E0602F8C0FFB
:1022E0009D1F0E94333BDF91CF911F910F91089565
:1022F0001F93CF93DF93122F8430E0F46A30D0F431
:102300004730C0F4C42FD0E0CC0FDD1F9EE0699FA2
:10231000C00DD11D11249CE8899FC00DD11D112431
:10232000632FCE0187960E94333B612FCE018896A2
:102330000E94333BDF91CF911F910895CF93C82F17
:102340006FEF811160E383E290E00E94333B6FEF17
:10235000C11160E484E290E00E94333B6FEFC11151
:102360006AEF85E290E00E94333BCF910895AAE0A6
:10237000B0E0EDEBF1E10C947B3A80903604909064
:10238000370481E090E090933704809336048EE226
:10239000A82E87E0B82E9EE4C92E97E0D92E10E033
:1023A000760100E015C0F30125913491452D602F91
:1023B000812F0E94781182E0680E711C539487E08F
:1023C0005812F1CF8EE0E80EF11C0F5F0A3019F0C1
:1023D0003701512CE8CF750100E0F70125913491C8
:1023E00041E0602F812F0E944711F701329625911D
:1023F000349140E0602F812F0E94471184E0E80E65
:10240000F11C013069F588E0A80EB11C1F5F8CE853
:10241000C80ED11C143009F0C3CF1A8219821C8255
:102420001B821E821D8218861F8288EC90E09A878C
:10243000898707E712E04AE050E0B801CE01019633
:102440000E94573B065F1F4F073C82E0180799F731
:1024500090923704809236042A96EFE00C94973AD3
:1024600001E0BBCF80E00E949E1160E086E290E038
:102470000E94333B0E94B7110E94371181E00E94F5
:102480009E1108959B01883070F49AE0899FB001F5
:10249000112469587D4F4AE050E0C9010E940F3B6A
:1024A00090E080E008958FEF9FEF0895AAE0B0E0FC
:1024B000ECE5F2E10C947E3A01E516E0F12CE12C1A
:1024C00083EAC82E83E2D82E9AECA92E93E2B92E85
:1024D00025E0822E23E2922EF801D182C082B382BF
:1024E000A28295828482F58AE48ABE016F5F7F4F63
:1024F0008E2D0E944212892B29F489859A85F80134
:10250000938B828BFFEFEF1AFF0A0A5E1F4F88E062
:10251000E816F10409F72A96ECE00C949A3AFF9237
:102520000F931F93CF93DF93F42E843070F56230B6
:1025300060F528E0829F8001112434E0639FB001A0
:102540001124060F171F095A1D4F82E090E0442303
:1025500011F090E080E0800F911F0E941F3BC82F78
:10256000D0E0DC2FCC2783E090E0FF2011F081E069
:1025700090E0800F911F0E941F3B9E01282BC901F4
:10258000CDB7DEB7E5E00C94A13A90E080E0F8CF5B
:102590000F931F93CF93DF93843030F56A3020F58B
:1025A000473010F5C42FD0E0CC0FDD1F2EE0629F26
:1025B000C00DD11D11243CE8839FC00DD11D1124F5
:1025C000CE0187960E941F3B082F10E0102F002796
:1025D000CE0188960E941F3B9801282BC901DF91EC
:1025E000CF911F910F91089590E080E0F8CF209156
:1025F0003A0430913B04232BC9F4703F39F4603F17
:10260000A9F480913804909139040895843070F4CD
:102610007A3038F4673050F4462F672F0E94C81282
:1026200008957D3F31F441E0623040F090E080E079
:1026300008957C3FD9F76230C8F740E00E948F12BE
:102640000895CF92DF92FF920F931F93CF93DF9362
:102650006C010091480780919B02082BC7E0D0E0F5
:1026600010E0FC2EC8010C2E02C0959587950A94A7
:10267000E2F780FD0CC02197A0F7F12C8F2DDF91A0
:10268000CF911F910F91FF90DF90CF900895B601E9
:102690008C2F0E94F7120E94740B019761F3EECF0A
:1026A000CF93DF93EC010E942113BE010E94F71229
:1026B0000E94740BDF91CF910895FC01808191817C
:1026C0000E94501392959F70963091F058F4925F4B
:1026D0009F70923058F4803F19F030F4883E30F407
:1026E00081E008959A5FF4CF843FD1F380E00895AC
:1026F000883EB0F3813FD1F7F3CF83E290E00E94B0
:102700001F3B803389F484E290E00E941F3B8034B9
:1027100059F485E290E00E941F3B91E08A3F09F066
:1027200090E0892F8170089580E0FCCFCF9384E002
:1027300090E00E941F3BC82F82E290E00E941F3B66
:10274000982F8C2FCF910895CF92DF92EF92FF9226
:102750006B017C010E946C0AB701A60188E090E041
:102760000E94453BFF90EF90DF90CF900895A3E04B
:10277000B0E0EDEBF3E10C94843A082FF62E142F21
:10278000E22E8091430780FF4EC0E82FE695F0E0EF
:10279000EC52FE4F9081909343038E7F823009F07C
:1027A0004CC0453608F044E69E012F5F3F4F6F2D29
:1027B000802F0E94820A8091430780FF11C02B81E5
:1027C00039814A818091690190916A0153E0859F26
:1027D000F0011124EA5BFC4F891748F10E94FA0EC0
:1027E00080914407801308C0809145078F1104C071
:1027F00080914607811729F080914503826080937C
:10280000450300934407F092450710934607EE20D6
:1028100051F0609143077091440780914507909172
:1028200046070E94A4132396E6E00C94A03A418345
:10283000308322838F5F3396CFCF923089F6009119
:102840004407CECFE3E4F7E0438121E1421B08F4E3
:1028500040E021E0628181810E94B7130895E3E4A2
:10286000F7E0438121E1420F08F44FEF21E062815C
:1028700081810E94B7130895E3E4F7E0628121E1CA
:10288000621B08F460E021E0438181810E94B7135C
:102890000895E3E4F7E0628121E1620F08F46FEF4D
:1028A00021E0438181810E94B7130895E3E4F7E0BA
:1028B000818121E0438162818A500E94B71308958B
:1028C000E3E4F7E0818121E043816281865F0E9439
:1028D000B713089580914707882319F0815080939A
:1028E0004707609143077091440780914507909195
:1028F00046070E94A413089580914707833018F477
:102900008F5F8093470760914307709144078091E0
:102910004507909146070E94A4130895E3E4F7E069
:1029200083E0808311828FEF828384E68383148225
:10293000A3E4B3E012968C911297836012968C9365
:1029400060817181828193810E94A413089568EE51
:102950007EEF90E080E00E94513B60E082E090E0FA
:102960000E94333B60E083E090E00E94333B109292
:102970009B0260E084E090E00E94333B64E082E2EE
:1029800090E00E94333B60E085E090E00E94333BA2
:1029900060E086E090E00E94333B6FEF87E090E0DC
:1029A0000E94333B40E050E0BA0188E090E00E9492
:1029B000453B60E08DE090E00E94333B40E050E01A
:1029C000BA0188E190E00E94453B60E087E190E039
:1029D0000E94333B40E050E0BA018CE190E00E945D
:1029E000453B70E060E080E290E00E94513B40E0B7
:1029F00050E0BA0188E190E00E94453B80E00E94EF
:102A00009E110E94321240E050E0BA018FE090E047
:102A10000E94453B40E050E0BA0183E190E00E9413
:102A2000453B0895A4E0B0E0E8E1F5E10C94873A75
:102A30004091D2025091D3026091D4027091D5029C
:102A40002FB7F8948091080790910907A0910A0781
:102A5000B0910B072FBF841B950BA60BB70B11E092
:102A600084369105A105B10570F10E9441106E5F99
:102A70007F4F8F4F9F4F69837A838B839C83809195
:102A8000290190912A0188549D4F4091280150E0DE
:102A90004530510510F044E050E0BE016F5F7F4FBC
:102AA0000E94FF3A85E090E00E94EE39182F8823BB
:102AB00051F00E94A5096093D2027093D3028093D3
:102AC000D4029093D502812F2496E3E00C94A33A8C
:102AD0004F925F926F927F928F929F92AF92BF922E
:102AE000EF92FF920F931F93CF93DF937B01FB0134
:102AF00040805180628073809FB7F894809008076F
:102B000090900907A0900A07B0900B079FBF841808
:102B10009508A608B708F4E68F169104A104B1043D
:102B200018F4C1E0442329F1C82F880FDD0BFE0102
:102B300083E0EE0FFF1F8A95E1F7E050FF4F8181A0
:102B4000928188549D4F408150E00417150708F486
:102B5000A801B9010E94FF3ACE010E94EE39C82FA8
:102B6000882339F00E94A509F7016083718382836D
:102B700093838C2FDF91CF911F910F91FF90EF9056
:102B8000BF90AF909F908F907F906F905F904F908D
:102B90000895A1E0B0E0EFECF5E10C94863A809165
:102BA0004B0689832091D10290E041E02817190655
:102BB00009F440E001E010E09E012F5F3F4F6AED15
:102BC00072E087E00E9468152196E4E00C94A23A36
:102BD000A8E0B0E0EEEEF5E10C94863A85E0E3E49F
:102BE000F7E0DE01119601900D928A95E1F7809150
:102BF000430390914403A09145038E839F83A8874C
:102C000041E08885811101C040E008E010E09E01AC
:102C10002F5F3F4F66ED72E086E00E9468158111DC
:102C2000109245032896E4E00C94A23A0F931F9368
:102C3000CF93DF93EC0145E050E06EEB72E00E9431
:102C4000F23A41E0892B09F440E005E010E09E01F2
:102C500060EB72E082E00E946815DF91CF911F91D6
:102C60000F9108954F925F927F928F929F92AF92B1
:102C7000BF92CF92DF92EF92FF920F931F93CF9369
:102C8000DF930F92CDB7DEB7C62E4A015901482E09
:102C9000880F5508C2010E94EE39782E882309F466
:102CA00080C0C20133E0880F991F3A95E1F7FC011B
:102CB000E050FF4F438150E04115510511F041E0D4
:102CC00050E080509F4FFC016481758168547D4FB6
:102CD000CE0101960E94FF3AF40140815181628148
:102CE00073812FB7F8948091080790910907A091FC
:102CF0000A07B0910B072FBF841B950BA60BB70BD0
:102D000084369105A105B10540F4B701C8010E94C0
:102D10003C0A9981891709F444C00C2C000CDD0889
:102D2000C6010E94EE39782E811113C0712C872DB7
:102D30000F90DF91CF911F910F91FF90EF90DF9057
:102D4000CF90BF90AF909F908F907F905F904F906B
:102D50000895C60123E0880F991F2A95E1F7FC0129
:102D6000E050FF4F438150E0E416F50608F4A70158
:102D700080509F4FFC016481758168547D4FC5016F
:102D80000E94FF3AB701C8010E943C0A9981891349
:102D9000CDCF0E94A509F401608371838283938360
:102DA000C6CFA701B801C5010E94FF3AC0CFA5E078
:102DB000B0E0EDEDF6E10C94823A6B0185E0E82E8F
:102DC000F12C09EB12E09E012F5F3F4F4CEA52E0DD
:102DD00061E080E00E943216882349F095E0FE0110
:102DE0003196A7EAB2E001900D929A95E1F795E04D
:102DF000E7EAF2E0D60101900D929A95E1F7259667
:102E0000E8E00C949E3A90E080E00E942D3B883EE2
:102E10009E4F19F40E947D13089580E008951F923B
:102E20000F920FB60F9211242F933F934F935F93FE
:102E30006F937F938F939F93AF93BF93EF93FF9382
:102E40008091E10082FF09C08091E20082FF05C00D
:102E50008091E1008B7F8093E1008091DA0080FF18
:102E600024C08091D80080FF20C08091DA008E7F3E
:102E70008093DA008091D90080FF9DC080E189BDF8
:102E800082E189BD09B400FEFDCF81E080933F0758
:102E900080911107811109C00E94F3070E94E60882
:102EA0008091E20084608093E2008091E10080FFE5
:102EB00017C08091E20080FF13C08091E2008E7FF6
:102EC0008093E2008091E20080618093E200809133
:102ED000D80080628093D80019BC85E080933F07BA
:102EE0008091E10084FF2BC08091E20084FF27C025
:102EF00080E189BD82E189BD89B5982F917080FFFD
:102F0000FBCF8091D8008F7D8093D8008091E10025
:102F10008F7E8093E1008091E2008F7E8093E200BB
:102F20008091E20081608093E200809136078823DF
:102F300009F447C084E080933F0780913F07809168
:102F4000E10083FF27C08091E20083FF23C08091CE
:102F5000E100877F8093E10082E080933F07109239
:102F600036078091E1008E7F8093E1008091E2003E
:102F70008E7F8093E2008091E20080618093E20086
:102F800042E060E080E00E94B4088091F000886038
:102F90008093F000FF91EF91BF91AF919F918F913E
:102FA0007F916F915F914F913F912F910F900FBE45
:102FB0000F901F90189519BC10923F07109211079F
:102FC00074CF8091E30087FD93E090933F07B5CFE6
:102FD00078941F921FB61F9211248F939F93AF93E3
:102FE000BF938091080790910907A0910A07B091BB
:102FF0000B070196A11DB11D809308079093090747
:10300000A0930A07B0930B07BF91AF919F918F9147
:103010001F901FBE1F9018959C014FB7F894809188
:10302000080790910907A0910A07B0910B074FBFBD
:10303000821B930B08952FB7F89480910807909105
:103040000907A0910A07B0910B072FBF08950E94AE
:103050000D10882319F00E941B1808950E9441103A
:10306000CB01089560914307669570E041E050E020
:1030700086E691E00E94E53A892B19F481E080937D
:1030800044030E94271890933E0380933D03809150
:10309000450384608093450308959091430790FF12
:1030A00031C0917081112FC092609093430780913D
:1030B0004503816080934503662351F06091430787
:1030C0007091440780914507909146070E94A41390
:1030D00060914307669570E041E050E086E691E03C
:1030E0000E94E53A892BB1F00E94650A81E0809345
:1030F000400320E0409146076091450780914407D6
:103100000E94B7130895883010F09E60CECF880FCC
:10311000982BCBCF0E943218E9CF80914307869538
:10312000815009F487E061E00E944D180895809174
:10313000430786958F5F883008F081E061E00E9448
:103140004D1808958091430780FF08C086958258E6
:103150008F77853018F40E949718089561E082E017
:103160000E944D180895AFE0B0E0E9EBF8E10C944F
:103170007D3A8E010F5F1F4F8AE0D8011D928A951C
:10318000E9F787E4C82E81E0D82EF12CE12CAA249F
:10319000A394B12C27E4822E21E0922EF601819196
:1031A0006F018F3F09F442C0F894E82FE295EF7069
:1031B000F0E021A18F70A50102C0440F551F8A9530
:1031C000E2F7CA01922F982B91A392A180958923AF
:1031D00082A3789400C0E0E4F1E0712C31E0219109
:1031E0002F3F09F46BC0A22FA295AF70B0E090966C
:1031F0008C9190E02F7002C0959587952A95E2F703
:1032000080FD5CC0832F782A330F8E169F0639F716
:10321000F601319780818F3F11F00E941A0B50EA1E
:103220005A95F1F7F801EE0DFF1D70828FEFE81A45
:10323000F80A95E0E916F10409F0B0CF4AE050E051
:10324000B80183EE92E00E94F23A7C01892B41F0B2
:103250008AE0F801A3EEB2E001900D928A95E1F7C1
:103260001091EE02E114F10459F181E080939E0285
:103270000E941B1890939D0280939C0280919C0257
:1032800090919D020E940C18059778F0A3EEB2E091
:10329000E12FF0E0ED5CFC4F88EE92E02D91219360
:1032A0008A179B07D9F710929E0281E090E0E11403
:1032B000F10451F02F96EDE00C94993A80E0A3CF01
:1032C00080919E028111DACF0E940D10D82EE091DC
:1032D000EE02DE011B967D01882309F487C085E09C
:1032E0001D928A95E9F70E2F10E00D5C1C4F80911E
:1032F000DE028A3008F046C047ED56E1B701C8014A
:103300000E94DA0F882309F44DC046E156E1B70167
:10331000C8010E94DA0F882309F444C044E752E24E
:10332000B701C8010E94DA0F8823E1F142E155E1BB
:10333000B701C8010E94DA0F8823A1F148EE55E1D8
:10334000B701C8010E94DA0F882361F149EC55E109
:10335000B701C8010E94DA0F882321F11092DE0222
:103360008091ED0290E045E050E0B7018D5C9C4F0C
:103370000E94F23A21E02093A502892B51F5D12C2D
:103380008D2D98CF80919F029091A0020E940C18E1
:10339000843F914008F0B0CF8091A502811112C006
:1033A00080E088CF8091DE028F3F29F08F5F80938D
:1033B000DE028A30A8F20E941B189093A00280932C
:1033C0009F02EACF85E0F70111928A95E9F7109202
:1033D000A502A091ED02B0E0AD5CBC4F85E0FE011E
:1033E0003B9601900D928A95E1F7CACF0091ED02CC
:1033F00010E00D5C1C4FF0E0ED5CFC4F85E0A9EBAC
:10340000B2E001900D928A95E1F765E070E089EBFA
:1034100092E00E943C0A8093B80285E0EEEBF2E075
:10342000D80101900D928A95E1F74091070350E091
:103430006091060370E06E5F7C4FC7010E94FF3A07
:103440008B858093C40261E070E0C7010E943C0A52
:103450008093C302C090C502D090C602E090C7021C
:10346000F090C8028091A1029091A202A091A302C3
:10347000B091A402C816D906EA06FB06D1F0C092A4
:10348000A102D092A202E092A302F092A4020E94B2
:103490000D1081110EC00E94A509C61AD70AE80AAC
:1034A000F90AC092DF02D092E002E092E102F092CB
:1034B000E2028091D002882379F180FF0DC08091D3
:1034C000C90280FF30C090914307916090934307F9
:1034D00060E086950E944D188091D00281FF09C05E
:1034E00020E04091CC026091CB028091CA020E9400
:1034F000B7138091D00282FF06C08091CF0288234B
:10350000A9F00E9432188091D00283FF03C081E0AD
:10351000809340031092D0028091D102882349F019
:103520000E943A0E3DCF0E94C20FD6CF0E94650A7C
:10353000EACF0E941F0E34CF80914D0690914E0627
:10354000892B8093EE0180919A02882329F10E94B1
:103550001B182091980230919902821B930B883896
:10356000934110F00E94FC0C8091EE0190919A0220
:10357000892B8093EE0180916C018823E1F1809189
:103580000C0787FF38C08EE1E0EFF1E090E081505A
:10359000A0F591110E94FC0C40E250E068E772E057
:1035A0008EEE91E00E94F23A892B21F180E2EEEE5C
:1035B000F1E0A8E7B2E001900D928A95E1F7E09181
:1035C0000307F09104073097A9F080916C018823DC
:1035D00059F080910C0787FF07C08091EE0180931E
:1035E000EF0186E08093EE010280F381E02D8EEE04
:1035F00091E00995089586E0C7CF2191222339F201
:103600009F5FC5CFEF92FF920F931F93CF93DF93EE
:10361000EC018A85811134C0EB80FC8087E5F81AC3
:1036200026E12E9DC0012F9D900D1124DC01AF5A83
:10363000B94F1496ED91FC911597309731F054964F
:103640006D917C91895A994F099586E18E9D8001F3
:103650008F9D100D11240F5A194FF80187810E9478
:103660000E0DF80180850E94070D0E949C1A188299
:1036700019861B861E821D821092500610924F06DC
:10368000CDB7DEB7E6E00C94A03ACF93DF93EC0120
:103690008989811119C081E0898B80914D069F81B4
:1036A000892B80934D0680914E069885892B8093B7
:1036B0004E060E949C1AEA81FB81309729F06C89A2
:1036C0007D89CE0106960995DF91CF91089590E00E
:1036D00080E00E94260A90E080E00E94100A10928A
:1036E0004E060E949C1A0895809348070E94671B0B
:1036F000089580914807982F9670963021F488603D
:103700000E94741B0895877FFBCF21E030E001C049
:10371000220F8A95EAF720958091480782230E941C
:10372000741B089590917702809589238093770286
:10373000282F277091F4282F082E000C330B921796
:10374000130659F090910D0792FF07C08595859556
:1037500085950E94851B0E94150D0895CF93C091F9
:103760000D07C2FB992790F9981791F080FBC2F9D9
:10377000C0930D0760910C0784E090E00E94333BFA
:103780006C2F82E290E00E94333B82E00E94921B09
:10379000CF91089521E030E001C0220F8A95EAF729
:1037A00080914807822B0E94741B089580939B028E
:1037B0000E94671B089510924D0680916C01E0EF06
:1037C000F1E0882361F080910C0787FF08C08EE14B
:1037D000DF011D928A95E9F70E94671B089586E034
:1037E000F7CFAAE2B0E0E7EFFBE10C94873A87E37A
:1037F00097E02091F100DC012D93CD01B7E08F33EC
:103800009B07B9F780913807833009F472C0B8F488
:10381000813009F449C0823009F4B3C08091E800D6
:1038200083FF96C280913707909138079A3008F04D
:103830008FC2E92FF0E0EF58F44C0C94CF3A8A3065
:1038400009F48EC08B3009F471C0893039F780914A
:103850003707813219F780913B0790913C07009719
:1038600011F00297D9F68091E800877F8093E800F5
:103870008091E80082FF38C09091F3008091F200BF
:10388000029731F48091F100813011F0863021F4FB
:103890008091F100809313078091E8008B778093EB
:1038A000E8000E949508BACF80913707813A09F065
:1038B000B5CF8091E800877F8093E80080913B0737
:1038C00090913C07892B61F460E284E197E070E01D
:1038D0000E9441098091E8008B778093E8009ECF99
:1038E00060E090E080E0F3CF80913F078111C0CF8E
:1038F00095CF80913707813A09F090CF80913B07AF
:1039000090913C07892B09F089CF8091E800877F4F
:103910008093E8008091E80080FFFCCF80916C01EB
:103920008093F1008091E8008E77B9CF80913707BE
:10393000813209F073CF80913B0790913C07892B2E
:1039400009F06CCF8091E800877F8093E8000E94A7
:1039500095088091390780936C010E94DB1B5ECF34
:1039600080913707813209F059CF8091E800877F35
:103970008093E8000E94950880913A07809312078F
:103980004DCF80913707813A09F048CF8091E80008
:10399000877F8093E8008091E80080FFFCCF8091D2
:1039A0001207BECF803899F0823809F0D1C18091DA
:1039B0003B078F70873008F0CBC18093E90080917E
:1039C000EB0085FB882780F91092E90006C0809102
:1039D000340790913507911182609091E800977FAC
:1039E0009093E8008093F1001092F1008091E8003C
:1039F0008E77AAC1882309F498C1823009F0A8C142
:103A00008091390781119BC180913B078F702FEF07
:103A1000280F263008F09CC18093E9002091EB002C
:103A200020FF8DC1933031F48091EB008062809350
:103A3000EB0085C19091EB0090619093EB0021E049
:103A400030E001C0220F8A95EAF72093EA00109235
:103A5000EA008091EB008860EACF811179C1109172
:103A600039071F778091E3008078812B8093E300F2
:103A70008091E800877F8093E8000E9495088091FC
:103A8000E80080FFFCCF8091E30080688093E30032
:103A900082E0111183E080933F075AC18058823041
:103AA00008F056C12091390730913A072C3DE3E0E8
:103AB0003E07A1F583E08A838AE289834FB7F894B1
:103AC000DE01139620E03EE051E2E32FF0E0509358
:103AD0005700E49120FF03C0E295EF703F5FEF7065
:103AE0008E2F90E0EA30C0F0C7968D939D932F5FA4
:103AF000243159F74FBF8091E800877F8093E80019
:103B00006AE270E0CE0101960E9441098091E800CE
:103B10008B778093E8001CC1C096E7CF80913B076C
:103B200090913C07432F55274330510509F44AC073
:103B300078F54130510509F485C08BE590E0E2EC61
:103B4000FEE04230510509F003C12091E800277FD3
:103B50002093E80020913D0730913E07821793079C
:103B600008F49C0140E02115310509F070C04111B5
:103B70006EC08091E80082FDC9CF80913F07882305
:103B800029F2853019F28091E80083FFF2CFBECF91
:103B90004132510509F447C04232510509F0D8C0FD
:103BA0008330910508F0D4C0FC01EE0FFF1FE152F5
:103BB000FE4F0190F081E02D84529E4FDC018C91EC
:103BC00090E01DC0332721303105E9F02115310582
:103BD00079F022303105F9F02330310509F0B8C011
:103BE000EFE2FFE0E4918E2F90E0EFE2FFE007C00C
:103BF000EDE6FFE0E4918E2F90E0EDE6FFE0009728
:103C000009F4A6C0A2CFEBE5FFE0E4918E2F90E08F
:103C1000EBE5FFE0F4CFEDE4FFE0E4918E2F90E0E0
:103C2000EDE4FFE0ECCF8330910508F091C0880F00
:103C3000991FFC01EB51FE4F0190F081E02D89E0CE
:103C400090E083CF82E190E0EDE1FFE07ECF8091D4
:103C50003F07882309F45ACF853009F457CF809164
:103C6000E80083FD53CF8091E80082FD82CF8091F0
:103C7000E80080FF78CF9091F3008091F200211549
:103C8000310519F08830910550F041E0089709F0AE
:103C900040E08091E8008E778093E80064CF449103
:103CA0004093F1003196215031090196E8CF8038D8
:103CB00009F04EC08091E800877F8093E8008091F2
:103CC00036078093F10092CE811142C010913907DE
:103CD0001230F0F58091E800877F8093E800109320
:103CE00036070E949508112311F084E005C08091E9
:103CF000E30087FDFACF81E080933F0742E061EC6B
:103D000081E00E94B40842E261EC84E00E94B408C1
:103D100042E261EC82E00E94B40842E260EC83E09F
:103D20000E94B40880913F0713C080913907813009
:103D300079F481E0933009F080E0809335071092A8
:103D4000E9008091E800877F8093E8000E94950851
:103D50008091E80083FF0AC08091E800877F80930C
:103D6000E8008091EB0080628093EB00AA96E3E08C
:103D70000C94A33A1F920F920FB60F9211242F9317
:103D80003F934F935F936F937F938F939F93AF93E3
:103D9000BF93CF93DF93EF93FF93D091E900DF7050
:103DA0008091EC00C82FC17080FDC0E81092E9003E
:103DB0008091F000877F8093F00078940E94F11B3F
:103DC0001092E9008091F00088608093F000CD2B84
:103DD000CF70C093E900FF91EF91DF91CF91BF9138
:103DE000AF919F918F917F916F915F914F913F9193
:103DF0002F910F900FBE0F901F9018950E94DB1B04
:103E00002FEF84E39CE0215080409040E1F700C018
:103E1000000088E19CE00FB6F894A89580936000BC
:103E20000FBE90936000FFCF882321F00E94070D02
:103E30000E949C1A0895882339F090914E06982B81
:103E400090934E060E949C1A0895882321F00E94A8
:103E50000E0D0E949C1A0895882339F090914D060A
:103E6000982B90934D060E949C1A0895882351F137
:103E70009CEF980F913A40F4682F8EEE91E00E94EB
:103E8000B1090E949C1A089590E2980F983050F45E
:103E9000877091E001C0990F8A95EAF7892F0E94F7
:103EA0000E0DEFCF9BE5980F933028F490E080E063
:103EB0000E94260A0895885A873120F490E080E015
:103EC0000E94100A0895CF93C82F8823D9F18CEF50
:103ED0008C0F813AC8F580916C01882311F1809193
:103EE0000C0787FF1EC0EC2FE695E695E695F0E0FF
:103EF000E251FE4F828190E04C2F477021E030E08C
:103F000002C0220F331F4A95E2F782239323892BA5
:103F100091F06C2F8EEE91E00E94B1090E949C1AE4
:103F20000AC0E0EFF1E086EF91E02191C21789F33A
:103F30008E179F07D1F76C2F8EEE91E00E94DB0960
:103F40000E949C1ACF91089580E28C0F883068F40B
:103F5000C77021E030E001C0220FCA95EAF78091D6
:103F60004D06822B80934D06EBCFEBE5EC0FE33053
:103F700040F4F0E0EF57FE4F808190E00E94260A67
:103F8000E1CFC85AC731F0F6EC2FF0E0EE0FFF1F7B
:103F9000EC57FE4F808191810E94100AD3CF1F936E
:103FA000CF93DF93182FCAE0D0E0893311F4C0E536
:103FB000D0E0812F0E94631F8FE99FE00197F1F706
:103FC00000C000002197C1F7812F0E94361FDF91AA
:103FD000CF911F9108950F931F93CF93DF93C62F17
:103FE000D42F022FFC0182818823A9F0609342071D
:103FF0000E941B189093410780934007C77081E08F
:1040000001C0880FCA95EAF70E942C1FDF91CF915B
:104010001F910F91089580914207681332C08091DB
:104020004007909141070E940C18883C910548F583
:1040300010E21D0FCD17B9F080E28C0F883040F4EC
:10404000C77081E001C0880FCA95EAF70E94251F5A
:10405000183048F481E09D2F977001C0880F9A9521
:10406000EAF70E942C1F802F0E94CF1F183070F695
:10407000D77081E001C0880FDA95EAF70E94251F0A
:10408000C5CFC77081E001C0880FCA95EAF7F6CFA7
:10409000B0E0A0E0EEE4F0E20C94803AEC018AE0BB
:1040A000A82E2881222309F48FC02130C9F59981D7
:1040B0008A81913021F422960E94CF1F05C0923050
:1040C00029F422960E94631F2196EBCF933021F4AE
:1040D00022960E94361FF8CF943011F02196F4CF2B
:1040E000229630E020E0AE014F5F5F4F8053990B86
:1040F0008A30910550F02150310930F38FE99FE06B
:104100000197F1F700C00000F6CFA29EB001A39E78
:10411000700D11249C01260F371F8981EA01E3CF1E
:10412000E22FF0E0E555FE4FB490822F86958695FC
:10413000869590E0FC01E556FE4FE4902770F12C47
:10414000022E02C0F594E7940A94E2F731E0E322EC
:10415000FF24FC01E557FE4FC490D12C022E02C073
:10416000D594C7940A94E2F731E0C322DD24FC0120
:10417000E558FE4F049110E002C0159507952A9569
:10418000E2F701701127E114F10419F081EE0E94A9
:10419000631FC114D10419F086EE0E94631F8B2D9A
:1041A0000E94CF1FC114D10419F086EE0E94361F61
:1041B000E114F10419F081EE0E94361F011511057A
:1041C00009F482CF8CE278CFCDB7DEB7EAE00C9469
:1041D0009C3A90910D0792FF10C098E0899F900142
:1041E0001124622B609377020E94CA1B0E941B1845
:1041F000909376028093750208950E94CA1B0895D9
:10420000A7E1B0E0E6E0F1E20C94873A6D8B7E8B9B
:104210008F8B611110924E068E899F89892BC1F177
:104220005F3F09F0F0C04F3F99F5542F31C0473040
:1042300078F5E42FF0E027E0529FE00DF11D112406
:10424000CF018770992721E030E001C0220F8A95C5
:10425000EAF7DF0173E0B695A7957A95E1F7A15FDC
:10426000BD4F7C9180913C02611102C0872F822357
:10427000882309F476C0CF01880F991FFC01E25D05
:10428000FD4F5491FC01E35DFD4F4491272B2C938E
:104290001A8A198A4B8B5C8B85E0FE017396DE01CE
:1042A0001D9601900D928A95E1F780910D0782FF8E
:1042B0002CC00E941B182091750230917602821B3F
:1042C000930B8838934120F08091770282FF97C04A
:1042D0000E941B182091980230919902821B930B27
:1042E0008838934110F00E94FC0C0E941B1820910A
:1042F0001A0230911B02821B930B8838934128F0DD
:1043000080911C02813009F471C086E0FE013D9667
:10431000DE01179601900D928A95E1F7CE0107967E
:104320000E94582C811112C086E0FE013796DE01F2
:10433000119601900D928A95E1F78A859B85892BCC
:1043400029F088859F8189238F3FB1F516E0809100
:1043500074029091430289131DC06796E3E00C94A8
:10436000A33A2095272393CF8095822374C096E0AB
:10437000929FD001939FB00D1124AC5BBD4FFE0105
:10438000319601900D929A95E1F7809343020E9435
:104390001C0DDCCF819FC00111248C5B9D4F0E94BE
:1043A000582C8823D1F28091740290E00196877096
:1043B000992780937402CBCF2091430230E0C9014A
:1043C000019687709927409174024817190679F66B
:1043D0000E94DB1B109243021092740286E0EDE310
:1043E000F2E0DF011D928A95E9F7B0CF10921C022E
:1043F00010923C0210921B0210921A0286CF82E0A9
:104400000E94921B65CF5A3008F411CF84E0850FCB
:10441000823008F03DCFE42FF0E0242F277081E0B8
:1044200090E001C0880F2A95EAF7DF0193E0B69586
:10443000A7959A95E1F7A25FBD4F2C9130913C0270
:10444000611102C0322F3823332309F48DCFE55D8B
:10445000FD4F4491822B8C931BCFAAE0B0E0E3E3A5
:10446000F2E20C94863A182F062F662399F10E94E7
:104470001B181E832DEF2F8321E0288781609A87E8
:1044800089874E815F81688579858A850E940021B0
:104490008FE39FE10197F1F700C000000023F9F0DE
:1044A0000E941B1819832DEF2A831B8281609D8334
:1044B0008C8349815A816B817C818D810E9400218E
:1044C0008FE39FE10197F1F700C000002A96E4E036
:1044D0000C94A23A0E941B181E832CEFCCCF0E9492
:1044E0001B1819832CEFE0CFA1E0B0E0EAE7F2E27D
:1044F0000C94813AEE24E394F12C04EC12E09E013A
:104500002F5F3F4F44EB52E064E083E00E9432169D
:10451000C82E882339F100E080E01DC0D090F10260
:10452000D00E2D2D30E0A9014E5F5C4F7A01E1E005
:10453000F0E0EC0FFD1FE00FF11D1081FA019081FA
:10454000191BB12E1B149CF0912F17FD90E0191B25
:10455000111118C00F5F9091F0020917F8F2811144
:104560000E94F90C8C2D2196E9E00C949D3ABA94A6
:10457000F70180818F5F808360E08D2D0E942D2266
:104580008C2DE0CF1F5FF70180818150808361E037
:104590008D2D0E942D228C2DDBCFA5E0B0E0E3ED28
:1045A000F2E20C94863A8C0190933904809338049B
:1045B000011580E21807C0F4802F0E94361FC80141
:1045C0000E94C40D9801205E31092830310518F091
:1045D0000115110531F40E94251F2596E4E00C9485
:1045E000A23A0E94141FF9CF80EF89838A831B822D
:1045F0000E941B188160782F9D838C8349815A818A
:104600006B818D810E940021E8CF0F931F93CF9380
:10461000DF938C01EB016CE274E08C2F0E9442125C
:10462000892BA1F48FE39CE90197F1F700C000000A
:10463000DD27CC5DDB4F8881F80110821882833042
:10464000F1F048F4813059F0823081F0DF91CF9160
:104650001F910F9108958430B9F08530B9F780919A
:104660002C0490912D04009789F306C080912E04AC
:1046700090912F04009799F30E94CD22E7CF80916B
:10468000300490913104F6CF80913204909133043C
:10469000009791F720912C0430912D0480912E04E5
:1046A00090912F0421153105F1F2009729F7C901E6
:1046B000E3CFA5E0B0E0EFE5F3E20C94863A8C019D
:1046C0009093390480933804011580E21807C0F4F0
:1046D000C8010E94C40D9801205E310928303105BF
:1046E00018F00115110549F40E942C1F802F0E941B
:1046F000631F2596E4E00C94A23A0E941B1FF6CF9C
:1047000080EF89838A8381E08B830E941B188160FC
:10471000782F9D838C8349815A816B818D810E9482
:104720000021E7CFCF93DF93EC010E9459238FE361
:104730009CE90197F1F700C00000CE010E94CD2254
:10474000DF91CF9108950F931F93CF93DF938C0147
:10475000862F6CE274E00E944212892BB1F4C09162
:104760002C04D0912D04209781F0F80180818330B2
:1047700051F4CE010E949223CE010E949223CE01D9
:104780000E94922302C08430D0F7DF91CF911F9115
:104790000F9108950F931F93CF93DF938C01EB013B
:1047A0006CE274E08C2F0E944212892B09F061C0E8
:1047B000FE01FF27D8018C91EC5DFB4F8130D9F4CD
:1047C00019969C911997992311F080830CC01A9621
:1047D0009C919923D1F382E0808380912E04909163
:1047E0002F040097D9F480912C0490912D04009708
:1047F00009F43FC013C08230D1F519968C911997F6
:1048000081112AC01A968C9181110BC083E080839C
:104810008091300490913104009701F10E94592356
:1048200028C084E080838091320490913304009703
:10483000A9F780912C0490912D040097F9F00E9423
:10484000922380912E0490912F04009739F7809144
:104850002C0490912D04E2CF85E0808380912C047C
:1048600090912D04009729F00E949223F0CF86E0CA
:104870008083DF91CF911F910F91089580912E0435
:1048800090912F04B4CFA5E0B0E0E9E4F4E20C94F9
:104890007E3A6C01DC0113968D919C911497892BC3
:1048A00039F08C9111969C9189238F3F09F0FBC6BA
:1048B0002596ECE00C949A3A0E942113182F682F49
:1048C00089819A810E94970D69817A81812F0E9446
:1048D000F7128C01F6018281811111C0D601129666
:1048E0008C91811149C00031FFE51F0709F40AC10D
:1048F00001312FE5120709F0B0C682E004C18091B2
:10490000590190915A01019649F361E5E62E66E05E
:10491000F62EB12CA12C9924939480915901909159
:104920005A018A159B05D4F2F70186818823E9F0A4
:10493000818592850817190739F480914F06909167
:1049400050060817190789F0D7011F969C921F97E8
:104950001C961C930E931B97C7010E94451BC70111
:1049600006960E94021B10924E06BFEFAB1ABB0ABE
:10497000E6E1EE0EF11CD1CF980122513F452031E6
:10498000310508F060C68FEF93E00E941F3B811154
:10499000A6C05EEEF52EF00E07EC12E0F11036C068
:1049A00019821A821B821C8299249A9478012FEF13
:1049B000E21AF20AC8010E941F3B89831A828823E7
:1049C00009F48DC0813009F07FC0580132E0A30E98
:1049D000B11CC7010E941F3BE82E8A83882309F47B
:1049E0007EC0C5010E941F3BF82E8FEF8E0D8330D5
:1049F000D8F4580143E0A40EB11CFB82FF2021F043
:104A0000CE0101960E9448208501D0CF0115F4E027
:104A10001F0709F464C0C8010E941F3B811101C037
:104A2000FA940F5F1F4FBACF8BEF8E0D833030F5A6
:104A3000C8010396FB825C01FF2031F3580154E06A
:104A4000A50EB11C0E941F3B8C838823E9F28B8149
:104A50009C818130AFEF9A0710F0982F8827B6E03D
:104A6000EB1631F0E7E0EE1631F00E949223CCCF46
:104A70000E945923C9CF0E94CD22C6CFF4E0EF1285
:104A8000C3CF580124E0A20EB11CC80103960E94B6
:104A90001F3BFF2021F1882311F18150990B989E33
:104AA0009001999E300D11244F2D4150550BCA0194
:104AB000820F931F019708F4A7CFAFE9BFE01197CA
:104AC000F1F700C00000F6CFCE0101960E94482009
:104AD00057019ACF81E00E94CA1B0E94791B8091E6
:104AE0007702877009F4E4CED60112968C91882360
:104AF00009F4DECE80910D0782FFDACE82E00E94BB
:104B0000921BD6CE81E00E94851BE7CF82E0E3CFE7
:104B10002FEFE216F10411F008F0ABC56CE274E07F
:104B20008E2D0E944212892B29F586E18E9DF0017F
:104B30008F9DF00D1124EF5AF94F8681813009F0D5
:104B4000B1C080912C0490912D04892B99F0809113
:104B50002E0490912F04892B69F08091300490915C
:104B600031042091320430913304822B932B892B12
:104B700009F4A2C08091590190915A018E159F05A8
:104B800024F4F0925A01E0925901F601828196E1F3
:104B90009E9D50019F9DB00C112495012F5A394FB5
:104BA0007901D90150968C935097928116968C91E9
:104BB0001697992309F48EC01A961C930E93199791
:104BC0008F5F16968C930E941B18F7019687858736
:104BD00080919A02878380914E0690914D06892B91
:104BE00080870190F081E02D309741F0D7015496F5
:104BF0006D917C91C501895A994F09951093500682
:104C000000934F06F6018281882309F45FC5109254
:104C100042070330FDE51F0708F08EC00A3F2CE570
:104C2000120730F4C80182509C45449708F08EC0AA
:104C30000E94961390930D0780930C0701315CE559
:104C4000150709F45DC108F0DAC009309CE51907C1
:104C500009F444C108F0A5C00530BCE51B0709F400
:104C600035C108F08AC00330FCE51F0709F424C1F0
:104C700008F028C180910C07816002303CE51307E1
:104C800009F41DC160910C0710910D0784E090E0BC
:104C90000E94333B612F82E290E00E94333B0E94EE
:104CA000DB1B1DCF823009F065CF809130049091DD
:104CB0003104892B09F45ECF26E12E9DC0012F9D82
:104CC000900D11248F5A994FDC0150961C920E942E
:104CD000451B50CF882309F495CFF901818988239A
:104CE00009F490CFC501895A994F0E94021B8ACFBF
:104CF000053F8CE51807C9F0A0F027E245EE66EE07
:104D0000063FACE51A0709F07DCFC6010E94EB1FF4
:104D1000E6CE27E245EE65EEF8CF26E241EE60EE04
:104D2000F4CF27E245EE64EEF0CF26E241EE62EEEC
:104D3000ECCF28E241E0EFCF01363DE5130709F45F
:104D400077CF053A4DE5140709F472CF0631ACE58B
:104D50001A0709F03AC580914D068A7A91E009F464
:104D600090E09093180269E2811165E38EEE91E084
:104D70000E94DB090E949C1AB2CE80910C078062CF
:104D800007304CE5140709F49AC080910C07806144
:104D900008305CE5150708F492C080910C07806428
:104DA0008EC00D308CE5180709F49EC0A0F48091E8
:104DB0000C078E7F0B30ACE51A0709F480C0809198
:104DC0000C078C600C30BCE51B0708F478C08091A0
:104DD0000C078D7F74C080910C078F7E0F30ECE53F
:104DE0001E0709F46CC080910C07877F0031FCE539
:104DF0001F0708F464C080910C078F7D60C00D3FD1
:104E00002CE5120709F478C040F505314CE514078C
:104E100009F484C080F403318CE5180709F47AC0E2
:104E200008F472C00E94DB1B90910C07892F97FB3E
:104E300087F9805844C00B3FACE51A0709F44AC013
:104E400008F056C080910D0781600A3FECE51E070F
:104E500009F018CF80930D0715CF0130FDE51F072E
:104E600009F468C0C0F480910D078C7F0F3F3CE5CA
:104E7000130781F380910D07836001154DE5140739
:104E800048F380910D07982F909591708E7F892B14
:104E900090FB81F9DFCF01365DE5150709F450C0BD
:104EA000053A8DE5180709F452C002309DE519074F
:104EB00009F0E8CE60E03FC080910C0782608093EB
:104EC0000C07E0CE80910C078460F9CF80910C072D
:104ED0008860F5CF80910D078260BCCF0E94DB1BFC
:104EE00080910C078068EBCF80910C078B7FE7CF18
:104EF00080910D078E7FAECF80910D078D7FAACF59
:104F000080910C078F7BDBCF0E94DB1B80910C070D
:104F10008F77D5CF80910C07837FD1CF80910C07FD
:104F200082FB992790F921E0922790FB82F990FB70
:104F300083F9C5CF61E08EE090E00E94333BA2CEC2
:104F400090910C07892F8F7E94FF8061B8CF90914C
:104F50000C07892F8E7F90FF8160B1CF809118025E
:104F600069E2811165E38EEE91E00E94B10902CF02
:104F700081608093430761E086950E944D18AFCD14
:104F80004DE858E167E978E10E945F0AA8CD47E95A
:104F900058E16DE878E1F8CF46E554E160E674E168
:104FA000F3CF40E654E166E574E1EECF4CE354E123
:104FB00069E474E1E9CF49E454E16CE374E1E4CFDE
:104FC0004FE254E162E274E1DFCF4AE654E16CE77C
:104FD00074E1DACF4CE754E16AE674E1D5CF0E9480
:104FE000DB1B2FEF34E34CE0215030404040E1F731
:104FF00000C000000E94D60E80910D0782FB88271A
:1050000080F991E089270E94AE1BF6018281008120
:105010001181882309F44EC0C8010E942113F82E83
:10502000682FC8010E94970DB8018F2D0E94F712BA
:105030000E94740BF82E092FA82ED60112961C91EF
:1050400012971596BC90B2943FE0B32280917702FC
:105050008770E9F0912E1123D9F0892F807F803459
:1050600049F090E29F0D983090F0803619F4B6EF39
:10507000FB1669F080910D0782FF09C082E00E9453
:10508000921B809177028770992493948111912CBF
:10509000802E82942FE08222EBE0E81508F476C09F
:1050A000E82DF0E0E558F44C0C94CF3A81E0ABCF1A
:1050B00080E0A9CFC8010E944D0DF82EB5CFF02F8A
:1050C000FF70EF2E802F807F19F0E29490EFE9229D
:1050D0001123B9F0EE2069F080E28F0D883010F0D6
:1050E000A11009C080914D06E82AE0924D060E9469
:1050F0009C1A8F2D49C080914E06E82AE0924E06F8
:10510000F6CF8F2D0E94361FEE2009F43FC080E2BB
:105110008F0D883010F0A11004C08E2D0E940E0D4E
:1051200003C08E2D0E94070D0E949C1A2FC0202FB5
:105130002F70E22E802F807F803219F0E29480EF72
:10514000E822AA2089F031E0A31609F4A3C01123B4
:1051500009F4ACC0BB2009F47BC0F601858180FF57
:10516000C8CF8F70858374C080910D0782FD46C0C3
:105170001123F1F1EE2039F080914D06E82AE092FA
:105180004D060E949C1A80E00E94631F282D285023
:10519000330B2430310510F40E943010112371F0CC
:1051A000007F003619F436EFA31641F080911C02FF
:1051B000823009F03CC283E080931C02992009F4FC
:1051C00077CB8091770280FD73CBD60112961C922B
:1051D0008595859585950E94CA1BC6010E9443242A
:1051E000809177028595859585950E94851B60CB7A
:1051F00080E00E94361FEE2049F28FCF112351F13B
:10520000B11006C080919A028E290E942C1FBECF39
:1052100041E0B41211C082FFB9CF80919A02E82A0E
:10522000E81609F4B3CF0E941B189093990280935B
:105230009802E0929A02AACF55E0B512E3CF0E94FD
:10524000FC0C909119028E2D892B891380931902E1
:105250008E2DDBCFB11003C00E94FC0C12C081E088
:10526000B81213C080914D068E2109F48FCF0E9491
:10527000FC0C909119028E2D8095892389138093BF
:1052800019028E2D0E94251F81CF95E0B91609F4D1
:105290007DCFE2CF112329F0A5E0AB1508F476CF3E
:1052A000D7CFB4E0BB1508F471CFEBCFBB2049F3E7
:1052B000F9E3AF1229C12FEF37EE43E02150304020
:1052C0004040E1F700C000008F2D0E94361F5ECFE6
:1052D000802F86958695837069F0813009F056CFCE
:1052E0008F2D902F9370111102C090E080E00E94EA
:1052F000100A4CCF8F2D902F9370111102C090E0A7
:1053000080E00E94260A42CF802F837091F5111110
:105310003DCF4F2D429546954770440F440F8F2D3A
:105320008F70042E01C0880F0A94EAF72F2D207188
:10533000F4FE07C02FE030E001C0220F4A95EAF7E3
:105340002095302F369536953370323069F050F411
:1053500040919B02313029F0822B84230E94D61B7E
:1053600015CF842B822BFACF282B80919B0282278A
:10537000F5CF8695112311F0802F8170882309F4D1
:1053800005CF4F2D429546954770440F440F8F2D02
:105390008F70042E01C0880F0A94EAF72F2D207118
:1053A000F4FE07C02FE030E001C0220F4A95EAF773
:1053B0002095302F369536953370323069F050F4A1
:1053C00040914807313029F0822B84230E94741BBE
:1053D000DDCE842B822BFACF282B809148078227A1
:1053E000F5CF902F9F70E92E112329F0892F0E946D
:1053F000CA1B8F2D0ACF8F2D0E94251F8E2D0E9434
:10540000851BC4CE8F2DA2EFAA16B1F1AA1570F09C
:10541000B0EFAB16D1F0E1EFAE1691F0112309F425
:1054200067C0B11066CE802F8F712AC0F3EFAF1620
:1054300051F124EFA212F2CF80910D0782FD2FC00F
:10544000802F8F711123D9F21BC0112381F034E01A
:105450003B1508F49BCE202F2F7181E090E001C016
:10546000880F2A95EAF7909148078927AFCF45E042
:105470004B1508F48BCEEFCF802F8F711111BFCF5A
:105480000E94CA1B83CE80E0112309F49FCF81E0E4
:10549000902F9F7101C0880F9A95EAF797CF11233B
:1054A000D1F0809177028770843041F40E94150D0D
:1054B000802F8F710E94851B912C68CE54E05B1564
:1054C000D8F3802F8F71F82E0E94CA1B63E08F2DB6
:1054D0000E94E920F1CF94E09B1530F40E94150D55
:1054E00064E0802F8F71F4CF81E00E94921BE4CFA3
:1054F000BB2079F0893341F4AFEFB7EEE3E0A15080
:10550000B040E040E1F7DECE8FE39CE90197F1F790
:10551000D9CE802F8F7173CFE0E1EF0DE73008F027
:105520005BC0F0E0E957F44C0C94CF3A112309F436
:105530002DCE80913C0291E0892705C010933C025A
:1055400025CE81E0812780933C0220CE81E011238B
:10555000D1F31CCE11111ACE10923C0217CE11239A
:10556000C1F082E080931C0281E080933C020E94A3
:105570001B1890931B0280931A02209175023091A0
:105580007602232B09F402CE909376028093750263
:10559000FDCD80911C02823021F481E080931C02B9
:1055A000F5CD833009F0F2CD10921C0210923C022E
:1055B00010921B0210921A02E9CD112341F0809142
:1055C0003B02882309F4B5CF10923B02DFCD94E073
:1055D0009B1508F4DBCDADCF80913B02BB20D9F009
:1055E000882341F080913C0291E0892780933C021E
:1055F00010923B0211117DCDAFE3BCE91197F1F799
:1056000000C000008F2D0E94361F86E0F601119227
:105610008A95E9F7BBCD882309F4B8CD1111B6CD31
:1056200080913C0291E0892780933C02CDCF81306C
:1056300009F0C4CD10921C0210923C0210921B0281
:1056400010921A02BBCD0031BFE51B0709F442CA14
:105650000131EFE51E0709F459CA7801E7E5FE1AA2
:10566000882309F455CAFFEFEF16F10409F008F496
:1056700081CA033FFCE51F0709F44FCB08F038CB84
:10568000083D3CE5130709F444CB093D4CE51407FC
:1056900009F44FCB073D5CE5150709F0B3CA26E2D4
:1056A00041EE61EE32CB85E0F601DE01119601900C
:1056B0000D928A95E1F7D60112962C9189819A81F3
:1056C0002111FAC80E944D0D182FFEC80631BCE505
:1056D0001B0709F443CC80914D0682720A3CECE52D
:1056E0001E0709F46DCC08F04CC0053C2CE51207F0
:1056F00009F452CC80F5033C4CE5140709F440CC86
:1057000008F045CC023C8CE5180709F07ECC80916E
:10571000430780FF2DCC8E7F809343076091430722
:105720007091440780914507909146070E94A41309
:105730000E94650A80914503816080934503BFEF15
:10574000E0E7F2E0B150E040F040E1F700C00000D7
:105750000E94FA0EC4C9073C9CE5190709F426CC3F
:1057600008F41FCC083CBCE51B0709F424CC42E23A
:1057700054E16FE274E1093CECE51E0709F404CC46
:1057800044CC003DFCE51F0778F40E3C2CE51207E5
:1057900008F0A5C90C3C3CE5130709F41BCC08F440
:1057A00014CC61E081E0E9CB063D5CE5150740F4EF
:1057B000013D8CE5180708F092C90E94A2188FC914
:1057C0000D35100709F48BC920CC0A35ADE51A0751
:1057D00009F46CCC68F40115ECE51E0709F4FFCB65
:1057E0000E3D1C4509F011CC0E94A7140E94FE1E1C
:1057F0000C352DE5120709F4FFCB08F459CC073A14
:105800001D45A1F302CC1F93CF93DF9380914202F9
:10581000807F09F049C080913F02882309F444C089
:1058200080917402D091430260913D0270913E02DA
:10583000A0914002B0914102C62FC72316E0D817AD
:1058400099F190E0109711F0CF3F19F4019687700D
:10585000F6CF189F9001199F300D1124F901EC5BD0
:10586000FD4F41814713F2CF40814613EFCF428174
:105870004111ECCF438154814A1B5B0B483C5105DD
:1058800028F7809142028F70806180934202F90173
:10589000E75BFD4F80818F70806180838DE392E0B4
:1058A0000E9443240E941C0DDF91CF911F91089507
:1058B000A1E1B0E0EEE5FCE20C94803A8C0185E0D9
:1058C000F801DE011D9601900D928A95E1F7F8012D
:1058D000E2808DE3A82E82E0B82E609140027091A4
:1058E00041026115710509F426C190913D02409174
:1058F0003E02892F84238F3F09F41DC1208131810D
:10590000C380D480F0903F02F601E61BF70BFF2026
:1059100009F4DCC080914202582F507FE83CF10529
:1059200008F09FC051116BC0FE2C431314C092139A
:1059300012C0E11010C08F70806180934202C501D7
:105940000E94432480914202F80185838F2D619645
:10595000EAE00C949C3AC114D10429F0822F8323ED
:105960008F3F09F011C180E0F82FF170DF2E80FF2A
:105970003CC0809174024091430256E0841315C0EC
:105980002D873E878D859E850E945013292F229555
:105990002F702230F0F0243018F59F70F1F0F801EC
:1059A0009581907FD1F4D12C1EC090E0589FF001DA
:1059B000599FF00D1124EC5BFD4F6181361306C039
:1059C0006081261303C06281E6120FC001968770C2
:1059D000D5CF9F7011F0882331F3805E883018F3A3
:1059E000C8010E944324FD2CB1CFEE2009F4AECFB4
:1059F00080914202816080934202F12CA7CF431331
:105A000006C0921304C0F801EE2009F479C0C80161
:105A10000E945D13882309F1EE20F9F08091420283
:105A2000803270F020913D0230913E0238872F8302
:105A30001986DB86CA868C87CE0107960E9443248E
:105A400086E0F801ADE3B2E001900D928A95E1F7AE
:105A50000E94032CFF24F39479CFC8010E944324B1
:105A6000F9CF51110AC08DE392E00E94432486E0F1
:105A7000F50111928A95E9F7C0CF43130FC0921335
:105A80000DC0E1100BC0F8018583C8010E944324BA
:105A900086E0F50111928A95E9F758CFC8010E9476
:105AA0005D138823D1F2EE20C1F280914202803250
:105AB00038F220913D0230913E023A8329831B82C5
:105AC000DD82CC828E83CE010196B8CFE83CF10511
:105AD000F8F6FE2CEE2009F243131FC092131DC0EE
