:100000000C949D060C94BA060C94BA060C944932D2
:100010000C94BA060C94BA060C94BA060C94BA0660
:100020000C94BA060C94BA060C94B4200C94F01FED
:100030000C9409260C94BA060C94BA060C94BA06D1
:100040000C94BA060C94BA060C94BA060C94BA0630
:100050000C94BA060C94BC250C94BA060C94BA06FF
:100060000C94BA060C94BA060C94BA060C94BA0610
:100070000C94BA060C94BA060C94BA060C94BA0600
:100080000C94BA060C94BA060C94BA060C94BA06F0
:100090000C94BA060C94BA060C94BA060C94BA06E0
:1000A0000C94BA060C94BA060C94BA06590C5C0C63
:1000B0007A0C870C8E0CAE0CB10CE50C070DA40D60
:1000C000A40D120D140D180D3C0D5D0D600D630D8A
:1000D000850DD012D0120413041372131715A01437
:1000E0001715941307141A141A14AD14DA14B5144E
:1000F000B814C114BB14C414021E291ED21F291E19
:10010000D21F751E981ED21F8D1F9D1F00DA0281FF
:10011000FFD9F1DB20A4A62EAF00A0C000A1C8002B
:10012000AED580A81FD300408D14200000047F3F6F
:100130001F643214643214783C1E1E140A054350A6
:10014000534C4B000A0A00556E646566004C6F778D
:10015000657200526169736500426173650A004C03
:1001600041594552000A0A004D6F640A00436C6D04
:100170006B0051777274000A0A0080818283848543
:10018000868788898A8B8C8D8E8F9091929394A08C
:10019000A1A2A3A4A5A6A7A8A9AAABACADAEAFB0D7
:1001A000B1B2B3B4C0C1C2C3C4C5C6C7C8C9CACB43
:1001B000CCCDCECFD0D1D2D3D400000501050205DD
:1001C00003050405050500060106020603060406EC
:1001D00005060007010702070307040705070008D3
:1001E00001080208030804080508000901090209BA
:1001F00003090409050900000100020003000400CE
:1002000005000001010102010301040105010002D2
:1002100001020202030204020502000301030203B9
:10022000030304030503000401040204030404049B
:1002300005040000000000000000000000000000B5
:1002400000000000000000000000000000000000AE
:100250000000000000007E0F00D4FFFFFFC7000079
:10026000007800000000000000002A2B2800000099
:100270000000000000000000000000000029000055
:1002800000002C1E3420212224342627252E362D32
:100290003738271E1F202122232425263333362ECC
:1002A00037381F0405060708090A0B0C0D0E0F103E
:1002B0001112131415161718191A1B1C1D2F313083
:1002C000232D350405060708090A0B0C0D0E0F1027
:1002D0001112131415161718191A1B1C1D2F313063
:1002E000354C05010980A101850319012AB70015C4
:1002F0000126B700950175108100C0050C0901A108
:1003000001850419012AA002150126A00295017594
:10031000108100C00660FF0961A101096215002675
:10032000FF009520750881020963150026FF0095DE
:100330002075089102C005010906A101050719E011
:1003400029E71500250195087501810295017508B9
:1003500081010507190029FF150026FF0095067584
:100360000881000508190129059505750191029577
:100370000175039101C009025B00030100A0FA09A5
:1003800004000001030101000921110100012240C4
:1003900000070581030800010904010002030000B1
:1003A000000921110100012222000705820320001B
:1003B00001070503032000010904020001030000F6
:1003C00000092111010001223200070584032000E9
:1003D00001120100020000000832FC870201000146
:1003E0000200010C0353006F0066006C0065000002
:1003F000001A034A006F0073006500660041006444
:100400000061006D00630069006B000000040309D7
:10041000042223252628292A2C2D2F303233353645
:10042000383A3B3D3E4042434547494A4C4E505185
:10043000535557595A5C5E6062646668696B6D6FAC
:1004400071737577797B7D7F81838587898A8C8EAF
:1004500090929496989A9C9E9FA1A3A5A7A8AAACB7
:10046000AEAFB1B3B4B6B8B9BBBCBEBFC1C2C3C5F1
:10047000C6C7C9CACBCCCDCED0D1D2D2D3D4D5D693
:10048000D7D7D8D9D9DADADBDBDBDCDCDCDCDCDDC6
:10049000DDDDDDDCDCDCDCDCDBDBDBDADAD9D9D8AA
:1004A000D7D7D6D5D4D3D2D2D1D0CECDCCCBCAC942
:1004B000C7C6C5C3C2C1BFBEBCBBB9B8B6B4B3B171
:1004C000AFAEACAAA8A7A5A3A19F9E9C9A9896940C
:1004D00092908E8C8A89878583817F7D7B797775E1
:1004E00073716F6D6B6968666462605E5C5A5957C0
:1004F000555351504E4C4A4947454342403E3D3B7F
:100500003A3836353332302F2D2C2A292826252308
:100510002207087F0807003E5B4F5B3E003E6B4FA3
:100520006B3E001C3E7C3E1C00183C7E3C18001CB0
:10053000577D571C001C5E7F5E1C0000183C180095
:1005400000FFE7C3E7FF00001824180000FFE7DB07
:10055000E7FF0030483A060E002629792926004098
:100560007F05050700407F05253F005A3CE73C5AC0
:10057000007F3E1C1C0800081C1C3E7F0014227FCC
:100580002214005F5F005F5F0006097F017F0000AB
:100590006689956A0060606060600094A2FFA29422
:1005A0000008047E04080010207E20100008082A9D
:1005B0001C0800081C2A0808001E10101010000C4F
:1005C0001E0C1E0C0030383E383000060E3E0E0663
:1005D0000000000000000000005F000000000700B5
:1005E000070000147F147F1400242A7F2A1200239E
:1005F00013086462003649562050000008070300C3
:1006000000001C224100000041221C00002A1C7F27
:100610001C2A0008083E080800008070300000080E
:1006200008080808000000606000002010080402AC
:10063000003E5149453E0000427F4000007249495A
:100640004946002141494D33001814127F100027FC
:1006500045454539003C4A494931004121110907C6
:1006600000364949493600464949291E0000001410
:100670000000000040340000000008142241001473
:100680001414141400004122140800020159090630
:10069000003E415D594E007C1211127C007F494999
:1006A0004936003E41414122007F4141413E007FA9
:1006B00049494941007F09090901003E41415173FF
:1006C000007F0808087F0000417F41000020404172
:1006D0003F01007F08142241007F40404040007FDE
:1006E000021C027F007F0408107F003E4141413E12
:1006F000007F09090906003E4151215E007F09196A
:1007000029460026494949320003017F0103003F81
:100710004040403F001F2040201F003F4038403FE6
:10072000006314081463000304780403006159494A
:100730004D4300007F4141410002040810200000A9
:100740004141417F0004020102040040404040401A
:10075000000003070800002054547840007F28441C
:10076000443800384444442800384444287F003842
:10077000545454180000087E09020018A4A49C7860
:10078000007F080404780000447D400000204040C1
:100790003D00007F102844000000417F4000007CA5
:1007A00004780478007C0804047800384444443811
:1007B00000FC182424180018242418FC007C0804C9
:1007C00004080048545454240004043F4424003CCA
:1007D0004040207C001C2040201C003C4030403C1D
:1007E000004428102844004C9090907C00446454AD
:1007F0004C44000008364100000000770000000073
:1008000041360800000201020402003C2623263C77
:1008100000000000000000404040F0F8F8FF38FF02
:10082000F8F83FF8F8FF38FFF8F8F04040400000D3
:100830000000000080C0C0C0800000C0C080000078
:100840000080C0C000C0C0000080C0C00000000028
:1008500000C0C0C0C0C000C0C00000000000000058
:100860000000000000000000000000000000000088
:100870000000000000000000000000000000000078
:100880000000000000000000000000000000000068
:10089000C0F0F8FC3E1E06010000007F4141417F90
:1008A000007F4141417F000080C0E07E5B4F5BFEE6
:1008B000C00000C000DCD7DEDEDED7DC00C00000F8
:1008C0000000000000000000000000000000000028
:1008D00000000000000000494949FFFFFFFFE0DF82
:1008E000BFBF00BFBFDFE0FFFFFFFF494949000076
:1008F0000000001F3F6060E0BF1F007F7F071E38C1
:100900001E077F7F007F7F0E1F3B7160000000008D
:10091000007F7F0C0C0C007E7E007F7E0303007F37
:100920007E03037E7E03037F7E000F3E703C063C09
:10093000703E0F00327B49493F7E007F7E030300FB
:100940001E3F69696F2600000000000000000000E3
:10095000030F1F3F3C7870600000007F4141417FE2
:10096000007F4141417F00307B7F7830202030780C
:100970007F3B0003000F7F0F0F0F7F0F000300006E
:100980000000000000000000000000000000000067
:1009900000000000000000010101070F0F7F0F7F22
:1009A0000F0F7E0F0F7F0F7F0F0F07010101000058
:1009B0000000000000000000010100000000000035
:1009C0000000000000000000000000000000000027
:1009D0000000000000000000000000000000000017
:1009E0000000000000000000000000000000000007
:1009F00000000000000000000000000000000000F7
:100A000000000000000000000000000000000000E6
:100A100000000000000000000000000000000000D6
:100A200000000000000000000000000000000000C6
:100A300000000000000000000000000000000000B6
:100A400000000000000000000000000000000000A6
:100A50000000AF00AE35001E001F00200021002264
:100A600000290014001A000800150017002B0004CC
:100A7000001600070009000A00E1001D001B000627
:100A80000019000500E300E200E00002512800A880
:100A9000003500270026002500240023002A00132B
:100AA0000012000C0018001C00340033000F000E70
:100AB000000D000B00E50038003700360010001173
:100AC00000E700E600E40003512C00000035001EA2
:100AD000001F00200021002200290014001A000934
:100AE0000013000A002B0004001500160017000771
:100AF00000E1001D001B00060019000500E300E2F4
:100B000000E00001002800A800350027002600258D
:100B100000240023002A0033001C0018000F000DE1
:100B200000340012000C00080011000B00E5003832
:100B3000003700360010000E00E700E600E4000178
:100B4000002C00000001003A003B003C003D003E4C
:100B50000035001E001F0020002100220001001EA1
:100B6000021F0220022102220201002E002D002E6F
:100B7000022F02300201000100010001000100010A
:100B800000440043004200410040003F0045002770
:100B9000002600250024002300310227022602251A
:100BA0000224022302010031003302330030002FFF
:100BB000000100010001000100010001000100012D
:100BC000000100010001000100010049004600652C
:100BD00000000000000100E200E000E10000003938
:100BE0000001007A007B007C007D00000001000114
:100BF00000010001000100010001000100010001ED
:100C000000010001002A0001000100520001004B18
:100C1000002A004C004F00510050004E000100001F
:100C200000010000000100000001000100010001BE
:100C300000010001000001010101010101010102A7
:100C4000020202020202020203030303030303037C
:100C50000404040404040405050505050606060647
:100C600006070707070708080808090909090A0A03
:100C70000A0B0B0B0C0C0C0D0D0D0E0E0E0F0F0FA7
:100C80001010111111121213131414151516161732
:100C900017181819191A1A1B1B1C1D1D1E1E1F20A0
:100CA00020212222232424252626272829292A2BED
:100CB0002C2D2D2E2F303132323334353637383912
:100CC0003A3B3C3D3E3F404142434445464748490C
:100CD0004A4C4D4E4F50515354555658595A5B5DDE
:100CE0005E5F616264656668696B6C6D6F7072737C
:100CF0007577787A7B7D7E8082838587888A8C8EE3
:100D00008F91939596989A9C9EA0A2A3A5A7A9AB14
:100D1000ADAFB1B3B5B7BABCBEC0C2C4C6C9CBCD06
:100D2000CFD1D4D6D8DBDDDFE2E4E7E9EBEEF0F3B8
:100D3000F5F8FAFDFFFFAA7F554011241FBECFEF43
:100D4000DAE0DEBFCDBF11E0A0E0B1E0E4E0F9E61B
:100D500002C005900D92A43EB107D9F726E0A4EE9B
:100D6000B1E001C01D92A130B207E1F70E94BC06BC
:100D70000C9480340C940000CF93DF93CDB7DEB792
:100D8000E2970FB6F894DEBF0FBECDBF84B7877F62
:100D900084BF0FB6F894A895809160008861809315
:100DA0006000109260000FBE90E080E80FB6F894EB
:100DB00080936100909361000FBE85B7806885BF06
:100DC00085B7806885BF84E698E29093E5018093BB
:100DD000E4010E9434200E9453208091E20084604C
:100DE0008093E20078948091BC028823A1F0109156
:100DF000E9001F709091EC00892F817090FD80E8D0
:100E0000182B1092E9008091E80083FD0E941A1DC2
:100E10001F701093E90082E084BD93E095BD9AEFC6
:100E200097BD80936E001092E6011092E701109238
:100E3000E8011092E9010E941128811102C00E946C
:100E400002280E94582A8093000180910001882383
:100E500021F01092250184E203C084E280932501F1
:100E6000809326010E94582A81110E9403328091AA
:100E7000000180910001882311F090E001C095E00D
:100E80009093F50185E0891B8093F4010AE511E058
:100E9000D8018D918D018F3F11F00E94EE2AB1E0B3
:100EA0000F351B07A9F70FE511E0F80181918F01BC
:100EB0008F3F11F00E94EE2AF1E005361F07A9F7D7
:100EC0008AE0E2E3F2E0DF01282F1D922A95E9F79C
:100ED000EAEEF1E0DF011D928A95E9F70E94F6172C
:100EE000811102C00E94011882E090E00E948733C5
:100EF0008093FA010E94E5179093F7018093F60121
:100F00000E94512BEFE3FCE93197F1F700C000009C
:100F10000E94512B8091320280FF08C06FEF7FEF5B
:100F200080E090E00E94B9330E94AB2583E090E01E
:100F30000E9487330E94EF1B0E94582A882311F0D9
:100F400083E001C080E080932D0280FD02C080E834
:100F500001C080E28093AA030E9497306DE070E0A8
:100F60008FE191E00E94F11C892B09F043C0809130
:100F70002D0263E070E081FD3AC08CE191E00E94B7
:100F8000F11C892BB9F56DE070E08CE091E00E94D6
:100F9000F11C892B79F50E94F125DC01CB01805AE7
:100FA0009541AF4FBF4F8093B5059093B605A09381
:100FB000B705B093B805EDEAF3E080E092E0DF0119
:100FC0009C011D9221503040E1F7F093B405E0936D
:100FD000B3058FEF9FEF9093AC038093AB0381E059
:100FE0008093BA058093B90510922E0203C089E15F
:100FF00091E0C5CF8091F801811138C00E94F617A9
:10100000811104C00E9401180E94ED2D88E090E03B
:101010000E948F336093A5037093A6038093A70368
:101020009093A8038091CF0283608093CF026E7F5C
:1010300071F40E94ED2D88E090E00E948F33609360
:10104000A5037093A6038093A7039093A8030E941F
:101050009F2D0E9442288091A50380FF04C060E07C
:1010600086950E94BA2F81E08093F801809100015B
:10107000811106C084EF80930E0185EF80930D01EE
:1010800080910E01E82FE295EF70F0E041A1282F4A
:101090002F7081E090E0BC0102C0660F771F2A9597
:1010A000E2F79B01362F3095342331A332A1232B55
:1010B00022A320910D01E22FE295EF70F0E031A123
:1010C0002F7001C0880F2A95EAF7982F90959323E7
:1010D00091A392A1892B82A38FE891E00197F1F768
:1010E00000C0000020910E01E22FE295EF70F0E0C9
:1010F00080A190E02F7002C0959587952A95E2F720
:10110000817090910D01E92FE295EF70F0E020A140
:1011100030E09F7002C0359527959A95E2F720FF41
:1011200002C092E001C090E0892B80930C02909164
:10113000000181E0982790930B02891B8093F901AD
:101140000E94582A811102C00E94063281E091E07B
:101150009093C1058093C00540E4642E44244394D9
:10116000512CDE0111967D01FE013D96FCA7EBA7F7
:101170008091BC02853009F045C000E112E1809108
:10118000BC02853009F03AC08091BC02843029F15C
:101190000E9472271092C40528E130E00FB6F8943F
:1011A000A895209360000FBE6092600083B7817F96
:1011B000846083BF83B7816083BF7894889583B749
:1011C0008E7F83BF0FB6F894A895809160008861E8
:1011D00080936000109260000FBE8091BB02882354
:1011E00009F4CDCF0E94512BE2E3F2E0819181110D
:1011F000D3C432E0EC33F307C9F7C1CF0E94F31B2D
:101200000E9478260E94512BC82E81110E94F12540
:1012100062E372E07EA76DA7EBEFF1E0DB0100E097
:1012200010E0902EAD9081918A2549F1B12CDD24FA
:10123000D394982F9D21F1F00E94582A882399F089
:10124000B9A29AA2AD2081E009F480E08BA30E94AC
:10125000FD258160782F9DA38CA349A15AA16BA184
:101260008DA10E94EB0DF801E550FE4F8081D8263C
:10127000D0821AC0B394DD0C76E0B712DACF0F5FDC
:101280001F4F0A30110569F68FEF8EA38FA318A6A2
:101290000E94FD258160782F9AA789A74EA15FA1A2
:1012A00068A58AA50E94EB0D0E94582A8091CE0263
:1012B000882309F4BDC08091CD02E091A503E69595
:1012C000E81BE093C902823059F4F0E0E65CFE4F7F
:1012D000E4910E2F10E03DE6832E35E2932E59C0A7
:1012E000863059F4F0E0E95CFE4FE4910E2F10E0F7
:1012F0002DE5822E25E2922E4CC0893061F4E695D0
:10130000F0E0EC5CFE4FE4910E2F10E09FED892E93
:1013100094E2992E3EC08F3061F4E695F0E0EF5CE8
:10132000FE4FE4910E2F10E080E4882E84E2982E88
:1013300030C0853159F4F0E0E25DFE4FE4910E2FAC
:1013400010E0B7EB8B2EB3E29B2E23C08831A1F0C7
:10135000833249F4ECE2F1E005911491ADE18A2E7B
:10136000A5E29A2E16C0843271F000ED17E0FAEE75
:101370008F2EF1E29F2E0DC008E210E0E1E28E2EEA
:10138000E3E29E2E06C004EF11E07FED872E72E2AD
:10139000972E8091CA02882361F01092CA020E949F
:1013A000482B9093C8028093C7021092CC021092EF
:1013B000CB020E94482BE091C702F091C8029C0129
:1013C0002E1B3F0B2F3F3F4798F52091070222230A
:1013D000B1F0109207022091050230910602821BA3
:1013E000930B8F3F9F4758F4205D3A483093060295
:1013F000209305028091CF0288608093CF02A09055
:10140000CB02B090CC020E0F1F1F1093C8020093A6
:10141000C70287EC92E0F40109958091CB0290918C
:10142000CC02892B29F4AB2819F081E080930702C4
:10143000E0910C025E2F550F550F20910E01E22F07
:10144000E295EF70F0E080A190E02F7002C09595DA
:1014500087952A95E2F78170992740910D01E42F35
:10146000E295EF70F0E020A130E04F7002C03595BA
:1014700027954A95E2F7F901E170FF2720FF02C0A6
:10148000E2E0F0E0E82BF92BE52BE0930C02109161
:101490000B02EF70F0E0EB59FE4F908180910A0251
:1014A000890F80930A0282308CF0E12FF0E0E85F30
:1014B000FD4F80818F5F8083111102C08AEA03C0D3
:1014C000113031F48BE40E940F1C02C0D12C02C0F9
:1014D000DD24D39480910A028F3F94F4E12FF0E051
:1014E000E85FFD4F808181508083111102C089EA3D
:1014F00003C0113019F48EE40E940F1CDD24D39434
:1015000080910A02082E000C990B62E070E00E94A4
:10151000E93380930A02D1100E94E3178091BA0543
:10152000882309F471C180912F02909130020E94AA
:10153000E225C29708F466C00E94FD259093300210
:1015400080932F028DEA93E09093B4058093B305C6
:101550000E94582A60E0882309F450C087E791E090
:101560000E94B2278091C6020E94D30E882331F0D8
:10157000813051F460E08DE691E003C060E082E7E5
:1015800091E00E94C42705C060E088E691E00E94D7
:10159000B22760E085E691E00E94B22760E08FE527
:1015A00091E00E94C4278091C6020E94D30E82302F
:1015B00059F030F0833071F460E08DE491E007C0C1
:1015C00060E089E591E003C060E083E591E00E947E
:1015D000B22705C060E087E491E00E94C42760E084
:1015E00084E491E00E94B2270E94782681FB66275E
:1015F00060F98EE391E00E94C42704C08AE791E07D
:101600000E94B2278091BA05882309F4E2C0209194
:10161000AB033091AC032115310509F4DAC0809198
:101620002E028111D6C0282E312C5201082E02C064
:10163000AA0CBB1C0A94E2F7A9014A215B21452BA5
:1016400011F48F5FF0CF90912D02910165E0220F90
:10165000331F6A95E1F790FD12C08295880F80765E
:1016600080931101220F232F221F330B31952093DA
:101670001401815E809312011092150112C045E0A1
:10168000369527954A95E1F7220F220F220F2093D6
:10169000110110921401295F2093120183E08093BD
:1016A000150124E630E047E050E06FE071E088E7A4
:1016B0000E944E31892B09F08CC080912D0280FD53
:1016C00023C0C10125E0880F991F2A95E1F7AC01DD
:1016D00043555C4F04E610E020E230E060E488E728
:1016E0000E947531892B09F074C00E948C27A09448
:1016F000B0948091AB039091AC03A822B922B09230
:10170000AC03A092AB0365C080E2EDE0F2E0DF0144
:101710001D928A95E9F795E0220C331C9A95E1F722
:10172000E9E7F1E0FAABE9AB45E751E0A9A9BAA9CD
:101730008D91BAABA9ABFA019191AF019101290F3B
:10174000311DB90163557C4F78AB6FA790E0835F83
:101750009D4FFC0107E09F01281B390B842C01C021
:10176000880C2A95EAF76FA578A9912CDB011D91C9
:10177000BD011821202F29192770722E022E000C6E
:10178000330BB12F01C0BB0F7A94EAF77B2E319552
:10179000219531092770332701C016952A95EAF75C
:1017A000712A1081712A7082939428E09212DECF00
:1017B000015031960F3F79F669A97AA96D577140AA
:1017C00009F0B4CF04E610E020E230E04DE052E052
:1017D00085CF8091B9058823B9F00E94F125009149
:1017E000B5051091B6052091B7053091B805DC011B
:1017F000CB01801B910BA20BB30B8F3F9F4FAF4FC1
:10180000BF4710F40E947227C11001C0D1100E947E
:101810008C270E947826909131028913809331029F
:101820008091BC02843009F0A3CC83E08093E9006E
:101830008091E80082FF9CCC8091E80085FF23C066
:101840000E948B2181111DC080E2C82ED12C8E01F7
:101850000F5F1F4F09C08091F100D8018D938D015A
:10186000B1E0CB1AD10869F08091E80085FDF3CF93
:101870008091E8008B778093E8000E948B21882379
:1018800099F391E001C090E08091E8008B7780931C
:10189000E800992309F46CCCE9818E2F90E0FC01DB
:1018A0003197E331F10508F04FC1EA5AFF4F0C942C
:1018B0001F341A8289E0A9C08A81823009F482C16A
:1018C000833051F0813009F03FC10E94F1259B83A4
:1018D0008C837D836E833AC1FE013396ADA5BEA590
:1018E0008D91BEA7ADA781932BA53CA52E173F07D1
:1018F000A9F72CC18A81823009F026C16B817C81D5
:101900008D819E810E9425340E94E0271FC14C8159
:101910006B818A810E943F279D835BC10D811E815F
:101920001027012710278C81CB809A813CE0C39E31
:101930006001112448E7949FC00CD11C1124C80EEB
:10194000D11CC80ED11C612FC60187960E949B3303
:10195000602FC60188960E949B33F8C00E940B2717
:10196000F5C08A818138B1F050F4803809F0EEC0BA
:1019700020E04B816091A7038091A60323C08238A9
:10198000E9F0833809F0E2C020E04091A8036C81BF
:101990008B8118C060E08B810E94BA2F8B818111EE
:1019A00003C00E94A32FD2C08091A50381608093C1
:1019B000A50360E086950E94BA2FC8C08B818093F2
:1019C000A903C4C00E94B82EC1C08A81813899F091
:1019D00030F4803809F0BAC08091A80316C082386C
:1019E00091F0833809F0B2C08091A6038B83809177
:1019F000A7038C83ABC08091A50380FF02C08695AE
:101A000004C080E002C08091A9038B839FC06091D5
:101A1000A5037091A6038091A7039091A8030E944B
:101A2000B92D94C080E14DC081E08A8389EFEDCF6C
:101A30000A811B81102701271027AC80B12C670178
:101A4000C801895F9D4F96012E193F092A153B0554
:101A500008F07CC0093F61E0160730F40E9487332C
:101A6000D60114968C9302C0F60114820F5F1F4FAB
:101A7000FFEFCF1ADF0AE4CF0A811B81102701276D
:101A80001027AC80B12C6701C801895F9D4F96017A
:101A90002E193F092A153B0508F058C0093F21E0DF
:101AA000120728F4D60114966C910E949B330F5FA5
:101AB0001F4FBFEFCB1ADB0AE7CF0E94FB2646C0C1
:101AC00084E08A8343C00A811B81102701271027E5
:101AD000AC80B12C6701C801879696012E193F0989
:101AE0002A153B0598F5003EE1E01E0730F40E9400
:101AF0008733D60114968C9302C0F60114820F5FCF
:101B00001F4FFFEFCF1ADF0AE6CF0A811B81102794
:101B100001271027AC80B12C6701C8018796960178
:101B20002E193F092A153B0588F4003E21E01207D3
:101B300028F4D60114966C910E949B330F5F1F4FBF
:101B4000BFEFCB1ADB0AE9CF8FEF89838091BC020C
:101B5000843009F00DCB1091E9001F709091EC00DA
:101B6000892F817090FD80E8182B82E08093E90036
:101B70008091E80080FF0CC040E050E060E270E03F
:101B8000C7010E94BE218091E8008E778093E80013
:101B90001F701093E900ECCA09BD19BD09B400FE1D
:101BA000FDCF8091D8008F7D8093D8008091E00098
:101BB00082608093E0008091E00081FDFCCF0E9474
:101BC000F31BDDCA86E290E00E9487331B821C82F1
:101BD0001D828E83BBCFEF92FF920F931F93CF9303
:101BE000DF93CDB7DEB767970FB6F894DEBF0FBEB1
:101BF000CDBF4B8B5C8B6D8B7E8B8F8B242F0E8997
:101C00001F8961111092AB020115110531F05F3F80
:101C100031F481E02F3F19F403C081E001C080E07E
:101C200080FD37C0A22FB0E081E090E07C01022E61
:101C300001C0EE0C0A94EAF7852F90E0662319F0B4
:101C40003091690205C0FC01E45CFD4F30813E210A
:101C50003323C1F046E0489F9001499F300D112485
:101C60002A0F3B1F220F331FF901E554FE4F5491F9
:101C7000F901E654FE4F2491FC01E45CFD4F908194
:101C8000E92A06C0FC01E45CFD4FE0948081E82273
:101C9000E08286E0FE013D96DF01982F1D929A9525
:101CA000E9F72D875E876F87198B088BDE01179602
:101CB00001900D928A95E1F7CE0107960E94921944
:101CC00081113EC086E0FE013796DE01119601903B
:101CD0000D928A95E1F7FF81E8856A857B8561151C
:101CE000710531F0EF3F31F481E0FF3F19F403C09B
:101CF00081E001C080E080FD23C02091700230E0CF
:101D0000C9010196877099274091A10250E084177C
:101D1000950779F1F983EA837D836C8396E0929F3E
:101D2000D001939FB00D1124AF58BD4FFE013196E5
:101D300001900D929A95E1F7809370020E94C0186D
:101D400016E08091A102909170028917F9F0189F16
:101D5000C00111248F589D4F0E9492198823B1F021
:101D60008091A10290E00196877099278093A1024B
:101D7000E8CF0E94F31B109270021092A102EAE6D3
:101D8000F2E086E0DF011D928A95E9F767960FB6CB
:101D9000F894DEBF0FBECDBFDF91CF911F910F91A1
:101DA000FF90EF900895982F92959F7019F0892FCA
:101DB00024E001C020E0982F9695969511F02E5FB3
:101DC000892F982F969509F02F5F822F08953F92C3
:101DD0004F925F926F927F928F929F92AF92BF923B
:101DE000CF92DF92EF92FF920F931F93CF93DF93E7
:101DF000CDB7DEB729970FB6F894DEBF0FBECDBFC3
:101E0000FC018081918123813481232B31F09F3F1C
:101E100031F491E08F3F19F403C091E001C090E0EC
:101E200090FD28C77F0185E0DE01119601900D929B
:101E30008A95E1F7F701228189819A81222349F06D
:101E40000E943619182F682F89819A810E946E1B73
:101E500003C00E94411B182F69817A81812F0E9443
:101E600065278C01F7018281882309F4F2C098016B
:101E700022513F452031310508F01DC18FEF93E01D
:101E80000E9487338111EFC0025157E0852E52E046
:101E9000952E002379F08114F4E09F0609F4E3C045
:101EA000C4010E948733811101C001502FEF821AB3
:101EB000920AEFCF1E821F8218861986442443940B
:101EC0004AE0342E84010F5F1F4FC4010E94873304
:101ED0008E831F82882309F4C6C09FEF980F93302A
:101EE00060F48F834E8232E0830E911CC8010E9401
:101EF00087338887811102C0B6C048018E010A5F0E
:101F00001F4FF80120812223E9F2213009F04CC053
:101F10008181813049F46801F2E0CF0ED11CF801D3
:101F200082810E940F1C0AC0823051F46801F2E0E5
:101F3000CF0ED11CF80182810E943E30860186C0FE
:101F4000833049F46801F2E0CF0ED11CF8018281A0
:101F50000E940D30F3CF843019F00F5F1F4F76C011
:101F6000F80122810E5F1F4F80E090E030E02053A7
:101F700031092A30310568F4389EA001399E500D90
:101F80001124C901840F951F0F5F1F4FF801208195
:101F9000EDCF009709F45AC0EFE9FFE03197F1F770
:101FA00000C000000197F5CFE22FF0E0EE59FD4FA1
:101FB0005490822F86958695869590E0FC01EE5A86
:101FC000FD4F64902770712C022E02C075946794A7
:101FD0000A94E2F7F1E06F227724FC01EE5BFD4FFB
:101FE000A490B12C022E02C0B594A7940A94E2F7F3
:101FF00031E0A322BB24FC01EE5CFD4FC490D12C48
:1020000002C0D594C7942A95E2F781E0C822DD2466
:102010006114710419F081EE0E943E30A114B104E4
:1020200019F086EE0E943E30852D0E940F1CAB28D1
:1020300019F086EE0E940D30672819F081EE0E949B
:102040000D30CD2819F08CE20E940F1C0F5F1F4F3E
:1020500058CF00313FE5130709F036C581E00E94F3
:102060009E1B0E94E61C8091A202877009F402C6A2
:10207000F7018281882309F4FDC58091F70182FD73
:10208000F9C582E029960FB6F894DEBF0FBECDBF2A
:10209000DF91CF911F910F91FF90EF90DF90CF9044
:1020A000BF90AF909F908F907F906F905F904F9078
:1020B0003F900C94AA1B0031FFE51F0711F481E04B
:1020C00005C001312FE5120721F482E00E94E41BD4
:1020D000C8CF033FFCE51F0749F406E221EE40EEBE
:1020E00063EF7CE5C7010E948826BDCF043F2CE545
:1020F000120708F066C1083D3CE5130731F407E21A
:1021000025EE45EE68ED7CE5EDCF093D9CE5190730
:1021100031F408E221E045EE69ED7CE5E3CF073DCF
:10212000ECE51E0731F406E221EE41EE67ED7CE5B9
:10213000D9CF882309F47AC11092BD0503309DE5FB
:10214000190758F40A3FECE51E0780F4C8018250D5
:102150009C45449708F054C109C00136FDE51F07AE
:1021600029F0053A2DE5120709F04AC10E94E5174A
:102170009093F7018093F60101313CE5130709F4D0
:10218000C6C008F042C009309CE5190709F49BC09D
:1021900000F50530FCE51F0709F485C078F403302D
:1021A0003CE5130709F478C008F07AC002301C45FA
:1021B00009F0F7C08091F6018160F1C00730ECE5CD
:1021C0001E0709F478C008F07AC08091F60180619A
:1021D000E6C00D302CE5120709F487C058F40B3027
:1021E0008CE5180709F479C008F07BC08091F601EE
:1021F00088606FC00F30ECE51E0709F480C008F05E
:1022000082C08091F601877FCAC00D3F2CE512077E
:1022100009F471C000F505318CE5180709F485C093
:1022200068F40331ECE51E0709F475C008F095C0A9
:102230000E94F31B8091F6018F77B1C00B3F2CE514
:102240001207A9F108F054C00A3F1C4509F0A9C0C3
:102250008091F70140C001309DE5190709F489C05C
:1022600058F40F3FFCE51F0709F45AC008F069C095
:102270008091F70182602FC001363DE5130709F414
:102280007EC0053A8DE5180709F483C002301D456C
:1022900009F087C060E06EC08091F60182607FC067
:1022A0008091F60116C08091F601886078C0809117
:1022B000F70182604FC08091F601806270C080910A
:1022C000F60180646CC00E94F31B8091F601806867
:1022D00066C0846064C081603DC08091F6018E7FDD
:1022E0005EC08091F6018D7F5AC08091F60116C0C4
:1022F0008091F70118C08091F7018D7F2BC08091EC
:10230000F6018F7E4CC08091F6018F7D48C0809190
:10231000F6018F7B44C08091F601877F8B7F3FC0A1
:102320008091F7018D7F8E7F15C08091F60182FB31
:10233000222720F991E0922790FB82F990FB83F904
:102340002EC08091F701982F909591708E7F892BE8
:1023500090FB81F98093F70124C00E94F31B8091C8
:10236000F60187FB222720F991E0922790FB87F95D
:1023700016C061E08EE090E00E949B3312C0809115
:10238000F60184FB222720F991E0922790FB84F943
:1023900006C08091F601982F909590FB80F980936C
:1023A000F6016091F6011091F70184E090E00E943F
:1023B0009B33612F82E290E00E949B330E94F31BCB
:1023C00052CE053FFCE51F0731F406E221EE42EE56
:1023D00065EF7CE587CE053F2CE5120730F407E278
:1023E00025EE44EE64EF7CE57DCE063F3CE5130729
:1023F00009F09FCE07E225EE46EE66EF7CE572CE51
:1024000006318CE5180759F58091AC028A7A91E083
:1024100009F490E090934602882311F065E301C02F
:1024200069E288E492E00E94322616C00631ECE5AB
:102430001E0709F047C080914602882309F44BC368
:1024400085E3E8E4F2E09281891301C012823196BB
:1024500022E0EE34F207B9F70E94781804CE0A356C
:102460009DE5190749F158F40115FCE51F07B1F086
:102470000E3D1C4509F042C00E940118F4CD0B35F9
:102480003DE51307D9F00C351D45C1F58091F701E5
:1024900082FB882780F991E0892711C00E94F31BF5
:1024A0009FEFE4E3FCE09150E040F040E1F700C032
:1024B00000000E94AB25D7CD81E001C080E00E94E2
:1024C000C71B1CC08091AC0282720C3C3CE5130718
:1024D00009F4B0C308F031C3063CECE51E0709F46B
:1024E00095C308F008C3033C2CE5120709F484C324
:1024F00008F0F3C2023C1C4509F454C3F701828181
:1025000000811181882349F0C8010E943619D82E14
:10251000682FC8010E946E1B04C0C8010E94411BA5
:10252000D82EB8018D2D0E9465270E945216082FC3
:10253000C92EB82EF7011281858082943FE0832254
:102540008091A2028770E1F01123D1F0892F807F62
:10255000803449F090E2900F983090F0803619F472
:10256000F6EF0F1769F08091F70182FD09C082E054
:102570000E94AA1B8091A2028770AA24A3948111B1
:10258000A12C9C2C92942FE09222892D90E08C30EB
:10259000910508F04CC2FC01E759FF4F0C941F3421
:1025A0009C2D9F708C2D807FD92E19F0D29490EFA6
:1025B000D9221123B9F0DD2009F4AAC180E2800FED
:1025C000883010F0B11006C08091AC02D82AD092A9
:1025D000AC0205C08091AB02D82AD092AB020E9417
:1025E000781896C1802F0E940D30DD2009F41FC29B
:1025F000005E083090F1BB2081F1D0948091AB0255
:10260000D822D092AB022CC09C2D9F708C2D807F45
:10261000D92E803219F0D29480EFD822BB2021F03D
:1026200021E0B216D9F149C08091F70182FF1BC0A9
:10263000112369F0DD2039F08091AC02D82AD092C4
:10264000AC020E94781880E00E943E30F0C180E029
:102650000E940D30DD2009F4EAC18D2D0E94711811
:102660000E947818E4C1112381F08091AD02882086
:1026700051F031E0831207C0D82AD81609F4D7C127
:10268000D092AD02D4C18D2910C0882021F081E004
:10269000881609F4CCC10E946B1820C0112341F0A8
:1026A00095E0981508F4C3C18D2D0E94051CBFC18B
:1026B000E4E0E81508F4BBC111C0112349F08820FB
:1026C00099F3F701858180FF23C18F708583ECCF5B
:1026D000882021F0F9E3BF1229C120C18D2D0E946D
:1026E000FE1BA5C18C2D86958695837019F08130CF
:1026F00071F09DC1112331F0802F9C2D93700E94A9
:1027000062269BC180E090E00E946226AEC1112348
:1027100031F0802F9C2D93700E944C268EC180E05A
:1027200090E00E944C26A1C18C2D8370A1F511115F
:1027300082C1402F429546954770440F440F202F89
:102740002F7030E0C901042E01C0880F0A94EAF707
:1027500004FF08C02FE030E001C0220F4A95EAF7DD
:10276000209501C020E03C2D3695369533703230EF
:1027700069F040F44091AE02313019F0822B84238D
:1027800002C0842B822B0E94EF1B55C1282B809105
:10279000AE028227F8CF112319F08C2D817001C071
:1027A0008695882309F447C1402F42954695477086
:1027B000440F440F202F2F7030E0C901042E01C0B8
:1027C000880F0A94EAF704FF08C02FE030E001C048
:1027D000220F4A95EAF7209501C020E03C2D36955E
:1027E00036953370323051F070F44091C60231307A
:1027F00019F0822B842308C0842B05C0282B8091DC
:10280000C602822701C0822B0E949A1B14C1FC2D94
:10281000FF70DF2E112339F08F2F0E94E41B802FD1
:102820000E94051C08C1802F0E94FE1B8D2D0E9456
:102830009E1B01C1802F22EFB21681F12B1538F0BB
:1028400030EFB31659F091EFB91619F15DC0E3EF0F
:10285000BE1659F1F4EFBF16C1F056C0112381F036
:1028600024E0281508F4E3C02C2D2F7181E090E0BE
:1028700001C0880F2A95EAF79091C602892720C0E7
:1028800035E0381508F4D3C0EFCF8091F70182FF0F
:102890001AC0112329F08C2D8F7128C01123D9F370
:1028A0008C2D8F710E949E1BC2C0112341F081E0CC
:1028B0009C2D9F7101C0880F9A95EAF701C080E0B6
:1028C0000E949A1BB4C01123A1F00C2D0F71802F10
:1028D0000E94E41B8091F70182FD07C0E8E00E9F93
:1028E000C001112483608093A202802F0E94E41B08
:1028F0009EC081E00E94AA1BF1E0F81508F097C085
:1029000082E00E94AA1B93C0112321F0882019F2B3
:10291000802F9ACE882021F2893341F42FEF37EEB1
:1029200083E0215030408040E1F704C0EFE3FCE950
:102930003197F1F700C00000802F0E940D3077C062
:102940008B2D90E0FC01E05FF109E730F10508F024
:102950003EC0EB58FF4F0C941F34112309F485C07F
:102960009091690281E0892715C01093690265C0C2
:1029700081E081270FC0111160C081E0809369025E
:1029800074C011115AC06FC0112339F082E08093D6
:10299000470281E08093690250C0809147028230F3
:1029A00019F481E08093470280914702833009F057
:1029B0005CC057C0112339F080916802882381F2EE
:1029C000109268023AC0F4E0F81550F64EC08091BB
:1029D00068028820F9F0882341F09091690281E033
:1029E00089278093690210926802112321F0802FB9
:1029F0000E943E3022C08FE39CE90197F1F700C0AE
:102A00000000802F0E940D3086E0F70111928A9518
:102A1000E9F72BC0882389F011110FC0909169024A
:102A200081E0892780936902109268021EC088EFB6
:102A3000890D843010F40E9478261123B1F08C2D7A
:102A4000807F803619F4F6EFBF1679F08091470247
:102A5000823019F483E080934702809147028130ED
:102A600021F41092470210926902AA2009F402C1CF
:102A70008091A20280FDFEC0F701128285958595A6
:102A800085950E94E41BC7010E94E70E8091A20277
:102A900085958595859529960FB6F894DEBF0FBE6E
:102AA000CDBFDF91CF911F910F91FF90EF90DF90FD
:102AB000CF90BF90AF909F908F907F906F905F90DE
:102AC0004F903F900C949E1B01319FE5190709F030
:102AD00000CB82E0C4CA89E2B4CC043C9CE519076F
:102AE00009F48FC0053C1C4509F008CD41E95FE2BF
:102AF0006AE97FE2A3C0093CFCE51F0709F490C026
:102B000070F4073C3CE5130709F485C0083C1C45FC
:102B100009F0F4CC45E85FE269E77FE28FC00A3C48
:102B2000ECE51E0709F481C00B3C1C4509F0E6CC1E
:102B30004BEC5DE26CED7DE281C0013D2CE51207BE
:102B400009F488C098F40E3C8CE5180709F47CC0A1
:102B500008F477C00F3CECE51E0709F478C0003D8F
:102B60001C4509F0CBCC6EE089E07CC0043D2CE52F
:102B7000120709F475C060F4023D8CE5180709F4EA
:102B80006CC0033D1C4509F0B9CC61E088E16FC021
:102B9000053DECE51E0709F468C00D351D4509F437
:102BA00062CAACCC8091A50380FF20C08E7F809349
:102BB000A5036091A5037091A6038091A70390914E
:102BC000A8030E94B92D0E9442288091CF02816003
:102BD0008093CF022FEF30E782E0215030408040D9
:102BE000E1F700C000000E94382D3DCA816080934B
:102BF000A50361E086953BC04AEF5FE263E070E3C6
:102C00001DC043E050E36AEF7FE218C04AE95FE28B
:102C100061E97FE213C049E75FE265E87FE20EC049
:102C200041E65FE26DE67FE209C04DE65FE261E604
:102C30007FE204C04CED5DE26BEC7DE20E943C283B
:102C400012CA61E081E013C065E082E00BC068E079
:102C500086E008C064E18FE005C067E185E102C05D
:102C600062E289E10E942A28FEC961E083E20E94B3
:102C7000BA2FF9C929960FB6F894DEBF0FBECDBFA3
:102C8000DF91CF911F910F91FF90EF90DF90CF9048
:102C9000BF90AF909F908F907F906F905F904F907C
:102CA0003F900895CF93DF938238910569F1B0F496
:102CB0008133910509F46FC048F48932910509F414
:102CC00065C08A32910509F46BC08AC085339105CD
:102CD00009F457C089339105B9F082C0833E91054C
:102CE00071F138F4803E9105B1F0823E910511F109
:102CF00077C0863E9105B9F1873E9105C9F1843EC2
:102D0000910509F06DC024C02091F60120FD53C04B
:102D100021FD51C065C08091F60180FD46C08091C3
:102D2000F70180FF48C08091F60184FD47C183EE22
:102D300090E046C18091F60182FF3AC0F4CF8091C5
:102D4000F60182FD35C08091F70180FD34C0EBCFE4
:102D50008091F70181FF35C08091F60184FD2EC17D
:102D600087EE90E02DC18091F60183FF27C0F4CF5C
:102D70008091F60183FD22C08091F70181FD21C081
:102D8000EBCF8091F60185FD1FC021C08091F60137
:102D900085FD1DC019C08091F60186FD1BC01DC0B8
:102DA0008091F60186FD19C015C089E390E008C145
:102DB00082EE90E005C180EE90E002C186EE90E0E8
:102DC000FFC084EE90E0FCC089E290E0F9C085E3AA
:102DD00090E0F6C08AE290E0F3C081E390E0F0C0BA
:102DE000811532E5930708F069C0811541E5940724
:102DF00028F0982F8827816F906AE2C0883E91055D
:102E000068F5803E910508F0DBC0883A9105B8F47A
:102E1000853A910548F0855AE82FF0E0E358FE4FD7
:102E2000808190E09064CCC08130910509F4C3C0EA
:102E300008F4C4C08430910508F4C0C0C1C08F3B01
:102E4000910508F0BBC0885AE82FF0E0EE0FFF1F95
:102E5000E058FE4F808191819464B2C0811520E5D5
:102E60009207F0F09C0174E0369527957A95E1F78A
:102E7000922F9370482F437021E030E002C0220F60
:102E8000331F4A95E2F73C68392B8F70982F96953F
:102E9000969540E2949FC0011124822B932B90C001
:102EA000811530E4930718F09F70906A89C09C01E7
:102EB0003A9521153F4108F483C080C0EC01C1154B
:102EC00086E5D807E8F5C11525E5D20748F08C2F2F
:102ED0000E94052B8F7190E0982F8827906270C018
:102EE000C11534E5D30728F09C2F8827846F906A9A
:102EF00067C0AE01437055272C2F26952695C11526
:102F0000D34578F481E090E002C0880F991F4A957C
:102F1000E2F740E2249F90011124822B932B9C68BE
:102F20004FC081E090E002C0880F991F4A95E2F7F8
:102F300040E2249F90011124822B932B9A6840C079
:102F4000C11529E5D20788F4C11538E5D30728F063
:102F50009C2F8827806F906A33C0C11547E5D4073E
:102F600068F5CE01992790662BC0C1158AE5D80770
:102F700090F48C2F8F700E94052B94E0D695C79506
:102F80009A95E1F7CF70D0E0DC2FCC27D0699E0175
:102F9000282BC90115C0CE0190568115904270F4BE
:102FA0008D2F8F710E94052B282F2F71CE0199270D
:102FB0009062922B05C081E090E002C080E090E03A
:102FC000DF91CF9108950C94F125CF9384E090E0A8
:102FD0000E948733C82F82E290E00E9487332C2F13
:102FE00030E0A901582BCA01CF91089580E090E00C
:102FF0000E949533893E9E4F11F40C94112880E075
:10300000089569EE7EEF80E090E00E94B93360E0C1
:1030100082E090E00E949B3360E083E090E00E94B9
:103020009B331092AE0260E084E090E00E949B33FC
:1030300060E082E290E00E949B3360E085E090E0F7
:103040000E949B3360E086E090E00E949B336FEF2C
:1030500087E090E00E949B3340E050E0BA0188E0B6
:1030600090E00E94AD3360E08DE090E00E949B33E1
:1030700040E050E0BA0188E190E00E94AD3360E0AA
:1030800087E190E00E949B3340E050E0BA018CE180
:1030900090E00E94AD3360E070E080E290E00E943A
:1030A000B93340E050E0BA0188E190E00E94AD33CE
:1030B00080E00E94E4270E94022840E050E0BA012C
:1030C0008FE090E00E94AD3340E050E0BA0183E130
:1030D00090E00C94AD338091AD0281111092AD025D
:1030E000089580959091AC0289238093AC02089555
:1030F0009091AC028091AB02982B90934802809102
:10310000AD02882389F0892B80934802EAE4F2E03B
:1031100097E080E0915029F021912223D9F38F5F2D
:10312000F9CF81110E946B1848E050E063EA72E029
:1031300088E492E00E946A34892BA9F088E0E8E4F0
:10314000F2E0A3EAB2E001900D928A95E1F7E091F6
:10315000C005F091C105309731F00280F381E02D78
:1031600088E492E00994089580E090E00E9462264D
:1031700080E090E00E944C261092AB020C947818EC
:103180008091A10290917002891719F08F5F87706A
:10319000FBCF08950F931F93CF93DF9380916F021E
:1031A00082958F7009F05DC080916C02882309F4CC
:1031B00058C08091A1021091700260916A027091D2
:1031C0006B02C0916D02D0916E0291E06F3F09F0E9
:1031D00090E0292F06E0811709F443C0209721F0E1
:1031E0007F3F21F030E003C031E001C0322F90E09A
:1031F00030FD34C0089FF001099FF00D1124DF015C
:10320000AF58BD4F11963C911197371327C03C9191
:10321000361324C012963C91129731111FC0139699
:103220004D915C9114974C1B5D0B44365105B0F4E5
:1032300080916F028F70806180936F02EA58FD4F1A
:1032400080818F70806180838AE692E00E94E70E21
:10325000DF91CF911F910F910C94C0180196877048
:10326000BACFDF91CF911F910F910895CF92DF9246
:10327000FF920F931F93CF93DF936C010091C602CF
:103280008091AE02082BC7E0D0E010E0C8010C2E00
:1032900002C0959587950A94E2F780FD04C02197B6
:1032A000A8F7F12C09C0FC2EB6018C2F0E946527CF
:1032B0000E945216019799F38F2DDF91CF911F91A4
:1032C0000F91FF90DF90CF900895CF93DF93EC01A3
:1032D0000E943619BE010E9465270E945216DF9196
:1032E000CF910895FC01808191810E94651992958A
:1032F0009F70963079F010F4925001C09A5092303D
:1033000068F4803F69F018F4883E40F409C0843FB7
:1033100029F406C0883E20F0813F11F080E0089536
:1033200081E008959F92AF92BF92CF92DF92EF9289
:10333000FF920F931F93CF93DF93CDB7DEB76197C3
:103340000FB6F894DEBF0FBECDBF8C0185E0F8014B
:10335000DE011D9601900D928A95E1F7F801E28059
:1033600090916A0260916B0240916D0250916E02E1
:103370004115510531F06F3F31F481E09F3F19F461
:1033800003C081E001C080E0F82FF1709F2E80FD26
:103390001AC1F80130812181C380D4808AE6A82E29
:1033A00082E0B82EF0906C02F601E41BF50BFF20D2
:1033B00009F4C6C080916F02E436F10508F091C0AF
:1033C000482F407F09F050C0621311C093130FC003
:1033D000FE2CE1100CC08F70806180936F02C501DC
:1033E0000E94E70E80916F02F801858337C1CD28D6
:1033F00031F02F3F31F481E03F3F19F403C081E009
:1034000001C080E080FD03C081E08E2502C080E025
:1034100090E0F82FF170FF2E80FF1CC08091A10278
:103420004091700256E0841709F4F6C090E0589F6E
:10343000F001599FF00D1124EF58FD4F61812613C3
:1034400006C06081631303C06281E61203C0019667
:103450008770E9CFFE2CEE2009F400C180916F0245
:10346000816080936F0249C0621306C0931304C049
:10347000E11002C0F80186C0C8010E9472198823B9
:1034800051F1EE2041F120916F02822F82958F70D1
:1034900090E0029774F080916A0290916B02988795
:1034A0008F831986DB86CA862C87CE0107960E94F9
:1034B000E70E86E0F801AAE6B2E001900D928A9547
:1034C000E1F70E94CA180AC06217C9F0C8010E9439
:1034D000721981111EC0C8010E94E70EFF24F394E7
:1034E000BDC0482F407F81F78AE692E00E94E70E38
:1034F00086E0F50111928A95E9F7F12CAFC093139C
:10350000E5CFE110E3CFF8018583C8010E94E70E03
:1035100054C0EE2001F320916F02822F82958F70AC
:1035200090E0029734F280916A0290916B029A8344
:1035300089831B82DD82CC822E83CE010196B7CF98
:10354000E436F105D0F5FE2CEE2029F2621327C0F7
:10355000931325C020916F0220FD18C0822F829501
:103560008F70482F50E04115510581F0F8012583F7
:103570004F30510541F08F5F982F9295907F822FA9
:103580008F70892B8583C8010E94E70E86E0F801C1
:10359000AAE6B2E001900D928A95E1F75FC0C801FA
:1035A0000E947219811185CF80916F028160809392
:1035B0006F02C8010E94E70E51C086E0F50111922A
:1035C0008A95E9F74BC0EE2009F485CFC8010E9427
:1035D0007219F82E882309F47ECF86E0F801AAE656
:1035E000B2E001900D928A95E1F780916A02909184
:1035F0006B020E94651992959F70963051F4863F38
:1036000041F08091690291E089278093690290934B
:1036100068020E94CA1822C03D872E878D859E852C
:103620000E946519292F22952F70223028F49F704F
:1036300039F0811105C00BC0243028F49F7049F483
:10364000805E883020F0C8010E94E70E9F2CF92C84
:1036500005C0F8019581907F99F7F9CF8F2D61967C
:103660000FB6F894DEBF0FBECDBFDF91CF911F9193
:103670000F91FF90EF90DF90CF90BF90AF909F9011
:103680000895292F220F920F990F890F682F6695A1
:1036900066956695982F977083E0689FB001112416
:1036A00040E050E080E0FB01E40FF51FE05BFD4FE0
:1036B000208130E0092E02C0369527950A94E2F762
:1036C00021703327042E01C0220F0A94EAF7822BBF
:1036D0004F5F5F4F4330510531F70895292F220F77
:1036E000920F990F890FE82FE695E695E69587707A
:1036F00051E001C0550F8A95EAF783E0E89FF00199
:103700001124E05BFD4F20E030E070E04081CB0110
:10371000022E02C0969587950A94E2F781708195F2
:1037200084278523842781932F5F3F4F23303105E2
:1037300069F708958093C6020C94B41821E030E034
:1037400001C0220F8A95EAF720958091C602822354
:103750000C949A1B2091A202809582238093A2024E
:10376000982F977099F430E0482F082E000C550BD5
:103770002417350759F09091F70192FD07C0859500
:10378000859585950E949E1B1092A2020895CF9365
:10379000C091F701C2FB992790F9981799F080FB27
:1037A000C2F9C093F7016091F60184E090E00E94B5
:1037B0009B336C2F82E290E00E949B3382E0CF919A
:1037C0000C94AA1BCF91089521E030E001C0220F94
:1037D0008A95EAF78091C602822B0C949A1B8093FB
:1037E000AE020C94B4181092AC0286E0EAE4F2E067
:1037F000DF011D928A95E9F70C94B418882321F013
:103800000E9471180C9478180895882339F09091CB
:10381000AC02892B8093AC020C94781808951F9306
:10382000CF93DF93182F893319F0CAE0D0E002C09C
:10383000C0E5D0E0812F0E943E308FE99FE00197E4
:10384000F1F700C000002197C1F7812FDF91CF91E0
:103850001F910C940D308091BE0287FF11C08091A2
:10386000E80082FD05C08091BC028111F8CF11C033
:103870008091E8008B770BC08091BC02882349F0CF
:103880008091E80080FFF8CF8091E8008E778093E8
:10389000E8000895982F973068F59093E9009817FD
:1038A00039F07091EC002091ED005091F00003C0D0
:1038B000242F762F50E021FD02C09F5FECCF309186
:1038C000EB003E7F3093EB003091ED003D7F309375
:1038D000ED003091EB0031603093EB007093EC0021
:1038E0002093ED005093F0002091EE0027FDE5CFEE
:1038F00080E008958F708093E90081E00895209121
:10390000C4023091C5022617370748F061157105CA
:1039100039F42091E8002E772093E80001C0B90126
:10392000FC0120E06115710579F18091BC028823CA
:10393000F1F18530F1F18091E80083FD3CC0809188
:10394000E80082FD2EC08091E80080FFEBCF20913F
:10395000F3008091F20090E0922B6115710551F017
:103960008830910538F421912093F100615071095C
:103970000196F3CF21E0089709F020E08091E8005C
:103980008E778093E800CECF2111CFCF0AC08091EF
:10399000BC02882361F0853061F08091E80083FDEE
:1039A0000AC08091E80082FFF2CF80E0089582E0B3
:1039B000089583E0089581E008950895BC0184E0AE
:1039C0000C948125BC0183E00C9481258091C60272
:1039D000982F9670963011F4886001C0877F0C9400
:1039E0009A1BEF92FF920F931F93CF93DF93EC01FB
:1039F0007B0164E670E088E70E949D308C01EC0E4C
:103A0000FD1ECE15DF0561F017FD0AC0FE01849191
:103A100064E670E00E941E318C012196892B89F3A7
:103A20000E94A231C801DF91CF911F910F91FF90A9
:103A3000EF9008951F93CF93DF93CDB7DEB7AA978A
:103A40000FB6F894DEBF0FBECDBFEEEBF2E086EC12
:103A500092E02091F10021938E179F07D1F780917A
:103A6000BF02833009F463C030F4813071F08230DA
:103A700009F49DC0B4C08A3009F489C08B3009F4C0
:103A80006EC0893009F0ABC020C08091BE02813A7F
:103A900009F0A5C08091E800877F8093E8008091BD
:103AA000C2029091C302892B21F468E082EB92E07C
:103AB00003C060E080E090E070E00E947F1C809195
:103AC000E8008B778093E8008AC08091BE02813243
:103AD00009F085C08091C2029091C302009719F04D
:103AE000029709F07CC08091E800877F8093E8000E
:103AF0008091E80082FD05C08091BC028111F8CF61
:103B00006EC02091F3008091F20090E0922B02971A
:103B100031F48091F100813011F0863021F48091F0
:103B2000F1008093B1028091E8008B7754C08091BE
:103B3000BE02813A09F053C08091C2029091C30243
:103B4000892B09F04CC08091E800877F8093E800C2
:103B50008091E80080FFFCCF8091160137C08091F2
:103B6000BE028132E1F58091C2029091C302892B9D
:103B7000B1F58091E800877F8093E8000E942B1CBC
:103B80008091C002809316010E94F31B28C080918F
:103B9000BE02813221F58091E800877F8093E800A2
:103BA0000E942B1C8091C1028093B00218C08091AA
:103BB000BE02813AA1F48091E800877F8093E800FB
:103BC0008091E80080FFFCCF8091B0028093F100EB
:103BD0008091E8008E778093E8000E942B1C8091F2
:103BE000E80083FFDFC18091BE029091BF02492FA0
:103BF00050E04A30510508F0D5C1FA01E458FF4FB2
:103C00000C941F34803821F0823809F0CBC108C0F1
:103C10008091BA029091BB02992389F082600FC013
:103C20008091C2028F70873008F0BCC18093E90098
:103C30008091EB0085FB882780F91092E900909134
:103C4000E800977F9093E8008093F1001092F100D4
:103C500070C1282F2D7F09F0A5C1882319F082306B
:103C600061F0A0C18091C002813009F09BC1933006
:103C700009F080E08093BB022EC08091C0028111C8
:103C80002AC08091C2028F702FEF280F263008F0D3
:103C900089C18093E9002091EB0020FF1CC0933084
:103CA00021F48091EB00806214C09091EB00906150
:103CB0009093EB0021E030E0A90102C0440F551FB2
:103CC0008A95E2F74093EA001092EA008091EB00B7
:103CD00088608093EB001092E9008091E800877F74
:103CE0008093E8000E942B1C5DC181115BC1109183
:103CF000C0021F778091E3008078812B8093E300DE
:103D00008091E800877F8093E8000E942B1C8091BF
:103D1000E80080FFFCCF8091E30080688093E3009F
:103D2000111102C082E001C083E08093BC023AC15D
:103D30008058823008F036C12091C0023091C10213
:103D40002C3D53E0350779F583E08A838AE2898345
:103D50004FB7F894DE01139620E03EE051E2E32FE6
:103D6000F0E050935700E49120FF03C0E295EF701C
:103D70003F5FEF708E2F90E0EA3010F0C79601C0E1
:103D8000C0968D939D932F5F243149F74FBF80914B
:103D9000E800877F8093E8006AE270E0CE01019638
:103DA0000E947F1CB4C08091C2029091C302432F35
:103DB000552743305105A9F068F44130510509F405
:103DC00000C14230510509F0EDC08BE590E0E6E717
:103DD000F3E04BC04132510529F14232510589F1DE
:103DE000E1C0C901992781309105A1F058F00297EF
:103DF00009F0D8C0E3EEF3E0E4918E2F90E0E3EE1B
:103E0000F3E030C0EDE0F4E0E4918E2F90E0EDE0DF
:103E1000F4E028C0E1EFF3E0E4918E2F90E0E1EFD1
:103E2000F3E020C08330910508F0BCC0880F991FD3
:103E3000FC01E954FE4F0190F081E02D89E090E013
:103E400014C08330910508F0ADC0FC01EE0FFF1FD8
:103E5000EF54FE4F0190F081E02DDC01A255BE4FE2
:103E60008C9190E0009709F49DC02091E800277F95
:103E70002093E8002091C4023091C5022817390729
:103E800008F4C90140E0009789F12091BC02222387
:103E900009F43DC02530D9F12091E80023FD37C059
:103EA0002091E80022FD2FC02091E80020FFEBCFF9
:103EB0004091F3002091F20030E0342B009759F04C
:103EC0002830310540F444914093F1003196019738
:103ED0002F5F3F4FF3CF41E02830310509F040E03C
:103EE0002091E8002E772093E800CDCF4111CDCF6F
:103EF0000AC08091BC02882351F0853041F0809146
:103F0000E80083FD04C08091E80082FFF2CF809139
:103F1000E8008B778093E80045C0803809F042C004
:103F20008091E800877F8093E8008091BD028093B4
:103F3000F1008091E8008E77D3CE811133C080915B
:103F4000C0029091C1029927029764F58091E80020
:103F5000877F8093E8001091C0021093BD020E94F9
:103F60002B1C111106C08091E30087FD02C081E087
:103F700001C084E08093BC0242E061EC81E00E94D9
:103F80004A1C42E261EC84E00E944A1C42E261EC7D
:103F900082E00E944A1C42E260EC83E00E944A1CDC
:103FA0008091BC028091E80083FF10C08091E800FE
:103FB000877F8093E8008091EB0080628093EB0024
:103FC00005C082E190E0E1EDF3E04FCFAA960FB695
:103FD000F894DEBF0FBECDBFDF91CF911F91089542
:103FE0001F920F920FB60F9211242F933F934F936E
:103FF0005F936F937F938F939F93AF93BF93CF9371
:10400000DF93EF93FF93C091E900CF708091EC00B4
:10401000D82FD17080FDD0E81092E9008091F00097
:10402000877F8093F00078940E941A1D1092E90017
:104030008091F00088608093F000CD2BCF70C0930A
:10404000E900FF91EF91DF91CF91BF91AF919F91E7
:104050008F917F916F915F914F913F912F910F9031
:104060000FBE0F901F901895E8EDF0E080818E7FD5
:1040700080831092E2001092DA001092E100A0EE2C
:10408000B0E08C9181608C9380818F77808319BCA4
:10409000A7EDB0E08C918E7F8C9380818F7E8083A2
:1040A0001092AF020895CF92DF92EF92FF920F939A
:1040B0001F93CF93DF93C8EDD0E088818F7E8883F4
:1040C000E7EDF0E080818160808384E082BF81E061
:1040D0008093AF0288818E7F888302EE10E0F80122
:1040E00010821092DA0081EEC82ED12CF6011082D7
:1040F00088818F77888388818068888388818F7D95
:10410000888319BC1092BC021092BD021092BB02AF
:104110001092BA0290EEE92EF12CF70180818B7F8C
:10412000808388818160888342E060E080E00E9433
:104130004A1CF60180818E7F8083F8018081816036
:104140008083808188608083F70180818E7F808377
:10415000888180618883DF91CF911F910F91FF90BB
:10416000EF90DF90CF9008951F920F920FB60F92AD
:1041700011242F933F934F935F936F937F938F936C
:104180009F93AF93BF93EF93FF938091E10082FFE2
:1041900009C08091E20082FF05C08091E1008B7F21
:1041A0008093E1008091DA0080FF2AC08091D800DE
:1041B00080FF26C08091DA008E7F8093DA008091A4
:1041C000D90080FF18C080E189BD82E189BD09B4B2
:1041D00000FEFDCF81E08093BC028091AF0281118F
:1041E0000FC00E9434200E9453208091E20084601E
:1041F0008093E20005C019BC1092BC021092AF027D
:104200008091E10080FF17C08091E20080FF13C021
:104210008091E2008E7F8093E2008091E2008061D5
:104220008093E2008091D80080628093D80019BC0E
:1042300085E08093BC028091E10084FF30C08091D2
:10424000E20084FF2CC080E189BD82E189BD09B410
:1042500000FEFDCF8091D8008F7D8093D8008091A3
:10426000E1008F7E8093E1008091E2008F7E809359
:10427000E2008091E20081608093E2008091BD02C3
:10428000882311F084E007C08091E30087FD02C01D
:1042900081E001C083E08093BC028091BC028091E8
:1042A000E10083FF27C08091E20083FF23C080915B
:1042B000E100877F8093E10082E08093BC0210924E
:1042C000BD028091E1008E7F8093E1008091E20049
:1042D0008E7F8093E2008091E20080618093E20013
:1042E00042E060E080E00E944A1C8091F00088601B
:1042F0008093F000FF91EF91BF91AF919F918F91CB
:104300007F916F915F914F913F912F910F900FBED1
:104310000F901F9018952091E4003091E50095E6EC
:104320004091EC00842F817040FF23C08091E80011
:1043300080FD1DC08091BC02882399F0853099F0E2
:104340008091EB0085FD11C04091E4005091E500A3
:104350002417350729F3915011F09A01E1CF84E039
:10436000089582E0089583E0089581E0089580E053
:1043700008954091E80042FFDDCF0895EF92FF924B
:104380000F931F93CF93DF937C018B010E948B21AE
:10439000811119C0E70101151105A1F08091E80014
:1043A00085FD0AC08091E8008E778093E8000E9426
:1043B0008B21882381F307C089918093F1000150FC
:1043C0001109E9CF80E0DF91CF911F910F91FF900C
:1043D000EF900895089508958091B1020895CF93C4
:1043E000DF9321E02093E9002FEF3091E800215086
:1043F00035FD06C035ED3A95F1F700002111F5CFF6
:104400002091E80025FF14C0EC0140E050E068E096
:1044100070E00E94BE218091E8008E778093E800D2
:1044200088E0FE01A2EBB2E001900D928A95E1F7DF
:10443000DF91CF910895CF93DF938A3011F481E01B
:1044400003C08D3029F480E0DF91CF910C94AE222F
:10445000C62F682F8091B3059091B40526E0FC012A
:10446000ADEAB5E001900D922A95E1F7603E30F09B
:1044700026E0FC0111922A95E9F70AC0F6E06F9F49
:10448000B00111246F5E7A4F46E050E00E947E3307
:10449000C11137C0C091B305D091B40546E050E0DA
:1044A000BE018DEA95E00E946A34892BC9F19E0114
:1044B0002D5A3340A90185E0569547958A95E1F735
:1044C00081E090E0BC0102C0660F771F4A95E2F7D9
:1044D0004091AB035091AC03462B572B2B5F3F4FC2
:1044E00065E0369527956A95E1F702C0880F991F18
:1044F0002A95E2F7842B952B9093AC038093AB0322
:104500000FC0E091B305F091B4059F012A5F3F4FC2
:104510002E173F0709F4BECF808180958193F8CF95
:104520009E01275A33404091AA03642F70E0C901CD
:104530000E946A33481B463010F4240F311D2115A8
:1045400082E0380710F020E030E023553C4F3093F4
:10455000B4052093B305DF91CF910895CF93E82F51
:104560002091B3053091B4052D5A33404091AA03F0
:10457000642F70E0C9010E946A33481B842FEE2328
:1045800059F066E00E94CF33C82FC150B0F060E010
:1045900080E20E941B22F9CFA901480F511D41154D
:1045A000524018F080E020E030E0280F311D235504
:1045B0003C4F3093B4052093B305CF9108950F93EA
:1045C0001F93CF93DF93EC0100E010E0809129016D
:1045D000282F30E0021713073CF59091270198012E
:1045E000290F311DA901440F551F240F351F2D52CE
:1045F0003D4F869590E04C81081719071CF4442321
:1046000049F002C0411106C04091A803493718F093
:1046100048E701C040E06091A7038091A6030E9493
:10462000052E0F5F1F4FD2CF0E94382D8C8190E056
:104630000196817099278C83DF91CF911F910F9103
:1046400008958F929F92AF92BF92CF92DF92EF9296
:10465000FF920F931F93CF93DF938C01FC01448152
:10466000C42FD0E09E01DE010E9434349B01AC01D6
:104670000E944A346B017C01E0E2F0E0EC1BFD0B90
:10468000A5E5B0E09B01AC010E944A344B015C01FE
:104690009F01DF010E942C349B01AC010E94553424
:1046A0009B01AC012C0D3D1D4E1D5F1DC501B401CC
:1046B0000E94FD33C22FD22F2A3228F4F3E02F9F1D
:1046C000900111240DC025E530E02C1B3109C901F2
:1046D000880F991F280F391F37FF02C02F5F3F4FE8
:1046E00035952795C22FC095F12C85E5E82EED1A5A
:1046F00080912901F816E0F4F1FC02C08E2D01C072
:104700008D2F909127012F2D30E0290F311DA90108
:10471000440F551F240F351F2D523D4F4C2FC937C5
:1047200008F048E76091A7030E94052EF394E0CFBC
:104730000E94382DF8018481811102C091E003C0EC
:10474000803219F49FEF9093240190912401890FF6
:10475000F8018483DF91CF911F910F91FF90EF902B
:10476000DF90CF90BF90AF909F908F9008951F9350
:10477000CF93DF93EC018C81811109C081E08C83A0
:104780001092D10292E090932301809322018091B4
:10479000270190912801891770F4E82FF0E09F011C
:1047A000220F331FE20FF31FED52FD4F11821082D3
:1047B00012828F5FF0CF10E0609129011617D8F5B3
:1047C000E12FF0E070E0CF010E94E9332091270152
:1047D000820F2091D102022E000C330B90E0E217E1
:1047E000F307E4F020912301022E000C330B2E1767
:1047F0003F07A4F09C01220F331F820F931F9C01DF
:104800002D523D4F4091A803493708F048E7609189
:10481000A7038091A6030E94052E0BC0FC01EE0F9A
:10482000FF1F8E0F9F1FFC01ED52FD4F1182108262
:1048300012821F5FC1CF0E94382D809122012091EA
:10484000D102280F2093D10290912301980F9093C9
:10485000230119165CF4022E000C330B4091290140
:1048600050E0415051092417350734F08195809369
:104870002201813009F41C82DF91CF911F910895AC
:104880007F928F929F92AF92BF92CF92DF92EF92E0
:10489000FF920F931F93CF93DF93EC018A8180FFE8
:1048A00003C0BB24BA9402C0BB24B3948C81811191
:1048B0000DC081E0B81206C080912901815080931B
:1048C000D00202C01092D00281E08C83A12C46E479
:1048D000742E80902901A81408F044C0809127010B
:1048E000CA2CD12C8601080F111DC801880F991FF1
:1048F000080F191F0D521D4FF801118210821282EC
:1049000034E0E32EF12C912C8091D002890D873474
:104910002CF0672D0E94DB33892F02C087FD880DA4
:10492000082E000C990BC816D906A9F48091A8038B
:104930008E9DA0018F9D500D11245595479555953D
:104940004795493708F048E798016091A70380919F
:10495000A6030E94052E9B0CF1E0EF1AF108A1F6C8
:10496000A394B7CF0E94382D8091D00291E0B91264
:104970000EC0811107C08091290181508093D0021F
:104980001C820FC081508093D002BC820AC090E08C
:1049900001966091290170E00E94E9338093D00272
:1049A0008C83DF91CF911F910F91FF90EF90DF905B
:1049B000CF90BF90AF909F908F907F900895FF927F
:1049C0000F931F93CF93DF93EC01F12C0FEF10E0C7
:1049D00060912901F61608F5809127012F2D30E00E
:1049E000280F311DC901880F991F280F391F2D521B
:1049F0003D4F4091A803493708F048E770E0C801EF
:104A00000E94E933962F8C816091A703F99E800D57
:104A100011240E94052EF394DBCF0E94382D9A8139
:104A20008C8190FF02C08F5F01C081508C83DF9129
:104A3000CF911F910F91FF9008950F931F93CF93E4
:104A4000DF9300D01F92CDB7DEB78C018091D202E8
:104A500081110AC09E012F5F3F4F48E76FEF0E9410
:104A6000052E8A818093D202F8018481813051F031
:104A700028F0823061F44091D2020AC08091D202C3
:104A800040E007C06091D20240E080E003C040E017
:104A900080E060E00E94842DF801848190E001961E
:104AA00063E070E00E94E93384830F900F900F90D1
:104AB000DF91CF911F910F910895CF93DF93EC0178
:104AC000E5EAF3E0438162818C810E949B2E8C8118
:104AD0008F5F8C83DF91CF910895CF93DF93EC01AB
:104AE000EC81F0E0EF5EFB4F4491E5EAF3E0628198
:104AF00081810E949B2E8C818F5F8C83DF91CF916F
:104B000008958093C9057093CB056093CA05809181
:104B1000BC028430F9F48093E9008FEF9091E800B3
:104B2000815095FD06C095ED9A95F1F70000811131
:104B3000F5CF8091E80085FF0DC040E050E063E0D4
:104B400070E089EC95E00E94BE218091E8008E77AC
:104B50008093E800089587E797E790930108809392
:104B600000089AE088E10FB6F894A8958093600059
:104B70000FBE90936000FFCF78941F920F920FB6F4
:104B80000F9211248F939F93AF93BF938091C5058C
:104B90009091C605A091C705B091C8050196A11DC9
:104BA000B11D8093C5059093C605A093C705B0932A
:104BB000C805BF91AF919F918F910F900FBE0F903D
:104BC0001F9018959C014FB7F8948091C50590915E
:104BD000C605A091C705B091C8054FBF821B930BB6
:104BE00008952FB7F8946091C5057091C60580911E
:104BF000C7059091C8052FBF08952FB7F8948091ED
:104C0000C5059091C605A091C705B091C8052FBFF5
:104C100008951F920F920FB60F9211248F939F93B6
:104C2000AF93BF938091C405811113C08091C505D6
:104C30009091C605A091C705B091C8054196A11DE8
:104C4000B11D8093C5059093C605A093C705B09389
:104C5000C805BF91AF919F918F910F900FBE0F909C
:104C60001F9018959C01FC0132969FEF80E04191C6
:104C7000461789F09F3F19F4411101C0982F8F5FAB
:104C80008630A9F79F3F39F0F901E90FF11D97FD33
:104C9000FA956283089508952091C2053091C30565
:104CA0002817390771F09093C3058093C205E091EE
:104CB000C005F091C105309721F00084F185E02D09
:104CC000099408952091BE053091BF052817390732
:104CD00071F09093BF058093BE05E091C005F091FF
:104CE000C105309721F00680F781E02D09940895E1
:104CF0000E94582A882351F0E091C005F091C10527
:104D0000309721F00190F081E02D099480E0089522
:104D10000F931F93CF93DF93C42FD22FFC01828177
:104D20008823C9F04093BD050E94FD259093BC05E2
:104D30008093BB0580E28C0F883008F057C0C770A5
:104D400081E001C0880FCA95EAF7DF91CF911F91EA
:104D50000F910C94051C8091BD05481330C08091C3
:104D6000BB059091BC050E94E2258436910538F57B
:104D700010E21D0FCD17B9F080E28C0F883040F49F
:104D8000C77081E001C0880FCA95EAF70E94FE1B38
:104D9000183028F581E09D2F977001C0880F9A95F3
:104DA000EAF70E94051C802F0E940F1C1830F0F4B7
:104DB000D77081E001C0880FDA95EAF70AC080E277
:104DC0008C0F883098F4C77081E001C0880FCA95B5
:104DD000EAF7DF91CF911F910F910C94FE1B802F6A
:104DE000DF91CF911F910F910C940F1CDF91CF9108
:104DF0001F910F910895CF93DF93C7E0D2E060E059
:104E0000CE010E949B332196C11584E0D807B9F7E3
:104E1000DF91CF910895CF92DF92EF92FF920F939F
:104E20001F93CF93DF93C0E0D0E08E0108581F4F4F
:104E30006E018CE0C80ED11CFE01EB5AF54FE590D7
:104E4000F4906F2DCE0187960E949B336E2DCE017C
:104E500088960E949B332296CC15DD0569F70C17C6
:104E60001D0731F7E801003E1140F9F6DF91CF91BF
:104E70001F910F91FF90EF90DF90CF9008950F93C7
:104E80001F93CF93DF93C42FD0E0CC0FDD1F2CE016
:104E9000629FC00DD11D112438E7839FC00DD11D25
:104EA0001124CE0187960E948733082F10E0102F1F
:104EB0000027CE0188960E9487339801282BC901CC
:104EC000DF91CF911F910F910895462F843038F4D0
:104ED0007A3028F4663018F4672F0C943F2780E06E
:104EE00090E008958091BA059091B905882389F0E2
:104EF000992369F062E070E083E59AE00E94F11C7A
:104F0000892B19F08091B90508951092B9059091F7
:104F1000B90581E0892708958091BA058823F9F0C1
:104F20000E94F125DC01CB01805A9541AF4FBF4F64
:104F30008093B5059093B605A093B705B093B805D7
:104F40008091B90581110BC062E070E081E59AE0C3
:104F50000E94F11C892B19F481E08093B90580919E
:104F6000B90508951F93CF93DF93EC01162FFE012F
:104F70008491882329F0612F0E941B222196F7CF6C
:104F8000DF91CF911F9108950E94B22781E00C9488
:104F9000AE22FC01680F791F8FEF91E3E617F70748
:104FA00071F02191822728E030E087FF03C0880F4D
:104FB000892701C0880F21503109B9F7EFCF089533
:104FC00086E290E00C949B33CF93C82F811102C0EE
:104FD0006FEF01C062E283E290E00E949B33C11157
:104FE00002C06FEF01C065E084E290E00E949B3355
:104FF000C11102C06FEF01C065E285E290E0CF9180
:105000000C949B3380E00E94E42760E070E0CB01C9
:105010000E94E0270E940B270E94FB2681E00C944F
:10502000E42783E290E00E948733823281F484E2B5
:1050300090E00E948733853051F485E290E00E9431
:10504000873391E0853209F090E0892F01C080E03C
:10505000817008959091A50390FF04C096959817CC
:1050600040F003C0811105C090E0961710F40C9435
:10507000033061E00C94BA2F882311F0FA0101C0CB
:10508000FB010994EDECF2E011828281846082835D
:1050900008956091A503669570E04BE050E087E1CC
:1050A00091E00E945D34892B19F481E08093CE0257
:1050B0000E94482B9093C8028093C7028091CF0230
:1050C00084608093CF02089580E00895AF92BF92EC
:1050D000CF92DF92EF92FF920F931F93CF93DF93C4
:1050E0007C015B016A01809100068A3018F001E0C2
:1050F00010E002C00AE010E0C1E0D0E0F894B50191
:10510000C701F60109957894811115C021960C17F5
:105110001D0794F0CC9F9001CD9F300D300D1124D0
:1051200080E090E045E34A95F1F700000196821790
:105130009307C1F7E3CF81E0DF91CF911F910F91EA
:10514000FF90EF90DF90CF90BF90AF900895CF93F6
:10515000DF93CDB7DEB728970FB6F894DEBF0FBE4A
:10516000CDBF85E0E5EAF3E0DE01119601900D92F6
:105170008A95E1F78091CD029091CE02A091CF0265
:105180008E839F83A88728854091FC055091FD055B
:105190006091FE057091FF053FB7F8948091C505B9
:1051A0009091C605A091C705B091C8053FBF841B6B
:1051B000950BA60BB70B84369105A105B10510F42C
:1051C000222319F1809153019091540188519A4FF3
:1051D0004091520150E04930510510F048E050E054
:1051E000BE016F5F7F4F0E94773485E090E00E94A0
:1051F000EF32882369F00E94F1256093FC057093DB
:10520000FD058093FE059093FF051092CF0281E08B
:1052100028960FB6F894DEBF0FBECDBFDF91CF91B9
:1052200008956F927F928F929F92AF92BF92CF928A
:10523000DF92EF92FF920F931F93CF93DF931F9212
:10524000CDB7DEB7C62E4A015901682E880F770800
:10525000C3010E94EF32882309F473C0C30123E025
:10526000880F991F2A95E1F7FC01E65DFE4F438107
:1052700050E04115510511F041E050E0FC01E65DC0
:10528000FE4F6481758168517A4FCE0101960E946C
:105290007734F40140815181628173812FB7F89492
:1052A0008091C5059091C605A091C705B091C8052C
:1052B0002FBF841B950BA60BB70B84369105A10558
:1052C000B10538F4B701C8010E94C927998189172F
:1052D000D1F10C2C000CDD08C6010E94EF32782EB3
:1052E0008823E1F0E114F104C9F0960183E0220F74
:1052F000331F8A95E1F7F901E65DFE4F438150E0E7
:10530000E416F50608F4A701F901E65DFE4F648195
:10531000758168517A4FC5010E947734B701C80181
:105320000E94C92791E02981281390E0D92ED72027
:1053300089F00E94F125F401608371838283938355
:1053400009C0D12C02C0DD24D394A701B801C50146
:105350000E9477348D2D0F90DF91CF911F910F9187
:10536000FF90EF90DF90CF90BF90AF909F908F9085
:105370007F906F900895CF92DF92EF92FF920F93FC
:105380001F93CF93DF931F92CDB7DEB7EE24E39444
:10539000F12C0FEE15E09E012F5F3F4F40EE55E0E0
:1053A00063E082E00E941129C82E8823C9F1009190
:1053B000F901802F90E09C01285F3D4F7901198110
:1053C000F9018081181BD12E80E01D1484F4DA9439
:1053D000F70180818F5F8083011102C08AEA03C0D8
:1053E000013019F48BE40E940F1C81E0EECF912F65
:1053F00017FD90E0191B112381F01F5FF7018081D9
:1054000081508083011102C089EA03C0013019F480
:105410008EE40E940F1C81E0EECF81110E94E31701
:105420008C2D0F90DF91CF911F910F91FF90EF90F6
:10543000DF90CF900895CF92DF92EF92FF920F937B
:105440001F93CF93DF9300D000D01F92CDB7DEB76C
:105450006B0185E0E82EF12C09EE15E09E012F5F2F
:105460003F4F4CED55E061E080E00E941129882318
:1054700049F095E0FE013196A7EDB5E001900D925F
:105480009A95E1F795E0E7EDF5E0D60101900D92F0
:105490009A95E1F70F900F900F900F900F90DF917A
:1054A000CF911F910F91FF90EF90DF90CF900895D3
:1054B0008091D605811118C08091D80080618093B9
:1054C000D8008AE18A95F1F700C08091D90080FD6B
:1054D00002C082E001C081E08093D605823021F4D1
:1054E0000E9434201092BC0281E09091D605913048
:1054F00009F080E008950F931F930E94582A882393
:1055000021F01F910F910C94F1250E94F12500913B
:10551000E6011091E7012091E8013091E901600F67
:10552000711F821F931F1F910F910895CF93DF93D7
:1055300000D000D0CDB7DEB74091E4055091E5052D
:105540006091E6057091E7052FB7F8948091C50545
:105550009091C605A091C705B091C8052FBF841BC7
:10556000950BA60BB70B84369105A105B10570F11B
:105570000E947B2ADC01CB010296A11DB11D89830B
:105580009A83AB83BC8380914B0190914C018851ED
:105590009A4F40914A0150E04530510510F044E0E7
:1055A00050E0BE016F5F7F4F0E94773484E090E04F
:1055B0000E94EF32882359F00E94F1256093E405A0
:1055C0007093E5058093E6059093E70581E00F90E1
:1055D0000F900F900F90DF91CF910895F894E82FDE
:1055E000E295EF70F0E031A1282F2F7081E090E07C
:1055F00001C0880F2A95EAF7982F9095932391A3DD
:1056000092A1892B82A3789408959091F60192FF3C
:105610000DC0282F2871283019F4877F846006C0B8
:10562000282F2471243011F48B7F886093FF0DC0E4
:10563000282F2871283119F4877E846106C0282F0D
:105640002471243111F48B7E88612091F70120FFB1
:105650000DC0382F3871383019F4877F816006C04B
:10566000382F3171313011F48E7F886021FF0DC0E9
:10567000282F2871283119F4877E816106C0282FD0
:105680002171213111F48E7E886194FD877E089509
:105690000E94582A81110C94FD250E947B2ACB017F
:1056A00008955F926F927F928F929F92AF92BF9276
:1056B000CF92DF92EF92FF920F931F93CF93DF93DE
:1056C000CDB7DEB72F970FB6F894DEBF0FBECDBFB4
:1056D0009E012F5F3F4F79018AE0D9011D928A9583
:1056E000E9F70AE511E069018FE5682E81E0782E7F
:1056F000AA24A394B12C25E6822E21E0922EF80153
:1057000080818F3F09F440C0F894E82FE295EF7054
:10571000F0E021A18F70A50102C0440F551F8A95AA
:10572000E2F7CA01922F982B91A392A18095892329
:1057300082A3789400C0EFE5F1E0512C31E0219193
:105740002F3F89F0A22FA295AF70B0E090968C9178
:1057500090E02F7002C0959587952A95E2F780FD1D
:1057600002C0832F01C080E0582A330F8E169F0697
:1057700031F7D8018C918F3F11F00E94EE2AB0EAE8
:10578000BA95F1F7F60150820F5F1F4FFFEFCF1A66
:10579000DF0A6016710609F0B2CF4AE050E0B701A7
:1057A0008AEE91E00E946A348C01892B41F08AE0F4
:1057B000F701AAEEB1E001900D928A95E1F7F09021
:1057C000F5010115110549F081E08093CE050E9495
:1057D000FD259093CD058093CC058091CE0588233F
:1057E000B9F08091CC059091CD050E94E2250597F6
:1057F00078F0AAEEB1E0EF2DF0E0EE5CFD4F8FEE19
:1058000091E02D9121938A179B07D9F71092CE052D
:105810000115110509F013C10E94582AE091F50104
:105820009E01255F3F4F7901882309F475C085E00B
:10583000D9011D928A95E9F70E2F10E00E5C1D4FDD
:10584000809100068A3048F44BE15AE2B701C80162
:105850000E9466288823B1F10AC08091CF059091FB
:10586000D0050E94E225843F914070F73CC04BEB8D
:1058700059E2B701C8010E946628882319F146E958
:105880005AE2B701C8010E9466288823D9F047EA86
:1058900058E2B701C8010E946628882399F0109247
:1058A00000068091F40190E045E050E0B7018E5C85
:1058B0009D4F0E946A3421E02093D505892BF1F495
:1058C00000E0BFC0809100068F3F19F08F5F80938A
:1058D0000006809100068A3020F30E94FD259093F7
:1058E000D0058093CF058091D505882349F385E0C5
:1058F000F70111928A95E9F71092D505A091F4016C
:10590000B0E0AE5CBD4F85E0FE013B9601900D928C
:105910008A95E1F701E095C0F0E0EE5CFD4FF89468
:1059200085E0A9EEB5E001900D928A95E1F765E07A
:1059300070E089EE95E00E94C9278093E80578948D
:10594000F894E0910B02F0E0E85FFD4F80818B87D7
:105950008093EF0561E070E0C7010E94C927809342
:10596000EE057894F894C090F005D090F105E090A1
:10597000F205F090F3058091D1059091D205A091A8
:10598000D305B091D405C816D906EA06FB06D1F0B6
:10599000C092D105D092D205E092D305F092D40501
:1059A0000E94582A81110EC00E94F125C61AD70AFA
:1059B000E80AF90AC092E601D092E701E092E80114
:1059C000F092E9017894F8948091FB058823A9F17D
:1059D00080FF10C08091F40580FF0AC09091A5035C
:1059E00091609093A50360E086950E94BA2F02C053
:1059F0000E94A32F8091FB0581FF09C020E0409108
:105A0000F7056091F6058091F5050E94B82E80910A
:105A1000FB0582FF09C08091FA05882319F00E94D6
:105A2000492802C00E9442288091FB0583FF03C0E1
:105A300081E08093CA021092FB05789402C001E0D5
:105A400010E0802F2F960FB6F894DEBF0FBECDBFAB
:105A5000DF91CF911F910F91FF90EF90DF90CF904A
:105A6000BF90AF909F908F907F906F905F900895C0
:105A7000309126018091A50380FF16C0E091250199
:105A800063E0E69FF0011124ED52FD4F539A8BB174
:105A9000877F9BB198602FB7F894AF0163E0369F82
:105AA000400D511D112414C08091270190912801AF
:105AB000891720F7E82FF0E0AF01440F551FE40FDE
:105AC000F51FED52FD4F1182108212828F5FF0CFD1
:105AD000E417F50789F0319168E09BB9000000C038
