:100000000C94DE060C94FB060C94FB060C94FA335D
:100010000C94FB060C94FB060C94FB060C94FB065C
:100020000C94FB060C94FB060C94BB130C94AA1ABC
:100030000C9434290C94FB060C94FB060C94FB06E0
:100040000C94FB060C94FB060C94FB060C94FB062C
:100050000C94FB060C9494140C94FB060C94FB0675
:100060000C94FB060C94FB060C94FB060C94FB060C
:100070000C94FB060C94FB060C94FB060C94FB06FC
:100080000C94FB060C94FB060C94FB060C94FB06EC
:100090000C94FB060C94FB060C94FB060C94FB06DC
:1000A0000C94FB060C94FB060C94FB06050109025C
:1000B000A10185020901A100050919012905150001
:1000C00025019505750181029501750381010501E1
:1000D000093009311581257F950275088106093897
:1000E0001581257F950175088106050C0A380215D2
:1000F00081257F950175088106C0C005010980A191
:1001000001850319012AB700150126B7009501756D
:10011000108100C0050C0901A101850419012AA064
:1001200002150126A002950175108100C00660FF2E
:100130000961A1010962150026FF0095207508815B
:10014000020963150026FF00952075089102C0057D
:10015000010906A101050719E029E7150025019508
:1001600008750181029501750881010507190029AB
:10017000FF150026FF009506750881000508190186
:100180002905950575019102950175039101C0003E
:10019000000000000000000000000000000000005F
:1001A000000000000000000000000000000000004F
:1001B0000000007E0F00D4FFFFFFC70000007800A2
:1001C000000000000000002A2B28000000000000B2
:1001D0000000000000000000000029000000002CCA
:1001E0001E3420212224342627252E362D37382769
:1001F0001E1F202122232425263333362E37381F75
:100200000405060708090A0B0C0D0E0F1011121336
:100210001415161718191A1B1C1D2F3130232D35D4
:100220000405060708090A0B0C0D0E0F1011121316
:100230001415161718191A1B1C1D2F3130354C00B8
:100240000501050205030504050505000601060272
:100250000603060406050600070107020703070454
:10026000070507000801080208030804080508003C
:100270000901090209030904090509000001000236
:100280000003000400050000010101020103010454
:10029000010501000201020202030204020502003C
:1002A0000301030203030304030503000401040222
:1002B0000403040404050400DA0281FFD9F1DB2001
:1002C000A4A62EAF00A0C000A1C800AED580A81F74
:1002D000D300408D1420004350534C4B000A0A00B9
:1002E000556E646566004C6F776572005261697384
:1002F0006500426173650A004C41594552000A0A83
:10030000004D6F640A00436C6D6B0051777274008E
:100310000A0A00808182838485868788898A8B8CFB
:100320008D8E8F9091929394A0A1A2A3A4A5A6A72D
:10033000A8A9AAABACADAEAFB0B1B2B3B4C0C1C2A4
:10034000C3C4C5C6C7C8C9CACBCCCDCECFD0D1D205
:10035000D3D400FD377A585A000004E6D6B44602DA
:1003600000210116000000742FE5A3E008E2024C12
:100370005D003D8889C65436C3174FE4E62B87DC01
:1003800061F128B5AEA0A33C3CF45F7424B52C3DCC
:1003900020C7689B3A8E08CE16E28FDD74FFA04F0F
:1003A00008D43D201DD0558F11BBB13287318A341E
:1003B0001491884A492E35E0342D0C400E9A3CEABF
:1003C000F71ADE8FB7A230CF5983F223EF20330C18
:1003D000C056779F9CED4D7DAF3FD6C28995607525
:1003E000A12F2E891DDC43DF675F81D38DC5C3D864
:1003F0001411649D6290F38B2C365D0B6F74C04EAC
:1004000046B3DED00F56EE8AE2DAB7FB9EFD0D5200
:10041000C588DC45FF874E8E61CF38B24884655A67
:100420004D7476CD19495E5DD5F1A4BAB0B017AF61
:10043000D23C9471A8793419EDC7367C4DB86CFF65
:100440000F9FC4D682F61E028C6E040164DC13F783
:1004500069236B5C1B173425A3AACCB1CE1B64584F
:10046000512974EBCF67BC05AF6801AB1F9DBAF88B
:10047000424C73DA53FA234F3ED1FCDE9F32459053
:1004800070FE604F3037942A16C7A89A52BA8BD3A1
:100490002488E60234B33230E25B02F96739FB00AC
:1004A0000ED8394232BA69E6C7B6B4B110946002C8
:1004B0006B794FB8BDC9E9DA587632299FB65385B2
:1004C0005DFDDEF3B603CD39B7DC4DA942249A5465
:1004D00011D726B6B55B33ADEBADF5D7D48445A3C4
:1004E0002FAECFE7FD52418C7535D1ED6688C5C37F
:1004F000B66ED8A73473063DC8E06EBAE463C7C5CC
:100500009C31D05BE096CC2FBE1F53F74A885C9598
:100510000AFE0A7AB34C3248230B57D3C22EFF6C23
:1005200014DF96681887B113771788D21F2EF65EEE
:10053000F6EA81BD9E780C99ADFBAE8ACB3F227C5A
:10054000C2541095BA3303810447A8821B9EBE3E55
:10055000E2CEBBBFD790D6CCA1CDDE15224B7035F5
:1005600056F3C0AEF2CA6FB306516C763356767F3F
:10057000419828CEB0EB9E5CBB68AC9CF7C21DFDD9
:100580006BEB2C49B7166F54BB2852D4BC2222798E
:10059000F621D7640A4DFF6E6B661140C16B40595E
:1005A000A09581608C237F04137E9770EC23369B8B
:1005B000C1F35CD589B57D7896442D57F1A40052DE
:1005C0002FF7134D662E810001E804E3110000634C
:1005D000CCEC15B1C467FB020000000004595A3589
:1005E000001E001F00200021002200290014001A14
:1005F000000800150017002B000400160007000972
:10060000000A00E1001D001B00060019000500E3C0
:1006100000E200E00002512800A800350027002673
:10062000002500240023002A00130012000C0018EB
:10063000001C00340033000F000E000D000B00E51D
:100640000038003700360010001100E700E600E433
:100650000003512C00000035001E001F0020002167
:10066000002200290014001A00090013000A002BC0
:100670000004001500160017000700E1001D001B14
:1006800000060019000500E300E200E00001002878
:1006900000A8003500270026002500240023002A9A
:1006A0000033001C0018000F000D00340012000C75
:1006B00000080011000B00E500380037003600107C
:1006C000000E00E700E600E40001002C000000013D
:1006D000003A003B003C003D003E0035001E001F7C
:1006E0000020002100220001001E021F0220022122
:1006F00002220201002E002D002E022F02300201E4
:10070000000100010001000100010044004300421B
:1007100000410040003F004500270026002500243E
:1007200000230031022702260225022402230201AF
:100730000031003302330030002F000100010001BE
:1007400000010001000100010001000100010001A1
:1007500000010001004900460065000000000001A2
:1007600000E200E000E1000000390001007A007BB7
:10077000007C007D0000000100010001000100017B
:100780000001000100010001000100010001002A38
:100790000001000100520001004B002A004C004FF4
:1007A00000510050004E0001000000010000000157
:1007B000000000010001000100010001000100072C
:1007C000087F0807003E5B4F5B3E003E6B4F6B3E71
:1007D000001C3E7C3E1C00183C7E3C18001C577DD3
:1007E000571C001C5E7F5E1C0000183C180000FFB8
:1007F000E7C3E7FF00001824180000FFE7DBE7FF6E
:100800000030483A060E00262979292600407F0547
:10081000050700407F05253F005A3CE73C5A007F12
:100820003E1C1C0800081C1C3E7F0014227F221462
:10083000005F5F005F5F0006097F017F000066893F
:10084000956A0060606060600094A2FFA294000856
:10085000047E04080010207E20100008082A1C08CE
:1008600000081C2A0808001E10101010000C1E0C96
:100870001E0C0030383E383000060E3E0E060000DA
:10088000000000000000005F0000000007000700FB
:1008900000147F147F1400242A7F2A1200231308D7
:1008A000646200364956205000000807030000002B
:1008B0001C224100000041221C00002A1C7F1C2A2F
:1008C0000008083E08080000807030000008080892
:1008D0000808000000606000002010080402003ECC
:1008E0005149453E0000427F400000724949494657
:1008F000002141494D33001814127F10002745454F
:100900004539003C4A494931004121110907003667
:100910004949493600464949291E00000014000093
:100920000000403400000000081422410014141498
:100930001414000041221408000201590906003E67
:10094000415D594E007C1211127C007F49494936A5
:10095000003E41414122007F4141413E007F4949E3
:100960004941007F09090901003E41415173007F5F
:100970000808087F0000417F4100002040413F01FE
:10098000007F08142241007F40404040007F021C4D
:10099000027F007F0408107F003E4141413E007FFE
:1009A00009090906003E4151215E007F09192946C7
:1009B0000026494949320003017F0103003F4040BE
:1009C000403F001F2040201F003F4038403F006351
:1009D00014081463000304780403006159494D436B
:1009E00000007F4141410002040810200000414105
:1009F000417F0004020102040040404040400000EA
:100A000003070800002054547840007F28444438ED
:100A100000384444442800384444287F0038545463
:100A200054180000087E09020018A4A49C78007FD6
:100A3000080404780000447D4000002040403D0050
:100A4000007F102844000000417F4000007C0478B3
:100A50000478007C0804047800384444443800FCDE
:100A6000182424180018242418FC007C0804040806
:100A70000048545454240004043F4424003C4040A3
:100A8000207C001C2040201C003C4030403C0044A6
:100A900028102844004C9090907C004464544C44AE
:100AA00000000836410000000077000000004136D9
:100AB0000800000201020402003C2623263C00003C
:100AC0000000000000404040F0F8F8FF38FFF8F860
:100AD0003FF8F8FF38FFF8F8F04040400000000011
:100AE000000080C0C0C0800000C0C0800000008046
:100AF000C0C000C0C0000080C0C00000000000C036
:100B0000C0C0C0C000C0C000000000000000000065
:100B100000000000000000000000000000000000D5
:100B200000000000000000000000000000000000C5
:100B30000000000000000000000000000000C0F005
:100B4000F8FC3E1E06010000007F4141417F007F0E
:100B50004141417F000080C0E07E5B4F5BFEC000F2
:100B600000C000DCD7DEDEDED7DC00C00000000005
:100B70000000000000000000000000000000000075
:100B80000000000000494949FFFFFFFFE0DFBFBF51
:100B900000BFBFDFE0FFFFFFFF4949490000000041
:100BA000001F3F6060E0BF1F007F7F071E381E07E9
:100BB0007F7F007F7F0E1F3B716000000000007F81
:100BC0007F0C0C0C007E7E007F7E0303007F7E0383
:100BD000037E7E03037F7E000F3E703C063C703E2A
:100BE0000F00327B49493F7E007F7E0303001E3F9A
:100BF00069696F2600000000000000000000030F7C
:100C00001F3F3C7870600000007F4141417F007FC2
:100C10004141417F00307B7F7830202030787F3B1E
:100C20000003000F7F0F0F0F7F0F00030000000075
:100C300000000000000000000000000000000000B4
:100C40000000000000010101070F0F7F0F7F0F0F51
:100C50007E0F0F7F0F7F0F0F0701010100000000C3
:100C60000000000000000101000000000000000082
:100C70000000000000000000000000000000000074
:100C80000000000000000000000000000000000064
:100C90000000000000000000000000000000000054
:100CA0000000000000000000000000000000000044
:100CB0000000000000000000000000000000000034
:100CC0000000000000000000000000000000000024
:100CD0000000000000000000000000000000000014
:100CE0000000000000000000000000000000000004
:100CF00000000000000000000000000000000000F4
:100D0000AF00AE09025B00030100A0FA0904000075
:100D10000103010100092111010001224000070522
:100D200081030800010904010002030000000921F9
:100D3000110100012222000705820320000107059E
:100D4000030320000109040200010300000009213F
:100D50001101000122810007058403200001120116
:100D600000020000000832FC8702010001020301BA
:100D70001C037600690061006C003A0066003600D2
:100D800034006300320062003300630000000C0393
:100D900053006F0066006C00650000001A034A00F3
:100DA0006F007300650066004100640061006D0023
:100DB000630069006B0000000403090411241FBED6
:100DC000CFEFDAE0DEBFCDBF11E0A0E0B1E0E8E0B8
:100DD000FCE602C005900D92A63BB107D9F725E0CD
:100DE000A6EBB1E001C01D92A23CB207E1F70E9460
:100DF0005B290C94D7350C940000E8EDF0E080817D
:100E00008E7F80831092E2001092DA001092E1004F
:100E1000A0EEB0E08C9181608C9380818F7780838D
:100E200019BCA7EDB0E08C918E7F8C9380818F7E72
:100E300080831092A70508952091E4003091E50089
:100E400095E6A9012091EC00822F817020FF06C059
:100E50008091E80080FF06C080E008952091E800BE
:100E600022FD1AC08091BD05882389F0853089F064
:100E70008091EB0085FD0FC02091E4003091E500EA
:100E800042175307F9F29150E1F684E0089582E0A9
:100E9000089583E0089581E00895EF92FF920F9303
:100EA0001F93CF937C018B010E941C07C82F8111D7
:100EB00017C08091E80085FD0BC08091E8008E7717
:100EC0008093E8000E941C07882399F3C82F08C06C
:100ED000F70181917F018093F1000150110949F7D9
:100EE0008C2FCF911F910F91FF90EF900895CF938A
:100EF000FC018091BD05843001F5C091E900CF70FF
:100F00002091EC00922F917020FD90E8C92B82E097
:100F10008093E9008091E80080FF0CC050E040E041
:100F200060E270E0CF010E944D078091E8008E776B
:100F30008093E800CF70C093E900CF91089580912D
:100F4000B50587FF13C08091E80082FF06C080913D
:100F5000E8008B778093E80004C08091BD05811183
:100F6000F2CF08958091BD058823D9F38091E800E0
:100F700080FFF8CF8091E8008E77ECCF982F909388
:100F8000E900242F762F50E0891731F07091EC00A2
:100F90002091ED005091F00021FD07C09F5F973038
:100FA00071F78093E90081E008953091EB003E7F76
:100FB0003093EB003091ED003D7F3093ED003091A8
:100FC000EB0031603093EB007093EC002093ED0068
:100FD0005093F0002091EE0027FDE0CF80E00895CF
:100FE000CF92DF92EF92FF920F931F93CF93DF93F5
:100FF000C8EDD0E088818F7E8883E7EDF0E08081C6
:101000008160808384E082BF81E08093A70588812E
:101010008E7F888302EE10E0F80110821092DA00D1
:1010200081EEC82ED12CF601108288818F778883BB
:1010300088818068888388818F7D888319BC10921D
:10104000BD051092B4051092B3051092B20590EE52
:10105000E92EF12CF70180818B7F8083888181606C
:10106000888342E060E080E00E94BE07F601808154
:101070008E7F8083F8018081816080838081886099
:101080008083F70180818E7F80838881806188835F
:10109000DF91CF911F910F91FF90EF90DF90CF9054
:1010A0000895FC018091BB059091BC0586179707B8
:1010B000A0F06115710529F49091E8009E77909356
:1010C000E80090E06115710551F4911108C080911C
:1010D000E80082FF34C080E00895BC01F2CF809127
:1010E000BD058823C1F18530C1F18091E80083FD01
:1010F00030C08091E80082FDEACF8091E80080FF57
:10110000E1CF8091F3002091F200382F6115710535
:1011100019F02830310558F091E02830310509F0F8
:1011200090E02091E8002E772093E800CBCF8191CA
:101130008093F100615071092F5F3F4FE7CF80919D
:10114000BD05882341F0853041F08091E80083FFA0
:10115000BECF81E0089582E0089583E00895089568
:101160008091A905089587E797E7909301088093F8
:10117000000888E19AE00FB6F894A8958093600083
:101180000FBE90936000FFCF2FB7F8946091A00539
:101190007091A1058091A2059091A3052FBF08959C
:1011A0009C01FC0132969FEF80E04191461751F07F
:1011B0009F3F19F4411101C0982F8F5F8630A9F726
:1011C0009F3F09F40895290F311D97FD3A95F901C4
:1011D0006283089520919D0530919E052817390757
:1011E00071F090939E0580939D05E0919B05F09191
:1011F0009C05309721F00084F185E02D0994089535
:101200002091990530919A052817390771F090932C
:101210009A0580939905E0919B05F0919C05309784
:1012200021F00680F781E02D09940895FC01680FF4
:10123000791F8FEF91E32191822728E030E087FF2B
:1012400009C0880F892721503109C9F7E617F70728
:1012500091F70895880FF7CF81152CE5920741F497
:101260002091CE023091CF02232B11F490E080E048
:1012700008959091B702803F59F48091B80287FF9A
:101280000DC01092B80291110BC01092AF0208C0AD
:10129000813F81F48091B80218169CF3992381F064
:1012A0008091B9029091BA02892B09F064C0109222
:1012B000AE020895823F49F497FFF0CF1092B70233
:1012C0008091B8028111ECCFE0CF833F19F4191659
:1012D000ACF3E4CF2091B902893F29F41216F4F659
:1012E0001092B902DBCF8A3F19F427FFD7CFF8CF8E
:1012F0002091BA028B3F29F427FFD0CF1092BA0277
:10130000CDCF8C3F19F41216CCF3C8CF843F31F403
:101310008091B6028E7F8093B602C0CF853F21F4C4
:101320008091B6028D7FF7CF863F21F48091B6027F
:101330008B7FF1CF873F21F48091B602877FEBCF7F
:10134000883F21F48091B6028F7EE5CF8D3F31F446
:101350008091B0028E7F8093B002A0CF8E3F21F4A7
:101360008091B0028D7FF7CF8F3F09F097CF8091AA
:10137000B0028B7FF0CF08958091B00280FD16C03F
:1013800081FD16C082FD16C08091AE028823A1F0B7
:10139000883280F428E0829FC001112468E270E066
:1013A0000E943635862F672B39F0089582E0089524
:1013B00084E0089588E0089581E008958091B00266
:1013C00080FD14C081FD14C082FD16C08091AF0263
:1013D000882381F08E3180F420E5829FC0011124A2
:1013E0006EE170E00E943635862F089584E10895FD
:1013F00088E2089588E0089580E50895803F31F4FB
:101400000E94DE0981958093B8020895813F19F406
:101410000E94DE09F8CF823F31F40E94DE098195F7
:101420008093B7020895833F19F40E94DE09F8CF34
:10143000893F29F40E94BC098093B90208958A3F2C
:1014400021F40E94BC098195F7CF8B3F31F40E94B3
:10145000BC0981958093BA0208958C3F19F40E94CB
:10146000BC09F8CF843F31F48091B602816080934B
:10147000B6020895853F21F48091B6028260F7CFCD
:10148000863F21F48091B6028460F1CF873F21F43A
:101490008091B6028860EBCF883F21F48091B6023C
:1014A0008061E5CF8D3F31F48091B00281608093FF
:1014B000B00208958E3F21F48091B0028260F7CF90
:1014C0008F3FB9F78091B0028460F1CF80E008953A
:1014D00078940895F894E82FE295EF70F0E031A148
:1014E000282F2F7081E090E001C0880F2A95EAF73D
:1014F000982F9095932391A392A1892B82A30C946A
:10150000680A9091680292FF06C0282F287128303F
:10151000F9F4877F846093FF06C0282F2871283153
:10152000F1F4877E84612091690220FF06C0382F84
:1015300038713830D9F4877F816021FF06C0282FA9
:1015400028712831D1F4877E816194FD877E0895CA
:10155000282F24712430F9F68B7F8860DCCF282F68
:101560002471243101F78B7E8861DDCF382F3171F2
:10157000313019F78E7F8860E0CF282F217121311B
:1015800021F78E7E8861E1CFCF93DF93EC01823823
:101590009105A9F1D8F58133910509F496C048F574
:1015A0008932910509F48AC08A9709F495C0C1155A
:1015B00022E5D20708F0C1C0C11531E5D30708F014
:1015C00031C1C83ED10508F09CC0C03ED10560F5D0
:1015D000C83AD10508F087C0C53AD10508F0FDC06A
:1015E000C130D10509F12097F9F0C430D105E0F4FC
:1015F00040C08533910509F45AC0C997C1F680915E
:101600006802837089F0C0EED0E00EC0833E910581
:1016100099F170F4803E910501F1823E910539F611
:101620008091680282FD21C0CE01DF91CF910895A3
:10163000863E910561F1873E910571F1843E9105E9
:1016400009F0B5CF8091690281FFEECF80916802E9
:10165000C7EED0E084FD0DC0E7CF8091680280FD29
:1016600017C19091690290FFDFCFC3EED0E084FFF5
:10167000DBCFD0E0C0E0D8CF8091680282FD0BC103
:101680009091690290FDBFCF84FFCECFF2CF8091C1
:10169000680283FDDDCFC8CF8091680283FDFEC064
:1016A0009091690291FFF0CFC4EED0E0BDCF809160
:1016B000680285FFB9CFC9E2D0E0B6CF8091680259
:1016C00085FFB2CFC5E3D0E0AFCF8091680286FF3F
:1016D000ABCFCAE2D0E0A8CF8091680286FFA4CF4A
:1016E000C1E3D0E0A1CFCF3BD10518F6C85AD0E076
:1016F000CC0FDD1FC45BDE4F0990D881C02DD464B0
:1017000093CFC11540E2D40758F4C11581E0D80742
:1017100008F08ACFC03FD10508F4ABCFD06584CFA5
:10172000C11590E4D90708F4A4CFC11520E5D2076C
:1017300008F05BC0DF70D06A77CFC11536E5D307FC
:1017400018F5C11545E5D40708F084C0C11584E536
:10175000D80708F07AC09C2F969596959E01237025
:101760003327C115D34508F462C0C1E0D0E002C000
:10177000CC0FDD1F2A95E2F730E2939FC0011124C0
:10178000C82BD92BDA6850CFC11589E5D80768F482
:10179000C11598E5D90708F068C0C11527E5D2073B
:1017A00008F067CFDD27D0663FCFC1153AE5D307F4
:1017B00008F460C0CE0190568115904208F059CFD0
:1017C0008D2F8F710E94810A90E0982F882788279B
:1017D0009F719C012C2BE90146C0C55AD0E0C75B24
:1017E000DE4FC881D0E0D0641FCFCE01E4E09695F3
:1017F0008795EA95E1F783702C2F2695269523701F
:1018000090E2299F90011124382B8C2F8370C1E026
:10181000D0E002C0CC0FDD1F8A95E2F7C22BD32B9C
:10182000DC6802CFDC2FCC27C16FD06AFDCEC1E0CF
:10183000D0E002C0CC0FDD1F2A95E2F720E2929F94
:10184000C0011124C82BD92BEBCFDC2FCC27C46FC0
:10185000D06AEACE8C2F0E94810AC82FD0E0DC2FFC
:10186000CC27CC27DF71D062DFCEDC2FCC27C06F36
:10187000D06ADACE8C2F8F700E94810A34E0D69520
:10188000C7953A95E1F7CF709C2FEC01D069CCCE8B
:10189000C9E3D0E0C9CEC2EED0E0C6CEC6EED0E0FD
:1018A000C3CE0C94C40880912E02882331F010928C
:1018B0002E0210922D0210922C0208958095909184
:1018C000E60498239093E604089580959091E504AA
:1018D00098239093E5040895109223021092220217
:1018E000109221020895809120028111109220020D
:1018F000089580911F029091EE01981301C0089500
:101900008F5F8770FACF9E3F51F1292F220FE22F70
:10191000E90FEE0FE80F9E2F9770E695E695E69596
:1019200083E0E89FF0011124E253FE4F50E040E0D5
:1019300080E0219130E0092E02C0369527950A9467
:10194000E2F721703327042E01C0220F0A94EAF730
:10195000822B4F5F5F4F4330510559F7089580E068
:1019600008959E3F71F1292F220FE22FE90FEE0F0C
:10197000E80F8E2F877041E001C0440F8A95EAF787
:10198000E695E695E69583E0E89FF0011124E253A1
:10199000FE4F30E020E070E05191DF011197CB0164
:1019A000022E02C0969587950A94E2F78170819580
:1019B0008527842385278C932F5F3F4F2330310564
:1019C00059F70895982F92959F7011F0892F94E000
:1019D000282F2695269511F09E5F822F869509F077
:1019E0009F5F892F08959C013A9521153F4150F53D
:1019F000FC01EE27F170BC0166277270AC01442730
:101A000054709C012227387094FF0EC080E1EF2BA8
:101A100009F480E0672B09F08062452B09F08064AF
:101A2000232B89F08068089581E0EF2B09F480E092
:101A3000672B09F08260452B09F08460232B19F095
:101A40008860089580E00895CF92DF92EF92FF9230
:101A50000F931F93CF93DF936C017B0164E670E0DB
:101A600088E70E945132EC0197FD12C010E000E0BF
:101A7000F601E00FF11F849164E670E00E94CB3222
:101A8000EC01892B29F40F5F1F4F0E151F0581F7FD
:101A90000E944E33CE01DF91CF911F910F91FF90A5
:101AA000EF90DF90CF9008958091E3049091E4044B
:101AB000911103C091E089270895882369F062E0BD
:101AC00070E081E09DE00E94240D892B19F0809147
:101AD000E30408951092E3048091E304EBCFCF93E5
:101AE000C091E3048091E4048823D1F00E94C408EB
:101AF000605A75418F4F9F4F6093DF047093E004ED
:101B00008093E1049093E204C11108C062E070E0A8
:101B10008FEF9CE00E94240D892B29F0C091E304F3
:101B20008C2FCF91089581E08093E304F7CF8093C9
:101B3000A4057093A6056093A5058091BD0584302A
:101B4000F9F48093E9008FEF9091E800815095FDC2
:101B500006C095ED9A95F1F700008111F5CF8091BF
:101B6000E80085FF0DC050E040E063E070E084EAEB
:101B700095E00E944D078091E8008E778093E80001
:101B80000895BC0184E00C94970DBC0183E00C9493
:101B9000970D9C0184E08093E9009FEF8091E8001D
:101BA000915085FD06C085ED8A95F1F700009111F1
:101BB000F5CF8091E80085FF0CC050E040E066E082
:101BC00070E0C9010E944D078091E8008E778093F4
:101BD000E8000895CF93DF93EC0181E08093E90062
:101BE0008FEF9091E800815095FD06C095ED9A9594
:101BF000F1F700008111F5CF8091E80085FF14C056
:101C000050E040E068E070E0CE010E944D07809116
:101C1000E8008E778093E80088E0FE01AAEAB5E04C
:101C200001900D928A95E1F7DF91CF9108959F92EF
:101C3000AF92BF92CF92DF92EF92FF920F931F93DA
:101C4000CF93DF937C015B016A018091570201E031
:101C500010E08A3010F40AE010E0C1E0D0E0F8941F
:101C6000B501C701F6010995982E0E94680A9110E6
:101C700004C021960C171D076CF4892DDF91CF91BC
:101C80001F910F91FF90EF90DF90CF90BF90AF909A
:101C90009F900895CC9F9001CD9F300D300D112461
:101CA00090E080E045E34A95F1F700000196821745
:101CB0009307C1F7D4CF80913902811110C0809170
:101CC000D80080618093D8008AE18A95F1F700C03E
:101CD0008091D90080FF0AC081E08093390281E0C1
:101CE00090913902913009F080E0089582E080936C
:101CF00039020E94FD061092BD05F1CF0E945B0ED5
:101D0000882351F0E0919B05F0919C05309721F0DC
:101D10000190F081E02D099480E008951F93CF9306
:101D2000DF93162F8A3031F481E0DF91CF911F913C
:101D30000C94330F8D3011F480E0F7CFC091DD04A7
:101D4000D091DE0496E0FE01A7EDB4E001900D9283
:101D50009A95E1F7803EA8F186E0FE0111928A95FE
:101D6000E9F7C091DD04D091DE04111136C046E0E0
:101D700050E0BE0187ED94E00E9460359E01275D32
:101D80003240892BA9F52A5F3F4F4091D402642F3E
:101D900070E0C9010E941635481B463010F4240F2C
:101DA000311D211572E0370710F030E020E0295294
:101DB0003D4F3093DE042093DD04DF91CF911F91DE
:101DC0000895F6E08F9FB00111246154784F46E0EA
:101DD00050E0CE010E945735C4CF9E012A5F3F4F8D
:101DE000FE012E173F0719F2808180958193F9CF6C
:101DF000C90145E0969587954A95E1F741E050E0A5
:101E0000BA0102C0660F771F8A95E2F7CB01609195
:101E1000D5027091D602862B972BB9016B5F7F4F4D
:101E2000E5E076956795EA95E1F702C0440F551F06
:101E30006A95E2F7842B952B9093D6028093D50276
:101E4000A2CF1F93CF93DF93EC01162FFE01849155
:101E5000811104C0DF91CF911F910895612F0E94DD
:101E60008E0E2196F3CFCF93382FE091DD04F091C1
:101E7000DE04E75DF2402091D402622F70E0CF01D2
:101E80000E941635281B822F332369F066E00E94DA
:101E90002A35C82FC15010F4CF91089560E080E238
:101EA0000E948E0EF7CF9F01280F311D2115324061
:101EB00018F080E0F0E0E0E08E0F9F2F911D895236
:101EC0009D4F9093DE048093DD04E6CF0E94210FA6
:101ED00081E00C94330FCF93DF93C7E7D2E060E04B
:101EE000CE010E949B352196C11584E0D807B9F731
:101EF000DF91CF9108951F93CF93DF93122F8430FA
:101F000010F5623000F54230F0F428E0829FC00105
:101F1000112424E0629FE00111248C0F9D1FC42F27
:101F2000D0E0CC0FDD1FC80FD91FC95FDD4F632F75
:101F3000CE010E949B35612FCE010196DF91CF919A
:101F40001F910C949B35DF91CF911F9108950F93B2
:101F50001F93CF93DF938901843048F56A3038F5B9
:101F6000463028F521153C4531F42091CE023091C0
:101F7000CF02232BE1F0C42FD0E0CC0FDD1F9CE07B
:101F8000699FC00DD11D112498E7899FC00DD11DF7
:101F90001124612FCE0187960E949B35602FCE01C0
:101FA0008896DF91CF911F910F910C949B35DF9113
:101FB000CF911F910F910895CF93C82F6FEF81118B
:101FC00065EF83E290E00E949B356FEFC11164E002
:101FD00084E290E00E949B356FEFC11161EE85E2D3
:101FE00090E0CF910C949B357F928F929F92AF920D
:101FF000BF92CF92DF92EF92FF920F931F93CF93F6
:10200000DF93CDB7DEB72A970FB6F894DEBF0FBEC9
:10201000CDBFA090CE02B090CF0281E090E090932F
:10202000CF028093CE028FEDC82E85E0D82E10E02F
:10203000760100E015C0F40125913491472D602F01
:10204000812F0E94A70F82E0880E911C739486E076
:102050007812F1CF8CE0E80EF11C0F5F0A3019F016
:102060004701712CE8CF21E030E040E060E0812FB3
:102070000E947B0F21E030E041E060E0812F0E9470
:102080007B0F21E030E040E061E0812F0E947B0F78
:1020900021E030E041E061E0812F0E947B0F1F5F73
:1020A00088E7C80ED11C143009F0C2CF1A821982F9
:1020B0001C821B821E821D8218861F8284E690E08D
:1020C0009A87898707E212E04AE050E0B801CE0122
:1020D00001960E94BF35065F1F4F073782E0180741
:1020E00099F7B092CF02A092CE022A960FB6F8943A
:1020F000DEBF0FBECDBFDF91CF911F910F91FF903B
:10210000EF90DF90CF90BF90AF909F908F907F9097
:10211000089580E00E94DC0F60E086E290E00E947B
:102120009B350E94F40F0E946B0F81E00C94DC0F32
:102130009B01883070F49AE0899FB0011124695D99
:102140007D4F4AE050E0C9010E947D3590E080E07B
:1021500008958FEF9FEF08958F929F92AF92BF9255
:10216000CF92DF92EF92FF920F931F93CF93DF9363
:10217000CDB7DEB72A970FB6F894DEBF0FBECDBF3E
:1021800009EE14E0F12CE12C8BEEC82E8EE1D82E56
:1021900095E1A92E9FE1B92E2BE3822E2EE1922EFE
:1021A000F801D182C082B382A28295828482F58AAC
:1021B000E48ABE016F5F7F4F8E2D0E949810892B9D
:1021C00029F489859A85F801938B828BFFEFEF1AAA
:1021D000FF0A0A5E1F4F88E0E816F10409F72A9605
:1021E0000FB6F894DEBF0FBECDBFDF91CF911F9128
:1021F0000F91FF90EF90DF90CF90BF90AF909F90A6
:102200008F9008950F931F93CF93DF93843038F509
:10221000623028F528E0829FC001112434E0639FDA
:10222000B0011124860F971FC42FD0E0CC0FDD1F03
:10223000C80FD91FC95FDD4FCE010E948D35082F11
:1022400010E0102F0027CE0101960E948D359801D5
:10225000282BC901DF91CF911F910F91089590E034
:1022600080E0F8CF0F931F93CF93DF93843030F546
:102270006A3020F5463010F5C42FD0E0CC0FDD1FBA
:102280002CE0629FC00DD11D112438E7839FC00D43
:10229000D11D1124CE0187960E948D35082F10E0A4
:1022A000102F0027CE0188960E948D359801282B8B
:1022B000C901DF91CF911F910F91089590E080E0C7
:1022C000F8CF462F2091D2023091D302232B91F4E4
:1022D0007E3F39F46E3F71F48091D0029091D1022B
:1022E0000895843038F47A3028F4663018F4672F73
:1022F0000C94321190E080E00895CF92DF92FF922B
:102300000F931F93CF93DF936C010091C1058091D0
:10231000BB02082BC7E0D0E010E0FC2EC8010C2E59
:1023200002C0959587950A94E2F780FD0CC021972D
:10233000A0F7F12C8F2DDF91CF911F910F91FF907E
:10234000DF90CF900895B6018C2F0E9461110E94FA
:10235000C40A019761F3EECFCF93DF93EC010E94A3
:102360007D11BE010E946111DF91CF910C94C40ACE
:10237000FC01808191810E94AC1192959F709630F2
:1023800091F058F4925F9F70923058F4803F19F0AA
:1023900030F4883E30F481E008959A5FF4CF843FB2
:1023A000D1F380E00895883EB0F3813FD1F7F3CFB9
:1023B00083E290E00E948D35853F89F484E290E0CD
:1023C0000E948D35843059F485E290E00E948D356D
:1023D00091E0813E09F090E0892F8170089580E0BE
:1023E000FCCFCF9384E090E00E948D35C82F82E22D
:1023F00090E00E948D35982F8C2FCF9108950F93E8
:102400001F93CF93DF9300D000D0CDB7DEB74091BC
:1024100053025091540260915502709156022FB7A9
:10242000F8948091A0059091A105A091A205B0918A
:10243000A3052FBF841B950BA60BB70B11E08436A9
:102440009105A105B10590F10E945B0E8823C1F1B1
:102450000E94C4086E5F7F4F8F4F9F4F69837A83BE
:102460008B839C838091210190912201895B9D4FF8
:102470004091200150E04530510510F044E050E01B
:10248000BE016F5F7F4F0E946D3584E090E00E9437
:10249000A034182F882351F00E94C408609353027F
:1024A000709354028093550290935602812F0F909F
:1024B0000F900F900F90DF91CF911F910F91089582
:1024C0000E94C408009158021091590220915A02AA
:1024D00030915B02600F711F821F931FBBCF4F9221
:1024E0005F927F928F929F92AF92BF92CF92DF9234
:1024F000EF92FF920F931F93CF93DF930F92CDB77D
:10250000DEB7C62E4A015901482E880F5508C20170
:102510000E94A034782E882309F480C0C20133E0E1
:10252000880F991F3A95E1F7FC01E050FF4F438176
:1025300050E04115510511F041E050E080509F4FAF
:10254000FC0164817581695B7D4FCE0101960E941B
:102550006D35F40140815181628173812FB7F89408
:102560008091A0059091A105A091A205B091A3052D
:102570002FBF841B950BA60BB70B84369105A105C5
:10258000B10540F4B701C8010E9416099981891765
:1025900009F444C00C2C000CDD08C6010E94A034D4
:1025A000782E811113C0712C872D0F90DF91CF9160
:1025B0001F910F91FF90EF90DF90CF90BF90AF9061
:1025C0009F908F907F905F904F900895C60123E079
:1025D000880F991F2A95E1F7FC01E050FF4F4381D6
:1025E00050E0E416F50608F4A70180509F4FFC0167
:1025F00064817581695B7D4FC5010E946D35B701AE
:10260000C8010E94160999818913CDCF0E94C40880
:10261000F4016083718382839383C6CFA701B801DD
:10262000C5010E946D35C0CFCF92DF92EF92FF922D
:102630000F931F93CF93DF9300D000D00F92CDB7AD
:10264000DEB76B0185E0E82EF12C08E412E09E0174
:102650002F5F3F4F4FE352E061E080E00E946F1236
:10266000882349F095E0FE013196AAE3B2E001909B
:102670000D929A95E1F795E0EAE3F2E0D601019038
:102680000D929A95E1F70F900F900F900F900F9089
:10269000DF91CF911F910F91FF90EF90DF90CF903E
:1026A000089569EE7EEF90E080E00E94B93560E029
:1026B00082E090E00E949B3560E083E090E00E9421
:1026C0009B351092BB0260E084E090E00E949B3555
:1026D00060E082E290E00E949B3560E085E090E05F
:1026E0000E949B3560E086E090E00E949B356FEF92
:1026F00087E090E00E949B3540E050E0BA0188E01E
:1027000090E00E94AD3560E08DE090E00E949B3546
:1027100040E050E0BA0188E190E00E94AD3560E011
:1027200087E190E00E949B3540E050E0BA018CE1E7
:1027300090E00E94AD3570E060E080E290E00E94A1
:10274000B93540E050E0BA0188E190E00E94AD3533
:1027500080E00E94DC0F0E94891040E050E0BA0146
:102760008FE090E00E94AD3540E050E0BA0183E197
:1027700090E00C94AD351F920F920FB60F9211247A
:102780002F933F934F935F936F937F938F939F9379
:10279000AF93BF93EF93FF938091E10082FF09C055
:1027A0008091E20082FF05C08091E1008B7F8093E1
:1027B000E1008091DA0080FF24C08091D80080FF82
:1027C00020C08091DA008E7F8093DA008091D9005A
:1027D00080FF9DC080E189BD82E189BD09B400FE12
:1027E000FDCF81E08093BD058091A705811109C0CF
:1027F0000E94FD060E94F0078091E20084608093B1
:10280000E2008091E10080FF17C08091E20080FF2C
:1028100013C08091E2008E7F8093E2008091E200FD
:1028200080618093E2008091D80080628093D8001C
:1028300019BC85E08093BD058091E10084FF2BC029
:102840008091E20084FF27C080E189BD82E189BDDB
:1028500089B5982F917080FFFBCF8091D8008F7D34
:102860008093D8008091E1008F7E8093E100809179
:10287000E2008F7E8093E2008091E200816080938D
:10288000E2008091B405882309F447C084E0809376
:10289000BD058091BD058091E10083FF27C0809137
:1028A000E20083FF23C08091E100877F8093E100F5
:1028B00082E08093BD051092B4058091E1008E7F87
:1028C0008093E1008091E2008E7F8093E20080910E
:1028D000E20080618093E20042E060E080E00E94DC
:1028E000BE078091F00088608093F000FF91EF9127
:1028F000BF91AF919F918F917F916F915F914F9118
:102900003F912F910F900FBE0F901F90189519BCFB
:102910001092BD051092A70574CF8091E30087FD4A
:1029200093E09093BD05B5CF78941F921FB61F9288
:1029300011248F939F93AF93BF938091A0059091A3
:10294000A105A091A205B091A3050196A11DB11DFD
:102950008093A0059093A105A093A205B093A30531
:10296000BF91AF919F918F911F901FBE1F9018959F
:102970009C014FB7F8948091A0059091A105A0917A
:10298000A205B091A3054FBF821B930B08952FB7EB
:10299000F8948091A0059091A105A091A205B09115
:1029A000A3052FBF08950E94C7149C019091B70200
:1029B0008091B802982B21F03093B4022093B30297
:1029C0009091B9028091BA02982B21F03093B20213
:1029D0002093B102E0919B05F0919C05309749F05E
:1029E00082E08093B5020480F581E02D85EB92E0D2
:1029F000099408959F92AF92BF92CF92DF92EF9287
:102A0000FF920F931F93CF93DF93CDB7DEB72F972E
:102A10000FB6F894DEBF0FBECDBF8E010F5F1F4F04
:102A20008AE0D8011D928A95E9F78CE7C82E81E0EB
:102A3000D82EF12CE12CAA24A394B12CF60181917B
:102A40006F018F3F09F444C0F894E82FE295EF70CE
:102A5000F0E021A18F70A50102C0440F551F8A9597
:102A6000E2F7CA01922F982B91A392A18095892316
:102A700082A30E94680A00C0E1E8F1E0912C31E0F5
:102A800021912F3F09F479C0A22FA295AF70B0E039
:102A900090968C9190E02F7002C0959587952A951D
:102AA000E2F780FD6AC0832F982A330F51E0E738A0
:102AB000F50731F7F601319780818F3F11F00E94C1
:102AC0006A0A80EA8A95F1F7F801EE0DFF1D9082FF
:102AD0009FEFE91AF90AA5E0EA16F10409F0AECF72
:102AE0004AE050E0B8018CE592E00E9460357C013C
:102AF000892B41F08AE0F801ACE5B2E001900D923B
:102B00008A95E1F710916702E114F104C1F181E0C7
:102B1000809331020E94C7149093300280932F0259
:102B200080912F02909130020E94B814059778F09E
:102B3000ACE5B2E0E12FF0E0EC55FD4F81E692E02C
:102B40002D9121938A179B07D9F71092310281E0CA
:102B500090E0EF28C1F02F960FB6F894DEBF0FBEBD
:102B6000CDBFDF91CF911F910F91FF90EF90DF903C
:102B7000CF90BF90AF909F90089580E095CF8091C7
:102B800031028111CDCF0E945B0ED82EE0916702F9
:102B9000AE01455F5F4F7A01882309F46CC085E080
:102BA000DA011D928A95E9F70E2F10E00C551D4FA2
:102BB000809157028A3060F544E153E1B701C801C2
:102BC0000E94170E882399F14DEC5FE1B701C8010F
:102BD0000E94170E882359F14FEF51E1B701C80148
:102BE0000E94170E882319F11092570280916602F5
:102BF00090E045E050E0B7018C559D4F0E94603554
:102C000021E020933802892B49F5D12C8D2DA3CFBB
:102C100080913202909133020E94B814843F914017
:102C200058F680913802811112C080E094CF8091D3
:102C300057028F3F29F08F5F809357028A30B0F29E
:102C40000E94C7149093330280933202EACF85E04A
:102C5000F70111928A95E9F710923802A091660265
:102C6000B0E0AC55BD4F85E0FE013B9601900D9262
:102C70008A95E1F7CBCFF0E0EC55FD4FF89485E075
:102C8000A8E4B2E001900D928A95E1F765E070E06A
:102C900088E492E00E941609809347020E94680A25
:102CA000F894E0917902F0E0EA58FD4F80818B873B
:102CB00080934E0261E070E0C7010E941609809384
:102CC0004D020E94680AF894C0904F02D0905002C2
:102CD000E0905102F09052028091340290913502BE
:102CE000A0913602B0913702C816D906EA06FB0653
:102CF000D1F0C0923402D0923502E0923602F092C6
:102D000037020E945B0E81110EC00E94C408C61AD1
:102D1000D70AE80AF90AC0925802D0925902E09202
:102D20005A02F0925B020E94680A7FCF8091E5040C
:102D30009091E604892B8093B80180912E0288231C
:102D400019F10E94C71420912C0230912D02821B90
:102D5000930B8838934110F00E94530C8091B80176
:102D600090912E02892B8093B80120E08AEB91E0AC
:102D7000FC013191CF0131112F5FF1E0803C9F07C1
:102D8000B9F721110E94530C48E050E064E272E070
:102D900088EB91E00E946035892BA9F088E0E8EB90
:102DA000F1E0A4E2B2E001900D928A95E1F7E091A2
:102DB0009B05F0919C05309731F00280F381E02D66
:102DC00088EB91E009940895EF92FF920F931F937F
:102DD000CF93DF93EC018A85811134C0EB80FC80B6
:102DE00087E5F81A26E12E9DC0012F9D900D112434
:102DF000DC01A751BB4F1496ED91FC9115973097CC
:102E000031F054966D917C9181519B4F099586E1EB
:102E10008E9D80018F9D100D112407511B4FF801CD
:102E200087810E94650CF80180850E945E0C0E94DB
:102E30009616188219861B861E821D821092E8043F
:102E40001092E704DF91CF911F910F91FF90EF90C7
:102E50000895CF93DF93EC01898981111BC081E034
:102E6000898B8091E5049F81892B8093E504809173
:102E7000E6049885892B8093E6040E949616EA81E1
:102E8000FB81309739F06C897D89CE010696DF9100
:102E9000CF910994DF91CF91089590E080E00E9456
:102EA000000990E080E00E94EA081092E6040E9487
:102EB000961686E0E5EBF2E0DF011D928A95E9F7D0
:102EC0001092AF021092AE021092B0020C94D31482
:102ED0008093C1050C944D178091C105982F967071
:102EE000963019F488600C946817877FFCCF21E036
:102EF00030E001C0220F8A95EAF720958091C10544
:102F000082230C94681790912302809589238093E3
:102F10002302282F277091F4282F082E000C330B42
:102F20009217130659F09091690292FD07C085959A
:102F3000859585950E9477170C946C0C0895CF9316
:102F4000C0916902C2FB992790F9981799F080FB0C
:102F5000C2F9C09369026091680284E090E00E9427
:102F60009B356C2F82E290E00E949B3582E0CF91EE
:102F70000C948317CF91089521E030E001C0220F17
:102F80008A95EAF78091C105822B0C94681780938B
:102F9000BB020C944D171092E504EAEBF1E086E0D9
:102FA000DF011D928A95E9F70C944D171F93CF937B
:102FB000DF93CDB7DEB7AA970FB6F894DEBF0FBE8A
:102FC000CDBF85EB95E02091F100DC012D93CD0183
:102FD000B5E08D3B9B07B9F78091B605833009F4C6
:102FE00072C0B8F4813009F449C0823009F4B3C02A
:102FF0008091E80083FF96C28091B5059091B60557
:103000009A3008F08FC2E92FF0E0E752FA4C0C94A6
:103010004A358A3009F48EC08B3009F471C089308A
:1030200039F78091B505813219F78091B9059091F2
:10303000BA05009711F00297D9F68091E800877FD2
:103040008093E8008091E80082FF38C09091F300FF
:103050008091F200029731F48091F100813011F0FB
:10306000863021F48091F1008093A9058091E800D9
:103070008B778093E8000E949F07BACF8091B505B7
:10308000813A09F0B5CF8091E800877F8093E8000E
:103090008091B9059091BA05892B61F468E08AEABC
:1030A00095E070E00E9451088091E8008B77809352
:1030B000E8009ECF60E090E080E0F3CF8091BD0516
:1030C0008111C0CF95CF8091B505813A09F090CF9D
:1030D0008091B9059091BA05892B09F089CF80912B
:1030E000E800877F8093E8008091E80080FFFCCFB4
:1030F000809140018093F1008091E8008E77B9CFF4
:103100008091B505813209F073CF8091B905909116
:10311000BA05892B09F06CCF8091E800877F8093F6
:10312000E8000E949F078091B705809340010E94AC
:10313000CB175ECF8091B505813209F059CF8091D0
:10314000E800877F8093E8000E949F078091B80580
:103150008093A8054DCF8091B505813A09F048CFFD
:103160008091E800877F8093E8008091E80080FFED
:10317000FCCF8091A805BECF803899F0823809F045
:10318000D1C18091B9058F70873008F0CBC1809391
:10319000E9008091EB0085FB882780F91092E90017
:1031A00006C08091B2059091B30591118260909113
:1031B000E800977F9093E8008093F1001092F1006F
:1031C0008091E8008E77AAC1882309F498C18230E3
:1031D00009F0A8C18091B70581119BC18091B90503
:1031E0008F702FEF280F263008F09CC18093E900E4
:1031F0002091EB0020FF8DC1933031F48091EB00E2
:1032000080628093EB0085C19091EB009061909378
:10321000EB0021E030E001C0220F8A95EAF720930D
:10322000EA001092EA008091EB008860EACF8111F9
:1032300079C11091B7051F778091E3008078812BC9
:103240008093E3008091E800877F8093E8000E94EC
:103250009F078091E80080FFFCCF8091E3008068A9
:103260008093E30082E0111183E08093BD055AC191
:103270008058823008F056C12091B7053091B805CA
:103280002C3DE3E03E07A1F583E08A838AE289834F
:103290004FB7F894DE01139620E03EE051E2E32FB1
:1032A000F0E050935700E49120FF03C0E295EF70E7
:1032B0003F5FEF708E2F90E0EA30C0F0C7968D939D
:1032C0009D932F5F243159F74FBF8091E800877F8E
:1032D0008093E8006AE270E0CE0101960E945108F6
:1032E0008091E8008B778093E8001CC1C096E7CFFF
:1032F0008091B9059091BA05432F55274330510568
:1033000009F44AC078F54130510509F485C08BE5D0
:1033100090E0E3E0FDE04230510509F003C1209167
:10332000E800277F2093E8002091BB053091BC0581
:103330008217930708F49C0140E02115310509F03C
:1033400070C041116EC08091E80082FDC9CF8091AC
:10335000BD05882329F2853019F28091E80083FFAA
:10336000F2CFBECF4132510509F447C04232510578
:1033700009F0D8C08330910508F0D4C0FC01EE0FED
:10338000FF1FE655FE4F0190F081E02D89559E4FBD
:10339000DC018C9190E01DC0332721303105E9F02C
:1033A0002115310579F022303105F9F0233031054E
:1033B00009F0B8C0E0E7FDE0E4918E2F90E0E0E78F
:1033C000FDE007C0E8EBFDE0E4918E2F90E0E8EB34
:1033D000FDE0009709F4A6C0A2CFECE9FDE0E4917E
:1033E0008E2F90E0ECE9FDE0F4CFEEE8FDE0E49113
:1033F0008E2F90E0EEE8FDE0ECCF8330910508F0F1
:1034000091C0880F991FFC01E055FE4F0190F0819B
:10341000E02D89E090E083CF82E190E0EEE5FDE0F1
:103420007ECF8091BD05882309F45ACF853009F4F9
:1034300057CF8091E80083FD53CF8091E80082FD53
:1034400082CF8091E80080FF78CF9091F300809147
:10345000F2002115310519F08830910550F041E056
:10346000089709F040E08091E8008E778093E800AB
:1034700064CF44914093F100319621503109019677
:10348000E8CF803809F04EC08091E800877F8093B4
:10349000E8008091B4058093F10092CE811142C082
:1034A0001091B7051230F0F58091E800877F809386
:1034B000E8001093B4050E949F07112311F084E0E7
:1034C00005C08091E30087FDFACF81E08093BD05C0
:1034D00042E061EC81E00E94BE0742E261EC84E0E0
:1034E0000E94BE0742E261EC82E00E94BE0742E217
:1034F00060EC83E00E94BE078091BD0513C08091FF
:10350000B705813079F481E0933009F080E0809351
:10351000B3051092E9008091E800877F8093E8006E
:103520000E949F078091E80083FF0AC08091E80015
:10353000877F8093E8008091EB0080628093EB00AE
:10354000AA960FB6F894DEBF0FBECDBFDF91CF9124
:103550001F9108951F920F920FB60F9211242F936F
:103560003F934F935F936F937F938F939F93AF930B
:10357000BF93CF93DF93EF93FF93D091E900DF7078
:103580008091EC00C82FC17080FDC0E81092E90066
:103590008091F000877F8093F00078940E94D61786
:1035A0001092E9008091F00088608093F000CD2BAC
:1035B000CF70C093E900FF91EF91DF91CF91BF9160
:1035C000AF919F918F917F916F915F914F913F91BB
:1035D0002F910F900FBE0F901F901895882321F008
:1035E0000E945E0C0C9496160895882339F09091F1
:1035F000E604982B9093E6040C949616089588237D
:1036000021F00E94650C0C9496160895882339F0D9
:103610009091E504982B9093E5040C9496160895E8
:103620008823B1F19CEF980F913A70F4EAEBF1E046
:103630009191891303C0DF0111971C9291E0E03C46
:10364000F907B1F70C94961690E2980F983050F461
:10365000877091E001C0990F8A95EAF7892F0E943F
:10366000650CF0CF9BE5980F933020F490E080E05C
:103670000C94000998E5980F973120F490E080E0D1
:103680000C94EA08803F20F00E9439090C94D3146E
:103690000895CF93C82F882309F456C08CEF8C0F60
:1036A000813AF8F4EAEBF1E080EC91E0DF012D9152
:1036B000C21759F08A179B07D1F76C2F88EB91E05E
:1036C0000E94D008CF910C9496162191C21303C08A
:1036D000DF0111971C928E179F07B9F70E9496166B
:1036E000ECCF80E28C0F883068F4C77021E030E0C6
:1036F00001C0220FCA95EAF78091E504822B8093DE
:10370000E504E0CFEBE5EC0FE33040F4F0E0E75BFD
:10371000FE4F808190E0CF910C940009E8E5EC0F1A
:10372000E73150F4F0E0EE0FFF1FE45BFE4F8081C5
:103730009181CF910C94EA08C03F30F08C2F0E9409
:10374000FE09CF910C94D314CF9108951F93CF937A
:10375000DF93182FCAE0D0E0893311F4C0E5D0E040
:10376000812F0E94491B8FE99FE00197F1F700C06C
:1037700000002197C1F7812FDF91CF911F910C9409
:10378000101B0F931F93CF93DF93C62FD42F022FBD
:10379000FC0182818823A1F06093C0050E94C714B8
:1037A0009093BF058093BE05C77081E001C0880F6C
:1037B000CA95EAF7DF91CF911F910F910C94061BE8
:1037C0008091C005681335C08091BE059091BF05FA
:1037D0000E94B8148436910560F510E21D0FCD17D4
:1037E000B9F080E28C0F883040F4C77081E001C0EE
:1037F000880FCA95EAF70E94FF1A183048F481E052
:103800009D2F977001C0880F9A95EAF70E94061BBA
:10381000802F0E94A61B183098F4D77081E001C059
:10382000880FDA95EAF7DF91CF911F910F910C94F1
:10383000FF1AC77081E001C0880FCA95EAF7F3CF7D
:10384000DF91CF911F910F910895AF92BF92CF92C8
:10385000DF92EF92FF920F931F93CF93DF93EC01D0
:103860008AE0A82E2881222309F48CC02130C9F5D2
:1038700099818A81913021F422960E94A61B05C06D
:10388000923029F422960E94491B2196EBCF933067
:1038900021F422960E94101BF8CF943011F021964B
:1038A000F4CF229630E020E0AE014F5F5F4F8053AF
:1038B000990B8A30910550F02150310930F38FE98E
:1038C0009FE00197F1F700C00000F6CFA29EB00183
:1038D000A39E700D11249C01260F371F8981EA01D8
:1038E000E3CFE22FF0E0E154FE4FB490822F8695B3
:1038F0008695869590E0FC01E155FE4FE490277097
:10390000F12C022E02C0F594E7940A94E2F731E01C
:10391000E322FF24FC01E156FE4FC490D12C022E7D
:1039200002C0D594C7940A94E2F731E0C322DD24A3
:10393000FC01E157FE4F049110E002C01595079578
:103940002A95E2F701701127E114F10419F081EED4
:103950000E94491BC114D10419F086EE0E94491B34
:103960008B2D0E94A61BCD2819F086EE0E94101BFD
:10397000EF2819F081EE0E94101B012B09F485CF6E
:103980008CE27BCFDF91CF911F910F91FF90EF9051
:10399000DF90CF90BF90AF9008959091690292FD13
:1039A00010C098E0899F90011124622B609323023C
:1039B0000E94BC170E94C714909322028093210298
:1039C00008950C94BC170F931F93CF93DF93CDB73B
:1039D000DEB767970FB6F894DEBF0FBECDBF6D8B15
:1039E0007E8B8F8B752F61111092E6048E899F89D3
:1039F000892B09F480C0872F84238F3F09F054C09E
:103A00007FEF4FEF78C0902F9095892373C096E099
:103A1000929FD001939FB00D1124A151BE4FFE0182
:103A2000319601900D929A95E1F78093EE010E94F4
:103A3000790CC0C0819FC001112481519E4F0E940A
:103A4000AD27882309F4BDC080911F0290E0019644
:103A50008770992780931F02AEC02091EE0130E05D
:103A6000C90101968770992740911F0248171906CE
:103A700071F60E94CB171092EE0110921F0286E0A1
:103A8000E8EEF1E0DF011D928A95E9F793C010920C
:103A9000CD011092E7011092CC011092CB0168C0C9
:103AA00082E00E94831747C001E010E0042E01C0AD
:103AB000000F0A94EAF7A72FB0E0A054BE4F8C91F4
:103AC0009091E701611102C0982F9023992309F486
:103AD0009ACF50E026E0729F400D511D1124440FF3
:103AE000551FFA01E05CFD4F7491415C5D4FFA0196
:103AF0004491802B8C931A8A198A4B8B7C8B85E09E
:103B0000FE017396DE011D9601900D928A95E1F7F4
:103B10008091690282FD2CC00E94C714209121026D
:103B200030912202821B930B8838934120F08091C0
:103B3000230282FFB5CF0E94C71420912C0230913E
:103B40002D02821B930B8838934110F00E94530C76
:103B50000E94C7142091CB013091CC01821B930BA2
:103B60008838934128F08091CD01813009F48FCFBE
:103B700086E0FE013D96DE01179601900D928A9532
:103B8000E1F7CE0107960E94AD27811113C086E0B0
:103B9000FE013796DE01119601900D928A95E1F7AC
:103BA0008A859B85892B31F08F81988589238F3F6A
:103BB00009F053CF16E080911F029091EE01891316
:103BC00039CF67960FB6F894DEBF0FBECDBFDF9139
:103BD000CF911F910F9108950F931F93CF93DF9370
:103BE00000D000D00F92CDB7DEB78C019093D102F8
:103BF0008093D002011580E2180720F5802F0E94E3
:103C0000101BC8010E94F30C9801205E3109283076
:103C1000310510F0012B59F40F900F900F900F9079
:103C20000F90DF91CF911F910F910C94FF1A0F907D
:103C30000F900F900F900F90DF91CF911F910F91E8
:103C40000C94EE1A8EEF89838A831B820E94C7141C
:103C50008160782F9D838C8349815A816B818D810E
:103C60000F900F900F900F900F90DF91CF911F91B9
:103C70000F910C94E31C0F931F93CF93DF938C0150
:103C8000EB0164EC72E08C2F0E949810892BA1F458
:103C90008FE39CE90197F1F700C00000DD27C454D1
:103CA000DD4F8881F80110821882833009F148F4D1
:103CB000813059F0823081F0DF91CF911F910F91C7
:103CC00008958430D1F08530B9F78091C402909185
:103CD000C502009789F306C08091C6029091C70281
:103CE000009799F3DF91CF911F910F910C94EC1DE8
:103CF0008091C8029091C902F3CF8091CA0290913D
:103D0000CB02009779F72091C4023091C5028091CF
:103D1000C6029091C70221153105D9F2009711F71B
:103D2000C901E0CF0F931F93CF93DF9300D000D052
:103D30000F92CDB7DEB78C019093D1028093D00261
:103D4000011580E21807E8F4C8010E94F30C9801FD
:103D5000205E31092830310518F00115110571F484
:103D60000E94061B802F0F900F900F900F900F90C6
:103D7000DF91CF911F910F910C94491B0E94F51A6E
:103D8000F1CF8EEF89838A8381E08B830E94C714F1
:103D90008160782F9D838C8349815A816B818D81CD
:103DA0000F900F900F900F900F90DF91CF911F9178
:103DB0000F910C94E31CCF93DF93EC010E94921EB1
:103DC0008FE39CE90197F1F700C00000CE01DF917D
:103DD000CF910C94EC1D0F931F93CF93DF938C0125
:103DE000862F64EC72E00E949810892BC9F4C09170
:103DF000C402D091C502209799F0F80180818330E8
:103E000069F4CE010E94DB1ECE010E94DB1ECE01B2
:103E1000DF91CF911F910F910C94DB1E8430B8F786
:103E2000DF91CF911F910F9108950F931F93CF931F
:103E3000DF938C01EB0164EC72E08C2F0E949810F0
:103E4000892B09F064C0FE01FF27D8018C91E4544E
:103E5000FD4F8130D9F419969C911997992311F04F
:103E600080830CC01A969C919923D1F382E08083C1
:103E70008091C6029091C7020097D9F48091C40244
:103E80009091C502009709F442C013C08230E9F551
:103E900019968C91199781112DC01A968C918111C8
:103EA0000EC083E080838091C8029091C902009780
:103EB00019F1DF91CF911F910F910C94921E84E024
:103EC00080838091CA029091CB02009791F78091F4
:103ED000C4029091C5020097F9F00E94DB1E809108
:103EE000C6029091C702009721F78091C402909179
:103EF000C502DFCF85E080838091C4029091C50226
:103F0000009729F00E94DB1EF0CF86E08083DF91CE
:103F1000CF911F910F9108958091C6029091C70291
:103F2000B1CFCF92DF92EF92FF920F931F93CF9377
:103F3000DF93182F062FC090C1058091BB02C82ABD
:103F4000C7E0D0E0D12CF12CE12CD701C6010C2E1A
:103F500004C0B695A795979587950A94D2F780FFE8
:103F600014C0402F612F8C2F0E94021181309105C7
:103F700061F00E94DB1E81E0DF91CF911F910F91D4
:103F8000FF90EF90DF90CF9008952197F0F6402FAB
:103F9000612F80E00E940211ECCFCF92DF92EF926E
:103FA000FF920F931F93CF93DF930F92CDB7DEB79E
:103FB000EE24E394F12C0EE412E09E012F5F3F4FBC
:103FC00043E452E063E082E00E946F12082F8823EE
:103FD00021F1C0906A028C2D90E09C012A583D4F3F
:103FE00079011981F9018081181BD12E80E00AC066
:103FF000DA94F70180818F5F808360E08C2D0E94CE
:10400000911F802F1D14A4F3912F17FD90E0191B11
:1040100011110EC081110E94510C802F0F90DF9161
:10402000CF911F910F91FF90EF90DF90CF90089567
:104030001F5FF70180818150808361E08C2D0E9499
:10404000911F802FE5CF8F929F92AF92BF92CF9218
:10405000DF92EF92FF920F931F93CF93DF9300D0E5
:1040600000D00F92CDB7DEB76C01DC0113968D91B5
:104070009C911497892B39F08C9111969C918923EE
:104080008F3F09F078C60F900F900F900F900F9010
:10409000DF91CF911F910F91FF90EF90DF90CF9024
:1040A000BF90AF909F908F9008950E947D11182F20
:1040B000682F89819A810E94B10C69817A81812F50
:1040C0000E9461118C01F6018281811111C0D6011B
:1040D00012968C91811149C00031FFE51F0709F448
:1040E0000AC101312FE5120709F01FC682E004C1A1
:1040F0008091350190913601019649F369EEE62EE3
:1041000064E0F62EB12CA12C992493948091350172
:10411000909136018A159B05D4F2F7018681882398
:10412000E9F0818592850817190739F48091E70431
:104130009091E8040817190789F0D7011F969C92FF
:104140001F971C961C930E931B97C7010E9429175B
:10415000C70106960E94E4161092E604BFEFAB1A60
:10416000BB0AE6E1EE0EF11CD1CF980122513F458A
:104170002031310508F0CFC58FEF93E00E948D35D7
:104180005EEEF52EF00E07E712E08823F9F080913D
:104190002302877009F477CFD60112968C91882379
:1041A00009F471CF8091690282FD6DCF82E00E9497
:1041B000831769CF0115F4E01F0749F3C8010E9476
:1041C0008D35811101C0FA940F5F1F4FF110F2CFAE
:1041D00019821A821B821C8299249A9478012FEFEB
:1041E000E21AF20AC8010E948D3589831A82882357
:1041F00071F2813009F073C0580132E0A30EB11C96
:10420000C7010E948D35E82E8A83882309F4BFCF29
:10421000C5010E948D35F82E8FEF8E0D833068F426
:10422000580143E0A40EB11CFB82FF2021F0CE0117
:1042300001960E94251C8501D1CF8BEF8E0D833016
:1042400030F5C8010396FB825C01FF20A1F3580101
:1042500054E0A50EB11C0E948D358C83882359F340
:104260008B819C818130AFEF9A0710F0982F8827BF
:10427000B6E0EB1631F0E7E0EE1631F00E94DB1EFF
:10428000DACF0E94921ED7CF0E94EC1DD4CFF4E06B
:10429000EF12D1CF580124E0A20EB11CC801039641
:1042A0000E948D35FF2009F472CF882309F46FCF67
:1042B0008150990B989E9001999E300D11244F2D9D
:1042C0004150550BCA01820F931F019708F4B3CFD9
:1042D000AFE9BFE01197F1F700C00000F6CFCE01C3
:1042E00001960E94251C5701A6CF81E00E94BC17B1
:1042F0000E946C174CCF81E00E947717F9CF82E0C3
:10430000F5CF2FEFE216F10411F008F01AC564ECB6
:1043100072E08E2D0E949810892B29F586E18E9DE2
:10432000F0018F9DF00D1124E751FB4F8681813004
:1043300009F0B0C08091C4029091C502892B99F018
:104340008091C6029091C702892B69F08091C802C2
:104350009091C9022091CA023091CB02822B932BFB
:10436000892B09F4A1C080913501909136018E15F9
:104370009F0524F4F0923601E0923501F601828126
:1043800096E19E9D50019F9DB00C112495012751EF
:104390003B4F7901D90150968C9350979281169694
:1043A0008C911697992309F48DC01A961C930E933D
:1043B00019978F5F16968C930E94C714F701968702
:1043C000858780912E0287838091E6049091E50491
:1043D000892B80870190F081E02D309741F0D70143
:1043E00054966D917C91C50181519B4F0995109315
:1043F000E8040093E704F6018281882309F4CEC41F
:104400001092C0050330FDE51F0708F08DC00A3F7C
:104410002CE5120730F4C80182509C45449708F0FF
:104420008DC00E94F111909369028093680201315E
:104430005CE5150709F456C108F0D6C009309CE5C3
:10444000190709F43DC108F0A3C00530BCE51B07FE
:1044500009F42EC108F089C00330FCE51F0709F4F8
:104460001DC108F021C180916802816002301C45A5
:1044700009F417C1609168021091690284E090E02C
:104480000E949B35612F82E290E00E949B350E9442
:10449000CB177DCE823009F066CF8091C802909113
:1044A000C902892B09F45FCF26E12E9DC0012F9D03
:1044B000900D112487519B4FDC0150961C920E9455
:1044C000291751CF882309F496CFF90181898823D0
:1044D00009F491CFC50181519B4F0E94E4168BCF07
:1044E000053F8CE51807C9F0A0F027E245EE66EE1F
:1044F000063FACE51A0709F07ECFC6010E94C11B3A
:1045000046CE27E245EE65EEF8CF26E241EE60EEBC
:10451000F4CF27E245EE64EEF0CF26E241EE62EE04
:10452000ECCF28E241E0EFCF01363DE5130709F477
:1045300078CF053A4DE5140709F473CF0631ACE5A1
:104540001A0709F041C48091E5048A7A91E009F4E0
:1045500090E09093CA0169E2811165E388EB91E0F4
:104560000E94D0080E94961612CE80916802806246
:1045700007304CE5140709F494C08091680280610B
:1045800008301C4508F48DC080916802806489C0A1
:104590000D308CE5180709F499C098F480916802F1
:1045A0008E7F0B30ACE51A0709F47BC0809168025E
:1045B0008C600C301C4508F474C0809168028D7FBB
:1045C00070C0809168028F7E0F30ECE51E0709F401
:1045D00068C080916802877F00311C4508F461C083
:1045E000809168028F7D5DC00D3F2CE5120709F4B4
:1045F00075C038F505314CE5140709F481C080F425
:1046000003318CE5180709F477C008F46FC00E94E5
:10461000CB1790916802892F97FB87F9805841C08A
:104620000B3FACE51A0709F447C008F053C080916E
:10463000690281600A3F1C4509F01CCF8093690222
:1046400019CF0130FDE51F0709F466C0B8F4809169
:1046500069028C7F0F3F3CE5130781F3809169026B
:10466000836001151D4550F380916902982F909544
:1046700091708E7F892B90FB81F9E0CF01365DE54B
:10468000150709F44FC0053A8DE5180709F451C024
:1046900002301D4509F0EECE60E03FC08091680217
:1046A000826080936802E6CE809168028460F9CFD0
:1046B000809168028860F5CF809169028260BECFE8
:1046C0000E94CB17809168028068EBCF80916802CE
:1046D0008B7FE7CF809169028E7FB0CF8091690296
:1046E0008D7FACCF809168028F7BDBCF0E94CB1790
:1046F000809168028F77D5CF80916802837FD1CF78
:104700008091680282FB992790F921E0922790FB23
:1047100082F990FB83F9C5CF61E08EE090E00E94C2
:104720009B35A8CE90916802892F8F7E94FF80617F
:10473000B8CF90916802892F8E7F90FF8160B1CFB2
:1047400085E334C30E94CB17BFEFE4E3FCE0B15034
:10475000E040F040E1F700C000000E94B30881E0B3
:1047600053C380E051C3C8010E94830CF82E5DC37F
:10477000FF2DFF70EF2E8F2D807F19F0E29490EFC8
:10478000E9221123B9F0EE2069F080E2800F883031
:1047900010F0A11009C08091E504E82AE092E50438
:1047A0000E949616802F46C08091E604E82AE09287
:1047B000E604F6CF802F0E94101BEE20E9F1005E88
:1047C0008E2D083010F0A11003C00E94650C02C0AD
:1047D0000E945E0C0E9496162FC02F2D2F70E22E85
:1047E0008F2D807F803219F0E29480EFE822AA209A
:1047F00089F031E0A31609F49AC0112309F4A3C08B
:10480000BB2009F47AC0F601858180FFCBCF8F7081
:10481000858373C08091690282FF47C01123F1F143
:10482000EE2039F08091E504E82AE092E5040E9448
:10483000961680E00E94491BE82DE850FF0B349744
:1048400010F40E947E0E112379F08F2D807F803628
:1048500019F4F6EFAF1641F08091CD01823009F0E6
:104860004EC283E08093CD01992009F40CCC809155
:10487000230280FD08CCD60112961C928595859561
:1048800085950E94BC17C6010E94232080912302B7
:104890008595859585950E947717F5CB80E00E94D8
:1048A000101BEE2049F28E2D90CF112341F1B11053
:1048B00006C080912E028E290E94061BBDCF41E0CA
:1048C000B41211C082FDB8CF80912E02E82AE816FA
:1048D00009F4B2CF0E94C71490932D0280932C024A
:1048E000E0922E02A9CF55E0B512E3CF0E94530CFF
:1048F00080912002E812E09220028E2DDDCFB110CF
:1049000006C00E94530C8E2D0E94FF1A95CF81E0A5
:10491000B81208C08091E5048E2109F48DCF0E9461
:10492000730CEFCF95E0B91609F486CFEACF1123C7
:1049300029F0A5E0AB1508F47FCFDFCFB4E0BB15BD
:1049400008F47ACFE0CFBB20F1F2F9E3AF120DC04B
:104950002FEF37EE43E0215030404040E1F700C0F8
:104960000000802F0E94101B67CF8FE39CE9019706
:10497000F1F7F5CF8F2D86958695837069F081309C
:1049800009F05ACF802F9F2D9370111102C090E033
:1049900080E00E94EA0850CF802F9F2D9370111164
:1049A00002C090E080E00E94000946CF802F1123D2
:1049B00029F00E94FE090E94D3143ECF0E943909BB
:1049C000FACF8F2D837091F5111136CF402F42957C
:1049D00046954770440F440F802F8F70042E01C0FE
:1049E000880F0A94EAF7202F207104FF07C02FE0F8
:1049F00030E001C0220F4A95EAF720953F2D369509
:104A000036953370323069F050F44091BB0231304A
:104A100029F0822B84230E94C7170ECF842B822B70
:104A2000FACF282B8091BB028227F5CF86951123E0
:104A300011F08F2D8170882309F4FECE402F42950E
:104A400046954770440F440F802F8F70042E01C08D
:104A5000880F0A94EAF7202F207104FF07C02FE087
:104A600030E001C0220F4A95EAF720953F2D369598
:104A700036953370323069F050F44091C1053130D1
:104A800029F0822B84230E946817D6CE842B822B98
:104A9000FACF282B8091C1058227F5CF9F2D9F70DB
:104AA000E92E112329F0892F0E94BC17802F04CFF3
:104AB000802F0E94FF1A8E2D0E947717BDCE802F67
:104AC000A2EFAA16B1F1AA1570F0B0EFAB16D1F0B3
:104AD000E1EFAE1691F0112309F472C0B11062CE6D
:104AE0008F2D8F712AC0F3EFAF1651F124EFA21270
:104AF000F2CF8091690282FF2FC08F2D8F71112319
:104B0000D9F21BC0112381F034E03B1508F494CE98
:104B10002F2D2F7181E090E001C0880F2A95EAF7D0
:104B20009091C1058927AFCF45E04B1508F484CE9D
:104B3000EFCF8F2D8F711111BFCF0E94BC177CCE8C
:104B400080E0112309F49FCF81E09F2D9F7101C068
:104B5000880F9A95EAF797CF809120021123E1F010
:104B60000E94650C809123028770843041F40E947A
:104B70006C0C8F2D8F710E947717912C5DCE54E0B5
:104B80005B15D8F30F2D0F71802F0E94BC1763E0C7
:104B9000802F0E94CD1CF1CF9091E504982B90932B
:104BA000E50484E08B1540F40E946C0C0E94730CA9
:104BB00064E08F2D8F71EDCF81E00E948317DDCFF0
:104BC000BB2079F0893341F49FEFA7EEB3E0915019
:104BD000A040B040E1F7C3CEEFE3FCE93197F1F735
:104BE000BECE8F2D8F7168CFE0E1E00FE73008F087
:104BF0005BC0F0E0ED51FA4C0C944A35112309F4F6
:104C00001BCE8091E70191E0892705C01093E70151
:104C100013CE81E081278093E7010ECE81E011233E
:104C2000D1F30ACE111108CE1092E70105CE11235F
:104C3000C1F082E08093CD0181E08093E7010E9482
:104C4000C7149093CC018093CB0120912102309125
:104C50002202232B09F4F0CD9093220280932102AB
:104C6000EBCD8091CD01823021F481E08093CD01A4
:104C7000E3CD833009F0E0CD1092CD011092E70131
:104C80001092CC011092CB01D7CD112341F080912D
:104C9000E601882309F4B5CF1092E601CDCDF4E00A
:104CA000FB1508F4C9CDADCF8091E601BB20D9F04A
:104CB000882341F08091E70191E089278093E70103
:104CC0001092E60111116ECD8FE39CE90197F1F787
:104CD00000C00000802F0E94101B86E0D6011D92AC
:104CE0008A95E9F7A9CD882309F4A6CD1111A4CDA1
:104CF0008091E70191E089278093E701CDCF813052
:104D000009F0B2CD1092CD011092E7011092CC01C2
:104D10001092CB01A9CD0031BFE51B0709F4E5CA0C
:104D20000131EFE51E0709F4EACA7801E7E5FE1A4A
:104D3000882309F4E6CAFFEFEF16F10409F008F43E
:104D400012CB033FFCE51F0709F4DFCB08F0C8CB0B
:104D5000083D3CE5130709F4D4CB093D4CE51407A5
:104D600009F4DFCB073D5CE5150709F044CB26E2EB
:104D700041EE61EEC2CB85E0F601DE0111960190B5
:104D80000D928A95E1F7D60112962C9189819A812C
:104D900021118BC90E94830C182F8FC906311C4525
:104DA000A9F58091CA018111CBCC89E2EAEBF1E04F
:104DB00020EC31E09191891303C0DF0111971C921F
:104DC0002E173F07B9F7CECB0A35EDE51E0709F4DC
:104DD000C6CC58F401152CE5120709F4B3CC0E3DEE
:104DE0001C45A1F40E945113D2C90B354DE514079F
:104DF00009F4B7CC0C351D4549F48091690282FB5A
:104E0000882780F991E089270E949F17F601828107
:104E100000811181882309F4A6CCC8010E947D116C
:104E2000F82E682FC8010E94B10CB8018F2D0E9486
:104E300061110E94C40A082FF92EA82ED6011296DD
:104E40001C9112971596BC90B2943FE0B3228091CA
:104E500023028770E9F0912E1123D9F0892F807FEA
:104E6000803449F090E2900F983090F0803619F439
:104E7000B6EF0B1769F08091690282FD09C082E0EC
:104E80000E94831780912302877099249394811143
:104E9000912C8F2C82942FE08222EBE0E81508F40D
:104EA000CBCCE82DF0E0E651FA4C0C944A351F9338
:104EB000CF93DF938091ED01807FA9F48091EA0187
:104EC000882389F080911F02D091EE016091E80162
:104ED0007091E901A091EB01B091EC01C62FC723BD
:104EE00016E0D81304C0DF91CF911F91089590E090
:104EF000109711F0CF3F19F401968770F2CF189FE9
:104F00009001199F300D1124F901E151FE4F4181AB
:104F10004713F2CF40814613EFCF42814111ECCFCE
:104F2000438154814A1B5B0B4436510528F780911D
:104F3000ED018F7080618093ED01F901EC50FE4F1F
:104F400080818F708061808388EE91E00E942320B1
:104F5000DF91CF911F910C94790CAF92BF92CF92B9
:104F6000DF92EF92FF920F931F93CF93DF93CDB712
:104F7000DEB761970FB6F894DEBF0FBECDBF8C01D0
:104F800085E0F801DE011D9601900D928A95E1F70A
:104F9000F801E28088EEA82E81E0B82E6091EB0146
:104FA0007091EC016115710509F432C19091E8012D
:104FB0004091E901892F84238F3F09F429C1208181
:104FC0003181C380D480F090EA01F601E61BF70B33
:104FD000FF2009F4E8C08091ED01582F507FE4369E
:104FE000F10508F0ABC0511177C0FE2C431321C06E
:104FF00092131FC0E1101DC08F7080618093ED017E
:10500000C5010E9423208091ED01F80185838F2D39
:1050100061960FB6F894DEBF0FBECDBFDF91CF9182
:105020001F910F91FF90EF90DF90CF90BF90AF90C6
:105030000895CD2829F0822F83238F3F09F011C1D5
:1050400080E0F82FF170DF2E80FF3CC080911F02BE
:105050004091EE0156E0841315C02D873E878D8563
:105060009E850E94AC11292F22952F702230F0F0DE
:10507000243018F59F70F1F0F8019581907FD1F4FC
:10508000D12C1EC090E0589FF001599FF00D1124C3
:10509000E151FE4F6181361306C06081261303C0C3
:1050A0006281E6120FC001968770D5CF9F7011F014
:1050B000882331F3805E883018F3C8010E942320D2
:1050C000FD2CA5CFEE2009F4A2CF8091ED018160E7
:1050D0008093ED01F12C9BCF431306C0921304C0C3
:1050E000F801EE2009F479C0C8010E94B8118823A4
:1050F00009F1EE20F9F08091ED01803270F02091FD
:10510000E8013091E90138872F831986DB86CA864A
:105110008C87CE0107960E94232086E0F801A8EE36
:10512000B1E001900D928A95E1F70E945727FF2484
:10513000F3946DCFC8010E942320F9CF51110AC00A
:1051400088EE91E00E94232086E0F50111928A9575
:10515000E9F7C0CF43130FC092130DC0E1100BC08D
:10516000F8018583C8010E94232086E0F501119291
:105170008A95E9F74CCFC8010E94B8118823D1F273
:10518000EE20C1F28091ED01803238F22091E801E9
:105190003091E9013A8329831B82DD82CC828E83A0
:1051A000CE010196B8CFE436F105F8F6FE2CEE20DC
:1051B00009F243131FC092131DC08091ED0180FDC1
:1051C00010C0982F907F69F0F8018583903F31F0EF
:1051D000982F907F905F8F70892B8583C8010E94E4
:1051E000232086E0F801A8EEB1E001900D928A95A7
:1051F000E1F70DCFC8010E94B81181118ECF8091C7
:10520000ED0181608093ED01C8010E942320FFCE53
:10521000EE2009F48FCFC8010E94B811F82E882320
:1052200009F488CF86E0F801A8EEB1E001900D9274
:105230008A95E1F78091E8019091E9010E94AC1113
:1052400092959F70963051F4863F41F08091E7012E
:1052500091E089278093E7019093E6010E94572708
:10526000D6CE81E08E25EDCE1F921FB61F9211245F
:105270008F939F93AF93BF9380919F05811113C02C
:105280008091A0059091A105A091A205B091A305E0
:105290004196A11DB11D8093A0059093A105A093F7
:1052A000A205B093A305BF91AF919F918F911F90DD
:1052B0001FBE1F901895CDB7DEB7E9970FB6F894CB
:1052C000DEBF0FBECDBF84B7877F84BF0FB6F89413
:1052D000A8958091600088618093600010926000C2
:1052E0000FBE80E890E00FB6F89480936100909331
:1052F00061000FBE85B7806885BF85B7806885BFB0
:1053000086E69AE09093B7018093B6010E94AC10B4
:105310000E94FD060E94F0078091E2008460809365
:10532000E20078948091BD058823A1F01091E900F6
:105330001F709091EC00892F817090FD80E8182BF0
:105340001092E9008091E80083FD0E94D6171F703B
:105350001093E90082E084BD93E095BD9AEF97BD7C
:1053600080936E00109258021092590210925A02C5
:1053700010925B020E94D811811102C00E94891014
:105380000E945B0E809328010E945B0E81110E9497
:10539000B333809128018091280195E0811190E03C
:1053A0009093670285E0891B809366020CE711E009
:1053B00061E8E62E61E0F62ED8018D918D018F3FD8
:1053C00011F00E946A0AE016F106B1F701E811E057
:1053D00057E8E52E51E0F52EF80181918F018F3FBE
:1053E00011F00E946A0AE016F106B1F78AE0E4EAD9
:1053F000F2E0DF01282F1D922A95E9F7ECE5F2E0B3
:10540000DF011D928A95E9F790E080E00E949535D2
:10541000893E9E4F21F40E94D811811102C00E9442
:10542000511382E090E00E948D3580936B020E94C0
:10543000F11190936902809368020E94FA14EFE3DD
:10544000FCE93197F1F700C000000E94FA14809146
:10545000A40280FF08C06FEF7FEF90E080E00E9421
:10546000B9350E94B30883E090E00E948D350E9418
:10547000C7170E945B0E882309F4C3C283E08093A0
:105480009B0280FDC0C280E88093D4020E944B3210
:105490006DE070E08AEC92E00E94240D892BE9F522
:1054A00080919B0263E070E081FDAFC287EC92E0E7
:1054B0000E94240D892B89F56DE070E087EB92E066
:1054C0000E94240D892B49F50E94C408605A754139
:1054D0008F4F9F4F6093DF047093E0048093E1044B
:1054E0009093E204E7EDF2E080E092E0DF019C01BE
:1054F0001D9221503040E1F7F093DE04E093DD048B
:105500008FEF9FEF9093D6028093D50281E0809336
:10551000E4048093E30410929C028091280181119D
:1055200006C084EF8093380185EF80933701209186
:105530003801E22FE295EF70F0E061A12F7081E079
:1055400090E0AC0101C0440F2A95EAF7342F309562
:10555000362331A322A1242B22A320913701E22F4D
:10556000E295EF70F0E031A12F7001C0880F2A950D
:10557000EAF7982F9095932391A392A1892B82A368
:105580008FE891E00197F1F700C000002091380109
:10559000E22FE295EF70F0E080A190E02F7002C062
:1055A000959587952A95E2F7817090913701E92FBB
:1055B000E295EF70F0E020A130E09F7002C03595D9
:1055C00027959A95E2F792E020FF90E0892B80934F
:1055D0007A029091280181E0982790937902891BA3
:1055E00080936A020E945B0E811102C00E94B63352
:1055F00089E291E090939C0580939B0584EA92E078
:105600003AE0380F3FAB8091BD0540E4F42E00E155
:1056100012E1853009F433C20E94FA14E82E811198
:105620000E94C40834EA232E32E0332EECE6F2E086
:10563000D10110E000E0B02EDD9081918D1509F4CC
:105640002DC2C12CFF24F3948D25982F9F2109F49E
:1056500020C20E945B0E882399F0CBA6BCA6DF2057
:1056600081E009F480E08DA70E94C7148160782F43
:105670009FA78EA74BA55CA56DA58FA50E94E31CD7
:10568000F801E459FD4F8081F826F0820E945B0EFC
:10569000882349F0809135019091360110E006E1B0
:1056A000019609F040C280917A02E82FEE0FEE0FCA
:1056B00090913801A92FA295AF70B0E090962C91EF
:1056C00030E09F7002C0359527959A95E2F72170DA
:1056D000332790913701A92FA295AF70B0E0909633
:1056E0004C9150E09F7002C0559547959A95E2F70E
:1056F000CA018170992740FF02C082E090E0822BAE
:105700008E2B80937A02109179028F70E82FF0E04F
:10571000E957FE4F808190917802890F809378023B
:10572000F12C84306CF0E12FF0E0EA58FD4F8081DD
:105730008F5F808360E0812F0E94911FFF24F3948C
:10574000809178028D3F6CF4E12FF0E0EA58FD4F34
:1057500080818150808361E0812F0E94911FFF240E
:10576000F39480917802082E000C990B64E070E0AD
:105770000E94363580937802F1100E94510C80917E
:10578000E404882351F180919D0290919E020E9431
:10579000B814C29708F0D1C12091D5023091D60239
:1057A0002115310509F035C28091E3048823A9F061
:1057B0000E94C4080091DF041091E0042091E104EC
:1057C0003091E204601B710B820B930B6F3F7F4F94
:1057D0008F4F9F4710F40E94540DE11001C0F1104B
:1057E0000E946F0D86E0E5EBF2E08E010F5F1F4F28
:1057F000D80101900D928A95E1F7D090B702C09040
:10580000B802F090B902E090BA021092B70210927A
:10581000B8021092B9021092BA028D2D8C2909F4A7
:1058200048C08091B3029091B4020E94B8149C01C8
:105830009091AF02992309F429C625313105C8F1A9
:105840009F3F19F09F5F9093AF02DD2059F00E94B7
:10585000DE099FEF1D140CF491E0899F802D112427
:105860008093B702CC2059F00E94DE099FEF1C14F0
:105870000CF491E0899F802D11248093B80230911F
:10588000B7023323B1F02091B802222391F045EB07
:105890003403C0011124992309F491C29093B702F3
:1058A00065EB260390011124332309F48CC2309355
:1058B000B8028F2D8E2909F448C08091B1029091D1
:1058C000B2020E94B8149C019091AE02992309F48F
:1058D000D8C521353105C8F19F3F19F09F5F9093DE
:1058E000AE02FF2059F00E94BC099FEF1F140CF478
:1058F00091E0899F802D11248093B902EE2059F008
:105900000E94BC099FEF1E140CF491E0899F802D2A
:1059100011248093BA023091B9023323B1F020915F
:10592000BA02222391F075EB3703C00111249923A9
:1059300009F44DC29093B90245EB24039001112460
:10594000332309F448C23093BA028091B702909190
:10595000B802892B9091B902892B9091BA02892BB8
:1059600011F00E94D31486E0F801A5EBB2E001909B
:105970000D928A95E1F70E947E0E90919F02891305
:1059800080939F028091BD05843009F03CCE83E076
:105990008093E9008091E80082FF35CE8091E80095
:1059A00090E085FF0AC00E941C0770E2C72ED12C30
:1059B0007801882309F41DC291E08091E8008B777B
:1059C0008093E800992309F41ECEE090D202F09073
:1059D000D3028981E114F10409F419C28E3F09F060
:1059E0009BC28A81833020F08550833008F094C2B6
:1059F000EA81EE3008F090C2F0E0EA50FA4C0C94E4
:105A00004A3580E03CCD80E23FCD84EC92E050CD41
:105A10008091BD05843029F10E94540D10929F059C
:105A200068E170E00FB6F894A895609360000FBE2F
:105A3000F092600083B7817F846083BF83B7816009
:105A400083BF7894889583B78E7F83BF0FB6F89411
:105A5000A89580916000886180936000109260003A
:105A60000FBE8091B305882351F00E94FA14E4EA36
:105A7000F2E081918111E6C47FA97E13FACF809173
:105A8000BD05853009F4C4CF0E94CB170E947E0E5D
:105A9000C3CDC394FF0C96E0C912D7CD0F5F1F4F43
:105AA0000A30110509F0C7CD8FEF88AB89AB1AAA70
:105AB0000E94C7148160782F9CAB8BAB48A959A971
:105AC0006AA98CA90E94E31CE1CD089FF001099FFF
:105AD000F00D1124E751FB4FC288D388C114D104C3
