:100000000C94D0060C9408070C9408070C9408076D
:100010000C9408070C9408070C9408070C94080724
:100020000C9408070C9408070C94232C0C94DF2BD9
:100030000C94762D0C9408070C9408070C94080770
:100040000C9408070C9408070C9408070C940807F4
:100050000C9408070C94522D0C9408070C94080774
:100060000C9408070C9408070C9408070C940807D4
:100070000C9408070C9408070C9408070C940807C4
:100080000C9408070C9408070C9408070C940807B4
:100090000C9408070C9408070C9408070C940807A4
:1000A0000C9408070C9408070C9408070631FF0904
:1000B00074A1010975150026FF00952075088102BD
:1000C0000976150026FF00952075089102C00501EC
:1000D0000980A101850319012AB700150126B7007F
:1000E000950175108100C0050C0901A10185041955
:1000F000012AA002150126A002950175108100C0F9
:1001000005010906A1018506050719E029E7150083
:1001100025019508750181020507190029EF1500D1
:10012000250195F07501810205081901290595053C
:1001300075019102950175039101C00660FF096187
:10014000A1010962150026FF0095207508810209AA
:1001500063150026FF00952075089102C00501096E
:1001600006A101050719E029E71500250195087585
:100170000181029501750881010507190029FF1504
:100180000026FF009506750881000508190129055C
:10019000950575019102950175039101C00000005C
:1001A000000000000000000000000000000000004F
:1001B000000000000000000000000000000000003F
:1001C000007E0F00D4FFFFFFC70000007800000092
:1001D00000000000002A2B280000000000000000A2
:1001E000000000000000000029000000002C1E3468
:1001F00020212224342627252E362D3738271E1F6E
:10020000202122232425263333362E37381F040598
:10021000060708090A0B0C0D0E0F10111213141506
:10022000161718191A1B1C1D2F3130232D350405E4
:10023000060708090A0B0C0D0E0F101112131415E6
:10024000161718191A1B1C1D2F3130354C3F00434F
:100250003E20005B735D000A002530313662003AB3
:10026000200025303258000A722F6320303132339B
:100270003435363738394142434445460A00FD3764
:100280007A585A000004E6D6B4460200210116004E
:100290000000742FE5A3E0084602375D003D888921
:1002A000C65436C3174FE4E74F31ED5523A35DB174
:1002B000D1838732F4551ED6778E8CF7A7641056FB
:1002C000ED7A16EDE6244D36A345E401B990CCC78E
:1002D000D5201E711CE4346F8F3B5ECFA04747F3DF
:1002E0002985E6B93AD9B07A49AD7887B7E99170EE
:1002F00066631AB603BF24A98932DCE0B9D55E9AD9
:100300005D014EB499ED0A5B6801B9B79D6DAEDA37
:1003100005F325638483E7CB4E975C2382342786DD
:100320001ACA4005C4F42417CB673DF9E3F55177A9
:1003300023F480E3277A41EBE65D210D80895AB1F1
:100340006D44EDCA814800367E5925C12CE2D9247E
:1003500021A29F30B47965794E834E2AC9304B442F
:10036000F6316DD19B8A0680358DD48EDF37D5C7A7
:10037000E4157A6B0D88F8F5D1745141F49923870F
:100380002C1DC7CAC6963E82D30EB2C7F6C799C205
:1003900075864D933456D73685EF2EE8E6BD6484D6
:1003A0007F0D9794890B49C7EE91F7336A929BC2F0
:1003B0004011979A065AA063655853A99C576C89B7
:1003C000E5D8EFD021DF7817E433BFA1D7B7A96311
:1003D000CDCDEADFFA9A2F7AE1313CC485211E6740
:1003E0001725F67417068F93A1EA6DA1ABCEF835E9
:1003F000BE511D1CD05EC1BA0EAAC0DFD32306BDFC
:100400000533C11CB6FE04932AC336C5ABDC325893
:10041000D343C73514086168390509B3FA15BC120E
:10042000C64BB391EB42C0C59A263E38272BCFF27C
:100430000EDC82C1D672C92122AB065267FC8C1D2C
:10044000ED0A71384A87E558EF4D2F11CADC11AB20
:1004500064BF2FCE84062D2BD9961DF51CEEE45CCF
:100460001E2A38FB5CED8DB976674E55356C4CAD68
:100470005775F7ED953EAEC0C7DB89CEE8FF0E5C41
:100480004FC81ABF99E883AA39F09233EE8C128FC5
:100490008E2434B9EBB6F9AE48FAADFF94EAD32D09
:1004A0001434B87D1BFB01BA488D0BF3FD87D15680
:1004B00096589983683647D89F0E8610EE8D08A708
:1004C00072CAAAE73E37D1E63A8BEE6F07853995B7
:1004D0003FCA3873000080B290739F2D650A0001F7
:1004E000D304C71000005369C355B1C467FB0200B1
:1004F00000000004595A165C1E001F002000210055
:100500002200230024002500260027002D002E00B5
:100510002A002B0014001A000800150017001C0008
:1005200018000C00120013002F00300031003900B9
:1005300004001600070009000A000B000D000E0061
:100540000F003300340001002800E10001001D000D
:100550001B000600190005001100100036003700CE
:1005600038000100E500E000E300E20000000000C8
:100570002C000000000000003500E600015165007D
:10058000E40035003A003B003C003D003E003F00E7
:1005900040004100420043004400450001000100CA
:1005A000010052000100005C010001000100010097
:1005B0000100010001000100010001005000510094
:1005C0004F000100010001000100010001000100D5
:1005D0000100010001000100010001000100010013
:1005E0000100010001000100010001000100010003
:1005F00001000100010001000000000001000000F6
:1006000000000000010001000100010001003500B0
:100610003A003B003C003D003E003F0040004100EE
:100620004200430044004500010001000100520067
:100630000100005C01000100010001000100010057
:100640000100010001000100500051004F000100B5
:100650000100010001000100010001000100010092
:100660000100010001000100010001000100010082
:100670000100010001000100010001000100010072
:100680000100010000000000010000000000000067
:100690000100010001000100010035003A003B00AB
:1006A0003C003D003E003F0040004100420043004E
:1006B0004400450001000100010052000100005CFF
:1006C0000100010001000100010001000100010022
:1006D00001000100500051004F0001000100010025
:1006E0000100010001000100010001000100010002
:1006F00001000100010001000100010001000100F2
:1007000001000100010001000100010001000100E1
:1007100000000000010000000000000001000100D6
:100720000100010001000100010039036C109F105D
:1007300000000200020035036C109F10000003004F
:1007400001003A036C109F100000040002001F0318
:100750006C109F10B40A050001003B036C109F1041
:1007600000000600020021036C109F10000007002B
:10077000020037036C109F100000080001003C03CA
:100780006C109F100000120002003D036C109F10BF
:100790000000130002003F036C109F1000001400C3
:1007A000010041036C109F100000150000000000C4
:1007B0003A0AEB1700006B65796D61705F636F6ECD
:1007C0006669672E7261773A20253032580A2E7397
:1007D0007761705F636F6E74726F6C5F636170736B
:1007E0006C6F636B3A2025750A2E636170736C6FB2
:1007F000636B5F746F5F636F6E74726F6C3A20250A
:10080000750A2E737761705F6C63746C5F6C6775CB
:10081000693A2025750A2E737761705F7263746C74
:100820005F726775693A2025750A2E737761705F6C
:100830006C616C745F6C6775693A2025750A2E735C
:100840007761705F72616C745F726775693A2025B9
:10085000750A2E6E6F5F6775693A2025750A2E73CB
:100860007761705F67726176655F6573633A2025B3
:10087000750A2E737761705F6261636B736C61736D
:10088000685F6261636B73706163653A2025750A06
:100890002E6E6B726F3A2025750A0064656275676B
:1008A0005F636F6E6669672E7261773A202530321A
:1008B000580A2E656E61626C653A2025750A2E6DA8
:1008C00061747269783A2025750A2E6B6579626FBA
:1008D0006172643A2025750A2E6D6F7573653A2032
:1008E00025750A006565636F6E6669673A0A646517
:1008F0006661756C745F6C617965723A2025750A62
:10090000000A092D204D61676963202D0A443A09C8
:100910004465627567204D65737361676520546F28
:1009200067676C650A583A094D61747269782044AA
:1009300065627567204D6F646520546F67676C65ED
:10094000202D2053686F77206B6579707265737303
:10095000657320696E206D617472697820677269B1
:10096000640A4B3A094B6579626F61726420446591
:1009700062756720546F67676C65202D2053686F20
:1009800077206B65797072657373207265706F7212
:10099000740A4D3A094465627567204D6F75736539
:1009A00020546F67676C650A563A09566572736919
:1009B0006F6E0A533A095374617475730A433A09A6
:1009C000416374697661746520436F6E736F6C6503
:1009D000204D6F64650A46312D4631303A09537710
:1009E0006974636820746F204C6179657220302DC2
:1009F000392028463130203D204C30290A302D390D
:100A00003A0953776974636820746F204C61796583
:100A10007220302D390A47524156453A09537769B9
:100A200074636820746F204C6179657220302028CF
:100A3000616C7465726E617465290A423A094A757F
:100A40006D7020746F20426F6F746C6F616465729B
:100A50000A4553433A094A756D7020746F20426FFE
:100A60006F746C6F616465722028616C7465726E5E
:100A7000617465290A453A095072696E74204545CA
:100A800050524F4D2053657474696E67730A425318
:100A9000504143453A09436C6561722045455052C7
:100AA0004F4D0A4E3A094E4B524F20546F67676CB8
:100AB000650A000A092D20436F6E736F6C65202D47
:100AC0000A4553432F713A09717569740A000A097E
:100AD0002D2056657273696F6E202D0A5649443A6F
:100AE0002030783433333528555444292050494434
:100AF0003A20307830303032283335366D696E69BF
:100B000029205645523A203078303030330A425549
:100B1000494C443A2020284F637420313120323030
:100B20003232290A4F5054494F4E533A204C5546C1
:100B3000412045585452414B455920434F4E534F45
:100B40004C4520434F4D4D414E44204E4B524F207B
:100B50004C544F20343039360A4743433A20382E1C
:100B6000332E30204156522D4C4942433A20322EEA
:100B7000302E30204156525F415243483A20617630
:100B800072350A000A092D20537461747573202D83
:100B90000A686F73745F6B6579626F6172645F6C12
:100BA00065647328293A20253032580A6B657962CA
:100BB0006F6172645F70726F746F636F6C3A20253F
:100BC0003032580A6B6579626F6172645F69646C78
:100BD000653A20253032580A6B65796D61705F6324
:100BE0006F6E6669672E6E6B726F3A2025303258D1
:100BF0000A74696D65725F72656164333228293ADF
:100C0000202530386C580A003F004E4B524F3A2096
:100C10006F66660A004E4B524F3A206F6E0A000A0A
:100C20006D6F7573653A206F66660A000A6D6F75A1
:100C300073653A206F6E0A000A6B6579626F6172A4
:100C4000643A206F66660A000A6B6579626F6172AA
:100C5000643A206F6E0A000A6D61747269783A20F6
:100C60006F66660A000A6D61747269783A206F6E69
:100C70000A000A64656275673A206F66660A000AB0
:100C800064656275673A206F6E0A000A0A4A756DDC
:100C900070696E6720746F20626F6F746C6F61642F
:100CA00065722E2E2E2000433E2000436C6561723B
:100CB000696E6720454550524F4D0A004C25640A25
:100CC000005B435D005B445D005B535D005B575D13
:100CD000005B525D0009027B00040100A0FA0904D8
:100CE000000001030101000921110100012240005F
:100CF0000705810308000109040100020300000048
:100D000009211101000122220007058203200001B0
:100D1000070503032000010904020001030000008D
:100D2000092111010001226D000705840320000143
:100D3000090403000203000000092111010001223F
:100D40002200070585032000010705050320000197
:100D500012010002000000083543020003000102F6
:100D600003011C037600690061006C003A00660014
:100D7000360034006300320062003300630000007C
:100D800010033300350036006D0069006E00690005
:100D90000000080355005400440000000403090447
:100DA00011241FBECFEFDAE0DEBFCDBF04B603FED5
:100DB00018C080913C0490913D04A0913E04B091F4
:100DC0003F048730904BA740B04B59F410923C043D
:100DD00010923D0410923E0410923F04E0E0F8E3CC
:100DE000099511E0A0E0B1E0E2E1FBE602C0059068
:100DF0000D92A437B107D9F724E0A4E7B1E001C010
:100E00001D92AC33B207E1F70E949D2D0C9424355E
:100E10000C940000FF93EF93E0917401F091750141
:100E2000309709F00995EF91FF910895FC018591A4
:100E3000803011F0EFDFFBCF0895FF27E0E230E2D2
:100E400047FF0CC0419597FF09C0EDE26095709592
:100E500080959095611D711D811D911D27FF02C018
:100E6000219530E350E2AA27660F771F881F991F4C
:100E7000AA1FA41710F0A41B63955A95A9F7AA30CE
:100E800008F0A95FA05DAF93F39561157105810529
:100E9000910541F7ED3211F4EF93F395F21718F441
:100EA0003F93F395FBCF8F91B5DFFA95E1F7089566
:100EB000E991F9918591803021F0853219F0AADF0E
:100EC000F9CF089520E0E89455915532C1F350339D
:100ED00011F4689455915A3348F4505390F3220F0B
:100EE000022E220F220F200D250FF4CF0EF4219594
:100EF00089919991533619F3533729F1533559F1A3
:100F0000BC0188279927E8945C3621F4899199914E
:100F100068945591543639F446EF7EF077FF0DC052
:100F20008FEF9FEF0AC055374AE039F0583540E15E
:100F300021F0523642E009F00895FF93EF937DDFF0
:100F4000EF91FF91B7CFFF93EF93FC018191803038
:100F5000B9F360DFFBCFFF93EF9368DFF1CFDF934F
:100F6000CF93CDB7DEB72596A3DFCF91DF9108955C
:100F7000E8EDF0E080818E7F80831092E200109295
:100F8000DA001092E100A0EEB0E08C9181608C93C9
:100F900080818F77808319BCA7EDB0E08C918E7F24
:100FA0008C9380818F7E808310920B040895209112
:100FB000E4003091E50095E6A9012091EC00822F34
:100FC000817020FF06C08091E80080FF06C080E0AD
:100FD00008952091E80022FD1AC0809139048823E9
:100FE00089F0853089F08091EB0085FD0FC020915C
:100FF000E4003091E50042175307F9F29150E1F611
:1010000084E0089582E0089583E0089581E00895E2
:10101000EF92FF920F931F93CF937C018B010E945D
:10102000D707C82F811117C08091E80085FD0BC03C
:101030008091E8008E778093E8000E94D70788238C
:1010400099F3C82F08C0F70181917F018093F100C7
:101050000150110949F78C2FCF911F910F91FF90EB
:10106000EF900895CF93FC0180913904843001F50D
:10107000C091E900CF702091EC00922F917020FD7B
:1010800090E8C92B82E08093E9008091E80080FF1E
:101090000CC050E040E060E270E0CF010E94080820
:1010A0008091E8008E778093E800CF70C093E900CC
:1010B000CF9108958091310487FF13C08091E8009B
:1010C00082FF06C08091E8008B778093E80004C01F
:1010D000809139048111F2CF0895809139048823D9
:1010E000D9F38091E80080FFF8CF8091E8008E77F7
:1010F000ECCF982F9093E900242F762F50E089179A
:1011000031F07091EC002091ED005091F00021FD44
:1011100007C09F5F973071F78093E90081E00895E1
:101120003091EB003E7F3093EB003091ED003D7F3E
:101130003093ED003091EB0031603093EB00709311
:10114000EC002093ED005093F0002091EE0027FD7D
:10115000E0CF80E00895B0E0A0E0E1EBF8E00C948F
:101160007734C8EDD0E088818F7E8883E7EDF0E0AA
:1011700080818160808384E082BF81E080930B0462
:1011800088818E7F888302EE10E0F8011082109231
:10119000DA0081EEC82ED12CF601108288818F777B
:1011A000888388818068888388818F7D888319BC43
:1011B000109239041092300410922F0410922E04D1
:1011C00090EEE92EF12CF70180818B7F808388815E
:1011D0008160888342E060E080E00E947908F60147
:1011E00080818E7F8083F80180818160808380810F
:1011F00088608083F70180818E7F80838881806111
:101200008883CDB7DEB7E8E00C949334FC0180917D
:1012100037049091380486179707A0F0611571057F
:1012200029F49091E8009E779093E80090E0611592
:10123000710551F4911108C08091E80082FF34C01B
:1012400080E00895BC01F2CF809139048823C1F178
:101250008530C1F18091E80083FD30C08091E800C5
:1012600082FDEACF8091E80080FFE1CF8091F3001A
:101270002091F200382F6115710519F028303105E1
:1012800058F091E02830310509F090E02091E80015
:101290002E772093E800CBCF81918093F1006150AD
:1012A00071092F5F3F4FE7CF80913904882341F0C8
:1012B000853041F08091E80083FFBECF81E0089542
:1012C00082E0089583E008950895089580910D04C3
:1012D00008959C014FB7F8948091FF03909100040A
:1012E000A0910104B09102044FBF821B930B08959B
:1012F0002FB7F8946091FF0370910004809101046E
:10130000909102042FBF08952FB7F8948091FF03A6
:1013100090910004A0910104B09102042FBF0895A0
:101320002091FC033091FD032817390771F0909349
:10133000FD038093FC03E091FA03F091FB033097E7
:1013400021F00084F185E02D099508952091F8039E
:101350003091F9032817390771F09093F9038093BE
:10136000F803E091FA03F091FB03309721F0068037
:10137000F781E02D09950895E091FA03F091FB03C0
:10138000309729F00190F081E02D0995089580E0D3
:101390000895CF93DF93EC0140911403509115030E
:1013A00060911603709117032FB7F8948091FF0393
:1013B00090910004A0910104B09102042FBF841BFE
:1013C000950BA60BB70B843F9140A105B10518F50D
:1013D0008091140390911503A0911603B091170307
:1013E0008093100390931103A0931203B0931303FF
:1013F00084EF91E0A0E0B0E080930C0390930D03A4
:10140000A0930E03B0930F03D0931C03C0931B0350
:10141000DF91CF9108950E94780960931003709333
:101420001103809312039093130382E390E0A0E0F2
:10143000B0E0E2CFFC018481862351F492819923AC
:10144000B9F06923808583FF05C081E061110FC079
:1014500080E00895892F8F7092959F70982B862F2A
:101460008F7062956F70682B81E09613F1CF0895AD
:1014700081E0FDCFB0E0A0E0E0E4FAE00C94753448
:101480008FEF9FEF4430510508F469C04091030489
:1014900041FB882780F990E0880F991F42FB0027C5
:1014A00000F910E0000F111F000F111F802B912B6E
:1014B00040FBCC24C0F8D12C8C299D2943FB22274A
:1014C00020F9C22FE0E0DE2F53E0CC0FDD1F5A954C
:1014D000E1F78C2B9D2B44FBAA27A0F9B0E0E4E0B8
:1014E000AA0FBB1FEA95E1F78A2B9B2B45FBEE2742
:1014F000E0F9F0E0A5E0EE0FFF1FAA95E1F78E2BD3
:101500009F2B46FB222720F930E0B6E0220F331F45
:10151000BA95E1F7822B932B47FB222720F930E085
:101520003695322F222737952795822B932B2091A2
:101530000404322F3170F32EE82EF92A26952170FB
:10154000B22EBB0CA82EBF28C501BB0CAA0BBB0B2F
:10155000FB0180839183A283B38390E080E0CDB7C9
:10156000DEB7EAE00C94913480911F039091200340
:101570009093100180930F01089581152CE5920737
:1015800041F42091080330910903232B11F490E0DA
:1015900080E00895F894E82FE295EF70F0E031A133
:1015A000282F2F7081E090E001C0880F2A95EAF77C
:1015B000982F9095932391A392A1892B82A378943D
:1015C00008959091030492FF06C0282F28712830B7
:1015D000F9F4877F846093FF06C0282F2871283193
:1015E000F1F4877E84612091040420FF06C0382F27
:1015F00038713830D9F4877F816021FF06C0282FE9
:1016000028712831D1F4877E816194FD877E089509
:10161000282F24712430F9F68B7F8860DCCF282FA7
:101620002471243101F78B7E8861DDCF382F317131
:10163000313019F78E7F8860E0CF282F217121315A
:1016400021F78E7E8861E1CFCF93DF93EC01823862
:101650009105A9F1D8F58133910509F496C048F5B3
:101660008932910509F48AC08A9709F495C0C11599
:1016700022E5D20708F0B6C0C11531E5D30708F05E
:1016800026C1C83ED10508F09CC0C03ED10560F51A
:10169000C83AD10508F087C0C53AD10508F0EFC0B7
:1016A000C130D10509F12097F9F0C430D105E0F43B
:1016B00040C08533910509F45AC0C997C1F680919D
:1016C0000304837089F0C0EED0E00EC0833E910524
:1016D00099F170F4803E910501F1823E910539F651
:1016E0008091030482FD21C0CE01DF91CF91089546
:1016F000863E910561F1873E910571F1843E910529
:1017000009F0B5CF8091040481FFEECF80910304EE
:10171000C7EED0E084FD0DC0E7CF8091030480FDCB
:1017200007C19091040490FFDFCFC3EED0E084FFA7
:10173000DBCFD0E0C0E0D8CF8091030482FDFBC0B6
:101740009091040490FDBFCF84FFCECFF2CF809163
:10175000030483FDDDCFC8CF8091030483FDEEC079
:101760009091040491FFF0CFC4EED0E0BDCF809102
:10177000030485FFB9CFC9E2D0E0B6CF809103045E
:1017800085FFB2CFC5E3D0E0AFCF8091030486FFE1
:10179000ABCFCAE2D0E0A8CF8091030486FFA4CFEC
:1017A000C1E3D0E0A1CFCF3BD10518F6C85AD0E0B5
:1017B000CC0FDD1FC25EDE4F0990D881C02DD464EE
:1017C00093CFC11540E5D40708F064C0C11580E48B
:1017D000D80708F05CC0CE019A9581159F4108F4A6
:1017E00083CFA7CFC11536E5D30718F5C11545E559
:1017F000D40708F084C0C11584E5D80708F07AC082
:101800009C2F969596959E0123703327C115D3453D
:1018100008F462C0C1E0D0E002C0CC0FDD1F2A9501
:10182000E2F730E2939FC0011124C82BD92BDA686C
:101830005BCFC1158AE5D80778F4C11599E5D907BA
:1018400008F068C0C11528E5D20708F472CFDC2F74
:10185000CC27C06FD06A48CFCE01905681159042F8
:1018600008F067CF8D2F8F710E94E10A90E0982FCA
:10187000882788279F719C012C2BE90149C0C55AF4
:10188000D0E0C55EDE4FC881D0E0D0642DCFDF70E0
:10189000D06A2ACFCE01E4E096958795EA95E1F7E4
:1018A00083702C2F26952695237040E2249F90016B
:1018B0001124382B8C2F8370C1E0D0E002C0CC0FF4
:1018C000DD1F8A95E2F7C22BD32BDC680DCFDC2F0E
:1018D000CC27C16FD06A08CFC1E0D0E002C0CC0FE6
:1018E000DD1F2A95E2F720E2929FC0011124C82B48
:1018F000D92BEBCFDC2FCC27C46FD06AF5CE8C2F41
:101900000E94E10AC82FD0E0DC2FCC27CC27DF7162
:10191000D062EACE8C2F8F700E94E10A34E0D69517
:10192000C7953A95E1F7CF709C2FEC01D069DCCEDA
:10193000C9E3D0E0D9CEC2EED0E0D6CEC6EED0E03C
:10194000D3CE80911402882331F0109214021092A9
:101950001302109212020895CF93C82F80910404AD
:1019600082FF0CC0809114028C1741F00E94840900
:101970009093130280931202C0931402CF910895A2
:10198000809590913A04982390933A040895809515
:101990009091E30298239093E30208959091E302DB
:1019A000892B8093E30208951092F1011092F001C7
:1019B0001092EF0108958091210390912203892BC9
:1019C00089F00E9484092091120230911302AC0127
:1019D000421B530B81E020912103309122034217D7
:1019E000530708F480E081700895909112019923C3
:1019F000D1F09091030497FF16C0E82FE695E69585
:101A0000E695EE31E0F4F0E0EA58FE4F282F27701B
:101A100081E090E001C0880F2A95EAF780959281D5
:101A2000892382830895E8E7F1E09191891303C047
:101A3000DF0111971C9291E0EE37F907B1F7089595
:101A4000909112019923C1F09091030497FF14C063
:101A5000E82FE695E695E695EE31F8F4F0E0EA58E1
:101A6000FE4F877021E030E001C0220F8A95EAF72F
:101A70008281822B82830895A8E7B1E0EFEF90E0A6
:101A80002D91821751F0EF3F19F4211101C0E92F78
:101A90009F5F9630A9F7EF3F09F408950E2E000CD2
:101AA000FF0BEA58FE4FE6CF2091EE019091BD0169
:101AB00056E0291302C080E0089530E0529FF00103
:101AC000539FF00D1124E254FE4F7181761306C02E
:101AD0007081781303C07281741304C02F5F3F4F6D
:101AE0002770E7CF81E00895452B39F0682381E026
:101AF0006F3F09F080E08170089581E0FCCF809114
:101B0000EE019091BD01981301C008958F5F877019
:101B1000FACF292F953078F58E3068F590E03EE0C9
:101B2000239F800D911D1124682F677023E09695E7
:101B300087952A95E1F7FC01EE0FFF1FE80FF91FCB
:101B4000E456FE4F50E040E080E0219130E0062E68
:101B500002C0369527950A94E2F721703327042EA8
:101B600001C0220F0A94EAF7822B4F5F5F4F433088
:101B7000510559F7089580E00895292F953098F57B
:101B80008E3088F590E03EE0239F800D911D11245A
:101B9000282F277041E001C0440F2A95EAF723E07F
:101BA000969587952A95E1F7FC01EE0FFF1FE80F48
:101BB000F91FE456FE4F30E020E070E05191DF0164
:101BC0001197CB01022E02C0969587950A94E2F7F1
:101BD000817081958527842385278C932F5F3F4FC4
:101BE0002330310559F7089592959F70963091F002
:101BF00058F4925F9F70923058F4803F19F030F49F
:101C0000883E30F481E008959A5FF4CF843FD1F3A9
:101C100080E00895883EB0F3813FD1F7F3CF81FD96
:101C200002C02A9A08952A980895829590E09C010E
:101C3000220F331F220F331F2C7C95958795959586
:101C400087958373282B30E0C901880F991F8A7A02
:101C5000359527952575822B08959C013A95211578
:101C60003F4150F5FC01EE27F170BC016627727010
:101C7000AC01442754709C012227387094FF0EC099
:101C800080E1EF2B09F480E0672B09F08062452B9F
:101C900009F08064232B89F08068089581E0EF2BA0
:101CA00009F480E0672B09F08260452B09F084601D
:101CB000232B19F08860089580E008959FB7F89469
:101CC000109209049FBF90913904943009F048C0E4
:101CD0002091E9002F703091EC00932F917030FD2E
:101CE00090E8922B25E02093E9002091EB0020FF63
:101CF00034C02091EE0027FF30C020910804222339
:101D000021F02091E80025FF28C01092080426E069
:101D10003091E80035FF14C08093F1008091E80015
:101D200085FD27C08091E80080FFFCCF8091E8000E
:101D30008E778093E8009F709093E90080E008958B
:101D400030913904343049F43091EB0035FD05C051
:101D5000215041F481E0809308049F709093E90042
:101D60008FEF0895EFE9FFE03197F1F700C0000031
:101D7000CFCF8FB7F89421E0209309048FBFDBCF3A
:101D800080930504709307046093060480913904DE
:101D90008430F9F48093E9008FEF9091E80081504E
:101DA00095FD06C095ED9A95F1F700008111F5CFEC
:101DB0008091E80085FF0DC050E040E063E070E0F6
:101DC00085E094E00E9408088091E8008E77809377
:101DD000E8000895BC0184E00E94C00E0895BC0193
:101DE00083E00E94C00E0895CF93DF93EC018091B1
:101DF00012018823B1F18091030487FF32C060E2B1
:101E000084E08093E9008FEF9091E800815095FD88
:101E100006C095ED9A95F1F700008111F5CF8091FC
:101E2000E80085FF1BC08091120170E050E040E0A7
:101E3000811104C050E040E068E070E0CE010E94F3
:101E400008088091E8008E778093E80080E2FE0128
:101E5000AEE0B4E001900D928A95E1F7DF91CF9169
:101E6000089568E081E0CDCF81E08093E00080E2DA
:101E70008093D8001092C9008FE19EE40197F1F79A
:101E800000C0000087E090EBDC0180933C0490935D
:101E90003D04A0933E04B0933F0488E19CE00FB65C
:101EA000F894A895809360000FBE90936000FFCFD8
:101EB000019708F40895EFE9FFE03197F1F700C0CA
:101EC0000000F6CF0F931F93CF93DF930FE113E042
:101ED000C7E5D2E0CE010E94DA34F80181938F0188
:101EE0002196CB37F2E0DF07A9F7C0E3D7E0FE0188
:101EF00085919491009711F0FC0109952C96F7E0DB
:101F0000C03CDF07A1F7DF91CF911F910F9108959A
:101F10000F931F93CF93DF93843030F5653020F516
:101F20004E3010F5C42FD0E0CC0FDD1F2CE1629FA6
:101F3000C00DD11D11243CE8839FC00DD11D11247B
:101F4000CE0187960E94DA34082F10E0102F002768
:101F5000CE0188960E94DA349801282BC901DF91BE
:101F6000CF911F910F91089590E080E0F8CF462F18
:101F70002091E1023091E202232B99F4703F39F471
:101F8000603F79F48091DF029091E00208958430FF
:101F900040F4753030F46E3020F4672F0E94880FC3
:101FA000089590E080E00895CF92DF92FF920F9322
:101FB0001F93CF93DF936C0100913B048091150236
:101FC000082BC7E0D0E010E0FC2EC8010C2E02C0A8
:101FD000959587950A94E2F780FD0CC02197A0F7AC
:101FE000F12C8F2DDF91CF911F910F91FF90DF90FA
:101FF000CF900895B6018C2F0E94B70F0E94240B3A
:10200000019761F3EECFCF93DF93EC010E94D40FE1
:10201000BE010E94B70F0E94240BDF91CF9108955B
:10202000FC01808191810E9403100E94F40D0895AB
:10203000A5E0B0E0EEE1F0E10C947C3449835A83F2
:1020400089819A81662399F0222389F00E94D40F16
:10205000182F682F89819A810E94BD0D69817A812C
:10206000812F0E94B70F2596E3E00C9498340E94CC
:10207000890D182FF3CFFC01262F408151816281F9
:10208000738184810E941810089583E290E00E9479
:10209000DA348C3389F484E290E00E94DA34813CB3
:1020A00059F485E290E00E94DA3491E0803E09F034
:1020B00090E0892F8170089580E0FCCFCF9384E079
:1020C00090E00E94DA34C82F82E290E00E94DA3475
:1020D000982F8C2FCF910895DB01FC01329625912A
:1020E00034914217530758F0FC013496659174916E
:1020F000A901CD010E94BA3490E080E008958FEFED
:102100009FEF08950F931F93CF93DF930FE113E099
:10211000C7E5D2E0CE010E94DA34F80161918F0167
:10212000681719F0CE010E94E8342196CB37F2E00F
:10213000DF0781F7DF91CF911F910F910895DA01A9
:102140009C012E5F3F4FF90145915491F901259172
:102150003491A217B30758F0FC01349685919491FD
:102160000E94BA340E94821090E080E008958FEFC0
:102170009FEF0895CF93DF93CBE1D3E060E0CE01F2
:102180000E94E8342196C11584E0D807B9F7DF91A1
:10219000CF9108951F93CF93DF93122F8430E0F4F3
:1021A0006530D0F44E30C0F4C42FD0E0CC0FDD1F2A
:1021B0009CE1699FC00DD11D11249CE8899FC00D31
:1021C000D11D1124632FCE0187960E94E834612F20
:1021D000CE0188960E94E834DF91CF911F91089537
:1021E000CF93C82F6FEF81116CE383E290E00E94E0
:1021F000E8346FEFC11161EC84E290E00E94E834B2
:102200006FEFC11160EE85E290E00E94E834CF915B
:102210000895CF93C92F682F84E090E00E94E8349E
:102220006C2F82E290E00E94E834CF9108959B01E8
:10223000883070F49AE0899FB001112465587D4F71
:102240004AE050E0C9010E94CA3490E080E008955D
:102250008FEF9FEF0895AAE0B0E0E1E3F1E10C9485
:10226000733408E413E0F12CE12C8FE3C82E8BE2E9
:10227000D82E96E6A92E9BE2B92E2AED822E2AE2CE
:10228000922EF801D182C082B382A282958284828A
:10229000F58AE48ABE016F5F7F4F8E2D0E94171171
:1022A000892B29F489859A85F801938B828BFFEF1E
:1022B000EF1AFF0A0A5E1F4F88E0E816F10409F7DB
:1022C0002A96ECE00C948F34AAE0B0E0EAE6F1E163
:1022D0000C94733407E612E085E5C82E82E0D82E10
:1022E0009BECE92E92E0F92E27E0922E34E5A32E06
:1022F00032E0B32E88248394D6010D931D936D0193
:102300004AE050E0B701CE0101960E94CA34F801BC
:102310003896DF01892D1D928A95E9F789819A8186
:10232000D80111969C938E938F8112968C9312975D
:102330008D8113968C931397888514968C9314979C
:10234000898515968C9315978B819C8117969C9304
:102350008E93169718961C9218978A8587FF3CC013
:102360001E961C921E921D9780FF03C0D8011896DE
:102370008C9281FF04C0F80190859260908782FF63
:1023800007C0D80118969C911897946018969C9352
:1023900083FF04C0F80190859860908784FF07C090
:1023A000D80118969C911897906118969C9385FF78
:1023B00004C0F801808580628087015F1F4FFAE0CA
:1023C000EF0EF11C8BE1E81683E0F80609F094CFDC
:1023D0002A96ECE00C948F34F801B686A586C4CF1B
:1023E000AAE0B0E0E6EFF1E10C9473348E010F5FE8
:1023F0001F4F8AE0F80111928A95E9F79CE4E92ED3
:1024000091E0F92E6801AA24A394B12CF7018191DF
:102410007F018F3F09F446C0F894E82FE295EF70F2
:10242000F0E021A18F70A50102C0440F551F8A95CD
:10243000E2F7CA01922F982B91A392A1809589234C
:1024400082A3789400C0E1E5F1E021E030E0912C36
:10245000812C41914F3F09F481C0A42FA295AF7008
:10246000B0E090968C9190E04F7002C09595879562
:102470004A95E2F780FD72C0C901882A992A220F85
:10248000331F51E0EF35F50721F7F70131978081D0
:102490008F3F11F00E94CA0A80EA8A95F1F7F6018F
:1024A00091828082F2E0CF0ED11C41E5E41641E03A
:1024B000F40609F0ABCF4AE050E0B80189E192E0C0
:1024C0000E94AD34FF24F394009709F4F12C892B7A
:1024D00009F447C08AE0F801A9E1B2E001900D9249
:1024E0008A95E1F781E0809318020E948409909315
:1024F00017028093160280911602909117020E9493
:102500006909059790F18091190290911A029093B0
:1025100039028093380280911B0290911C029093A3
:102520003B0280933A0280911D0290911E0290938B
:102530003D0280933C0280911F0290912002909373
:102540003F0280933E02809121029091220290935B
:102550004102809340021092180207C090E080E090
:102560008CCF809118028111C6CF8F2D2A96ECE076
:102570000C948F34CF938091E30290913A04892B8D
:102580008093760180911402882329F180912103A0
:1025900090912203892B29F00E94DB0C81110E946B
:1025A000A10C8091760190911402892B8093760181
:1025B00080911201882309F447C08091030487FFAA
:1025C00043C08EE1E8E7F1E090E0815008F03EC0C2
:1025D00091110E94A10CC0911803C09580917601C1
:1025E000C82380911903C82BC093760140E250E0C4
:1025F00062EF71E086E791E00E94AD34892B11F122
:1026000080E2E6E7F1E0A2EFB1E001900D928A9559
:10261000E1F7E091FA03F091FB03309799F0809194
:102620001201882349F08091030487FF05C0C093FD
:10263000770186E0809376010280F381E02D86E7C2
:1026400091E00995CF91089586E0BCCF2191222396
:1026500009F4BBCF9F5FB9CFEF92FF920F931F9307
:10266000CF93DF93EC018A85811134C0EB80FC802D
:1026700087E5F81A26E12E9DC0012F9D900D1124AB
:10268000DC01A85BBC4F1496ED91FC911597309737
:1026900031F054966D917C91825B9C4F099586E157
:1026A0008E9D80018F9D100D1124085B1C4FF80139
:1026B00087810E94C70CF80180850E94C00C0E948F
:1026C000BA12188219861B861E821D821092470339
:1026D00010924603CDB7DEB7E6E00C949534CF9365
:1026E000DF93EC018989811116C081E0898B8F818C
:1026F0000E94CE0C80913A049885892B80933A04ED
:102700000E94BA12EA81FB81309729F06C897D8999
:10271000CE0106960995DF91CF9108958091110120
:10272000877F8093110182E00E94C00C809111018B
:1027300084FF06C08F7E8093110182E00E94CE0C40
:102740008091110185FF06C08F7D8093110180E289
:102750000E94CE0C0E94BA12089590E080E00E9480
:10276000A60990E080E00E94900910923A040E942D
:10277000BA12089580933B040E94AD13089580918E
:102780003B04982F9670963021F488600E94BA130B
:102790000895877FFBCF21E030E001C0220F8A95AA
:1027A000EAF7209580913B0482230E94BA13089592
:1027B0009091F101809589238093F101282F277052
:1027C00091F4282F082E000C330B9217130659F0A2
:1027D0009091040492FF07C08595859585950E9488
:1027E000CB130E94D40C08959091040492FB2227ED
:1027F00020F9281769F080FB92F9909304048091E6
:102800000304909104040E94091182E00E94D813ED
:10281000089521E030E001C0220F8A95EAF7809107
:102820003B04822B0E94BA1308959091040492FFF6
:1028300010C098E0899F90011124622B6093F101F0
:102840000E9409140E9484099093F0018093EF0183
:1028500008950E9409140895809315020E94AD13F3
:1028600008951092E30280911201E8E7F1E08823D5
:1028700061F08091030487FF08C08EE1DF011D92A3
:102880008A95E9F70E94AD13089586E0F7CFAAE292
:10289000B0E0EDE4F4E10C947C3481E394E0209129
:1028A000F100DC012D93CD01B4E089339B07B9F72A
:1028B00080913204833009F472C0B8F4813009F495
:1028C00049C0823009F4B3C08091E80083FF9CC204
:1028D00080913104909132049A3008F095C2E92F2A
:1028E000F0E0EA5DFA4C0C9460348A3009F48EC052
:1028F0008B3009F471C0893039F78091310481320D
:1029000019F78091350490913604009711F00297E1
:10291000D9F68091E800877F8093E8008091E800F5
:1029200082FF38C09091F3008091F200029731F459
:102930008091F100813011F0863021F48091F10016
:1029400080930D048091E8008B778093E8000E94CB
:102950005A08BACF80913104813A09F0B5CF8091FD
:10296000E800877F8093E8008091350490913604D9
:10297000892B61F460E28EE094E070E00E94060929
:102980008091E8008B778093E8009ECF60E090E034
:1029900080E0F3CF809139048111C0CF95CF809131
:1029A0003104813A09F090CF80913504909136043A
:1029B000892B09F089CF8091E800877F8093E80018
:1029C0008091E80080FFFCCF809112018093F1009C
:1029D0008091E8008E77B9CF80913104813209F07F
:1029E00073CF8091350490913604892B09F06CCF18
:1029F0008091E800877F8093E8000E945A088091C8
:102A00003304809312010E9431145ECF809131040F
:102A1000813209F059CF8091E800877F8093E800E8
:102A20000E945A088091340480930C044DCF809109
:102A30003104813A09F048CF8091E800877F809384
:102A4000E8008091E80080FFFCCF80910C04BECFAD
:102A5000803899F0823809F0D7C1809135048F70A1
:102A6000873008F0D1C18093E9008091EB0085FBAD
:102A7000882780F91092E90006C080912E04909179
:102A80002F04911182609091E800977F9093E80065
:102A90008093F1001092F1008091E8008E77B0C130
:102AA000882309F49EC1823009F0AEC180913304BD
:102AB0008111A1C1809135048F702FEF280F26302E
:102AC00008F0A2C18093E9002091EB0020FF93C1A0
:102AD000933031F48091EB0080628093EB008BC1E6
:102AE0009091EB0090619093EB0021E030E001C009
:102AF000220F8A95EAF72093EA001092EA0080916B
:102B0000EB008860EACF81117FC1109133041F77F9
:102B10008091E3008078812B8093E3008091E8002E
:102B2000877F8093E8000E945A088091E80080FF28
:102B3000FCCF8091E30080688093E30082E0111174
:102B400083E08093390460C18058823008F05CC112
:102B500020913304309134042C3DE3E03E07A1F58D
:102B600083E08A838AE289834FB7F894DE01139663
:102B700020E03EE051E2E32FF0E050935700E49173
:102B800020FF03C0E295EF703F5FEF708E2F90E063
:102B9000EA30C0F0C7968D939D932F5F243159F78B
:102BA0004FBF8091E800877F8093E8006AE270E081
:102BB000CE0101960E9406098091E8008B778093F0
:102BC000E80022C1C096E7CF809135049091360489
:102BD000432F55274330510509F44AC078F5413059
:102BE000510509F485C08BE790E0E5EDFCE042304B
:102BF000510509F009C12091E800277F2093E800E2
:102C000020913704309138048217930708F49C010F
:102C100040E02115310509F070C041116EC080916E
:102C2000E80082FDC9CF80913904882329F28530DC
:102C300019F28091E80083FFF2CFBECF41325105F7
:102C400009F447C04232510509F0DEC084309105D5
:102C500008F0DAC0FC01EE0FFF1FED59FE4F0190A6
:102C6000F081E02D815A9E4FDC018C9190E01DC0D7
:102C7000332721303105E9F02115310579F0223073
:102C80003105F9F02330310509F0BEC0E2E6FDE080
:102C9000E4918E2F90E0E2E6FDE007C0ECE9FDE074
:102CA000E4918E2F90E0ECE9FDE0009709F4ACC0D0
:102CB000A2CFE2E9FDE0E4918E2F90E0E2E9FDE0B1
:102CC000F4CFE0E8FDE0E4918E2F90E0E0E8FDE055
:102CD000ECCF8430910508F097C0880F991FFC0154
:102CE000E559FE4F0190F081E02D89E090E083CF1F
:102CF00082E190E0E0E5FDE07ECF80913904882319
:102D000009F45ACF853009F457CF8091E80083FD4C
:102D100053CF8091E80082FD82CF8091E80080FF50
:102D200078CF9091F3008091F2002115310519F0D0
:102D30008830910550F041E0089709F040E080911B
:102D4000E8008E778093E80064CF44914093F100CF
:102D50003196215031090196E8CF803809F054C0EE
:102D60008091E800877F8093E80080913004809311
:102D7000F10092CE811148C010913304123008F056
:102D800043C08091E800877F8093E800109330046F
:102D90000E945A08112311F084E005C08091E300DD
:102DA00087FDFACF81E08093390442E061EC81E055
:102DB0000E94790842E261EC84E00E94790842E2D4
:102DC00061EC82E00E94790842E260EC83E00E94BC
:102DD000790842E261EC85E00E947908809139042B
:102DE00013C080913304813079F481E0933009F08D
:102DF00080E080932F041092E9008091E800877FA3
:102E00008093E8000E945A088091E80083FF0AC07E
:102E10008091E800877F8093E8008091EB008062DA
:102E20008093EB00AA96E3E00C949834CF93C82FDC
:102E30001F928F938CEB9CE09F938F930E94AF0720
:102E400081E001C0880FCA95EAF70E942C140E9405
:102E500031140F900F900F900F90CF910895EFE1E4
:102E6000F3E0128E138E8FEA90E09183808385E0E9
:102E7000848F28E833E13383228322E330E0378BE9
:102E8000268B28EC30E0318F208F158E2AE030E041
:102E9000378F268F20E530E031A320A382A30E9444
:102EA00082100E9431141092040410920304E4E092
:102EB000F4E0808184608083809103049091040415
:102EC0000E9409110E94620F0895A4E1B0E0EBE6B0
:102ED000F7E10C947234A0900803B090090381E0EC
:102EE00090E0909309038093080386EFC82E84E056
:102EF000D82E00E0760110E015C0F4012591349140
:102F0000472D612F802F0E94CA1082E0880E911CED
:102F10007394EEE07E12F1CFFCE1EF0EF11C1F5F27
:102F2000153019F04701712CE8CF0F5F8CE8C80EFF
:102F3000D11C0430F9F60E942F171A8219821C82C4
:102F40001B821E821D8218861F8288EC90E09A8761
:102F500089870BE712E04AE050E0B801CE01019604
:102F60000E940C35065F1F4F0B3CE2E01E0799F7ED
:102F70007E01FBE0EF0EF11C8AE0F70111928A95C9
:102F8000E9F78FEF9FEF988B8F8787E08C8B4AE074
:102F900050E0B801C7010E940C35065F1F4F0B318E
:102FA000F3E01F07A1F7B0920903A092080364960B
:102FB000EDE00C948E3480E00E94F01060E086E238
:102FC00090E00E94E8340E9465170E94BA1081E0E8
:102FD0000E94F0100895CF92DF92EF92FF928FEF50
:102FE0009FEF4430510508F46AC0FB01C080D180D6
:102FF000E280F3800E94311480910304C0FA80F9CA
:10300000B701A601769567955795479540FB81F9DD
:10301000B701A60122E076956795579547952A95C1
:10302000D1F740FB82F9B701A60133E076956795A9
:10303000579547953A95D1F740FB83F9B701A6011B
:10304000E4E07695679557954795EA95D1F740FB6B
:1030500084F9B701A601F5E07695679557954795F0
:10306000FA95D1F740FB85F9B701A601A6E0769560
:10307000679557954795AA95D1F740FB86F9B70113
:10308000A601B7E07695679557954795BA95D1F71C
:1030900040FB87F98093030480910404D0FA80F9FF
:1030A000D1FACC24C0F8C0FA81F98093040480914D
:1030B0000304909104040E94091190E080E0FF90C5
:1030C000EF90DF90CF9008950E9431142FEF84E3AA
:1030D0009CE0215080409040E1F700C0000088E172
:1030E0009CE00FB6F894A895809360000FBE909373
:1030F0006000FFCF882321F00E94C00C0E94BA120A
:103100000895882339F090913A04982B90933A04CB
:103110000E94BA120895882321F00E94C70C0E94D1
:10312000BA120895882321F00E94CE0C0E94BA1290
:103130000895882309F44DC0823879F40E94BC09AF
:1031400081FF47C089E30E94200D0E94BA1289E3E3
:103150000E94F50C0E94BA120895833859F40E9417
:10316000BC0980FF36C083E50E94200D0E94BA1280
:1031700083E5EECF843859F40E94BC0982FF29C050
:1031800087E40E94200D0E94BA1287E4E1CF9CEFF1
:10319000980F913AE8F290E2980F983050F48770C7
:1031A00091E001C0990F8A95EAF7892F0E94C70C18
:1031B000D1CF9BE5980F933028F490E080E00E94F7
:1031C000A6090895885A873120F490E080E00E9493
:1031D00090090895FF920F931F93CF93DF93F82EDA
:1031E00000911D0310911E030115110509F449C03A
:1031F00010921C0310921B031092180310921903D3
:10320000D8011696CD91DC919E013A9521153F414A
:1032100008F4D07ED1E0C11101C0D0E0D8011996E8
:10322000ED91FC911A97309731F01B966D917C913E
:1032300080E00995D823DD2339F08CEF8C0F813A9B
:1032400030F58C2F0E94F50CFF2099F0E0911D03C2
:10325000F0911E03808584FD0CC080911A038823A1
:1032600041F0808191819C01215031092C3A3D45EA
:10327000A0F00E94BA1210921E0310921D03109229
:103280001A03C801CDB7DEB7E5E00C9496340E946E
:10329000BA128C2F0E949918D7CF0E94C909E9CF82
:1032A000CF93DF93EC010E949918CE010E942D0E5E
:1032B0009E01205E31092830310510F0CD2B29F414
:1032C0000E948B18DF91CF9108950E947A18FACF4F
:1032D00068EE7EEF90E080E00E94063560E082E0DC
:1032E00090E00E94E83460E083E090E00E94E834DF
:1032F0001092150260E084E090E00E94E83464E0FF
:1033000082E290E00E94E83460E085E090E00E9474
:10331000E83460E086E090E00E94E8346FEF87E0F8
:1033200090E00E94E83440E050E0BA0188E090E08C
:103330000E94FA3460E08DE090E00E94E83440E0C2
:1033400050E0BA0188E190E00E94FA3460E087E141
:1033500090E00E94E83440E050E0BA018CE190E057
:103360000E94FA3470E060E080E290E00E9406354E
:1033700040E050E0BA0188E190E00E94FA3480E039
:103380000E94F0100E94DB1740E050E0BA018FE08D
:1033900090E00E94FA3440E050E0BA0183E190E00E
:1033A0000E94FA340895B0E0A0E0E9EDF9E10C9450
:1033B0007834EBEFE80FEF3308F041C1F0E0E05D67
:1033C000FA4C0C94603483E090E00E94DA341F924F
:1033D0008F9384EE98E09F938F930E94AF0782E0D3
:1033E00090E00E94DA3483FB992790F91F929F9313
:1033F00082FB992790F91F929F9381FB992790F95F
:103400001F929F93982F91701F929F931F928F935B
:103410008BE998E09F938F930E94AF070E945E1004
:1034200087FB222720F91F922F9386FB222720F962
:103430001F922F9385FB222720F91F922F9384FB45
:10344000222720F91F922F9383FB222720F91F9216
:103450002F9382FB222720F91F922F9391FB222783
:1034600020F91F922F93292F21701F922F9381FBF8
:10347000222720F91F922F93282F21701F922F931C
:103480009F938F9386EB97E09F938F930E94AF0754
:103490008DB79EB788960FB6F8949EBF0FBE8DBFAE
:1034A00081E01CC08BEA9CE00E9416070E9468190C
:1034B000F7CF81E099E00E941607F2CF80910B03CD
:1034C000807F80930B0383EB9AE00E94160787EAC4
:1034D0009CE00E94160781E080930A03CDB7DEB717
:1034E000E7E00C9494348BE89CE00E9416078091EE
:1034F000080390910903892B99F20E9431149FEFE0
:1035000024E38CE0915020408040E1F700C00000AF
:103510000E94340F90910B03892F8E7F90FF816062
:1035200080930B0380FF03C08FE79CE0C4CF82E74A
:103530009CE00E94160780910B03817F80930B0310
:10354000AFCF90910B03892F8D7F91FF8260809385
:103550000B0381FF08C085E69CE00E94160780915E
:103560000B038160EBCF87E59CE0A5CF90910B0327
:10357000892F8B7F92FF846080930B0382FF03C0AF
:1035800088E49CE0EACF88E39CE095CF90910B0320
:10359000892F877F93FF886080930B0383FF03C08D
:1035A0008CE29CE0DACF8FE19CE085CF8EEC9AE054
:1035B00082CF0E947809062FF72EE82ED92EC091CF
:1035C0000304C7FBCC27C0F910910C04D091120161
:1035D0000E94BC09DF92EF92FF920F931F92CF934C
:1035E0001F921F931F92DF931F928F9384E89BE09B
:1035F0009F938F930E94AF078DB79EB70E960FB61D
:10360000F8949EBF0FBE8DBF4BCF0E943114909196
:103610000304892F97FB87F980588093030487FF61
:1036200003C085E19CE047CF8AE09CE044CF80E086
:103630000E94161735CF8953FBCF8D51F9CF88E003
:103640009CE00E94160780E049CFCF93C82F8823C3
:10365000C9F08238C9F40E94BC0981FD13C089E316
:103660000E94200D0E94BA122FEF81EE94E02150AB
:1036700080409040E1F700C0000089E30E94F50C13
:103680000E94BA12CF9108958338A1F40E94BC0918
:1036900080FDF8CF83E50E94200D0E94BA122FEF23
:1036A00081EE94E0215080409040E1F700C000009E
:1036B00083E5E4CF8438A1F40E94BC0982FDE2CF07
:1036C00087E40E94200D0E94BA122FEF81EE94E051
:1036D000215080409040E1F700C0000087E4CECF49
:1036E0008CEF8C0F813A08F066C080910A03882322
:1036F00049F1813089F110920A03809112018823E7
:1037000009F44BC08091030487FF47C0EC2FE69576
:10371000E695E695F0E0EA58FE4F828190E04C2F66
:10372000477021E030E002C0220F331F4A95E2F7D4
:1037300082239323892BD9F18C2F0E94F50C0E94B0
:10374000BA1235C08091E3028232B9F68C2F0E9402
:10375000D319811197CFD1CF8091E3028232B1F397
:10376000C431B9F038F4CB3049F08DE492E00E94D6
:10377000160711C0C93269F0C833B9F783EB9AE074
:103780000E9416078FE492E00E94160781E0817084
:10379000E0CF10920A0380E0FACFE8E7F1E08EE78D
:1037A00091E02191C21741F28E179F07D1F78C2F1C
:1037B0000E94200D65CF80E28C0F883048F4C770DE
:1037C00081E001C0880FCA95EAF70E94CE0C58CF5D
:1037D000EBE5EC0FE33040F4F0E0E55EFE4F808176
:1037E00090E00E94A6094ECFC85AC73108F04ACFD0
:1037F000EC2FF0E0EE0FFF1FE25EFE4F8081918123
:103800000E9490093FCF1F93CF93DF93182FC09151
:103810003F03D0914003893321F0C0913D03D09103
:103820003E03812F0E94251B209739F4812F0E948F
:103830009918DF91CF911F9108958FE99FE001972B
:10384000F1F700C000002197EFCF0F931F93CF93A4
:10385000DF93C42FD22FFC0182818823A9F04093EB
:1038600045030E9484099093440380934303C770E7
:1038700081E001C0880FCA95EAF70E949218DF9193
:10388000CF911F910F91089510914503141336C0E5
:1038900080914303909144030E946909209137036A
:1038A000309138038217930748F5C0E2CD0F1D17FA
:1038B000B9F080E2810F883040F4177081E001C0D8
:1038C000880F1A95EAF70E948B18C83048F481E0F7
:1038D0009D2F977001C0880F9A95EAF70E94921861
:1038E000802F0E94031CC83050F6D77081E001C0C1
:1038F000880FDA95EAF70E948B18C1CFC77081E074
:1039000001C0880FCA95EAF7F6CFB0E0A0E0EBE877
:10391000FCE10C947534EC018AE0A82E2881222366
:1039200009F48FC02130C9F599818A81913021F441
:1039300022960E94031C05C0923029F422960E9410
:10394000251B2196EBCF933021F422960E949918E3
:10395000F8CF943011F02196F4CF229630E020E099
:10396000AE014F5F5F4F8053990B8A30910550F045
:103970002150310930F38FE99FE00197F1F700C042
:103980000000F6CFA29EB001A39E700D11249C01F1
:10399000260F371F8981EA01E3CFE22FF0E0E353DE
:1039A000FE4FB490822F86958695869590E0FC0117
:1039B000E354FE4FE4902770F12C022E02C0F594E0
:1039C000E7940A94E2F731E0E322FF24FC01E35597
:1039D000FE4FC490D12C022E02C0D594C7940A94F5
:1039E000E2F731E0C322DD24FC01E356FE4F0491EF
:1039F00010E002C0159507952A95E2F7017011278E
:103A0000E114F10419F081EE0E94251BC114D104C8
:103A100019F086EE0E94251B8B2D0E94031CC114F9
:103A2000D10419F086EE0E949918E114F10419F0FE
:103A300081EE0E9499180115110509F482CF8CE2DC
:103A400078CFCDB7DEB7EAE00C949134CF93DF9313
:103A5000EC010E942D0E9E01205E310928303105B7
:103A600010F0209741F40E9492188C2F0E94251B81
:103A7000DF91CF9108950E948118F7CF662329F036
:103A800020913A04226020933A049C01305621157B
:103A900040E2340720F0305E2115304108F49927C8
:103AA0000E94261D0895B0E0A0E0E9E5FDE10C9438
:103AB00078347C018B01D42E8091110182FF8CC05F
:103AC000C0910603D0910703CE15DF0521F0E11464
:103AD000F10409F081C0809111018B7F8093110165
:103AE00081FD73C08091040390910503A801481BD8
:103AF000590B81E020910F013091100142175307BB
:103B000008F480E08170F82E80911101F0FA81F9BB
:103B100080931101FE0183E0F695E7958A95E1F720
:103B2000EE71FF27EC51FD4F20813181AE014F70C6
:103B3000552781E090E002C0880F991F4A95E2F76F
:103B4000FF2009F444C0822B932B918380838091C2
:103B5000E30281FF08C0809111018061809311010F
:103B600082E00E94C70C8091E30285FF08C080912B
:103B7000110180628093110180E20E94C70C6F2DB9
:103B8000CE010E943E1DDD2031F080913A0385FF79
:103B900002C086FF3BC080913D0390913E030E948E
:103BA000580F80910603909107039C013056211510
:103BB00040E2340720F0305E2115304108F49927A7
:103BC0000E9450190E948E131DC081E09BCF8095EA
:103BD000909582239323B9CFC70199279701305637
:103BE000211540E2340728F0305E2115304108F0FD
:103BF000C7010E94501980910603909107038E150A
:103C00009F0501F31093050300930403CDB7DEB7BE
:103C1000E7E00C949434A5E0B0E0E1E1FEE10C941F
:103C20007D349093E0028093DF02811520E29207B9
:103C300030F40E94261D2596E2E00C94993480EF22
:103C400089838A8381E08B830E9484098160782F35
:103C50009D838C8349815A816B818D810E94F929D2
:103C6000EACFA7E0B0E0E7E3FEE10C946D347C011D
:103C7000DC0113964D915C91149711966C911197FC
:103C80008C910E94740D81116CC161E0C7010E948A
:103C90003B108C01F7018281811161C0D70112961E
:103CA0008C9181119BC00031FFE51F0709F45DC1B4
:103CB00001312FE5120709F45CC16801E7E5DE1A5E
:103CC000FFEFCF16D10409F060F56AE472E08C2DA5
:103CD0000E941711892B29F586E18C9DF0018D9D9D
:103CE000F00D1124E85BFC4F8681813009F043C15F
:103CF00080914A0290914B02892B99F080914C025D
:103D000090914D02892B69F080914E0290914F0263
:103D10002091500230915102822B932B892B09F470
:103D200034C1F7015280552009F441C10F35FDE53A
:103D30001F0709F438C100362DE5120751F00E3582
:103D40003DE5130709F033C180910001882309F490
:103D50002AC11092000180E00E94EA18F2C080910E
:103D60000D0190910E01019609F498CFE8E4CE2E52
:103D7000E3E0DE2EB12CA12C9924939480910D01C7
:103D800090910E018A159B050CF488CFF60186816F
:103D90008823E9F0818592850817190739F4809105
:103DA0004603909147030817190789F0D6011F961B
:103DB0009C921F971C961C930E931B97C6010E9402
:103DC0006F13C60106960E942C1310923A04BFEF9F
:103DD000AB1ABB0AE6E1CE0ED11CD0CFC80182518E
:103DE0009F45409710F00C942E278FEF93E00E9490
:103DF000DA348111A6C07EEED72ED00E0BE113E08F
:103E0000D11036C019821A821B821C8299249A947E
:103E100068012FEFC21AD20AC8010E94DA348983DE
:103E20001A82882309F48DC0813009F07FC05801BF
:103E300032E0A30EB11CC6010E94DA34C82E8A8378
:103E4000882309F47EC0C5010E94DA34D82E8FEF92
:103E50008C0D8330D8F4580143E0A40EB11CDB82F2
:103E6000DD2021F0CE0101960E94851C8501D0CF76
:103E70000115F4E01F0709F464C0C8010E94DA3498
:103E8000811101C0DA940F5F1F4FBACF8BEF8C0DF9
:103E9000833030F5C8010396DB825C01DD2031F30D
:103EA000580154E0A50EB11C0E94DA348C8388239B
:103EB000E9F28B819C818130AFEF9A0710F0982F47
:103EC0008827B6E0CB1631F0E7E0CE1631F00E943D
:103ED0002E2BCCCF0E940B1EC9CF0E94B52AC6CF75
:103EE000F4E0CF12C3CF580124E0A20EB11CC801E8
:103EF00003960E94DA34DD2021F1882311F18150EC
:103F0000990B989E9001999E300D11244D2D415092
:103F1000550BCA01820F931F019708F4A7CFAFE991
:103F2000BFE01197F1F700C00000F6CFCE01019677
:103F30000E94851C56019ACF81E00E9409140E94BC
:103F4000BF138091F101877061F0D70112968C91B7
:103F5000882339F08091040482FF03C082E00E942C
:103F6000D8132796E2E10C94893481E00E94CB13A8
:103F7000E6CF82E0FBCF823009F0D3CE80914E02B3
:103F800090914F02892B09F4CCCE26E12C9DC001E3
:103F90002D9D900D1124885B9C4FDC0150961C9246
:103FA0000E946F13BECE81E080930001CACF809142
:103FB0000001882309F47BC6480140EE841A910869
:103FC0004090140280919901482A8091E302482A86
:103FD00058E08516910408F086C0980127703327B1
:103FE00081E090E001C0880F2A95EAF7552009F496
:103FF00077C0482AD7018D919C910E94890D21E0BC
:1040000030E0390102C0660C771C8A95E2F7E09136
:104010001D03F0911E03FF83EE83209096013090E4
:1040200097011D822D81E22FF0E0EE0FFF1FEB5A6A
:10403000FD4FC080D180C114D10409F4FAC64110EB
:1040400005C0D60112968C91811187C0F60183813B
:1040500090E086219721892B09F47FC08085982FD5
:10406000977009F487E0F8E08F16910408F055C0C6
:10407000552009F44EC086958170882309F46DC0DF
:10408000D601AD90BC900A151B0519F4552009F412
:1040900064C0EE81FF81CE16DF0609F45EC0D60152
:1040A0001D96ED91FC91309721F08081882309F4D1
:1040B00054C0642DC6010E941A0A882309F44DC019
:1040C0000A151B0509F0D7C60115110509F4D8C654
:1040D0005110D8C6A214B30409F03FC0512CD2C667
:1040E0008095482287CF552009F48CC610939701FC
:1040F000009396010E94780960931403709315034E
:10410000809316039093170310921C0310921B03C5
:1041100071CF82FB882780F9B0CF5520F1F08170F4
:10412000ACCF0E949918CDC60497813A910548F406
:104130008A2D0E94200D552009F4B9C50E94BA129B
:1041400000CF0E94BA128FE39CE90197F1F700C0FB
:1041500000008A2D0E94251BEECF9D819F5F9D83CD
:1041600061CFFC01208131810217130709F098C546
:10417000511098C510921A0380E06DC6882309F487
:10418000E5C5FA018189882309F4E0C5C501825B90
:104190009C4F0E942C13DAC580911101816080939D
:1041A000110102C6809111018E7F809311010E943E
:1041B0008E13FAC5809111018F7E013E110531F0F9
:1041C000053E1105C9F4809111018F7D8093110185
:1041D0008091110180FFF7C5D70112968C910832AA
:1041E000110528F50E31110508F074C004301105D1
:1041F00080F58111E4C5E7C5C8019056811540E2FC
:10420000940720F0905E8115904110F78091110184
:1042100082FFD9C580913C0381FDD5C52DE232E0F6
:1042200040E0B60190E080E00E94531DCCC5093308
:10423000110558F40D32110518F40B321105C9F6A9
:1042400090913A0392FDD5CF08C004361105C1F311
:10425000D0CF90913A0394FDCCCF882309F4A1C02C
:104260009091E30280911402282F292B322F3D7F59
:10427000B1F1109207031092060330913A0331FD19
:104280002EC0F80143E0F695E7954A95E1F7EE7107
:10429000FF27EC51FD4F98012F70332781E090E00C
:1042A00002C0880F991F2A95E2F78095909520818A
:1042B0003181822393239183808360E0C8010E942F
:1042C0003E1D809114028D7F0E94AC0C82E00E9402
:1042D000D81337CE90913A0393FD8BCFBECF36E003
:1042E000F701ADE2B2E001900D923A95E1F710923C
:1042F0002F021092310210923002A0900603B0906B
:1043000007030A151B05B1F530913A0335FF32C09A
:104310004091110141FB992490F841FF02C036FF02
:1043200029C04091040350910503B601641B750B2D
:10433000409137035091380364177507D8F491FF03
:1043400008C08091110180618093110182E00E9478
:10435000C70C8091E30285FF08C080911101806243
:104360008093110180E20E94C70C692DC5010E9453
:104370003E1DE7CD9091110121FB91F99093110120
:104380008D7F0E94AC0C1093070300930603D0921C
:104390000503C09204038091110184608093110190
:1043A00095CF970140E0B601C8010E94531DC9CDC9
:1043B000053F4CE5140709F463C008F45BC0063FF1
:1043C0008CE5180709F462C0D70112963C9133239B
:1043D00009F4ABC5109245030330BDE51B0708F097
:1043E00061C00A3FECE51E0730F4C80182509C45CD
:1043F000449708F061C00E945E109093040480937B
:10440000030401313CE5130709F47CC108F0F6C050
:1044100009305CE5150709F463C108F0C1C0053037
:104420009CE5190709F454C108F0A6C00330BCE5A7
:104430001B0709F443C108F047C180910304816060
:104440000230FCE51F0709F43CC180910304909100
:1044500004040E9409110E94311473CD07E225EE75
:1044600045EE68ED7CE5CAC406E221EE40EE63EF5E
:104470007CE5C4C407E225EE44EE64EF7CE5BEC4EF
:1044800006E221EE42EE65EF7CE5B8C407E225EED8
:1044900046EE66EF7CE5B2C408E221E045EE69ED48
:1044A0007CE5ACC40136FDE51F0709F4A4CF053A4D
:1044B0002DE5120709F49FCF06315CE5150709F4D5
:1044C00039C50A358DE5180709F475C108F04EC1E4
:1044D0000115ACE51A0709F454C10E3D1C4509F459
:1044E0005DC1F701828100811181882309F467C1D0
:1044F000C8010E94D40FD82E682FC8010E94BD0D9C
:10450000B8018D2D0E94B70F0E94240B8C01882EBC
:10451000D7011296CC9012971596DC90D2943FE07A
:10452000D3228091F1018770C1F0AC2CCC20B1F086
:10453000812F807F803421F080E2800F883068F006
:104540008091040482FF09C082E00E94D813809108
:10455000F1018770AA24A3948111A12C912E929429
:104560002FE09222BBE0B91508F4A5C1E92DF0E0D7
:10457000E159FA4C0C946034809103048062073056
:104580002CE5120709F49DC0809103048061083076
:104590003CE5130708F495C080910304806491C042
:1045A000809103048B7F0D304CE5140709F489C01A
:1045B00088F40B308CE5180709F498C08091030447
:1045C0008C600C309CE5190708F47BC080910304D3
:1045D0008D7F77C0809103048F7E0F30ACE51A0782
:1045E00009F46FC080910304877F0031BCE51B078D
:1045F00008F467C0809103048F7D63C00D3FECE534
:104600001E0709F47BC058F505312CE5120709F4A3
:1046100083C098F480910304837F03314CE5140731
:1046200009F44FC008F472C00E9431149091030441
:10463000892F97FB87F9805844C00B3F8CE51807FA
:1046400009F44AC008F056C08091040481600A3F12
:10465000ACE51A0709F0F9CE80930404F6CE0130D8
:10466000BDE51B0709F464C0C0F4809104048C7F8D
:104670000F3FFCE51F0781F380910404836001155F
:104680002DE5120748F380910404982F90959170BE
:104690008E7F892B90FB81F9DFCF01363DE5130733
:1046A00009F44CC0053A4DE5140709F44EC0023038
:1046B0005DE5150709F0C9CE60E03BC080910304B9
:1046C000826080930304C1CE809103048460F9CF9B
:1046D000809103048860F5CF809104048260BCCF90
:1046E0000E943114809103048068EBCF8091030411
:1046F0008E7FE7CF809104048E7FAECF809104043B
:104700008D7FAACF809103048F7BDBCF0E94311471
:10471000809103048F77D5CF8091030482FB992782
:1047200090F921E0922790FB82F990FB83F9C9CFA1
:1047300061E08EE090E00E94E83487CE909103041F
:10474000892F8F7E94FF8061BCCF90910304892FC5
:104750008E7F90FF8160B5CF80919801811104C058
:1047600089E20E94F50CEACC85E3FBCF0C35EDE540
:104770001E07B9F010F1073A1D4509F0B2CE0E94AC
:1047800064180E9431143FEF44E35CE03150404034
:104790005040E1F700C000000E94340F0E946819E9
:1047A000EECF8091040482FB882780F991E089276D
:1047B0000E94F41396CE81E0FBCF80E0F9CFC801D0
:1047C0000E94890DD82E9CCEE12FEF70BE2E812F36
:1047D000807F19F0B29490EFB922CC20A9F0BB20D1
:1047E00059F080E2800F883010F0811007C08B2DC7
:1047F0000E94CE0C0E94BA12802F5BC080913A04B6
:10480000B82AB0923A04F6CF802F0E949918BB20A4
:1048100009F451C080E2800F883010F0811004C08C
:104820008B2D0E94C70C03C08B2D0E94C00C0E94D0
:10483000BA1241C0F12FFF70BF2E812F807F8032CE
:1048400019F0B29480EFB822882029F121E0821675
:1048500009F4AFC0CC2009F4B8C0DD2009F480C051
:1048600020E0D7014C9111965C91119712966C91B2
:10487000129713967C91139714968C910E9418109E
:1048800080913C0381FDB8CFF701858180FFB4CFD3
:104890008F70858365C08091040482FD41C0CC2067
:1048A000C9F1BB2029F08B2D0E94CE0C0E94BA12B8
:1048B00080E00E94251B292D2850330B2430310520
:1048C00020F40E94BC090E940F0EC8010E94F40D42
:1048D0008111C0C110929B0110929A01AA20A9F0E7
:1048E0008091F10180FD11C0F701128285958595B7
:1048F00085950E940914C7010E94311E8091F10123
:104900008595859585950E94CB1360E0C7010E942F
:104910003B1027CB80E00E949918BB2061F280CF2A
:10492000CC2011F1D11004C0809114028B2919C040
:1049300031E0D31206C0809114028B290E94AC0C86
:10494000BACF80913B03823078F3D812EDCF0E942A
:10495000A10C909199018B2D892B8913809399013A
:104960008B2D0E949218A7CFD11003C00E94A10CDA
:1049700017C080913B0341E0D41216C0823008F486
:104980009ACF8091E3028B2109F495CF0E94A10C6C
:10499000909199018B2D809589238913809399019A
:1049A0008B2D0E948B1887CF823000F3D812DECF78
:1049B00082CF80914103CC2021F08D1508F47BCF6C
:1049C000CFCFD81608F077CFEBCFDD2049F3F9E34E
:1049D0008F1238C180913F03909140030E94580F7D
:1049E000802F0E94991867CF812F869586958370B6
:1049F00061F0813009F05FCFC8019370C11002C02F
:104A000090E080E00E94900956CFC8019370C110D9
:104A100002C090E080E00E94A6094DCF812F8370F4
:104A200091F5C11048CF402F429546954770440FED
:104A3000440F802F8F70042E01C0880F0A94EAF76C
:104A4000202F207104FF07C02FE030E001C0220FAB
:104A50004A95EAF72095312F3695369533703230E6
:104A600069F050F440911502313029F0822B8423F3
:104A70000E942C1420CF842B822BFACF282B8091DC
:104A800015028227F5CF8695CC2011F0812F8170F9
:104A9000882309F410CF402F429546954770440F64
:104AA000440F802F8F70042E01C0880F0A94EAF7FC
:104AB000202F207104FF07C02FE030E001C0220F3B
:104AC0004A95EAF72095312F369536953370323076
:104AD00069F050F440913B04313029F0822B84235B
:104AE0000E94BA13E8CE842B822BFACF282B809118
:104AF0003B048227F5CF212F2F70B22ECC2029F036
:104B0000822F0E940914802F2CCF802F0E948B1897
:104B10008B2D0E94CB13CFCE802F32EF8316B1F1B5
:104B2000381570F040EF8416D1F051EF851691F0F2
:104B3000CC2009F482C0D1105FCE812F8F712AC0A2
:104B400093EF891651F1A4EF8A12F2CF80910404F9
:104B500082FD2FC0812F8F71CC20D9F21BC0809194
:104B60004103CC2079F0D81608F0A5CE212F2F7163
:104B700081E090E001C0880F2A95EAF790913B040C
:104B80008927AECF8D1508F496CEF0CF812F8F7187
:104B9000C110BFCF0E9409148ECE80E0CC2009F452
:104BA0009FCF81E0912F9F7101C0880F9A95EAF7FE
:104BB00097CF80913B03823040F1CC20D1F090918F
:104BC000F1019770943041F40E94D40C812F8F71C1
:104BD0000E94CB13A12C6FCED816E0F7B12FBF7176
:104BE000BB2E8B2F0E94091463E08B2D0E9415149D
:104BF000F1CFD81630F00E94D40C64E0812F8F7171
:104C0000F5CF81E00E94D813E5CFCC2059F0E12FF9
:104C1000EF71BE2E8E2F0E94091463E08B2D0E942F
:104C2000151449CE81E00E94D813F1E0FD1508F07B
:104C300042CE82E00E94D8133ECEDD2041F089337F
:104C400009F4C8CE80913D0390913E03C7CE812FD9
:104C50008F715FCFCC2019F0D1103CCE3FCED11058
:104C600039CE20E0D7014C9111965C9111971296A4
:104C70006C91129713967C91139714968C910E94C5
:104C8000181080913C0383FF25CE80919A0190916A
:104C90009B01029709F01ECE802F0E94031C1ACEA2
:104CA000552029F0DC0118968C9185FF65CAC80152
:104CB00097558F3F910511F008F048C020910D01E4
:104CC00030910E012817390724F490930E01809338
:104CD0000D01F701228136E1389F5001399FB00C58
:104CE0001124A501485B5C4F6A01DA0150962C93B0
:104CF0005097928116968C911697992309F43ECA83
:104D00001A961C930E9319978F5F16968C930E9498
:104D10008409F601968785878091140287838091A4
:104D20003A049091E302892B80870190F081E02D75
:104D3000309741F0D60154966D917C91C501825B0C
:104D40009C4F0995109347030093460380913A03C3
:104D500080FF39C00E9484096C01D70112968C91A2
:104D6000882309F427CA8091110182FF08C02DE22F
:104D700032E040E0B60190E080E00E94531D0B312C
:104D8000BCE51B0709F408CA0C31ECE51E0709F461
:104D900009CA90911101892F8E7F90FF81600A319D
:104DA000FCE51F0709F401CAC8019056811520E2ED
:104DB000920728F0905E8115904108F009CA109280
:104DC000070310920603033FBCE51B0709F44CCB15
:104DD00008F0EECA083DFCE51F0709F43FCB093D8A
:104DE0002CE5120709F458CB073D3CE5130709F001
:104DF000EBCA06E221EE41EE67ED7CE5C7010E94B9
:104E0000251C9FC88091960190919701081719075A
:104E100081F410929701109296011092140310924F
:104E20001503109216031092170310921C03109290
:104E30001B0380911D0390911E03009709F437CF47
:104E4000A8E08A16910408F08CC9642D0E941A0A01
:104E500081112DCF81E00E94EA1829CF0031BFE5F2
:104E60001B0709F469C80131EFE51E0711F00C9426
:104E7000911E82E062C8A114B10409F02BC9512C23
:104E8000B12CA12C80E00E94EA18D0921E03C0929F
:104E90001D0381E080931A03D60115968C918093AF
:104EA000180351100EC0AB2861F0F601808191818A
:104EB0009C0124503109213A310508F032C90E9481
:104EC000F50CD6011696AD90BC90C5019A9581154A
:104ED0009F4110F4E0EEBE2277247394C501019740
:104EE0008C3A9D4508F0712CD6011996ED91FC91F4
:104EF0001A97309731F01B966D917C9181E009955E
:104F00007822772079F0F601868197810E942D0E14
:104F100080931903C501F8E08F16910408F004C9C5
:104F20000E94C9090E94BA1206C906314CE514074D
:104F300009F0D7CA8091E302982F9A7A2091390319
:104F400020FF04C0482F447409F090E021FF04C002
:104F5000482F417109F090E022FF04C0482F4878A3
:104F600009F090E023FF03C0827209F090E0332340
:104F700009F4F2CB81E0911101C080E080939801A7
:104F800089E2911185E30E94200DD8C8B0E0A0E02D
:104F9000ECECF7E20C9476348091BC01807F09F050
:104FA00052C08091B901882309F44DC0C091EE012F
:104FB00086E0B82E8091BD018C1709F444C0F090B2
:104FC000B701E090B801C090BA01D090BB01A60132
:104FD0006E2D8F2D0E94740DD0E0811139C0BC9EC2
:104FE0008001BD9E100D1124F801E254FE4F818115
:104FF0008E112EC080818F112BC08281811128C01B
:10500000E380F480EC18FD0860E087EB91E00E94FB
:105010003B108091370390913803E816F906C0F4ED
:105020008091BC018F7080618093BC01F801ED53C9
:10503000FE4F80818F708061808387EB91E00E94BA
:10504000311E0E947F0DCDB7DEB7E9E00C9492349B
:105050002196C770AFCFA1E1B0E0E1E3F8E20C9494
:105060006E348C0185E0F801DE011D9601900D92F1
:105070008A95E1F7D8014C9011965C9011971296A1
:10508000EC9012971396CD90DC9060E087EB91E066
:105090000E943B1087EBA82E81E0B82E8090BA01C9
:1050A0009090BB01A4016091B8018091B7010E946A
:1050B000740D811183C1F090B901F601E819F90965
:1050C0004F0160E0FF2009F42FC1C5010E943B1091
:1050D00060903703709038033090BC0186149704B9
:1050E00008F0E4C04091BA015091BB01B090B70103
:1050F000A090B801832D807F6A2D09F08FC08B2D81
:105100000E94740DFE2C81111DC0D80111968C9146
:1051100011978A1117C08C918B1114C0E11012C025
:10512000832D8F7080618093BC0187EB91E00E949A
:10513000311E8091BC01F80185838F2D6196E1E1DC
:105140000C948A34F4EF6F16F1E07F0620F480911E
:105150003C0380FF21C0A601652D842D0E94740DA3
:10516000811118C081E08E2580FF16C04E2D652D5F
:10517000842D0E94540D882379F087EB91E00E94E2
:10518000311E86E0E7EBF1E0DF011D928A95E9F739
:10519000F12CD3CF80E0E8CFA601652D842D0E94AD
:1051A000740D811124C081E08E25B82FB170CB2EF3
:1051B00080FF2BC04E2D652D842D0E94540DD82EBE
:1051C000811123C04D865E868D859E850E940310C9
:1051D000292F22952F70223060F0243088F49F70A0
:1051E00061F0F8019581907F41F4FD2CA6CF80E01D
:1051F000DCCF9F7011F08823C1F3805E8830A8F364
:10520000C8010E94311EDC2CF0CFEE2009F495CFAE
:105210008091BC0181608093BC01BACF8B2D0E942C
:10522000740D811119C0D80111968C9111978A11B2
:1052300013C08C918B1110C0E1100EC015963C92DA
:10524000C8010E94311E86E0F801A7EBB1E0019091
:105250000D928A95E1F771CFC8010E941010882342
:1052600009F1EE20F9F08091BC01803270F02091BC
:10527000B7013091B80138872F831986DB86CA863B
:105280008C87CE0107960E94311E86E0F801A7EBBD
:10529000B1E001900D928A95E1F70E94C627FF24A4
:1052A000F3944BCFC8010E94311EF9CF832D807F2C
:1052B00009F463CF9090B7018090B8014091BA0192
:1052C0005091BB01682D892D0E94740D811113C06E
:1052D000F801818188110FC0808189110CC0E11013
:1052E0000AC03582C8010E94311E86E0D5011D9298
:1052F0008A95E9F722CFC8010E941010882391F205
:10530000EE2081F28091BC01803208F4BECF209162
:10531000B7013091B8013A8329831B82DD82CC82A8
:105320008E83CE010196AFCF87EB91E00E943B10B8
:10533000809137039091380388169906B0F6FE2CB9
:10534000EE2009F4AFCFE090B701D090B8014091C2
:10535000BA015091BB016D2D8E2D0E94740D8111EB
:105360001FC0F80181818D111BC080818E1118C072
:1053700080913C0382FD67CF9091BC0190FD63CF8B
:10538000907F09F460CF8091BC018583903F09F440
:1053900057CF982F907F905F8F70892B858350CF48
:1053A000C8010E941010811170CF8091BC018160F2
:1053B0008093BC01C8010E94311EBFCEEE2009F4CB
:1053C00071CFC8010E941010F82E882309F46ACF0B
:1053D00086E0F801A7EBB1E001900D928A95E1F724
:1053E0008091B7019091B8010E9403100E94C627D6
:1053F000A4CEA7E1B0E0EFEFF9E20C947C34942F57
:105400004B8B252F5C8B6D8B7E8B8F8B4E895F89B1
:10541000622F892F0E94740D811109C080919A0119
:1054200090919B01019690939B0180939A018D89A5
:10543000811110923A041A8A198A85E0FE01739646
:10544000DE011D9601900D928A95E1F7809104048A
:1054500082FF1EC08091210390912203892BC1F00D
:105460000E9484092091EF013091F001821B930B7F
:1054700020912103309122038217930720F080911D
:10548000F10182FF6EC00E94DB0C81110E94A10C11
:1054900086E0FE013D96DE01179601900D928A95F9
:1054A000E1F7CE0107960E942B2881112FC086E0DC
:1054B000FE013796DE01119601900D928A95E1F773
:1054C0004A855B8568858F810E94740D81111EC09D
:1054D0002091BD0130E0C901019687709927409164
:1054E000EE0148171906E9F096E0929FD001939FCC
:1054F000B00D1124A254BE4FFE01319601900D92C1
:105500009A95E1F78093BD010E947F0D16E080918E
:10551000EE019091BD01891312C06796E3E00C94EF
:1055200098340E9431141092BD011092EE0186E071
:10553000E7EBF1E0DF011D928A95E9F7E7CF819F64
:10554000C001112482549E4F0E942B28882329F3E6
:105550008091EE0190E00196877099278093EE018B
:10556000D6CF82E00E94D8138ECFA5E0B0E0EBEB5F
:10557000FAE20C947D349093E0028093DF0281156F
:1055800020E2920730F40E9450192596E2E00C9434
:10559000993480EF89838A831B820E948409816009
:1055A000782F9D838C8349815A816B818D810E94E4
:1055B000F929EBCF0F931F93CF93DF938C01EB016E
:1055C0006AE472E08C2F0E941711892BA1F480915C
:1055D0003D0390913E030E94580FDD27CE5BDD4FC7
:1055E0008881F801108218828330F1F048F481300C
:1055F00059F0823081F0DF91CF911F910F91089582
:105600008430B9F08530B9F780914A0290914B020D
:10561000009789F306C080914C0290914D0200974B
:1056200099F30E94B52AE7CF80914E0290914F02E4
:10563000F6CF8091500290915102009791F72091FE
:105640004A0230914B0280914C0290914D022115FB
:105650003105F1F2009729F7C901E3CFCF93DF932A
:10566000EC010E940B1E80913D0390913E030E942D
:10567000580FCE010E94B52ADF91CF9108950F9364
:105680001F93CF93DF938C01862F6AE472E00E9410
:105690001711892BB1F4C0914A02D0914B02209787
:1056A00081F0F8018081833051F4CE010E942E2BCD
:1056B000CE010E942E2BCE010E942E2B02C08430E0
:1056C000D0F7DF91CF911F910F9108950F931F9302
:1056D000CF93DF938C01EB016AE472E08C2F0E9480
:1056E0001711892B09F061C0FE01FF27D8018C91A9
:1056F000EE5BFD4F8130D9F419969C91199799234F
:1057000011F080830CC01A969C919923D1F382E00A
:10571000808380914C0290914D020097D9F4809142
:105720004A0290914B02009709F43FC013C08230A7
:10573000D1F519968C91199781112AC01A968C91DE
:1057400081110BC083E0808380914E0290914F02C3
:10575000009701F10E940B1E28C084E08083809195
:105760005002909151020097A9F780914A029091BE
:105770004B020097F9F00E942E2B80914C029091E1
:105780004D02009739F780914A0290914B02E2CF87
:1057900085E0808380914A0290914B02009729F026
:1057A0000E942E2BF0CF86E08083DF91CF911F9156
:1057B0000F91089580914C0290914D02B4CF1F92A9
:1057C0000F920FB60F9211242F933F934F935F9335
:1057D0006F937F938F939F93AF93BF93CF93DF93F9
:1057E000EF93FF93D091E900DF708091EC00C82F18
:1057F000C17080FDC0E81092E9008091F000877FC1
:105800008093F00078940E9447141092E9008091F0
:10581000F00088608093F000CD2BCF70C093E9003A
:10582000FF91EF91DF91CF91BF91AF919F918F91B8
:105830007F916F915F914F913F912F910F900FBE8C
:105840000F901F9018951F920F920FB60F92112470
:105850002F933F934F935F936F937F938F939F9378
:10586000AF93BF93EF93FF938091E10082FF15C048
:105870008091E20082FF11C08091E1008B7F8093D4
:10588000E10020910A042F5F822F62E30E945434CA
:10589000992309F4C0C020930A048091DA0080FFA4
:1058A00028C08091D80080FF24C08091DA008E7FCC
:1058B0008093DA008091D90080FFE3C080E189BD48
:1058C00082E189BD09B400FEFDCF81E080933904F7
:1058D00081EC9CE00E94160780910B04811109C0A5
:1058E0000E94B8070E94AB088091E2008460809318
:1058F000E2008091E10080FF1BC08091E20080FF08
:1059000017C08091E2008E7F8093E2008091E200D8
:1059100080618093E2008091D80080628093D800FB
:1059200019BC85E08093390489EC9CE00E9416073D
:105930008091E10084FF2FC08091E20084FF2BC0A2
:1059400080E189BD82E189BD89B5982F917080FF82
:10595000FBCF8091D8008F7D8093D8008091E100AB
:105960008F7E8093E1008091E2008F7E8093E20041
:105970008091E20081608093E2008091300488236E
:1059800009F489C084E0809339048DEC9CE00E9486
:105990001607809139048091E10083FF2BC080912C
:1059A000E20083FF27C08091E100877F8093E100C0
:1059B00082E080933904109230048091E1008E7F60
:1059C0008093E1008091E2008E7F8093E2008091DD
:1059D000E20080618093E20042E060E080E00E94AB
:1059E00079088091F00088608093F00081ED9CE060
:1059F0000E941607FF91EF91BF91AF919F918F91F8
:105A00007F916F915F914F913F912F910F900FBEBA
:105A10000F901F90189510920A0480910904882312
:105A200009F43BCF809139048430C1F49091E900AE
:105A30009F702091EC00822F817020FD80E8892BDF
:105A400095E09093E9009091EB0090FF04C0909155
:105A5000EE0097FD08C08F708093E9001092090452
:105A60001CCF1092F1009091E80095FDFACF909133
:105A7000E80090FFF0CF9091E8009E779093E800C7
:105A8000EACF19BC1092390485EC9CE00E941607FD
:105A900010920B042ECF8091E30087FD93E090934A
:105AA000390473CF78941F921FB61F9211248F93DD
:105AB0009F93AF93BF938091FF0390910004A091B7
:105AC0000104B09102040196A11DB11D8093FF0352
:105AD00090930004A0930104B0930204BF91AF918E
