:100000000C941A040C9452040C9452040C94520450
:100010000C9452040C9452040C9452040C94520408
:100020000C9452040C9452040C94382A0C94F42925
:100030000C94352B0C9452040C9452040C945204DE
:100040000C9452040C9452040C9452040C945204D8
:100050000C9452040C94112B0C9452040C945204E2
:100060000C9452040C9452040C9452040C945204B8
:100070000C9452040C9452040C9452040C945204A8
:100080000C9452040C9452040C9452040C94520498
:100090000C9452040C9452040C9452040C94520488
:1000A0000C9452040C9452040C94520405010980DF
:1000B000A101850319012AB700150126B700950192
:1000C00075108100C0050C0901A101850419012AE0
:1000D000A002150126A002950175108100C005013E
:1000E0000906A1018506050719E029E71500250184
:1000F0009508750181020507190029EF15002501F2
:1001000095F075018102050819012905950575010C
:100110009102950175039101C00660FF0961A1017B
:100120000962150026FF00952075088102096315F4
:100130000026FF00952075089102C005010906A15F
:1001400001050719E029E7150025019508750181CA
:10015000029501750881010507190029FF15002680
:10016000FF00950675088100050819012905950508
:1001700075019102950175039101C0000000000016
:10018000000000000000000000000000000000006F
:100190000000000000000000000000000000007EE1
:1001A0000F00D4FFFFFFC700000078000000000030
:1001B0000000002A2B2800000000000000000000C2
:1001C00000000000000029000000002C1E34202147
:1001D0002224342627252E362D3738271E1F20218E
:1001E00022232425263333362E37381F04050607ED
:1001F00008090A0B0C0D0E0F101112131415161707
:1002000018191A1B1C1D2F3130232D350405060724
:1002100008090A0B0C0D0E0F1011121314151617E6
:1002200018191A1B1C1D2F3130354CFD377A585ABE
:10023000000004E6D6B44602002101160000007456
:100240002FE5A3E00831023B5D003D8889C65436A6
:10025000C3174FE4FC5457B62529ADCB459BD308B3
:10026000DA8AB9AE857A15C72DFD1DC3E0B91F1412
:10027000388EE7CCAAD926A94FE07711345CDA474B
:10028000BBDB8C53358C8ECC77676E88B1D163AE77
:10029000BEB1A6319EE6873B70AE0805A3E09C2E5A
:1002A0003E14B839E09304E1029FF2F54501A92814
:1002B000445B60A38AB44A975D6F56D0DB517C697A
:1002C0007DBEE82DFF96ED08465D7BF73D2CD34AB9
:1002D0004D7722F8C4E1F7323E7ED911FB8B81EBDA
:1002E000767CB69B72002F6996489DCC1A98A659C9
:1002F0006F7A8B792F52F20C0A0546B70F2941F914
:10030000261CD7FE4F8433922F0E96CF1C04E6C9CD
:10031000FDC27673AF6A730E18A9C4C40D420857A4
:100320001CD4EC412CC824BAECADF43E411D4D6503
:10033000057E69B61193285D1BE181F9270B7DB716
:1003400007A2336524F75320E3B2D2FEDD227FD724
:10035000C12173AA36B7A81DC9F3EF228C801729D3
:1003600064D13F4764A8AA13AD36E66D6192C9C750
:10037000FBC7F6BF87D320CA400EA322E619F67D3D
:100380008201F323F7B6639FE62E66F0105409D876
:10039000349E30A8C9D05CCB3889305A0E0E192F44
:1003A0007704DEF46684F254BDA388BB2F915727EF
:1003B0001C2BDFA667C874F816F719466329379512
:1003C00005CC6F68F270E648B33A6FA62105CFD22C
:1003D000992557287DB9CD9376C7ABE17CD35BF7E0
:1003E00067BAB71BFB12CCAA3C1EC908B5E148EBA3
:1003F0007DC2BB509D71462390AB3B45E73AB69911
:100400001CE30F780F9EB24C223CA22C2139F06ADB
:1004100022699F91438598EF6D11687E47B8BB288C
:10042000E89F10E0049CC1315282EBF5CB3F522D86
:10043000C38BC69EFEE5503B9AF1FFE5A17CCBDE67
:100440004D071C06B66D6D9C3C9E76BE3AD967770B
:1004500033D0AA4D5A0C4E2C232564451F1F55F549
:100460009FB416F6DE01E8F10D88FCE78B2D1C45E4
:10047000DAE031FBF43118F25643F40297DD4CD147
:100480009D422874270000B28764BAF99A4829006F
:1004900001D704B2100000EB7BB392B1C467FB023A
:1004A0000000000004595A290020001F001E0021EE
:1004B00000220023002400250026002E002D002706
:1004C000002A002B0014001A000800150017001C59
:1004D0000018000C00120013002F0030003100390A
:1004E0000004001600070009000A000B000D000EB2
:1004F000000F003300340028004C00E10000001D14
:10050000001B00060019000500110010003600371E
:10051000003800E5000151E000E300E2002C00009B
:100520000000000000000000000000E600E70001FD
:1005300051E40035003C003B003A003D003E003FE6
:10054000004000410042004500440043004C003997
:1005500000010052000100010001000100010049FA
:100560000001004600470048000100010050005112
:10057000004F000100010001000100010001004ADC
:10058000004B000100010001000100010001000119
:100590000001000100AA00A900A8004D004E0001C2
:1005A0000001000100010001000100000000000046
:1005B0000000000000000001000100010001000136
:1005C0000001000100010001000100010001000123
:1005D0000001000100010001000100010001000113
:1005E0000001000100010001000100010001000103
:1005F00000010001000100010001000100010001F3
:1006000000010001000100010001000100010001E2
:1006100000010001000100010001000100010001D2
:1006200000010001000100010001000100010001C2
:1006300000010001000100000000000000000000B7
:1006400000000001000100010001000100010001A3
:100650000001000100010001000100010001000192
:100660000001000100010001000100010001000182
:100670000001000100010001000100010001000172
:100680000001000100010001000100010001000162
:100690000001000100010001000100010001000152
:1006A0000001000100010001000100010001000142
:1006B0000001000100010001000100010001000132
:1006C0000001000000000000000000000000000128
:1006D00000010001000100010001004004DA0C0DDE
:1006E0000D0000020002003C04DA0C0D0D000003B6
:1006F0000001004104DA0C0D0D0000040002002688
:1007000004DA0C0D0D9A07050001004204DA0C0D05
:100710000D0000060002002804DA0C0D0D00000791
:100720000002003E04DA0C0D0D0000080001004339
:1007300004DA0C0D0D0000120002004404DA0C0D66
:100740000D0000130002004604DA0C0D0D00001429
:100750000001004804DA0C0D0D0000150000000037
:100760000020079314000009025B00030100A0FAB7
:100770000904000001030101000921110100012207
:10078000400007058103080001090401000203007D
:100790000000092111010001222200070582032027
:1007A0000001070503032000010904020001030002
:1007B0000000092111010001226D000705840320BA
:1007C0000001120100020000000882650D06010010
:1007D000010203011C037600690061006C003A000D
:1007E00066003600340063003200620033006300AC
:1007F00000002403770069006C00620061002E0095
:100800007400650063006800200057005400360043
:1008100030002D00440000001603770069006C00D2
:10082000620061002E007400650063006800000033
:100830000403090411241FBECFEFDAE0DEBFCDBFF1
:1008400004B603FE18C08091400590914105A09127
:100850004205B09143058730904BA740B04B59F407
:1008600010924005109241051092420510924305E6
:10087000E0E0F8E3099511E0A0E0B1E0E6E1F6E69A
:1008800002C005900D92A037B107D9F725E0A0E787
:10089000B1E001C01D92A034B207E1F70E945C2BC9
:1008A0000C94DE320C940000E8EDF0E080818E7F45
:1008B00080831092E2001092DA001092E100A0EE24
:1008C000B0E08C9181608C9380818F77808319BC9C
:1008D000A7EDB0E08C918E7F8C9380818F7E80839A
:1008E00010920F0508952091E4003091E50095E6FF
:1008F000A9012091EC00822F817020FF06C0809119
:10090000E80080FF06C080E008952091E80022FD05
:100910001AC080913D05882389F0853089F0809147
:10092000EB0085FD0FC02091E4003091E5004217F7
:100930005307F9F29150E1F684E0089582E00895BA
:1009400083E0089581E00895EF92FF920F931F9343
:10095000CF937C018B010E947304C82F811117C0B3
:100960008091E80085FD0BC08091E8008E77809330
:10097000E8000E947304882399F3C82F08C0F70188
:1009800081917F018093F1000150110949F78C2F6B
:10099000CF911F910F91FF90EF900895CF93FC019D
:1009A00080913D05843001F5C091E900CF70209120
:1009B000EC00922F917020FD90E8C92B82E080938B
:1009C000E9008091E80080FF0CC050E040E060E268
:1009D00070E0CF010E94A4048091E8008E7780939C
:1009E000E800CF70C093E900CF910895809135055C
:1009F00087FF13C08091E80082FF06C08091E80065
:100A00008B778093E80004C080913D058111F2CF7F
:100A1000089580913D058823D9F38091E80080FFF7
:100A2000F8CF8091E8008E77ECCF982F9093E90073
:100A3000242F762F50E0891731F07091EC0020912F
:100A4000ED005091F00021FD07C09F5F973071F7D6
:100A50008093E90081E008953091EB003E7F309370
:100A6000EB003091ED003D7F3093ED003091EB00D5
:100A700031603093EB007093EC002093ED005093C5
:100A8000F0002091EE0027FDE0CF80E00895B0E077
:100A9000A0E0EDE4F5E00C943132C8EDD0E08881BF
:100AA0008F7E8883E7EDF0E080818160808384E041
:100AB00082BF81E080930F0588818E7F888302EE5C
:100AC00010E0F80110821092DA0081EEC82ED12CCD
:100AD000F601108288818F77888388818068888377
:100AE00088818F7D888319BC10923D051092340552
:100AF000109233051092320590EEE92EF12CF70199
:100B000080818B7F808388818160888342E060E080
:100B100080E00E941505F60180818E7F8083F801B8
:100B2000808181608083808188608083F7018081FB
:100B30008E7F8083888180618883CDB7DEB7E8E0CF
:100B40000C944D32FC0180913B0590913C05861739
:100B50009707A0F06115710529F49091E8009E7740
:100B60009093E80090E06115710551F4911108C06F
:100B70008091E80082FF34C080E00895BC01F2CF8C
:100B800080913D058823C1F18530C1F18091E80055
:100B900083FD30C08091E80082FDEACF8091E800BB
:100BA00080FFE1CF8091F3002091F200382F611592
:100BB000710519F02830310558F091E028303105E1
:100BC00009F090E02091E8002E772093E800CBCF49
:100BD00081918093F100615071092F5F3F4FE7CF02
:100BE00080913D05882341F0853041F08091E800F7
:100BF00083FFBECF81E0089582E0089583E00895E9
:100C0000089508958091110508959C014FB7F894B7
:100C10008091060590910705A0910805B0910905FE
:100C20004FBF821B930B08952FB7F8946091060570
:100C30007091070580910805909109052FBF0895CF
:100C40002FB7F8948091060590910705A0910805AB
:100C5000B09109052FBF0895209103053091040537
:100C60002817390771F09093040580930305E091EC
:100C70000105F0910205309721F00084F185E02D07
:100C8000099508952091FF04309100052817390730
:100C900071F0909300058093FF04E0910105F091BD
:100CA0000205309721F00680F781E02D099508951F
:100CB000E0910105F0910205309729F00190F08153
:100CC000E02D0995089580E00895CF93DF93EC011E
:100CD00040911B0450911C0460911D0470911E04EE
:100CE0002FB7F8948091060590910705A09108050B
:100CF000B09109052FBF841B950BA60BB70B843F42
:100D00009140A105B10518F580911B0490911C0438
:100D1000A0911D04B0911E048093170490931804B1
:100D2000A0931904B0931A0484EF91E0A0E0B0E01E
:100D30008093130490931404A0931504B0931604A5
:100D4000D0932304C0932204DF91CF9108950E9491
:100D500014066093170470931804809319049093F9
:100D60001A0482E390E0A0E0B0E0E2CFFC018481CD
:100D7000862351F492819923B9F06923808583FFFA
:100D800005C081E061110FC080E00895892F8F7048
:100D900092959F70982B862F8F7062956F70682B3D
:100DA00081E09613F1CF089581E0FDCF452B39F016
:100DB000682381E06F3F09F080E08170089581E051
:100DC000FCCFDC0160910F0480911004962F8913F1
:100DD00001C00895292F30E0F901EE0FFF1FE95FF0
:100DE000FB4F408151814A175B07A1F487E08A9F3E
:100DF000A0018B9F500D112441535C4F81E0FA01FB
:100E000084839613E6CF2F5F3F4F237033272093C1
:100E10000F0408952F5F3F4F922F9370D8CF1092F9
:100E20006C0310926B03EFECF3E08581811102C03B
:100E300014821682379684E0E730F807B1F70895F8
:100E4000B0E0A0E0E6E2F7E00C942F328FEF9FEFE6
:100E50004430510508F469C040910A0541FB8827D8
:100E600080F990E0880F991F42FB002700F910E0FD
:100E7000000F111F000F111F802B912B40FBCC2462
:100E8000C0F8D12C8C299D2943FB222720F9C22FA1
:100E9000E0E0DE2F53E0CC0FDD1F5A95E1F78C2BFD
:100EA0009D2B44FBAA27A0F9B0E0E4E0AA0FBB1FEA
:100EB000EA95E1F78A2B9B2B45FBEE27E0F9F0E062
:100EC000A5E0EE0FFF1FAA95E1F78E2B9F2B46FBA7
:100ED000222720F930E0B6E0220F331FBA95E1F760
:100EE000822B932B47FB222720F930E03695322FB7
:100EF000222737952795822B932B20910B05322F94
:100F00003170F32EE82EF92A26952170B22EBB0CF3
:100F1000A82EBF28C501BB0CAA0BBB0BFB0180830D
:100F20009183A283B38390E080E0CDB7DEB7EAE09F
:100F30000C944B32809126049091270490931001D9
:100F400080930F01089581152CE5920741F42091BB
:100F5000400330914103232B11F490E080E0089589
:100F600080E00895F894E82FE295EF70F0E031A169
:100F7000282F2F7081E090E001C0880F2A95EAF7B2
:100F8000982F9095932391A392A1892B82A3789473
:100F9000089590910A0592FF06C0282F28712830E5
:100FA000F9F4877F846093FF06C0282F28712831C9
:100FB000F1F4877E846120910B0520FF06C0382F55
:100FC00038713830D9F4877F816021FF06C0282F1F
:100FD00028712831D1F4877E816194FD877E089540
:100FE000282F24712430F9F68B7F8860DCCF282FDE
:100FF0002471243101F78B7E8861DDCF382F317168
:10100000313019F78E7F8860E0CF282F2171213190
:1010100021F78E7E8861E1CFCF93DF93EC01823898
:101020009105A9F1D8F58133910509F496C048F5E9
:101030008932910509F48AC08A9709F495C0C115CF
:1010400022E5D20708F0B6C0C11531E5D30708F094
:1010500026C1C83ED10508F09CC0C03ED10560F550
:10106000C83AD10508F087C0C53AD10508F0EFC0ED
:10107000C130D10509F12097F9F0C430D105E0F471
:1010800040C08533910509F45AC0C997C1F68091D3
:101090000A05837089F0C0EED0E00EC0833E910552
:1010A00099F170F4803E910501F1823E910539F687
:1010B00080910A0582FD21C0CE01DF91CF91089574
:1010C000863E910561F1873E910571F1843E91055F
:1010D00009F0B5CF80910B0581FFEECF80910A0515
:1010E000C7EED0E084FD0DC0E7CF80910A0580FDFA
:1010F00007C190910B0590FFDFCFC3EED0E084FFD6
:10110000DBCFD0E0C0E0D8CF80910A0582FDFBC0E4
:1011100090910B0590FDBFCF84FFCECFF2CF809191
:101120000A0583FDDDCFC8CF80910A0583FDEEC09F
:1011300090910B0591FFF0CFC4EED0E0BDCF809130
:101140000A0585FFB9CFC9E2D0E0B6CF80910A0584
:1011500085FFB2CFC5E3D0E0AFCF80910A0586FF0F
:10116000ABCFCAE2D0E0A8CF80910A0586FFA4CF1A
:10117000C1E3D0E0A1CFCF3BD10518F6C85AD0E0EB
:10118000CC0FDD1FC15EDE4F0990D881C02DD46425
:1011900093CFC11540E5D40708F064C0C11580E4C1
:1011A000D80708F05CC0CE019A9581159F4108F4DC
:1011B00083CFA7CFC11536E5D30718F5C11545E58F
:1011C000D40708F084C0C11584E5D80708F07AC0B8
:1011D0009C2F969596959E0123703327C115D34574
:1011E00008F462C0C1E0D0E002C0CC0FDD1F2A9538
:1011F000E2F730E2939FC0011124C82BD92BDA68A3
:101200005BCFC1158AE5D80778F4C11599E5D907F0
:1012100008F068C0C11528E5D20708F472CFDC2FAA
:10122000CC27C06FD06A48CFCE019056811590422E
:1012300008F067CF8D2F8F710E94C90790E0982F1B
:10124000882788279F719C012C2BE90149C0C55A2A
:10125000D0E0C45EDE4FC881D0E0D0642DCFDF7017
:10126000D06A2ACFCE01E4E096958795EA95E1F71A
:1012700083702C2F26952695237040E2249F9001A1
:101280001124382B8C2F8370C1E0D0E002C0CC0F2A
:10129000DD1F8A95E2F7C22BD32BDC680DCFDC2F44
:1012A000CC27C16FD06A08CFC1E0D0E002C0CC0F1C
:1012B000DD1F2A95E2F720E2929FC0011124C82B7E
:1012C000D92BEBCFDC2FCC27C46FD06AF5CE8C2F77
:1012D0000E94C907C82FD0E0DC2FCC27CC27DF71B4
:1012E000D062EACE8C2F8F700E94C90734E0D69569
:1012F000C7953A95E1F7CF709C2FEC01D069DCCE11
:10130000C9E3D0E0D9CEC2EED0E0D6CEC6EED0E072
:10131000D3CE80912202882331F0109222021092C3
:101320002102109220020895CF93C82F80910B05BF
:1013300082FF0CC0809122028C1741F00E9420068F
:101340009093210280932002C0932202CF910895AE
:10135000809590913F05982390933F05089580953F
:1013600090914603982390934603089590914603E5
:10137000892B8093460308951092FF011092FE017D
:101380001092FD0108958091280490912904892BE1
:1013900089F00E9420062091200230912102AC01A8
:1013A000421B530B81E020912804309129044217FD
:1013B000530708F480E081700895909113019923F8
:1013C000D1F090910A0597FF16C0E82FE695E695B3
:1013D000E695EE31E0F4F0E0EE58FE4F282F27704E
:1013E00081E090E001C0880F2A95EAF7809592810C
:1013F000892382830895E4E7F1E09191891303C082
:10140000DF0111971C9291E0EA37F907B1F70895CF
:10141000909113019923C1F090910A0597FF14C090
:10142000E82FE695E695E695EE31F8F4F0E0EE5813
:10143000FE4F877021E030E001C0220F8A95EAF765
:101440008281822B82830895A4E7B1E0EFEF90E0E0
:101450002D91821751F0EF3F19F4211101C0E92FAE
:101460009F5F9630A9F7EF3F09F408950E2E000C08
:10147000FF0BEE58FE4FE6CF2091FC019091BB018F
:10148000291302C080E0089530E0F90153E0EE0F27
:10149000FF1F5A95E1F7E454FE4F5181561306C0E1
:1014A0005081581303C05281541304C02F5F3F4F23
:1014B0002770E6CF81E008958091FC019091BB01F7
:1014C000981301C008958F5F8770FACF292F953048
:1014D00078F58E3068F590E03EE0239F800D911DF9
:1014E0001124682F677023E0969587952A95E1F778
:1014F000FC01EE0FFF1FE80FF91FE856FE4F50E00A
:1015000040E080E0219130E0062E02C0369527951C
:101510000A94E2F721703327042E01C0220F0A94A7
:10152000EAF7822B4F5F5F4F4330510559F708951B
:1015300080E00895292F953098F58E3088F590E059
:101540003EE0239F800D911D1124282F277041E03C
:1015500001C0440F2A95EAF723E0969587952A95CE
:10156000E1F7FC01EE0FFF1FE80FF91FE856FE4FF1
:1015700030E020E070E05191DF011197CB01022EA5
:1015800002C0969587950A94E2F781708195852728
:10159000842385278C932F5F3F4F2330310559F7E4
:1015A000089592959F70963091F058F4925F9F70D5
:1015B000923058F4803F19F030F4883E30F481E0E6
:1015C00008959A5FF4CF843FD1F380E00895883E78
:1015D000B0F3813FD1F7F3CF81FF02C0899A08951C
:1015E000899808959C013A9521153F4150F5FC01D9
:1015F000EE27F170BC0166277270AC01442754706D
:101600009C012227387094FF0EC080E1EF2B09F473
:1016100080E0672B09F08062452B09F08064232B62
:1016200089F08068089581E0EF2B09F480E0672B52
:1016300009F08260452B09F08460232B19F0886043
:10164000089580E0089580930C0570930E056093D3
:101650000D0580913D058430F9F48093E9008FEF0A
:101660009091E800815095FD06C095ED9A95F1F7AF
:1016700000008111F5CF8091E80085FF0DC050E09A
:1016800040E063E070E08CE095E00E94A40480916B
:10169000E8008E778093E8000895BC0184E00E9402
:1016A000230B0895BC0183E00E94230B0895CF9380
:1016B000DF93EC01809113018823B1F180910A0539
:1016C00087FF32C060E284E08093E9008FEF909161
:1016D000E800815095FD06C095ED9A95F1F7000060
:1016E0008111F5CF8091E80085FF1BC08091130127
:1016F00070E050E040E0811104C050E040E068E05C
:1017000070E0CE010E94A4048091E8008E7780935F
:10171000E80080E2FE01A2E1B5E001900D928A9519
:10172000E1F7DF91CF91089568E081E0CDCF81E0CE
:101730008093E00080E28093D8001092C9008FE18E
:101740009EE40197F1F700C0000087E090EBDC0118
:101750008093400590934105A0934205B0934305C3
:1017600088E19CE00FB6F894A895809360000FBEC6
:1017700090936000FFCF019708F40895EFE9FFE030
:101780003197F1F700C00000F6CF0F931F93CF936E
:10179000DF9306E214E0C7E5D2E0CE010E94943266
:1017A000F80181938F012196CB37F2E0DF07A9F78B
:1017B000C1EED6E0FE0185919491009711F0FC01F5
:1017C00009952C96F7E0C137DF07A1F7DF91CF919C
:1017D0001F910F9108950F931F93CF93DF93843040
:1017E00030F5653020F54E3010F5C42FD0E0CC0F29
:1017F000DD1F2CE1629FC00DD11D11243CE8839FA9
:10180000C00DD11D1124CE0187960E949432082F5D
:1018100010E0102F0027CE0188960E949432980184
:10182000282BC901DF91CF911F910F91089590E06E
:1018300080E0F8CF462F2091440330914503232BBD
:1018400099F4703F39F4603F79F4809142039091AC
:1018500043030895843040F4753030F46E3020F442
:10186000672F0E94EB0B089590E080E00895CF92DF
:10187000DF92FF920F931F93CF93DF936C01009140
:101880003E0580912302082BC7E0D0E010E0FC2E3B
:10189000C8010C2E02C0959587950A94E2F780FD49
:1018A0000CC02197A0F7F12C8F2DDF91CF911F91C4
:1018B0000F91FF90DF90CF900895B6018C2F0E947A
:1018C0001A0C0E940C08019761F3EECFCF93DF93BF
:1018D000EC010E94370CBE010E941A0C0E940C08F9
:1018E000DF91CF910895FC0186819781009729F0BF
:1018F0000E940C080E94D10A0895808191810E9463
:10190000660CF8CFA5E0B0E0E8E8FCE00C943632D5
:1019100049835A8389819A81662399F0222389F029
:101920000E94370C182F682F89819A810E949A0A89
:1019300069817A81812F0E941A0C2596E3E00C942C
:1019400052320E94660A182FF3CFFC01262F86819F
:101950009781009739F4408151816281738184813C
:101960000E94820C089583E290E00E9494328832B3
:1019700089F484E290E00E949432813D59F485E23A
:1019800090E00E94943291E0893F09F090E0892F25
:101990008170089580E0FCCFCF9384E090E00E94B6
:1019A0009432C82F82E290E00E949432982F8C2FBC
:1019B000CF910895DB01FC013296259134914217B5
:1019C000530758F0FC01349665917491A901CD013B
:1019D0000E94743290E080E008958FEF9FEF0895A9
:1019E0000F931F93CF93DF9306E214E0C7E5D2E095
:1019F000CE010E949432F80161918F01681719F0AD
:101A0000CE010E94A2322196CB37F2E0DF0781F7A8
:101A1000DF91CF911F910F910895DA019C012E5F04
:101A20003F4FF90145915491F90125913491A21745
:101A3000B30758F0FC013496859194910E9474325A
:101A40000E94F00C90E080E008958FEF9FEF0895E2
:101A5000CF93DF93CBE6D3E060E0CE010E94A232C9
:101A60002196C11584E0D807B9F7DF91CF91089589
:101A70001F93CF93DF93122F8430E0F46530D0F4BE
:101A80004E30C0F4C42FD0E0CC0FDD1F9CE1699F25
:101A9000C00DD11D11249CE8899FC00DD11D1124BA
:101AA000632FCE0187960E94A232612FCE018896C5
:101AB0000E94A232DF91CF911F910895CF93C82F3A
:101AC0006FEF811168E283E290E00E94A2326FEF33
:101AD000C11161ED84E290E00E94A2326FEFC1116A
:101AE00069EF85E290E00E94A232CF910895CF93F2
:101AF000C92F682F84E090E00E94A2326C2F82E20E
:101B000090E00E94A232CF9108959B01883070F43A
:101B10009AE0899FB001112465587D4F4AE050E05A
:101B2000C9010E94843290E080E008958FEF9FEF1A
:101B30000895AAE0B0E0EFE9FDE00C942D320FE447
:101B400014E0F12CE12C84E5C82E89E2D82E9BE725
:101B5000A92E99E2B92E29EC822E28E2922EF801C4
:101B6000D182C082B382A28295828482F58AE48A7D
:101B7000BE016F5F7F4F8E2D0E94850D892B29F44A
:101B800089859A85F801938B828BFFEFEF1AFF0A04
:101B90000A5E1F4F88E0E816F10409F72A96ECE088
:101BA0000C944932AAE0B0E0E8EDFDE00C942D324F
:101BB00008EC12E086EBC82E82E0D82E9BE1E92EDD
:101BC00093E0F92E27E0922E35EBA32E32E0B32ED0
:101BD00088248394D6010D931D936D014AE050E053
:101BE000B701CE0101960E948432F8013896DF01D8
:101BF000892D1D928A95E9F789819A81D8011196DC
:101C00009C938E938F8112968C9312978D8113964D
:101C10008C931397888514968C93149789851596C1
:101C20008C9315978B819C8117969C938E93169716
:101C300018961C9218978A8587FF3CC01E961C92A6
:101C40001E921D9780FF03C0D80118968C9281FFC9
:101C500004C0F80190859260908782FF07C0D80188
:101C600018969C911897946018969C9383FF04C0D3
:101C7000F80190859860908784FF07C0D801189676
:101C80009C911897906118969C9385FF04C0F80169
:101C9000808580628087015F1F4FFAE0EF0EF11CA4
:101CA0008BE6E81683E0F80609F094CF2A96ECE07C
:101CB0000C944932F801B686A586C4CFAAE0B0E0FC
:101CC000E4E6FEE00C943132E5E6F2E080E5DF0187
:101CD0001D928A95E9F7EFECF3E088E3DF011D92AE
:101CE0008A95E9F785E6C82E82E0D82E7F010BECB5
:101CF00012E0F701D182C0824AE050E0B801CE0183
:101D000001960E94843288E0FE013196D60101904E
:101D10000D928A95E1F789859A85D70113969C9350
:101D20008E931297BAE0CB0ED11CE7E0EE0EF11CB9
:101D3000065F1F4F0B31F3E01F07D9F62A96E8E044
:101D40000C944D32AAE0B0E0E8EAFEE00C942D32AB
:101D50008E010F5F1F4F8AE0F80111928A95E9F713
:101D60009DE4E92E91E0F92E6801AA24A394B12CF8
:101D7000F70181917F018F3F09F446C0F894E82F65
:101D8000E295EF70F0E021A18F70A50102C0440F31
:101D9000551F8A95E2F7CA01922F982B91A392A121
:101DA0008095892382A3789400C0E2E5F1E021E0E8
:101DB00030E0912C812C41914F3F09F481C0A42F38
:101DC000A295AF70B0E090968C9190E04F7002C0F9
:101DD000959587954A95E2F780FD72C0C901882ADA
:101DE000992A220F331F51E0E036F50721F7F7015A
:101DF000319780818F3F11F00E94B20780EA8A9567
:101E0000F1F7F60191828082F2E0CF0ED11C42E51B
:101E1000E41641E0F40609F0ABCF4AE050E0B80127
:101E200087E292E00E946732FF24F394009709F45E
:101E3000F12C892B09F447C08AE0F801A7E2B2E04F
:101E400001900D928A95E1F781E0809326020E942D
:101E50002006909325028093240280912402909181
:101E600025020E940506059790F180912702909126
:101E7000280290934A02809349028091290290910E
:101E80002A0290934C0280934B0280912B029091F6
:101E90002C0290934E0280934D0280912D029091DE
:101EA0002E029093500280934F0280912F029091C6
:101EB000300290935202809351021092260207C082
:101EC00090E080E08CCF809126028111C6CF8F2DCB
:101ED0002A96ECE00C944932CF938091460390917E
:101EE0003F05892B8093720180912202882329F17A
:101EF0008091280490912904892B29F00E94C3091C
:101F000081110E9489098091720190912202892B8E
:101F10008093720180911301882309F447C0809156
:101F20000A0587FF43C08EE1E4E7F1E090E08150CD
:101F300008F03EC091110E948909C0911F04C0950C
:101F400080917201C82380912004C82BC093720134
:101F500040E250E060E072E082E791E00E94673288
:101F6000892B11F180E2E2E7F1E0A0E0B2E001901C
:101F70000D928A95E1F7E0910105F0910205309705
:101F800099F080911301882349F080910A0587FF19
:101F900005C0C093730186E0809372010280F381D3
:101FA000E02D82E791E00995CF91089586E0BCCFBE
:101FB0002191222309F4BBCF9F5FB9CFEF92FF920B
:101FC0000F931F93CF93DF93EC018A85811134C067
:101FD000EB80FC8087E5F81A26E12E9DC0012F9D3D
:101FE000900D1124DC01A15BBB4F1496ED91FC9187
:101FF0001597309731F054966D917C918B5A9B4F89
:10200000099586E18E9D80018F9D100D1124015B45
:102010001B4FF80187810E94AF09F80180850E945B
:10202000A8090E946C0F188219861B861E821D82C9
:1020300010924E0410924D04CDB7DEB7E6E00C943A
:102040004F32CF93DF93EC018989811116C081E073
:10205000898B8F810E94B60980913F059885892BD5
:1020600080933F050E946C0FEA81FB81309729F035
:102070006C897D89CE0106960995DF91CF910895EF
:1020800080911101877F8093110182E00E94A8094D
:102090008091110184FF06C08F7E8093110182E040
:1020A0000E94B6098091110185FF06C08F7D809343
:1020B000110180E20E94B6090E946C0F089590E021
:1020C00080E00E94420690E080E00E942C06109280
:1020D0003F050E946C0F089580933E050E945F109B
:1020E000089580913E05982F9670963021F488606F
:1020F0000E946C100895877FFBCF21E030E001C083
:10210000220F8A95EAF7209580913E0582230E944E
:102110006C1008959091FF01809589238093FF01B1
:10212000282F277091F4282F082E000C330B9217BC
:10213000130659F090910B0592FF07C08595859580
:1021400085950E947D100E94BC09089590910B0511
:1021500092FB222720F9281769F080FB92F99093CF
:102160000B0580910A0590910B050E94770D82E086
:102170000E948A10089521E030E001C0220F8A9564
:10218000EAF780913E05822B0E946C100895909191
:102190000B0592FF10C098E0899F90011124622BDB
:1021A0006093FF010E94BB100E9420069093FE01E5
:1021B0008093FD0108950E94BB100895809323022F
:1021C0000E945F1008951092460380911301E4E786
:1021D000F1E0882361F080910A0587FF08C08EE155
:1021E000DF011D928A95E9F70E945F10089586E04D
:1021F000F7CFAAE2B0E0EFEFF0E10C94363285E3DE
:1022000095E02091F100DC012D93CD01B5E08D33F7
:102210009B07B9F780913605833009F472C0B8F492
:10222000813009F449C0823009F4B3C08091E800DC
:1022300083FF96C280913505909136059A3008F05B
:102240008FC2E92FF0E0E052FD4C0C941A328A3034
:1022500009F48EC08B3009F471C0893039F7809150
:102260003505813219F78091390590913A0500972B
:1022700011F00297D9F68091E800877F8093E800FB
:102280008091E80082FF38C09091F3008091F200C5
:10229000029731F48091F100813011F0863021F401
:1022A0008091F100809311058091E8008B778093F5
:1022B000E8000E94F604BACF80913505813A09F012
:1022C000B5CF8091E800877F8093E8008091390541
:1022D00090913A05892B61F460E282E195E070E02B
:1022E0000E94A2058091E8008B778093E8009ECF42
:1022F00060E090E080E0F3CF80913D058111C0CF98
:1023000095CF80913505813A09F090CF80913905BC
:1023100090913A05892B09F089CF8091E800877F59
:102320008093E8008091E80080FFFCCF809113014A
:102330008093F1008091E8008E77B9CF80913505C8
:10234000813209F073CF8091390590913A05892B3C
:1023500009F06CCF8091E800877F8093E8000E94AD
:10236000F60480913705809313010E94E3105ECF3D
:1023700080913505813209F059CF8091E800877F3F
:102380008093E8000E94F604809138058093100540
:102390004DCF80913505813A09F048CF8091E80012
:1023A000877F8093E8008091E80080FFFCCF8091D8
:1023B0001005BECF803899F0823809F0D1C18091E4
:1023C00039058F70873008F0CBC18093E900809188
:1023D000EB0085FB882780F91092E90006C0809108
:1023E000320590913305911182609091E800977FBA
:1023F0009093E8008093F1001092F1008091E80042
:102400008E77AAC1882309F498C1823009F0A8C147
:102410008091370581119BC1809139058F702FEF15
:10242000280F263008F09CC18093E9002091EB0032
:1024300020FF8DC1933031F48091EB008062809356
:10244000EB0085C19091EB0090619093EB0021E04F
:1024500030E001C0220F8A95EAF72093EA0010923B
:10246000EA008091EB008860EACF811179C1109178
:1024700037051F778091E3008078812B8093E300FC
:102480008091E800877F8093E8000E94F6048091A5
:10249000E80080FFFCCF8091E30080688093E30038
:1024A00082E0111183E080933D055AC1805882304B
:1024B00008F056C120913705309138052C3DE3E0F6
:1024C0003E07A1F583E08A838AE289834FB7F894B7
:1024D000DE01139620E03EE051E2E32FF0E050935E
:1024E0005700E49120FF03C0E295EF703F5FEF706B
:1024F0008E2F90E0EA30C0F0C7968D939D932F5FAA
:10250000243159F74FBF8091E800877F8093E8001E
:102510006AE270E0CE0101960E94A2058091E80077
:102520008B778093E8001CC1C096E7CF8091390576
:1025300090913A05432F55274330510509F44AC07D
:1025400078F54130510509F485C08BE590E0E7E668
:10255000F7E04230510509F003C12091E800277FE0
:102560002093E80020913B0530913C0582179307AA
:1025700008F49C0140E02115310509F070C04111BB
:102580006EC08091E80082FDC9CF80913D0588230F
:1025900029F2853019F28091E80083FFF2CFBECF97
:1025A0004132510509F447C04232510509F0D8C003
:1025B0008330910508F0D4C0FC01EE0FFF1FED59E8
:1025C000FE4F0190F081E02D805A9E4FDC018C91EE
:1025D00090E01DC0332721303105E9F02115310588
:1025E00079F022303105F9F02330310509F0B8C017
:1025F000E4EDF7E0E4918E2F90E0E4EDF7E007C022
:10260000E0E3F8E0E4918E2F90E0E0E3F8E000975B
:1026100009F4A6C0A2CFE8E1F8E0E4918E2F90E0A3
:10262000E8E1F8E0F4CFE2EFF7E0E4918E2F90E0FC
:10263000E2EFF7E0ECCF8330910508F091C0880F0E
:10264000991FFC01E759FE4F0190F081E02D89E0D0
:1026500090E083CF82E190E0E2ECF7E07ECF8091E2
:102660003D05882309F45ACF853009F457CF80916E
:10267000E80083FD53CF8091E80082FD82CF8091F6
:10268000E80080FF78CF9091F3008091F20021154F
:10269000310519F08830910550F041E0089709F0B4
:1026A00040E08091E8008E778093E80064CF449109
:1026B0004093F1003196215031090196E8CF8038DE
:1026C00009F04EC08091E800877F8093E8008091F8
:1026D00034058093F10092CE811142C010913705EC
:1026E0001230F0F58091E800877F8093E800109326
:1026F00034050E94F604112311F084E005C0809196
:10270000E30087FDFACF81E080933D0542E061EC74
:1027100081E00E94150542E261EC84E00E9415050B
:1027200042E261EC82E00E94150542E260EC83E047
:102730000E94150580913D0513C0809137058130B9
:1027400079F481E0933009F080E0809333051092B2
:10275000E9008091E800877F8093E8000E94F604FA
:102760008091E80083FF0AC08091E800877F809312
:10277000E8008091EB0080628093EB00AA96E3E092
:102780000C945232E6E2F4E0128E138E8FEA90E05F
:102790009183808385E0848F28E833E1338322832B
:1027A00022E330E0378B268B28EC30E0318F208F0E
:1027B000158E2AE030E0378F268F20E530E031A3F8
:1027C00020A382A30E94F00C0E94E31010920B053C
:1027D00010920A05EBE0F5E08081846080838091AF
:1027E0000A0590910B050E94770D0E94C50B089574
:1027F000AEE1B0E0EEEFF3E10C942C32A090400398
:10280000B090410381E090E09093410380934003B6
:1028100087EAC82E84E0D82E00E0760110E015C0CB
:10282000F40125913491472D612F802F0E94380D9E
:1028300082E0880E911C7394EEE07E12F1CFFCE1F1
:10284000EF0EF11C1F5F153019F04701712CE8CF16
:102850000F5F8CE8C80ED11C0430F9F60E94C21339
:102860001A8219821C821B821E821D8218861F8278
:1028700088EC90E09A8789870BE712E04AE050E005
:10288000B801CE0101960E94C632065F1F4F0B3C75
:10289000E2E01E0799F77E01FBE0EF0EF11C8AE0F3
:1028A000F70111928A95E9F74AE050E0B801C701B3
:1028B0000E94C632065F1F4F0B31F3E01F07A1F7DE
:1028C0007E0185E1E80EF11C8AE0F70111928A95FC
:1028D000E9F78FEF9FEF9A8F898F87E08E8F4AE01D
:1028E00050E0B801C7010E94C632065F1F4F0B3689
:1028F000F3E01F07A1F7B0924103A09240036E9648
:10290000EDE00C94483280E00E945E0D60E086E2CB
:1029100090E00E94A2320E94F8130E94280D81E0EC
:102920000E945E0D0895CF92DF92EF92FF928FEF9B
:102930009FEF4430510508F46AC0FB01C080D1808C
:10294000E280F3800E94E31080910A05C0FA80F9CA
:10295000B701A601769567955795479540FB81F994
:10296000B701A60122E076956795579547952A9578
:10297000D1F740FB82F9B701A60133E07695679560
:10298000579547953A95D1F740FB83F9B701A601D2
:10299000E4E07695679557954795EA95D1F740FB22
:1029A00084F9B701A601F5E07695679557954795A7
:1029B000FA95D1F740FB85F9B701A601A6E0769517
:1029C000679557954795AA95D1F740FB86F9B701CA
:1029D000A601B7E07695679557954795BA95D1F7D3
:1029E00040FB87F980930A0580910B05D0FA80F9A6
:1029F000D1FACC24C0F8C0FA81F980930B058091FC
:102A00000A0590910B050E94770D90E080E0FF9001
:102A1000EF90DF90CF9008950E94E3102FEF84E3B2
:102A20009CE0215080409040E1F700C0000088E128
:102A30009CE00FB6F894A895809360000FBE909329
:102A40006000FFCF882321F00E94A8090E946C0F2C
:102A50000895882339F090913F05982B90933F0576
:102A60000E946C0F0895882321F00E94AF090E94F4
:102A70006C0F0895882321F00E94B6090E946C0F04
:102A80000895882309F44DC0823879F40E945806CD
:102A900081FF47C089E30E94080A0E946C0F89E306
:102AA0000E94DD090E946C0F0895833859F40E943A
:102AB000580680FF36C083E50E94080A0E946C0F0A
:102AC00083E5EECF843859F40E94580682FF29C06E
:102AD00087E40E94080A0E946C0F87E4E1CF9CEF14
:102AE000980F913AE8F290E2980F983050F487707E
:102AF00091E001C0990F8A95EAF7892F0E94AF09EA
:102B0000D1CF9BE5980F933028F490E080E00E94AD
:102B100042060895885A873120F490E080E00E94B0
:102B20002C060895FF920F931F93CF93DF93F82EF7
:102B300000912404109125040115110509F449C0E0
:102B4000109223041092220410921F041092200469
:102B5000D8011696CD91DC919E013A9521153F4101
:102B600008F4D07ED1E0C11101C0D0E0D80119969F
:102B7000ED91FC911A97309731F01B966D917C91F5
:102B800080E00995D823DD2339F08CEF8C0F813A52
:102B900030F58C2F0E94DD09FF2099F0E09124048C
:102BA000F0912504808584FD0CC080912104882348
:102BB00041F0808191819C01215031092C3A3D45A1
:102BC000A0F00E946C0F1092250410922404109221
:102BD0002104C801CDB7DEB7E5E00C9450320E9465
:102BE0006C0F8C2F0E944115D7CF0E946506E9CF4C
:102BF000CF93DF93EC010E944115CE010E94F20AAF
:102C00009E01205E31092830310510F0CD2B29F4CA
:102C10000E943315DF91CF9108950E942215FACFBB
:102C2000CF93C82F8823C9F08238C9F40E94580670
:102C300081FD13C089E30E94080A0E946C0F2FEFE8
:102C400081EE94E0215080409040E1F700C0000008
:102C500089E30E94DD090E946C0FCF9108958338AB
:102C6000A1F40E94580680FDF8CF83E50E94080A6F
:102C70000E946C0F2FEF81EE94E021508040904035
:102C8000E1F700C0000083E5E4CF8438A1F40E949E
:102C9000580682FDE2CF87E40E94080A0E946C0F6A
:102CA0002FEF81EE94E0215080409040E1F700C08A
:102CB000000087E4CECF8CEF8C0F813A90F58091A5
:102CC0001301882301F180910A0587FF1CC0EC2FB6
:102CD000E695E695E695F0E0EE58FE4F828190E0AD
:102CE0004C2F477021E030E002C0220F331F4A957D
:102CF000E2F782239323892B81F08C2F0E94DD0938
:102D00000E946C0F0AC0E4E7F1E08AE791E02191AC
:102D1000C21799F38E179F07D1F78C2F0E94080ACC
:102D20009ACF80E28C0F883048F4C77081E001C0F0
:102D3000880FCA95EAF70E94B6098DCFEBE5EC0F34
:102D4000E33040F4F0E0E45EFE4F808190E00E94CA
:102D5000420683CFC85AC73108F07FCFEC2FF0E08E
:102D6000EE0FFF1FE15EFE4F808191810E942C06D5
:102D700074CF1F93CF93DF93182FC0914604D09147
:102D80004704893321F0C0914404D0914504812F38
:102D90000E941016209739F4812F0E944115DF916F
:102DA000CF911F9108958FE99FE00197F1F700C03F
:102DB00000002197EFCF0F931F93CF93DF93C42F82
:102DC000D22FFC0182818823A9F040934C040E94F9
:102DD000200690934B0480934A04C77081E001C0A1
:102DE000880FCA95EAF70E943A15DF91CF911F919B
:102DF0000F91089510914C04141336C080914A0429
:102E000090914B040E94050620913E0430913F04AE
:102E10008217930748F5C0E2CD0F1D17B9F080E285
:102E2000810F883040F4177081E001C0880F1A9537
:102E3000EAF70E943315C83048F481E09D2F97705F
:102E400001C0880F9A95EAF70E943A15802F0E94D8
:102E5000B916C83050F6D77081E001C0880FDA95F6
:102E6000EAF70E943315C1CFC77081E001C0880F17
:102E7000CA95EAF7F6CFB0E0A0E0E1E4F7E10C9400
:102E80002F32EC018AE0A82E2881222309F48FC07A
:102E90002130C9F599818A81913021F422960E94CE
:102EA000B91605C0923029F422960E941016219678
:102EB000EBCF933021F422960E944115F8CF943045
:102EC00011F02196F4CF229630E020E0AE014F5F62
:102ED0005F4F8053990B8A30910550F02150310992
:102EE00030F38FE99FE00197F1F700C00000F6CFC3
:102EF000A29EB001A39E700D11249C01260F371FC6
:102F00008981EA01E3CFE22FF0E0E555FE4FB4906E
:102F1000822F86958695869590E0FC01E556FE4FBA
:102F2000E4902770F12C022E02C0F594E7940A94E5
:102F3000E2F731E0E322FF24FC01E557FE4FC490A5
:102F4000D12C022E02C0D594C7940A94E2F731E046
:102F5000C322DD24FC01E558FE4F049110E002C0BD
:102F6000159507952A95E2F701701127E114F104F0
:102F700019F081EE0E941016C114D10419F086EEEA
:102F80000E9410168B2D0E94B916C114D10419F09D
:102F900086EE0E944115E114F10419F081EE0E94C1
:102FA00041150115110509F482CF8CE278CFCDB718
:102FB000DEB7EAE00C944B32CF93DF93EC010E9432
:102FC000F20A9E01205E31092830310510F0209769
:102FD00041F40E943A158C2F0E941016DF91CF9178
:102FE00008950E942915F7CF662329F020913F0507
:102FF000226020933F059C013056211540E23407A2
:1030000020F0305E2115304108F499270E94DC172A
:103010000895B0E0A0E0EFE0F8E10C9432327C01DA
:103020008B01D42E8091110182FF8CC0C091690365
:10303000D0916A03CE15DF0521F0E114F10409F007
:1030400081C0809111018B7F8093110181FD73C03C
:103050008091670390916803A801481B590B81E098
:1030600020910F01309110014217530708F480E0BE
:103070008170F82E80911101F0FA81F9809311018D
:10308000FE0183E0F695E7958A95E1F7EE71FF275B
:10309000E95BFC4F20813181AE014F70552781E003
:1030A00090E002C0880F991F4A95E2F7FF2009F4CB
:1030B00044C0822B932B918380838091460381FFB0
:1030C00008C08091110180618093110182E00E940B
:1030D000AF098091460385FF08C08091110180628D
:1030E0008093110180E20E94AF096F2DCE010E94F2
:1030F000F417DD2031F08091410485FF02C086FF86
:103100003BC080914404909145040E94BB0B809188
:10311000690390916A039C013056211540E23407FF
:1031200020F0305E2115304108F499270E94F815EF
:103130000E9440101DC081E09BCF80959095822316
:103140009323B9CFC701992797013056211540E243
:10315000340728F0305E2115304108F0C7010E9485
:10316000F8158091690390916A038E159F0501F30C
:103170001093680300936703CDB7DEB7E7E00C94C4
:103180004E3268EE7EEF90E080E00E94C03260E058
:1031900082E090E00E94A23260E083E090E00E9432
:1031A000A2321092230260E084E090E00E94A232FA
:1031B00064E082E290E00E94A23260E085E090E06C
:1031C0000E94A23260E086E090E00E94A2326FEF9F
:1031D00087E090E00E94A23240E050E0BA0188E02F
:1031E00090E00E94B43260E08DE090E00E94A23254
:1031F00040E050E0BA0188E190E00E94B43260E023
:1032000087E190E00E94A23240E050E0BA018CE1F8
:1032100090E00E94B43270E060E080E290E00E94B2
:10322000C03240E050E0BA0188E190E00E94B43240
:1032300080E00E945E0D0E94831440E050E0BA01DD
:103240008FE090E00E94B43240E050E0BA0183E1A8
:1032500090E00E94B4320895A7E0B0E0E2E3F9E123
:103260000C9427327C01DC0113964D915C911497EC
:1032700011966C9111978C910E94D60681116CC1A8
:1032800061E0C7010E94A50C8C01F70182818111C8
:1032900061C0D70112968C9181119BC000313FE52E
:1032A000130709F45DC101314FE5140709F45CC14E
:1032B0006801E7E5DE1AFFEFCF16D10409F060F5EB
:1032C0006BE572E08C2D0E94850D892B29F586E136
:1032D0008C9DF0018D9DF00D1124E15BFB4F8681EB
:1032E000813009F043C180915B0290915C02892B8F
:1032F00099F080915D0290915E02892B69F0809136
:103300005F02909160022091610230916202822BF3
:10331000932B892B09F434C1F7015280552009F40D
:1033200041C10F35FDE51F0709F438C100362DE511
:10333000120751F00E353DE5130709F033C18091B6
:103340000001882309F42AC11092000180E00E9444
:103350009215F2C080910D0190910E01019609F431
:1033600098CFEFE4CE2EE4E0DE2EB12CA12C9924F0
:10337000939480910D0190910E018A159B050CF498
:1033800088CFF60186818823E9F081859285081728
:10339000190739F480914D0490914E0408171907CC
:1033A00089F0D6011F969C921F971C961C930E9332
:1033B0001B97C6010E942110C60106960E94DE0FCF
:1033C00010923F05BFEFAB1ABB0AE6E1CE0ED11C4F
:1033D000D0CFC80182519F45409710F00C941A221B
:1033E0008FEF93E00E9494328111A6C07EEED72E1B
:1033F000D00E0BE613E0D11036C019821A821B8260
:103400001C8299249A9468012FEFC21AD20AC8012B
:103410000E94943289831A82882309F48DC08130F6
:1034200009F07FC0580132E0A30EB11CC6010E9412
:103430009432C82E8A83882309F47EC0C5010E9475
:103440009432D82E8FEF8C0D8330D8F4580143E09E
:10345000A40EB11CDB82DD2021F0CE0101960E947A
:103460003B178501D0CF0115F4E01F0709F464C0B4
:10347000C8010E949432811101C0DA940F5F1F4F7E
:10348000BACF8BEF8C0D833030F5C8010396DB8209
:103490005C01DD2031F3580154E0A50EB11C0E94FF
:1034A00094328C838823E9F28B819C818130AFEF49
:1034B0009A0710F0982F8827B6E0CB1631F0E7E096
:1034C000CE1631F00E944329CCCF0E941D29C9CFCE
:1034D0000E94A428C6CFF4E0CF12C3CF580124E045
:1034E000A20EB11CC80103960E949432DD2021F186
:1034F000882311F18150990B989E9001999E300D6F
:1035000011244D2D4150550BCA01820F931F019775
:1035100008F4A7CFAFE9BFE01197F1F700C00000B2
:10352000F6CFCE0101960E943B1756019ACF81E05B
:103530000E94BB100E9471108091FF01877061F0A2
:10354000D70112968C91882339F080910B0582FF68
:1035500003C082E00E948A102796E2E10C94433275
:1035600081E00E947D10E6CF82E0FBCF823009F03F
:10357000D3CE80915F0290916002892B09F4CCCE6A
:1035800026E12C9DC0012D9D900D1124815B9B4F48
:10359000DC0150961C920E942110BECE81E08093E7
:1035A0000001CACF80910001882309F46CC648014C
:1035B00040EE841A91084090220280919501482A99
:1035C00080914603482A58E08516910408F086C089
:1035D00098012770332781E090E001C0880F2A9579
:1035E000EAF7552009F477C0482AD7018D919C91BC
:1035F0000E94660A21E030E0390102C0660C771CA7
:103600008A95E2F7E0912404F0912504FF83EE838C
:1036100020909201309093011D822D81E22FF0E0E5
:10362000EE0FFF1FEA54FD4FC080D180C114D104BA
:1036300009F4EBC6411005C0D60112968C91811198
:1036400087C0F601838190E086219721892B09F4B8
:103650007FC08085982F977009F487E0F8E08F1677
:10366000910408F055C0552009F44EC0869581702C
:10367000882309F46DC0D601AD90BC900A151B05D6
:1036800019F4552009F464C0EE81FF81CE16DF06DF
:1036900009F45EC0D6011D96ED91FC91309721F0A2
:1036A0008081882309F454C0642DC6010E94B606A7
:1036B000882309F44DC00A151B0509F0C8C6011579
:1036C000110509F4C9C65110C9C6A214B30409F002
:1036D0003FC0512CC3C68095482287CF552009F49E
:1036E0007DC610939301009392010E94140660938B
:1036F0001B0470931C0480931D0490931E0410926D
:1037000023041092220471CF82FB882780F9B0CF66
:103710005520F1F08170ACCF0E944115BDC60497D1
:10372000813A910548F48A2D0E94080A552009F42F
:10373000AAC50E946C0F00CF0E946C0F8FE39CE91A
:103740000197F1F700C000008A2D0E941016EECFFD
:103750009D819F5F9D8361CFFC0120813181021794
:10376000130709F089C5511089C51092210480E022
:103770005EC6882309F4D6C5FA018189882309F435
:10378000D1C5C5018B5A9B4F0E94DE0FCBC58091DE
:103790001101816080931101F3C5809111018E7F29
:1037A000809311010E944010EBC5809111018F7E22
:1037B000013E110531F0053E1105C9F4809111015A
:1037C0008F7D809311018091110180FFE8C5D701A1
:1037D00012968C910832110528F50E31110508F06A
:1037E00074C00430110580F58111D5C5D8C5C80154
:1037F0009056811540E2940720F0905E811590412B
:1038000010F78091110182FFCAC58091430481FDA8
:10381000C6C52CE332E040E0B60190E080E00E94B3
:103820000918BDC50933110558F40D32110518F4F6
:103830000B321105C9F69091410492FDD5CF08C015
:1038400004361105C1F3D0CF9091410494FDCCCF43
:10385000882309F4A1C09091460380912202282F69
:10386000292B322F3D7FB1F110926A031092690328
:103870003091410431FD2EC0F80143E0F695E79503
:103880004A95E1F7EE71FF27E95BFC4F98012F7035
:10389000332781E090E002C0880F991F2A95E2F754
:1038A0008095909520813181822393239183808319
:1038B00060E0C8010E94F417809122028D7F0E946F
:1038C000940982E00E948A1037CE9091410493FDC2
:1038D0008BCFBECF38E0F701ACE3B2E001900D92A0
:1038E0003A95E1F710923E021092400210923F0288
:1038F000A0906903B0906A030A151B05B1F53091D9
:10390000410435FF32C04091110141FB992490F8E8
:1039100041FF02C036FF29C0409167035091680300
:10392000B601641B750B40913E0450913F0464172F
:103930007507D8F491FF08C08091110180618093D0
:10394000110182E00E94AF098091460385FF08C003
:103950008091110180628093110180E20E94AF0981
:10396000692DC5010E94F417E7CD9091110121FB4B
:1039700091F9909311018D7F0E94940910936A032D
:1039800000936903D0926803C0926703809111018C
:1039900084608093110195CF970140E0B601C80182
:1039A0000E940918C9CD053F4CE5140709F463C00E
:1039B00008F45BC0063F8CE5180709F462C0D70124
:1039C00012963C91332309F49BC510924C040330AA
:1039D000BDE51B0708F061C00A3FECE51E0730F4A7
:1039E000C80182509C45449708F061C00E94CC0CED
:1039F00090930B0580930A0501313CE5130709F408
:103A00006CC108F0E6C009305CE5150709F453C144
:103A100008F0B1C005309CE5190709F444C108F06D
:103A200096C00330BCE51B0709F433C108F037C169
:103A300080910A0581600230FCE51F0709F42CC162
:103A400080910A0590910B050E94770D0E94E3106A
:103A500073CD04E621EE45EE68ED7CE5BBC406E2DD
:103A600021EE40EE63EF7CE5B5C407E225EE44EEBF
:103A700064EF7CE5AFC406E221EE42EE65EF7CE543
:103A8000A9C407E225EE46EE66EF7CE5A3C408E292
:103A900021E045EE69ED7CE59DC40136FDE51F079B
:103AA00009F4A4CF053A2DE5120709F49FCF06319A
:103AB0008CE5180709F429C50A358DE5180709F4BE
:103AC00065C108F03EC10115ACE51A0709F444C10F
:103AD0000E3D1C4509F44DC1F70186819781009781
:103AE00009F458C10E940C08182F092FF701C28051
:103AF000D580D2943FE0D3228091FF018770C1F03E
:103B0000AC2CCC20B1F0892F807F803421F080E272
:103B1000810F883068F080910B0582FF09C082E038
:103B20000E948A108091FF018770AA24A3948111BA
:103B3000A12C902E92942FE09222FBE0F91508F42C
:103B4000B6C1E92DF0E0E651FD4C0C941A3280919B
:103B50000A05806207302CE5120709F49DC08091A8
:103B60000A05806108303CE5130708F495C0809190
:103B70000A05806491C080910A058B7F0D304CE569
:103B8000140709F489C088F40B308CE5180709F490
:103B900098C080910A058C600C309CE5190708F4E8
:103BA0007BC080910A058D7F77C080910A058F7E4A
:103BB0000F30ACE51A0709F46FC080910A05877FC2
:103BC0000031BCE51B0708F467C080910A058F7DB2
:103BD00063C00D3FECE51E0709F47BC058F50531C5
:103BE0002CE5120709F483C098F480910A05837FBD
:103BF00003314CE5140709F44FC008F472C00E9469
:103C0000E31090910A05892F97FB87F9805844C0EB
:103C10000B3F8CE5180709F44AC008F056C08091A4
:103C20000B0581600A3FACE51A0709F009CF8093C4
:103C30000B0506CF0130BDE51B0709F464C0C0F4D5
:103C400080910B058C7F0F3FFCE51F0781F380916E
:103C50000B05836001152DE5120748F380910B05D4
:103C6000982F909591708E7F892B90FB81F9DFCFF3
:103C700001363DE5130709F44CC0053A4DE514073C
:103C800009F44EC002305DE5150709F0D9CE60E0B9
:103C90003BC080910A05826080930A05D1CE809155
:103CA0000A058460F9CF80910A058860F5CF80917C
:103CB0000B058260BCCF0E94E31080910A058068EA
:103CC000EBCF80910A058E7FE7CF80910B058E7F29
:103CD000AECF80910B058D7FAACF80910A058F7B97
:103CE000DBCF0E94E31080910A058F77D5CF8091BA
:103CF0000A0582FB992790F921E0922790FB82F92F
:103D000090FB83F9C9CF61E08EE090E00E94A2327F
:103D100097CE90910A05892F8F7E94FF8061BCCF4A
:103D200090910A05892F8E7F90FF8160B5CF809199
:103D30009401811104C089E20E94DD09FACC85E377
:103D4000FBCF0C35EDE51E07B9F010F1073A1D4524
:103D500009F0C2CE0E940C150E94E3103FEF44E32D
:103D60005CE0315040405040E1F700C000000E944C
:103D7000970B0E94C118EECF80910B0582FB88271C
:103D800080F991E089270E94A610A6CE81E0FBCFA2
:103D900080E0F9CF828100811181882369F0C80118
:103DA0000E94370CD82E682FC8010E949A0AB801C9
:103DB0008D2D0E941A0C96CEC8010E94660AD82E3C
:103DC000F6CF202F2F70B22E802F807F19F0B29463
:103DD00090EFB922CC20A9F0BB2059F080E2810FEE
:103DE000883010F0111107C08B2D0E94B6090E9477
:103DF0006C0F812F5AC080913F05B82AB0923F05C1
:103E0000F6CF812F0E944115BB2009F450C080E2FB
:103E1000810F883010F0111104C08B2D0E94AF0962
:103E200003C08B2D0E94A8090E946C0F40C0302F48
:103E30003F70B32E802F807F803219F0B29480EFD4
:103E4000B822112321F1113009F4B0C0CC2009F4BB
:103E5000B9C0DD2009F481C020E0D7014C91119652
:103E60005C91119712966C91129713967C9113970F
:103E700014968C910E94820C8091430481FDB9CFED
:103E8000F701858180FFB5CF8F70858366C08091F3
:103E90000B0582FD42C0CC20D1F1BB2029F08B2D37
:103EA0000E94B6090E946C0F80E00E941016A92D96
:103EB000A850BB0B149720F40E9458060E94EC0AED
:103EC000812F902F0E94D10A8111B7C110929701C2
:103ED00010929601AA20B1F08091FF0180FD12C0DE
:103EE000D70112961C928595859585950E94BB10E9
:103EF000C7010E942C198091FF01859585958595B4
:103F00000E947D1060E0C7010E94A50C25CB80E0D7
:103F10000E944115BB2059F280CFCC2011F1D11065
:103F200004C0809122028B2919C041E0D41206C03E
:103F3000809122028B290E949409B9CF809142047A
:103F4000823078F3D812EDCF0E94890990919501C3
:103F50008B2D892B8913809395018B2D0E943A1507
:103F6000A6CFD11003C00E94890917C080914204D6
:103F700051E0D51216C0823008F499CF80914603E3
:103F80008B2109F494CF0E948909909195018B2D82
:103F9000809589238913809395018B2D0E94331579
:103FA00086CF823000F3D812DECF81CF80914804D3
:103FB000CC2021F08D1508F47ACFCFCFD81608F099
:103FC00076CFEBCFDD2049F38091460490914704F2
:103FD000193321F080914404909145040E94BB0B59
:103FE000812F0E94411563CF802F8695869583701F
:103FF00069F0813009F05BCF812F902F9370C11051
:1040000002C090E080E00E942C0651CF812F902FBB
:104010009370C11002C090E080E00E94420647CF3A
:10402000802F837091F5C11042CF412F4295469564
:104030004770440F440F812F8F70042E01C0880FEA
:104040000A94EAF7212F207114FF07C02FE030E017
:1040500001C0220F4A95EAF72095302F3695369504
:104060003370323069F050F440912302313029F03E
:10407000822B84230E94DE101ACF842B822BFACF4E
:10408000282B809123028227F5CF8695CC2011F032
:10409000802F8170882309F40ACF412F42954695DD
:1040A0004770440F440F812F8F70042E01C0880F7A
:1040B0000A94EAF7212F207114FF07C02FE030E0A7
:1040C00001C0220F4A95EAF72095302F3695369594
:1040D0003370323069F050F440913E05313029F0B0
:1040E000822B84230E946C10E2CE842B822BFACF89
:1040F000282B80913E058227F5CFF02FFF70BF2E31
:10410000CC2029F08F2F0E94BB10812F27CF812F29
:104110000E9433158B2D0E947D10C9CE123F89F16C
:1041200060F4103FB9F0113F81F0CC2009F480C059
:10413000D1105FCE802F8F7128C0133F49F1143FFB
:10414000A1F780910B0582FD2FC0802F8F71CC20AD
:1041500011F31BC080914804CC2079F0D81608F0E8
:10416000A6CE202F2F7181E090E001C0880F2A9504
:10417000EAF790913E058927B5CF8D1508F497CEC3
:10418000F0CF802F8F71C110C6CF0E94BB108FCE91
:1041900080E0CC2009F4A6CF81E0902F9F7101C070
:1041A000880F9A95EAF79ECF80914204823040F1C1
:1041B000CC20D1F09091FF019770943041F40E948F
:1041C000BC09802F8F710E947D10A12C70CED81653
:1041D000E0F7202F2F71B22E822F0E94BB1063E0D8
:1041E0008B2D0E94C710F1CFD81630F00E94BC0969
:1041F00064E0802F8F71F5CF81E00E948A10E5CFB7
:10420000CC2059F0302F3F71B32E832F0E94BB106A
:1042100063E08B2D0E94C7104ACE81E00E948A1075
:1042200041E04D1508F043CE82E00E948A103FCE57
:10423000D110CACE802F8F716ECFCC2019F0D11043
:1042400045CE48CED11042CE20E0F70140815181C9
:104250006281738184810E94820C8091430483FF78
:1042600035CE8091960190919701029709F02ECE5C
:10427000812F0E94B9162ACE552029F0DC0118960C
:104280008C9185FF74CAC80197558F3F910511F035
:1042900008F048C020910D0130910E012817390710
:1042A00024F490930E0180930D01F701228136E1F1
:1042B000389F5001399FB00C1124A501415B5B4F21
:1042C0006A01DA0150962C935097928116968C9140
:1042D0001697992309F44DCA1A961C930E931997B1
:1042E0008F5F16968C930E942006F601968785872D
:1042F00080912202878380913F0590914603892B0C
:1043000080870190F081E02D309741F0D6015496DE
:104310006D917C91C5018B5A9B4F099510934E046A
:1043200000934D048091410480FF39C00E94200613
:104330006C01D70112968C91882309F436CA8091BA
:10434000110182FF08C02CE332E040E0B60190E0AA
:1043500080E00E9409180B31BCE51B0709F417CA5D
:104360000C31ECE51E0709F418CA90911101892F50
:104370008E7F90FF81600A31FCE51F0709F410CAA7
:10438000C8019056811520E2920728F0905E8115B1
:10439000904108F018CA10926A0310926903033F13
:1043A000BCE51B0709F45BCB08F0FDCA083DFCE542
:1043B0001F0709F44ECB093D2CE5120709F467CB22
:1043C000073D3CE5130709F0FACA06E221EE41EE8B
:1043D00067ED7CE5C7010E94DB16AEC880919201B3
:1043E000909193010817190781F41092930110928C
:1043F000920110921B0410921C0410921D04109242
:104400001E0410922304109222048091240490919F
:104410002504009709F437CFA8E08A16910408F024
:104420009BC9642D0E94B60681112DCF81E00E94A8
:10443000921529CF0031FFE51F0709F478C8013133
:104440002FE5120711F00C948C1982E071C8A114A9
:10445000B10409F03AC9512CB12CA12C80E00E9482
:104460009215D0922504C092240481E08093210407
:10447000F601858180931F0451100EC0AB2861F0B6
:10448000F601808191819C0124503109213A310546
:1044900008F042C90E94DD09D6011696AD90BC9085
:1044A000C5019A9581159F4110F4E0EEBE22772454
:1044B0007394C50101978C3A9D4508F0712CD60183
:1044C0001996ED91FC911A97309731F01B966D91EA
:1044D0007C9181E009957822772079F0F601868138
:1044E00097810E94F20A80932004C501F8E08F169C
:1044F000910408F014C90E9465060E946C0F16C949
:1045000006315CE5150709F0E7CA80914603982F4C
:104510009A7A2091400420FF04C0482F447409F087
:1045200090E021FF04C0482F417109F090E022FF84
:1045300004C0482F487809F090E023FF03C082723E
:1045400009F090E0332309F4F2CB81E0911101C02E
:1045500080E08093940189E2911185E30E94080A2A
:10456000E8C8B0E0A0E0E7EBF2E20C9431328091D1
:10457000B801807F31F48091B501C091FC018111B7
:1045800007C0CDB7DEB7E8E00C944D322196C77076
:104590008091BB018C17A9F3F090B301E090B401B6
:1045A000C090B601D090B701A6016E2D8F2D0E944C
:1045B000D606D0E08111EACF8E0183E0000F111FF3
:1045C0008A95E1F7F801E454FE4F81818E11DECF28
:1045D00080818F11DBCF82818111D8CFE380F4807D
:1045E000EC18FD0860E083EB91E00E94A50C80913F
:1045F0003E0490913F04E816F90640F68091B80118
:104600008F7080618093B801F801EF53FE4F808175
:104610008F708061808383EB91E00E942C190E944F
:104620005C0AAFCFA5E1B0E0E8E1F3E20C942832F8
:104630008C0185E0F801DE01519601900D928A957A
:10464000E1F7D8014C9011965C9011971296EC907E
:1046500012971396CD90DC9060E083EB91E00E947E
:10466000A50C83EBA82E81E0B82E8090B601909027
:10467000B701A4016091B4018091B3010E94D606F4
:104680008111B6C1F090B501F601E819F9094F01A1
:1046900060E0FF2009F459C1C5010E94A50C60909B
:1046A0003E0470903F043090B8018614970408F0DF
:1046B000FFC04091B6015091B701B090B301A090F6
:1046C000B401832D807F6A2D09F099C08B2D0E9443
:1046D000D606FE2C811127C0D80111968C91119716
:1046E0008A1121C08C918B111EC02091B90130918B
:1046F000BA0116968D919C9128173907A1F4E11003
:1047000012C0832D8F7080618093B80183EB91E09C
:104710000E942C198091B801F80185838F2D659630
:10472000E1E10C944432F4EF6F16F1E07F0620F4DF
:104730008091430480FF21C0A601652D842D0E9435
:10474000D606811118C081E08E2580FF16C04E2D3F
:10475000652D842D0E943C0A882379F083EB91E03B
:104760000E942C1988E0E3EBF1E0DF011D928A95AD
:10477000E9F7F12CD3CF80E0E8CFA601652D842D99
:104780000E94D606811124C081E08E25B82FB17019
:10479000CB2E80FF2BC04E2D652D842D0E943C0A10
:1047A000D82E811123C0498A5A8A89899A890E9400
:1047B000660C292F22952F70223060F0243088F467
:1047C0009F7061F0F8019581907F41F4FD2CA6CF98
:1047D00080E0DCCF9F7011F08823C1F3805E8830C9
:1047E000A8F3C8010E942C19DC2CF0CFEE2009F4AC
:1047F00095CF8091B80181608093B801BACF8B2D9D
:104800000E94D606811124C0D80111968C9111976F
:104810008A111EC08C918B111BC02091B90130915F
:10482000BA0116968D919C9117972817390781F434
:10483000E1100EC015963C92C8010E942C1988E028
:10484000F801A3EBB1E001900D928A95E1F766CFF4
:10485000C8010E94730C882339F1EE2029F1809160
:10486000B8018032A0F02091B3013091B4013A87B1
:1048700029871B86DD86CC868E878091B901909131
:10488000BA01988B8F87CE0109960E942C1988E077
:10489000F801A3EBB1E001900D928A95E1F70E9437
:1048A000B122FF24F3943ACFC8010E942C19F9CF0A
:1048B000832D807F09F452CF9090B3018090B40192
:1048C0004091B6015091B701682D892D0E94D606FE
:1048D00081111CC0F8018181881118C08081891163
:1048E00015C02091B9013091BA01868197812817AE
:1048F000390761F4E1100AC03582C8010E942C1901
:1049000088E0D5011D928A95E9F708CFC8010E9479
:10491000730C882349F2EE2039F28091B80180327D
:1049200008F4B5CF2091B3013091B4013A832983C3
:104930001B82DD82CC828E838091B9019091BA0175
:1049400098878F83CE010196A0CF83EB91E00E94E0
:10495000A50C80913E0490913F048816990680F63C
:10496000FE2CEE2009F4A0CFE090B301D090B4016A
:104970004091B6015091B7016D2D8E2D0E94D60643
:10498000811128C0F80181818D1124C080818E1190
:1049900021C02091B9013091BA01868197812817F1
:1049A0003907C1F48091430482FD49CF9091B80149
:1049B00090FD45CF907F09F442CF8091B801858367
:1049C000903F09F439CF982F907F905F8F70892B9B
:1049D000858332CFC8010E94730C811158CF80911A
:1049E000B80181608093B801C8010E942C1996CE4D
:1049F000EE2009F459CFC8010E94730CF82E8823C9
:104A000009F452CF88E0F801A3EBB1E001900D92D8
:104A10008A95E1F78091B3019091B4010E94660CF0
:104A20000E94B1227BCEA0E1B0E0E9E1F5E20C9476
:104A3000373229873A874B875C876D877E878F87D8
:104A4000988BCE0109960E94122381112FC088E015
:104A5000FE013996DE01119601900D928A95E1F7DB
:104A60004C855D856A8589850E94D60681111EC0A8
:104A7000A091BB01B0E0CD010196877099272091EC
:104A8000FC0128171906E1F093E0AA0FBB1F9A95C5
:104A9000E1F7A454BE4F98E0FE01319601900D92CB
:104AA0009A95E1F78093BB010E945C0A8091FC011A
:104AB0009091BB01891312C06096E2E00C945332CE
:104AC0000E94E3101092BB011092FC0188E0E3EB1E
:104AD000F1E0DF011D928A95E9F7E8CFB8E08B9FFE
:104AE000C001112484549E4F0E941223882321F375
:104AF0008091FC0190E00196877099278093FC01DA
:104B0000D5CFEF92FF920F931F93CF93DF938091B6
:104B10006E03882361F0C0916D038CE0F82E8091C4
:104B20006E03C81748F010926E0310926D03CDB754
:104B3000DEB7E6E00C944F32EE24E394EC0EE09204
:104B40006D030C2F10E0CF9DE0011124C159DC4F03
:104B50004B815C81698188810E94D60681111DC0CC
:104B60008E819F81892B21F488859985019651F446
:104B7000288139814A815B816C817D818E819F8111
:104B80000E941325F09EF001F19EF00D1124E159D1
:104B9000FC4F1482138210923F05CE2DC0CF10928D
:104BA000120410921104109212018091100480934B
:104BB0000F040E940F070E9481250895B0E0A0E035
:104BC000E4EEF5E20C942832C0910F0497E0892EB0
:104BD00001E010E02CE0322E3EEF932E442443946B
:104BE000809110048C1309C00E9481250E940F0738
:104BF000CDB7DEB7E1E10C944432D0E0FE01EE0F18
:104C0000FF1FE95FFB4F80819181889ED001899EC3
:104C1000B00D1124A153BC4F14962C91149721115F
:104C200058C050906E03EFE6F3E030E020E0712CC6
:104C30005D01251508F04BC0E284F384D501CD90C9
:104C4000DC906FEF7FEF612C462D50E0DA01AA0F68
:104C5000BB1FAC0DBD1D0D90BC91A02D109731F068
:104C6000EA16FB0609F4BA016394EECF6F3F7607AC
:104C7000A9F1D80102C0AA0FBB1F6A95E2F77A2AF0
:104C8000B801062C02C0660F771F0A94E2F7AB0149
:104C90004150510974161506F9F4329EF001339E05
:104CA000F00D1124E159FC4F889ED001899EB00D72
:104CB0001124A153BC4F12962D913C911397378329
:104CC0002683908291829187808715964C920E94CC
:104CD000E1062196C37084CF148213822F5F3F4F69
:104CE0003C96A7CFA9E1B0E0E8E7F6E20C942732C2
:104CF000942F498B252F5A8B6B8B7C8B8D8B4C89FA
:104D00005D89622F892F0E94D606811109C080918A
:104D10009601909197010196909397018093960147
:104D20008B89811110923F051D861E861F86188A69
:104D300085E0FE017196DE01199601900D928A952B
:104D4000E1F780910B0582FF1EC0809128049091AD
:104D50002904892BC1F00E9420062091FD01309189
:104D6000FE01821B930B20912804309129048217A5
:104D7000930720F08091FF0182FFE2C10E94C309E6
:104D800081110E9489094C855D856A8589850E940B
:104D9000D606811111C061E0CE0109960E94A50CD2
:104DA0006C018B8527EFC2162CE5D20681F488238F
:104DB00021F181E08093120129853A854B855C853C
:104DC0006D857E858F8598890E941325C6C038EF32
:104DD000C3163CE5D30629F4882379F00E94CF2539
:104DE000EBCF49EFC4164CE5D40639F4882329F0FB
:104DF000809112018111F2CFDCCF0FEC13E0512C26
:104E0000B12CA12C22242394312C2EEF422EF80118
:104E10004081518188248A94982C20E0822F90E050
:104E2000FC01EE0FFF1FE40FF51F6081718161151A
:104E3000710531F0C616D70609F44C012F5FEECF8D
:104E4000F12CFFEF8F169F0609F449C0F801448149
:104E5000F09012018F2D411180E0F82FF170FF2E9C
:104E6000F801E58086819B85992309F4F8C0FF202D
:104E700009F4F5C060903C0470903D04E11013C04B
:104E8000A101082C01C0440F0A94EAF7842B868301
:104E900080916B0390916C038615970520F47092B6
:104EA0006C0360926B03C10102C0880F991F2A95A1
:104EB000E2F70197F80126812817190681F48091FD
:104EC000110490911204009709F44BC00E9405064A
:104ED0006816790608F045C021E0F80124835F28B0
:104EE000FFEFAF1ABF0A095F1F4F28E0A216B104F7
:104EF00009F08DCF8B85882309F40DC1552009F465
:104F00000AC10E942006909312048093110480919C
:104F10006E03883010F591E0980F90936E0398E03F
:104F2000FE013996DE01119601900D929A95E1F7F6
:104F30003CE0839FC001112481599C4F28E0FE0171
:104F40003196DC0101900D922A95E1F72FEF3FEFAA
:104F5000FC0131872087D386C2866996E2E10C94F2
:104F6000433280910F0450911004982FF0E0E0E05C
:104F7000851314C090930F04E017F10709F4AFCF25
:104F800090E0FC01EE0FFF1FE95FFB4FB182A082B2
:104F900001968370992780931004A1CF682E712CFD
:104FA000F301EE0FFF1FE95FFB4F2081318147E0E6
:104FB000429FD001439FB00D1124A153BC4F6D916E
:104FC0007C911197798F688F40E020E030E0E32FEB
:104FD000F0E0EE0FFF1F688D798DE60FF71F8080E0
:104FE000918081149104E1F0F8010190F081E02DAD
:104FF000FF8BEE8B20E005C08616970609F44F2D37
:105000002F5FE22FF0E0EE0FFF1F6E897F89E60F22
:10501000F71F608171816115710571F73F5FD7CF0F
:105020004423D1F0F801231708F0FD0121E0248387
:105030000E171F0721F490930F04F42E50CF9813EE
:1050400005C0AE17BF0711F49F5F937093012F5FE8
:105050003F4F822F83708CCFF0E0E0E0F7CF90E0FD
:10506000E11020C0B10102C0660F771F2A95E2F758
:105070009B01215031098217930731F4442309F42D
:1050800048C0C5010E94E106C101082C01C0880F7B
:105090000A94EAF7982F9095F801868189238683F0
:1050A000FE2C1DCF9C01082C02C0359527950A9433
:1050B000E2F7A90141705527BC01615071098623AF
:1050C0009723892B11F5452B01F1F80182819381FA
:1050D000892BC1F01B821C821D821E8249824A825A
:1050E0000E9420068160582F9D838C83F801828165
:1050F00093818F83988729813A814B816D817E814D
:105100000E941325F8011582BFCFF22FF170EF2E08
:10511000BBCFEF2CB9CF90910F048091100498175A
:1051200031F00E94DE25552009F446CE16CF0E94AC
:10513000812510921204109211040E940F07F3CFE0
:1051400082E00E948A101ACEA5E0B0E0EAEAF8E216
:105150000C9437329093430380934203811520E2ED
:10516000920730F40E94F8152596E2E00C94533231
:1051700080EF89838A831B820E9420068160782FBA
:105180009D838C8349815A816B818D810E94722617
:10519000EBCF0F931F93CF93DF938C01EB016BE564
:1051A00072E08C2F0E94850D892BA1F4809144041C
:1051B000909145040E94BB0BDD27CD5ADD4F8881BD
:1051C000F801108218828330F1F048F4813059F0F0
:1051D000823081F0DF91CF911F910F91089584303B
:1051E000B9F08530B9F780915B0290915C0200972D
:1051F00089F306C080915D0290915E02009799F359
:105200000E94A428E7CF80915F0290916002F6CFC0
:105210008091610290916202009791F720915B0268
:1052200030915C0280915D0290915E022115310502
:10523000F1F2009729F7C901E3CFA5E0B0E0E3E27E
:10524000F9E20C9437329093430380934203811523
:1052500020E2920730F40E94DC172596E2E00C94DD
:10526000533280EF89838A8381E08B830E942006FA
:105270008160782F9D838C8349815A816B818D81D8
:105280000E947226EACFCF93DF93EC010E941D2982
:1052900080914404909145040E94BB0BCE010E9472
:1052A000A428DF91CF9108950F931F93CF93DF939D
:1052B0008C01862F6BE572E00E94850D892BB1F47D
:1052C000C0915B02D0915C02209781F0F80180814F
:1052D000833051F4CE010E944329CE010E9443291C
:1052E000CE010E94432902C08430D0F7DF91CF91D4
:1052F0001F910F9108950F931F93CF93DF938C010C
:10530000EB016BE572E08C2F0E94850D892B09F073
:1053100061C0FE01FF27D8018C91ED5AFD4F81300D
:10532000D9F419969C911997992311F080830CC098
:105330001A969C919923D1F382E0808380915D023B
:1053400090915E020097D9F480915B0290915C028B
:10535000009709F43FC013C08230D1F519968C91A3
:10536000199781112AC01A968C9181110BC083E084
:10537000808380915F0290916002009701F10E940A
:105380001D2928C084E0808380916102909162028F
:105390000097A9F780915B0290915C020097F9F069
:1053A0000E94432980915D0290915E02009739F737
:1053B00080915B0290915C02E2CF85E080838091D6
:1053C0005B0290915C02009729F00E944329F0CF84
:1053D00086E08083DF91CF911F910F910895809196
:1053E0005D0290915E02B4CF1F920F920FB60F92A2
:1053F00011242F933F934F935F936F937F938F93DA
:105400009F93AF93BF93CF93DF93EF93FF93D0918D
:10541000E900DF708091EC00C82FC17080FDC0E80A
:105420001092E9008091F000877F8093F0007894DB
:105430000E94F9101092E9008091F000886080933A
:10544000F000CD2BCF70C093E900FF91EF91DF9179
:10545000CF91BF91AF919F918F917F916F915F910C
:105460004F913F912F910F900FBE0F901F90189565
:105470001F920F920FB60F9211242F933F934F93C9
:105480005F936F937F938F939F93AF93BF93EF93AC
:10549000FF938091E10082FF09C08091E20082FFCA
:1054A00005C08091E1008B7F8093E1008091DA005C
:1054B00080FF24C08091D80080FF20C08091DA0056
:1054C0008E7F8093DA008091D90080FF9DC080E1BB
:1054D00089BD82E189BD09B400FEFDCF81E08093E2
:1054E0003D0580910F05811109C00E9454040E945E
:1054F00047058091E20084608093E2008091E100A2
:1055000080FF17C08091E20080FF13C08091E2000D
:105510008E7F8093E2008091E20080618093E200C0
:105520008091D80080628093D80019BC85E0809378
:105530003D058091E10084FF2BC08091E20084FF53
:1055400027C080E189BD82E189BD89B5982F91701E
:1055500080FFFBCF8091D8008F7D8093D800809111
:10556000E1008F7E8093E1008091E2008F7E809346
:10557000E2008091E20081608093E2008091340536
:10558000882309F447C084E080933D0580913D0560
:105590008091E10083FF27C08091E20083FF23C058
:1055A0008091E100877F8093E10082E080933D0558
:1055B000109234058091E1008E7F8093E10080910C
:1055C000E2008E7F8093E2008091E2008061809310
:1055D000E20042E060E080E00E9415058091F0006A
:1055E00088608093F000FF91EF91BF91AF919F9100
:1055F0008F917F916F915F914F913F912F910F907C
:105600000FBE0F901F90189519BC10923D05109277
:105610000F0574CF8091E30087FD93E090933D05E3
:10562000B5CF78941F921FB61F9211248F939F932A
:10563000AF93BF938091060590910705A09108054F
:10564000B09109050196A11DB11D809306059093A7
:105650000705A0930805B0930905BF91AF919F91ED
:105660008F911F901FBE1F9018951F921FB61F92FB
:1056700011248F939F93AF93BF9380910505811160
:1056800013C08091060590910705A0910805B0917F
:1056900009054196A11DB11D80930605909307054C
:1056A000A0930805B0930905BF91AF919F918F9189
:1056B0001F901FBE1F901895CDB7DEB7E6970FB6A7
:1056C000F894DEBF0FBECDBF85B7806885BF85B7B4
:1056D000806885BF84B7877F84BF0FB6F894A8958C
:1056E00080916000886180936000109260000FBE1E
:1056F00080E890E00FB6F894809361009093610089
:105700000FBE80EB97E090937101809370010E942F
:10571000990D0E945E0E0E94D20D0E94C50B819AC7
:105720000E9454040E9447058091E20084608093A7
:10573000E200789480913D058823A1F01091E90062
:105740001F709091EC00892F817090FD80E8182BDC
:105750001092E9008091E80083FD0E94F9101F700B
:105760001093E90082E084BD93E095BD9AEF97BD68
:1057700080936E000E94B30C811102C00E948314BA
:105780000DE411E072E5E72E71E0F72ED8018D915E
:105790008D018F3F11F00E94B207E016F106B1F7BC
:1057A00002E511E060E6E62E61E0F62EF801819157
:1057B0008F018F3F11F00E94B207E016F106B1F79A
:1057C0008AE0E9E4F2E0DF01282F1D922A95E9F74B
:1057D000E7E2F2E0DF011D928A95E9F790E080E0D0
:1057E0000E949C32883E9E4F21F40E94B30C81118E
:1057F00002C00E94C11882E090E00E94943280931F
:1058000031020E94CC0C90930B0580930A050E94F4
:10581000A20EEFE3FCE93197F1F700C000000E940F
:10582000A20E8091490280FF08C06FEF7FEF90E0E9
:1058300080E00E94C0320E94970B83E090E00E94BB
:1058400094320E94DE1081E091E0909302058093F3
:1058500001059E012F5F3F4F790180913D0500E1D9
:1058600012E1853009F45DC10E94A20E81110E94EF
:105870001406E9E4F2E0FEABEDAB52E3C52E52E0D4
:10588000D52E512C412CADA9BEA9AD90BD90BEAB7B
:10589000ADABF601619071906F016A147B04B1F1B8
:1058A000312C01E010E06A247B244F01F2E08F1AD2
:1058B0009108C30180239123892B11F13BA64CA6AB
:1058C00021E0C50180239123892B09F420E02DA735
:1058D0000E9420068160782F9FA78EA74BA55CA50C
:1058E0006DA58FA50E947226D4018D919C91119770
:1058F000802791278D939C935394BBE0B515E0F0DE
:105900003394000F111FEEE03E12D3CF4394F5E025
:105910004F12B9CF511010C08FEF88AB89AB1AAAC4
:105920000E9420068160782F9CAB8BAB48A959A9B7
:105930006AA98CA90E947226809122049091230466
:10594000892B09F43EC040911704509118046091CE
:10595000190470911A042FB7F8948091060590915C
:105960000705A0910805B09109052FBF841B950B71
:10597000A60BB70B409113045091140460911504C9
:105980007091160484179507A607B707D0F0809189
:105990002204909123040E94DC1710922304109299
:1059A00022041092170410921804109219041092F5
:1059B0001A041092130410921404109215041092F9
:1059C000160480910D0190910E0110E006E1019600
:1059D00009F0E2C0809112018111E8C08091410478
:1059E00080FF1EC08091110182FF1AC00E94200614
:1059F0002091670330916803AC01421B530B209147
:105A00000F01309110014217530750F02CE332E0A0
:105A100041E0BC018091690390916A030E940918DA
:105A20000E94580690914402891721F08093440205
:105A30000E94EC0A80913D05843009F00ECF83E08E
:105A40008093E9008091E80082FF07CF8091E80011
:105A500090E085FF06C00E947304882309F4D1C03A
:105A600091E08091E8008B778093E800992309F416
:105A7000F4CE00914403109145038981011511056D
:105A800009F4DBC08E3F09F05BC18A81833020F0CE
:105A90008550833008F054C1EA81EE3008F050C1DF
:105AA000F0E0EA50FD4C0C941A3280913D058430B0
:105AB00039F180E00E94EC0A1092050588E190E03F
:105AC000A0E40FB6F894A895809360000FBEA09351
:105AD000600083B7817F846083BF83B7816083BFA9
